{"contracts/NFTDutchAuction_ERC20Bids.sol":{"NFTDutchAuction_ERC20Bids":{"abi":[{"anonymous":false,"inputs":[{"indexed":false,"internalType":"address","name":"previousAdmin","type":"address"},{"indexed":false,"internalType":"address","name":"newAdmin","type":"address"}],"name":"AdminChanged","type":"event"},{"anonymous":false,"inputs":[{"indexed":true,"internalType":"address","name":"winner","type":"address"},{"indexed":false,"internalType":"uint256","name":"winningBidAmount","type":"uint256"}],"name":"AuctionEnded","type":"event"},{"anonymous":false,"inputs":[{"indexed":true,"internalType":"address","name":"beacon","type":"address"}],"name":"BeaconUpgraded","type":"event"},{"anonymous":false,"inputs":[{"indexed":true,"internalType":"address","name":"bidder","type":"address"},{"indexed":false,"internalType":"uint256","name":"bidAmount","type":"uint256"}],"name":"BidPlaced","type":"event"},{"anonymous":false,"inputs":[{"indexed":false,"internalType":"uint8","name":"version","type":"uint8"}],"name":"Initialized","type":"event"},{"anonymous":false,"inputs":[{"indexed":true,"internalType":"address","name":"previousOwner","type":"address"},{"indexed":true,"internalType":"address","name":"newOwner","type":"address"}],"name":"OwnershipTransferred","type":"event"},{"anonymous":false,"inputs":[{"indexed":true,"internalType":"address","name":"implementation","type":"address"}],"name":"Upgraded","type":"event"},{"inputs":[],"name":"auctionEnded","outputs":[{"internalType":"bool","name":"","type":"bool"}],"stateMutability":"view","type":"function"},{"inputs":[],"name":"auctionStartTime","outputs":[{"internalType":"uint256","name":"","type":"uint256"}],"stateMutability":"view","type":"function"},{"inputs":[{"internalType":"address","name":"","type":"address"}],"name":"bids","outputs":[{"internalType":"uint256","name":"","type":"uint256"}],"stateMutability":"view","type":"function"},{"inputs":[],"name":"endAuction","outputs":[],"stateMutability":"nonpayable","type":"function"},{"inputs":[],"name":"erc20Token","outputs":[{"internalType":"contract IERC20","name":"","type":"address"}],"stateMutability":"view","type":"function"},{"inputs":[],"name":"erc721TokenAddress","outputs":[{"internalType":"address","name":"","type":"address"}],"stateMutability":"view","type":"function"},{"inputs":[],"name":"getMessage","outputs":[{"internalType":"string","name":"","type":"string"}],"stateMutability":"view","type":"function"},{"inputs":[],"name":"highestBid","outputs":[{"internalType":"uint256","name":"","type":"uint256"}],"stateMutability":"view","type":"function"},{"inputs":[],"name":"highestBidder","outputs":[{"internalType":"address","name":"","type":"address"}],"stateMutability":"view","type":"function"},{"inputs":[],"name":"initialPrice","outputs":[{"internalType":"uint256","name":"","type":"uint256"}],"stateMutability":"view","type":"function"},{"inputs":[{"internalType":"string","name":"_upgradeNumber","type":"string"},{"internalType":"address","name":"_erc20TokenAddress","type":"address"},{"internalType":"address","name":"_erc721TokenAddress","type":"address"},{"internalType":"uint256","name":"_nftTokenId","type":"uint256"},{"internalType":"uint256","name":"_reservePrice","type":"uint256"},{"internalType":"uint256","name":"_numBlocksAuctionOpen","type":"uint256"},{"internalType":"uint256","name":"_offerPriceDecrement","type":"uint256"}],"name":"initialize","outputs":[],"stateMutability":"nonpayable","type":"function"},{"inputs":[],"name":"itemSold","outputs":[{"internalType":"bool","name":"","type":"bool"}],"stateMutability":"view","type":"function"},{"inputs":[],"name":"nft","outputs":[{"internalType":"contract IERC721","name":"","type":"address"}],"stateMutability":"view","type":"function"},{"inputs":[],"name":"nftTokenId","outputs":[{"internalType":"uint256","name":"","type":"uint256"}],"stateMutability":"view","type":"function"},{"inputs":[],"name":"numBlocksAuctionOpen","outputs":[{"internalType":"uint256","name":"","type":"uint256"}],"stateMutability":"view","type":"function"},{"inputs":[],"name":"offerPriceDecrement","outputs":[{"internalType":"uint256","name":"","type":"uint256"}],"stateMutability":"view","type":"function"},{"inputs":[],"name":"owner","outputs":[{"internalType":"address","name":"","type":"address"}],"stateMutability":"view","type":"function"},{"inputs":[{"internalType":"uint256","name":"bidAmount","type":"uint256"}],"name":"placeBid","outputs":[],"stateMutability":"nonpayable","type":"function"},{"inputs":[],"name":"proxiableUUID","outputs":[{"internalType":"bytes32","name":"","type":"bytes32"}],"stateMutability":"view","type":"function"},{"inputs":[{"internalType":"address","name":"bidder","type":"address"}],"name":"refundBidders","outputs":[],"stateMutability":"nonpayable","type":"function"},{"inputs":[],"name":"renounceOwnership","outputs":[],"stateMutability":"nonpayable","type":"function"},{"inputs":[],"name":"reservePrice","outputs":[{"internalType":"uint256","name":"","type":"uint256"}],"stateMutability":"view","type":"function"},{"inputs":[{"internalType":"uint256","name":"bidAmount","type":"uint256"},{"components":[{"internalType":"address","name":"owner","type":"address"},{"internalType":"address","name":"spender","type":"address"},{"internalType":"uint256","name":"value","type":"uint256"},{"internalType":"uint256","name":"deadline","type":"uint256"},{"internalType":"uint256","name":"nonce","type":"uint256"},{"internalType":"uint8","name":"v","type":"uint8"},{"internalType":"bytes32","name":"r","type":"bytes32"},{"internalType":"bytes32","name":"s","type":"bytes32"}],"internalType":"struct NFTDutchAuction_ERC20Bids.PermitData","name":"permitData","type":"tuple"}],"name":"submitBidWithPermit","outputs":[],"stateMutability":"nonpayable","type":"function"},{"inputs":[{"internalType":"address","name":"newOwner","type":"address"}],"name":"transferOwnership","outputs":[],"stateMutability":"nonpayable","type":"function"},{"inputs":[],"name":"upgradeNumber","outputs":[{"internalType":"string","name":"","type":"string"}],"stateMutability":"view","type":"function"},{"inputs":[{"internalType":"address","name":"newImplementation","type":"address"}],"name":"upgradeTo","outputs":[],"stateMutability":"nonpayable","type":"function"},{"inputs":[{"internalType":"address","name":"newImplementation","type":"address"},{"internalType":"bytes","name":"data","type":"bytes"}],"name":"upgradeToAndCall","outputs":[],"stateMutability":"payable","type":"function"}],"evm":{"bytecode":{"linkReferences":{},"object":"60a06040523073ffffffffffffffffffffffffffffffffffffffff1660809073ffffffffffffffffffffffffffffffffffffffff1681525034801561004357600080fd5b5060805161414f61007b600039600081816109fe01528181610a8c01528181610bbf01528181610c4d0152610cfd015261414f6000f3fe60806040526004361061019c5760003560e01c806386433374116100ec578063d57bde791161008a578063eb54f9ec11610064578063eb54f9ec14610563578063eb8bf84d1461058e578063f2fde38b146105b9578063fe67a54b146105e25761019c565b8063d57bde79146104e2578063db2e1eed1461050d578063df241cb9146105385761019c565b806391f90157116100c657806391f90157146104385780639979ef4514610463578063ce6d41de1461048c578063d3642a88146104b75761019c565b806386433374146103b75780638a13eea7146103e25780638da5cb5b1461040d5761019c565b80634f1ef28611610159578063715018a611610133578063715018a61461032357806374fe29161461033a5780637e8305741461036357806384b8b9251461038e5761019c565b80634f1ef2861461029f57806352d1902d146102bb57806362ea82db146102e65761019c565b80631d0806ae146101a15780632bf0d538146101cc5780633103ea62146101f55780633659cfe614610220578063438e897a1461024957806347ccca0214610274575b600080fd5b3480156101ad57600080fd5b506101b66105f9565b6040516101c39190612a17565b60405180910390f35b3480156101d857600080fd5b506101f360048036038101906101ee9190612aa4565b6105ff565b005b34801561020157600080fd5b5061020a6109f6565b6040516102179190612a17565b60405180910390f35b34801561022c57600080fd5b5061024760048036038101906102429190612aa4565b6109fc565b005b34801561025557600080fd5b5061025e610b84565b60405161026b9190612aec565b60405180910390f35b34801561028057600080fd5b50610289610b97565b6040516102969190612b66565b60405180910390f35b6102b960048036038101906102b49190612cc7565b610bbd565b005b3480156102c757600080fd5b506102d0610cf9565b6040516102dd9190612d3c565b60405180910390f35b3480156102f257600080fd5b5061030d60048036038101906103089190612aa4565b610db2565b60405161031a9190612a17565b60405180910390f35b34801561032f57600080fd5b50610338610dca565b005b34801561034657600080fd5b50610361600480360381019061035c9190612e24565b610dde565b005b34801561036f57600080fd5b50610378611364565b6040516103859190612a17565b60405180910390f35b34801561039a57600080fd5b506103b560048036038101906103b09190613016565b61136a565b005b3480156103c357600080fd5b506103cc611401565b6040516103d99190612aec565b60405180910390f35b3480156103ee57600080fd5b506103f7611414565b6040516104049190613078565b60405180910390f35b34801561041957600080fd5b5061042261143a565b60405161042f91906130a2565b60405180910390f35b34801561044457600080fd5b5061044d611464565b60405161045a91906130a2565b60405180910390f35b34801561046f57600080fd5b5061048a600480360381019061048591906130bd565b61148a565b005b34801561049857600080fd5b506104a16119cc565b6040516104ae9190613169565b60405180910390f35b3480156104c357600080fd5b506104cc611a9a565b6040516104d99190612a17565b60405180910390f35b3480156104ee57600080fd5b506104f7611aa0565b6040516105049190612a17565b60405180910390f35b34801561051957600080fd5b50610522611aa6565b60405161052f9190612a17565b60405180910390f35b34801561054457600080fd5b5061054d611aac565b60405161055a91906130a2565b60405180910390f35b34801561056f57600080fd5b50610578611ad2565b6040516105859190612a17565b60405180910390f35b34801561059a57600080fd5b506105a3611ad8565b6040516105b09190613169565b60405180910390f35b3480156105c557600080fd5b506105e060048036038101906105db9190612aa4565b611b66565b005b3480156105ee57600080fd5b506105f7611be9565b005b60d05481565b61061367abd474dacd7fca1560c01b61220f565b61062767daa8ef87e05a14a060c01b61220f565b61063b677f84f243a200851660c01b61220f565b61064f67d050cb02fce6a77f60c01b61220f565b60d160009054906101000a900460ff1661069e576040517f08c379a0000000000000000000000000000000000000000000000000000000008152600401610695906131d7565b60405180910390fd5b6106b26709bd599923328f7860c01b61220f565b6106c66728cf245a593f04c160c01b61220f565b6106da6785f8625a7e946d4760c01b61220f565b6106ee6796b305704cf3edb460c01b61220f565b60d360009054906101000a900473ffffffffffffffffffffffffffffffffffffffff1673ffffffffffffffffffffffffffffffffffffffff168173ffffffffffffffffffffffffffffffffffffffff160361077e576040517f08c379a000000000000000000000000000000000000000000000000000000000815260040161077590613243565b60405180910390fd5b61079267a5223ed45dd9591b60c01b61220f565b6107a6672078a87b9b66137c60c01b61220f565b6107ba678e8bcc18d06a3c5d60c01b61220f565b6107ce67b89dd8956081025b60c01b61220f565b600060d260008373ffffffffffffffffffffffffffffffffffffffff1673ffffffffffffffffffffffffffffffffffffffff1681526020019081526020016000205411610850576040517f08c379a0000000000000000000000000000000000000000000000000000000008152600401610847906132af565b60405180910390fd5b610864672dabf325df43b93960c01b61220f565b61087867e4f43784d73f10ed60c01b61220f565b61088c6724e5d7c56aa9a63760c01b61220f565b600060d260008373ffffffffffffffffffffffffffffffffffffffff1673ffffffffffffffffffffffffffffffffffffffff1681526020019081526020016000205490506108e467ee175519cb6de5cd60c01b61220f565b600060d260008473ffffffffffffffffffffffffffffffffffffffff1673ffffffffffffffffffffffffffffffffffffffff1681526020019081526020016000208190555061093d670ae4d4dbf4228af960c01b61220f565b6109516782f033e2c1cc969160c01b61220f565b60c960009054906101000a900473ffffffffffffffffffffffffffffffffffffffff1673ffffffffffffffffffffffffffffffffffffffff1663a9059cbb83836040518363ffffffff1660e01b81526004016109ae9291906132cf565b6020604051808303816000875af11580156109cd573d6000803e3d6000fd5b505050506040513d601f19601f820116820180604052508101906109f19190613324565b505050565b60ce5481565b7f000000000000000000000000000000000000000000000000000000000000000073ffffffffffffffffffffffffffffffffffffffff163073ffffffffffffffffffffffffffffffffffffffff1603610a8a576040517f08c379a0000000000000000000000000000000000000000000000000000000008152600401610a81906133c3565b60405180910390fd5b7f000000000000000000000000000000000000000000000000000000000000000073ffffffffffffffffffffffffffffffffffffffff16610ac9612212565b73ffffffffffffffffffffffffffffffffffffffff1614610b1f576040517f08c379a0000000000000000000000000000000000000000000000000000000008152600401610b1690613455565b60405180910390fd5b610b2881612269565b610b8181600067ffffffffffffffff811115610b4757610b46612b9c565b5b6040519080825280601f01601f191660200182016040528015610b795781602001600182028036833780820191505090505b5060006122b0565b50565b60d160019054906101000a900460ff1681565b60ca60009054906101000a900473ffffffffffffffffffffffffffffffffffffffff1681565b7f000000000000000000000000000000000000000000000000000000000000000073ffffffffffffffffffffffffffffffffffffffff163073ffffffffffffffffffffffffffffffffffffffff1603610c4b576040517f08c379a0000000000000000000000000000000000000000000000000000000008152600401610c42906133c3565b60405180910390fd5b7f000000000000000000000000000000000000000000000000000000000000000073ffffffffffffffffffffffffffffffffffffffff16610c8a612212565b73ffffffffffffffffffffffffffffffffffffffff1614610ce0576040517f08c379a0000000000000000000000000000000000000000000000000000000008152600401610cd790613455565b60405180910390fd5b610ce982612269565b610cf5828260016122b0565b5050565b60007f000000000000000000000000000000000000000000000000000000000000000073ffffffffffffffffffffffffffffffffffffffff163073ffffffffffffffffffffffffffffffffffffffff1614610d89576040517f08c379a0000000000000000000000000000000000000000000000000000000008152600401610d80906134e7565b60405180910390fd5b7f360894a13ba1a3210667c828492db98dca3e2076cc3735a920a3ca505d382bbc60001b905090565b60d26020528060005260406000206000915090505481565b610dd261241e565b610ddc600061249c565b565b610df2671502e2f34a2c3fd460c01b61220f565b60008060019054906101000a900460ff16159050808015610e235750600160008054906101000a900460ff1660ff16105b80610e505750610e3230612562565b158015610e4f5750600160008054906101000a900460ff1660ff16145b5b610e8f576040517f08c379a0000000000000000000000000000000000000000000000000000000008152600401610e8690613579565b60405180910390fd5b60016000806101000a81548160ff021916908360ff1602179055508015610ecc576001600060016101000a81548160ff0219169083151502179055505b610ee06750d6a7849cc3873660c01b61220f565b610ef4679c2715c7ac95a31c60c01b61220f565b610f0867fe47650d25785ae760c01b61220f565b610f1c67311156d5fa89274b60c01b61220f565b610f24612585565b610f3867a6f021b91d22c1ef60c01b61220f565b610f4c67df86ed037e6f54ce60c01b61220f565b610f546125de565b610f68673f473f2ba6a7617860c01b61220f565b8760d69081610f77919061379b565b50610f8c6794355191982ff60d60c01b61220f565b8560cb60006101000a81548173ffffffffffffffffffffffffffffffffffffffff021916908373ffffffffffffffffffffffffffffffffffffffff160217905550610fe167b01e8f857c3c5a5a60c01b61220f565b8460cc81905550610ffc67b4ad0c6d2844fcc860c01b61220f565b8360cd81905550611017679a82921bad16632260c01b61220f565b8260ce8190555061103267454ce6746f91697960c01b61220f565b8160cf8190555061104d67411135b6b7872aea60c01b61220f565b61107861106760cf5460ce5461262f90919063ffffffff16565b60cd5461264590919063ffffffff16565b60d081905550611092678c113014befff62e60c01b61220f565b4360d5819055506110ad67889084baace53b6360c01b61220f565b600060d160006101000a81548160ff0219169083151502179055506110dc671c2ec839ad52fa2160c01b61220f565b600060d160016101000a81548160ff02191690831515021790555061110b6782f405bdbb0037db60c01b61220f565b8660c960006101000a81548173ffffffffffffffffffffffffffffffffffffffff021916908373ffffffffffffffffffffffffffffffffffffffff160217905550611160676943fa6f26cd942060c01b61220f565b8560ca60006101000a81548173ffffffffffffffffffffffffffffffffffffffff021916908373ffffffffffffffffffffffffffffffffffffffff1602179055506111b567e10a1acb8583c6fc60c01b61220f565b6111c9677fb7be0d33fe8d4360c01b61220f565b6111dd67e6aea1ff5b9affe260c01b61220f565b6111e561143a565b73ffffffffffffffffffffffffffffffffffffffff1660ca60009054906101000a900473ffffffffffffffffffffffffffffffffffffffff1673ffffffffffffffffffffffffffffffffffffffff16636352211e876040518263ffffffff1660e01b81526004016112569190612a17565b602060405180830381865afa158015611273573d6000803e3d6000fd5b505050506040513d601f19601f820116820180604052508101906112979190613882565b73ffffffffffffffffffffffffffffffffffffffff16146112ed576040517f08c379a00000000000000000000000000000000000000000000000000000000081526004016112e490613921565b60405180910390fd5b6113016748f4a1fa5111d08c60c01b61220f565b801561135a5760008060016101000a81548160ff0219169083151502179055507f7f26b83ff96e1f2b6a682f133852f6798a09c465da95921460cefb38474024986001604051611351919061397c565b60405180910390a15b5050505050505050565b60cc5481565b61137e6763e853de8ddaaf9260c01b61220f565b6113926797d4a6afb420712560c01b61220f565b6113a667748dd9e2f6ae1d0d60c01b61220f565b60006113c98260000151836020015184604001518560600151866080015161265b565b90506113df67556b871091de06c860c01b61220f565b6113f3675607e039f2b23ce660c01b61220f565b6113fc8361148a565b505050565b60d160009054906101000a900460ff1681565b60c960009054906101000a900473ffffffffffffffffffffffffffffffffffffffff1681565b6000603360009054906101000a900473ffffffffffffffffffffffffffffffffffffffff16905090565b60d360009054906101000a900473ffffffffffffffffffffffffffffffffffffffff1681565b61149e67f2351fedfe0ad97460c01b61220f565b6114b267d7890ccf987572b260c01b61220f565b6114c667b688198b63f4a47b60c01b61220f565b6114da67fc9c8405ae0deb8760c01b61220f565b6000811161151d576040517f08c379a000000000000000000000000000000000000000000000000000000000815260040161151490613a09565b60405180910390fd5b61153167d644ab37f727285360c01b61220f565b61154567f2e69d3a93365ac760c01b61220f565b611559673730018d4ad272eb60c01b61220f565b61156d670c43540ea7fe1df360c01b61220f565b60d160009054906101000a900460ff16156115bd576040517f08c379a00000000000000000000000000000000000000000000000000000000081526004016115b490613a75565b60405180910390fd5b6115d16791e40bf8e22d955d60c01b61220f565b6115e567e14fe248745d463060c01b61220f565b6115f967791b3af86afd358060c01b61220f565b60c960009054906101000a900473ffffffffffffffffffffffffffffffffffffffff1673ffffffffffffffffffffffffffffffffffffffff166323b872dd3330846040518463ffffffff1660e01b815260040161165893929190613a95565b6020604051808303816000875af1158015611677573d6000803e3d6000fd5b505050506040513d601f19601f8201168201806040525081019061169b9190613324565b506116b0670f1edd13bac814b760c01b61220f565b6116c46727a363e525859a4860c01b61220f565b60d454811115611845576116e267b5dbdfc24e6590f060c01b61220f565b6116f667c4c274fb2534456860c01b61220f565b61170a67798120582ac80ee060c01b61220f565b600060d454146117bb5761172867960d0c687ff577c660c01b61220f565b61173c67101345c45fdc8ecd60c01b61220f565b60d45460d2600060d360009054906101000a900473ffffffffffffffffffffffffffffffffffffffff1673ffffffffffffffffffffffffffffffffffffffff1673ffffffffffffffffffffffffffffffffffffffff16815260200190815260200160002060008282546117af9190613afb565b925050819055506117d0565b6117cf6792e8da93da4e4b6e60c01b61220f565b5b6117e4673592393e2531c08360c01b61220f565b3360d360006101000a81548173ffffffffffffffffffffffffffffffffffffffff021916908373ffffffffffffffffffffffffffffffffffffffff16021790555061183967ca27eeb4ceb2144760c01b61220f565b8060d4819055506118c4565b611859677d8946f33a776fbb60c01b61220f565b61186d673c7cb91ac5da201760c01b61220f565b8060d260003373ffffffffffffffffffffffffffffffffffffffff1673ffffffffffffffffffffffffffffffffffffffff16815260200190815260200160002060008282546118bc9190613afb565b925050819055505b6118d86747d994aaf379602960c01b61220f565b6118ec6712edffb605418be660c01b61220f565b3373ffffffffffffffffffffffffffffffffffffffff167f3fabff0a9c3ecd6814702e247fa9733e5d0aa69e3a38590f92cb18f623a2254d826040516119329190612a17565b60405180910390a261194e674719fe81a92148f260c01b61220f565b6119626731154d2f151a0e5760c01b61220f565b60d05481106119b45761197f67ceb3894b4c7e63da60c01b61220f565b611993679d1ec6dd8abea1d760c01b61220f565b6119a76794b68940e195851b60c01b61220f565b6119af611be9565b6119c9565b6119c8674f05062ecf813caf60c01b61220f565b5b50565b60606119e267abf5b064f8f4521a60c01b61220f565b6119f667f0d20e7510ebe8d360c01b61220f565b611a0a67456dd212b0d765da60c01b61220f565b60d68054611a17906135c8565b80601f0160208091040260200160405190810160405280929190818152602001828054611a43906135c8565b8015611a905780601f10611a6557610100808354040283529160200191611a90565b820191906000526020600020905b815481529060010190602001808311611a7357829003601f168201915b5050505050905090565b60cf5481565b60d45481565b60cd5481565b60cb60009054906101000a900473ffffffffffffffffffffffffffffffffffffffff1681565b60d55481565b60d68054611ae5906135c8565b80601f0160208091040260200160405190810160405280929190818152602001828054611b11906135c8565b8015611b5e5780601f10611b3357610100808354040283529160200191611b5e565b820191906000526020600020905b815481529060010190602001808311611b4157829003601f168201915b505050505081565b611b6e61241e565b600073ffffffffffffffffffffffffffffffffffffffff168173ffffffffffffffffffffffffffffffffffffffff1603611bdd576040517f08c379a0000000000000000000000000000000000000000000000000000000008152600401611bd490613ba1565b60405180910390fd5b611be68161249c565b50565b611bfd67a42b0807a6ed75a260c01b61220f565b611c1167303187a7f05b7fe160c01b61220f565b611c2567249f4c1ac34e5bf960c01b61220f565b611c396718da94c1b883d8d260c01b61220f565b60d160009054906101000a900460ff1615611c89576040517f08c379a0000000000000000000000000000000000000000000000000000000008152600401611c8090613a75565b60405180910390fd5b611c9d67bc3cb50405cee66160c01b61220f565b611cb167ddff74efaa478e4f60c01b61220f565b600160d160006101000a81548160ff021916908315150217905550611ce0671549eb3b3829a07a60c01b61220f565b600160d160016101000a81548160ff021916908315150217905550611d0f67fe9329818033562560c01b61220f565b611d23679dc99ee8fb684f8060c01b61220f565b600073ffffffffffffffffffffffffffffffffffffffff1660d360009054906101000a900473ffffffffffffffffffffffffffffffffffffffff1673ffffffffffffffffffffffffffffffffffffffff161461202157611d8d670a2911cbe3debbad60c01b61220f565b611da1677934d0275c7aa7a960c01b61220f565b600060d2600060d360009054906101000a900473ffffffffffffffffffffffffffffffffffffffff1673ffffffffffffffffffffffffffffffffffffffff1673ffffffffffffffffffffffffffffffffffffffff16815260200190815260200160002081905550611e1c6775a56467a2e6953e60c01b61220f565b611e3067e604b9c3b869d79f60c01b61220f565b60ca60009054906101000a900473ffffffffffffffffffffffffffffffffffffffff1673ffffffffffffffffffffffffffffffffffffffff166342842e0e60ca60009054906101000a900473ffffffffffffffffffffffffffffffffffffffff1673ffffffffffffffffffffffffffffffffffffffff16636352211e60cc546040518263ffffffff1660e01b8152600401611ecb9190612a17565b602060405180830381865afa158015611ee8573d6000803e3d6000fd5b505050506040513d601f19601f82011682018060405250810190611f0c9190613882565b60d360009054906101000a900473ffffffffffffffffffffffffffffffffffffffff1660cc546040518463ffffffff1660e01b8152600401611f5093929190613a95565b600060405180830381600087803b158015611f6a57600080fd5b505af1158015611f7e573d6000803e3d6000fd5b50505050611f9667e721a900fb2fba9c60c01b61220f565b611faa67eb7e9b61bc2420cc60c01b61220f565b60d360009054906101000a900473ffffffffffffffffffffffffffffffffffffffff1673ffffffffffffffffffffffffffffffffffffffff167fdaec4582d5d9595688c8c98545fdd1c696d41c6aeaeb636737e84ed2f5c00eda60d4546040516120149190612a17565b60405180910390a261220d565b6120356724d8657a79d8129d60c01b61220f565b6120496745efbf61e591171c60c01b61220f565b61205d67d8201db17d5c035860c01b61220f565b60ca60009054906101000a900473ffffffffffffffffffffffffffffffffffffffff1673ffffffffffffffffffffffffffffffffffffffff166342842e0e60ca60009054906101000a900473ffffffffffffffffffffffffffffffffffffffff1673ffffffffffffffffffffffffffffffffffffffff16636352211e60cc546040518263ffffffff1660e01b81526004016120f89190612a17565b602060405180830381865afa158015612115573d6000803e3d6000fd5b505050506040513d601f19601f820116820180604052508101906121399190613882565b61214161143a565b60cc546040518463ffffffff1660e01b815260040161216293929190613a95565b600060405180830381600087803b15801561217c57600080fd5b505af1158015612190573d6000803e3d6000fd5b505050506121a8676c98e0a83eea388860c01b61220f565b6121bc67afc69ac48fb52a6560c01b61220f565b600073ffffffffffffffffffffffffffffffffffffffff167fdaec4582d5d9595688c8c98545fdd1c696d41c6aeaeb636737e84ed2f5c00eda60006040516122049190613bfc565b60405180910390a25b565b50565b60006122407f360894a13ba1a3210667c828492db98dca3e2076cc3735a920a3ca505d382bbc60001b6126d5565b60000160009054906101000a900473ffffffffffffffffffffffffffffffffffffffff16905090565b61227d6771e164c11fc9601e60c01b61220f565b61228561241e565b61229967fa00db421c5553e060c01b61220f565b6122ad673b8b4b4fb24323f660c01b61220f565b50565b6122dc7f4910fdfa16fed3260ed0e7147f7cc6da11a60208b5b9406d12a635614ffd914360001b6126df565b60000160009054906101000a900460ff1615612300576122fb836126e9565b612419565b8273ffffffffffffffffffffffffffffffffffffffff166352d1902d6040518163ffffffff1660e01b8152600401602060405180830381865afa92505050801561236857506040513d601f19601f820116820180604052508101906123659190613c2c565b60015b6123a7576040517f08c379a000000000000000000000000000000000000000000000000000000000815260040161239e90613ccb565b60405180910390fd5b7f360894a13ba1a3210667c828492db98dca3e2076cc3735a920a3ca505d382bbc60001b811461240c576040517f08c379a000000000000000000000000000000000000000000000000000000000815260040161240390613d5d565b60405180910390fd5b506124188383836127a2565b5b505050565b6124266127ce565b73ffffffffffffffffffffffffffffffffffffffff1661244461143a565b73ffffffffffffffffffffffffffffffffffffffff161461249a576040517f08c379a000000000000000000000000000000000000000000000000000000000815260040161249190613dc9565b60405180910390fd5b565b6000603360009054906101000a900473ffffffffffffffffffffffffffffffffffffffff16905081603360006101000a81548173ffffffffffffffffffffffffffffffffffffffff021916908373ffffffffffffffffffffffffffffffffffffffff1602179055508173ffffffffffffffffffffffffffffffffffffffff168173ffffffffffffffffffffffffffffffffffffffff167f8be0079c531659141344cd1fd0a4f28419497f9722a3daafe3b4186f6b6457e060405160405180910390a35050565b6000808273ffffffffffffffffffffffffffffffffffffffff163b119050919050565b600060019054906101000a900460ff166125d4576040517f08c379a00000000000000000000000000000000000000000000000000000000081526004016125cb90613e5b565b60405180910390fd5b6125dc6127d6565b565b600060019054906101000a900460ff1661262d576040517f08c379a000000000000000000000000000000000000000000000000000000000815260040161262490613e5b565b60405180910390fd5b565b6000818361263d9190613e7b565b905092915050565b600081836126539190613afb565b905092915050565b600061267167dca2ff6724fe4f9460c01b61220f565b6126856718cd8ba7601ec79860c01b61220f565b612699679bc7c069221409c060c01b61220f565b8585858585306040516020016126b496959493929190613f26565b60405160208183030381529060405280519060200120905095945050505050565b6000819050919050565b6000819050919050565b6126f281612562565b612731576040517f08c379a000000000000000000000000000000000000000000000000000000000815260040161272890614008565b60405180910390fd5b8061275e7f360894a13ba1a3210667c828492db98dca3e2076cc3735a920a3ca505d382bbc60001b6126d5565b60000160006101000a81548173ffffffffffffffffffffffffffffffffffffffff021916908373ffffffffffffffffffffffffffffffffffffffff16021790555050565b6127ab83612837565b6000825111806127b85750805b156127c9576127c78383612886565b505b505050565b600033905090565b600060019054906101000a900460ff16612825576040517f08c379a000000000000000000000000000000000000000000000000000000000815260040161281c90613e5b565b60405180910390fd5b6128356128306127ce565b61249c565b565b612840816126e9565b8073ffffffffffffffffffffffffffffffffffffffff167fbc7cd75a20ee27fd9adebab32041f755214dbc6bffa90cc0225b39da2e5c2d3b60405160405180910390a250565b60606128ab83836040518060600160405280602781526020016140f3602791396128b3565b905092915050565b60606000808573ffffffffffffffffffffffffffffffffffffffff16856040516128dd919061406f565b600060405180830381855af49150503d8060008114612918576040519150601f19603f3d011682016040523d82523d6000602084013e61291d565b606091505b509150915061292e86838387612939565b925050509392505050565b6060831561299b5760008351036129935761295385612562565b612992576040517f08c379a0000000000000000000000000000000000000000000000000000000008152600401612989906140d2565b60405180910390fd5b5b8290506129a6565b6129a583836129ae565b5b949350505050565b6000825111156129c15781518083602001fd5b806040517f08c379a00000000000000000000000000000000000000000000000000000000081526004016129f59190613169565b60405180910390fd5b6000819050919050565b612a11816129fe565b82525050565b6000602082019050612a2c6000830184612a08565b92915050565b6000604051905090565b600080fd5b600080fd5b600073ffffffffffffffffffffffffffffffffffffffff82169050919050565b6000612a7182612a46565b9050919050565b612a8181612a66565b8114612a8c57600080fd5b50565b600081359050612a9e81612a78565b92915050565b600060208284031215612aba57612ab9612a3c565b5b6000612ac884828501612a8f565b91505092915050565b60008115159050919050565b612ae681612ad1565b82525050565b6000602082019050612b016000830184612add565b92915050565b6000819050919050565b6000612b2c612b27612b2284612a46565b612b07565b612a46565b9050919050565b6000612b3e82612b11565b9050919050565b6000612b5082612b33565b9050919050565b612b6081612b45565b82525050565b6000602082019050612b7b6000830184612b57565b92915050565b600080fd5b600080fd5b6000601f19601f8301169050919050565b7f4e487b7100000000000000000000000000000000000000000000000000000000600052604160045260246000fd5b612bd482612b8b565b810181811067ffffffffffffffff82111715612bf357612bf2612b9c565b5b80604052505050565b6000612c06612a32565b9050612c128282612bcb565b919050565b600067ffffffffffffffff821115612c3257612c31612b9c565b5b612c3b82612b8b565b9050602081019050919050565b82818337600083830152505050565b6000612c6a612c6584612c17565b612bfc565b905082815260208101848484011115612c8657612c85612b86565b5b612c91848285612c48565b509392505050565b600082601f830112612cae57612cad612b81565b5b8135612cbe848260208601612c57565b91505092915050565b60008060408385031215612cde57612cdd612a3c565b5b6000612cec85828601612a8f565b925050602083013567ffffffffffffffff811115612d0d57612d0c612a41565b5b612d1985828601612c99565b9150509250929050565b6000819050919050565b612d3681612d23565b82525050565b6000602082019050612d516000830184612d2d565b92915050565b600067ffffffffffffffff821115612d7257612d71612b9c565b5b612d7b82612b8b565b9050602081019050919050565b6000612d9b612d9684612d57565b612bfc565b905082815260208101848484011115612db757612db6612b86565b5b612dc2848285612c48565b509392505050565b600082601f830112612ddf57612dde612b81565b5b8135612def848260208601612d88565b91505092915050565b612e01816129fe565b8114612e0c57600080fd5b50565b600081359050612e1e81612df8565b92915050565b600080600080600080600060e0888a031215612e4357612e42612a3c565b5b600088013567ffffffffffffffff811115612e6157612e60612a41565b5b612e6d8a828b01612dca565b9750506020612e7e8a828b01612a8f565b9650506040612e8f8a828b01612a8f565b9550506060612ea08a828b01612e0f565b9450506080612eb18a828b01612e0f565b93505060a0612ec28a828b01612e0f565b92505060c0612ed38a828b01612e0f565b91505092959891949750929550565b600080fd5b600060ff82169050919050565b612efd81612ee7565b8114612f0857600080fd5b50565b600081359050612f1a81612ef4565b92915050565b612f2981612d23565b8114612f3457600080fd5b50565b600081359050612f4681612f20565b92915050565b60006101008284031215612f6357612f62612ee2565b5b612f6e610100612bfc565b90506000612f7e84828501612a8f565b6000830152506020612f9284828501612a8f565b6020830152506040612fa684828501612e0f565b6040830152506060612fba84828501612e0f565b6060830152506080612fce84828501612e0f565b60808301525060a0612fe284828501612f0b565b60a08301525060c0612ff684828501612f37565b60c08301525060e061300a84828501612f37565b60e08301525092915050565b600080610120838503121561302e5761302d612a3c565b5b600061303c85828601612e0f565b925050602061304d85828601612f4c565b9150509250929050565b600061306282612b33565b9050919050565b61307281613057565b82525050565b600060208201905061308d6000830184613069565b92915050565b61309c81612a66565b82525050565b60006020820190506130b76000830184613093565b92915050565b6000602082840312156130d3576130d2612a3c565b5b60006130e184828501612e0f565b91505092915050565b600081519050919050565b600082825260208201905092915050565b60005b83811015613124578082015181840152602081019050613109565b60008484015250505050565b600061313b826130ea565b61314581856130f5565b9350613155818560208601613106565b61315e81612b8b565b840191505092915050565b600060208201905081810360008301526131838184613130565b905092915050565b7f41756374696f6e20686173206e6f7420656e6465642079657400000000000000600082015250565b60006131c16019836130f5565b91506131cc8261318b565b602082019050919050565b600060208201905081810360008301526131f0816131b4565b9050919050565b7f48696768657374206269646465722063616e6e6f7420726566756e6400000000600082015250565b600061322d601c836130f5565b9150613238826131f7565b602082019050919050565b6000602082019050818103600083015261325c81613220565b9050919050565b7f4e6f2062696420746f20726566756e6400000000000000000000000000000000600082015250565b60006132996010836130f5565b91506132a482613263565b602082019050919050565b600060208201905081810360008301526132c88161328c565b9050919050565b60006040820190506132e46000830185613093565b6132f16020830184612a08565b9392505050565b61330181612ad1565b811461330c57600080fd5b50565b60008151905061331e816132f8565b92915050565b60006020828403121561333a57613339612a3c565b5b60006133488482850161330f565b91505092915050565b7f46756e6374696f6e206d7573742062652063616c6c6564207468726f7567682060008201527f64656c656761746563616c6c0000000000000000000000000000000000000000602082015250565b60006133ad602c836130f5565b91506133b882613351565b604082019050919050565b600060208201905081810360008301526133dc816133a0565b9050919050565b7f46756e6374696f6e206d7573742062652063616c6c6564207468726f7567682060008201527f6163746976652070726f78790000000000000000000000000000000000000000602082015250565b600061343f602c836130f5565b915061344a826133e3565b604082019050919050565b6000602082019050818103600083015261346e81613432565b9050919050565b7f555550535570677261646561626c653a206d757374206e6f742062652063616c60008201527f6c6564207468726f7567682064656c656761746563616c6c0000000000000000602082015250565b60006134d16038836130f5565b91506134dc82613475565b604082019050919050565b60006020820190508181036000830152613500816134c4565b9050919050565b7f496e697469616c697a61626c653a20636f6e747261637420697320616c72656160008201527f647920696e697469616c697a6564000000000000000000000000000000000000602082015250565b6000613563602e836130f5565b915061356e82613507565b604082019050919050565b6000602082019050818103600083015261359281613556565b9050919050565b7f4e487b7100000000000000000000000000000000000000000000000000000000600052602260045260246000fd5b600060028204905060018216806135e057607f821691505b6020821081036135f3576135f2613599565b5b50919050565b60008190508160005260206000209050919050565b60006020601f8301049050919050565b600082821b905092915050565b60006008830261365b7fffffffffffffffffffffffffffffffffffffffffffffffffffffffffffffffff8261361e565b613665868361361e565b95508019841693508086168417925050509392505050565b600061369861369361368e846129fe565b612b07565b6129fe565b9050919050565b6000819050919050565b6136b28361367d565b6136c66136be8261369f565b84845461362b565b825550505050565b600090565b6136db6136ce565b6136e68184846136a9565b505050565b5b8181101561370a576136ff6000826136d3565b6001810190506136ec565b5050565b601f82111561374f57613720816135f9565b6137298461360e565b81016020851015613738578190505b61374c6137448561360e565b8301826136eb565b50505b505050565b600082821c905092915050565b600061377260001984600802613754565b1980831691505092915050565b600061378b8383613761565b9150826002028217905092915050565b6137a4826130ea565b67ffffffffffffffff8111156137bd576137bc612b9c565b5b6137c782546135c8565b6137d282828561370e565b600060209050601f83116001811461380557600084156137f3578287015190505b6137fd858261377f565b865550613865565b601f198416613813866135f9565b60005b8281101561383b57848901518255600182019150602085019450602081019050613816565b868310156138585784890151613854601f891682613761565b8355505b6001600288020188555050505b505050505050565b60008151905061387c81612a78565b92915050565b60006020828403121561389857613897612a3c565b5b60006138a68482850161386d565b91505092915050565b7f4e465420746f6b656e20496420646f6573206e6f742062656c6f6e6720746f2060008201527f7468652041756374696f6e2773204f776e657200000000000000000000000000602082015250565b600061390b6033836130f5565b9150613916826138af565b604082019050919050565b6000602082019050818103600083015261393a816138fe565b9050919050565b6000819050919050565b600061396661396161395c84613941565b612b07565b612ee7565b9050919050565b6139768161394b565b82525050565b6000602082019050613991600083018461396d565b92915050565b7f42696420616d6f756e74206d7573742062652067726561746572207468616e2060008201527f7a65726f00000000000000000000000000000000000000000000000000000000602082015250565b60006139f36024836130f5565b91506139fe82613997565b604082019050919050565b60006020820190508181036000830152613a22816139e6565b9050919050565b7f41756374696f6e2068617320616c726561647920656e64656400000000000000600082015250565b6000613a5f6019836130f5565b9150613a6a82613a29565b602082019050919050565b60006020820190508181036000830152613a8e81613a52565b9050919050565b6000606082019050613aaa6000830186613093565b613ab76020830185613093565b613ac46040830184612a08565b949350505050565b7f4e487b7100000000000000000000000000000000000000000000000000000000600052601160045260246000fd5b6000613b06826129fe565b9150613b11836129fe565b9250828201905080821115613b2957613b28613acc565b5b92915050565b7f4f776e61626c653a206e6577206f776e657220697320746865207a65726f206160008201527f6464726573730000000000000000000000000000000000000000000000000000602082015250565b6000613b8b6026836130f5565b9150613b9682613b2f565b604082019050919050565b60006020820190508181036000830152613bba81613b7e565b9050919050565b6000819050919050565b6000613be6613be1613bdc84613bc1565b612b07565b6129fe565b9050919050565b613bf681613bcb565b82525050565b6000602082019050613c116000830184613bed565b92915050565b600081519050613c2681612f20565b92915050565b600060208284031215613c4257613c41612a3c565b5b6000613c5084828501613c17565b91505092915050565b7f45524331393637557067726164653a206e657720696d706c656d656e7461746960008201527f6f6e206973206e6f742055555053000000000000000000000000000000000000602082015250565b6000613cb5602e836130f5565b9150613cc082613c59565b604082019050919050565b60006020820190508181036000830152613ce481613ca8565b9050919050565b7f45524331393637557067726164653a20756e737570706f727465642070726f7860008201527f6961626c65555549440000000000000000000000000000000000000000000000602082015250565b6000613d476029836130f5565b9150613d5282613ceb565b604082019050919050565b60006020820190508181036000830152613d7681613d3a565b9050919050565b7f4f776e61626c653a2063616c6c6572206973206e6f7420746865206f776e6572600082015250565b6000613db36020836130f5565b9150613dbe82613d7d565b602082019050919050565b60006020820190508181036000830152613de281613da6565b9050919050565b7f496e697469616c697a61626c653a20636f6e7472616374206973206e6f74206960008201527f6e697469616c697a696e67000000000000000000000000000000000000000000602082015250565b6000613e45602b836130f5565b9150613e5082613de9565b604082019050919050565b60006020820190508181036000830152613e7481613e38565b9050919050565b6000613e86826129fe565b9150613e91836129fe565b9250828202613e9f816129fe565b91508282048414831517613eb657613eb5613acc565b5b5092915050565b60008160601b9050919050565b6000613ed582613ebd565b9050919050565b6000613ee782613eca565b9050919050565b613eff613efa82612a66565b613edc565b82525050565b6000819050919050565b613f20613f1b826129fe565b613f05565b82525050565b6000613f328289613eee565b601482019150613f428288613eee565b601482019150613f528287613f0f565b602082019150613f628286613f0f565b602082019150613f728285613f0f565b602082019150613f828284613eee565b601482019150819050979650505050505050565b7f455243313936373a206e657720696d706c656d656e746174696f6e206973206e60008201527f6f74206120636f6e747261637400000000000000000000000000000000000000602082015250565b6000613ff2602d836130f5565b9150613ffd82613f96565b604082019050919050565b6000602082019050818103600083015261402181613fe5565b9050919050565b600081519050919050565b600081905092915050565b600061404982614028565b6140538185614033565b9350614063818560208601613106565b80840191505092915050565b600061407b828461403e565b915081905092915050565b7f416464726573733a2063616c6c20746f206e6f6e2d636f6e7472616374000000600082015250565b60006140bc601d836130f5565b91506140c782614086565b602082019050919050565b600060208201905081810360008301526140eb816140af565b905091905056fe416464726573733a206c6f772d6c6576656c2064656c65676174652063616c6c206661696c6564a2646970667358221220015d4a2fcae542f475fb7b5129ce195993940abae6a7dc0f2da5e41170184e3264736f6c63430008120033","opcodes":"PUSH1 0xA0 PUSH1 0x40 MSTORE ADDRESS PUSH20 0xFFFFFFFFFFFFFFFFFFFFFFFFFFFFFFFFFFFFFFFF AND PUSH1 0x80 SWAP1 PUSH20 0xFFFFFFFFFFFFFFFFFFFFFFFFFFFFFFFFFFFFFFFF AND DUP2 MSTORE POP CALLVALUE DUP1 ISZERO PUSH2 0x43 JUMPI PUSH1 0x0 DUP1 REVERT JUMPDEST POP PUSH1 0x80 MLOAD PUSH2 0x414F PUSH2 0x7B PUSH1 0x0 CODECOPY PUSH1 0x0 DUP2 DUP2 PUSH2 0x9FE ADD MSTORE DUP2 DUP2 PUSH2 0xA8C ADD MSTORE DUP2 DUP2 PUSH2 0xBBF ADD MSTORE DUP2 DUP2 PUSH2 0xC4D ADD MSTORE PUSH2 0xCFD ADD MSTORE PUSH2 0x414F PUSH1 0x0 RETURN INVALID PUSH1 0x80 PUSH1 0x40 MSTORE PUSH1 0x4 CALLDATASIZE LT PUSH2 0x19C JUMPI PUSH1 0x0 CALLDATALOAD PUSH1 0xE0 SHR DUP1 PUSH4 0x86433374 GT PUSH2 0xEC JUMPI DUP1 PUSH4 0xD57BDE79 GT PUSH2 0x8A JUMPI DUP1 PUSH4 0xEB54F9EC GT PUSH2 0x64 JUMPI DUP1 PUSH4 0xEB54F9EC EQ PUSH2 0x563 JUMPI DUP1 PUSH4 0xEB8BF84D EQ PUSH2 0x58E JUMPI DUP1 PUSH4 0xF2FDE38B EQ PUSH2 0x5B9 JUMPI DUP1 PUSH4 0xFE67A54B EQ PUSH2 0x5E2 JUMPI PUSH2 0x19C JUMP JUMPDEST DUP1 PUSH4 0xD57BDE79 EQ PUSH2 0x4E2 JUMPI DUP1 PUSH4 0xDB2E1EED EQ PUSH2 0x50D JUMPI DUP1 PUSH4 0xDF241CB9 EQ PUSH2 0x538 JUMPI PUSH2 0x19C JUMP JUMPDEST DUP1 PUSH4 0x91F90157 GT PUSH2 0xC6 JUMPI DUP1 PUSH4 0x91F90157 EQ PUSH2 0x438 JUMPI DUP1 PUSH4 0x9979EF45 EQ PUSH2 0x463 JUMPI DUP1 PUSH4 0xCE6D41DE EQ PUSH2 0x48C JUMPI DUP1 PUSH4 0xD3642A88 EQ PUSH2 0x4B7 JUMPI PUSH2 0x19C JUMP JUMPDEST DUP1 PUSH4 0x86433374 EQ PUSH2 0x3B7 JUMPI DUP1 PUSH4 0x8A13EEA7 EQ PUSH2 0x3E2 JUMPI DUP1 PUSH4 0x8DA5CB5B EQ PUSH2 0x40D JUMPI PUSH2 0x19C JUMP JUMPDEST DUP1 PUSH4 0x4F1EF286 GT PUSH2 0x159 JUMPI DUP1 PUSH4 0x715018A6 GT PUSH2 0x133 JUMPI DUP1 PUSH4 0x715018A6 EQ PUSH2 0x323 JUMPI DUP1 PUSH4 0x74FE2916 EQ PUSH2 0x33A JUMPI DUP1 PUSH4 0x7E830574 EQ PUSH2 0x363 JUMPI DUP1 PUSH4 0x84B8B925 EQ PUSH2 0x38E JUMPI PUSH2 0x19C JUMP JUMPDEST DUP1 PUSH4 0x4F1EF286 EQ PUSH2 0x29F JUMPI DUP1 PUSH4 0x52D1902D EQ PUSH2 0x2BB JUMPI DUP1 PUSH4 0x62EA82DB EQ PUSH2 0x2E6 JUMPI PUSH2 0x19C JUMP JUMPDEST DUP1 PUSH4 0x1D0806AE EQ PUSH2 0x1A1 JUMPI DUP1 PUSH4 0x2BF0D538 EQ PUSH2 0x1CC JUMPI DUP1 PUSH4 0x3103EA62 EQ PUSH2 0x1F5 JUMPI DUP1 PUSH4 0x3659CFE6 EQ PUSH2 0x220 JUMPI DUP1 PUSH4 0x438E897A EQ PUSH2 0x249 JUMPI DUP1 PUSH4 0x47CCCA02 EQ PUSH2 0x274 JUMPI JUMPDEST PUSH1 0x0 DUP1 REVERT JUMPDEST CALLVALUE DUP1 ISZERO PUSH2 0x1AD JUMPI PUSH1 0x0 DUP1 REVERT JUMPDEST POP PUSH2 0x1B6 PUSH2 0x5F9 JUMP JUMPDEST PUSH1 0x40 MLOAD PUSH2 0x1C3 SWAP2 SWAP1 PUSH2 0x2A17 JUMP JUMPDEST PUSH1 0x40 MLOAD DUP1 SWAP2 SUB SWAP1 RETURN JUMPDEST CALLVALUE DUP1 ISZERO PUSH2 0x1D8 JUMPI PUSH1 0x0 DUP1 REVERT JUMPDEST POP PUSH2 0x1F3 PUSH1 0x4 DUP1 CALLDATASIZE SUB DUP2 ADD SWAP1 PUSH2 0x1EE SWAP2 SWAP1 PUSH2 0x2AA4 JUMP JUMPDEST PUSH2 0x5FF JUMP JUMPDEST STOP JUMPDEST CALLVALUE DUP1 ISZERO PUSH2 0x201 JUMPI PUSH1 0x0 DUP1 REVERT JUMPDEST POP PUSH2 0x20A PUSH2 0x9F6 JUMP JUMPDEST PUSH1 0x40 MLOAD PUSH2 0x217 SWAP2 SWAP1 PUSH2 0x2A17 JUMP JUMPDEST PUSH1 0x40 MLOAD DUP1 SWAP2 SUB SWAP1 RETURN JUMPDEST CALLVALUE DUP1 ISZERO PUSH2 0x22C JUMPI PUSH1 0x0 DUP1 REVERT JUMPDEST POP PUSH2 0x247 PUSH1 0x4 DUP1 CALLDATASIZE SUB DUP2 ADD SWAP1 PUSH2 0x242 SWAP2 SWAP1 PUSH2 0x2AA4 JUMP JUMPDEST PUSH2 0x9FC JUMP JUMPDEST STOP JUMPDEST CALLVALUE DUP1 ISZERO PUSH2 0x255 JUMPI PUSH1 0x0 DUP1 REVERT JUMPDEST POP PUSH2 0x25E PUSH2 0xB84 JUMP JUMPDEST PUSH1 0x40 MLOAD PUSH2 0x26B SWAP2 SWAP1 PUSH2 0x2AEC JUMP JUMPDEST PUSH1 0x40 MLOAD DUP1 SWAP2 SUB SWAP1 RETURN JUMPDEST CALLVALUE DUP1 ISZERO PUSH2 0x280 JUMPI PUSH1 0x0 DUP1 REVERT JUMPDEST POP PUSH2 0x289 PUSH2 0xB97 JUMP JUMPDEST PUSH1 0x40 MLOAD PUSH2 0x296 SWAP2 SWAP1 PUSH2 0x2B66 JUMP JUMPDEST PUSH1 0x40 MLOAD DUP1 SWAP2 SUB SWAP1 RETURN JUMPDEST PUSH2 0x2B9 PUSH1 0x4 DUP1 CALLDATASIZE SUB DUP2 ADD SWAP1 PUSH2 0x2B4 SWAP2 SWAP1 PUSH2 0x2CC7 JUMP JUMPDEST PUSH2 0xBBD JUMP JUMPDEST STOP JUMPDEST CALLVALUE DUP1 ISZERO PUSH2 0x2C7 JUMPI PUSH1 0x0 DUP1 REVERT JUMPDEST POP PUSH2 0x2D0 PUSH2 0xCF9 JUMP JUMPDEST PUSH1 0x40 MLOAD PUSH2 0x2DD SWAP2 SWAP1 PUSH2 0x2D3C JUMP JUMPDEST PUSH1 0x40 MLOAD DUP1 SWAP2 SUB SWAP1 RETURN JUMPDEST CALLVALUE DUP1 ISZERO PUSH2 0x2F2 JUMPI PUSH1 0x0 DUP1 REVERT JUMPDEST POP PUSH2 0x30D PUSH1 0x4 DUP1 CALLDATASIZE SUB DUP2 ADD SWAP1 PUSH2 0x308 SWAP2 SWAP1 PUSH2 0x2AA4 JUMP JUMPDEST PUSH2 0xDB2 JUMP JUMPDEST PUSH1 0x40 MLOAD PUSH2 0x31A SWAP2 SWAP1 PUSH2 0x2A17 JUMP JUMPDEST PUSH1 0x40 MLOAD DUP1 SWAP2 SUB SWAP1 RETURN JUMPDEST CALLVALUE DUP1 ISZERO PUSH2 0x32F JUMPI PUSH1 0x0 DUP1 REVERT JUMPDEST POP PUSH2 0x338 PUSH2 0xDCA JUMP JUMPDEST STOP JUMPDEST CALLVALUE DUP1 ISZERO PUSH2 0x346 JUMPI PUSH1 0x0 DUP1 REVERT JUMPDEST POP PUSH2 0x361 PUSH1 0x4 DUP1 CALLDATASIZE SUB DUP2 ADD SWAP1 PUSH2 0x35C SWAP2 SWAP1 PUSH2 0x2E24 JUMP JUMPDEST PUSH2 0xDDE JUMP JUMPDEST STOP JUMPDEST CALLVALUE DUP1 ISZERO PUSH2 0x36F JUMPI PUSH1 0x0 DUP1 REVERT JUMPDEST POP PUSH2 0x378 PUSH2 0x1364 JUMP JUMPDEST PUSH1 0x40 MLOAD PUSH2 0x385 SWAP2 SWAP1 PUSH2 0x2A17 JUMP JUMPDEST PUSH1 0x40 MLOAD DUP1 SWAP2 SUB SWAP1 RETURN JUMPDEST CALLVALUE DUP1 ISZERO PUSH2 0x39A JUMPI PUSH1 0x0 DUP1 REVERT JUMPDEST POP PUSH2 0x3B5 PUSH1 0x4 DUP1 CALLDATASIZE SUB DUP2 ADD SWAP1 PUSH2 0x3B0 SWAP2 SWAP1 PUSH2 0x3016 JUMP JUMPDEST PUSH2 0x136A JUMP JUMPDEST STOP JUMPDEST CALLVALUE DUP1 ISZERO PUSH2 0x3C3 JUMPI PUSH1 0x0 DUP1 REVERT JUMPDEST POP PUSH2 0x3CC PUSH2 0x1401 JUMP JUMPDEST PUSH1 0x40 MLOAD PUSH2 0x3D9 SWAP2 SWAP1 PUSH2 0x2AEC JUMP JUMPDEST PUSH1 0x40 MLOAD DUP1 SWAP2 SUB SWAP1 RETURN JUMPDEST CALLVALUE DUP1 ISZERO PUSH2 0x3EE JUMPI PUSH1 0x0 DUP1 REVERT JUMPDEST POP PUSH2 0x3F7 PUSH2 0x1414 JUMP JUMPDEST PUSH1 0x40 MLOAD PUSH2 0x404 SWAP2 SWAP1 PUSH2 0x3078 JUMP JUMPDEST PUSH1 0x40 MLOAD DUP1 SWAP2 SUB SWAP1 RETURN JUMPDEST CALLVALUE DUP1 ISZERO PUSH2 0x419 JUMPI PUSH1 0x0 DUP1 REVERT JUMPDEST POP PUSH2 0x422 PUSH2 0x143A JUMP JUMPDEST PUSH1 0x40 MLOAD PUSH2 0x42F SWAP2 SWAP1 PUSH2 0x30A2 JUMP JUMPDEST PUSH1 0x40 MLOAD DUP1 SWAP2 SUB SWAP1 RETURN JUMPDEST CALLVALUE DUP1 ISZERO PUSH2 0x444 JUMPI PUSH1 0x0 DUP1 REVERT JUMPDEST POP PUSH2 0x44D PUSH2 0x1464 JUMP JUMPDEST PUSH1 0x40 MLOAD PUSH2 0x45A SWAP2 SWAP1 PUSH2 0x30A2 JUMP JUMPDEST PUSH1 0x40 MLOAD DUP1 SWAP2 SUB SWAP1 RETURN JUMPDEST CALLVALUE DUP1 ISZERO PUSH2 0x46F JUMPI PUSH1 0x0 DUP1 REVERT JUMPDEST POP PUSH2 0x48A PUSH1 0x4 DUP1 CALLDATASIZE SUB DUP2 ADD SWAP1 PUSH2 0x485 SWAP2 SWAP1 PUSH2 0x30BD JUMP JUMPDEST PUSH2 0x148A JUMP JUMPDEST STOP JUMPDEST CALLVALUE DUP1 ISZERO PUSH2 0x498 JUMPI PUSH1 0x0 DUP1 REVERT JUMPDEST POP PUSH2 0x4A1 PUSH2 0x19CC JUMP JUMPDEST PUSH1 0x40 MLOAD PUSH2 0x4AE SWAP2 SWAP1 PUSH2 0x3169 JUMP JUMPDEST PUSH1 0x40 MLOAD DUP1 SWAP2 SUB SWAP1 RETURN JUMPDEST CALLVALUE DUP1 ISZERO PUSH2 0x4C3 JUMPI PUSH1 0x0 DUP1 REVERT JUMPDEST POP PUSH2 0x4CC PUSH2 0x1A9A JUMP JUMPDEST PUSH1 0x40 MLOAD PUSH2 0x4D9 SWAP2 SWAP1 PUSH2 0x2A17 JUMP JUMPDEST PUSH1 0x40 MLOAD DUP1 SWAP2 SUB SWAP1 RETURN JUMPDEST CALLVALUE DUP1 ISZERO PUSH2 0x4EE JUMPI PUSH1 0x0 DUP1 REVERT JUMPDEST POP PUSH2 0x4F7 PUSH2 0x1AA0 JUMP JUMPDEST PUSH1 0x40 MLOAD PUSH2 0x504 SWAP2 SWAP1 PUSH2 0x2A17 JUMP JUMPDEST PUSH1 0x40 MLOAD DUP1 SWAP2 SUB SWAP1 RETURN JUMPDEST CALLVALUE DUP1 ISZERO PUSH2 0x519 JUMPI PUSH1 0x0 DUP1 REVERT JUMPDEST POP PUSH2 0x522 PUSH2 0x1AA6 JUMP JUMPDEST PUSH1 0x40 MLOAD PUSH2 0x52F SWAP2 SWAP1 PUSH2 0x2A17 JUMP JUMPDEST PUSH1 0x40 MLOAD DUP1 SWAP2 SUB SWAP1 RETURN JUMPDEST CALLVALUE DUP1 ISZERO PUSH2 0x544 JUMPI PUSH1 0x0 DUP1 REVERT JUMPDEST POP PUSH2 0x54D PUSH2 0x1AAC JUMP JUMPDEST PUSH1 0x40 MLOAD PUSH2 0x55A SWAP2 SWAP1 PUSH2 0x30A2 JUMP JUMPDEST PUSH1 0x40 MLOAD DUP1 SWAP2 SUB SWAP1 RETURN JUMPDEST CALLVALUE DUP1 ISZERO PUSH2 0x56F JUMPI PUSH1 0x0 DUP1 REVERT JUMPDEST POP PUSH2 0x578 PUSH2 0x1AD2 JUMP JUMPDEST PUSH1 0x40 MLOAD PUSH2 0x585 SWAP2 SWAP1 PUSH2 0x2A17 JUMP JUMPDEST PUSH1 0x40 MLOAD DUP1 SWAP2 SUB SWAP1 RETURN JUMPDEST CALLVALUE DUP1 ISZERO PUSH2 0x59A JUMPI PUSH1 0x0 DUP1 REVERT JUMPDEST POP PUSH2 0x5A3 PUSH2 0x1AD8 JUMP JUMPDEST PUSH1 0x40 MLOAD PUSH2 0x5B0 SWAP2 SWAP1 PUSH2 0x3169 JUMP JUMPDEST PUSH1 0x40 MLOAD DUP1 SWAP2 SUB SWAP1 RETURN JUMPDEST CALLVALUE DUP1 ISZERO PUSH2 0x5C5 JUMPI PUSH1 0x0 DUP1 REVERT JUMPDEST POP PUSH2 0x5E0 PUSH1 0x4 DUP1 CALLDATASIZE SUB DUP2 ADD SWAP1 PUSH2 0x5DB SWAP2 SWAP1 PUSH2 0x2AA4 JUMP JUMPDEST PUSH2 0x1B66 JUMP JUMPDEST STOP JUMPDEST CALLVALUE DUP1 ISZERO PUSH2 0x5EE JUMPI PUSH1 0x0 DUP1 REVERT JUMPDEST POP PUSH2 0x5F7 PUSH2 0x1BE9 JUMP JUMPDEST STOP JUMPDEST PUSH1 0xD0 SLOAD DUP2 JUMP JUMPDEST PUSH2 0x613 PUSH8 0xABD474DACD7FCA15 PUSH1 0xC0 SHL PUSH2 0x220F JUMP JUMPDEST PUSH2 0x627 PUSH8 0xDAA8EF87E05A14A0 PUSH1 0xC0 SHL PUSH2 0x220F JUMP JUMPDEST PUSH2 0x63B PUSH8 0x7F84F243A2008516 PUSH1 0xC0 SHL PUSH2 0x220F JUMP JUMPDEST PUSH2 0x64F PUSH8 0xD050CB02FCE6A77F PUSH1 0xC0 SHL PUSH2 0x220F JUMP JUMPDEST PUSH1 0xD1 PUSH1 0x0 SWAP1 SLOAD SWAP1 PUSH2 0x100 EXP SWAP1 DIV PUSH1 0xFF AND PUSH2 0x69E JUMPI PUSH1 0x40 MLOAD PUSH32 0x8C379A000000000000000000000000000000000000000000000000000000000 DUP2 MSTORE PUSH1 0x4 ADD PUSH2 0x695 SWAP1 PUSH2 0x31D7 JUMP JUMPDEST PUSH1 0x40 MLOAD DUP1 SWAP2 SUB SWAP1 REVERT JUMPDEST PUSH2 0x6B2 PUSH8 0x9BD599923328F78 PUSH1 0xC0 SHL PUSH2 0x220F JUMP JUMPDEST PUSH2 0x6C6 PUSH8 0x28CF245A593F04C1 PUSH1 0xC0 SHL PUSH2 0x220F JUMP JUMPDEST PUSH2 0x6DA PUSH8 0x85F8625A7E946D47 PUSH1 0xC0 SHL PUSH2 0x220F JUMP JUMPDEST PUSH2 0x6EE PUSH8 0x96B305704CF3EDB4 PUSH1 0xC0 SHL PUSH2 0x220F JUMP JUMPDEST PUSH1 0xD3 PUSH1 0x0 SWAP1 SLOAD SWAP1 PUSH2 0x100 EXP SWAP1 DIV PUSH20 0xFFFFFFFFFFFFFFFFFFFFFFFFFFFFFFFFFFFFFFFF AND PUSH20 0xFFFFFFFFFFFFFFFFFFFFFFFFFFFFFFFFFFFFFFFF AND DUP2 PUSH20 0xFFFFFFFFFFFFFFFFFFFFFFFFFFFFFFFFFFFFFFFF AND SUB PUSH2 0x77E JUMPI PUSH1 0x40 MLOAD PUSH32 0x8C379A000000000000000000000000000000000000000000000000000000000 DUP2 MSTORE PUSH1 0x4 ADD PUSH2 0x775 SWAP1 PUSH2 0x3243 JUMP JUMPDEST PUSH1 0x40 MLOAD DUP1 SWAP2 SUB SWAP1 REVERT JUMPDEST PUSH2 0x792 PUSH8 0xA5223ED45DD9591B PUSH1 0xC0 SHL PUSH2 0x220F JUMP JUMPDEST PUSH2 0x7A6 PUSH8 0x2078A87B9B66137C PUSH1 0xC0 SHL PUSH2 0x220F JUMP JUMPDEST PUSH2 0x7BA PUSH8 0x8E8BCC18D06A3C5D PUSH1 0xC0 SHL PUSH2 0x220F JUMP JUMPDEST PUSH2 0x7CE PUSH8 0xB89DD8956081025B PUSH1 0xC0 SHL PUSH2 0x220F JUMP JUMPDEST PUSH1 0x0 PUSH1 0xD2 PUSH1 0x0 DUP4 PUSH20 0xFFFFFFFFFFFFFFFFFFFFFFFFFFFFFFFFFFFFFFFF AND PUSH20 0xFFFFFFFFFFFFFFFFFFFFFFFFFFFFFFFFFFFFFFFF AND DUP2 MSTORE PUSH1 0x20 ADD SWAP1 DUP2 MSTORE PUSH1 0x20 ADD PUSH1 0x0 KECCAK256 SLOAD GT PUSH2 0x850 JUMPI PUSH1 0x40 MLOAD PUSH32 0x8C379A000000000000000000000000000000000000000000000000000000000 DUP2 MSTORE PUSH1 0x4 ADD PUSH2 0x847 SWAP1 PUSH2 0x32AF JUMP JUMPDEST PUSH1 0x40 MLOAD DUP1 SWAP2 SUB SWAP1 REVERT JUMPDEST PUSH2 0x864 PUSH8 0x2DABF325DF43B939 PUSH1 0xC0 SHL PUSH2 0x220F JUMP JUMPDEST PUSH2 0x878 PUSH8 0xE4F43784D73F10ED PUSH1 0xC0 SHL PUSH2 0x220F JUMP JUMPDEST PUSH2 0x88C PUSH8 0x24E5D7C56AA9A637 PUSH1 0xC0 SHL PUSH2 0x220F JUMP JUMPDEST PUSH1 0x0 PUSH1 0xD2 PUSH1 0x0 DUP4 PUSH20 0xFFFFFFFFFFFFFFFFFFFFFFFFFFFFFFFFFFFFFFFF AND PUSH20 0xFFFFFFFFFFFFFFFFFFFFFFFFFFFFFFFFFFFFFFFF AND DUP2 MSTORE PUSH1 0x20 ADD SWAP1 DUP2 MSTORE PUSH1 0x20 ADD PUSH1 0x0 KECCAK256 SLOAD SWAP1 POP PUSH2 0x8E4 PUSH8 0xEE175519CB6DE5CD PUSH1 0xC0 SHL PUSH2 0x220F JUMP JUMPDEST PUSH1 0x0 PUSH1 0xD2 PUSH1 0x0 DUP5 PUSH20 0xFFFFFFFFFFFFFFFFFFFFFFFFFFFFFFFFFFFFFFFF AND PUSH20 0xFFFFFFFFFFFFFFFFFFFFFFFFFFFFFFFFFFFFFFFF AND DUP2 MSTORE PUSH1 0x20 ADD SWAP1 DUP2 MSTORE PUSH1 0x20 ADD PUSH1 0x0 KECCAK256 DUP2 SWAP1 SSTORE POP PUSH2 0x93D PUSH8 0xAE4D4DBF4228AF9 PUSH1 0xC0 SHL PUSH2 0x220F JUMP JUMPDEST PUSH2 0x951 PUSH8 0x82F033E2C1CC9691 PUSH1 0xC0 SHL PUSH2 0x220F JUMP JUMPDEST PUSH1 0xC9 PUSH1 0x0 SWAP1 SLOAD SWAP1 PUSH2 0x100 EXP SWAP1 DIV PUSH20 0xFFFFFFFFFFFFFFFFFFFFFFFFFFFFFFFFFFFFFFFF AND PUSH20 0xFFFFFFFFFFFFFFFFFFFFFFFFFFFFFFFFFFFFFFFF AND PUSH4 0xA9059CBB DUP4 DUP4 PUSH1 0x40 MLOAD DUP4 PUSH4 0xFFFFFFFF AND PUSH1 0xE0 SHL DUP2 MSTORE PUSH1 0x4 ADD PUSH2 0x9AE SWAP3 SWAP2 SWAP1 PUSH2 0x32CF JUMP JUMPDEST PUSH1 0x20 PUSH1 0x40 MLOAD DUP1 DUP4 SUB DUP2 PUSH1 0x0 DUP8 GAS CALL ISZERO DUP1 ISZERO PUSH2 0x9CD JUMPI RETURNDATASIZE PUSH1 0x0 DUP1 RETURNDATACOPY RETURNDATASIZE PUSH1 0x0 REVERT JUMPDEST POP POP POP POP PUSH1 0x40 MLOAD RETURNDATASIZE PUSH1 0x1F NOT PUSH1 0x1F DUP3 ADD AND DUP3 ADD DUP1 PUSH1 0x40 MSTORE POP DUP2 ADD SWAP1 PUSH2 0x9F1 SWAP2 SWAP1 PUSH2 0x3324 JUMP JUMPDEST POP POP POP JUMP JUMPDEST PUSH1 0xCE SLOAD DUP2 JUMP JUMPDEST PUSH32 0x0 PUSH20 0xFFFFFFFFFFFFFFFFFFFFFFFFFFFFFFFFFFFFFFFF AND ADDRESS PUSH20 0xFFFFFFFFFFFFFFFFFFFFFFFFFFFFFFFFFFFFFFFF AND SUB PUSH2 0xA8A JUMPI PUSH1 0x40 MLOAD PUSH32 0x8C379A000000000000000000000000000000000000000000000000000000000 DUP2 MSTORE PUSH1 0x4 ADD PUSH2 0xA81 SWAP1 PUSH2 0x33C3 JUMP JUMPDEST PUSH1 0x40 MLOAD DUP1 SWAP2 SUB SWAP1 REVERT JUMPDEST PUSH32 0x0 PUSH20 0xFFFFFFFFFFFFFFFFFFFFFFFFFFFFFFFFFFFFFFFF AND PUSH2 0xAC9 PUSH2 0x2212 JUMP JUMPDEST PUSH20 0xFFFFFFFFFFFFFFFFFFFFFFFFFFFFFFFFFFFFFFFF AND EQ PUSH2 0xB1F JUMPI PUSH1 0x40 MLOAD PUSH32 0x8C379A000000000000000000000000000000000000000000000000000000000 DUP2 MSTORE PUSH1 0x4 ADD PUSH2 0xB16 SWAP1 PUSH2 0x3455 JUMP JUMPDEST PUSH1 0x40 MLOAD DUP1 SWAP2 SUB SWAP1 REVERT JUMPDEST PUSH2 0xB28 DUP2 PUSH2 0x2269 JUMP JUMPDEST PUSH2 0xB81 DUP2 PUSH1 0x0 PUSH8 0xFFFFFFFFFFFFFFFF DUP2 GT ISZERO PUSH2 0xB47 JUMPI PUSH2 0xB46 PUSH2 0x2B9C JUMP JUMPDEST JUMPDEST PUSH1 0x40 MLOAD SWAP1 DUP1 DUP3 MSTORE DUP1 PUSH1 0x1F ADD PUSH1 0x1F NOT AND PUSH1 0x20 ADD DUP3 ADD PUSH1 0x40 MSTORE DUP1 ISZERO PUSH2 0xB79 JUMPI DUP2 PUSH1 0x20 ADD PUSH1 0x1 DUP3 MUL DUP1 CALLDATASIZE DUP4 CALLDATACOPY DUP1 DUP3 ADD SWAP2 POP POP SWAP1 POP JUMPDEST POP PUSH1 0x0 PUSH2 0x22B0 JUMP JUMPDEST POP JUMP JUMPDEST PUSH1 0xD1 PUSH1 0x1 SWAP1 SLOAD SWAP1 PUSH2 0x100 EXP SWAP1 DIV PUSH1 0xFF AND DUP2 JUMP JUMPDEST PUSH1 0xCA PUSH1 0x0 SWAP1 SLOAD SWAP1 PUSH2 0x100 EXP SWAP1 DIV PUSH20 0xFFFFFFFFFFFFFFFFFFFFFFFFFFFFFFFFFFFFFFFF AND DUP2 JUMP JUMPDEST PUSH32 0x0 PUSH20 0xFFFFFFFFFFFFFFFFFFFFFFFFFFFFFFFFFFFFFFFF AND ADDRESS PUSH20 0xFFFFFFFFFFFFFFFFFFFFFFFFFFFFFFFFFFFFFFFF AND SUB PUSH2 0xC4B JUMPI PUSH1 0x40 MLOAD PUSH32 0x8C379A000000000000000000000000000000000000000000000000000000000 DUP2 MSTORE PUSH1 0x4 ADD PUSH2 0xC42 SWAP1 PUSH2 0x33C3 JUMP JUMPDEST PUSH1 0x40 MLOAD DUP1 SWAP2 SUB SWAP1 REVERT JUMPDEST PUSH32 0x0 PUSH20 0xFFFFFFFFFFFFFFFFFFFFFFFFFFFFFFFFFFFFFFFF AND PUSH2 0xC8A PUSH2 0x2212 JUMP JUMPDEST PUSH20 0xFFFFFFFFFFFFFFFFFFFFFFFFFFFFFFFFFFFFFFFF AND EQ PUSH2 0xCE0 JUMPI PUSH1 0x40 MLOAD PUSH32 0x8C379A000000000000000000000000000000000000000000000000000000000 DUP2 MSTORE PUSH1 0x4 ADD PUSH2 0xCD7 SWAP1 PUSH2 0x3455 JUMP JUMPDEST PUSH1 0x40 MLOAD DUP1 SWAP2 SUB SWAP1 REVERT JUMPDEST PUSH2 0xCE9 DUP3 PUSH2 0x2269 JUMP JUMPDEST PUSH2 0xCF5 DUP3 DUP3 PUSH1 0x1 PUSH2 0x22B0 JUMP JUMPDEST POP POP JUMP JUMPDEST PUSH1 0x0 PUSH32 0x0 PUSH20 0xFFFFFFFFFFFFFFFFFFFFFFFFFFFFFFFFFFFFFFFF AND ADDRESS PUSH20 0xFFFFFFFFFFFFFFFFFFFFFFFFFFFFFFFFFFFFFFFF AND EQ PUSH2 0xD89 JUMPI PUSH1 0x40 MLOAD PUSH32 0x8C379A000000000000000000000000000000000000000000000000000000000 DUP2 MSTORE PUSH1 0x4 ADD PUSH2 0xD80 SWAP1 PUSH2 0x34E7 JUMP JUMPDEST PUSH1 0x40 MLOAD DUP1 SWAP2 SUB SWAP1 REVERT JUMPDEST PUSH32 0x360894A13BA1A3210667C828492DB98DCA3E2076CC3735A920A3CA505D382BBC PUSH1 0x0 SHL SWAP1 POP SWAP1 JUMP JUMPDEST PUSH1 0xD2 PUSH1 0x20 MSTORE DUP1 PUSH1 0x0 MSTORE PUSH1 0x40 PUSH1 0x0 KECCAK256 PUSH1 0x0 SWAP2 POP SWAP1 POP SLOAD DUP2 JUMP JUMPDEST PUSH2 0xDD2 PUSH2 0x241E JUMP JUMPDEST PUSH2 0xDDC PUSH1 0x0 PUSH2 0x249C JUMP JUMPDEST JUMP JUMPDEST PUSH2 0xDF2 PUSH8 0x1502E2F34A2C3FD4 PUSH1 0xC0 SHL PUSH2 0x220F JUMP JUMPDEST PUSH1 0x0 DUP1 PUSH1 0x1 SWAP1 SLOAD SWAP1 PUSH2 0x100 EXP SWAP1 DIV PUSH1 0xFF AND ISZERO SWAP1 POP DUP1 DUP1 ISZERO PUSH2 0xE23 JUMPI POP PUSH1 0x1 PUSH1 0x0 DUP1 SLOAD SWAP1 PUSH2 0x100 EXP SWAP1 DIV PUSH1 0xFF AND PUSH1 0xFF AND LT JUMPDEST DUP1 PUSH2 0xE50 JUMPI POP PUSH2 0xE32 ADDRESS PUSH2 0x2562 JUMP JUMPDEST ISZERO DUP1 ISZERO PUSH2 0xE4F JUMPI POP PUSH1 0x1 PUSH1 0x0 DUP1 SLOAD SWAP1 PUSH2 0x100 EXP SWAP1 DIV PUSH1 0xFF AND PUSH1 0xFF AND EQ JUMPDEST JUMPDEST PUSH2 0xE8F JUMPI PUSH1 0x40 MLOAD PUSH32 0x8C379A000000000000000000000000000000000000000000000000000000000 DUP2 MSTORE PUSH1 0x4 ADD PUSH2 0xE86 SWAP1 PUSH2 0x3579 JUMP JUMPDEST PUSH1 0x40 MLOAD DUP1 SWAP2 SUB SWAP1 REVERT JUMPDEST PUSH1 0x1 PUSH1 0x0 DUP1 PUSH2 0x100 EXP DUP2 SLOAD DUP2 PUSH1 0xFF MUL NOT AND SWAP1 DUP4 PUSH1 0xFF AND MUL OR SWAP1 SSTORE POP DUP1 ISZERO PUSH2 0xECC JUMPI PUSH1 0x1 PUSH1 0x0 PUSH1 0x1 PUSH2 0x100 EXP DUP2 SLOAD DUP2 PUSH1 0xFF MUL NOT AND SWAP1 DUP4 ISZERO ISZERO MUL OR SWAP1 SSTORE POP JUMPDEST PUSH2 0xEE0 PUSH8 0x50D6A7849CC38736 PUSH1 0xC0 SHL PUSH2 0x220F JUMP JUMPDEST PUSH2 0xEF4 PUSH8 0x9C2715C7AC95A31C PUSH1 0xC0 SHL PUSH2 0x220F JUMP JUMPDEST PUSH2 0xF08 PUSH8 0xFE47650D25785AE7 PUSH1 0xC0 SHL PUSH2 0x220F JUMP JUMPDEST PUSH2 0xF1C PUSH8 0x311156D5FA89274B PUSH1 0xC0 SHL PUSH2 0x220F JUMP JUMPDEST PUSH2 0xF24 PUSH2 0x2585 JUMP JUMPDEST PUSH2 0xF38 PUSH8 0xA6F021B91D22C1EF PUSH1 0xC0 SHL PUSH2 0x220F JUMP JUMPDEST PUSH2 0xF4C PUSH8 0xDF86ED037E6F54CE PUSH1 0xC0 SHL PUSH2 0x220F JUMP JUMPDEST PUSH2 0xF54 PUSH2 0x25DE JUMP JUMPDEST PUSH2 0xF68 PUSH8 0x3F473F2BA6A76178 PUSH1 0xC0 SHL PUSH2 0x220F JUMP JUMPDEST DUP8 PUSH1 0xD6 SWAP1 DUP2 PUSH2 0xF77 SWAP2 SWAP1 PUSH2 0x379B JUMP JUMPDEST POP PUSH2 0xF8C PUSH8 0x94355191982FF60D PUSH1 0xC0 SHL PUSH2 0x220F JUMP JUMPDEST DUP6 PUSH1 0xCB PUSH1 0x0 PUSH2 0x100 EXP DUP2 SLOAD DUP2 PUSH20 0xFFFFFFFFFFFFFFFFFFFFFFFFFFFFFFFFFFFFFFFF MUL NOT AND SWAP1 DUP4 PUSH20 0xFFFFFFFFFFFFFFFFFFFFFFFFFFFFFFFFFFFFFFFF AND MUL OR SWAP1 SSTORE POP PUSH2 0xFE1 PUSH8 0xB01E8F857C3C5A5A PUSH1 0xC0 SHL PUSH2 0x220F JUMP JUMPDEST DUP5 PUSH1 0xCC DUP2 SWAP1 SSTORE POP PUSH2 0xFFC PUSH8 0xB4AD0C6D2844FCC8 PUSH1 0xC0 SHL PUSH2 0x220F JUMP JUMPDEST DUP4 PUSH1 0xCD DUP2 SWAP1 SSTORE POP PUSH2 0x1017 PUSH8 0x9A82921BAD166322 PUSH1 0xC0 SHL PUSH2 0x220F JUMP JUMPDEST DUP3 PUSH1 0xCE DUP2 SWAP1 SSTORE POP PUSH2 0x1032 PUSH8 0x454CE6746F916979 PUSH1 0xC0 SHL PUSH2 0x220F JUMP JUMPDEST DUP2 PUSH1 0xCF DUP2 SWAP1 SSTORE POP PUSH2 0x104D PUSH8 0x411135B6B7872AEA PUSH1 0xC0 SHL PUSH2 0x220F JUMP JUMPDEST PUSH2 0x1078 PUSH2 0x1067 PUSH1 0xCF SLOAD PUSH1 0xCE SLOAD PUSH2 0x262F SWAP1 SWAP2 SWAP1 PUSH4 0xFFFFFFFF AND JUMP JUMPDEST PUSH1 0xCD SLOAD PUSH2 0x2645 SWAP1 SWAP2 SWAP1 PUSH4 0xFFFFFFFF AND JUMP JUMPDEST PUSH1 0xD0 DUP2 SWAP1 SSTORE POP PUSH2 0x1092 PUSH8 0x8C113014BEFFF62E PUSH1 0xC0 SHL PUSH2 0x220F JUMP JUMPDEST NUMBER PUSH1 0xD5 DUP2 SWAP1 SSTORE POP PUSH2 0x10AD PUSH8 0x889084BAACE53B63 PUSH1 0xC0 SHL PUSH2 0x220F JUMP JUMPDEST PUSH1 0x0 PUSH1 0xD1 PUSH1 0x0 PUSH2 0x100 EXP DUP2 SLOAD DUP2 PUSH1 0xFF MUL NOT AND SWAP1 DUP4 ISZERO ISZERO MUL OR SWAP1 SSTORE POP PUSH2 0x10DC PUSH8 0x1C2EC839AD52FA21 PUSH1 0xC0 SHL PUSH2 0x220F JUMP JUMPDEST PUSH1 0x0 PUSH1 0xD1 PUSH1 0x1 PUSH2 0x100 EXP DUP2 SLOAD DUP2 PUSH1 0xFF MUL NOT AND SWAP1 DUP4 ISZERO ISZERO MUL OR SWAP1 SSTORE POP PUSH2 0x110B PUSH8 0x82F405BDBB0037DB PUSH1 0xC0 SHL PUSH2 0x220F JUMP JUMPDEST DUP7 PUSH1 0xC9 PUSH1 0x0 PUSH2 0x100 EXP DUP2 SLOAD DUP2 PUSH20 0xFFFFFFFFFFFFFFFFFFFFFFFFFFFFFFFFFFFFFFFF MUL NOT AND SWAP1 DUP4 PUSH20 0xFFFFFFFFFFFFFFFFFFFFFFFFFFFFFFFFFFFFFFFF AND MUL OR SWAP1 SSTORE POP PUSH2 0x1160 PUSH8 0x6943FA6F26CD9420 PUSH1 0xC0 SHL PUSH2 0x220F JUMP JUMPDEST DUP6 PUSH1 0xCA PUSH1 0x0 PUSH2 0x100 EXP DUP2 SLOAD DUP2 PUSH20 0xFFFFFFFFFFFFFFFFFFFFFFFFFFFFFFFFFFFFFFFF MUL NOT AND SWAP1 DUP4 PUSH20 0xFFFFFFFFFFFFFFFFFFFFFFFFFFFFFFFFFFFFFFFF AND MUL OR SWAP1 SSTORE POP PUSH2 0x11B5 PUSH8 0xE10A1ACB8583C6FC PUSH1 0xC0 SHL PUSH2 0x220F JUMP JUMPDEST PUSH2 0x11C9 PUSH8 0x7FB7BE0D33FE8D43 PUSH1 0xC0 SHL PUSH2 0x220F JUMP JUMPDEST PUSH2 0x11DD PUSH8 0xE6AEA1FF5B9AFFE2 PUSH1 0xC0 SHL PUSH2 0x220F JUMP JUMPDEST PUSH2 0x11E5 PUSH2 0x143A JUMP JUMPDEST PUSH20 0xFFFFFFFFFFFFFFFFFFFFFFFFFFFFFFFFFFFFFFFF AND PUSH1 0xCA PUSH1 0x0 SWAP1 SLOAD SWAP1 PUSH2 0x100 EXP SWAP1 DIV PUSH20 0xFFFFFFFFFFFFFFFFFFFFFFFFFFFFFFFFFFFFFFFF AND PUSH20 0xFFFFFFFFFFFFFFFFFFFFFFFFFFFFFFFFFFFFFFFF AND PUSH4 0x6352211E DUP8 PUSH1 0x40 MLOAD DUP3 PUSH4 0xFFFFFFFF AND PUSH1 0xE0 SHL DUP2 MSTORE PUSH1 0x4 ADD PUSH2 0x1256 SWAP2 SWAP1 PUSH2 0x2A17 JUMP JUMPDEST PUSH1 0x20 PUSH1 0x40 MLOAD DUP1 DUP4 SUB DUP2 DUP7 GAS STATICCALL ISZERO DUP1 ISZERO PUSH2 0x1273 JUMPI RETURNDATASIZE PUSH1 0x0 DUP1 RETURNDATACOPY RETURNDATASIZE PUSH1 0x0 REVERT JUMPDEST POP POP POP POP PUSH1 0x40 MLOAD RETURNDATASIZE PUSH1 0x1F NOT PUSH1 0x1F DUP3 ADD AND DUP3 ADD DUP1 PUSH1 0x40 MSTORE POP DUP2 ADD SWAP1 PUSH2 0x1297 SWAP2 SWAP1 PUSH2 0x3882 JUMP JUMPDEST PUSH20 0xFFFFFFFFFFFFFFFFFFFFFFFFFFFFFFFFFFFFFFFF AND EQ PUSH2 0x12ED JUMPI PUSH1 0x40 MLOAD PUSH32 0x8C379A000000000000000000000000000000000000000000000000000000000 DUP2 MSTORE PUSH1 0x4 ADD PUSH2 0x12E4 SWAP1 PUSH2 0x3921 JUMP JUMPDEST PUSH1 0x40 MLOAD DUP1 SWAP2 SUB SWAP1 REVERT JUMPDEST PUSH2 0x1301 PUSH8 0x48F4A1FA5111D08C PUSH1 0xC0 SHL PUSH2 0x220F JUMP JUMPDEST DUP1 ISZERO PUSH2 0x135A JUMPI PUSH1 0x0 DUP1 PUSH1 0x1 PUSH2 0x100 EXP DUP2 SLOAD DUP2 PUSH1 0xFF MUL NOT AND SWAP1 DUP4 ISZERO ISZERO MUL OR SWAP1 SSTORE POP PUSH32 0x7F26B83FF96E1F2B6A682F133852F6798A09C465DA95921460CEFB3847402498 PUSH1 0x1 PUSH1 0x40 MLOAD PUSH2 0x1351 SWAP2 SWAP1 PUSH2 0x397C JUMP JUMPDEST PUSH1 0x40 MLOAD DUP1 SWAP2 SUB SWAP1 LOG1 JUMPDEST POP POP POP POP POP POP POP POP JUMP JUMPDEST PUSH1 0xCC SLOAD DUP2 JUMP JUMPDEST PUSH2 0x137E PUSH8 0x63E853DE8DDAAF92 PUSH1 0xC0 SHL PUSH2 0x220F JUMP JUMPDEST PUSH2 0x1392 PUSH8 0x97D4A6AFB4207125 PUSH1 0xC0 SHL PUSH2 0x220F JUMP JUMPDEST PUSH2 0x13A6 PUSH8 0x748DD9E2F6AE1D0D PUSH1 0xC0 SHL PUSH2 0x220F JUMP JUMPDEST PUSH1 0x0 PUSH2 0x13C9 DUP3 PUSH1 0x0 ADD MLOAD DUP4 PUSH1 0x20 ADD MLOAD DUP5 PUSH1 0x40 ADD MLOAD DUP6 PUSH1 0x60 ADD MLOAD DUP7 PUSH1 0x80 ADD MLOAD PUSH2 0x265B JUMP JUMPDEST SWAP1 POP PUSH2 0x13DF PUSH8 0x556B871091DE06C8 PUSH1 0xC0 SHL PUSH2 0x220F JUMP JUMPDEST PUSH2 0x13F3 PUSH8 0x5607E039F2B23CE6 PUSH1 0xC0 SHL PUSH2 0x220F JUMP JUMPDEST PUSH2 0x13FC DUP4 PUSH2 0x148A JUMP JUMPDEST POP POP POP JUMP JUMPDEST PUSH1 0xD1 PUSH1 0x0 SWAP1 SLOAD SWAP1 PUSH2 0x100 EXP SWAP1 DIV PUSH1 0xFF AND DUP2 JUMP JUMPDEST PUSH1 0xC9 PUSH1 0x0 SWAP1 SLOAD SWAP1 PUSH2 0x100 EXP SWAP1 DIV PUSH20 0xFFFFFFFFFFFFFFFFFFFFFFFFFFFFFFFFFFFFFFFF AND DUP2 JUMP JUMPDEST PUSH1 0x0 PUSH1 0x33 PUSH1 0x0 SWAP1 SLOAD SWAP1 PUSH2 0x100 EXP SWAP1 DIV PUSH20 0xFFFFFFFFFFFFFFFFFFFFFFFFFFFFFFFFFFFFFFFF AND SWAP1 POP SWAP1 JUMP JUMPDEST PUSH1 0xD3 PUSH1 0x0 SWAP1 SLOAD SWAP1 PUSH2 0x100 EXP SWAP1 DIV PUSH20 0xFFFFFFFFFFFFFFFFFFFFFFFFFFFFFFFFFFFFFFFF AND DUP2 JUMP JUMPDEST PUSH2 0x149E PUSH8 0xF2351FEDFE0AD974 PUSH1 0xC0 SHL PUSH2 0x220F JUMP JUMPDEST PUSH2 0x14B2 PUSH8 0xD7890CCF987572B2 PUSH1 0xC0 SHL PUSH2 0x220F JUMP JUMPDEST PUSH2 0x14C6 PUSH8 0xB688198B63F4A47B PUSH1 0xC0 SHL PUSH2 0x220F JUMP JUMPDEST PUSH2 0x14DA PUSH8 0xFC9C8405AE0DEB87 PUSH1 0xC0 SHL PUSH2 0x220F JUMP JUMPDEST PUSH1 0x0 DUP2 GT PUSH2 0x151D JUMPI PUSH1 0x40 MLOAD PUSH32 0x8C379A000000000000000000000000000000000000000000000000000000000 DUP2 MSTORE PUSH1 0x4 ADD PUSH2 0x1514 SWAP1 PUSH2 0x3A09 JUMP JUMPDEST PUSH1 0x40 MLOAD DUP1 SWAP2 SUB SWAP1 REVERT JUMPDEST PUSH2 0x1531 PUSH8 0xD644AB37F7272853 PUSH1 0xC0 SHL PUSH2 0x220F JUMP JUMPDEST PUSH2 0x1545 PUSH8 0xF2E69D3A93365AC7 PUSH1 0xC0 SHL PUSH2 0x220F JUMP JUMPDEST PUSH2 0x1559 PUSH8 0x3730018D4AD272EB PUSH1 0xC0 SHL PUSH2 0x220F JUMP JUMPDEST PUSH2 0x156D PUSH8 0xC43540EA7FE1DF3 PUSH1 0xC0 SHL PUSH2 0x220F JUMP JUMPDEST PUSH1 0xD1 PUSH1 0x0 SWAP1 SLOAD SWAP1 PUSH2 0x100 EXP SWAP1 DIV PUSH1 0xFF AND ISZERO PUSH2 0x15BD JUMPI PUSH1 0x40 MLOAD PUSH32 0x8C379A000000000000000000000000000000000000000000000000000000000 DUP2 MSTORE PUSH1 0x4 ADD PUSH2 0x15B4 SWAP1 PUSH2 0x3A75 JUMP JUMPDEST PUSH1 0x40 MLOAD DUP1 SWAP2 SUB SWAP1 REVERT JUMPDEST PUSH2 0x15D1 PUSH8 0x91E40BF8E22D955D PUSH1 0xC0 SHL PUSH2 0x220F JUMP JUMPDEST PUSH2 0x15E5 PUSH8 0xE14FE248745D4630 PUSH1 0xC0 SHL PUSH2 0x220F JUMP JUMPDEST PUSH2 0x15F9 PUSH8 0x791B3AF86AFD3580 PUSH1 0xC0 SHL PUSH2 0x220F JUMP JUMPDEST PUSH1 0xC9 PUSH1 0x0 SWAP1 SLOAD SWAP1 PUSH2 0x100 EXP SWAP1 DIV PUSH20 0xFFFFFFFFFFFFFFFFFFFFFFFFFFFFFFFFFFFFFFFF AND PUSH20 0xFFFFFFFFFFFFFFFFFFFFFFFFFFFFFFFFFFFFFFFF AND PUSH4 0x23B872DD CALLER ADDRESS DUP5 PUSH1 0x40 MLOAD DUP5 PUSH4 0xFFFFFFFF AND PUSH1 0xE0 SHL DUP2 MSTORE PUSH1 0x4 ADD PUSH2 0x1658 SWAP4 SWAP3 SWAP2 SWAP1 PUSH2 0x3A95 JUMP JUMPDEST PUSH1 0x20 PUSH1 0x40 MLOAD DUP1 DUP4 SUB DUP2 PUSH1 0x0 DUP8 GAS CALL ISZERO DUP1 ISZERO PUSH2 0x1677 JUMPI RETURNDATASIZE PUSH1 0x0 DUP1 RETURNDATACOPY RETURNDATASIZE PUSH1 0x0 REVERT JUMPDEST POP POP POP POP PUSH1 0x40 MLOAD RETURNDATASIZE PUSH1 0x1F NOT PUSH1 0x1F DUP3 ADD AND DUP3 ADD DUP1 PUSH1 0x40 MSTORE POP DUP2 ADD SWAP1 PUSH2 0x169B SWAP2 SWAP1 PUSH2 0x3324 JUMP JUMPDEST POP PUSH2 0x16B0 PUSH8 0xF1EDD13BAC814B7 PUSH1 0xC0 SHL PUSH2 0x220F JUMP JUMPDEST PUSH2 0x16C4 PUSH8 0x27A363E525859A48 PUSH1 0xC0 SHL PUSH2 0x220F JUMP JUMPDEST PUSH1 0xD4 SLOAD DUP2 GT ISZERO PUSH2 0x1845 JUMPI PUSH2 0x16E2 PUSH8 0xB5DBDFC24E6590F0 PUSH1 0xC0 SHL PUSH2 0x220F JUMP JUMPDEST PUSH2 0x16F6 PUSH8 0xC4C274FB25344568 PUSH1 0xC0 SHL PUSH2 0x220F JUMP JUMPDEST PUSH2 0x170A PUSH8 0x798120582AC80EE0 PUSH1 0xC0 SHL PUSH2 0x220F JUMP JUMPDEST PUSH1 0x0 PUSH1 0xD4 SLOAD EQ PUSH2 0x17BB JUMPI PUSH2 0x1728 PUSH8 0x960D0C687FF577C6 PUSH1 0xC0 SHL PUSH2 0x220F JUMP JUMPDEST PUSH2 0x173C PUSH8 0x101345C45FDC8ECD PUSH1 0xC0 SHL PUSH2 0x220F JUMP JUMPDEST PUSH1 0xD4 SLOAD PUSH1 0xD2 PUSH1 0x0 PUSH1 0xD3 PUSH1 0x0 SWAP1 SLOAD SWAP1 PUSH2 0x100 EXP SWAP1 DIV PUSH20 0xFFFFFFFFFFFFFFFFFFFFFFFFFFFFFFFFFFFFFFFF AND PUSH20 0xFFFFFFFFFFFFFFFFFFFFFFFFFFFFFFFFFFFFFFFF AND PUSH20 0xFFFFFFFFFFFFFFFFFFFFFFFFFFFFFFFFFFFFFFFF AND DUP2 MSTORE PUSH1 0x20 ADD SWAP1 DUP2 MSTORE PUSH1 0x20 ADD PUSH1 0x0 KECCAK256 PUSH1 0x0 DUP3 DUP3 SLOAD PUSH2 0x17AF SWAP2 SWAP1 PUSH2 0x3AFB JUMP JUMPDEST SWAP3 POP POP DUP2 SWAP1 SSTORE POP PUSH2 0x17D0 JUMP JUMPDEST PUSH2 0x17CF PUSH8 0x92E8DA93DA4E4B6E PUSH1 0xC0 SHL PUSH2 0x220F JUMP JUMPDEST JUMPDEST PUSH2 0x17E4 PUSH8 0x3592393E2531C083 PUSH1 0xC0 SHL PUSH2 0x220F JUMP JUMPDEST CALLER PUSH1 0xD3 PUSH1 0x0 PUSH2 0x100 EXP DUP2 SLOAD DUP2 PUSH20 0xFFFFFFFFFFFFFFFFFFFFFFFFFFFFFFFFFFFFFFFF MUL NOT AND SWAP1 DUP4 PUSH20 0xFFFFFFFFFFFFFFFFFFFFFFFFFFFFFFFFFFFFFFFF AND MUL OR SWAP1 SSTORE POP PUSH2 0x1839 PUSH8 0xCA27EEB4CEB21447 PUSH1 0xC0 SHL PUSH2 0x220F JUMP JUMPDEST DUP1 PUSH1 0xD4 DUP2 SWAP1 SSTORE POP PUSH2 0x18C4 JUMP JUMPDEST PUSH2 0x1859 PUSH8 0x7D8946F33A776FBB PUSH1 0xC0 SHL PUSH2 0x220F JUMP JUMPDEST PUSH2 0x186D PUSH8 0x3C7CB91AC5DA2017 PUSH1 0xC0 SHL PUSH2 0x220F JUMP JUMPDEST DUP1 PUSH1 0xD2 PUSH1 0x0 CALLER PUSH20 0xFFFFFFFFFFFFFFFFFFFFFFFFFFFFFFFFFFFFFFFF AND PUSH20 0xFFFFFFFFFFFFFFFFFFFFFFFFFFFFFFFFFFFFFFFF AND DUP2 MSTORE PUSH1 0x20 ADD SWAP1 DUP2 MSTORE PUSH1 0x20 ADD PUSH1 0x0 KECCAK256 PUSH1 0x0 DUP3 DUP3 SLOAD PUSH2 0x18BC SWAP2 SWAP1 PUSH2 0x3AFB JUMP JUMPDEST SWAP3 POP POP DUP2 SWAP1 SSTORE POP JUMPDEST PUSH2 0x18D8 PUSH8 0x47D994AAF3796029 PUSH1 0xC0 SHL PUSH2 0x220F JUMP JUMPDEST PUSH2 0x18EC PUSH8 0x12EDFFB605418BE6 PUSH1 0xC0 SHL PUSH2 0x220F JUMP JUMPDEST CALLER PUSH20 0xFFFFFFFFFFFFFFFFFFFFFFFFFFFFFFFFFFFFFFFF AND PUSH32 0x3FABFF0A9C3ECD6814702E247FA9733E5D0AA69E3A38590F92CB18F623A2254D DUP3 PUSH1 0x40 MLOAD PUSH2 0x1932 SWAP2 SWAP1 PUSH2 0x2A17 JUMP JUMPDEST PUSH1 0x40 MLOAD DUP1 SWAP2 SUB SWAP1 LOG2 PUSH2 0x194E PUSH8 0x4719FE81A92148F2 PUSH1 0xC0 SHL PUSH2 0x220F JUMP JUMPDEST PUSH2 0x1962 PUSH8 0x31154D2F151A0E57 PUSH1 0xC0 SHL PUSH2 0x220F JUMP JUMPDEST PUSH1 0xD0 SLOAD DUP2 LT PUSH2 0x19B4 JUMPI PUSH2 0x197F PUSH8 0xCEB3894B4C7E63DA PUSH1 0xC0 SHL PUSH2 0x220F JUMP JUMPDEST PUSH2 0x1993 PUSH8 0x9D1EC6DD8ABEA1D7 PUSH1 0xC0 SHL PUSH2 0x220F JUMP JUMPDEST PUSH2 0x19A7 PUSH8 0x94B68940E195851B PUSH1 0xC0 SHL PUSH2 0x220F JUMP JUMPDEST PUSH2 0x19AF PUSH2 0x1BE9 JUMP JUMPDEST PUSH2 0x19C9 JUMP JUMPDEST PUSH2 0x19C8 PUSH8 0x4F05062ECF813CAF PUSH1 0xC0 SHL PUSH2 0x220F JUMP JUMPDEST JUMPDEST POP JUMP JUMPDEST PUSH1 0x60 PUSH2 0x19E2 PUSH8 0xABF5B064F8F4521A PUSH1 0xC0 SHL PUSH2 0x220F JUMP JUMPDEST PUSH2 0x19F6 PUSH8 0xF0D20E7510EBE8D3 PUSH1 0xC0 SHL PUSH2 0x220F JUMP JUMPDEST PUSH2 0x1A0A PUSH8 0x456DD212B0D765DA PUSH1 0xC0 SHL PUSH2 0x220F JUMP JUMPDEST PUSH1 0xD6 DUP1 SLOAD PUSH2 0x1A17 SWAP1 PUSH2 0x35C8 JUMP JUMPDEST DUP1 PUSH1 0x1F ADD PUSH1 0x20 DUP1 SWAP2 DIV MUL PUSH1 0x20 ADD PUSH1 0x40 MLOAD SWAP1 DUP2 ADD PUSH1 0x40 MSTORE DUP1 SWAP3 SWAP2 SWAP1 DUP2 DUP2 MSTORE PUSH1 0x20 ADD DUP3 DUP1 SLOAD PUSH2 0x1A43 SWAP1 PUSH2 0x35C8 JUMP JUMPDEST DUP1 ISZERO PUSH2 0x1A90 JUMPI DUP1 PUSH1 0x1F LT PUSH2 0x1A65 JUMPI PUSH2 0x100 DUP1 DUP4 SLOAD DIV MUL DUP4 MSTORE SWAP2 PUSH1 0x20 ADD SWAP2 PUSH2 0x1A90 JUMP JUMPDEST DUP3 ADD SWAP2 SWAP1 PUSH1 0x0 MSTORE PUSH1 0x20 PUSH1 0x0 KECCAK256 SWAP1 JUMPDEST DUP2 SLOAD DUP2 MSTORE SWAP1 PUSH1 0x1 ADD SWAP1 PUSH1 0x20 ADD DUP1 DUP4 GT PUSH2 0x1A73 JUMPI DUP3 SWAP1 SUB PUSH1 0x1F AND DUP3 ADD SWAP2 JUMPDEST POP POP POP POP POP SWAP1 POP SWAP1 JUMP JUMPDEST PUSH1 0xCF SLOAD DUP2 JUMP JUMPDEST PUSH1 0xD4 SLOAD DUP2 JUMP JUMPDEST PUSH1 0xCD SLOAD DUP2 JUMP JUMPDEST PUSH1 0xCB PUSH1 0x0 SWAP1 SLOAD SWAP1 PUSH2 0x100 EXP SWAP1 DIV PUSH20 0xFFFFFFFFFFFFFFFFFFFFFFFFFFFFFFFFFFFFFFFF AND DUP2 JUMP JUMPDEST PUSH1 0xD5 SLOAD DUP2 JUMP JUMPDEST PUSH1 0xD6 DUP1 SLOAD PUSH2 0x1AE5 SWAP1 PUSH2 0x35C8 JUMP JUMPDEST DUP1 PUSH1 0x1F ADD PUSH1 0x20 DUP1 SWAP2 DIV MUL PUSH1 0x20 ADD PUSH1 0x40 MLOAD SWAP1 DUP2 ADD PUSH1 0x40 MSTORE DUP1 SWAP3 SWAP2 SWAP1 DUP2 DUP2 MSTORE PUSH1 0x20 ADD DUP3 DUP1 SLOAD PUSH2 0x1B11 SWAP1 PUSH2 0x35C8 JUMP JUMPDEST DUP1 ISZERO PUSH2 0x1B5E JUMPI DUP1 PUSH1 0x1F LT PUSH2 0x1B33 JUMPI PUSH2 0x100 DUP1 DUP4 SLOAD DIV MUL DUP4 MSTORE SWAP2 PUSH1 0x20 ADD SWAP2 PUSH2 0x1B5E JUMP JUMPDEST DUP3 ADD SWAP2 SWAP1 PUSH1 0x0 MSTORE PUSH1 0x20 PUSH1 0x0 KECCAK256 SWAP1 JUMPDEST DUP2 SLOAD DUP2 MSTORE SWAP1 PUSH1 0x1 ADD SWAP1 PUSH1 0x20 ADD DUP1 DUP4 GT PUSH2 0x1B41 JUMPI DUP3 SWAP1 SUB PUSH1 0x1F AND DUP3 ADD SWAP2 JUMPDEST POP POP POP POP POP DUP2 JUMP JUMPDEST PUSH2 0x1B6E PUSH2 0x241E JUMP JUMPDEST PUSH1 0x0 PUSH20 0xFFFFFFFFFFFFFFFFFFFFFFFFFFFFFFFFFFFFFFFF AND DUP2 PUSH20 0xFFFFFFFFFFFFFFFFFFFFFFFFFFFFFFFFFFFFFFFF AND SUB PUSH2 0x1BDD JUMPI PUSH1 0x40 MLOAD PUSH32 0x8C379A000000000000000000000000000000000000000000000000000000000 DUP2 MSTORE PUSH1 0x4 ADD PUSH2 0x1BD4 SWAP1 PUSH2 0x3BA1 JUMP JUMPDEST PUSH1 0x40 MLOAD DUP1 SWAP2 SUB SWAP1 REVERT JUMPDEST PUSH2 0x1BE6 DUP2 PUSH2 0x249C JUMP JUMPDEST POP JUMP JUMPDEST PUSH2 0x1BFD PUSH8 0xA42B0807A6ED75A2 PUSH1 0xC0 SHL PUSH2 0x220F JUMP JUMPDEST PUSH2 0x1C11 PUSH8 0x303187A7F05B7FE1 PUSH1 0xC0 SHL PUSH2 0x220F JUMP JUMPDEST PUSH2 0x1C25 PUSH8 0x249F4C1AC34E5BF9 PUSH1 0xC0 SHL PUSH2 0x220F JUMP JUMPDEST PUSH2 0x1C39 PUSH8 0x18DA94C1B883D8D2 PUSH1 0xC0 SHL PUSH2 0x220F JUMP JUMPDEST PUSH1 0xD1 PUSH1 0x0 SWAP1 SLOAD SWAP1 PUSH2 0x100 EXP SWAP1 DIV PUSH1 0xFF AND ISZERO PUSH2 0x1C89 JUMPI PUSH1 0x40 MLOAD PUSH32 0x8C379A000000000000000000000000000000000000000000000000000000000 DUP2 MSTORE PUSH1 0x4 ADD PUSH2 0x1C80 SWAP1 PUSH2 0x3A75 JUMP JUMPDEST PUSH1 0x40 MLOAD DUP1 SWAP2 SUB SWAP1 REVERT JUMPDEST PUSH2 0x1C9D PUSH8 0xBC3CB50405CEE661 PUSH1 0xC0 SHL PUSH2 0x220F JUMP JUMPDEST PUSH2 0x1CB1 PUSH8 0xDDFF74EFAA478E4F PUSH1 0xC0 SHL PUSH2 0x220F JUMP JUMPDEST PUSH1 0x1 PUSH1 0xD1 PUSH1 0x0 PUSH2 0x100 EXP DUP2 SLOAD DUP2 PUSH1 0xFF MUL NOT AND SWAP1 DUP4 ISZERO ISZERO MUL OR SWAP1 SSTORE POP PUSH2 0x1CE0 PUSH8 0x1549EB3B3829A07A PUSH1 0xC0 SHL PUSH2 0x220F JUMP JUMPDEST PUSH1 0x1 PUSH1 0xD1 PUSH1 0x1 PUSH2 0x100 EXP DUP2 SLOAD DUP2 PUSH1 0xFF MUL NOT AND SWAP1 DUP4 ISZERO ISZERO MUL OR SWAP1 SSTORE POP PUSH2 0x1D0F PUSH8 0xFE93298180335625 PUSH1 0xC0 SHL PUSH2 0x220F JUMP JUMPDEST PUSH2 0x1D23 PUSH8 0x9DC99EE8FB684F80 PUSH1 0xC0 SHL PUSH2 0x220F JUMP JUMPDEST PUSH1 0x0 PUSH20 0xFFFFFFFFFFFFFFFFFFFFFFFFFFFFFFFFFFFFFFFF AND PUSH1 0xD3 PUSH1 0x0 SWAP1 SLOAD SWAP1 PUSH2 0x100 EXP SWAP1 DIV PUSH20 0xFFFFFFFFFFFFFFFFFFFFFFFFFFFFFFFFFFFFFFFF AND PUSH20 0xFFFFFFFFFFFFFFFFFFFFFFFFFFFFFFFFFFFFFFFF AND EQ PUSH2 0x2021 JUMPI PUSH2 0x1D8D PUSH8 0xA2911CBE3DEBBAD PUSH1 0xC0 SHL PUSH2 0x220F JUMP JUMPDEST PUSH2 0x1DA1 PUSH8 0x7934D0275C7AA7A9 PUSH1 0xC0 SHL PUSH2 0x220F JUMP JUMPDEST PUSH1 0x0 PUSH1 0xD2 PUSH1 0x0 PUSH1 0xD3 PUSH1 0x0 SWAP1 SLOAD SWAP1 PUSH2 0x100 EXP SWAP1 DIV PUSH20 0xFFFFFFFFFFFFFFFFFFFFFFFFFFFFFFFFFFFFFFFF AND PUSH20 0xFFFFFFFFFFFFFFFFFFFFFFFFFFFFFFFFFFFFFFFF AND PUSH20 0xFFFFFFFFFFFFFFFFFFFFFFFFFFFFFFFFFFFFFFFF AND DUP2 MSTORE PUSH1 0x20 ADD SWAP1 DUP2 MSTORE PUSH1 0x20 ADD PUSH1 0x0 KECCAK256 DUP2 SWAP1 SSTORE POP PUSH2 0x1E1C PUSH8 0x75A56467A2E6953E PUSH1 0xC0 SHL PUSH2 0x220F JUMP JUMPDEST PUSH2 0x1E30 PUSH8 0xE604B9C3B869D79F PUSH1 0xC0 SHL PUSH2 0x220F JUMP JUMPDEST PUSH1 0xCA PUSH1 0x0 SWAP1 SLOAD SWAP1 PUSH2 0x100 EXP SWAP1 DIV PUSH20 0xFFFFFFFFFFFFFFFFFFFFFFFFFFFFFFFFFFFFFFFF AND PUSH20 0xFFFFFFFFFFFFFFFFFFFFFFFFFFFFFFFFFFFFFFFF AND PUSH4 0x42842E0E PUSH1 0xCA PUSH1 0x0 SWAP1 SLOAD SWAP1 PUSH2 0x100 EXP SWAP1 DIV PUSH20 0xFFFFFFFFFFFFFFFFFFFFFFFFFFFFFFFFFFFFFFFF AND PUSH20 0xFFFFFFFFFFFFFFFFFFFFFFFFFFFFFFFFFFFFFFFF AND PUSH4 0x6352211E PUSH1 0xCC SLOAD PUSH1 0x40 MLOAD DUP3 PUSH4 0xFFFFFFFF AND PUSH1 0xE0 SHL DUP2 MSTORE PUSH1 0x4 ADD PUSH2 0x1ECB SWAP2 SWAP1 PUSH2 0x2A17 JUMP JUMPDEST PUSH1 0x20 PUSH1 0x40 MLOAD DUP1 DUP4 SUB DUP2 DUP7 GAS STATICCALL ISZERO DUP1 ISZERO PUSH2 0x1EE8 JUMPI RETURNDATASIZE PUSH1 0x0 DUP1 RETURNDATACOPY RETURNDATASIZE PUSH1 0x0 REVERT JUMPDEST POP POP POP POP PUSH1 0x40 MLOAD RETURNDATASIZE PUSH1 0x1F NOT PUSH1 0x1F DUP3 ADD AND DUP3 ADD DUP1 PUSH1 0x40 MSTORE POP DUP2 ADD SWAP1 PUSH2 0x1F0C SWAP2 SWAP1 PUSH2 0x3882 JUMP JUMPDEST PUSH1 0xD3 PUSH1 0x0 SWAP1 SLOAD SWAP1 PUSH2 0x100 EXP SWAP1 DIV PUSH20 0xFFFFFFFFFFFFFFFFFFFFFFFFFFFFFFFFFFFFFFFF AND PUSH1 0xCC SLOAD PUSH1 0x40 MLOAD DUP5 PUSH4 0xFFFFFFFF AND PUSH1 0xE0 SHL DUP2 MSTORE PUSH1 0x4 ADD PUSH2 0x1F50 SWAP4 SWAP3 SWAP2 SWAP1 PUSH2 0x3A95 JUMP JUMPDEST PUSH1 0x0 PUSH1 0x40 MLOAD DUP1 DUP4 SUB DUP2 PUSH1 0x0 DUP8 DUP1 EXTCODESIZE ISZERO DUP1 ISZERO PUSH2 0x1F6A JUMPI PUSH1 0x0 DUP1 REVERT JUMPDEST POP GAS CALL ISZERO DUP1 ISZERO PUSH2 0x1F7E JUMPI RETURNDATASIZE PUSH1 0x0 DUP1 RETURNDATACOPY RETURNDATASIZE PUSH1 0x0 REVERT JUMPDEST POP POP POP POP PUSH2 0x1F96 PUSH8 0xE721A900FB2FBA9C PUSH1 0xC0 SHL PUSH2 0x220F JUMP JUMPDEST PUSH2 0x1FAA PUSH8 0xEB7E9B61BC2420CC PUSH1 0xC0 SHL PUSH2 0x220F JUMP JUMPDEST PUSH1 0xD3 PUSH1 0x0 SWAP1 SLOAD SWAP1 PUSH2 0x100 EXP SWAP1 DIV PUSH20 0xFFFFFFFFFFFFFFFFFFFFFFFFFFFFFFFFFFFFFFFF AND PUSH20 0xFFFFFFFFFFFFFFFFFFFFFFFFFFFFFFFFFFFFFFFF AND PUSH32 0xDAEC4582D5D9595688C8C98545FDD1C696D41C6AEAEB636737E84ED2F5C00EDA PUSH1 0xD4 SLOAD PUSH1 0x40 MLOAD PUSH2 0x2014 SWAP2 SWAP1 PUSH2 0x2A17 JUMP JUMPDEST PUSH1 0x40 MLOAD DUP1 SWAP2 SUB SWAP1 LOG2 PUSH2 0x220D JUMP JUMPDEST PUSH2 0x2035 PUSH8 0x24D8657A79D8129D PUSH1 0xC0 SHL PUSH2 0x220F JUMP JUMPDEST PUSH2 0x2049 PUSH8 0x45EFBF61E591171C PUSH1 0xC0 SHL PUSH2 0x220F JUMP JUMPDEST PUSH2 0x205D PUSH8 0xD8201DB17D5C0358 PUSH1 0xC0 SHL PUSH2 0x220F JUMP JUMPDEST PUSH1 0xCA PUSH1 0x0 SWAP1 SLOAD SWAP1 PUSH2 0x100 EXP SWAP1 DIV PUSH20 0xFFFFFFFFFFFFFFFFFFFFFFFFFFFFFFFFFFFFFFFF AND PUSH20 0xFFFFFFFFFFFFFFFFFFFFFFFFFFFFFFFFFFFFFFFF AND PUSH4 0x42842E0E PUSH1 0xCA PUSH1 0x0 SWAP1 SLOAD SWAP1 PUSH2 0x100 EXP SWAP1 DIV PUSH20 0xFFFFFFFFFFFFFFFFFFFFFFFFFFFFFFFFFFFFFFFF AND PUSH20 0xFFFFFFFFFFFFFFFFFFFFFFFFFFFFFFFFFFFFFFFF AND PUSH4 0x6352211E PUSH1 0xCC SLOAD PUSH1 0x40 MLOAD DUP3 PUSH4 0xFFFFFFFF AND PUSH1 0xE0 SHL DUP2 MSTORE PUSH1 0x4 ADD PUSH2 0x20F8 SWAP2 SWAP1 PUSH2 0x2A17 JUMP JUMPDEST PUSH1 0x20 PUSH1 0x40 MLOAD DUP1 DUP4 SUB DUP2 DUP7 GAS STATICCALL ISZERO DUP1 ISZERO PUSH2 0x2115 JUMPI RETURNDATASIZE PUSH1 0x0 DUP1 RETURNDATACOPY RETURNDATASIZE PUSH1 0x0 REVERT JUMPDEST POP POP POP POP PUSH1 0x40 MLOAD RETURNDATASIZE PUSH1 0x1F NOT PUSH1 0x1F DUP3 ADD AND DUP3 ADD DUP1 PUSH1 0x40 MSTORE POP DUP2 ADD SWAP1 PUSH2 0x2139 SWAP2 SWAP1 PUSH2 0x3882 JUMP JUMPDEST PUSH2 0x2141 PUSH2 0x143A JUMP JUMPDEST PUSH1 0xCC SLOAD PUSH1 0x40 MLOAD DUP5 PUSH4 0xFFFFFFFF AND PUSH1 0xE0 SHL DUP2 MSTORE PUSH1 0x4 ADD PUSH2 0x2162 SWAP4 SWAP3 SWAP2 SWAP1 PUSH2 0x3A95 JUMP JUMPDEST PUSH1 0x0 PUSH1 0x40 MLOAD DUP1 DUP4 SUB DUP2 PUSH1 0x0 DUP8 DUP1 EXTCODESIZE ISZERO DUP1 ISZERO PUSH2 0x217C JUMPI PUSH1 0x0 DUP1 REVERT JUMPDEST POP GAS CALL ISZERO DUP1 ISZERO PUSH2 0x2190 JUMPI RETURNDATASIZE PUSH1 0x0 DUP1 RETURNDATACOPY RETURNDATASIZE PUSH1 0x0 REVERT JUMPDEST POP POP POP POP PUSH2 0x21A8 PUSH8 0x6C98E0A83EEA3888 PUSH1 0xC0 SHL PUSH2 0x220F JUMP JUMPDEST PUSH2 0x21BC PUSH8 0xAFC69AC48FB52A65 PUSH1 0xC0 SHL PUSH2 0x220F JUMP JUMPDEST PUSH1 0x0 PUSH20 0xFFFFFFFFFFFFFFFFFFFFFFFFFFFFFFFFFFFFFFFF AND PUSH32 0xDAEC4582D5D9595688C8C98545FDD1C696D41C6AEAEB636737E84ED2F5C00EDA PUSH1 0x0 PUSH1 0x40 MLOAD PUSH2 0x2204 SWAP2 SWAP1 PUSH2 0x3BFC JUMP JUMPDEST PUSH1 0x40 MLOAD DUP1 SWAP2 SUB SWAP1 LOG2 JUMPDEST JUMP JUMPDEST POP JUMP JUMPDEST PUSH1 0x0 PUSH2 0x2240 PUSH32 0x360894A13BA1A3210667C828492DB98DCA3E2076CC3735A920A3CA505D382BBC PUSH1 0x0 SHL PUSH2 0x26D5 JUMP JUMPDEST PUSH1 0x0 ADD PUSH1 0x0 SWAP1 SLOAD SWAP1 PUSH2 0x100 EXP SWAP1 DIV PUSH20 0xFFFFFFFFFFFFFFFFFFFFFFFFFFFFFFFFFFFFFFFF AND SWAP1 POP SWAP1 JUMP JUMPDEST PUSH2 0x227D PUSH8 0x71E164C11FC9601E PUSH1 0xC0 SHL PUSH2 0x220F JUMP JUMPDEST PUSH2 0x2285 PUSH2 0x241E JUMP JUMPDEST PUSH2 0x2299 PUSH8 0xFA00DB421C5553E0 PUSH1 0xC0 SHL PUSH2 0x220F JUMP JUMPDEST PUSH2 0x22AD PUSH8 0x3B8B4B4FB24323F6 PUSH1 0xC0 SHL PUSH2 0x220F JUMP JUMPDEST POP JUMP JUMPDEST PUSH2 0x22DC PUSH32 0x4910FDFA16FED3260ED0E7147F7CC6DA11A60208B5B9406D12A635614FFD9143 PUSH1 0x0 SHL PUSH2 0x26DF JUMP JUMPDEST PUSH1 0x0 ADD PUSH1 0x0 SWAP1 SLOAD SWAP1 PUSH2 0x100 EXP SWAP1 DIV PUSH1 0xFF AND ISZERO PUSH2 0x2300 JUMPI PUSH2 0x22FB DUP4 PUSH2 0x26E9 JUMP JUMPDEST PUSH2 0x2419 JUMP JUMPDEST DUP3 PUSH20 0xFFFFFFFFFFFFFFFFFFFFFFFFFFFFFFFFFFFFFFFF AND PUSH4 0x52D1902D PUSH1 0x40 MLOAD DUP2 PUSH4 0xFFFFFFFF AND PUSH1 0xE0 SHL DUP2 MSTORE PUSH1 0x4 ADD PUSH1 0x20 PUSH1 0x40 MLOAD DUP1 DUP4 SUB DUP2 DUP7 GAS STATICCALL SWAP3 POP POP POP DUP1 ISZERO PUSH2 0x2368 JUMPI POP PUSH1 0x40 MLOAD RETURNDATASIZE PUSH1 0x1F NOT PUSH1 0x1F DUP3 ADD AND DUP3 ADD DUP1 PUSH1 0x40 MSTORE POP DUP2 ADD SWAP1 PUSH2 0x2365 SWAP2 SWAP1 PUSH2 0x3C2C JUMP JUMPDEST PUSH1 0x1 JUMPDEST PUSH2 0x23A7 JUMPI PUSH1 0x40 MLOAD PUSH32 0x8C379A000000000000000000000000000000000000000000000000000000000 DUP2 MSTORE PUSH1 0x4 ADD PUSH2 0x239E SWAP1 PUSH2 0x3CCB JUMP JUMPDEST PUSH1 0x40 MLOAD DUP1 SWAP2 SUB SWAP1 REVERT JUMPDEST PUSH32 0x360894A13BA1A3210667C828492DB98DCA3E2076CC3735A920A3CA505D382BBC PUSH1 0x0 SHL DUP2 EQ PUSH2 0x240C JUMPI PUSH1 0x40 MLOAD PUSH32 0x8C379A000000000000000000000000000000000000000000000000000000000 DUP2 MSTORE PUSH1 0x4 ADD PUSH2 0x2403 SWAP1 PUSH2 0x3D5D JUMP JUMPDEST PUSH1 0x40 MLOAD DUP1 SWAP2 SUB SWAP1 REVERT JUMPDEST POP PUSH2 0x2418 DUP4 DUP4 DUP4 PUSH2 0x27A2 JUMP JUMPDEST JUMPDEST POP POP POP JUMP JUMPDEST PUSH2 0x2426 PUSH2 0x27CE JUMP JUMPDEST PUSH20 0xFFFFFFFFFFFFFFFFFFFFFFFFFFFFFFFFFFFFFFFF AND PUSH2 0x2444 PUSH2 0x143A JUMP JUMPDEST PUSH20 0xFFFFFFFFFFFFFFFFFFFFFFFFFFFFFFFFFFFFFFFF AND EQ PUSH2 0x249A JUMPI PUSH1 0x40 MLOAD PUSH32 0x8C379A000000000000000000000000000000000000000000000000000000000 DUP2 MSTORE PUSH1 0x4 ADD PUSH2 0x2491 SWAP1 PUSH2 0x3DC9 JUMP JUMPDEST PUSH1 0x40 MLOAD DUP1 SWAP2 SUB SWAP1 REVERT JUMPDEST JUMP JUMPDEST PUSH1 0x0 PUSH1 0x33 PUSH1 0x0 SWAP1 SLOAD SWAP1 PUSH2 0x100 EXP SWAP1 DIV PUSH20 0xFFFFFFFFFFFFFFFFFFFFFFFFFFFFFFFFFFFFFFFF AND SWAP1 POP DUP2 PUSH1 0x33 PUSH1 0x0 PUSH2 0x100 EXP DUP2 SLOAD DUP2 PUSH20 0xFFFFFFFFFFFFFFFFFFFFFFFFFFFFFFFFFFFFFFFF MUL NOT AND SWAP1 DUP4 PUSH20 0xFFFFFFFFFFFFFFFFFFFFFFFFFFFFFFFFFFFFFFFF AND MUL OR SWAP1 SSTORE POP DUP2 PUSH20 0xFFFFFFFFFFFFFFFFFFFFFFFFFFFFFFFFFFFFFFFF AND DUP2 PUSH20 0xFFFFFFFFFFFFFFFFFFFFFFFFFFFFFFFFFFFFFFFF AND PUSH32 0x8BE0079C531659141344CD1FD0A4F28419497F9722A3DAAFE3B4186F6B6457E0 PUSH1 0x40 MLOAD PUSH1 0x40 MLOAD DUP1 SWAP2 SUB SWAP1 LOG3 POP POP JUMP JUMPDEST PUSH1 0x0 DUP1 DUP3 PUSH20 0xFFFFFFFFFFFFFFFFFFFFFFFFFFFFFFFFFFFFFFFF AND EXTCODESIZE GT SWAP1 POP SWAP2 SWAP1 POP JUMP JUMPDEST PUSH1 0x0 PUSH1 0x1 SWAP1 SLOAD SWAP1 PUSH2 0x100 EXP SWAP1 DIV PUSH1 0xFF AND PUSH2 0x25D4 JUMPI PUSH1 0x40 MLOAD PUSH32 0x8C379A000000000000000000000000000000000000000000000000000000000 DUP2 MSTORE PUSH1 0x4 ADD PUSH2 0x25CB SWAP1 PUSH2 0x3E5B JUMP JUMPDEST PUSH1 0x40 MLOAD DUP1 SWAP2 SUB SWAP1 REVERT JUMPDEST PUSH2 0x25DC PUSH2 0x27D6 JUMP JUMPDEST JUMP JUMPDEST PUSH1 0x0 PUSH1 0x1 SWAP1 SLOAD SWAP1 PUSH2 0x100 EXP SWAP1 DIV PUSH1 0xFF AND PUSH2 0x262D JUMPI PUSH1 0x40 MLOAD PUSH32 0x8C379A000000000000000000000000000000000000000000000000000000000 DUP2 MSTORE PUSH1 0x4 ADD PUSH2 0x2624 SWAP1 PUSH2 0x3E5B JUMP JUMPDEST PUSH1 0x40 MLOAD DUP1 SWAP2 SUB SWAP1 REVERT JUMPDEST JUMP JUMPDEST PUSH1 0x0 DUP2 DUP4 PUSH2 0x263D SWAP2 SWAP1 PUSH2 0x3E7B JUMP JUMPDEST SWAP1 POP SWAP3 SWAP2 POP POP JUMP JUMPDEST PUSH1 0x0 DUP2 DUP4 PUSH2 0x2653 SWAP2 SWAP1 PUSH2 0x3AFB JUMP JUMPDEST SWAP1 POP SWAP3 SWAP2 POP POP JUMP JUMPDEST PUSH1 0x0 PUSH2 0x2671 PUSH8 0xDCA2FF6724FE4F94 PUSH1 0xC0 SHL PUSH2 0x220F JUMP JUMPDEST PUSH2 0x2685 PUSH8 0x18CD8BA7601EC798 PUSH1 0xC0 SHL PUSH2 0x220F JUMP JUMPDEST PUSH2 0x2699 PUSH8 0x9BC7C069221409C0 PUSH1 0xC0 SHL PUSH2 0x220F JUMP JUMPDEST DUP6 DUP6 DUP6 DUP6 DUP6 ADDRESS PUSH1 0x40 MLOAD PUSH1 0x20 ADD PUSH2 0x26B4 SWAP7 SWAP6 SWAP5 SWAP4 SWAP3 SWAP2 SWAP1 PUSH2 0x3F26 JUMP JUMPDEST PUSH1 0x40 MLOAD PUSH1 0x20 DUP2 DUP4 SUB SUB DUP2 MSTORE SWAP1 PUSH1 0x40 MSTORE DUP1 MLOAD SWAP1 PUSH1 0x20 ADD KECCAK256 SWAP1 POP SWAP6 SWAP5 POP POP POP POP POP JUMP JUMPDEST PUSH1 0x0 DUP2 SWAP1 POP SWAP2 SWAP1 POP JUMP JUMPDEST PUSH1 0x0 DUP2 SWAP1 POP SWAP2 SWAP1 POP JUMP JUMPDEST PUSH2 0x26F2 DUP2 PUSH2 0x2562 JUMP JUMPDEST PUSH2 0x2731 JUMPI PUSH1 0x40 MLOAD PUSH32 0x8C379A000000000000000000000000000000000000000000000000000000000 DUP2 MSTORE PUSH1 0x4 ADD PUSH2 0x2728 SWAP1 PUSH2 0x4008 JUMP JUMPDEST PUSH1 0x40 MLOAD DUP1 SWAP2 SUB SWAP1 REVERT JUMPDEST DUP1 PUSH2 0x275E PUSH32 0x360894A13BA1A3210667C828492DB98DCA3E2076CC3735A920A3CA505D382BBC PUSH1 0x0 SHL PUSH2 0x26D5 JUMP JUMPDEST PUSH1 0x0 ADD PUSH1 0x0 PUSH2 0x100 EXP DUP2 SLOAD DUP2 PUSH20 0xFFFFFFFFFFFFFFFFFFFFFFFFFFFFFFFFFFFFFFFF MUL NOT AND SWAP1 DUP4 PUSH20 0xFFFFFFFFFFFFFFFFFFFFFFFFFFFFFFFFFFFFFFFF AND MUL OR SWAP1 SSTORE POP POP JUMP JUMPDEST PUSH2 0x27AB DUP4 PUSH2 0x2837 JUMP JUMPDEST PUSH1 0x0 DUP3 MLOAD GT DUP1 PUSH2 0x27B8 JUMPI POP DUP1 JUMPDEST ISZERO PUSH2 0x27C9 JUMPI PUSH2 0x27C7 DUP4 DUP4 PUSH2 0x2886 JUMP JUMPDEST POP JUMPDEST POP POP POP JUMP JUMPDEST PUSH1 0x0 CALLER SWAP1 POP SWAP1 JUMP JUMPDEST PUSH1 0x0 PUSH1 0x1 SWAP1 SLOAD SWAP1 PUSH2 0x100 EXP SWAP1 DIV PUSH1 0xFF AND PUSH2 0x2825 JUMPI PUSH1 0x40 MLOAD PUSH32 0x8C379A000000000000000000000000000000000000000000000000000000000 DUP2 MSTORE PUSH1 0x4 ADD PUSH2 0x281C SWAP1 PUSH2 0x3E5B JUMP JUMPDEST PUSH1 0x40 MLOAD DUP1 SWAP2 SUB SWAP1 REVERT JUMPDEST PUSH2 0x2835 PUSH2 0x2830 PUSH2 0x27CE JUMP JUMPDEST PUSH2 0x249C JUMP JUMPDEST JUMP JUMPDEST PUSH2 0x2840 DUP2 PUSH2 0x26E9 JUMP JUMPDEST DUP1 PUSH20 0xFFFFFFFFFFFFFFFFFFFFFFFFFFFFFFFFFFFFFFFF AND PUSH32 0xBC7CD75A20EE27FD9ADEBAB32041F755214DBC6BFFA90CC0225B39DA2E5C2D3B PUSH1 0x40 MLOAD PUSH1 0x40 MLOAD DUP1 SWAP2 SUB SWAP1 LOG2 POP JUMP JUMPDEST PUSH1 0x60 PUSH2 0x28AB DUP4 DUP4 PUSH1 0x40 MLOAD DUP1 PUSH1 0x60 ADD PUSH1 0x40 MSTORE DUP1 PUSH1 0x27 DUP2 MSTORE PUSH1 0x20 ADD PUSH2 0x40F3 PUSH1 0x27 SWAP2 CODECOPY PUSH2 0x28B3 JUMP JUMPDEST SWAP1 POP SWAP3 SWAP2 POP POP JUMP JUMPDEST PUSH1 0x60 PUSH1 0x0 DUP1 DUP6 PUSH20 0xFFFFFFFFFFFFFFFFFFFFFFFFFFFFFFFFFFFFFFFF AND DUP6 PUSH1 0x40 MLOAD PUSH2 0x28DD SWAP2 SWAP1 PUSH2 0x406F JUMP JUMPDEST PUSH1 0x0 PUSH1 0x40 MLOAD DUP1 DUP4 SUB DUP2 DUP6 GAS DELEGATECALL SWAP2 POP POP RETURNDATASIZE DUP1 PUSH1 0x0 DUP2 EQ PUSH2 0x2918 JUMPI PUSH1 0x40 MLOAD SWAP2 POP PUSH1 0x1F NOT PUSH1 0x3F RETURNDATASIZE ADD AND DUP3 ADD PUSH1 0x40 MSTORE RETURNDATASIZE DUP3 MSTORE RETURNDATASIZE PUSH1 0x0 PUSH1 0x20 DUP5 ADD RETURNDATACOPY PUSH2 0x291D JUMP JUMPDEST PUSH1 0x60 SWAP2 POP JUMPDEST POP SWAP2 POP SWAP2 POP PUSH2 0x292E DUP7 DUP4 DUP4 DUP8 PUSH2 0x2939 JUMP JUMPDEST SWAP3 POP POP POP SWAP4 SWAP3 POP POP POP JUMP JUMPDEST PUSH1 0x60 DUP4 ISZERO PUSH2 0x299B JUMPI PUSH1 0x0 DUP4 MLOAD SUB PUSH2 0x2993 JUMPI PUSH2 0x2953 DUP6 PUSH2 0x2562 JUMP JUMPDEST PUSH2 0x2992 JUMPI PUSH1 0x40 MLOAD PUSH32 0x8C379A000000000000000000000000000000000000000000000000000000000 DUP2 MSTORE PUSH1 0x4 ADD PUSH2 0x2989 SWAP1 PUSH2 0x40D2 JUMP JUMPDEST PUSH1 0x40 MLOAD DUP1 SWAP2 SUB SWAP1 REVERT JUMPDEST JUMPDEST DUP3 SWAP1 POP PUSH2 0x29A6 JUMP JUMPDEST PUSH2 0x29A5 DUP4 DUP4 PUSH2 0x29AE JUMP JUMPDEST JUMPDEST SWAP5 SWAP4 POP POP POP POP JUMP JUMPDEST PUSH1 0x0 DUP3 MLOAD GT ISZERO PUSH2 0x29C1 JUMPI DUP2 MLOAD DUP1 DUP4 PUSH1 0x20 ADD REVERT JUMPDEST DUP1 PUSH1 0x40 MLOAD PUSH32 0x8C379A000000000000000000000000000000000000000000000000000000000 DUP2 MSTORE PUSH1 0x4 ADD PUSH2 0x29F5 SWAP2 SWAP1 PUSH2 0x3169 JUMP JUMPDEST PUSH1 0x40 MLOAD DUP1 SWAP2 SUB SWAP1 REVERT JUMPDEST PUSH1 0x0 DUP2 SWAP1 POP SWAP2 SWAP1 POP JUMP JUMPDEST PUSH2 0x2A11 DUP2 PUSH2 0x29FE JUMP JUMPDEST DUP3 MSTORE POP POP JUMP JUMPDEST PUSH1 0x0 PUSH1 0x20 DUP3 ADD SWAP1 POP PUSH2 0x2A2C PUSH1 0x0 DUP4 ADD DUP5 PUSH2 0x2A08 JUMP JUMPDEST SWAP3 SWAP2 POP POP JUMP JUMPDEST PUSH1 0x0 PUSH1 0x40 MLOAD SWAP1 POP SWAP1 JUMP JUMPDEST PUSH1 0x0 DUP1 REVERT JUMPDEST PUSH1 0x0 DUP1 REVERT JUMPDEST PUSH1 0x0 PUSH20 0xFFFFFFFFFFFFFFFFFFFFFFFFFFFFFFFFFFFFFFFF DUP3 AND SWAP1 POP SWAP2 SWAP1 POP JUMP JUMPDEST PUSH1 0x0 PUSH2 0x2A71 DUP3 PUSH2 0x2A46 JUMP JUMPDEST SWAP1 POP SWAP2 SWAP1 POP JUMP JUMPDEST PUSH2 0x2A81 DUP2 PUSH2 0x2A66 JUMP JUMPDEST DUP2 EQ PUSH2 0x2A8C JUMPI PUSH1 0x0 DUP1 REVERT JUMPDEST POP JUMP JUMPDEST PUSH1 0x0 DUP2 CALLDATALOAD SWAP1 POP PUSH2 0x2A9E DUP2 PUSH2 0x2A78 JUMP JUMPDEST SWAP3 SWAP2 POP POP JUMP JUMPDEST PUSH1 0x0 PUSH1 0x20 DUP3 DUP5 SUB SLT ISZERO PUSH2 0x2ABA JUMPI PUSH2 0x2AB9 PUSH2 0x2A3C JUMP JUMPDEST JUMPDEST PUSH1 0x0 PUSH2 0x2AC8 DUP5 DUP3 DUP6 ADD PUSH2 0x2A8F JUMP JUMPDEST SWAP2 POP POP SWAP3 SWAP2 POP POP JUMP JUMPDEST PUSH1 0x0 DUP2 ISZERO ISZERO SWAP1 POP SWAP2 SWAP1 POP JUMP JUMPDEST PUSH2 0x2AE6 DUP2 PUSH2 0x2AD1 JUMP JUMPDEST DUP3 MSTORE POP POP JUMP JUMPDEST PUSH1 0x0 PUSH1 0x20 DUP3 ADD SWAP1 POP PUSH2 0x2B01 PUSH1 0x0 DUP4 ADD DUP5 PUSH2 0x2ADD JUMP JUMPDEST SWAP3 SWAP2 POP POP JUMP JUMPDEST PUSH1 0x0 DUP2 SWAP1 POP SWAP2 SWAP1 POP JUMP JUMPDEST PUSH1 0x0 PUSH2 0x2B2C PUSH2 0x2B27 PUSH2 0x2B22 DUP5 PUSH2 0x2A46 JUMP JUMPDEST PUSH2 0x2B07 JUMP JUMPDEST PUSH2 0x2A46 JUMP JUMPDEST SWAP1 POP SWAP2 SWAP1 POP JUMP JUMPDEST PUSH1 0x0 PUSH2 0x2B3E DUP3 PUSH2 0x2B11 JUMP JUMPDEST SWAP1 POP SWAP2 SWAP1 POP JUMP JUMPDEST PUSH1 0x0 PUSH2 0x2B50 DUP3 PUSH2 0x2B33 JUMP JUMPDEST SWAP1 POP SWAP2 SWAP1 POP JUMP JUMPDEST PUSH2 0x2B60 DUP2 PUSH2 0x2B45 JUMP JUMPDEST DUP3 MSTORE POP POP JUMP JUMPDEST PUSH1 0x0 PUSH1 0x20 DUP3 ADD SWAP1 POP PUSH2 0x2B7B PUSH1 0x0 DUP4 ADD DUP5 PUSH2 0x2B57 JUMP JUMPDEST SWAP3 SWAP2 POP POP JUMP JUMPDEST PUSH1 0x0 DUP1 REVERT JUMPDEST PUSH1 0x0 DUP1 REVERT JUMPDEST PUSH1 0x0 PUSH1 0x1F NOT PUSH1 0x1F DUP4 ADD AND SWAP1 POP SWAP2 SWAP1 POP JUMP JUMPDEST PUSH32 0x4E487B7100000000000000000000000000000000000000000000000000000000 PUSH1 0x0 MSTORE PUSH1 0x41 PUSH1 0x4 MSTORE PUSH1 0x24 PUSH1 0x0 REVERT JUMPDEST PUSH2 0x2BD4 DUP3 PUSH2 0x2B8B JUMP JUMPDEST DUP2 ADD DUP2 DUP2 LT PUSH8 0xFFFFFFFFFFFFFFFF DUP3 GT OR ISZERO PUSH2 0x2BF3 JUMPI PUSH2 0x2BF2 PUSH2 0x2B9C JUMP JUMPDEST JUMPDEST DUP1 PUSH1 0x40 MSTORE POP POP POP JUMP JUMPDEST PUSH1 0x0 PUSH2 0x2C06 PUSH2 0x2A32 JUMP JUMPDEST SWAP1 POP PUSH2 0x2C12 DUP3 DUP3 PUSH2 0x2BCB JUMP JUMPDEST SWAP2 SWAP1 POP JUMP JUMPDEST PUSH1 0x0 PUSH8 0xFFFFFFFFFFFFFFFF DUP3 GT ISZERO PUSH2 0x2C32 JUMPI PUSH2 0x2C31 PUSH2 0x2B9C JUMP JUMPDEST JUMPDEST PUSH2 0x2C3B DUP3 PUSH2 0x2B8B JUMP JUMPDEST SWAP1 POP PUSH1 0x20 DUP2 ADD SWAP1 POP SWAP2 SWAP1 POP JUMP JUMPDEST DUP3 DUP2 DUP4 CALLDATACOPY PUSH1 0x0 DUP4 DUP4 ADD MSTORE POP POP POP JUMP JUMPDEST PUSH1 0x0 PUSH2 0x2C6A PUSH2 0x2C65 DUP5 PUSH2 0x2C17 JUMP JUMPDEST PUSH2 0x2BFC JUMP JUMPDEST SWAP1 POP DUP3 DUP2 MSTORE PUSH1 0x20 DUP2 ADD DUP5 DUP5 DUP5 ADD GT ISZERO PUSH2 0x2C86 JUMPI PUSH2 0x2C85 PUSH2 0x2B86 JUMP JUMPDEST JUMPDEST PUSH2 0x2C91 DUP5 DUP3 DUP6 PUSH2 0x2C48 JUMP JUMPDEST POP SWAP4 SWAP3 POP POP POP JUMP JUMPDEST PUSH1 0x0 DUP3 PUSH1 0x1F DUP4 ADD SLT PUSH2 0x2CAE JUMPI PUSH2 0x2CAD PUSH2 0x2B81 JUMP JUMPDEST JUMPDEST DUP2 CALLDATALOAD PUSH2 0x2CBE DUP5 DUP3 PUSH1 0x20 DUP7 ADD PUSH2 0x2C57 JUMP JUMPDEST SWAP2 POP POP SWAP3 SWAP2 POP POP JUMP JUMPDEST PUSH1 0x0 DUP1 PUSH1 0x40 DUP4 DUP6 SUB SLT ISZERO PUSH2 0x2CDE JUMPI PUSH2 0x2CDD PUSH2 0x2A3C JUMP JUMPDEST JUMPDEST PUSH1 0x0 PUSH2 0x2CEC DUP6 DUP3 DUP7 ADD PUSH2 0x2A8F JUMP JUMPDEST SWAP3 POP POP PUSH1 0x20 DUP4 ADD CALLDATALOAD PUSH8 0xFFFFFFFFFFFFFFFF DUP2 GT ISZERO PUSH2 0x2D0D JUMPI PUSH2 0x2D0C PUSH2 0x2A41 JUMP JUMPDEST JUMPDEST PUSH2 0x2D19 DUP6 DUP3 DUP7 ADD PUSH2 0x2C99 JUMP JUMPDEST SWAP2 POP POP SWAP3 POP SWAP3 SWAP1 POP JUMP JUMPDEST PUSH1 0x0 DUP2 SWAP1 POP SWAP2 SWAP1 POP JUMP JUMPDEST PUSH2 0x2D36 DUP2 PUSH2 0x2D23 JUMP JUMPDEST DUP3 MSTORE POP POP JUMP JUMPDEST PUSH1 0x0 PUSH1 0x20 DUP3 ADD SWAP1 POP PUSH2 0x2D51 PUSH1 0x0 DUP4 ADD DUP5 PUSH2 0x2D2D JUMP JUMPDEST SWAP3 SWAP2 POP POP JUMP JUMPDEST PUSH1 0x0 PUSH8 0xFFFFFFFFFFFFFFFF DUP3 GT ISZERO PUSH2 0x2D72 JUMPI PUSH2 0x2D71 PUSH2 0x2B9C JUMP JUMPDEST JUMPDEST PUSH2 0x2D7B DUP3 PUSH2 0x2B8B JUMP JUMPDEST SWAP1 POP PUSH1 0x20 DUP2 ADD SWAP1 POP SWAP2 SWAP1 POP JUMP JUMPDEST PUSH1 0x0 PUSH2 0x2D9B PUSH2 0x2D96 DUP5 PUSH2 0x2D57 JUMP JUMPDEST PUSH2 0x2BFC JUMP JUMPDEST SWAP1 POP DUP3 DUP2 MSTORE PUSH1 0x20 DUP2 ADD DUP5 DUP5 DUP5 ADD GT ISZERO PUSH2 0x2DB7 JUMPI PUSH2 0x2DB6 PUSH2 0x2B86 JUMP JUMPDEST JUMPDEST PUSH2 0x2DC2 DUP5 DUP3 DUP6 PUSH2 0x2C48 JUMP JUMPDEST POP SWAP4 SWAP3 POP POP POP JUMP JUMPDEST PUSH1 0x0 DUP3 PUSH1 0x1F DUP4 ADD SLT PUSH2 0x2DDF JUMPI PUSH2 0x2DDE PUSH2 0x2B81 JUMP JUMPDEST JUMPDEST DUP2 CALLDATALOAD PUSH2 0x2DEF DUP5 DUP3 PUSH1 0x20 DUP7 ADD PUSH2 0x2D88 JUMP JUMPDEST SWAP2 POP POP SWAP3 SWAP2 POP POP JUMP JUMPDEST PUSH2 0x2E01 DUP2 PUSH2 0x29FE JUMP JUMPDEST DUP2 EQ PUSH2 0x2E0C JUMPI PUSH1 0x0 DUP1 REVERT JUMPDEST POP JUMP JUMPDEST PUSH1 0x0 DUP2 CALLDATALOAD SWAP1 POP PUSH2 0x2E1E DUP2 PUSH2 0x2DF8 JUMP JUMPDEST SWAP3 SWAP2 POP POP JUMP JUMPDEST PUSH1 0x0 DUP1 PUSH1 0x0 DUP1 PUSH1 0x0 DUP1 PUSH1 0x0 PUSH1 0xE0 DUP9 DUP11 SUB SLT ISZERO PUSH2 0x2E43 JUMPI PUSH2 0x2E42 PUSH2 0x2A3C JUMP JUMPDEST JUMPDEST PUSH1 0x0 DUP9 ADD CALLDATALOAD PUSH8 0xFFFFFFFFFFFFFFFF DUP2 GT ISZERO PUSH2 0x2E61 JUMPI PUSH2 0x2E60 PUSH2 0x2A41 JUMP JUMPDEST JUMPDEST PUSH2 0x2E6D DUP11 DUP3 DUP12 ADD PUSH2 0x2DCA JUMP JUMPDEST SWAP8 POP POP PUSH1 0x20 PUSH2 0x2E7E DUP11 DUP3 DUP12 ADD PUSH2 0x2A8F JUMP JUMPDEST SWAP7 POP POP PUSH1 0x40 PUSH2 0x2E8F DUP11 DUP3 DUP12 ADD PUSH2 0x2A8F JUMP JUMPDEST SWAP6 POP POP PUSH1 0x60 PUSH2 0x2EA0 DUP11 DUP3 DUP12 ADD PUSH2 0x2E0F JUMP JUMPDEST SWAP5 POP POP PUSH1 0x80 PUSH2 0x2EB1 DUP11 DUP3 DUP12 ADD PUSH2 0x2E0F JUMP JUMPDEST SWAP4 POP POP PUSH1 0xA0 PUSH2 0x2EC2 DUP11 DUP3 DUP12 ADD PUSH2 0x2E0F JUMP JUMPDEST SWAP3 POP POP PUSH1 0xC0 PUSH2 0x2ED3 DUP11 DUP3 DUP12 ADD PUSH2 0x2E0F JUMP JUMPDEST SWAP2 POP POP SWAP3 SWAP6 SWAP9 SWAP2 SWAP5 SWAP8 POP SWAP3 SWAP6 POP JUMP JUMPDEST PUSH1 0x0 DUP1 REVERT JUMPDEST PUSH1 0x0 PUSH1 0xFF DUP3 AND SWAP1 POP SWAP2 SWAP1 POP JUMP JUMPDEST PUSH2 0x2EFD DUP2 PUSH2 0x2EE7 JUMP JUMPDEST DUP2 EQ PUSH2 0x2F08 JUMPI PUSH1 0x0 DUP1 REVERT JUMPDEST POP JUMP JUMPDEST PUSH1 0x0 DUP2 CALLDATALOAD SWAP1 POP PUSH2 0x2F1A DUP2 PUSH2 0x2EF4 JUMP JUMPDEST SWAP3 SWAP2 POP POP JUMP JUMPDEST PUSH2 0x2F29 DUP2 PUSH2 0x2D23 JUMP JUMPDEST DUP2 EQ PUSH2 0x2F34 JUMPI PUSH1 0x0 DUP1 REVERT JUMPDEST POP JUMP JUMPDEST PUSH1 0x0 DUP2 CALLDATALOAD SWAP1 POP PUSH2 0x2F46 DUP2 PUSH2 0x2F20 JUMP JUMPDEST SWAP3 SWAP2 POP POP JUMP JUMPDEST PUSH1 0x0 PUSH2 0x100 DUP3 DUP5 SUB SLT ISZERO PUSH2 0x2F63 JUMPI PUSH2 0x2F62 PUSH2 0x2EE2 JUMP JUMPDEST JUMPDEST PUSH2 0x2F6E PUSH2 0x100 PUSH2 0x2BFC JUMP JUMPDEST SWAP1 POP PUSH1 0x0 PUSH2 0x2F7E DUP5 DUP3 DUP6 ADD PUSH2 0x2A8F JUMP JUMPDEST PUSH1 0x0 DUP4 ADD MSTORE POP PUSH1 0x20 PUSH2 0x2F92 DUP5 DUP3 DUP6 ADD PUSH2 0x2A8F JUMP JUMPDEST PUSH1 0x20 DUP4 ADD MSTORE POP PUSH1 0x40 PUSH2 0x2FA6 DUP5 DUP3 DUP6 ADD PUSH2 0x2E0F JUMP JUMPDEST PUSH1 0x40 DUP4 ADD MSTORE POP PUSH1 0x60 PUSH2 0x2FBA DUP5 DUP3 DUP6 ADD PUSH2 0x2E0F JUMP JUMPDEST PUSH1 0x60 DUP4 ADD MSTORE POP PUSH1 0x80 PUSH2 0x2FCE DUP5 DUP3 DUP6 ADD PUSH2 0x2E0F JUMP JUMPDEST PUSH1 0x80 DUP4 ADD MSTORE POP PUSH1 0xA0 PUSH2 0x2FE2 DUP5 DUP3 DUP6 ADD PUSH2 0x2F0B JUMP JUMPDEST PUSH1 0xA0 DUP4 ADD MSTORE POP PUSH1 0xC0 PUSH2 0x2FF6 DUP5 DUP3 DUP6 ADD PUSH2 0x2F37 JUMP JUMPDEST PUSH1 0xC0 DUP4 ADD MSTORE POP PUSH1 0xE0 PUSH2 0x300A DUP5 DUP3 DUP6 ADD PUSH2 0x2F37 JUMP JUMPDEST PUSH1 0xE0 DUP4 ADD MSTORE POP SWAP3 SWAP2 POP POP JUMP JUMPDEST PUSH1 0x0 DUP1 PUSH2 0x120 DUP4 DUP6 SUB SLT ISZERO PUSH2 0x302E JUMPI PUSH2 0x302D PUSH2 0x2A3C JUMP JUMPDEST JUMPDEST PUSH1 0x0 PUSH2 0x303C DUP6 DUP3 DUP7 ADD PUSH2 0x2E0F JUMP JUMPDEST SWAP3 POP POP PUSH1 0x20 PUSH2 0x304D DUP6 DUP3 DUP7 ADD PUSH2 0x2F4C JUMP JUMPDEST SWAP2 POP POP SWAP3 POP SWAP3 SWAP1 POP JUMP JUMPDEST PUSH1 0x0 PUSH2 0x3062 DUP3 PUSH2 0x2B33 JUMP JUMPDEST SWAP1 POP SWAP2 SWAP1 POP JUMP JUMPDEST PUSH2 0x3072 DUP2 PUSH2 0x3057 JUMP JUMPDEST DUP3 MSTORE POP POP JUMP JUMPDEST PUSH1 0x0 PUSH1 0x20 DUP3 ADD SWAP1 POP PUSH2 0x308D PUSH1 0x0 DUP4 ADD DUP5 PUSH2 0x3069 JUMP JUMPDEST SWAP3 SWAP2 POP POP JUMP JUMPDEST PUSH2 0x309C DUP2 PUSH2 0x2A66 JUMP JUMPDEST DUP3 MSTORE POP POP JUMP JUMPDEST PUSH1 0x0 PUSH1 0x20 DUP3 ADD SWAP1 POP PUSH2 0x30B7 PUSH1 0x0 DUP4 ADD DUP5 PUSH2 0x3093 JUMP JUMPDEST SWAP3 SWAP2 POP POP JUMP JUMPDEST PUSH1 0x0 PUSH1 0x20 DUP3 DUP5 SUB SLT ISZERO PUSH2 0x30D3 JUMPI PUSH2 0x30D2 PUSH2 0x2A3C JUMP JUMPDEST JUMPDEST PUSH1 0x0 PUSH2 0x30E1 DUP5 DUP3 DUP6 ADD PUSH2 0x2E0F JUMP JUMPDEST SWAP2 POP POP SWAP3 SWAP2 POP POP JUMP JUMPDEST PUSH1 0x0 DUP2 MLOAD SWAP1 POP SWAP2 SWAP1 POP JUMP JUMPDEST PUSH1 0x0 DUP3 DUP3 MSTORE PUSH1 0x20 DUP3 ADD SWAP1 POP SWAP3 SWAP2 POP POP JUMP JUMPDEST PUSH1 0x0 JUMPDEST DUP4 DUP2 LT ISZERO PUSH2 0x3124 JUMPI DUP1 DUP3 ADD MLOAD DUP2 DUP5 ADD MSTORE PUSH1 0x20 DUP2 ADD SWAP1 POP PUSH2 0x3109 JUMP JUMPDEST PUSH1 0x0 DUP5 DUP5 ADD MSTORE POP POP POP POP JUMP JUMPDEST PUSH1 0x0 PUSH2 0x313B DUP3 PUSH2 0x30EA JUMP JUMPDEST PUSH2 0x3145 DUP2 DUP6 PUSH2 0x30F5 JUMP JUMPDEST SWAP4 POP PUSH2 0x3155 DUP2 DUP6 PUSH1 0x20 DUP7 ADD PUSH2 0x3106 JUMP JUMPDEST PUSH2 0x315E DUP2 PUSH2 0x2B8B JUMP JUMPDEST DUP5 ADD SWAP2 POP POP SWAP3 SWAP2 POP POP JUMP JUMPDEST PUSH1 0x0 PUSH1 0x20 DUP3 ADD SWAP1 POP DUP2 DUP2 SUB PUSH1 0x0 DUP4 ADD MSTORE PUSH2 0x3183 DUP2 DUP5 PUSH2 0x3130 JUMP JUMPDEST SWAP1 POP SWAP3 SWAP2 POP POP JUMP JUMPDEST PUSH32 0x41756374696F6E20686173206E6F7420656E6465642079657400000000000000 PUSH1 0x0 DUP3 ADD MSTORE POP JUMP JUMPDEST PUSH1 0x0 PUSH2 0x31C1 PUSH1 0x19 DUP4 PUSH2 0x30F5 JUMP JUMPDEST SWAP2 POP PUSH2 0x31CC DUP3 PUSH2 0x318B JUMP JUMPDEST PUSH1 0x20 DUP3 ADD SWAP1 POP SWAP2 SWAP1 POP JUMP JUMPDEST PUSH1 0x0 PUSH1 0x20 DUP3 ADD SWAP1 POP DUP2 DUP2 SUB PUSH1 0x0 DUP4 ADD MSTORE PUSH2 0x31F0 DUP2 PUSH2 0x31B4 JUMP JUMPDEST SWAP1 POP SWAP2 SWAP1 POP JUMP JUMPDEST PUSH32 0x48696768657374206269646465722063616E6E6F7420726566756E6400000000 PUSH1 0x0 DUP3 ADD MSTORE POP JUMP JUMPDEST PUSH1 0x0 PUSH2 0x322D PUSH1 0x1C DUP4 PUSH2 0x30F5 JUMP JUMPDEST SWAP2 POP PUSH2 0x3238 DUP3 PUSH2 0x31F7 JUMP JUMPDEST PUSH1 0x20 DUP3 ADD SWAP1 POP SWAP2 SWAP1 POP JUMP JUMPDEST PUSH1 0x0 PUSH1 0x20 DUP3 ADD SWAP1 POP DUP2 DUP2 SUB PUSH1 0x0 DUP4 ADD MSTORE PUSH2 0x325C DUP2 PUSH2 0x3220 JUMP JUMPDEST SWAP1 POP SWAP2 SWAP1 POP JUMP JUMPDEST PUSH32 0x4E6F2062696420746F20726566756E6400000000000000000000000000000000 PUSH1 0x0 DUP3 ADD MSTORE POP JUMP JUMPDEST PUSH1 0x0 PUSH2 0x3299 PUSH1 0x10 DUP4 PUSH2 0x30F5 JUMP JUMPDEST SWAP2 POP PUSH2 0x32A4 DUP3 PUSH2 0x3263 JUMP JUMPDEST PUSH1 0x20 DUP3 ADD SWAP1 POP SWAP2 SWAP1 POP JUMP JUMPDEST PUSH1 0x0 PUSH1 0x20 DUP3 ADD SWAP1 POP DUP2 DUP2 SUB PUSH1 0x0 DUP4 ADD MSTORE PUSH2 0x32C8 DUP2 PUSH2 0x328C JUMP JUMPDEST SWAP1 POP SWAP2 SWAP1 POP JUMP JUMPDEST PUSH1 0x0 PUSH1 0x40 DUP3 ADD SWAP1 POP PUSH2 0x32E4 PUSH1 0x0 DUP4 ADD DUP6 PUSH2 0x3093 JUMP JUMPDEST PUSH2 0x32F1 PUSH1 0x20 DUP4 ADD DUP5 PUSH2 0x2A08 JUMP JUMPDEST SWAP4 SWAP3 POP POP POP JUMP JUMPDEST PUSH2 0x3301 DUP2 PUSH2 0x2AD1 JUMP JUMPDEST DUP2 EQ PUSH2 0x330C JUMPI PUSH1 0x0 DUP1 REVERT JUMPDEST POP JUMP JUMPDEST PUSH1 0x0 DUP2 MLOAD SWAP1 POP PUSH2 0x331E DUP2 PUSH2 0x32F8 JUMP JUMPDEST SWAP3 SWAP2 POP POP JUMP JUMPDEST PUSH1 0x0 PUSH1 0x20 DUP3 DUP5 SUB SLT ISZERO PUSH2 0x333A JUMPI PUSH2 0x3339 PUSH2 0x2A3C JUMP JUMPDEST JUMPDEST PUSH1 0x0 PUSH2 0x3348 DUP5 DUP3 DUP6 ADD PUSH2 0x330F JUMP JUMPDEST SWAP2 POP POP SWAP3 SWAP2 POP POP JUMP JUMPDEST PUSH32 0x46756E6374696F6E206D7573742062652063616C6C6564207468726F75676820 PUSH1 0x0 DUP3 ADD MSTORE PUSH32 0x64656C656761746563616C6C0000000000000000000000000000000000000000 PUSH1 0x20 DUP3 ADD MSTORE POP JUMP JUMPDEST PUSH1 0x0 PUSH2 0x33AD PUSH1 0x2C DUP4 PUSH2 0x30F5 JUMP JUMPDEST SWAP2 POP PUSH2 0x33B8 DUP3 PUSH2 0x3351 JUMP JUMPDEST PUSH1 0x40 DUP3 ADD SWAP1 POP SWAP2 SWAP1 POP JUMP JUMPDEST PUSH1 0x0 PUSH1 0x20 DUP3 ADD SWAP1 POP DUP2 DUP2 SUB PUSH1 0x0 DUP4 ADD MSTORE PUSH2 0x33DC DUP2 PUSH2 0x33A0 JUMP JUMPDEST SWAP1 POP SWAP2 SWAP1 POP JUMP JUMPDEST PUSH32 0x46756E6374696F6E206D7573742062652063616C6C6564207468726F75676820 PUSH1 0x0 DUP3 ADD MSTORE PUSH32 0x6163746976652070726F78790000000000000000000000000000000000000000 PUSH1 0x20 DUP3 ADD MSTORE POP JUMP JUMPDEST PUSH1 0x0 PUSH2 0x343F PUSH1 0x2C DUP4 PUSH2 0x30F5 JUMP JUMPDEST SWAP2 POP PUSH2 0x344A DUP3 PUSH2 0x33E3 JUMP JUMPDEST PUSH1 0x40 DUP3 ADD SWAP1 POP SWAP2 SWAP1 POP JUMP JUMPDEST PUSH1 0x0 PUSH1 0x20 DUP3 ADD SWAP1 POP DUP2 DUP2 SUB PUSH1 0x0 DUP4 ADD MSTORE PUSH2 0x346E DUP2 PUSH2 0x3432 JUMP JUMPDEST SWAP1 POP SWAP2 SWAP1 POP JUMP JUMPDEST PUSH32 0x555550535570677261646561626C653A206D757374206E6F742062652063616C PUSH1 0x0 DUP3 ADD MSTORE PUSH32 0x6C6564207468726F7567682064656C656761746563616C6C0000000000000000 PUSH1 0x20 DUP3 ADD MSTORE POP JUMP JUMPDEST PUSH1 0x0 PUSH2 0x34D1 PUSH1 0x38 DUP4 PUSH2 0x30F5 JUMP JUMPDEST SWAP2 POP PUSH2 0x34DC DUP3 PUSH2 0x3475 JUMP JUMPDEST PUSH1 0x40 DUP3 ADD SWAP1 POP SWAP2 SWAP1 POP JUMP JUMPDEST PUSH1 0x0 PUSH1 0x20 DUP3 ADD SWAP1 POP DUP2 DUP2 SUB PUSH1 0x0 DUP4 ADD MSTORE PUSH2 0x3500 DUP2 PUSH2 0x34C4 JUMP JUMPDEST SWAP1 POP SWAP2 SWAP1 POP JUMP JUMPDEST PUSH32 0x496E697469616C697A61626C653A20636F6E747261637420697320616C726561 PUSH1 0x0 DUP3 ADD MSTORE PUSH32 0x647920696E697469616C697A6564000000000000000000000000000000000000 PUSH1 0x20 DUP3 ADD MSTORE POP JUMP JUMPDEST PUSH1 0x0 PUSH2 0x3563 PUSH1 0x2E DUP4 PUSH2 0x30F5 JUMP JUMPDEST SWAP2 POP PUSH2 0x356E DUP3 PUSH2 0x3507 JUMP JUMPDEST PUSH1 0x40 DUP3 ADD SWAP1 POP SWAP2 SWAP1 POP JUMP JUMPDEST PUSH1 0x0 PUSH1 0x20 DUP3 ADD SWAP1 POP DUP2 DUP2 SUB PUSH1 0x0 DUP4 ADD MSTORE PUSH2 0x3592 DUP2 PUSH2 0x3556 JUMP JUMPDEST SWAP1 POP SWAP2 SWAP1 POP JUMP JUMPDEST PUSH32 0x4E487B7100000000000000000000000000000000000000000000000000000000 PUSH1 0x0 MSTORE PUSH1 0x22 PUSH1 0x4 MSTORE PUSH1 0x24 PUSH1 0x0 REVERT JUMPDEST PUSH1 0x0 PUSH1 0x2 DUP3 DIV SWAP1 POP PUSH1 0x1 DUP3 AND DUP1 PUSH2 0x35E0 JUMPI PUSH1 0x7F DUP3 AND SWAP2 POP JUMPDEST PUSH1 0x20 DUP3 LT DUP2 SUB PUSH2 0x35F3 JUMPI PUSH2 0x35F2 PUSH2 0x3599 JUMP JUMPDEST JUMPDEST POP SWAP2 SWAP1 POP JUMP JUMPDEST PUSH1 0x0 DUP2 SWAP1 POP DUP2 PUSH1 0x0 MSTORE PUSH1 0x20 PUSH1 0x0 KECCAK256 SWAP1 POP SWAP2 SWAP1 POP JUMP JUMPDEST PUSH1 0x0 PUSH1 0x20 PUSH1 0x1F DUP4 ADD DIV SWAP1 POP SWAP2 SWAP1 POP JUMP JUMPDEST PUSH1 0x0 DUP3 DUP3 SHL SWAP1 POP SWAP3 SWAP2 POP POP JUMP JUMPDEST PUSH1 0x0 PUSH1 0x8 DUP4 MUL PUSH2 0x365B PUSH32 0xFFFFFFFFFFFFFFFFFFFFFFFFFFFFFFFFFFFFFFFFFFFFFFFFFFFFFFFFFFFFFFFF DUP3 PUSH2 0x361E JUMP JUMPDEST PUSH2 0x3665 DUP7 DUP4 PUSH2 0x361E JUMP JUMPDEST SWAP6 POP DUP1 NOT DUP5 AND SWAP4 POP DUP1 DUP7 AND DUP5 OR SWAP3 POP POP POP SWAP4 SWAP3 POP POP POP JUMP JUMPDEST PUSH1 0x0 PUSH2 0x3698 PUSH2 0x3693 PUSH2 0x368E DUP5 PUSH2 0x29FE JUMP JUMPDEST PUSH2 0x2B07 JUMP JUMPDEST PUSH2 0x29FE JUMP JUMPDEST SWAP1 POP SWAP2 SWAP1 POP JUMP JUMPDEST PUSH1 0x0 DUP2 SWAP1 POP SWAP2 SWAP1 POP JUMP JUMPDEST PUSH2 0x36B2 DUP4 PUSH2 0x367D JUMP JUMPDEST PUSH2 0x36C6 PUSH2 0x36BE DUP3 PUSH2 0x369F JUMP JUMPDEST DUP5 DUP5 SLOAD PUSH2 0x362B JUMP JUMPDEST DUP3 SSTORE POP POP POP POP JUMP JUMPDEST PUSH1 0x0 SWAP1 JUMP JUMPDEST PUSH2 0x36DB PUSH2 0x36CE JUMP JUMPDEST PUSH2 0x36E6 DUP2 DUP5 DUP5 PUSH2 0x36A9 JUMP JUMPDEST POP POP POP JUMP JUMPDEST JUMPDEST DUP2 DUP2 LT ISZERO PUSH2 0x370A JUMPI PUSH2 0x36FF PUSH1 0x0 DUP3 PUSH2 0x36D3 JUMP JUMPDEST PUSH1 0x1 DUP2 ADD SWAP1 POP PUSH2 0x36EC JUMP JUMPDEST POP POP JUMP JUMPDEST PUSH1 0x1F DUP3 GT ISZERO PUSH2 0x374F JUMPI PUSH2 0x3720 DUP2 PUSH2 0x35F9 JUMP JUMPDEST PUSH2 0x3729 DUP5 PUSH2 0x360E JUMP JUMPDEST DUP2 ADD PUSH1 0x20 DUP6 LT ISZERO PUSH2 0x3738 JUMPI DUP2 SWAP1 POP JUMPDEST PUSH2 0x374C PUSH2 0x3744 DUP6 PUSH2 0x360E JUMP JUMPDEST DUP4 ADD DUP3 PUSH2 0x36EB JUMP JUMPDEST POP POP JUMPDEST POP POP POP JUMP JUMPDEST PUSH1 0x0 DUP3 DUP3 SHR SWAP1 POP SWAP3 SWAP2 POP POP JUMP JUMPDEST PUSH1 0x0 PUSH2 0x3772 PUSH1 0x0 NOT DUP5 PUSH1 0x8 MUL PUSH2 0x3754 JUMP JUMPDEST NOT DUP1 DUP4 AND SWAP2 POP POP SWAP3 SWAP2 POP POP JUMP JUMPDEST PUSH1 0x0 PUSH2 0x378B DUP4 DUP4 PUSH2 0x3761 JUMP JUMPDEST SWAP2 POP DUP3 PUSH1 0x2 MUL DUP3 OR SWAP1 POP SWAP3 SWAP2 POP POP JUMP JUMPDEST PUSH2 0x37A4 DUP3 PUSH2 0x30EA JUMP JUMPDEST PUSH8 0xFFFFFFFFFFFFFFFF DUP2 GT ISZERO PUSH2 0x37BD JUMPI PUSH2 0x37BC PUSH2 0x2B9C JUMP JUMPDEST JUMPDEST PUSH2 0x37C7 DUP3 SLOAD PUSH2 0x35C8 JUMP JUMPDEST PUSH2 0x37D2 DUP3 DUP3 DUP6 PUSH2 0x370E JUMP JUMPDEST PUSH1 0x0 PUSH1 0x20 SWAP1 POP PUSH1 0x1F DUP4 GT PUSH1 0x1 DUP2 EQ PUSH2 0x3805 JUMPI PUSH1 0x0 DUP5 ISZERO PUSH2 0x37F3 JUMPI DUP3 DUP8 ADD MLOAD SWAP1 POP JUMPDEST PUSH2 0x37FD DUP6 DUP3 PUSH2 0x377F JUMP JUMPDEST DUP7 SSTORE POP PUSH2 0x3865 JUMP JUMPDEST PUSH1 0x1F NOT DUP5 AND PUSH2 0x3813 DUP7 PUSH2 0x35F9 JUMP JUMPDEST PUSH1 0x0 JUMPDEST DUP3 DUP2 LT ISZERO PUSH2 0x383B JUMPI DUP5 DUP10 ADD MLOAD DUP3 SSTORE PUSH1 0x1 DUP3 ADD SWAP2 POP PUSH1 0x20 DUP6 ADD SWAP5 POP PUSH1 0x20 DUP2 ADD SWAP1 POP PUSH2 0x3816 JUMP JUMPDEST DUP7 DUP4 LT ISZERO PUSH2 0x3858 JUMPI DUP5 DUP10 ADD MLOAD PUSH2 0x3854 PUSH1 0x1F DUP10 AND DUP3 PUSH2 0x3761 JUMP JUMPDEST DUP4 SSTORE POP JUMPDEST PUSH1 0x1 PUSH1 0x2 DUP9 MUL ADD DUP9 SSTORE POP POP POP JUMPDEST POP POP POP POP POP POP JUMP JUMPDEST PUSH1 0x0 DUP2 MLOAD SWAP1 POP PUSH2 0x387C DUP2 PUSH2 0x2A78 JUMP JUMPDEST SWAP3 SWAP2 POP POP JUMP JUMPDEST PUSH1 0x0 PUSH1 0x20 DUP3 DUP5 SUB SLT ISZERO PUSH2 0x3898 JUMPI PUSH2 0x3897 PUSH2 0x2A3C JUMP JUMPDEST JUMPDEST PUSH1 0x0 PUSH2 0x38A6 DUP5 DUP3 DUP6 ADD PUSH2 0x386D JUMP JUMPDEST SWAP2 POP POP SWAP3 SWAP2 POP POP JUMP JUMPDEST PUSH32 0x4E465420746F6B656E20496420646F6573206E6F742062656C6F6E6720746F20 PUSH1 0x0 DUP3 ADD MSTORE PUSH32 0x7468652041756374696F6E2773204F776E657200000000000000000000000000 PUSH1 0x20 DUP3 ADD MSTORE POP JUMP JUMPDEST PUSH1 0x0 PUSH2 0x390B PUSH1 0x33 DUP4 PUSH2 0x30F5 JUMP JUMPDEST SWAP2 POP PUSH2 0x3916 DUP3 PUSH2 0x38AF JUMP JUMPDEST PUSH1 0x40 DUP3 ADD SWAP1 POP SWAP2 SWAP1 POP JUMP JUMPDEST PUSH1 0x0 PUSH1 0x20 DUP3 ADD SWAP1 POP DUP2 DUP2 SUB PUSH1 0x0 DUP4 ADD MSTORE PUSH2 0x393A DUP2 PUSH2 0x38FE JUMP JUMPDEST SWAP1 POP SWAP2 SWAP1 POP JUMP JUMPDEST PUSH1 0x0 DUP2 SWAP1 POP SWAP2 SWAP1 POP JUMP JUMPDEST PUSH1 0x0 PUSH2 0x3966 PUSH2 0x3961 PUSH2 0x395C DUP5 PUSH2 0x3941 JUMP JUMPDEST PUSH2 0x2B07 JUMP JUMPDEST PUSH2 0x2EE7 JUMP JUMPDEST SWAP1 POP SWAP2 SWAP1 POP JUMP JUMPDEST PUSH2 0x3976 DUP2 PUSH2 0x394B JUMP JUMPDEST DUP3 MSTORE POP POP JUMP JUMPDEST PUSH1 0x0 PUSH1 0x20 DUP3 ADD SWAP1 POP PUSH2 0x3991 PUSH1 0x0 DUP4 ADD DUP5 PUSH2 0x396D JUMP JUMPDEST SWAP3 SWAP2 POP POP JUMP JUMPDEST PUSH32 0x42696420616D6F756E74206D7573742062652067726561746572207468616E20 PUSH1 0x0 DUP3 ADD MSTORE PUSH32 0x7A65726F00000000000000000000000000000000000000000000000000000000 PUSH1 0x20 DUP3 ADD MSTORE POP JUMP JUMPDEST PUSH1 0x0 PUSH2 0x39F3 PUSH1 0x24 DUP4 PUSH2 0x30F5 JUMP JUMPDEST SWAP2 POP PUSH2 0x39FE DUP3 PUSH2 0x3997 JUMP JUMPDEST PUSH1 0x40 DUP3 ADD SWAP1 POP SWAP2 SWAP1 POP JUMP JUMPDEST PUSH1 0x0 PUSH1 0x20 DUP3 ADD SWAP1 POP DUP2 DUP2 SUB PUSH1 0x0 DUP4 ADD MSTORE PUSH2 0x3A22 DUP2 PUSH2 0x39E6 JUMP JUMPDEST SWAP1 POP SWAP2 SWAP1 POP JUMP JUMPDEST PUSH32 0x41756374696F6E2068617320616C726561647920656E64656400000000000000 PUSH1 0x0 DUP3 ADD MSTORE POP JUMP JUMPDEST PUSH1 0x0 PUSH2 0x3A5F PUSH1 0x19 DUP4 PUSH2 0x30F5 JUMP JUMPDEST SWAP2 POP PUSH2 0x3A6A DUP3 PUSH2 0x3A29 JUMP JUMPDEST PUSH1 0x20 DUP3 ADD SWAP1 POP SWAP2 SWAP1 POP JUMP JUMPDEST PUSH1 0x0 PUSH1 0x20 DUP3 ADD SWAP1 POP DUP2 DUP2 SUB PUSH1 0x0 DUP4 ADD MSTORE PUSH2 0x3A8E DUP2 PUSH2 0x3A52 JUMP JUMPDEST SWAP1 POP SWAP2 SWAP1 POP JUMP JUMPDEST PUSH1 0x0 PUSH1 0x60 DUP3 ADD SWAP1 POP PUSH2 0x3AAA PUSH1 0x0 DUP4 ADD DUP7 PUSH2 0x3093 JUMP JUMPDEST PUSH2 0x3AB7 PUSH1 0x20 DUP4 ADD DUP6 PUSH2 0x3093 JUMP JUMPDEST PUSH2 0x3AC4 PUSH1 0x40 DUP4 ADD DUP5 PUSH2 0x2A08 JUMP JUMPDEST SWAP5 SWAP4 POP POP POP POP JUMP JUMPDEST PUSH32 0x4E487B7100000000000000000000000000000000000000000000000000000000 PUSH1 0x0 MSTORE PUSH1 0x11 PUSH1 0x4 MSTORE PUSH1 0x24 PUSH1 0x0 REVERT JUMPDEST PUSH1 0x0 PUSH2 0x3B06 DUP3 PUSH2 0x29FE JUMP JUMPDEST SWAP2 POP PUSH2 0x3B11 DUP4 PUSH2 0x29FE JUMP JUMPDEST SWAP3 POP DUP3 DUP3 ADD SWAP1 POP DUP1 DUP3 GT ISZERO PUSH2 0x3B29 JUMPI PUSH2 0x3B28 PUSH2 0x3ACC JUMP JUMPDEST JUMPDEST SWAP3 SWAP2 POP POP JUMP JUMPDEST PUSH32 0x4F776E61626C653A206E6577206F776E657220697320746865207A65726F2061 PUSH1 0x0 DUP3 ADD MSTORE PUSH32 0x6464726573730000000000000000000000000000000000000000000000000000 PUSH1 0x20 DUP3 ADD MSTORE POP JUMP JUMPDEST PUSH1 0x0 PUSH2 0x3B8B PUSH1 0x26 DUP4 PUSH2 0x30F5 JUMP JUMPDEST SWAP2 POP PUSH2 0x3B96 DUP3 PUSH2 0x3B2F JUMP JUMPDEST PUSH1 0x40 DUP3 ADD SWAP1 POP SWAP2 SWAP1 POP JUMP JUMPDEST PUSH1 0x0 PUSH1 0x20 DUP3 ADD SWAP1 POP DUP2 DUP2 SUB PUSH1 0x0 DUP4 ADD MSTORE PUSH2 0x3BBA DUP2 PUSH2 0x3B7E JUMP JUMPDEST SWAP1 POP SWAP2 SWAP1 POP JUMP JUMPDEST PUSH1 0x0 DUP2 SWAP1 POP SWAP2 SWAP1 POP JUMP JUMPDEST PUSH1 0x0 PUSH2 0x3BE6 PUSH2 0x3BE1 PUSH2 0x3BDC DUP5 PUSH2 0x3BC1 JUMP JUMPDEST PUSH2 0x2B07 JUMP JUMPDEST PUSH2 0x29FE JUMP JUMPDEST SWAP1 POP SWAP2 SWAP1 POP JUMP JUMPDEST PUSH2 0x3BF6 DUP2 PUSH2 0x3BCB JUMP JUMPDEST DUP3 MSTORE POP POP JUMP JUMPDEST PUSH1 0x0 PUSH1 0x20 DUP3 ADD SWAP1 POP PUSH2 0x3C11 PUSH1 0x0 DUP4 ADD DUP5 PUSH2 0x3BED JUMP JUMPDEST SWAP3 SWAP2 POP POP JUMP JUMPDEST PUSH1 0x0 DUP2 MLOAD SWAP1 POP PUSH2 0x3C26 DUP2 PUSH2 0x2F20 JUMP JUMPDEST SWAP3 SWAP2 POP POP JUMP JUMPDEST PUSH1 0x0 PUSH1 0x20 DUP3 DUP5 SUB SLT ISZERO PUSH2 0x3C42 JUMPI PUSH2 0x3C41 PUSH2 0x2A3C JUMP JUMPDEST JUMPDEST PUSH1 0x0 PUSH2 0x3C50 DUP5 DUP3 DUP6 ADD PUSH2 0x3C17 JUMP JUMPDEST SWAP2 POP POP SWAP3 SWAP2 POP POP JUMP JUMPDEST PUSH32 0x45524331393637557067726164653A206E657720696D706C656D656E74617469 PUSH1 0x0 DUP3 ADD MSTORE PUSH32 0x6F6E206973206E6F742055555053000000000000000000000000000000000000 PUSH1 0x20 DUP3 ADD MSTORE POP JUMP JUMPDEST PUSH1 0x0 PUSH2 0x3CB5 PUSH1 0x2E DUP4 PUSH2 0x30F5 JUMP JUMPDEST SWAP2 POP PUSH2 0x3CC0 DUP3 PUSH2 0x3C59 JUMP JUMPDEST PUSH1 0x40 DUP3 ADD SWAP1 POP SWAP2 SWAP1 POP JUMP JUMPDEST PUSH1 0x0 PUSH1 0x20 DUP3 ADD SWAP1 POP DUP2 DUP2 SUB PUSH1 0x0 DUP4 ADD MSTORE PUSH2 0x3CE4 DUP2 PUSH2 0x3CA8 JUMP JUMPDEST SWAP1 POP SWAP2 SWAP1 POP JUMP JUMPDEST PUSH32 0x45524331393637557067726164653A20756E737570706F727465642070726F78 PUSH1 0x0 DUP3 ADD MSTORE PUSH32 0x6961626C65555549440000000000000000000000000000000000000000000000 PUSH1 0x20 DUP3 ADD MSTORE POP JUMP JUMPDEST PUSH1 0x0 PUSH2 0x3D47 PUSH1 0x29 DUP4 PUSH2 0x30F5 JUMP JUMPDEST SWAP2 POP PUSH2 0x3D52 DUP3 PUSH2 0x3CEB JUMP JUMPDEST PUSH1 0x40 DUP3 ADD SWAP1 POP SWAP2 SWAP1 POP JUMP JUMPDEST PUSH1 0x0 PUSH1 0x20 DUP3 ADD SWAP1 POP DUP2 DUP2 SUB PUSH1 0x0 DUP4 ADD MSTORE PUSH2 0x3D76 DUP2 PUSH2 0x3D3A JUMP JUMPDEST SWAP1 POP SWAP2 SWAP1 POP JUMP JUMPDEST PUSH32 0x4F776E61626C653A2063616C6C6572206973206E6F7420746865206F776E6572 PUSH1 0x0 DUP3 ADD MSTORE POP JUMP JUMPDEST PUSH1 0x0 PUSH2 0x3DB3 PUSH1 0x20 DUP4 PUSH2 0x30F5 JUMP JUMPDEST SWAP2 POP PUSH2 0x3DBE DUP3 PUSH2 0x3D7D JUMP JUMPDEST PUSH1 0x20 DUP3 ADD SWAP1 POP SWAP2 SWAP1 POP JUMP JUMPDEST PUSH1 0x0 PUSH1 0x20 DUP3 ADD SWAP1 POP DUP2 DUP2 SUB PUSH1 0x0 DUP4 ADD MSTORE PUSH2 0x3DE2 DUP2 PUSH2 0x3DA6 JUMP JUMPDEST SWAP1 POP SWAP2 SWAP1 POP JUMP JUMPDEST PUSH32 0x496E697469616C697A61626C653A20636F6E7472616374206973206E6F742069 PUSH1 0x0 DUP3 ADD MSTORE PUSH32 0x6E697469616C697A696E67000000000000000000000000000000000000000000 PUSH1 0x20 DUP3 ADD MSTORE POP JUMP JUMPDEST PUSH1 0x0 PUSH2 0x3E45 PUSH1 0x2B DUP4 PUSH2 0x30F5 JUMP JUMPDEST SWAP2 POP PUSH2 0x3E50 DUP3 PUSH2 0x3DE9 JUMP JUMPDEST PUSH1 0x40 DUP3 ADD SWAP1 POP SWAP2 SWAP1 POP JUMP JUMPDEST PUSH1 0x0 PUSH1 0x20 DUP3 ADD SWAP1 POP DUP2 DUP2 SUB PUSH1 0x0 DUP4 ADD MSTORE PUSH2 0x3E74 DUP2 PUSH2 0x3E38 JUMP JUMPDEST SWAP1 POP SWAP2 SWAP1 POP JUMP JUMPDEST PUSH1 0x0 PUSH2 0x3E86 DUP3 PUSH2 0x29FE JUMP JUMPDEST SWAP2 POP PUSH2 0x3E91 DUP4 PUSH2 0x29FE JUMP JUMPDEST SWAP3 POP DUP3 DUP3 MUL PUSH2 0x3E9F DUP2 PUSH2 0x29FE JUMP JUMPDEST SWAP2 POP DUP3 DUP3 DIV DUP5 EQ DUP4 ISZERO OR PUSH2 0x3EB6 JUMPI PUSH2 0x3EB5 PUSH2 0x3ACC JUMP JUMPDEST JUMPDEST POP SWAP3 SWAP2 POP POP JUMP JUMPDEST PUSH1 0x0 DUP2 PUSH1 0x60 SHL SWAP1 POP SWAP2 SWAP1 POP JUMP JUMPDEST PUSH1 0x0 PUSH2 0x3ED5 DUP3 PUSH2 0x3EBD JUMP JUMPDEST SWAP1 POP SWAP2 SWAP1 POP JUMP JUMPDEST PUSH1 0x0 PUSH2 0x3EE7 DUP3 PUSH2 0x3ECA JUMP JUMPDEST SWAP1 POP SWAP2 SWAP1 POP JUMP JUMPDEST PUSH2 0x3EFF PUSH2 0x3EFA DUP3 PUSH2 0x2A66 JUMP JUMPDEST PUSH2 0x3EDC JUMP JUMPDEST DUP3 MSTORE POP POP JUMP JUMPDEST PUSH1 0x0 DUP2 SWAP1 POP SWAP2 SWAP1 POP JUMP JUMPDEST PUSH2 0x3F20 PUSH2 0x3F1B DUP3 PUSH2 0x29FE JUMP JUMPDEST PUSH2 0x3F05 JUMP JUMPDEST DUP3 MSTORE POP POP JUMP JUMPDEST PUSH1 0x0 PUSH2 0x3F32 DUP3 DUP10 PUSH2 0x3EEE JUMP JUMPDEST PUSH1 0x14 DUP3 ADD SWAP2 POP PUSH2 0x3F42 DUP3 DUP9 PUSH2 0x3EEE JUMP JUMPDEST PUSH1 0x14 DUP3 ADD SWAP2 POP PUSH2 0x3F52 DUP3 DUP8 PUSH2 0x3F0F JUMP JUMPDEST PUSH1 0x20 DUP3 ADD SWAP2 POP PUSH2 0x3F62 DUP3 DUP7 PUSH2 0x3F0F JUMP JUMPDEST PUSH1 0x20 DUP3 ADD SWAP2 POP PUSH2 0x3F72 DUP3 DUP6 PUSH2 0x3F0F JUMP JUMPDEST PUSH1 0x20 DUP3 ADD SWAP2 POP PUSH2 0x3F82 DUP3 DUP5 PUSH2 0x3EEE JUMP JUMPDEST PUSH1 0x14 DUP3 ADD SWAP2 POP DUP2 SWAP1 POP SWAP8 SWAP7 POP POP POP POP POP POP POP JUMP JUMPDEST PUSH32 0x455243313936373A206E657720696D706C656D656E746174696F6E206973206E PUSH1 0x0 DUP3 ADD MSTORE PUSH32 0x6F74206120636F6E747261637400000000000000000000000000000000000000 PUSH1 0x20 DUP3 ADD MSTORE POP JUMP JUMPDEST PUSH1 0x0 PUSH2 0x3FF2 PUSH1 0x2D DUP4 PUSH2 0x30F5 JUMP JUMPDEST SWAP2 POP PUSH2 0x3FFD DUP3 PUSH2 0x3F96 JUMP JUMPDEST PUSH1 0x40 DUP3 ADD SWAP1 POP SWAP2 SWAP1 POP JUMP JUMPDEST PUSH1 0x0 PUSH1 0x20 DUP3 ADD SWAP1 POP DUP2 DUP2 SUB PUSH1 0x0 DUP4 ADD MSTORE PUSH2 0x4021 DUP2 PUSH2 0x3FE5 JUMP JUMPDEST SWAP1 POP SWAP2 SWAP1 POP JUMP JUMPDEST PUSH1 0x0 DUP2 MLOAD SWAP1 POP SWAP2 SWAP1 POP JUMP JUMPDEST PUSH1 0x0 DUP2 SWAP1 POP SWAP3 SWAP2 POP POP JUMP JUMPDEST PUSH1 0x0 PUSH2 0x4049 DUP3 PUSH2 0x4028 JUMP JUMPDEST PUSH2 0x4053 DUP2 DUP6 PUSH2 0x4033 JUMP JUMPDEST SWAP4 POP PUSH2 0x4063 DUP2 DUP6 PUSH1 0x20 DUP7 ADD PUSH2 0x3106 JUMP JUMPDEST DUP1 DUP5 ADD SWAP2 POP POP SWAP3 SWAP2 POP POP JUMP JUMPDEST PUSH1 0x0 PUSH2 0x407B DUP3 DUP5 PUSH2 0x403E JUMP JUMPDEST SWAP2 POP DUP2 SWAP1 POP SWAP3 SWAP2 POP POP JUMP JUMPDEST PUSH32 0x416464726573733A2063616C6C20746F206E6F6E2D636F6E7472616374000000 PUSH1 0x0 DUP3 ADD MSTORE POP JUMP JUMPDEST PUSH1 0x0 PUSH2 0x40BC PUSH1 0x1D DUP4 PUSH2 0x30F5 JUMP JUMPDEST SWAP2 POP PUSH2 0x40C7 DUP3 PUSH2 0x4086 JUMP JUMPDEST PUSH1 0x20 DUP3 ADD SWAP1 POP SWAP2 SWAP1 POP JUMP JUMPDEST PUSH1 0x0 PUSH1 0x20 DUP3 ADD SWAP1 POP DUP2 DUP2 SUB PUSH1 0x0 DUP4 ADD MSTORE PUSH2 0x40EB DUP2 PUSH2 0x40AF JUMP JUMPDEST SWAP1 POP SWAP2 SWAP1 POP JUMP INVALID COINBASE PUSH5 0x6472657373 GASPRICE KECCAK256 PUSH13 0x6F772D6C6576656C2064656C65 PUSH8 0x6174652063616C6C KECCAK256 PUSH7 0x61696C6564A264 PUSH10 0x70667358221220015D4A 0x2F 0xCA 0xE5 TIMESTAMP DELEGATECALL PUSH22 0xFB7B5129CE195993940ABAE6A7DC0F2DA5E41170184E ORIGIN PUSH5 0x736F6C6343 STOP ADDMOD SLT STOP CALLER "},"methodIdentifiers":{"auctionEnded()":"86433374","auctionStartTime()":"eb54f9ec","bids(address)":"62ea82db","endAuction()":"fe67a54b","erc20Token()":"8a13eea7","erc721TokenAddress()":"df241cb9","getMessage()":"ce6d41de","highestBid()":"d57bde79","highestBidder()":"91f90157","initialPrice()":"1d0806ae","initialize(string,address,address,uint256,uint256,uint256,uint256)":"74fe2916","itemSold()":"438e897a","nft()":"47ccca02","nftTokenId()":"7e830574","numBlocksAuctionOpen()":"3103ea62","offerPriceDecrement()":"d3642a88","owner()":"8da5cb5b","placeBid(uint256)":"9979ef45","proxiableUUID()":"52d1902d","refundBidders(address)":"2bf0d538","renounceOwnership()":"715018a6","reservePrice()":"db2e1eed","submitBidWithPermit(uint256,(address,address,uint256,uint256,uint256,uint8,bytes32,bytes32))":"84b8b925","transferOwnership(address)":"f2fde38b","upgradeNumber()":"eb8bf84d","upgradeTo(address)":"3659cfe6","upgradeToAndCall(address,bytes)":"4f1ef286"}},"storageLayout":{"storage":[{"astId":503,"contract":"contracts/NFTDutchAuction_ERC20Bids.sol:NFTDutchAuction_ERC20Bids","label":"_initialized","offset":0,"slot":"0","type":"t_uint8"},{"astId":506,"contract":"contracts/NFTDutchAuction_ERC20Bids.sol:NFTDutchAuction_ERC20Bids","label":"_initializing","offset":1,"slot":"0","type":"t_bool"},{"astId":1172,"contract":"contracts/NFTDutchAuction_ERC20Bids.sol:NFTDutchAuction_ERC20Bids","label":"__gap","offset":0,"slot":"1","type":"t_array(t_uint256)50_storage"},{"astId":10,"contract":"contracts/NFTDutchAuction_ERC20Bids.sol:NFTDutchAuction_ERC20Bids","label":"_owner","offset":0,"slot":"51","type":"t_address"},{"astId":130,"contract":"contracts/NFTDutchAuction_ERC20Bids.sol:NFTDutchAuction_ERC20Bids","label":"__gap","offset":0,"slot":"52","type":"t_array(t_uint256)49_storage"},{"astId":485,"contract":"contracts/NFTDutchAuction_ERC20Bids.sol:NFTDutchAuction_ERC20Bids","label":"__gap","offset":0,"slot":"101","type":"t_array(t_uint256)50_storage"},{"astId":800,"contract":"contracts/NFTDutchAuction_ERC20Bids.sol:NFTDutchAuction_ERC20Bids","label":"__gap","offset":0,"slot":"151","type":"t_array(t_uint256)50_storage"},{"astId":2239,"contract":"contracts/NFTDutchAuction_ERC20Bids.sol:NFTDutchAuction_ERC20Bids","label":"erc20Token","offset":0,"slot":"201","type":"t_contract(IERC20)1361"},{"astId":2242,"contract":"contracts/NFTDutchAuction_ERC20Bids.sol:NFTDutchAuction_ERC20Bids","label":"nft","offset":0,"slot":"202","type":"t_contract(IERC721)1477"},{"astId":2244,"contract":"contracts/NFTDutchAuction_ERC20Bids.sol:NFTDutchAuction_ERC20Bids","label":"erc721TokenAddress","offset":0,"slot":"203","type":"t_address"},{"astId":2246,"contract":"contracts/NFTDutchAuction_ERC20Bids.sol:NFTDutchAuction_ERC20Bids","label":"nftTokenId","offset":0,"slot":"204","type":"t_uint256"},{"astId":2248,"contract":"contracts/NFTDutchAuction_ERC20Bids.sol:NFTDutchAuction_ERC20Bids","label":"reservePrice","offset":0,"slot":"205","type":"t_uint256"},{"astId":2250,"contract":"contracts/NFTDutchAuction_ERC20Bids.sol:NFTDutchAuction_ERC20Bids","label":"numBlocksAuctionOpen","offset":0,"slot":"206","type":"t_uint256"},{"astId":2252,"contract":"contracts/NFTDutchAuction_ERC20Bids.sol:NFTDutchAuction_ERC20Bids","label":"offerPriceDecrement","offset":0,"slot":"207","type":"t_uint256"},{"astId":2254,"contract":"contracts/NFTDutchAuction_ERC20Bids.sol:NFTDutchAuction_ERC20Bids","label":"initialPrice","offset":0,"slot":"208","type":"t_uint256"},{"astId":2256,"contract":"contracts/NFTDutchAuction_ERC20Bids.sol:NFTDutchAuction_ERC20Bids","label":"auctionEnded","offset":0,"slot":"209","type":"t_bool"},{"astId":2258,"contract":"contracts/NFTDutchAuction_ERC20Bids.sol:NFTDutchAuction_ERC20Bids","label":"itemSold","offset":1,"slot":"209","type":"t_bool"},{"astId":2262,"contract":"contracts/NFTDutchAuction_ERC20Bids.sol:NFTDutchAuction_ERC20Bids","label":"bids","offset":0,"slot":"210","type":"t_mapping(t_address,t_uint256)"},{"astId":2264,"contract":"contracts/NFTDutchAuction_ERC20Bids.sol:NFTDutchAuction_ERC20Bids","label":"highestBidder","offset":0,"slot":"211","type":"t_address"},{"astId":2266,"contract":"contracts/NFTDutchAuction_ERC20Bids.sol:NFTDutchAuction_ERC20Bids","label":"highestBid","offset":0,"slot":"212","type":"t_uint256"},{"astId":2268,"contract":"contracts/NFTDutchAuction_ERC20Bids.sol:NFTDutchAuction_ERC20Bids","label":"auctionStartTime","offset":0,"slot":"213","type":"t_uint256"},{"astId":2270,"contract":"contracts/NFTDutchAuction_ERC20Bids.sol:NFTDutchAuction_ERC20Bids","label":"upgradeNumber","offset":0,"slot":"214","type":"t_string_storage"}],"types":{"t_address":{"encoding":"inplace","label":"address","numberOfBytes":"20"},"t_array(t_uint256)49_storage":{"base":"t_uint256","encoding":"inplace","label":"uint256[49]","numberOfBytes":"1568"},"t_array(t_uint256)50_storage":{"base":"t_uint256","encoding":"inplace","label":"uint256[50]","numberOfBytes":"1600"},"t_bool":{"encoding":"inplace","label":"bool","numberOfBytes":"1"},"t_contract(IERC20)1361":{"encoding":"inplace","label":"contract IERC20","numberOfBytes":"20"},"t_contract(IERC721)1477":{"encoding":"inplace","label":"contract IERC721","numberOfBytes":"20"},"t_mapping(t_address,t_uint256)":{"encoding":"mapping","key":"t_address","label":"mapping(address => uint256)","numberOfBytes":"32","value":"t_uint256"},"t_string_storage":{"encoding":"bytes","label":"string","numberOfBytes":"32"},"t_uint256":{"encoding":"inplace","label":"uint256","numberOfBytes":"32"},"t_uint8":{"encoding":"inplace","label":"uint8","numberOfBytes":"1"}}}}}}