{"contracts/BasicDutchAuction.sol":{"BasicDutchAuction":{"abi":[{"inputs":[{"internalType":"uint256","name":"_reservePrice","type":"uint256"},{"internalType":"uint256","name":"_numBlocksAuctionOpen","type":"uint256"},{"internalType":"uint256","name":"_offerPriceDecrement","type":"uint256"}],"stateMutability":"nonpayable","type":"constructor"},{"anonymous":false,"inputs":[{"indexed":false,"internalType":"address","name":"winner","type":"address"},{"indexed":false,"internalType":"uint256","name":"amount","type":"uint256"}],"name":"AuctionEnded","type":"event"},{"anonymous":false,"inputs":[{"indexed":false,"internalType":"address","name":"bidder","type":"address"},{"indexed":false,"internalType":"uint256","name":"amount","type":"uint256"}],"name":"BidPlaced","type":"event"},{"anonymous":false,"inputs":[{"indexed":false,"internalType":"address","name":"bidder","type":"address"},{"indexed":false,"internalType":"uint256","name":"amount","type":"uint256"}],"name":"BidRefunded","type":"event"},{"inputs":[],"name":"auctionEnded","outputs":[{"internalType":"bool","name":"","type":"bool"}],"stateMutability":"view","type":"function"},{"inputs":[{"internalType":"address","name":"","type":"address"}],"name":"bids","outputs":[{"internalType":"uint256","name":"","type":"uint256"}],"stateMutability":"view","type":"function"},{"inputs":[],"name":"endAuction","outputs":[],"stateMutability":"nonpayable","type":"function"},{"inputs":[],"name":"endBlock","outputs":[{"internalType":"uint256","name":"","type":"uint256"}],"stateMutability":"view","type":"function"},{"inputs":[],"name":"getCurrentPrice","outputs":[{"internalType":"uint256","name":"","type":"uint256"}],"stateMutability":"view","type":"function"},{"inputs":[],"name":"highestBid","outputs":[{"internalType":"uint256","name":"","type":"uint256"}],"stateMutability":"view","type":"function"},{"inputs":[],"name":"highestBidder","outputs":[{"internalType":"address","name":"","type":"address"}],"stateMutability":"view","type":"function"},{"inputs":[],"name":"initialPrice","outputs":[{"internalType":"uint256","name":"","type":"uint256"}],"stateMutability":"view","type":"function"},{"inputs":[],"name":"itemSold","outputs":[{"internalType":"bool","name":"","type":"bool"}],"stateMutability":"view","type":"function"},{"inputs":[],"name":"numBlocksAuctionOpen","outputs":[{"internalType":"uint256","name":"","type":"uint256"}],"stateMutability":"view","type":"function"},{"inputs":[],"name":"offerPriceDecrement","outputs":[{"internalType":"uint256","name":"","type":"uint256"}],"stateMutability":"view","type":"function"},{"inputs":[],"name":"placeBid","outputs":[],"stateMutability":"payable","type":"function"},{"inputs":[{"internalType":"address","name":"bidder","type":"address"}],"name":"refundBid","outputs":[],"stateMutability":"nonpayable","type":"function"},{"inputs":[],"name":"reservePrice","outputs":[{"internalType":"uint256","name":"","type":"uint256"}],"stateMutability":"view","type":"function"},{"inputs":[],"name":"seller","outputs":[{"internalType":"address payable","name":"","type":"address"}],"stateMutability":"view","type":"function"},{"inputs":[],"name":"startBlock","outputs":[{"internalType":"uint256","name":"","type":"uint256"}],"stateMutability":"view","type":"function"}],"evm":{"bytecode":{"linkReferences":{},"object":"60806040523480156200001157600080fd5b50604051620018b1380380620018b183398181016040528101906200003791906200026c565b62000053679ecf77ef45e051fa60c01b6200022960201b60201c565b6200006f67541086f66254cf6b60c01b6200022960201b60201c565b336000806101000a81548173ffffffffffffffffffffffffffffffffffffffff021916908373ffffffffffffffffffffffffffffffffffffffff160217905550620000cb677988138203a203d460c01b6200022960201b60201c565b82600181905550620000ee6747c32dbb5f7bcb8760c01b6200022960201b60201c565b8160028190555062000111679b8fc91ad512b71b60c01b6200022960201b60201c565b80600381905550620001346742bad443be56256160c01b6200022960201b60201c565b600354600254620001469190620002f7565b60015462000155919062000342565b60048190555062000177671e3e49b32795a93460c01b6200022960201b60201c565b436005819055506200019a67dd7f3f403518552260c01b6200022960201b60201c565b600254600554620001ac919062000342565b600681905550620001ce673b439dfa08c65bdd60c01b6200022960201b60201c565b6000600760006101000a81548160ff021916908315150217905550620002056789c013c4432b1fc660c01b6200022960201b60201c565b6000600760016101000a81548160ff0219169083151502179055505050506200037d565b50565b600080fd5b6000819050919050565b620002468162000231565b81146200025257600080fd5b50565b60008151905062000266816200023b565b92915050565b6000806000606084860312156200028857620002876200022c565b5b6000620002988682870162000255565b9350506020620002ab8682870162000255565b9250506040620002be8682870162000255565b9150509250925092565b7f4e487b7100000000000000000000000000000000000000000000000000000000600052601160045260246000fd5b6000620003048262000231565b9150620003118362000231565b9250828202620003218162000231565b915082820484148315176200033b576200033a620002c8565b5b5092915050565b60006200034f8262000231565b91506200035c8362000231565b9250828201905080821115620003775762000376620002c8565b5b92915050565b611524806200038d6000396000f3fe6080604052600436106100f35760003560e01c8063864333741161008a578063db2e1eed11610059578063db2e1eed1461030c578063eb91d37e14610337578063ecfc7ecc14610362578063fe67a54b1461036c576100f3565b8063864333741461026057806391f901571461028b578063d3642a88146102b6578063d57bde79146102e1576100f3565b8063385e3155116100c6578063385e3155146101a4578063438e897a146101cd57806348cd4cb1146101f857806362ea82db14610223576100f3565b8063083c6323146100f857806308551a53146101235780631d0806ae1461014e5780633103ea6214610179575b600080fd5b34801561010457600080fd5b5061010d610383565b60405161011a919061102a565b60405180910390f35b34801561012f57600080fd5b50610138610389565b6040516101459190611086565b60405180910390f35b34801561015a57600080fd5b506101636103ad565b604051610170919061102a565b60405180910390f35b34801561018557600080fd5b5061018e6103b3565b60405161019b919061102a565b60405180910390f35b3480156101b057600080fd5b506101cb60048036038101906101c691906110e4565b6103b9565b005b3480156101d957600080fd5b506101e2610638565b6040516101ef919061112c565b60405180910390f35b34801561020457600080fd5b5061020d61064b565b60405161021a919061102a565b60405180910390f35b34801561022f57600080fd5b5061024a600480360381019061024591906110e4565b610651565b604051610257919061102a565b60405180910390f35b34801561026c57600080fd5b50610275610669565b604051610282919061112c565b60405180910390f35b34801561029757600080fd5b506102a061067c565b6040516102ad9190611156565b60405180910390f35b3480156102c257600080fd5b506102cb6106a2565b6040516102d8919061102a565b60405180910390f35b3480156102ed57600080fd5b506102f66106a8565b604051610303919061102a565b60405180910390f35b34801561031857600080fd5b506103216106ae565b60405161032e919061102a565b60405180910390f35b34801561034357600080fd5b5061034c6106b4565b604051610359919061102a565b60405180910390f35b61036a6107a9565b005b34801561037857600080fd5b50610381610c5b565b005b60065481565b60008054906101000a900473ffffffffffffffffffffffffffffffffffffffff1681565b60045481565b60025481565b6103cd672381f3c503f73ef860c01b61100e565b6103e1674f2005a200d7017a60c01b61100e565b6103f567acb04d6a318aa8b060c01b61100e565b610409670c9371959835a90f60c01b61100e565b6000600960008373ffffffffffffffffffffffffffffffffffffffff1673ffffffffffffffffffffffffffffffffffffffff168152602001908152602001600020541161048b576040517f08c379a0000000000000000000000000000000000000000000000000000000008152600401610482906111ce565b60405180910390fd5b61049f671037a584abc8565e60c01b61100e565b6104b367129d4e9775b0f17b60c01b61100e565b6104c7677d4f62876619d30560c01b61100e565b6000600960008373ffffffffffffffffffffffffffffffffffffffff1673ffffffffffffffffffffffffffffffffffffffff16815260200190815260200160002054905061051f67594b021d733c89ed60c01b61100e565b6000600960008473ffffffffffffffffffffffffffffffffffffffff1673ffffffffffffffffffffffffffffffffffffffff16815260200190815260200160002081905550610578670cff95c941c77f1760c01b61100e565b61058c67e9fe44ec8d3ea45060c01b61100e565b7f8377883650d2137d6e6d67bcf2dbb9b1dab287d68240a17ff910b9fb7a0ad5ff82826040516105bd9291906111ee565b60405180910390a16105d96774a2cd02338276a160c01b61100e565b6105ed67e07458b025674e8260c01b61100e565b8173ffffffffffffffffffffffffffffffffffffffff166108fc829081150290604051600060405180830381858888f19350505050158015610633573d6000803e3d6000fd5b505050565b600760019054906101000a900460ff1681565b60055481565b60096020528060005260406000206000915090505481565b600760009054906101000a900460ff1681565b600760029054906101000a900473ffffffffffffffffffffffffffffffffffffffff1681565b60035481565b60085481565b60015481565b60006106ca679f6a055a7600dfbe60c01b61100e565b6106de67aa6405110b2d674d60c01b61100e565b6106f267fe9867265030129d60c01b61100e565b600043905061070b675b0354a16a3d5ba360c01b61100e565b61071f67612c3c0cdcadd24060c01b61100e565b60006005548261072f9190611246565b905061074567a54b0a0ee7a57b7e60c01b61100e565b610759672fbbcf8e6de3210860c01b61100e565b600060035482610769919061127a565b905061077f67525a936899bdd4c460c01b61100e565b61079367e5e195f70f51bc3660c01b61100e565b806004546107a19190611246565b935050505090565b6107bd67589b88c3a307bfb060c01b61100e565b6107d167b94d09f82757170460c01b61100e565b6107e567c012ea453c8a348c60c01b61100e565b6107f9677f9c75b741c9104b60c01b61100e565b600760009054906101000a900460ff1615610849576040517f08c379a000000000000000000000000000000000000000000000000000000000815260040161084090611308565b60405180910390fd5b61085d674f328a7cb02fc04260c01b61100e565b610871678e32270f688a874460c01b61100e565b61088567a2d5795bcf89a31f60c01b61100e565b610899677381e7c1b57545c660c01b61100e565b600034116108dc576040517f08c379a00000000000000000000000000000000000000000000000000000000081526004016108d39061139a565b60405180910390fd5b6108f067cacdd0a7a7ca07a360c01b61100e565b61090467e3ed9652e55bc65660c01b61100e565b61091867f50b2bdec741f3b460c01b61100e565b60006109226106b4565b9050610938679ccd500ce6a560cc60c01b61100e565b61094c679c4b637fd3deee6c60c01b61100e565b61096067740320d28efab25c60c01b61100e565b6008543410156109a5576040517f08c379a000000000000000000000000000000000000000000000000000000000815260040161099c9061142c565b60405180910390fd5b6109b967ced4c8d77884089e60c01b61100e565b6109cd6755b34c0cbd4284d960c01b61100e565b6109e167bf819b56b358d33c60c01b61100e565b600060085414610ae4576109ff67d75ec822d27f496a60c01b61100e565b610a136775a460fbbc5bb71a60c01b61100e565b60085460096000600760029054906101000a900473ffffffffffffffffffffffffffffffffffffffff1673ffffffffffffffffffffffffffffffffffffffff1673ffffffffffffffffffffffffffffffffffffffff1681526020019081526020016000206000828254610a86919061144c565b92505081905550610aa167addff4c0cd4faf6960c01b61100e565b610ab4667bb90f98c52ab560c01b61100e565b610adf600760029054906101000a900473ffffffffffffffffffffffffffffffffffffffff166103b9565b610af8565b610af766b9ebde539d237460c01b61100e565b5b610b0c67e3ff398fd20c18ba60c01b61100e565b33600760026101000a81548173ffffffffffffffffffffffffffffffffffffffff021916908373ffffffffffffffffffffffffffffffffffffffff160217905550610b6167a89cac36d3b5db2460c01b61100e565b34600881905550610b7c6701237f4f7cb67c6360c01b61100e565b610b906709a2bfa74441d4bc60c01b61100e565b7f3fabff0a9c3ecd6814702e247fa9733e5d0aa69e3a38590f92cb18f623a2254d3334604051610bc19291906111ee565b60405180910390a1610bdd6777cbda5c368470bc60c01b61100e565b610bf1673fef2d11cc40d22760c01b61100e565b8060085410610c4357610c0e67c6dffc93fac8da2760c01b61100e565b610c22677ebaa3f59b3661cf60c01b61100e565b610c3667cfa5a6f9cf87cd2860c01b61100e565b610c3e610c5b565b610c58565b610c576734e89a4254527b3f60c01b61100e565b5b50565b610c6f67d72b54e15e984a7960c01b61100e565b610c8367d349da641551c4ea60c01b61100e565b610c976707b9bf824048a13260c01b61100e565b610cab67f2961d28eb49e17b60c01b61100e565b600760009054906101000a900460ff1615610cfb576040517f08c379a0000000000000000000000000000000000000000000000000000000008152600401610cf290611308565b60405180910390fd5b610d0f67f68a7f8eb12a49a860c01b61100e565b610d2367dcdc4bbdb6ba218a60c01b61100e565b6001600760006101000a81548160ff021916908315150217905550610d5267b079d9a52c2d992860c01b61100e565b6001600760016101000a81548160ff021916908315150217905550610d81676e5bf50c0c0c59af60c01b61100e565b610d95674bf8a71c6be3405b60c01b61100e565b600073ffffffffffffffffffffffffffffffffffffffff16600760029054906101000a900473ffffffffffffffffffffffffffffffffffffffff1673ffffffffffffffffffffffffffffffffffffffff1614610f9557610dff67bdb801f9fa5358bb60c01b61100e565b610e136755a0df1823814c8360c01b61100e565b600060096000600760029054906101000a900473ffffffffffffffffffffffffffffffffffffffff1673ffffffffffffffffffffffffffffffffffffffff1673ffffffffffffffffffffffffffffffffffffffff16815260200190815260200160002081905550610e8e672e14ab075529add760c01b61100e565b610ea2675687de1eb30fe93a60c01b61100e565b60008054906101000a900473ffffffffffffffffffffffffffffffffffffffff1673ffffffffffffffffffffffffffffffffffffffff166108fc6008549081150290604051600060405180830381858888f19350505050158015610f0a573d6000803e3d6000fd5b50610f1f67030dbfce50e6bb2360c01b61100e565b610f3367092925387c22a78660c01b61100e565b7fdaec4582d5d9595688c8c98545fdd1c696d41c6aeaeb636737e84ed2f5c00eda600760029054906101000a900473ffffffffffffffffffffffffffffffffffffffff16600854604051610f889291906111ee565b60405180910390a161100c565b610fa967494bb6454ac2e58260c01b61100e565b610fbd6724bc51a073603e7560c01b61100e565b610fd1674942da3dd201bb2260c01b61100e565b7fdaec4582d5d9595688c8c98545fdd1c696d41c6aeaeb636737e84ed2f5c00eda6000806040516110039291906114c5565b60405180910390a15b565b50565b6000819050919050565b61102481611011565b82525050565b600060208201905061103f600083018461101b565b92915050565b600073ffffffffffffffffffffffffffffffffffffffff82169050919050565b600061107082611045565b9050919050565b61108081611065565b82525050565b600060208201905061109b6000830184611077565b92915050565b600080fd5b60006110b182611045565b9050919050565b6110c1816110a6565b81146110cc57600080fd5b50565b6000813590506110de816110b8565b92915050565b6000602082840312156110fa576110f96110a1565b5b6000611108848285016110cf565b91505092915050565b60008115159050919050565b61112681611111565b82525050565b6000602082019050611141600083018461111d565b92915050565b611150816110a6565b82525050565b600060208201905061116b6000830184611147565b92915050565b600082825260208201905092915050565b7f4e6f2062696420746f20726566756e6400000000000000000000000000000000600082015250565b60006111b8601083611171565b91506111c382611182565b602082019050919050565b600060208201905081810360008301526111e7816111ab565b9050919050565b60006040820190506112036000830185611147565b611210602083018461101b565b9392505050565b7f4e487b7100000000000000000000000000000000000000000000000000000000600052601160045260246000fd5b600061125182611011565b915061125c83611011565b925082820390508181111561127457611273611217565b5b92915050565b600061128582611011565b915061129083611011565b925082820261129e81611011565b915082820484148315176112b5576112b4611217565b5b5092915050565b7f41756374696f6e20616c726561647920656e6465640000000000000000000000600082015250565b60006112f2601583611171565b91506112fd826112bc565b602082019050919050565b60006020820190508181036000830152611321816112e5565b9050919050565b7f42696420616d6f756e74206d7573742062652067726561746572207468616e2060008201527f3000000000000000000000000000000000000000000000000000000000000000602082015250565b6000611384602183611171565b915061138f82611328565b604082019050919050565b600060208201905081810360008301526113b381611377565b9050919050565b7f42696420616d6f756e742069732062656c6f772063757272656e74206869676860008201527f6573742042696400000000000000000000000000000000000000000000000000602082015250565b6000611416602783611171565b9150611421826113ba565b604082019050919050565b6000602082019050818103600083015261144581611409565b9050919050565b600061145782611011565b915061146283611011565b925082820190508082111561147a57611479611217565b5b92915050565b6000819050919050565b6000819050919050565b60006114af6114aa6114a584611480565b61148a565b611011565b9050919050565b6114bf81611494565b82525050565b60006040820190506114da6000830185611147565b6114e760208301846114b6565b939250505056fea2646970667358221220f29a067153b7d14a6dec18ed48679160110fc738ead6b5d0706bd5b4c44d57d264736f6c63430008120033","opcodes":"PUSH1 0x80 PUSH1 0x40 MSTORE CALLVALUE DUP1 ISZERO PUSH3 0x11 JUMPI PUSH1 0x0 DUP1 REVERT JUMPDEST POP PUSH1 0x40 MLOAD PUSH3 0x18B1 CODESIZE SUB DUP1 PUSH3 0x18B1 DUP4 CODECOPY DUP2 DUP2 ADD PUSH1 0x40 MSTORE DUP2 ADD SWAP1 PUSH3 0x37 SWAP2 SWAP1 PUSH3 0x26C JUMP JUMPDEST PUSH3 0x53 PUSH8 0x9ECF77EF45E051FA PUSH1 0xC0 SHL PUSH3 0x229 PUSH1 0x20 SHL PUSH1 0x20 SHR JUMP JUMPDEST PUSH3 0x6F PUSH8 0x541086F66254CF6B PUSH1 0xC0 SHL PUSH3 0x229 PUSH1 0x20 SHL PUSH1 0x20 SHR JUMP JUMPDEST CALLER PUSH1 0x0 DUP1 PUSH2 0x100 EXP DUP2 SLOAD DUP2 PUSH20 0xFFFFFFFFFFFFFFFFFFFFFFFFFFFFFFFFFFFFFFFF MUL NOT AND SWAP1 DUP4 PUSH20 0xFFFFFFFFFFFFFFFFFFFFFFFFFFFFFFFFFFFFFFFF AND MUL OR SWAP1 SSTORE POP PUSH3 0xCB PUSH8 0x7988138203A203D4 PUSH1 0xC0 SHL PUSH3 0x229 PUSH1 0x20 SHL PUSH1 0x20 SHR JUMP JUMPDEST DUP3 PUSH1 0x1 DUP2 SWAP1 SSTORE POP PUSH3 0xEE PUSH8 0x47C32DBB5F7BCB87 PUSH1 0xC0 SHL PUSH3 0x229 PUSH1 0x20 SHL PUSH1 0x20 SHR JUMP JUMPDEST DUP2 PUSH1 0x2 DUP2 SWAP1 SSTORE POP PUSH3 0x111 PUSH8 0x9B8FC91AD512B71B PUSH1 0xC0 SHL PUSH3 0x229 PUSH1 0x20 SHL PUSH1 0x20 SHR JUMP JUMPDEST DUP1 PUSH1 0x3 DUP2 SWAP1 SSTORE POP PUSH3 0x134 PUSH8 0x42BAD443BE562561 PUSH1 0xC0 SHL PUSH3 0x229 PUSH1 0x20 SHL PUSH1 0x20 SHR JUMP JUMPDEST PUSH1 0x3 SLOAD PUSH1 0x2 SLOAD PUSH3 0x146 SWAP2 SWAP1 PUSH3 0x2F7 JUMP JUMPDEST PUSH1 0x1 SLOAD PUSH3 0x155 SWAP2 SWAP1 PUSH3 0x342 JUMP JUMPDEST PUSH1 0x4 DUP2 SWAP1 SSTORE POP PUSH3 0x177 PUSH8 0x1E3E49B32795A934 PUSH1 0xC0 SHL PUSH3 0x229 PUSH1 0x20 SHL PUSH1 0x20 SHR JUMP JUMPDEST NUMBER PUSH1 0x5 DUP2 SWAP1 SSTORE POP PUSH3 0x19A PUSH8 0xDD7F3F4035185522 PUSH1 0xC0 SHL PUSH3 0x229 PUSH1 0x20 SHL PUSH1 0x20 SHR JUMP JUMPDEST PUSH1 0x2 SLOAD PUSH1 0x5 SLOAD PUSH3 0x1AC SWAP2 SWAP1 PUSH3 0x342 JUMP JUMPDEST PUSH1 0x6 DUP2 SWAP1 SSTORE POP PUSH3 0x1CE PUSH8 0x3B439DFA08C65BDD PUSH1 0xC0 SHL PUSH3 0x229 PUSH1 0x20 SHL PUSH1 0x20 SHR JUMP JUMPDEST PUSH1 0x0 PUSH1 0x7 PUSH1 0x0 PUSH2 0x100 EXP DUP2 SLOAD DUP2 PUSH1 0xFF MUL NOT AND SWAP1 DUP4 ISZERO ISZERO MUL OR SWAP1 SSTORE POP PUSH3 0x205 PUSH8 0x89C013C4432B1FC6 PUSH1 0xC0 SHL PUSH3 0x229 PUSH1 0x20 SHL PUSH1 0x20 SHR JUMP JUMPDEST PUSH1 0x0 PUSH1 0x7 PUSH1 0x1 PUSH2 0x100 EXP DUP2 SLOAD DUP2 PUSH1 0xFF MUL NOT AND SWAP1 DUP4 ISZERO ISZERO MUL OR SWAP1 SSTORE POP POP POP POP PUSH3 0x37D JUMP JUMPDEST POP JUMP JUMPDEST PUSH1 0x0 DUP1 REVERT JUMPDEST PUSH1 0x0 DUP2 SWAP1 POP SWAP2 SWAP1 POP JUMP JUMPDEST PUSH3 0x246 DUP2 PUSH3 0x231 JUMP JUMPDEST DUP2 EQ PUSH3 0x252 JUMPI PUSH1 0x0 DUP1 REVERT JUMPDEST POP JUMP JUMPDEST PUSH1 0x0 DUP2 MLOAD SWAP1 POP PUSH3 0x266 DUP2 PUSH3 0x23B JUMP JUMPDEST SWAP3 SWAP2 POP POP JUMP JUMPDEST PUSH1 0x0 DUP1 PUSH1 0x0 PUSH1 0x60 DUP5 DUP7 SUB SLT ISZERO PUSH3 0x288 JUMPI PUSH3 0x287 PUSH3 0x22C JUMP JUMPDEST JUMPDEST PUSH1 0x0 PUSH3 0x298 DUP7 DUP3 DUP8 ADD PUSH3 0x255 JUMP JUMPDEST SWAP4 POP POP PUSH1 0x20 PUSH3 0x2AB DUP7 DUP3 DUP8 ADD PUSH3 0x255 JUMP JUMPDEST SWAP3 POP POP PUSH1 0x40 PUSH3 0x2BE DUP7 DUP3 DUP8 ADD PUSH3 0x255 JUMP JUMPDEST SWAP2 POP POP SWAP3 POP SWAP3 POP SWAP3 JUMP JUMPDEST PUSH32 0x4E487B7100000000000000000000000000000000000000000000000000000000 PUSH1 0x0 MSTORE PUSH1 0x11 PUSH1 0x4 MSTORE PUSH1 0x24 PUSH1 0x0 REVERT JUMPDEST PUSH1 0x0 PUSH3 0x304 DUP3 PUSH3 0x231 JUMP JUMPDEST SWAP2 POP PUSH3 0x311 DUP4 PUSH3 0x231 JUMP JUMPDEST SWAP3 POP DUP3 DUP3 MUL PUSH3 0x321 DUP2 PUSH3 0x231 JUMP JUMPDEST SWAP2 POP DUP3 DUP3 DIV DUP5 EQ DUP4 ISZERO OR PUSH3 0x33B JUMPI PUSH3 0x33A PUSH3 0x2C8 JUMP JUMPDEST JUMPDEST POP SWAP3 SWAP2 POP POP JUMP JUMPDEST PUSH1 0x0 PUSH3 0x34F DUP3 PUSH3 0x231 JUMP JUMPDEST SWAP2 POP PUSH3 0x35C DUP4 PUSH3 0x231 JUMP JUMPDEST SWAP3 POP DUP3 DUP3 ADD SWAP1 POP DUP1 DUP3 GT ISZERO PUSH3 0x377 JUMPI PUSH3 0x376 PUSH3 0x2C8 JUMP JUMPDEST JUMPDEST SWAP3 SWAP2 POP POP JUMP JUMPDEST PUSH2 0x1524 DUP1 PUSH3 0x38D PUSH1 0x0 CODECOPY PUSH1 0x0 RETURN INVALID PUSH1 0x80 PUSH1 0x40 MSTORE PUSH1 0x4 CALLDATASIZE LT PUSH2 0xF3 JUMPI PUSH1 0x0 CALLDATALOAD PUSH1 0xE0 SHR DUP1 PUSH4 0x86433374 GT PUSH2 0x8A JUMPI DUP1 PUSH4 0xDB2E1EED GT PUSH2 0x59 JUMPI DUP1 PUSH4 0xDB2E1EED EQ PUSH2 0x30C JUMPI DUP1 PUSH4 0xEB91D37E EQ PUSH2 0x337 JUMPI DUP1 PUSH4 0xECFC7ECC EQ PUSH2 0x362 JUMPI DUP1 PUSH4 0xFE67A54B EQ PUSH2 0x36C JUMPI PUSH2 0xF3 JUMP JUMPDEST DUP1 PUSH4 0x86433374 EQ PUSH2 0x260 JUMPI DUP1 PUSH4 0x91F90157 EQ PUSH2 0x28B JUMPI DUP1 PUSH4 0xD3642A88 EQ PUSH2 0x2B6 JUMPI DUP1 PUSH4 0xD57BDE79 EQ PUSH2 0x2E1 JUMPI PUSH2 0xF3 JUMP JUMPDEST DUP1 PUSH4 0x385E3155 GT PUSH2 0xC6 JUMPI DUP1 PUSH4 0x385E3155 EQ PUSH2 0x1A4 JUMPI DUP1 PUSH4 0x438E897A EQ PUSH2 0x1CD JUMPI DUP1 PUSH4 0x48CD4CB1 EQ PUSH2 0x1F8 JUMPI DUP1 PUSH4 0x62EA82DB EQ PUSH2 0x223 JUMPI PUSH2 0xF3 JUMP JUMPDEST DUP1 PUSH4 0x83C6323 EQ PUSH2 0xF8 JUMPI DUP1 PUSH4 0x8551A53 EQ PUSH2 0x123 JUMPI DUP1 PUSH4 0x1D0806AE EQ PUSH2 0x14E JUMPI DUP1 PUSH4 0x3103EA62 EQ PUSH2 0x179 JUMPI JUMPDEST PUSH1 0x0 DUP1 REVERT JUMPDEST CALLVALUE DUP1 ISZERO PUSH2 0x104 JUMPI PUSH1 0x0 DUP1 REVERT JUMPDEST POP PUSH2 0x10D PUSH2 0x383 JUMP JUMPDEST PUSH1 0x40 MLOAD PUSH2 0x11A SWAP2 SWAP1 PUSH2 0x102A JUMP JUMPDEST PUSH1 0x40 MLOAD DUP1 SWAP2 SUB SWAP1 RETURN JUMPDEST CALLVALUE DUP1 ISZERO PUSH2 0x12F JUMPI PUSH1 0x0 DUP1 REVERT JUMPDEST POP PUSH2 0x138 PUSH2 0x389 JUMP JUMPDEST PUSH1 0x40 MLOAD PUSH2 0x145 SWAP2 SWAP1 PUSH2 0x1086 JUMP JUMPDEST PUSH1 0x40 MLOAD DUP1 SWAP2 SUB SWAP1 RETURN JUMPDEST CALLVALUE DUP1 ISZERO PUSH2 0x15A JUMPI PUSH1 0x0 DUP1 REVERT JUMPDEST POP PUSH2 0x163 PUSH2 0x3AD JUMP JUMPDEST PUSH1 0x40 MLOAD PUSH2 0x170 SWAP2 SWAP1 PUSH2 0x102A JUMP JUMPDEST PUSH1 0x40 MLOAD DUP1 SWAP2 SUB SWAP1 RETURN JUMPDEST CALLVALUE DUP1 ISZERO PUSH2 0x185 JUMPI PUSH1 0x0 DUP1 REVERT JUMPDEST POP PUSH2 0x18E PUSH2 0x3B3 JUMP JUMPDEST PUSH1 0x40 MLOAD PUSH2 0x19B SWAP2 SWAP1 PUSH2 0x102A JUMP JUMPDEST PUSH1 0x40 MLOAD DUP1 SWAP2 SUB SWAP1 RETURN JUMPDEST CALLVALUE DUP1 ISZERO PUSH2 0x1B0 JUMPI PUSH1 0x0 DUP1 REVERT JUMPDEST POP PUSH2 0x1CB PUSH1 0x4 DUP1 CALLDATASIZE SUB DUP2 ADD SWAP1 PUSH2 0x1C6 SWAP2 SWAP1 PUSH2 0x10E4 JUMP JUMPDEST PUSH2 0x3B9 JUMP JUMPDEST STOP JUMPDEST CALLVALUE DUP1 ISZERO PUSH2 0x1D9 JUMPI PUSH1 0x0 DUP1 REVERT JUMPDEST POP PUSH2 0x1E2 PUSH2 0x638 JUMP JUMPDEST PUSH1 0x40 MLOAD PUSH2 0x1EF SWAP2 SWAP1 PUSH2 0x112C JUMP JUMPDEST PUSH1 0x40 MLOAD DUP1 SWAP2 SUB SWAP1 RETURN JUMPDEST CALLVALUE DUP1 ISZERO PUSH2 0x204 JUMPI PUSH1 0x0 DUP1 REVERT JUMPDEST POP PUSH2 0x20D PUSH2 0x64B JUMP JUMPDEST PUSH1 0x40 MLOAD PUSH2 0x21A SWAP2 SWAP1 PUSH2 0x102A JUMP JUMPDEST PUSH1 0x40 MLOAD DUP1 SWAP2 SUB SWAP1 RETURN JUMPDEST CALLVALUE DUP1 ISZERO PUSH2 0x22F JUMPI PUSH1 0x0 DUP1 REVERT JUMPDEST POP PUSH2 0x24A PUSH1 0x4 DUP1 CALLDATASIZE SUB DUP2 ADD SWAP1 PUSH2 0x245 SWAP2 SWAP1 PUSH2 0x10E4 JUMP JUMPDEST PUSH2 0x651 JUMP JUMPDEST PUSH1 0x40 MLOAD PUSH2 0x257 SWAP2 SWAP1 PUSH2 0x102A JUMP JUMPDEST PUSH1 0x40 MLOAD DUP1 SWAP2 SUB SWAP1 RETURN JUMPDEST CALLVALUE DUP1 ISZERO PUSH2 0x26C JUMPI PUSH1 0x0 DUP1 REVERT JUMPDEST POP PUSH2 0x275 PUSH2 0x669 JUMP JUMPDEST PUSH1 0x40 MLOAD PUSH2 0x282 SWAP2 SWAP1 PUSH2 0x112C JUMP JUMPDEST PUSH1 0x40 MLOAD DUP1 SWAP2 SUB SWAP1 RETURN JUMPDEST CALLVALUE DUP1 ISZERO PUSH2 0x297 JUMPI PUSH1 0x0 DUP1 REVERT JUMPDEST POP PUSH2 0x2A0 PUSH2 0x67C JUMP JUMPDEST PUSH1 0x40 MLOAD PUSH2 0x2AD SWAP2 SWAP1 PUSH2 0x1156 JUMP JUMPDEST PUSH1 0x40 MLOAD DUP1 SWAP2 SUB SWAP1 RETURN JUMPDEST CALLVALUE DUP1 ISZERO PUSH2 0x2C2 JUMPI PUSH1 0x0 DUP1 REVERT JUMPDEST POP PUSH2 0x2CB PUSH2 0x6A2 JUMP JUMPDEST PUSH1 0x40 MLOAD PUSH2 0x2D8 SWAP2 SWAP1 PUSH2 0x102A JUMP JUMPDEST PUSH1 0x40 MLOAD DUP1 SWAP2 SUB SWAP1 RETURN JUMPDEST CALLVALUE DUP1 ISZERO PUSH2 0x2ED JUMPI PUSH1 0x0 DUP1 REVERT JUMPDEST POP PUSH2 0x2F6 PUSH2 0x6A8 JUMP JUMPDEST PUSH1 0x40 MLOAD PUSH2 0x303 SWAP2 SWAP1 PUSH2 0x102A JUMP JUMPDEST PUSH1 0x40 MLOAD DUP1 SWAP2 SUB SWAP1 RETURN JUMPDEST CALLVALUE DUP1 ISZERO PUSH2 0x318 JUMPI PUSH1 0x0 DUP1 REVERT JUMPDEST POP PUSH2 0x321 PUSH2 0x6AE JUMP JUMPDEST PUSH1 0x40 MLOAD PUSH2 0x32E SWAP2 SWAP1 PUSH2 0x102A JUMP JUMPDEST PUSH1 0x40 MLOAD DUP1 SWAP2 SUB SWAP1 RETURN JUMPDEST CALLVALUE DUP1 ISZERO PUSH2 0x343 JUMPI PUSH1 0x0 DUP1 REVERT JUMPDEST POP PUSH2 0x34C PUSH2 0x6B4 JUMP JUMPDEST PUSH1 0x40 MLOAD PUSH2 0x359 SWAP2 SWAP1 PUSH2 0x102A JUMP JUMPDEST PUSH1 0x40 MLOAD DUP1 SWAP2 SUB SWAP1 RETURN JUMPDEST PUSH2 0x36A PUSH2 0x7A9 JUMP JUMPDEST STOP JUMPDEST CALLVALUE DUP1 ISZERO PUSH2 0x378 JUMPI PUSH1 0x0 DUP1 REVERT JUMPDEST POP PUSH2 0x381 PUSH2 0xC5B JUMP JUMPDEST STOP JUMPDEST PUSH1 0x6 SLOAD DUP2 JUMP JUMPDEST PUSH1 0x0 DUP1 SLOAD SWAP1 PUSH2 0x100 EXP SWAP1 DIV PUSH20 0xFFFFFFFFFFFFFFFFFFFFFFFFFFFFFFFFFFFFFFFF AND DUP2 JUMP JUMPDEST PUSH1 0x4 SLOAD DUP2 JUMP JUMPDEST PUSH1 0x2 SLOAD DUP2 JUMP JUMPDEST PUSH2 0x3CD PUSH8 0x2381F3C503F73EF8 PUSH1 0xC0 SHL PUSH2 0x100E JUMP JUMPDEST PUSH2 0x3E1 PUSH8 0x4F2005A200D7017A PUSH1 0xC0 SHL PUSH2 0x100E JUMP JUMPDEST PUSH2 0x3F5 PUSH8 0xACB04D6A318AA8B0 PUSH1 0xC0 SHL PUSH2 0x100E JUMP JUMPDEST PUSH2 0x409 PUSH8 0xC9371959835A90F PUSH1 0xC0 SHL PUSH2 0x100E JUMP JUMPDEST PUSH1 0x0 PUSH1 0x9 PUSH1 0x0 DUP4 PUSH20 0xFFFFFFFFFFFFFFFFFFFFFFFFFFFFFFFFFFFFFFFF AND PUSH20 0xFFFFFFFFFFFFFFFFFFFFFFFFFFFFFFFFFFFFFFFF AND DUP2 MSTORE PUSH1 0x20 ADD SWAP1 DUP2 MSTORE PUSH1 0x20 ADD PUSH1 0x0 KECCAK256 SLOAD GT PUSH2 0x48B JUMPI PUSH1 0x40 MLOAD PUSH32 0x8C379A000000000000000000000000000000000000000000000000000000000 DUP2 MSTORE PUSH1 0x4 ADD PUSH2 0x482 SWAP1 PUSH2 0x11CE JUMP JUMPDEST PUSH1 0x40 MLOAD DUP1 SWAP2 SUB SWAP1 REVERT JUMPDEST PUSH2 0x49F PUSH8 0x1037A584ABC8565E PUSH1 0xC0 SHL PUSH2 0x100E JUMP JUMPDEST PUSH2 0x4B3 PUSH8 0x129D4E9775B0F17B PUSH1 0xC0 SHL PUSH2 0x100E JUMP JUMPDEST PUSH2 0x4C7 PUSH8 0x7D4F62876619D305 PUSH1 0xC0 SHL PUSH2 0x100E JUMP JUMPDEST PUSH1 0x0 PUSH1 0x9 PUSH1 0x0 DUP4 PUSH20 0xFFFFFFFFFFFFFFFFFFFFFFFFFFFFFFFFFFFFFFFF AND PUSH20 0xFFFFFFFFFFFFFFFFFFFFFFFFFFFFFFFFFFFFFFFF AND DUP2 MSTORE PUSH1 0x20 ADD SWAP1 DUP2 MSTORE PUSH1 0x20 ADD PUSH1 0x0 KECCAK256 SLOAD SWAP1 POP PUSH2 0x51F PUSH8 0x594B021D733C89ED PUSH1 0xC0 SHL PUSH2 0x100E JUMP JUMPDEST PUSH1 0x0 PUSH1 0x9 PUSH1 0x0 DUP5 PUSH20 0xFFFFFFFFFFFFFFFFFFFFFFFFFFFFFFFFFFFFFFFF AND PUSH20 0xFFFFFFFFFFFFFFFFFFFFFFFFFFFFFFFFFFFFFFFF AND DUP2 MSTORE PUSH1 0x20 ADD SWAP1 DUP2 MSTORE PUSH1 0x20 ADD PUSH1 0x0 KECCAK256 DUP2 SWAP1 SSTORE POP PUSH2 0x578 PUSH8 0xCFF95C941C77F17 PUSH1 0xC0 SHL PUSH2 0x100E JUMP JUMPDEST PUSH2 0x58C PUSH8 0xE9FE44EC8D3EA450 PUSH1 0xC0 SHL PUSH2 0x100E JUMP JUMPDEST PUSH32 0x8377883650D2137D6E6D67BCF2DBB9B1DAB287D68240A17FF910B9FB7A0AD5FF DUP3 DUP3 PUSH1 0x40 MLOAD PUSH2 0x5BD SWAP3 SWAP2 SWAP1 PUSH2 0x11EE JUMP JUMPDEST PUSH1 0x40 MLOAD DUP1 SWAP2 SUB SWAP1 LOG1 PUSH2 0x5D9 PUSH8 0x74A2CD02338276A1 PUSH1 0xC0 SHL PUSH2 0x100E JUMP JUMPDEST PUSH2 0x5ED PUSH8 0xE07458B025674E82 PUSH1 0xC0 SHL PUSH2 0x100E JUMP JUMPDEST DUP2 PUSH20 0xFFFFFFFFFFFFFFFFFFFFFFFFFFFFFFFFFFFFFFFF AND PUSH2 0x8FC DUP3 SWAP1 DUP2 ISZERO MUL SWAP1 PUSH1 0x40 MLOAD PUSH1 0x0 PUSH1 0x40 MLOAD DUP1 DUP4 SUB DUP2 DUP6 DUP9 DUP9 CALL SWAP4 POP POP POP POP ISZERO DUP1 ISZERO PUSH2 0x633 JUMPI RETURNDATASIZE PUSH1 0x0 DUP1 RETURNDATACOPY RETURNDATASIZE PUSH1 0x0 REVERT JUMPDEST POP POP POP JUMP JUMPDEST PUSH1 0x7 PUSH1 0x1 SWAP1 SLOAD SWAP1 PUSH2 0x100 EXP SWAP1 DIV PUSH1 0xFF AND DUP2 JUMP JUMPDEST PUSH1 0x5 SLOAD DUP2 JUMP JUMPDEST PUSH1 0x9 PUSH1 0x20 MSTORE DUP1 PUSH1 0x0 MSTORE PUSH1 0x40 PUSH1 0x0 KECCAK256 PUSH1 0x0 SWAP2 POP SWAP1 POP SLOAD DUP2 JUMP JUMPDEST PUSH1 0x7 PUSH1 0x0 SWAP1 SLOAD SWAP1 PUSH2 0x100 EXP SWAP1 DIV PUSH1 0xFF AND DUP2 JUMP JUMPDEST PUSH1 0x7 PUSH1 0x2 SWAP1 SLOAD SWAP1 PUSH2 0x100 EXP SWAP1 DIV PUSH20 0xFFFFFFFFFFFFFFFFFFFFFFFFFFFFFFFFFFFFFFFF AND DUP2 JUMP JUMPDEST PUSH1 0x3 SLOAD DUP2 JUMP JUMPDEST PUSH1 0x8 SLOAD DUP2 JUMP JUMPDEST PUSH1 0x1 SLOAD DUP2 JUMP JUMPDEST PUSH1 0x0 PUSH2 0x6CA PUSH8 0x9F6A055A7600DFBE PUSH1 0xC0 SHL PUSH2 0x100E JUMP JUMPDEST PUSH2 0x6DE PUSH8 0xAA6405110B2D674D PUSH1 0xC0 SHL PUSH2 0x100E JUMP JUMPDEST PUSH2 0x6F2 PUSH8 0xFE9867265030129D PUSH1 0xC0 SHL PUSH2 0x100E JUMP JUMPDEST PUSH1 0x0 NUMBER SWAP1 POP PUSH2 0x70B PUSH8 0x5B0354A16A3D5BA3 PUSH1 0xC0 SHL PUSH2 0x100E JUMP JUMPDEST PUSH2 0x71F PUSH8 0x612C3C0CDCADD240 PUSH1 0xC0 SHL PUSH2 0x100E JUMP JUMPDEST PUSH1 0x0 PUSH1 0x5 SLOAD DUP3 PUSH2 0x72F SWAP2 SWAP1 PUSH2 0x1246 JUMP JUMPDEST SWAP1 POP PUSH2 0x745 PUSH8 0xA54B0A0EE7A57B7E PUSH1 0xC0 SHL PUSH2 0x100E JUMP JUMPDEST PUSH2 0x759 PUSH8 0x2FBBCF8E6DE32108 PUSH1 0xC0 SHL PUSH2 0x100E JUMP JUMPDEST PUSH1 0x0 PUSH1 0x3 SLOAD DUP3 PUSH2 0x769 SWAP2 SWAP1 PUSH2 0x127A JUMP JUMPDEST SWAP1 POP PUSH2 0x77F PUSH8 0x525A936899BDD4C4 PUSH1 0xC0 SHL PUSH2 0x100E JUMP JUMPDEST PUSH2 0x793 PUSH8 0xE5E195F70F51BC36 PUSH1 0xC0 SHL PUSH2 0x100E JUMP JUMPDEST DUP1 PUSH1 0x4 SLOAD PUSH2 0x7A1 SWAP2 SWAP1 PUSH2 0x1246 JUMP JUMPDEST SWAP4 POP POP POP POP SWAP1 JUMP JUMPDEST PUSH2 0x7BD PUSH8 0x589B88C3A307BFB0 PUSH1 0xC0 SHL PUSH2 0x100E JUMP JUMPDEST PUSH2 0x7D1 PUSH8 0xB94D09F827571704 PUSH1 0xC0 SHL PUSH2 0x100E JUMP JUMPDEST PUSH2 0x7E5 PUSH8 0xC012EA453C8A348C PUSH1 0xC0 SHL PUSH2 0x100E JUMP JUMPDEST PUSH2 0x7F9 PUSH8 0x7F9C75B741C9104B PUSH1 0xC0 SHL PUSH2 0x100E JUMP JUMPDEST PUSH1 0x7 PUSH1 0x0 SWAP1 SLOAD SWAP1 PUSH2 0x100 EXP SWAP1 DIV PUSH1 0xFF AND ISZERO PUSH2 0x849 JUMPI PUSH1 0x40 MLOAD PUSH32 0x8C379A000000000000000000000000000000000000000000000000000000000 DUP2 MSTORE PUSH1 0x4 ADD PUSH2 0x840 SWAP1 PUSH2 0x1308 JUMP JUMPDEST PUSH1 0x40 MLOAD DUP1 SWAP2 SUB SWAP1 REVERT JUMPDEST PUSH2 0x85D PUSH8 0x4F328A7CB02FC042 PUSH1 0xC0 SHL PUSH2 0x100E JUMP JUMPDEST PUSH2 0x871 PUSH8 0x8E32270F688A8744 PUSH1 0xC0 SHL PUSH2 0x100E JUMP JUMPDEST PUSH2 0x885 PUSH8 0xA2D5795BCF89A31F PUSH1 0xC0 SHL PUSH2 0x100E JUMP JUMPDEST PUSH2 0x899 PUSH8 0x7381E7C1B57545C6 PUSH1 0xC0 SHL PUSH2 0x100E JUMP JUMPDEST PUSH1 0x0 CALLVALUE GT PUSH2 0x8DC JUMPI PUSH1 0x40 MLOAD PUSH32 0x8C379A000000000000000000000000000000000000000000000000000000000 DUP2 MSTORE PUSH1 0x4 ADD PUSH2 0x8D3 SWAP1 PUSH2 0x139A JUMP JUMPDEST PUSH1 0x40 MLOAD DUP1 SWAP2 SUB SWAP1 REVERT JUMPDEST PUSH2 0x8F0 PUSH8 0xCACDD0A7A7CA07A3 PUSH1 0xC0 SHL PUSH2 0x100E JUMP JUMPDEST PUSH2 0x904 PUSH8 0xE3ED9652E55BC656 PUSH1 0xC0 SHL PUSH2 0x100E JUMP JUMPDEST PUSH2 0x918 PUSH8 0xF50B2BDEC741F3B4 PUSH1 0xC0 SHL PUSH2 0x100E JUMP JUMPDEST PUSH1 0x0 PUSH2 0x922 PUSH2 0x6B4 JUMP JUMPDEST SWAP1 POP PUSH2 0x938 PUSH8 0x9CCD500CE6A560CC PUSH1 0xC0 SHL PUSH2 0x100E JUMP JUMPDEST PUSH2 0x94C PUSH8 0x9C4B637FD3DEEE6C PUSH1 0xC0 SHL PUSH2 0x100E JUMP JUMPDEST PUSH2 0x960 PUSH8 0x740320D28EFAB25C PUSH1 0xC0 SHL PUSH2 0x100E JUMP JUMPDEST PUSH1 0x8 SLOAD CALLVALUE LT ISZERO PUSH2 0x9A5 JUMPI PUSH1 0x40 MLOAD PUSH32 0x8C379A000000000000000000000000000000000000000000000000000000000 DUP2 MSTORE PUSH1 0x4 ADD PUSH2 0x99C SWAP1 PUSH2 0x142C JUMP JUMPDEST PUSH1 0x40 MLOAD DUP1 SWAP2 SUB SWAP1 REVERT JUMPDEST PUSH2 0x9B9 PUSH8 0xCED4C8D77884089E PUSH1 0xC0 SHL PUSH2 0x100E JUMP JUMPDEST PUSH2 0x9CD PUSH8 0x55B34C0CBD4284D9 PUSH1 0xC0 SHL PUSH2 0x100E JUMP JUMPDEST PUSH2 0x9E1 PUSH8 0xBF819B56B358D33C PUSH1 0xC0 SHL PUSH2 0x100E JUMP JUMPDEST PUSH1 0x0 PUSH1 0x8 SLOAD EQ PUSH2 0xAE4 JUMPI PUSH2 0x9FF PUSH8 0xD75EC822D27F496A PUSH1 0xC0 SHL PUSH2 0x100E JUMP JUMPDEST PUSH2 0xA13 PUSH8 0x75A460FBBC5BB71A PUSH1 0xC0 SHL PUSH2 0x100E JUMP JUMPDEST PUSH1 0x8 SLOAD PUSH1 0x9 PUSH1 0x0 PUSH1 0x7 PUSH1 0x2 SWAP1 SLOAD SWAP1 PUSH2 0x100 EXP SWAP1 DIV PUSH20 0xFFFFFFFFFFFFFFFFFFFFFFFFFFFFFFFFFFFFFFFF AND PUSH20 0xFFFFFFFFFFFFFFFFFFFFFFFFFFFFFFFFFFFFFFFF AND PUSH20 0xFFFFFFFFFFFFFFFFFFFFFFFFFFFFFFFFFFFFFFFF AND DUP2 MSTORE PUSH1 0x20 ADD SWAP1 DUP2 MSTORE PUSH1 0x20 ADD PUSH1 0x0 KECCAK256 PUSH1 0x0 DUP3 DUP3 SLOAD PUSH2 0xA86 SWAP2 SWAP1 PUSH2 0x144C JUMP JUMPDEST SWAP3 POP POP DUP2 SWAP1 SSTORE POP PUSH2 0xAA1 PUSH8 0xADDFF4C0CD4FAF69 PUSH1 0xC0 SHL PUSH2 0x100E JUMP JUMPDEST PUSH2 0xAB4 PUSH7 0x7BB90F98C52AB5 PUSH1 0xC0 SHL PUSH2 0x100E JUMP JUMPDEST PUSH2 0xADF PUSH1 0x7 PUSH1 0x2 SWAP1 SLOAD SWAP1 PUSH2 0x100 EXP SWAP1 DIV PUSH20 0xFFFFFFFFFFFFFFFFFFFFFFFFFFFFFFFFFFFFFFFF AND PUSH2 0x3B9 JUMP JUMPDEST PUSH2 0xAF8 JUMP JUMPDEST PUSH2 0xAF7 PUSH7 0xB9EBDE539D2374 PUSH1 0xC0 SHL PUSH2 0x100E JUMP JUMPDEST JUMPDEST PUSH2 0xB0C PUSH8 0xE3FF398FD20C18BA PUSH1 0xC0 SHL PUSH2 0x100E JUMP JUMPDEST CALLER PUSH1 0x7 PUSH1 0x2 PUSH2 0x100 EXP DUP2 SLOAD DUP2 PUSH20 0xFFFFFFFFFFFFFFFFFFFFFFFFFFFFFFFFFFFFFFFF MUL NOT AND SWAP1 DUP4 PUSH20 0xFFFFFFFFFFFFFFFFFFFFFFFFFFFFFFFFFFFFFFFF AND MUL OR SWAP1 SSTORE POP PUSH2 0xB61 PUSH8 0xA89CAC36D3B5DB24 PUSH1 0xC0 SHL PUSH2 0x100E JUMP JUMPDEST CALLVALUE PUSH1 0x8 DUP2 SWAP1 SSTORE POP PUSH2 0xB7C PUSH8 0x1237F4F7CB67C63 PUSH1 0xC0 SHL PUSH2 0x100E JUMP JUMPDEST PUSH2 0xB90 PUSH8 0x9A2BFA74441D4BC PUSH1 0xC0 SHL PUSH2 0x100E JUMP JUMPDEST PUSH32 0x3FABFF0A9C3ECD6814702E247FA9733E5D0AA69E3A38590F92CB18F623A2254D CALLER CALLVALUE PUSH1 0x40 MLOAD PUSH2 0xBC1 SWAP3 SWAP2 SWAP1 PUSH2 0x11EE JUMP JUMPDEST PUSH1 0x40 MLOAD DUP1 SWAP2 SUB SWAP1 LOG1 PUSH2 0xBDD PUSH8 0x77CBDA5C368470BC PUSH1 0xC0 SHL PUSH2 0x100E JUMP JUMPDEST PUSH2 0xBF1 PUSH8 0x3FEF2D11CC40D227 PUSH1 0xC0 SHL PUSH2 0x100E JUMP JUMPDEST DUP1 PUSH1 0x8 SLOAD LT PUSH2 0xC43 JUMPI PUSH2 0xC0E PUSH8 0xC6DFFC93FAC8DA27 PUSH1 0xC0 SHL PUSH2 0x100E JUMP JUMPDEST PUSH2 0xC22 PUSH8 0x7EBAA3F59B3661CF PUSH1 0xC0 SHL PUSH2 0x100E JUMP JUMPDEST PUSH2 0xC36 PUSH8 0xCFA5A6F9CF87CD28 PUSH1 0xC0 SHL PUSH2 0x100E JUMP JUMPDEST PUSH2 0xC3E PUSH2 0xC5B JUMP JUMPDEST PUSH2 0xC58 JUMP JUMPDEST PUSH2 0xC57 PUSH8 0x34E89A4254527B3F PUSH1 0xC0 SHL PUSH2 0x100E JUMP JUMPDEST JUMPDEST POP JUMP JUMPDEST PUSH2 0xC6F PUSH8 0xD72B54E15E984A79 PUSH1 0xC0 SHL PUSH2 0x100E JUMP JUMPDEST PUSH2 0xC83 PUSH8 0xD349DA641551C4EA PUSH1 0xC0 SHL PUSH2 0x100E JUMP JUMPDEST PUSH2 0xC97 PUSH8 0x7B9BF824048A132 PUSH1 0xC0 SHL PUSH2 0x100E JUMP JUMPDEST PUSH2 0xCAB PUSH8 0xF2961D28EB49E17B PUSH1 0xC0 SHL PUSH2 0x100E JUMP JUMPDEST PUSH1 0x7 PUSH1 0x0 SWAP1 SLOAD SWAP1 PUSH2 0x100 EXP SWAP1 DIV PUSH1 0xFF AND ISZERO PUSH2 0xCFB JUMPI PUSH1 0x40 MLOAD PUSH32 0x8C379A000000000000000000000000000000000000000000000000000000000 DUP2 MSTORE PUSH1 0x4 ADD PUSH2 0xCF2 SWAP1 PUSH2 0x1308 JUMP JUMPDEST PUSH1 0x40 MLOAD DUP1 SWAP2 SUB SWAP1 REVERT JUMPDEST PUSH2 0xD0F PUSH8 0xF68A7F8EB12A49A8 PUSH1 0xC0 SHL PUSH2 0x100E JUMP JUMPDEST PUSH2 0xD23 PUSH8 0xDCDC4BBDB6BA218A PUSH1 0xC0 SHL PUSH2 0x100E JUMP JUMPDEST PUSH1 0x1 PUSH1 0x7 PUSH1 0x0 PUSH2 0x100 EXP DUP2 SLOAD DUP2 PUSH1 0xFF MUL NOT AND SWAP1 DUP4 ISZERO ISZERO MUL OR SWAP1 SSTORE POP PUSH2 0xD52 PUSH8 0xB079D9A52C2D9928 PUSH1 0xC0 SHL PUSH2 0x100E JUMP JUMPDEST PUSH1 0x1 PUSH1 0x7 PUSH1 0x1 PUSH2 0x100 EXP DUP2 SLOAD DUP2 PUSH1 0xFF MUL NOT AND SWAP1 DUP4 ISZERO ISZERO MUL OR SWAP1 SSTORE POP PUSH2 0xD81 PUSH8 0x6E5BF50C0C0C59AF PUSH1 0xC0 SHL PUSH2 0x100E JUMP JUMPDEST PUSH2 0xD95 PUSH8 0x4BF8A71C6BE3405B PUSH1 0xC0 SHL PUSH2 0x100E JUMP JUMPDEST PUSH1 0x0 PUSH20 0xFFFFFFFFFFFFFFFFFFFFFFFFFFFFFFFFFFFFFFFF AND PUSH1 0x7 PUSH1 0x2 SWAP1 SLOAD SWAP1 PUSH2 0x100 EXP SWAP1 DIV PUSH20 0xFFFFFFFFFFFFFFFFFFFFFFFFFFFFFFFFFFFFFFFF AND PUSH20 0xFFFFFFFFFFFFFFFFFFFFFFFFFFFFFFFFFFFFFFFF AND EQ PUSH2 0xF95 JUMPI PUSH2 0xDFF PUSH8 0xBDB801F9FA5358BB PUSH1 0xC0 SHL PUSH2 0x100E JUMP JUMPDEST PUSH2 0xE13 PUSH8 0x55A0DF1823814C83 PUSH1 0xC0 SHL PUSH2 0x100E JUMP JUMPDEST PUSH1 0x0 PUSH1 0x9 PUSH1 0x0 PUSH1 0x7 PUSH1 0x2 SWAP1 SLOAD SWAP1 PUSH2 0x100 EXP SWAP1 DIV PUSH20 0xFFFFFFFFFFFFFFFFFFFFFFFFFFFFFFFFFFFFFFFF AND PUSH20 0xFFFFFFFFFFFFFFFFFFFFFFFFFFFFFFFFFFFFFFFF AND PUSH20 0xFFFFFFFFFFFFFFFFFFFFFFFFFFFFFFFFFFFFFFFF AND DUP2 MSTORE PUSH1 0x20 ADD SWAP1 DUP2 MSTORE PUSH1 0x20 ADD PUSH1 0x0 KECCAK256 DUP2 SWAP1 SSTORE POP PUSH2 0xE8E PUSH8 0x2E14AB075529ADD7 PUSH1 0xC0 SHL PUSH2 0x100E JUMP JUMPDEST PUSH2 0xEA2 PUSH8 0x5687DE1EB30FE93A PUSH1 0xC0 SHL PUSH2 0x100E JUMP JUMPDEST PUSH1 0x0 DUP1 SLOAD SWAP1 PUSH2 0x100 EXP SWAP1 DIV PUSH20 0xFFFFFFFFFFFFFFFFFFFFFFFFFFFFFFFFFFFFFFFF AND PUSH20 0xFFFFFFFFFFFFFFFFFFFFFFFFFFFFFFFFFFFFFFFF AND PUSH2 0x8FC PUSH1 0x8 SLOAD SWAP1 DUP2 ISZERO MUL SWAP1 PUSH1 0x40 MLOAD PUSH1 0x0 PUSH1 0x40 MLOAD DUP1 DUP4 SUB DUP2 DUP6 DUP9 DUP9 CALL SWAP4 POP POP POP POP ISZERO DUP1 ISZERO PUSH2 0xF0A JUMPI RETURNDATASIZE PUSH1 0x0 DUP1 RETURNDATACOPY RETURNDATASIZE PUSH1 0x0 REVERT JUMPDEST POP PUSH2 0xF1F PUSH8 0x30DBFCE50E6BB23 PUSH1 0xC0 SHL PUSH2 0x100E JUMP JUMPDEST PUSH2 0xF33 PUSH8 0x92925387C22A786 PUSH1 0xC0 SHL PUSH2 0x100E JUMP JUMPDEST PUSH32 0xDAEC4582D5D9595688C8C98545FDD1C696D41C6AEAEB636737E84ED2F5C00EDA PUSH1 0x7 PUSH1 0x2 SWAP1 SLOAD SWAP1 PUSH2 0x100 EXP SWAP1 DIV PUSH20 0xFFFFFFFFFFFFFFFFFFFFFFFFFFFFFFFFFFFFFFFF AND PUSH1 0x8 SLOAD PUSH1 0x40 MLOAD PUSH2 0xF88 SWAP3 SWAP2 SWAP1 PUSH2 0x11EE JUMP JUMPDEST PUSH1 0x40 MLOAD DUP1 SWAP2 SUB SWAP1 LOG1 PUSH2 0x100C JUMP JUMPDEST PUSH2 0xFA9 PUSH8 0x494BB6454AC2E582 PUSH1 0xC0 SHL PUSH2 0x100E JUMP JUMPDEST PUSH2 0xFBD PUSH8 0x24BC51A073603E75 PUSH1 0xC0 SHL PUSH2 0x100E JUMP JUMPDEST PUSH2 0xFD1 PUSH8 0x4942DA3DD201BB22 PUSH1 0xC0 SHL PUSH2 0x100E JUMP JUMPDEST PUSH32 0xDAEC4582D5D9595688C8C98545FDD1C696D41C6AEAEB636737E84ED2F5C00EDA PUSH1 0x0 DUP1 PUSH1 0x40 MLOAD PUSH2 0x1003 SWAP3 SWAP2 SWAP1 PUSH2 0x14C5 JUMP JUMPDEST PUSH1 0x40 MLOAD DUP1 SWAP2 SUB SWAP1 LOG1 JUMPDEST JUMP JUMPDEST POP JUMP JUMPDEST PUSH1 0x0 DUP2 SWAP1 POP SWAP2 SWAP1 POP JUMP JUMPDEST PUSH2 0x1024 DUP2 PUSH2 0x1011 JUMP JUMPDEST DUP3 MSTORE POP POP JUMP JUMPDEST PUSH1 0x0 PUSH1 0x20 DUP3 ADD SWAP1 POP PUSH2 0x103F PUSH1 0x0 DUP4 ADD DUP5 PUSH2 0x101B JUMP JUMPDEST SWAP3 SWAP2 POP POP JUMP JUMPDEST PUSH1 0x0 PUSH20 0xFFFFFFFFFFFFFFFFFFFFFFFFFFFFFFFFFFFFFFFF DUP3 AND SWAP1 POP SWAP2 SWAP1 POP JUMP JUMPDEST PUSH1 0x0 PUSH2 0x1070 DUP3 PUSH2 0x1045 JUMP JUMPDEST SWAP1 POP SWAP2 SWAP1 POP JUMP JUMPDEST PUSH2 0x1080 DUP2 PUSH2 0x1065 JUMP JUMPDEST DUP3 MSTORE POP POP JUMP JUMPDEST PUSH1 0x0 PUSH1 0x20 DUP3 ADD SWAP1 POP PUSH2 0x109B PUSH1 0x0 DUP4 ADD DUP5 PUSH2 0x1077 JUMP JUMPDEST SWAP3 SWAP2 POP POP JUMP JUMPDEST PUSH1 0x0 DUP1 REVERT JUMPDEST PUSH1 0x0 PUSH2 0x10B1 DUP3 PUSH2 0x1045 JUMP JUMPDEST SWAP1 POP SWAP2 SWAP1 POP JUMP JUMPDEST PUSH2 0x10C1 DUP2 PUSH2 0x10A6 JUMP JUMPDEST DUP2 EQ PUSH2 0x10CC JUMPI PUSH1 0x0 DUP1 REVERT JUMPDEST POP JUMP JUMPDEST PUSH1 0x0 DUP2 CALLDATALOAD SWAP1 POP PUSH2 0x10DE DUP2 PUSH2 0x10B8 JUMP JUMPDEST SWAP3 SWAP2 POP POP JUMP JUMPDEST PUSH1 0x0 PUSH1 0x20 DUP3 DUP5 SUB SLT ISZERO PUSH2 0x10FA JUMPI PUSH2 0x10F9 PUSH2 0x10A1 JUMP JUMPDEST JUMPDEST PUSH1 0x0 PUSH2 0x1108 DUP5 DUP3 DUP6 ADD PUSH2 0x10CF JUMP JUMPDEST SWAP2 POP POP SWAP3 SWAP2 POP POP JUMP JUMPDEST PUSH1 0x0 DUP2 ISZERO ISZERO SWAP1 POP SWAP2 SWAP1 POP JUMP JUMPDEST PUSH2 0x1126 DUP2 PUSH2 0x1111 JUMP JUMPDEST DUP3 MSTORE POP POP JUMP JUMPDEST PUSH1 0x0 PUSH1 0x20 DUP3 ADD SWAP1 POP PUSH2 0x1141 PUSH1 0x0 DUP4 ADD DUP5 PUSH2 0x111D JUMP JUMPDEST SWAP3 SWAP2 POP POP JUMP JUMPDEST PUSH2 0x1150 DUP2 PUSH2 0x10A6 JUMP JUMPDEST DUP3 MSTORE POP POP JUMP JUMPDEST PUSH1 0x0 PUSH1 0x20 DUP3 ADD SWAP1 POP PUSH2 0x116B PUSH1 0x0 DUP4 ADD DUP5 PUSH2 0x1147 JUMP JUMPDEST SWAP3 SWAP2 POP POP JUMP JUMPDEST PUSH1 0x0 DUP3 DUP3 MSTORE PUSH1 0x20 DUP3 ADD SWAP1 POP SWAP3 SWAP2 POP POP JUMP JUMPDEST PUSH32 0x4E6F2062696420746F20726566756E6400000000000000000000000000000000 PUSH1 0x0 DUP3 ADD MSTORE POP JUMP JUMPDEST PUSH1 0x0 PUSH2 0x11B8 PUSH1 0x10 DUP4 PUSH2 0x1171 JUMP JUMPDEST SWAP2 POP PUSH2 0x11C3 DUP3 PUSH2 0x1182 JUMP JUMPDEST PUSH1 0x20 DUP3 ADD SWAP1 POP SWAP2 SWAP1 POP JUMP JUMPDEST PUSH1 0x0 PUSH1 0x20 DUP3 ADD SWAP1 POP DUP2 DUP2 SUB PUSH1 0x0 DUP4 ADD MSTORE PUSH2 0x11E7 DUP2 PUSH2 0x11AB JUMP JUMPDEST SWAP1 POP SWAP2 SWAP1 POP JUMP JUMPDEST PUSH1 0x0 PUSH1 0x40 DUP3 ADD SWAP1 POP PUSH2 0x1203 PUSH1 0x0 DUP4 ADD DUP6 PUSH2 0x1147 JUMP JUMPDEST PUSH2 0x1210 PUSH1 0x20 DUP4 ADD DUP5 PUSH2 0x101B JUMP JUMPDEST SWAP4 SWAP3 POP POP POP JUMP JUMPDEST PUSH32 0x4E487B7100000000000000000000000000000000000000000000000000000000 PUSH1 0x0 MSTORE PUSH1 0x11 PUSH1 0x4 MSTORE PUSH1 0x24 PUSH1 0x0 REVERT JUMPDEST PUSH1 0x0 PUSH2 0x1251 DUP3 PUSH2 0x1011 JUMP JUMPDEST SWAP2 POP PUSH2 0x125C DUP4 PUSH2 0x1011 JUMP JUMPDEST SWAP3 POP DUP3 DUP3 SUB SWAP1 POP DUP2 DUP2 GT ISZERO PUSH2 0x1274 JUMPI PUSH2 0x1273 PUSH2 0x1217 JUMP JUMPDEST JUMPDEST SWAP3 SWAP2 POP POP JUMP JUMPDEST PUSH1 0x0 PUSH2 0x1285 DUP3 PUSH2 0x1011 JUMP JUMPDEST SWAP2 POP PUSH2 0x1290 DUP4 PUSH2 0x1011 JUMP JUMPDEST SWAP3 POP DUP3 DUP3 MUL PUSH2 0x129E DUP2 PUSH2 0x1011 JUMP JUMPDEST SWAP2 POP DUP3 DUP3 DIV DUP5 EQ DUP4 ISZERO OR PUSH2 0x12B5 JUMPI PUSH2 0x12B4 PUSH2 0x1217 JUMP JUMPDEST JUMPDEST POP SWAP3 SWAP2 POP POP JUMP JUMPDEST PUSH32 0x41756374696F6E20616C726561647920656E6465640000000000000000000000 PUSH1 0x0 DUP3 ADD MSTORE POP JUMP JUMPDEST PUSH1 0x0 PUSH2 0x12F2 PUSH1 0x15 DUP4 PUSH2 0x1171 JUMP JUMPDEST SWAP2 POP PUSH2 0x12FD DUP3 PUSH2 0x12BC JUMP JUMPDEST PUSH1 0x20 DUP3 ADD SWAP1 POP SWAP2 SWAP1 POP JUMP JUMPDEST PUSH1 0x0 PUSH1 0x20 DUP3 ADD SWAP1 POP DUP2 DUP2 SUB PUSH1 0x0 DUP4 ADD MSTORE PUSH2 0x1321 DUP2 PUSH2 0x12E5 JUMP JUMPDEST SWAP1 POP SWAP2 SWAP1 POP JUMP JUMPDEST PUSH32 0x42696420616D6F756E74206D7573742062652067726561746572207468616E20 PUSH1 0x0 DUP3 ADD MSTORE PUSH32 0x3000000000000000000000000000000000000000000000000000000000000000 PUSH1 0x20 DUP3 ADD MSTORE POP JUMP JUMPDEST PUSH1 0x0 PUSH2 0x1384 PUSH1 0x21 DUP4 PUSH2 0x1171 JUMP JUMPDEST SWAP2 POP PUSH2 0x138F DUP3 PUSH2 0x1328 JUMP JUMPDEST PUSH1 0x40 DUP3 ADD SWAP1 POP SWAP2 SWAP1 POP JUMP JUMPDEST PUSH1 0x0 PUSH1 0x20 DUP3 ADD SWAP1 POP DUP2 DUP2 SUB PUSH1 0x0 DUP4 ADD MSTORE PUSH2 0x13B3 DUP2 PUSH2 0x1377 JUMP JUMPDEST SWAP1 POP SWAP2 SWAP1 POP JUMP JUMPDEST PUSH32 0x42696420616D6F756E742069732062656C6F772063757272656E742068696768 PUSH1 0x0 DUP3 ADD MSTORE PUSH32 0x6573742042696400000000000000000000000000000000000000000000000000 PUSH1 0x20 DUP3 ADD MSTORE POP JUMP JUMPDEST PUSH1 0x0 PUSH2 0x1416 PUSH1 0x27 DUP4 PUSH2 0x1171 JUMP JUMPDEST SWAP2 POP PUSH2 0x1421 DUP3 PUSH2 0x13BA JUMP JUMPDEST PUSH1 0x40 DUP3 ADD SWAP1 POP SWAP2 SWAP1 POP JUMP JUMPDEST PUSH1 0x0 PUSH1 0x20 DUP3 ADD SWAP1 POP DUP2 DUP2 SUB PUSH1 0x0 DUP4 ADD MSTORE PUSH2 0x1445 DUP2 PUSH2 0x1409 JUMP JUMPDEST SWAP1 POP SWAP2 SWAP1 POP JUMP JUMPDEST PUSH1 0x0 PUSH2 0x1457 DUP3 PUSH2 0x1011 JUMP JUMPDEST SWAP2 POP PUSH2 0x1462 DUP4 PUSH2 0x1011 JUMP JUMPDEST SWAP3 POP DUP3 DUP3 ADD SWAP1 POP DUP1 DUP3 GT ISZERO PUSH2 0x147A JUMPI PUSH2 0x1479 PUSH2 0x1217 JUMP JUMPDEST JUMPDEST SWAP3 SWAP2 POP POP JUMP JUMPDEST PUSH1 0x0 DUP2 SWAP1 POP SWAP2 SWAP1 POP JUMP JUMPDEST PUSH1 0x0 DUP2 SWAP1 POP SWAP2 SWAP1 POP JUMP JUMPDEST PUSH1 0x0 PUSH2 0x14AF PUSH2 0x14AA PUSH2 0x14A5 DUP5 PUSH2 0x1480 JUMP JUMPDEST PUSH2 0x148A JUMP JUMPDEST PUSH2 0x1011 JUMP JUMPDEST SWAP1 POP SWAP2 SWAP1 POP JUMP JUMPDEST PUSH2 0x14BF DUP2 PUSH2 0x1494 JUMP JUMPDEST DUP3 MSTORE POP POP JUMP JUMPDEST PUSH1 0x0 PUSH1 0x40 DUP3 ADD SWAP1 POP PUSH2 0x14DA PUSH1 0x0 DUP4 ADD DUP6 PUSH2 0x1147 JUMP JUMPDEST PUSH2 0x14E7 PUSH1 0x20 DUP4 ADD DUP5 PUSH2 0x14B6 JUMP JUMPDEST SWAP4 SWAP3 POP POP POP JUMP INVALID LOG2 PUSH5 0x6970667358 0x22 SLT KECCAK256 CALLCODE SWAP11 MOD PUSH18 0x53B7D14A6DEC18ED48679160110FC738EAD6 0xB5 0xD0 PUSH17 0x6BD5B4C44D57D264736F6C634300081200 CALLER "},"methodIdentifiers":{"auctionEnded()":"86433374","bids(address)":"62ea82db","endAuction()":"fe67a54b","endBlock()":"083c6323","getCurrentPrice()":"eb91d37e","highestBid()":"d57bde79","highestBidder()":"91f90157","initialPrice()":"1d0806ae","itemSold()":"438e897a","numBlocksAuctionOpen()":"3103ea62","offerPriceDecrement()":"d3642a88","placeBid()":"ecfc7ecc","refundBid(address)":"385e3155","reservePrice()":"db2e1eed","seller()":"08551a53","startBlock()":"48cd4cb1"}}}}}