{
  "_format": "hh-sol-artifact-1",
  "contractName": "NFTDutchAuction",
  "sourceName": "contracts/NFTDutchAuction.sol",
  "abi": [
    {
      "inputs": [
        {
          "internalType": "address",
          "name": "_erc721TokenAddress",
          "type": "address"
        },
        {
          "internalType": "uint256",
          "name": "_nftTokenId",
          "type": "uint256"
        },
        {
          "internalType": "uint256",
          "name": "_reservePrice",
          "type": "uint256"
        },
        {
          "internalType": "uint256",
          "name": "_numBlocksAuctionOpen",
          "type": "uint256"
        },
        {
          "internalType": "uint256",
          "name": "_offerPriceDecrement",
          "type": "uint256"
        }
      ],
      "stateMutability": "nonpayable",
      "type": "constructor"
    },
    {
      "anonymous": false,
      "inputs": [
        {
          "indexed": true,
          "internalType": "address",
          "name": "winner",
          "type": "address"
        },
        {
          "indexed": false,
          "internalType": "uint256",
          "name": "winningBidAmount",
          "type": "uint256"
        }
      ],
      "name": "AuctionEnded",
      "type": "event"
    },
    {
      "anonymous": false,
      "inputs": [
        {
          "indexed": true,
          "internalType": "address",
          "name": "bidder",
          "type": "address"
        },
        {
          "indexed": false,
          "internalType": "uint256",
          "name": "bidAmount",
          "type": "uint256"
        }
      ],
      "name": "BidPlaced",
      "type": "event"
    },
    {
      "inputs": [],
      "name": "auctionEnded",
      "outputs": [
        {
          "internalType": "bool",
          "name": "",
          "type": "bool"
        }
      ],
      "stateMutability": "view",
      "type": "function"
    },
    {
      "inputs": [],
      "name": "auctionStartTime",
      "outputs": [
        {
          "internalType": "uint256",
          "name": "",
          "type": "uint256"
        }
      ],
      "stateMutability": "view",
      "type": "function"
    },
    {
      "inputs": [
        {
          "internalType": "address",
          "name": "",
          "type": "address"
        }
      ],
      "name": "bids",
      "outputs": [
        {
          "internalType": "uint256",
          "name": "",
          "type": "uint256"
        }
      ],
      "stateMutability": "view",
      "type": "function"
    },
    {
      "inputs": [],
      "name": "endAuction",
      "outputs": [],
      "stateMutability": "nonpayable",
      "type": "function"
    },
    {
      "inputs": [],
      "name": "erc721TokenAddress",
      "outputs": [
        {
          "internalType": "address",
          "name": "",
          "type": "address"
        }
      ],
      "stateMutability": "view",
      "type": "function"
    },
    {
      "inputs": [],
      "name": "highestBid",
      "outputs": [
        {
          "internalType": "uint256",
          "name": "",
          "type": "uint256"
        }
      ],
      "stateMutability": "view",
      "type": "function"
    },
    {
      "inputs": [],
      "name": "highestBidder",
      "outputs": [
        {
          "internalType": "address",
          "name": "",
          "type": "address"
        }
      ],
      "stateMutability": "view",
      "type": "function"
    },
    {
      "inputs": [],
      "name": "initialPrice",
      "outputs": [
        {
          "internalType": "uint256",
          "name": "",
          "type": "uint256"
        }
      ],
      "stateMutability": "view",
      "type": "function"
    },
    {
      "inputs": [],
      "name": "itemSold",
      "outputs": [
        {
          "internalType": "bool",
          "name": "",
          "type": "bool"
        }
      ],
      "stateMutability": "view",
      "type": "function"
    },
    {
      "inputs": [],
      "name": "nftTokenId",
      "outputs": [
        {
          "internalType": "uint256",
          "name": "",
          "type": "uint256"
        }
      ],
      "stateMutability": "view",
      "type": "function"
    },
    {
      "inputs": [],
      "name": "numBlocksAuctionOpen",
      "outputs": [
        {
          "internalType": "uint256",
          "name": "",
          "type": "uint256"
        }
      ],
      "stateMutability": "view",
      "type": "function"
    },
    {
      "inputs": [],
      "name": "offerPriceDecrement",
      "outputs": [
        {
          "internalType": "uint256",
          "name": "",
          "type": "uint256"
        }
      ],
      "stateMutability": "view",
      "type": "function"
    },
    {
      "inputs": [],
      "name": "owner",
      "outputs": [
        {
          "internalType": "address payable",
          "name": "",
          "type": "address"
        }
      ],
      "stateMutability": "view",
      "type": "function"
    },
    {
      "inputs": [],
      "name": "placeBid",
      "outputs": [],
      "stateMutability": "payable",
      "type": "function"
    },
    {
      "inputs": [
        {
          "internalType": "address",
          "name": "bidder",
          "type": "address"
        }
      ],
      "name": "refundBidders",
      "outputs": [],
      "stateMutability": "nonpayable",
      "type": "function"
    },
    {
      "inputs": [],
      "name": "reservePrice",
      "outputs": [
        {
          "internalType": "uint256",
          "name": "",
          "type": "uint256"
        }
      ],
      "stateMutability": "view",
      "type": "function"
    }
  ],
  "bytecode": "0x60c06040523480156200001157600080fd5b50604051620020be380380620020be8339818101604052810190620000379190620004c5565b6200005367c378e9c6742fb0d560c01b6200041d60201b60201c565b6200006f67cacfd7642307676d60c01b6200041d60201b60201c565b3373ffffffffffffffffffffffffffffffffffffffff1660a08173ffffffffffffffffffffffffffffffffffffffff1681525050620000bf67456b458a931c3a0360c01b6200041d60201b60201c565b846000806101000a81548173ffffffffffffffffffffffffffffffffffffffff021916908373ffffffffffffffffffffffffffffffffffffffff1602179055506200011b676bee6fef74c1de6160c01b6200041d60201b60201c565b836001819055506200013e67f841cb534ea2027c60c01b6200041d60201b60201c565b8260028190555062000161679fa420c0f201babb60c01b6200041d60201b60201c565b816003819055506200018467670aaba0712419cc60c01b6200041d60201b60201c565b80600481905550620001a7677f7a8957eec900e860c01b6200041d60201b60201c565b600454600354620001b991906200057c565b600254620001c89190620005c7565b600581905550620001ea6716986369a8719e7260c01b6200041d60201b60201c565b43600a819055506200020d67e0d03e358429947c60c01b6200041d60201b60201c565b6000600660006101000a81548160ff0219169083151502179055506200024467efed09bd2ad9735060c01b6200041d60201b60201c565b6000600660016101000a81548160ff0219169083151502179055506200027b670f2caa274d3fef1660c01b6200041d60201b60201c565b8473ffffffffffffffffffffffffffffffffffffffff1660808173ffffffffffffffffffffffffffffffffffffffff1681525050620002cb6711a863b73a749e1660c01b6200041d60201b60201c565b620002e767d80cab3db01ca84760c01b6200041d60201b60201c565b6200030367b68d70060c3a414e60c01b6200041d60201b60201c565b60a05173ffffffffffffffffffffffffffffffffffffffff1660805173ffffffffffffffffffffffffffffffffffffffff16636352211e866040518263ffffffff1660e01b815260040162000359919062000613565b602060405180830381865afa15801562000377573d6000803e3d6000fd5b505050506040513d601f19601f820116820180604052508101906200039d919062000630565b73ffffffffffffffffffffffffffffffffffffffff1614620003f6576040517f08c379a0000000000000000000000000000000000000000000000000000000008152600401620003ed90620006e9565b60405180910390fd5b6200041267751a910e625dfc3460c01b6200041d60201b60201c565b50505050506200070b565b50565b600080fd5b600073ffffffffffffffffffffffffffffffffffffffff82169050919050565b6000620004528262000425565b9050919050565b620004648162000445565b81146200047057600080fd5b50565b600081519050620004848162000459565b92915050565b6000819050919050565b6200049f816200048a565b8114620004ab57600080fd5b50565b600081519050620004bf8162000494565b92915050565b600080600080600060a08688031215620004e457620004e362000420565b5b6000620004f48882890162000473565b95505060206200050788828901620004ae565b94505060406200051a88828901620004ae565b93505060606200052d88828901620004ae565b92505060806200054088828901620004ae565b9150509295509295909350565b7f4e487b7100000000000000000000000000000000000000000000000000000000600052601160045260246000fd5b600062000589826200048a565b915062000596836200048a565b9250828202620005a6816200048a565b91508282048414831517620005c057620005bf6200054d565b5b5092915050565b6000620005d4826200048a565b9150620005e1836200048a565b9250828201905080821115620005fc57620005fb6200054d565b5b92915050565b6200060d816200048a565b82525050565b60006020820190506200062a600083018462000602565b92915050565b60006020828403121562000649576200064862000420565b5b6000620006598482850162000473565b91505092915050565b600082825260208201905092915050565b7f4e465420746f6b656e20496420646f6573206e6f742062656c6f6e6720746f2060008201527f7468652041756374696f6e2773204f776e657200000000000000000000000000602082015250565b6000620006d160338362000662565b9150620006de8262000673565b604082019050919050565b600060208201905081810360008301526200070481620006c2565b9050919050565b60805160a0516119826200073c6000396000818161077201528181610eb501526112470152600050506119826000f3fe6080604052600436106100f35760003560e01c806391f901571161008a578063df241cb911610059578063df241cb91461030c578063eb54f9ec14610337578063ecfc7ecc14610362578063fe67a54b1461036c576100f3565b806391f9015714610260578063d3642a881461028b578063d57bde79146102b6578063db2e1eed146102e1576100f3565b806362ea82db116100c657806362ea82db146101a25780637e830574146101df578063864333741461020a5780638da5cb5b14610235576100f3565b80631d0806ae146100f85780632bf0d538146101235780633103ea621461014c578063438e897a14610177575b600080fd5b34801561010457600080fd5b5061010d610383565b60405161011a91906113ea565b60405180910390f35b34801561012f57600080fd5b5061014a60048036038101906101459190611468565b610389565b005b34801561015857600080fd5b50610161610726565b60405161016e91906113ea565b60405180910390f35b34801561018357600080fd5b5061018c61072c565b60405161019991906114b0565b60405180910390f35b3480156101ae57600080fd5b506101c960048036038101906101c49190611468565b61073f565b6040516101d691906113ea565b60405180910390f35b3480156101eb57600080fd5b506101f4610757565b60405161020191906113ea565b60405180910390f35b34801561021657600080fd5b5061021f61075d565b60405161022c91906114b0565b60405180910390f35b34801561024157600080fd5b5061024a610770565b60405161025791906114ec565b60405180910390f35b34801561026c57600080fd5b50610275610794565b6040516102829190611516565b60405180910390f35b34801561029757600080fd5b506102a06107ba565b6040516102ad91906113ea565b60405180910390f35b3480156102c257600080fd5b506102cb6107c0565b6040516102d891906113ea565b60405180910390f35b3480156102ed57600080fd5b506102f66107c6565b60405161030391906113ea565b60405180910390f35b34801561031857600080fd5b506103216107cc565b60405161032e9190611516565b60405180910390f35b34801561034357600080fd5b5061034c6107f0565b60405161035991906113ea565b60405180910390f35b61036a6107f6565b005b34801561037857600080fd5b50610381610c6c565b005b60055481565b61039d67aea3fd878e1a3ffe60c01b6113ce565b6103b167fd7f6ee4e914b39160c01b6113ce565b6103c56749bd24748cfee88960c01b6113ce565b6103d9675274fcd00819c49560c01b6113ce565b600660009054906101000a900460ff16610428576040517f08c379a000000000000000000000000000000000000000000000000000000000815260040161041f9061158e565b60405180910390fd5b61043c67a46eb6afa2e8b16360c01b6113ce565b610450677cbfa2364f51074760c01b6113ce565b610464675d0d8ba31a37a37660c01b6113ce565b61047867dfeec03431a18a8f60c01b6113ce565b600860009054906101000a900473ffffffffffffffffffffffffffffffffffffffff1673ffffffffffffffffffffffffffffffffffffffff168173ffffffffffffffffffffffffffffffffffffffff1603610508576040517f08c379a00000000000000000000000000000000000000000000000000000000081526004016104ff906115fa565b60405180910390fd5b61051c67b833ebce4f2401a560c01b6113ce565b61053067290d23d5314f4cfa60c01b6113ce565b61054467534173061df8e46260c01b6113ce565b610558671bf1f0722b74e46160c01b6113ce565b6000600760008373ffffffffffffffffffffffffffffffffffffffff1673ffffffffffffffffffffffffffffffffffffffff16815260200190815260200160002054116105da576040517f08c379a00000000000000000000000000000000000000000000000000000000081526004016105d190611666565b60405180910390fd5b6105ee6758f08b86d5e1f92360c01b6113ce565b6106026793784b1b0c265d5260c01b6113ce565b61061667992811b5ba6cb56560c01b6113ce565b6000600760008373ffffffffffffffffffffffffffffffffffffffff1673ffffffffffffffffffffffffffffffffffffffff16815260200190815260200160002054905061066e672cf602e7db3ba01a60c01b6113ce565b6000600760008473ffffffffffffffffffffffffffffffffffffffff1673ffffffffffffffffffffffffffffffffffffffff168152602001908152602001600020819055506106c76702664fdaf66dc48760c01b6113ce565b6106db67b1b5c2c44c3d3ed660c01b6113ce565b8173ffffffffffffffffffffffffffffffffffffffff166108fc829081150290604051600060405180830381858888f19350505050158015610721573d6000803e3d6000fd5b505050565b60035481565b600660019054906101000a900460ff1681565b60076020528060005260406000206000915090505481565b60015481565b600660009054906101000a900460ff1681565b7f000000000000000000000000000000000000000000000000000000000000000081565b600860009054906101000a900473ffffffffffffffffffffffffffffffffffffffff1681565b60045481565b60095481565b60025481565b60008054906101000a900473ffffffffffffffffffffffffffffffffffffffff1681565b600a5481565b61080a67e0e6f975634f069d60c01b6113ce565b61081e6717ddd9ca683449ba60c01b6113ce565b6108326760a4696d07b569db60c01b6113ce565b6108466799132cc59646a11360c01b6113ce565b60003411610889576040517f08c379a0000000000000000000000000000000000000000000000000000000008152600401610880906116f8565b60405180910390fd5b61089d6764f5bb1d560f754760c01b6113ce565b6108b167db3a0c51bc6fa22260c01b6113ce565b6108c567bafb7e8eb3faf23260c01b6113ce565b6108d96713614d867ce9296c60c01b6113ce565b600660009054906101000a900460ff1615610929576040517f08c379a000000000000000000000000000000000000000000000000000000000815260040161092090611764565b60405180910390fd5b61093d67c45e469c58d077b160c01b6113ce565b610951677bed8d8e326cd63460c01b6113ce565b61096567a8d9606ac46620de60c01b6113ce565b600954341115610ae65761098367e54bd331fec7a05660c01b6113ce565b61099767f68ed78e521a1f3360c01b6113ce565b6109ab67ede4f828028de39760c01b6113ce565b600060095414610a5c576109c967fa10fe7d0c225a0160c01b6113ce565b6109dd67bf19c603e548d64e60c01b6113ce565b60095460076000600860009054906101000a900473ffffffffffffffffffffffffffffffffffffffff1673ffffffffffffffffffffffffffffffffffffffff1673ffffffffffffffffffffffffffffffffffffffff1681526020019081526020016000206000828254610a5091906117b3565b92505081905550610a71565b610a7067d12af68bde12304860c01b6113ce565b5b610a8567b1888aaa325a409260c01b6113ce565b33600860006101000a81548173ffffffffffffffffffffffffffffffffffffffff021916908373ffffffffffffffffffffffffffffffffffffffff160217905550610ada6759034b234613fc2f60c01b6113ce565b34600981905550610b65565b610afa67bb2e00365746679160c01b6113ce565b610b0e677e03aa670be44c1c60c01b6113ce565b34600760003373ffffffffffffffffffffffffffffffffffffffff1673ffffffffffffffffffffffffffffffffffffffff1681526020019081526020016000206000828254610b5d91906117b3565b925050819055505b610b7967e505c8767e0023b960c01b6113ce565b610b8d67f24fc08042ab918660c01b6113ce565b3373ffffffffffffffffffffffffffffffffffffffff167f3fabff0a9c3ecd6814702e247fa9733e5d0aa69e3a38590f92cb18f623a2254d34604051610bd391906113ea565b60405180910390a2610bef6763cc44d95813cfae60c01b6113ce565b610c0367aa184216a1c674c760c01b6113ce565b6005543410610c5557610c20675f791f0c891dad0260c01b6113ce565b610c3467c04e719205bfda3560c01b6113ce565b610c4867f062f2dd2599a5a760c01b6113ce565b610c50610c6c565b610c6a565b610c6967f0830688d0ed510d60c01b6113ce565b5b565b610c80679b17740edcaaa95060c01b6113ce565b610c94679424089a730798ae60c01b6113ce565b610ca8678efe51df2cc7d78860c01b6113ce565b610cbc67a371e2adec9c8cae60c01b6113ce565b600660009054906101000a900460ff1615610d0c576040517f08c379a0000000000000000000000000000000000000000000000000000000008152600401610d0390611764565b60405180910390fd5b610d20674d03bd55629778cb60c01b6113ce565b610d346732a12072579905d360c01b6113ce565b6001600660006101000a81548160ff021916908315150217905550610d63678876d38d4f8e806860c01b6113ce565b6001600660016101000a81548160ff021916908315150217905550610d926740d0ee10e91516e360c01b6113ce565b610da6672c3db7e5df23679960c01b6113ce565b600073ffffffffffffffffffffffffffffffffffffffff16600860009054906101000a900473ffffffffffffffffffffffffffffffffffffffff1673ffffffffffffffffffffffffffffffffffffffff161461113157610e10672b3522eaec12841560c01b6113ce565b610e246785d09f47537c3a6260c01b6113ce565b600060076000600860009054906101000a900473ffffffffffffffffffffffffffffffffffffffff1673ffffffffffffffffffffffffffffffffffffffff1673ffffffffffffffffffffffffffffffffffffffff16815260200190815260200160002081905550610e9f67df0ca83320e1d4fa60c01b6113ce565b610eb367847f50fda90f500360c01b6113ce565b7f000000000000000000000000000000000000000000000000000000000000000073ffffffffffffffffffffffffffffffffffffffff166108fc6009549081150290604051600060405180830381858888f19350505050158015610f1b573d6000803e3d6000fd5b50610f306708165b97bb6653a760c01b6113ce565b610f4467c0104ab99f7d9e8560c01b6113ce565b60008054906101000a900473ffffffffffffffffffffffffffffffffffffffff1673ffffffffffffffffffffffffffffffffffffffff166342842e0e60008054906101000a900473ffffffffffffffffffffffffffffffffffffffff1673ffffffffffffffffffffffffffffffffffffffff16636352211e6001546040518263ffffffff1660e01b8152600401610fdb91906113ea565b602060405180830381865afa158015610ff8573d6000803e3d6000fd5b505050506040513d601f19601f8201168201806040525081019061101c91906117fc565b600860009054906101000a900473ffffffffffffffffffffffffffffffffffffffff166001546040518463ffffffff1660e01b815260040161106093929190611829565b600060405180830381600087803b15801561107a57600080fd5b505af115801561108e573d6000803e3d6000fd5b505050506110a6670c5cf843cd3dc96b60c01b6113ce565b6110ba675ea22417ea2ec71960c01b6113ce565b600860009054906101000a900473ffffffffffffffffffffffffffffffffffffffff1673ffffffffffffffffffffffffffffffffffffffff167fdaec4582d5d9595688c8c98545fdd1c696d41c6aeaeb636737e84ed2f5c00eda60095460405161112491906113ea565b60405180910390a2611332565b61114567ba806f10bb55b68260c01b6113ce565b611159671df43acf4929726860c01b6113ce565b61116d6733b5b6b9f328657860c01b6113ce565b60008054906101000a900473ffffffffffffffffffffffffffffffffffffffff1673ffffffffffffffffffffffffffffffffffffffff166342842e0e60008054906101000a900473ffffffffffffffffffffffffffffffffffffffff1673ffffffffffffffffffffffffffffffffffffffff16636352211e6001546040518263ffffffff1660e01b815260040161120491906113ea565b602060405180830381865afa158015611221573d6000803e3d6000fd5b505050506040513d601f19601f8201168201806040525081019061124591906117fc565b7f00000000000000000000000000000000000000000000000000000000000000006001546040518463ffffffff1660e01b8152600401611287939291906118bf565b600060405180830381600087803b1580156112a157600080fd5b505af11580156112b5573d6000803e3d6000fd5b505050506112cd678eaa7207be1b117a60c01b6113ce565b6112e167dc60f759db54f97660c01b6113ce565b600073ffffffffffffffffffffffffffffffffffffffff167fdaec4582d5d9595688c8c98545fdd1c696d41c6aeaeb636737e84ed2f5c00eda60006040516113299190611931565b60405180910390a25b61134667b976c9810bdf03c060c01b6113ce565b61135a67763e0244201a41a460c01b6113ce565b600860009054906101000a900473ffffffffffffffffffffffffffffffffffffffff1673ffffffffffffffffffffffffffffffffffffffff167fdaec4582d5d9595688c8c98545fdd1c696d41c6aeaeb636737e84ed2f5c00eda6009546040516113c491906113ea565b60405180910390a2565b50565b6000819050919050565b6113e4816113d1565b82525050565b60006020820190506113ff60008301846113db565b92915050565b600080fd5b600073ffffffffffffffffffffffffffffffffffffffff82169050919050565b60006114358261140a565b9050919050565b6114458161142a565b811461145057600080fd5b50565b6000813590506114628161143c565b92915050565b60006020828403121561147e5761147d611405565b5b600061148c84828501611453565b91505092915050565b60008115159050919050565b6114aa81611495565b82525050565b60006020820190506114c560008301846114a1565b92915050565b60006114d68261140a565b9050919050565b6114e6816114cb565b82525050565b600060208201905061150160008301846114dd565b92915050565b6115108161142a565b82525050565b600060208201905061152b6000830184611507565b92915050565b600082825260208201905092915050565b7f41756374696f6e20686173206e6f7420656e6465642079657400000000000000600082015250565b6000611578601983611531565b915061158382611542565b602082019050919050565b600060208201905081810360008301526115a78161156b565b9050919050565b7f48696768657374206269646465722063616e6e6f7420726566756e6400000000600082015250565b60006115e4601c83611531565b91506115ef826115ae565b602082019050919050565b60006020820190508181036000830152611613816115d7565b9050919050565b7f4e6f2062696420746f20726566756e6400000000000000000000000000000000600082015250565b6000611650601083611531565b915061165b8261161a565b602082019050919050565b6000602082019050818103600083015261167f81611643565b9050919050565b7f42696420616d6f756e74206d7573742062652067726561746572207468616e2060008201527f7a65726f00000000000000000000000000000000000000000000000000000000602082015250565b60006116e2602483611531565b91506116ed82611686565b604082019050919050565b60006020820190508181036000830152611711816116d5565b9050919050565b7f41756374696f6e2068617320616c726561647920656e64656400000000000000600082015250565b600061174e601983611531565b915061175982611718565b602082019050919050565b6000602082019050818103600083015261177d81611741565b9050919050565b7f4e487b7100000000000000000000000000000000000000000000000000000000600052601160045260246000fd5b60006117be826113d1565b91506117c9836113d1565b92508282019050808211156117e1576117e0611784565b5b92915050565b6000815190506117f68161143c565b92915050565b60006020828403121561181257611811611405565b5b6000611820848285016117e7565b91505092915050565b600060608201905061183e6000830186611507565b61184b6020830185611507565b61185860408301846113db565b949350505050565b6000819050919050565b600061188561188061187b8461140a565b611860565b61140a565b9050919050565b60006118978261186a565b9050919050565b60006118a98261188c565b9050919050565b6118b98161189e565b82525050565b60006060820190506118d46000830186611507565b6118e160208301856118b0565b6118ee60408301846113db565b949350505050565b6000819050919050565b600061191b611916611911846118f6565b611860565b6113d1565b9050919050565b61192b81611900565b82525050565b60006020820190506119466000830184611922565b9291505056fea26469706673582212200c2232dfcd3f0475ba9c9cee7febc9e54a2a6da87d2c4e730022b1a3005ed94d64736f6c63430008120033",
  "linkReferences": {},
  "deployedLinkReferences": {}
}