{
  "_format": "hh-sol-artifact-1",
  "contractName": "NFTDutchAuction",
  "sourceName": "contracts/NFTDutchAuction.sol",
  "abi": [
    {
      "inputs": [
        {
          "internalType": "address",
          "name": "_erc721TokenAddress",
          "type": "address"
        },
        {
          "internalType": "uint256",
          "name": "_nftTokenId",
          "type": "uint256"
        },
        {
          "internalType": "uint256",
          "name": "_reservePrice",
          "type": "uint256"
        },
        {
          "internalType": "uint256",
          "name": "_numBlocksAuctionOpen",
          "type": "uint256"
        },
        {
          "internalType": "uint256",
          "name": "_offerPriceDecrement",
          "type": "uint256"
        }
      ],
      "stateMutability": "nonpayable",
      "type": "constructor"
    },
    {
      "anonymous": false,
      "inputs": [
        {
          "indexed": true,
          "internalType": "address",
          "name": "winner",
          "type": "address"
        },
        {
          "indexed": false,
          "internalType": "uint256",
          "name": "winningBidAmount",
          "type": "uint256"
        }
      ],
      "name": "AuctionEnded",
      "type": "event"
    },
    {
      "anonymous": false,
      "inputs": [
        {
          "indexed": true,
          "internalType": "address",
          "name": "bidder",
          "type": "address"
        },
        {
          "indexed": false,
          "internalType": "uint256",
          "name": "bidAmount",
          "type": "uint256"
        }
      ],
      "name": "BidPlaced",
      "type": "event"
    },
    {
      "inputs": [],
      "name": "auctionEnded",
      "outputs": [
        {
          "internalType": "bool",
          "name": "",
          "type": "bool"
        }
      ],
      "stateMutability": "view",
      "type": "function"
    },
    {
      "inputs": [],
      "name": "auctionStartTime",
      "outputs": [
        {
          "internalType": "uint256",
          "name": "",
          "type": "uint256"
        }
      ],
      "stateMutability": "view",
      "type": "function"
    },
    {
      "inputs": [
        {
          "internalType": "uint256",
          "name": "",
          "type": "uint256"
        }
      ],
      "name": "bidderAddresses",
      "outputs": [
        {
          "internalType": "address",
          "name": "",
          "type": "address"
        }
      ],
      "stateMutability": "view",
      "type": "function"
    },
    {
      "inputs": [
        {
          "internalType": "address",
          "name": "",
          "type": "address"
        }
      ],
      "name": "bids",
      "outputs": [
        {
          "internalType": "uint256",
          "name": "",
          "type": "uint256"
        }
      ],
      "stateMutability": "view",
      "type": "function"
    },
    {
      "inputs": [],
      "name": "endAuction",
      "outputs": [],
      "stateMutability": "nonpayable",
      "type": "function"
    },
    {
      "inputs": [],
      "name": "erc721TokenAddress",
      "outputs": [
        {
          "internalType": "address",
          "name": "",
          "type": "address"
        }
      ],
      "stateMutability": "view",
      "type": "function"
    },
    {
      "inputs": [],
      "name": "initialPrice",
      "outputs": [
        {
          "internalType": "uint256",
          "name": "",
          "type": "uint256"
        }
      ],
      "stateMutability": "view",
      "type": "function"
    },
    {
      "inputs": [],
      "name": "itemSold",
      "outputs": [
        {
          "internalType": "bool",
          "name": "",
          "type": "bool"
        }
      ],
      "stateMutability": "view",
      "type": "function"
    },
    {
      "inputs": [],
      "name": "nftTokenId",
      "outputs": [
        {
          "internalType": "uint256",
          "name": "",
          "type": "uint256"
        }
      ],
      "stateMutability": "view",
      "type": "function"
    },
    {
      "inputs": [],
      "name": "numBlocksAuctionOpen",
      "outputs": [
        {
          "internalType": "uint256",
          "name": "",
          "type": "uint256"
        }
      ],
      "stateMutability": "view",
      "type": "function"
    },
    {
      "inputs": [],
      "name": "offerPriceDecrement",
      "outputs": [
        {
          "internalType": "uint256",
          "name": "",
          "type": "uint256"
        }
      ],
      "stateMutability": "view",
      "type": "function"
    },
    {
      "inputs": [],
      "name": "owner",
      "outputs": [
        {
          "internalType": "address",
          "name": "",
          "type": "address"
        }
      ],
      "stateMutability": "view",
      "type": "function"
    },
    {
      "inputs": [],
      "name": "placeBid",
      "outputs": [],
      "stateMutability": "payable",
      "type": "function"
    },
    {
      "inputs": [],
      "name": "reservePrice",
      "outputs": [
        {
          "internalType": "uint256",
          "name": "",
          "type": "uint256"
        }
      ],
      "stateMutability": "view",
      "type": "function"
    }
  ],
  "bytecode": "0x60806040523480156200001157600080fd5b50604051620015de380380620015de8339818101604052810190620000379190620001e8565b336000806101000a81548173ffffffffffffffffffffffffffffffffffffffff021916908373ffffffffffffffffffffffffffffffffffffffff16021790555084600160006101000a81548173ffffffffffffffffffffffffffffffffffffffff021916908373ffffffffffffffffffffffffffffffffffffffff16021790555083600281905550826003819055508160048190555080600581905550600554600454620000e691906200029f565b600354620000f59190620002ea565b60068190555043600a819055506000600760006101000a81548160ff0219169083151502179055506000600760016101000a81548160ff021916908315150217905550505050505062000325565b600080fd5b600073ffffffffffffffffffffffffffffffffffffffff82169050919050565b6000620001758262000148565b9050919050565b620001878162000168565b81146200019357600080fd5b50565b600081519050620001a7816200017c565b92915050565b6000819050919050565b620001c281620001ad565b8114620001ce57600080fd5b50565b600081519050620001e281620001b7565b92915050565b600080600080600060a0868803121562000207576200020662000143565b5b6000620002178882890162000196565b95505060206200022a88828901620001d1565b94505060406200023d88828901620001d1565b93505060606200025088828901620001d1565b92505060806200026388828901620001d1565b9150509295509295909350565b7f4e487b7100000000000000000000000000000000000000000000000000000000600052601160045260246000fd5b6000620002ac82620001ad565b9150620002b983620001ad565b9250828202620002c981620001ad565b91508282048414831517620002e357620002e262000270565b5b5092915050565b6000620002f782620001ad565b91506200030483620001ad565b92508282019050808211156200031f576200031e62000270565b5b92915050565b6112a980620003356000396000f3fe6080604052600436106100dd5760003560e01c80638da5cb5b1161007f578063df241cb911610059578063df241cb9146102b4578063eb54f9ec146102df578063ecfc7ecc1461030a578063fe67a54b14610314576100dd565b80638da5cb5b14610233578063d3642a881461025e578063db2e1eed14610289576100dd565b8063438e897a116100bb578063438e897a1461017557806362ea82db146101a05780637e830574146101dd5780638643337414610208576100dd565b80631d0806ae146100e25780632fb3c48f1461010d5780633103ea621461014a575b600080fd5b3480156100ee57600080fd5b506100f761032b565b6040516101049190610c69565b60405180910390f35b34801561011957600080fd5b50610134600480360381019061012f9190610cb5565b610331565b6040516101419190610d23565b60405180910390f35b34801561015657600080fd5b5061015f610370565b60405161016c9190610c69565b60405180910390f35b34801561018157600080fd5b5061018a610376565b6040516101979190610d59565b60405180910390f35b3480156101ac57600080fd5b506101c760048036038101906101c29190610da0565b610389565b6040516101d49190610c69565b60405180910390f35b3480156101e957600080fd5b506101f26103a1565b6040516101ff9190610c69565b60405180910390f35b34801561021457600080fd5b5061021d6103a7565b60405161022a9190610d59565b60405180910390f35b34801561023f57600080fd5b506102486103ba565b6040516102559190610d23565b60405180910390f35b34801561026a57600080fd5b506102736103de565b6040516102809190610c69565b60405180910390f35b34801561029557600080fd5b5061029e6103e4565b6040516102ab9190610c69565b60405180910390f35b3480156102c057600080fd5b506102c96103ea565b6040516102d69190610d23565b60405180910390f35b3480156102eb57600080fd5b506102f4610410565b6040516103019190610c69565b60405180910390f35b610312610416565b005b34801561032057600080fd5b506103296105bc565b005b60065481565b6009818154811061034157600080fd5b906000526020600020016000915054906101000a900473ffffffffffffffffffffffffffffffffffffffff1681565b60045481565b600760019054906101000a900460ff1681565b60086020528060005260406000206000915090505481565b60025481565b600760009054906101000a900460ff1681565b60008054906101000a900473ffffffffffffffffffffffffffffffffffffffff1681565b60055481565b60035481565b600160009054906101000a900473ffffffffffffffffffffffffffffffffffffffff1681565b600a5481565b60003411610459576040517f08c379a000000000000000000000000000000000000000000000000000000000815260040161045090610e50565b60405180910390fd5b6000600860003373ffffffffffffffffffffffffffffffffffffffff1673ffffffffffffffffffffffffffffffffffffffff1681526020019081526020016000205403610504576009339080600181540180825580915050600190039060005260206000200160009091909190916101000a81548173ffffffffffffffffffffffffffffffffffffffff021916908373ffffffffffffffffffffffffffffffffffffffff1602179055505b34600860003373ffffffffffffffffffffffffffffffffffffffff1673ffffffffffffffffffffffffffffffffffffffff16815260200190815260200160002060008282546105539190610e9f565b925050819055503373ffffffffffffffffffffffffffffffffffffffff167f3fabff0a9c3ecd6814702e247fa9733e5d0aa69e3a38590f92cb18f623a2254d346040516105a09190610c69565b60405180910390a260065434106105ba576105b96105bc565b5b565b60006105c6610789565b9050600073ffffffffffffffffffffffffffffffffffffffff168173ffffffffffffffffffffffffffffffffffffffff1603610637576040517f08c379a000000000000000000000000000000000000000000000000000000000815260040161062e90610f1f565b60405180910390fd5b6000600860008373ffffffffffffffffffffffffffffffffffffffff1673ffffffffffffffffffffffffffffffffffffffff1681526020019081526020016000205490506003548110156106c0576040517f08c379a00000000000000000000000000000000000000000000000000000000081526004016106b790610f8b565b60405180910390fd5b6106ea60008054906101000a900473ffffffffffffffffffffffffffffffffffffffff16826108e4565b6106f26109d8565b600160009054906101000a900473ffffffffffffffffffffffffffffffffffffffff1673ffffffffffffffffffffffffffffffffffffffff166323b872dd30846002546040518463ffffffff1660e01b815260040161075393929190610fab565b600060405180830381600087803b15801561076d57600080fd5b505af1158015610781573d6000803e3d6000fd5b505050505050565b600080600090506000805b6009805490508110156108db576000600982815481106107b7576107b6610fe2565b5b9060005260206000200160009054906101000a900473ffffffffffffffffffffffffffffffffffffffff169050600073ffffffffffffffffffffffffffffffffffffffff168173ffffffffffffffffffffffffffffffffffffffff161415801561086d575060008054906101000a900473ffffffffffffffffffffffffffffffffffffffff1673ffffffffffffffffffffffffffffffffffffffff168173ffffffffffffffffffffffffffffffffffffffff1614155b156108c7576000600860008373ffffffffffffffffffffffffffffffffffffffff1673ffffffffffffffffffffffffffffffffffffffff168152602001908152602001600020549050838111156108c5578093508194505b505b5080806108d390611011565b915050610794565b50819250505090565b80471015610927576040517f08c379a000000000000000000000000000000000000000000000000000000000815260040161091e906110a5565b60405180910390fd5b60008273ffffffffffffffffffffffffffffffffffffffff168260405161094d906110f6565b60006040518083038185875af1925050503d806000811461098a576040519150601f19603f3d011682016040523d82523d6000602084013e61098f565b606091505b50509050806109d3576040517f08c379a00000000000000000000000000000000000000000000000000000000081526004016109ca9061117d565b60405180910390fd5b505050565b60004790506000805b600980549050811015610a8c576008600060098381548110610a0657610a05610fe2565b5b9060005260206000200160009054906101000a900473ffffffffffffffffffffffffffffffffffffffff1673ffffffffffffffffffffffffffffffffffffffff1673ffffffffffffffffffffffffffffffffffffffff1681526020019081526020016000205482610a779190610e9f565b91508080610a8490611011565b9150506109e1565b5060005b600980549050811015610c4b57600060098281548110610ab357610ab2610fe2565b5b9060005260206000200160009054906101000a900473ffffffffffffffffffffffffffffffffffffffff169050600073ffffffffffffffffffffffffffffffffffffffff168173ffffffffffffffffffffffffffffffffffffffff1614158015610b69575060008054906101000a900473ffffffffffffffffffffffffffffffffffffffff1673ffffffffffffffffffffffffffffffffffffffff168173ffffffffffffffffffffffffffffffffffffffff1614155b15610c37576000600860008373ffffffffffffffffffffffffffffffffffffffff1673ffffffffffffffffffffffffffffffffffffffff1681526020019081526020016000205490506000811115610c35576000848683610bca919061119d565b610bd4919061120e565b90508086610be2919061123f565b9550610bee83826108e4565b6000600860008573ffffffffffffffffffffffffffffffffffffffff1673ffffffffffffffffffffffffffffffffffffffff16815260200190815260200160002081905550505b505b508080610c4390611011565b915050610a90565b505050565b6000819050919050565b610c6381610c50565b82525050565b6000602082019050610c7e6000830184610c5a565b92915050565b600080fd5b610c9281610c50565b8114610c9d57600080fd5b50565b600081359050610caf81610c89565b92915050565b600060208284031215610ccb57610cca610c84565b5b6000610cd984828501610ca0565b91505092915050565b600073ffffffffffffffffffffffffffffffffffffffff82169050919050565b6000610d0d82610ce2565b9050919050565b610d1d81610d02565b82525050565b6000602082019050610d386000830184610d14565b92915050565b60008115159050919050565b610d5381610d3e565b82525050565b6000602082019050610d6e6000830184610d4a565b92915050565b610d7d81610d02565b8114610d8857600080fd5b50565b600081359050610d9a81610d74565b92915050565b600060208284031215610db657610db5610c84565b5b6000610dc484828501610d8b565b91505092915050565b600082825260208201905092915050565b7f42696420616d6f756e74206d7573742062652067726561746572207468616e2060008201527f7a65726f00000000000000000000000000000000000000000000000000000000602082015250565b6000610e3a602483610dcd565b9150610e4582610dde565b604082019050919050565b60006020820190508181036000830152610e6981610e2d565b9050919050565b7f4e487b7100000000000000000000000000000000000000000000000000000000600052601160045260246000fd5b6000610eaa82610c50565b9150610eb583610c50565b9250828201905080821115610ecd57610ecc610e70565b5b92915050565b7f4e6f20626964732068617665206265656e20706c616365640000000000000000600082015250565b6000610f09601883610dcd565b9150610f1482610ed3565b602082019050919050565b60006020820190508181036000830152610f3881610efc565b9050919050565b7f52657365727665207072696365206e6f74206d65740000000000000000000000600082015250565b6000610f75601583610dcd565b9150610f8082610f3f565b602082019050919050565b60006020820190508181036000830152610fa481610f68565b9050919050565b6000606082019050610fc06000830186610d14565b610fcd6020830185610d14565b610fda6040830184610c5a565b949350505050565b7f4e487b7100000000000000000000000000000000000000000000000000000000600052603260045260246000fd5b600061101c82610c50565b91507fffffffffffffffffffffffffffffffffffffffffffffffffffffffffffffffff820361104e5761104d610e70565b5b600182019050919050565b7f416464726573733a20696e73756666696369656e742062616c616e6365000000600082015250565b600061108f601d83610dcd565b915061109a82611059565b602082019050919050565b600060208201905081810360008301526110be81611082565b9050919050565b600081905092915050565b50565b60006110e06000836110c5565b91506110eb826110d0565b600082019050919050565b6000611101826110d3565b9150819050919050565b7f416464726573733a20756e61626c6520746f2073656e642076616c75652c207260008201527f6563697069656e74206d61792068617665207265766572746564000000000000602082015250565b6000611167603a83610dcd565b91506111728261110b565b604082019050919050565b600060208201905081810360008301526111968161115a565b9050919050565b60006111a882610c50565b91506111b383610c50565b92508282026111c181610c50565b915082820484148315176111d8576111d7610e70565b5b5092915050565b7f4e487b7100000000000000000000000000000000000000000000000000000000600052601260045260246000fd5b600061121982610c50565b915061122483610c50565b925082611234576112336111df565b5b828204905092915050565b600061124a82610c50565b915061125583610c50565b925082820390508181111561126d5761126c610e70565b5b9291505056fea26469706673582212204f85439acdb7bf43ba40e35a1bbd0e54616bc68849ebf8c61c54dbf4b738a98664736f6c63430008120033",
  "linkReferences": {},
  "deployedLinkReferences": {}
}