{"contracts/BasicDutchAuction.sol":{"BasicDutchAuction":{"abi":[{"inputs":[{"internalType":"uint256","name":"_reservePrice","type":"uint256"},{"internalType":"uint256","name":"_numBlocksAuctionOpen","type":"uint256"},{"internalType":"uint256","name":"_offerPriceDecrement","type":"uint256"}],"stateMutability":"nonpayable","type":"constructor"},{"anonymous":false,"inputs":[{"indexed":false,"internalType":"address","name":"winner","type":"address"},{"indexed":false,"internalType":"uint256","name":"amount","type":"uint256"}],"name":"AuctionEnded","type":"event"},{"anonymous":false,"inputs":[{"indexed":false,"internalType":"address","name":"bidder","type":"address"},{"indexed":false,"internalType":"uint256","name":"amount","type":"uint256"}],"name":"BidPlaced","type":"event"},{"inputs":[],"name":"auctionEnded","outputs":[{"internalType":"bool","name":"","type":"bool"}],"stateMutability":"view","type":"function"},{"inputs":[{"internalType":"address","name":"","type":"address"}],"name":"bids","outputs":[{"internalType":"uint256","name":"","type":"uint256"}],"stateMutability":"view","type":"function"},{"inputs":[],"name":"endAuction","outputs":[],"stateMutability":"nonpayable","type":"function"},{"inputs":[],"name":"endBlock","outputs":[{"internalType":"uint256","name":"","type":"uint256"}],"stateMutability":"view","type":"function"},{"inputs":[],"name":"highestBid","outputs":[{"internalType":"uint256","name":"","type":"uint256"}],"stateMutability":"view","type":"function"},{"inputs":[],"name":"highestBidder","outputs":[{"internalType":"address","name":"","type":"address"}],"stateMutability":"view","type":"function"},{"inputs":[],"name":"initialPrice","outputs":[{"internalType":"uint256","name":"","type":"uint256"}],"stateMutability":"view","type":"function"},{"inputs":[],"name":"itemSold","outputs":[{"internalType":"bool","name":"","type":"bool"}],"stateMutability":"view","type":"function"},{"inputs":[],"name":"numBlocksAuctionOpen","outputs":[{"internalType":"uint256","name":"","type":"uint256"}],"stateMutability":"view","type":"function"},{"inputs":[],"name":"offerPriceDecrement","outputs":[{"internalType":"uint256","name":"","type":"uint256"}],"stateMutability":"view","type":"function"},{"inputs":[],"name":"placeBid","outputs":[],"stateMutability":"payable","type":"function"},{"inputs":[{"internalType":"address","name":"bidder","type":"address"}],"name":"refundBid","outputs":[],"stateMutability":"nonpayable","type":"function"},{"inputs":[],"name":"reservePrice","outputs":[{"internalType":"uint256","name":"","type":"uint256"}],"stateMutability":"view","type":"function"},{"inputs":[],"name":"seller","outputs":[{"internalType":"address payable","name":"","type":"address"}],"stateMutability":"view","type":"function"},{"inputs":[],"name":"startBlock","outputs":[{"internalType":"uint256","name":"","type":"uint256"}],"stateMutability":"view","type":"function"}],"evm":{"bytecode":{"linkReferences":{},"object":"60806040523480156200001157600080fd5b50604051620017833803806200178383398181016040528101906200003791906200026c565b62000053675d4ec003a8af7cde60c01b6200022960201b60201c565b6200006f67d9454cb82742dc7a60c01b6200022960201b60201c565b336000806101000a81548173ffffffffffffffffffffffffffffffffffffffff021916908373ffffffffffffffffffffffffffffffffffffffff160217905550620000cb6744da0aedaaacc1be60c01b6200022960201b60201c565b82600181905550620000ee6723dccaad9cb0b4a460c01b6200022960201b60201c565b8160028190555062000111674ed31c252370610b60c01b6200022960201b60201c565b8060038190555062000134670e4e5568d51df0d560c01b6200022960201b60201c565b600354600254620001469190620002f7565b60015462000155919062000342565b600481905550620001776745449e5296c7390360c01b6200022960201b60201c565b436005819055506200019a6796c6effcbbd2c40660c01b6200022960201b60201c565b600254600554620001ac919062000342565b600681905550620001ce677158583853ab6a1860c01b6200022960201b60201c565b6000600760006101000a81548160ff0219169083151502179055506200020567d1542e57f4f4924560c01b6200022960201b60201c565b6000600760016101000a81548160ff0219169083151502179055505050506200037d565b50565b600080fd5b6000819050919050565b620002468162000231565b81146200025257600080fd5b50565b60008151905062000266816200023b565b92915050565b6000806000606084860312156200028857620002876200022c565b5b6000620002988682870162000255565b9350506020620002ab8682870162000255565b9250506040620002be8682870162000255565b9150509250925092565b7f4e487b7100000000000000000000000000000000000000000000000000000000600052601160045260246000fd5b6000620003048262000231565b9150620003118362000231565b9250828202620003218162000231565b915082820484148315176200033b576200033a620002c8565b5b5092915050565b60006200034f8262000231565b91506200035c8362000231565b9250828201905080821115620003775762000376620002c8565b5b92915050565b6113f6806200038d6000396000f3fe6080604052600436106100e85760003560e01c806362ea82db1161008a578063d57bde7911610059578063d57bde79146102d6578063db2e1eed14610301578063ecfc7ecc1461032c578063fe67a54b14610336576100e8565b806362ea82db14610218578063864333741461025557806391f9015714610280578063d3642a88146102ab576100e8565b80633103ea62116100c65780633103ea621461016e578063385e315514610199578063438e897a146101c257806348cd4cb1146101ed576100e8565b8063083c6323146100ed57806308551a53146101185780631d0806ae14610143575b600080fd5b3480156100f957600080fd5b5061010261034d565b60405161010f9190610f2c565b60405180910390f35b34801561012457600080fd5b5061012d610353565b60405161013a9190610f88565b60405180910390f35b34801561014f57600080fd5b50610158610377565b6040516101659190610f2c565b60405180910390f35b34801561017a57600080fd5b5061018361037d565b6040516101909190610f2c565b60405180910390f35b3480156101a557600080fd5b506101c060048036038101906101bb9190610fe6565b610383565b005b3480156101ce57600080fd5b506101d7610720565b6040516101e4919061102e565b60405180910390f35b3480156101f957600080fd5b50610202610733565b60405161020f9190610f2c565b60405180910390f35b34801561022457600080fd5b5061023f600480360381019061023a9190610fe6565b610739565b60405161024c9190610f2c565b60405180910390f35b34801561026157600080fd5b5061026a610751565b604051610277919061102e565b60405180910390f35b34801561028c57600080fd5b50610295610764565b6040516102a29190611058565b60405180910390f35b3480156102b757600080fd5b506102c061078a565b6040516102cd9190610f2c565b60405180910390f35b3480156102e257600080fd5b506102eb610790565b6040516102f89190610f2c565b60405180910390f35b34801561030d57600080fd5b50610316610796565b6040516103239190610f2c565b60405180910390f35b61033461079c565b005b34801561034257600080fd5b5061034b610bfd565b005b60065481565b60008054906101000a900473ffffffffffffffffffffffffffffffffffffffff1681565b60045481565b60025481565b61039767a8d02daea55db61f60c01b610f10565b6103ab67f97877f71948b2af60c01b610f10565b6103bf67591af0c60129109f60c01b610f10565b6103d36718c9874541a6e1aa60c01b610f10565b600760009054906101000a900460ff16610422576040517f08c379a0000000000000000000000000000000000000000000000000000000008152600401610419906110d0565b60405180910390fd5b610436677ad21cbb02818bfb60c01b610f10565b61044a67a54ecf6cc996669d60c01b610f10565b61045e67b3b8dc8fba878ba160c01b610f10565b610472676f0539e4de5efd9460c01b610f10565b600760029054906101000a900473ffffffffffffffffffffffffffffffffffffffff1673ffffffffffffffffffffffffffffffffffffffff168173ffffffffffffffffffffffffffffffffffffffff1603610502576040517f08c379a00000000000000000000000000000000000000000000000000000000081526004016104f99061113c565b60405180910390fd5b61051667298d80b8adc9603c60c01b610f10565b61052a67e43a272b420eb97160c01b610f10565b61053e671162da78f9ef463c60c01b610f10565b61055267a4aa36ee8292dd4660c01b610f10565b6000600960008373ffffffffffffffffffffffffffffffffffffffff1673ffffffffffffffffffffffffffffffffffffffff16815260200190815260200160002054116105d4576040517f08c379a00000000000000000000000000000000000000000000000000000000081526004016105cb906111a8565b60405180910390fd5b6105e867d5775678c23738e160c01b610f10565b6105fc674b68dc322ddb7d5c60c01b610f10565b610610674b59133614f31d5a60c01b610f10565b6000600960008373ffffffffffffffffffffffffffffffffffffffff1673ffffffffffffffffffffffffffffffffffffffff16815260200190815260200160002054905061066867c4d88e5b71a7ace360c01b610f10565b6000600960008473ffffffffffffffffffffffffffffffffffffffff1673ffffffffffffffffffffffffffffffffffffffff168152602001908152602001600020819055506106c1671f33d62cfd9bb8f360c01b610f10565b6106d567b5f7f10a381839ca60c01b610f10565b8173ffffffffffffffffffffffffffffffffffffffff166108fc829081150290604051600060405180830381858888f1935050505015801561071b573d6000803e3d6000fd5b505050565b600760019054906101000a900460ff1681565b60055481565b60096020528060005260406000206000915090505481565b600760009054906101000a900460ff1681565b600760029054906101000a900473ffffffffffffffffffffffffffffffffffffffff1681565b60035481565b60085481565b60015481565b6107b0675a25bb45d2af8ba960c01b610f10565b6107c46743dd5332de1a40ce60c01b610f10565b6107d8671dfe885be9f7808660c01b610f10565b6107ec67b981198dcc94145460c01b610f10565b600760009054906101000a900460ff161561083c576040517f08c379a000000000000000000000000000000000000000000000000000000000815260040161083390611214565b60405180910390fd5b61085067033dbf47ca405bb460c01b610f10565b61086467a62447b512eaf7d160c01b610f10565b61087867de97e3feb7a5fcf460c01b610f10565b61088c679b0b3ba2be9c035960c01b610f10565b600034116108cf576040517f08c379a00000000000000000000000000000000000000000000000000000000081526004016108c6906112a6565b60405180910390fd5b6108e367b9980bc07c0f652260c01b610f10565b6108f76769fc5d51ff6d129260c01b610f10565b61090b678b1f216b028c225a60c01b610f10565b600854341115610a8c576109296788c1810682b1101360c01b610f10565b61093d6790c71dbf3e7019fe60c01b610f10565b610951676fd4f0aab99d3c8660c01b610f10565b600060085414610a025761096f673f66d653b066ea5a60c01b610f10565b6109836701d308d2c5c13a8d60c01b610f10565b60085460096000600760029054906101000a900473ffffffffffffffffffffffffffffffffffffffff1673ffffffffffffffffffffffffffffffffffffffff1673ffffffffffffffffffffffffffffffffffffffff16815260200190815260200160002060008282546109f691906112f5565b92505081905550610a17565b610a16671b4c3236ee4ae0a860c01b610f10565b5b610a2b6788863ee90d5f71a360c01b610f10565b33600760026101000a81548173ffffffffffffffffffffffffffffffffffffffff021916908373ffffffffffffffffffffffffffffffffffffffff160217905550610a8067ccf2a6606fcb148860c01b610f10565b34600881905550610b0b565b610aa067ae51941a509aa2be60c01b610f10565b610ab46713717a9e18f6c02260c01b610f10565b34600960003373ffffffffffffffffffffffffffffffffffffffff1673ffffffffffffffffffffffffffffffffffffffff1681526020019081526020016000206000828254610b0391906112f5565b925050819055505b610b1f67089a10092d7efa4360c01b610f10565b610b336719249d1870bfc1f660c01b610f10565b7f3fabff0a9c3ecd6814702e247fa9733e5d0aa69e3a38590f92cb18f623a2254d3334604051610b64929190611329565b60405180910390a1610b8067c61961693457a42b60c01b610f10565b610b946798b469518da5aaab60c01b610f10565b6004543410610be657610bb1676ad45f567a00c65460c01b610f10565b610bc5670804c66c18ac935a60c01b610f10565b610bd9678569587b9de60a3c60c01b610f10565b610be1610bfd565b610bfb565b610bfa67159f52d074c7745b60c01b610f10565b5b565b610c11676c9f093620b0a2a060c01b610f10565b610c256756a730929ad42d9760c01b610f10565b6001600760006101000a81548160ff021916908315150217905550610c5467ea42cc783b9992db60c01b610f10565b6001600760016101000a81548160ff021916908315150217905550610c836799fd2f0f7f81cdf460c01b610f10565b610c976792daf7c2f73779f660c01b610f10565b600073ffffffffffffffffffffffffffffffffffffffff16600760029054906101000a900473ffffffffffffffffffffffffffffffffffffffff1673ffffffffffffffffffffffffffffffffffffffff1614610e9757610d016718489e00ed3edbce60c01b610f10565b610d156715f9e5f494f2b51560c01b610f10565b600060096000600760029054906101000a900473ffffffffffffffffffffffffffffffffffffffff1673ffffffffffffffffffffffffffffffffffffffff1673ffffffffffffffffffffffffffffffffffffffff16815260200190815260200160002081905550610d9067beb1ed5810cacff860c01b610f10565b610da46786f2f1bf7ceba36160c01b610f10565b60008054906101000a900473ffffffffffffffffffffffffffffffffffffffff1673ffffffffffffffffffffffffffffffffffffffff166108fc6008549081150290604051600060405180830381858888f19350505050158015610e0c573d6000803e3d6000fd5b50610e2167093bee7a5f5ee54d60c01b610f10565b610e3567af959d1c6546c09b60c01b610f10565b7fdaec4582d5d9595688c8c98545fdd1c696d41c6aeaeb636737e84ed2f5c00eda600760029054906101000a900473ffffffffffffffffffffffffffffffffffffffff16600854604051610e8a929190611329565b60405180910390a1610f0e565b610eab67790ca8318e3903d260c01b610f10565b610ebf67584aa0abd963325760c01b610f10565b610ed3677d0b682e4e54faa460c01b610f10565b7fdaec4582d5d9595688c8c98545fdd1c696d41c6aeaeb636737e84ed2f5c00eda600080604051610f05929190611397565b60405180910390a15b565b50565b6000819050919050565b610f2681610f13565b82525050565b6000602082019050610f416000830184610f1d565b92915050565b600073ffffffffffffffffffffffffffffffffffffffff82169050919050565b6000610f7282610f47565b9050919050565b610f8281610f67565b82525050565b6000602082019050610f9d6000830184610f79565b92915050565b600080fd5b6000610fb382610f47565b9050919050565b610fc381610fa8565b8114610fce57600080fd5b50565b600081359050610fe081610fba565b92915050565b600060208284031215610ffc57610ffb610fa3565b5b600061100a84828501610fd1565b91505092915050565b60008115159050919050565b61102881611013565b82525050565b6000602082019050611043600083018461101f565b92915050565b61105281610fa8565b82525050565b600060208201905061106d6000830184611049565b92915050565b600082825260208201905092915050565b7f41756374696f6e20686173206e6f7420656e6465642079657400000000000000600082015250565b60006110ba601983611073565b91506110c582611084565b602082019050919050565b600060208201905081810360008301526110e9816110ad565b9050919050565b7f48696768657374206269646465722063616e6e6f7420726566756e6400000000600082015250565b6000611126601c83611073565b9150611131826110f0565b602082019050919050565b6000602082019050818103600083015261115581611119565b9050919050565b7f4e6f2062696420746f20726566756e6400000000000000000000000000000000600082015250565b6000611192601083611073565b915061119d8261115c565b602082019050919050565b600060208201905081810360008301526111c181611185565b9050919050565b7f41756374696f6e20616c726561647920656e6465640000000000000000000000600082015250565b60006111fe601583611073565b9150611209826111c8565b602082019050919050565b6000602082019050818103600083015261122d816111f1565b9050919050565b7f42696420616d6f756e74206d7573742062652067726561746572207468616e2060008201527f3000000000000000000000000000000000000000000000000000000000000000602082015250565b6000611290602183611073565b915061129b82611234565b604082019050919050565b600060208201905081810360008301526112bf81611283565b9050919050565b7f4e487b7100000000000000000000000000000000000000000000000000000000600052601160045260246000fd5b600061130082610f13565b915061130b83610f13565b9250828201905080821115611323576113226112c6565b5b92915050565b600060408201905061133e6000830185611049565b61134b6020830184610f1d565b9392505050565b6000819050919050565b6000819050919050565b600061138161137c61137784611352565b61135c565b610f13565b9050919050565b61139181611366565b82525050565b60006040820190506113ac6000830185611049565b6113b96020830184611388565b939250505056fea2646970667358221220774a7f30d8b02f9d78bc1fe38c29a84c19ac10367fe7f76406ec69b625dde55a64736f6c63430008120033","opcodes":"PUSH1 0x80 PUSH1 0x40 MSTORE CALLVALUE DUP1 ISZERO PUSH3 0x11 JUMPI PUSH1 0x0 DUP1 REVERT JUMPDEST POP PUSH1 0x40 MLOAD PUSH3 0x1783 CODESIZE SUB DUP1 PUSH3 0x1783 DUP4 CODECOPY DUP2 DUP2 ADD PUSH1 0x40 MSTORE DUP2 ADD SWAP1 PUSH3 0x37 SWAP2 SWAP1 PUSH3 0x26C JUMP JUMPDEST PUSH3 0x53 PUSH8 0x5D4EC003A8AF7CDE PUSH1 0xC0 SHL PUSH3 0x229 PUSH1 0x20 SHL PUSH1 0x20 SHR JUMP JUMPDEST PUSH3 0x6F PUSH8 0xD9454CB82742DC7A PUSH1 0xC0 SHL PUSH3 0x229 PUSH1 0x20 SHL PUSH1 0x20 SHR JUMP JUMPDEST CALLER PUSH1 0x0 DUP1 PUSH2 0x100 EXP DUP2 SLOAD DUP2 PUSH20 0xFFFFFFFFFFFFFFFFFFFFFFFFFFFFFFFFFFFFFFFF MUL NOT AND SWAP1 DUP4 PUSH20 0xFFFFFFFFFFFFFFFFFFFFFFFFFFFFFFFFFFFFFFFF AND MUL OR SWAP1 SSTORE POP PUSH3 0xCB PUSH8 0x44DA0AEDAAACC1BE PUSH1 0xC0 SHL PUSH3 0x229 PUSH1 0x20 SHL PUSH1 0x20 SHR JUMP JUMPDEST DUP3 PUSH1 0x1 DUP2 SWAP1 SSTORE POP PUSH3 0xEE PUSH8 0x23DCCAAD9CB0B4A4 PUSH1 0xC0 SHL PUSH3 0x229 PUSH1 0x20 SHL PUSH1 0x20 SHR JUMP JUMPDEST DUP2 PUSH1 0x2 DUP2 SWAP1 SSTORE POP PUSH3 0x111 PUSH8 0x4ED31C252370610B PUSH1 0xC0 SHL PUSH3 0x229 PUSH1 0x20 SHL PUSH1 0x20 SHR JUMP JUMPDEST DUP1 PUSH1 0x3 DUP2 SWAP1 SSTORE POP PUSH3 0x134 PUSH8 0xE4E5568D51DF0D5 PUSH1 0xC0 SHL PUSH3 0x229 PUSH1 0x20 SHL PUSH1 0x20 SHR JUMP JUMPDEST PUSH1 0x3 SLOAD PUSH1 0x2 SLOAD PUSH3 0x146 SWAP2 SWAP1 PUSH3 0x2F7 JUMP JUMPDEST PUSH1 0x1 SLOAD PUSH3 0x155 SWAP2 SWAP1 PUSH3 0x342 JUMP JUMPDEST PUSH1 0x4 DUP2 SWAP1 SSTORE POP PUSH3 0x177 PUSH8 0x45449E5296C73903 PUSH1 0xC0 SHL PUSH3 0x229 PUSH1 0x20 SHL PUSH1 0x20 SHR JUMP JUMPDEST NUMBER PUSH1 0x5 DUP2 SWAP1 SSTORE POP PUSH3 0x19A PUSH8 0x96C6EFFCBBD2C406 PUSH1 0xC0 SHL PUSH3 0x229 PUSH1 0x20 SHL PUSH1 0x20 SHR JUMP JUMPDEST PUSH1 0x2 SLOAD PUSH1 0x5 SLOAD PUSH3 0x1AC SWAP2 SWAP1 PUSH3 0x342 JUMP JUMPDEST PUSH1 0x6 DUP2 SWAP1 SSTORE POP PUSH3 0x1CE PUSH8 0x7158583853AB6A18 PUSH1 0xC0 SHL PUSH3 0x229 PUSH1 0x20 SHL PUSH1 0x20 SHR JUMP JUMPDEST PUSH1 0x0 PUSH1 0x7 PUSH1 0x0 PUSH2 0x100 EXP DUP2 SLOAD DUP2 PUSH1 0xFF MUL NOT AND SWAP1 DUP4 ISZERO ISZERO MUL OR SWAP1 SSTORE POP PUSH3 0x205 PUSH8 0xD1542E57F4F49245 PUSH1 0xC0 SHL PUSH3 0x229 PUSH1 0x20 SHL PUSH1 0x20 SHR JUMP JUMPDEST PUSH1 0x0 PUSH1 0x7 PUSH1 0x1 PUSH2 0x100 EXP DUP2 SLOAD DUP2 PUSH1 0xFF MUL NOT AND SWAP1 DUP4 ISZERO ISZERO MUL OR SWAP1 SSTORE POP POP POP POP PUSH3 0x37D JUMP JUMPDEST POP JUMP JUMPDEST PUSH1 0x0 DUP1 REVERT JUMPDEST PUSH1 0x0 DUP2 SWAP1 POP SWAP2 SWAP1 POP JUMP JUMPDEST PUSH3 0x246 DUP2 PUSH3 0x231 JUMP JUMPDEST DUP2 EQ PUSH3 0x252 JUMPI PUSH1 0x0 DUP1 REVERT JUMPDEST POP JUMP JUMPDEST PUSH1 0x0 DUP2 MLOAD SWAP1 POP PUSH3 0x266 DUP2 PUSH3 0x23B JUMP JUMPDEST SWAP3 SWAP2 POP POP JUMP JUMPDEST PUSH1 0x0 DUP1 PUSH1 0x0 PUSH1 0x60 DUP5 DUP7 SUB SLT ISZERO PUSH3 0x288 JUMPI PUSH3 0x287 PUSH3 0x22C JUMP JUMPDEST JUMPDEST PUSH1 0x0 PUSH3 0x298 DUP7 DUP3 DUP8 ADD PUSH3 0x255 JUMP JUMPDEST SWAP4 POP POP PUSH1 0x20 PUSH3 0x2AB DUP7 DUP3 DUP8 ADD PUSH3 0x255 JUMP JUMPDEST SWAP3 POP POP PUSH1 0x40 PUSH3 0x2BE DUP7 DUP3 DUP8 ADD PUSH3 0x255 JUMP JUMPDEST SWAP2 POP POP SWAP3 POP SWAP3 POP SWAP3 JUMP JUMPDEST PUSH32 0x4E487B7100000000000000000000000000000000000000000000000000000000 PUSH1 0x0 MSTORE PUSH1 0x11 PUSH1 0x4 MSTORE PUSH1 0x24 PUSH1 0x0 REVERT JUMPDEST PUSH1 0x0 PUSH3 0x304 DUP3 PUSH3 0x231 JUMP JUMPDEST SWAP2 POP PUSH3 0x311 DUP4 PUSH3 0x231 JUMP JUMPDEST SWAP3 POP DUP3 DUP3 MUL PUSH3 0x321 DUP2 PUSH3 0x231 JUMP JUMPDEST SWAP2 POP DUP3 DUP3 DIV DUP5 EQ DUP4 ISZERO OR PUSH3 0x33B JUMPI PUSH3 0x33A PUSH3 0x2C8 JUMP JUMPDEST JUMPDEST POP SWAP3 SWAP2 POP POP JUMP JUMPDEST PUSH1 0x0 PUSH3 0x34F DUP3 PUSH3 0x231 JUMP JUMPDEST SWAP2 POP PUSH3 0x35C DUP4 PUSH3 0x231 JUMP JUMPDEST SWAP3 POP DUP3 DUP3 ADD SWAP1 POP DUP1 DUP3 GT ISZERO PUSH3 0x377 JUMPI PUSH3 0x376 PUSH3 0x2C8 JUMP JUMPDEST JUMPDEST SWAP3 SWAP2 POP POP JUMP JUMPDEST PUSH2 0x13F6 DUP1 PUSH3 0x38D PUSH1 0x0 CODECOPY PUSH1 0x0 RETURN INVALID PUSH1 0x80 PUSH1 0x40 MSTORE PUSH1 0x4 CALLDATASIZE LT PUSH2 0xE8 JUMPI PUSH1 0x0 CALLDATALOAD PUSH1 0xE0 SHR DUP1 PUSH4 0x62EA82DB GT PUSH2 0x8A JUMPI DUP1 PUSH4 0xD57BDE79 GT PUSH2 0x59 JUMPI DUP1 PUSH4 0xD57BDE79 EQ PUSH2 0x2D6 JUMPI DUP1 PUSH4 0xDB2E1EED EQ PUSH2 0x301 JUMPI DUP1 PUSH4 0xECFC7ECC EQ PUSH2 0x32C JUMPI DUP1 PUSH4 0xFE67A54B EQ PUSH2 0x336 JUMPI PUSH2 0xE8 JUMP JUMPDEST DUP1 PUSH4 0x62EA82DB EQ PUSH2 0x218 JUMPI DUP1 PUSH4 0x86433374 EQ PUSH2 0x255 JUMPI DUP1 PUSH4 0x91F90157 EQ PUSH2 0x280 JUMPI DUP1 PUSH4 0xD3642A88 EQ PUSH2 0x2AB JUMPI PUSH2 0xE8 JUMP JUMPDEST DUP1 PUSH4 0x3103EA62 GT PUSH2 0xC6 JUMPI DUP1 PUSH4 0x3103EA62 EQ PUSH2 0x16E JUMPI DUP1 PUSH4 0x385E3155 EQ PUSH2 0x199 JUMPI DUP1 PUSH4 0x438E897A EQ PUSH2 0x1C2 JUMPI DUP1 PUSH4 0x48CD4CB1 EQ PUSH2 0x1ED JUMPI PUSH2 0xE8 JUMP JUMPDEST DUP1 PUSH4 0x83C6323 EQ PUSH2 0xED JUMPI DUP1 PUSH4 0x8551A53 EQ PUSH2 0x118 JUMPI DUP1 PUSH4 0x1D0806AE EQ PUSH2 0x143 JUMPI JUMPDEST PUSH1 0x0 DUP1 REVERT JUMPDEST CALLVALUE DUP1 ISZERO PUSH2 0xF9 JUMPI PUSH1 0x0 DUP1 REVERT JUMPDEST POP PUSH2 0x102 PUSH2 0x34D JUMP JUMPDEST PUSH1 0x40 MLOAD PUSH2 0x10F SWAP2 SWAP1 PUSH2 0xF2C JUMP JUMPDEST PUSH1 0x40 MLOAD DUP1 SWAP2 SUB SWAP1 RETURN JUMPDEST CALLVALUE DUP1 ISZERO PUSH2 0x124 JUMPI PUSH1 0x0 DUP1 REVERT JUMPDEST POP PUSH2 0x12D PUSH2 0x353 JUMP JUMPDEST PUSH1 0x40 MLOAD PUSH2 0x13A SWAP2 SWAP1 PUSH2 0xF88 JUMP JUMPDEST PUSH1 0x40 MLOAD DUP1 SWAP2 SUB SWAP1 RETURN JUMPDEST CALLVALUE DUP1 ISZERO PUSH2 0x14F JUMPI PUSH1 0x0 DUP1 REVERT JUMPDEST POP PUSH2 0x158 PUSH2 0x377 JUMP JUMPDEST PUSH1 0x40 MLOAD PUSH2 0x165 SWAP2 SWAP1 PUSH2 0xF2C JUMP JUMPDEST PUSH1 0x40 MLOAD DUP1 SWAP2 SUB SWAP1 RETURN JUMPDEST CALLVALUE DUP1 ISZERO PUSH2 0x17A JUMPI PUSH1 0x0 DUP1 REVERT JUMPDEST POP PUSH2 0x183 PUSH2 0x37D JUMP JUMPDEST PUSH1 0x40 MLOAD PUSH2 0x190 SWAP2 SWAP1 PUSH2 0xF2C JUMP JUMPDEST PUSH1 0x40 MLOAD DUP1 SWAP2 SUB SWAP1 RETURN JUMPDEST CALLVALUE DUP1 ISZERO PUSH2 0x1A5 JUMPI PUSH1 0x0 DUP1 REVERT JUMPDEST POP PUSH2 0x1C0 PUSH1 0x4 DUP1 CALLDATASIZE SUB DUP2 ADD SWAP1 PUSH2 0x1BB SWAP2 SWAP1 PUSH2 0xFE6 JUMP JUMPDEST PUSH2 0x383 JUMP JUMPDEST STOP JUMPDEST CALLVALUE DUP1 ISZERO PUSH2 0x1CE JUMPI PUSH1 0x0 DUP1 REVERT JUMPDEST POP PUSH2 0x1D7 PUSH2 0x720 JUMP JUMPDEST PUSH1 0x40 MLOAD PUSH2 0x1E4 SWAP2 SWAP1 PUSH2 0x102E JUMP JUMPDEST PUSH1 0x40 MLOAD DUP1 SWAP2 SUB SWAP1 RETURN JUMPDEST CALLVALUE DUP1 ISZERO PUSH2 0x1F9 JUMPI PUSH1 0x0 DUP1 REVERT JUMPDEST POP PUSH2 0x202 PUSH2 0x733 JUMP JUMPDEST PUSH1 0x40 MLOAD PUSH2 0x20F SWAP2 SWAP1 PUSH2 0xF2C JUMP JUMPDEST PUSH1 0x40 MLOAD DUP1 SWAP2 SUB SWAP1 RETURN JUMPDEST CALLVALUE DUP1 ISZERO PUSH2 0x224 JUMPI PUSH1 0x0 DUP1 REVERT JUMPDEST POP PUSH2 0x23F PUSH1 0x4 DUP1 CALLDATASIZE SUB DUP2 ADD SWAP1 PUSH2 0x23A SWAP2 SWAP1 PUSH2 0xFE6 JUMP JUMPDEST PUSH2 0x739 JUMP JUMPDEST PUSH1 0x40 MLOAD PUSH2 0x24C SWAP2 SWAP1 PUSH2 0xF2C JUMP JUMPDEST PUSH1 0x40 MLOAD DUP1 SWAP2 SUB SWAP1 RETURN JUMPDEST CALLVALUE DUP1 ISZERO PUSH2 0x261 JUMPI PUSH1 0x0 DUP1 REVERT JUMPDEST POP PUSH2 0x26A PUSH2 0x751 JUMP JUMPDEST PUSH1 0x40 MLOAD PUSH2 0x277 SWAP2 SWAP1 PUSH2 0x102E JUMP JUMPDEST PUSH1 0x40 MLOAD DUP1 SWAP2 SUB SWAP1 RETURN JUMPDEST CALLVALUE DUP1 ISZERO PUSH2 0x28C JUMPI PUSH1 0x0 DUP1 REVERT JUMPDEST POP PUSH2 0x295 PUSH2 0x764 JUMP JUMPDEST PUSH1 0x40 MLOAD PUSH2 0x2A2 SWAP2 SWAP1 PUSH2 0x1058 JUMP JUMPDEST PUSH1 0x40 MLOAD DUP1 SWAP2 SUB SWAP1 RETURN JUMPDEST CALLVALUE DUP1 ISZERO PUSH2 0x2B7 JUMPI PUSH1 0x0 DUP1 REVERT JUMPDEST POP PUSH2 0x2C0 PUSH2 0x78A JUMP JUMPDEST PUSH1 0x40 MLOAD PUSH2 0x2CD SWAP2 SWAP1 PUSH2 0xF2C JUMP JUMPDEST PUSH1 0x40 MLOAD DUP1 SWAP2 SUB SWAP1 RETURN JUMPDEST CALLVALUE DUP1 ISZERO PUSH2 0x2E2 JUMPI PUSH1 0x0 DUP1 REVERT JUMPDEST POP PUSH2 0x2EB PUSH2 0x790 JUMP JUMPDEST PUSH1 0x40 MLOAD PUSH2 0x2F8 SWAP2 SWAP1 PUSH2 0xF2C JUMP JUMPDEST PUSH1 0x40 MLOAD DUP1 SWAP2 SUB SWAP1 RETURN JUMPDEST CALLVALUE DUP1 ISZERO PUSH2 0x30D JUMPI PUSH1 0x0 DUP1 REVERT JUMPDEST POP PUSH2 0x316 PUSH2 0x796 JUMP JUMPDEST PUSH1 0x40 MLOAD PUSH2 0x323 SWAP2 SWAP1 PUSH2 0xF2C JUMP JUMPDEST PUSH1 0x40 MLOAD DUP1 SWAP2 SUB SWAP1 RETURN JUMPDEST PUSH2 0x334 PUSH2 0x79C JUMP JUMPDEST STOP JUMPDEST CALLVALUE DUP1 ISZERO PUSH2 0x342 JUMPI PUSH1 0x0 DUP1 REVERT JUMPDEST POP PUSH2 0x34B PUSH2 0xBFD JUMP JUMPDEST STOP JUMPDEST PUSH1 0x6 SLOAD DUP2 JUMP JUMPDEST PUSH1 0x0 DUP1 SLOAD SWAP1 PUSH2 0x100 EXP SWAP1 DIV PUSH20 0xFFFFFFFFFFFFFFFFFFFFFFFFFFFFFFFFFFFFFFFF AND DUP2 JUMP JUMPDEST PUSH1 0x4 SLOAD DUP2 JUMP JUMPDEST PUSH1 0x2 SLOAD DUP2 JUMP JUMPDEST PUSH2 0x397 PUSH8 0xA8D02DAEA55DB61F PUSH1 0xC0 SHL PUSH2 0xF10 JUMP JUMPDEST PUSH2 0x3AB PUSH8 0xF97877F71948B2AF PUSH1 0xC0 SHL PUSH2 0xF10 JUMP JUMPDEST PUSH2 0x3BF PUSH8 0x591AF0C60129109F PUSH1 0xC0 SHL PUSH2 0xF10 JUMP JUMPDEST PUSH2 0x3D3 PUSH8 0x18C9874541A6E1AA PUSH1 0xC0 SHL PUSH2 0xF10 JUMP JUMPDEST PUSH1 0x7 PUSH1 0x0 SWAP1 SLOAD SWAP1 PUSH2 0x100 EXP SWAP1 DIV PUSH1 0xFF AND PUSH2 0x422 JUMPI PUSH1 0x40 MLOAD PUSH32 0x8C379A000000000000000000000000000000000000000000000000000000000 DUP2 MSTORE PUSH1 0x4 ADD PUSH2 0x419 SWAP1 PUSH2 0x10D0 JUMP JUMPDEST PUSH1 0x40 MLOAD DUP1 SWAP2 SUB SWAP1 REVERT JUMPDEST PUSH2 0x436 PUSH8 0x7AD21CBB02818BFB PUSH1 0xC0 SHL PUSH2 0xF10 JUMP JUMPDEST PUSH2 0x44A PUSH8 0xA54ECF6CC996669D PUSH1 0xC0 SHL PUSH2 0xF10 JUMP JUMPDEST PUSH2 0x45E PUSH8 0xB3B8DC8FBA878BA1 PUSH1 0xC0 SHL PUSH2 0xF10 JUMP JUMPDEST PUSH2 0x472 PUSH8 0x6F0539E4DE5EFD94 PUSH1 0xC0 SHL PUSH2 0xF10 JUMP JUMPDEST PUSH1 0x7 PUSH1 0x2 SWAP1 SLOAD SWAP1 PUSH2 0x100 EXP SWAP1 DIV PUSH20 0xFFFFFFFFFFFFFFFFFFFFFFFFFFFFFFFFFFFFFFFF AND PUSH20 0xFFFFFFFFFFFFFFFFFFFFFFFFFFFFFFFFFFFFFFFF AND DUP2 PUSH20 0xFFFFFFFFFFFFFFFFFFFFFFFFFFFFFFFFFFFFFFFF AND SUB PUSH2 0x502 JUMPI PUSH1 0x40 MLOAD PUSH32 0x8C379A000000000000000000000000000000000000000000000000000000000 DUP2 MSTORE PUSH1 0x4 ADD PUSH2 0x4F9 SWAP1 PUSH2 0x113C JUMP JUMPDEST PUSH1 0x40 MLOAD DUP1 SWAP2 SUB SWAP1 REVERT JUMPDEST PUSH2 0x516 PUSH8 0x298D80B8ADC9603C PUSH1 0xC0 SHL PUSH2 0xF10 JUMP JUMPDEST PUSH2 0x52A PUSH8 0xE43A272B420EB971 PUSH1 0xC0 SHL PUSH2 0xF10 JUMP JUMPDEST PUSH2 0x53E PUSH8 0x1162DA78F9EF463C PUSH1 0xC0 SHL PUSH2 0xF10 JUMP JUMPDEST PUSH2 0x552 PUSH8 0xA4AA36EE8292DD46 PUSH1 0xC0 SHL PUSH2 0xF10 JUMP JUMPDEST PUSH1 0x0 PUSH1 0x9 PUSH1 0x0 DUP4 PUSH20 0xFFFFFFFFFFFFFFFFFFFFFFFFFFFFFFFFFFFFFFFF AND PUSH20 0xFFFFFFFFFFFFFFFFFFFFFFFFFFFFFFFFFFFFFFFF AND DUP2 MSTORE PUSH1 0x20 ADD SWAP1 DUP2 MSTORE PUSH1 0x20 ADD PUSH1 0x0 KECCAK256 SLOAD GT PUSH2 0x5D4 JUMPI PUSH1 0x40 MLOAD PUSH32 0x8C379A000000000000000000000000000000000000000000000000000000000 DUP2 MSTORE PUSH1 0x4 ADD PUSH2 0x5CB SWAP1 PUSH2 0x11A8 JUMP JUMPDEST PUSH1 0x40 MLOAD DUP1 SWAP2 SUB SWAP1 REVERT JUMPDEST PUSH2 0x5E8 PUSH8 0xD5775678C23738E1 PUSH1 0xC0 SHL PUSH2 0xF10 JUMP JUMPDEST PUSH2 0x5FC PUSH8 0x4B68DC322DDB7D5C PUSH1 0xC0 SHL PUSH2 0xF10 JUMP JUMPDEST PUSH2 0x610 PUSH8 0x4B59133614F31D5A PUSH1 0xC0 SHL PUSH2 0xF10 JUMP JUMPDEST PUSH1 0x0 PUSH1 0x9 PUSH1 0x0 DUP4 PUSH20 0xFFFFFFFFFFFFFFFFFFFFFFFFFFFFFFFFFFFFFFFF AND PUSH20 0xFFFFFFFFFFFFFFFFFFFFFFFFFFFFFFFFFFFFFFFF AND DUP2 MSTORE PUSH1 0x20 ADD SWAP1 DUP2 MSTORE PUSH1 0x20 ADD PUSH1 0x0 KECCAK256 SLOAD SWAP1 POP PUSH2 0x668 PUSH8 0xC4D88E5B71A7ACE3 PUSH1 0xC0 SHL PUSH2 0xF10 JUMP JUMPDEST PUSH1 0x0 PUSH1 0x9 PUSH1 0x0 DUP5 PUSH20 0xFFFFFFFFFFFFFFFFFFFFFFFFFFFFFFFFFFFFFFFF AND PUSH20 0xFFFFFFFFFFFFFFFFFFFFFFFFFFFFFFFFFFFFFFFF AND DUP2 MSTORE PUSH1 0x20 ADD SWAP1 DUP2 MSTORE PUSH1 0x20 ADD PUSH1 0x0 KECCAK256 DUP2 SWAP1 SSTORE POP PUSH2 0x6C1 PUSH8 0x1F33D62CFD9BB8F3 PUSH1 0xC0 SHL PUSH2 0xF10 JUMP JUMPDEST PUSH2 0x6D5 PUSH8 0xB5F7F10A381839CA PUSH1 0xC0 SHL PUSH2 0xF10 JUMP JUMPDEST DUP2 PUSH20 0xFFFFFFFFFFFFFFFFFFFFFFFFFFFFFFFFFFFFFFFF AND PUSH2 0x8FC DUP3 SWAP1 DUP2 ISZERO MUL SWAP1 PUSH1 0x40 MLOAD PUSH1 0x0 PUSH1 0x40 MLOAD DUP1 DUP4 SUB DUP2 DUP6 DUP9 DUP9 CALL SWAP4 POP POP POP POP ISZERO DUP1 ISZERO PUSH2 0x71B JUMPI RETURNDATASIZE PUSH1 0x0 DUP1 RETURNDATACOPY RETURNDATASIZE PUSH1 0x0 REVERT JUMPDEST POP POP POP JUMP JUMPDEST PUSH1 0x7 PUSH1 0x1 SWAP1 SLOAD SWAP1 PUSH2 0x100 EXP SWAP1 DIV PUSH1 0xFF AND DUP2 JUMP JUMPDEST PUSH1 0x5 SLOAD DUP2 JUMP JUMPDEST PUSH1 0x9 PUSH1 0x20 MSTORE DUP1 PUSH1 0x0 MSTORE PUSH1 0x40 PUSH1 0x0 KECCAK256 PUSH1 0x0 SWAP2 POP SWAP1 POP SLOAD DUP2 JUMP JUMPDEST PUSH1 0x7 PUSH1 0x0 SWAP1 SLOAD SWAP1 PUSH2 0x100 EXP SWAP1 DIV PUSH1 0xFF AND DUP2 JUMP JUMPDEST PUSH1 0x7 PUSH1 0x2 SWAP1 SLOAD SWAP1 PUSH2 0x100 EXP SWAP1 DIV PUSH20 0xFFFFFFFFFFFFFFFFFFFFFFFFFFFFFFFFFFFFFFFF AND DUP2 JUMP JUMPDEST PUSH1 0x3 SLOAD DUP2 JUMP JUMPDEST PUSH1 0x8 SLOAD DUP2 JUMP JUMPDEST PUSH1 0x1 SLOAD DUP2 JUMP JUMPDEST PUSH2 0x7B0 PUSH8 0x5A25BB45D2AF8BA9 PUSH1 0xC0 SHL PUSH2 0xF10 JUMP JUMPDEST PUSH2 0x7C4 PUSH8 0x43DD5332DE1A40CE PUSH1 0xC0 SHL PUSH2 0xF10 JUMP JUMPDEST PUSH2 0x7D8 PUSH8 0x1DFE885BE9F78086 PUSH1 0xC0 SHL PUSH2 0xF10 JUMP JUMPDEST PUSH2 0x7EC PUSH8 0xB981198DCC941454 PUSH1 0xC0 SHL PUSH2 0xF10 JUMP JUMPDEST PUSH1 0x7 PUSH1 0x0 SWAP1 SLOAD SWAP1 PUSH2 0x100 EXP SWAP1 DIV PUSH1 0xFF AND ISZERO PUSH2 0x83C JUMPI PUSH1 0x40 MLOAD PUSH32 0x8C379A000000000000000000000000000000000000000000000000000000000 DUP2 MSTORE PUSH1 0x4 ADD PUSH2 0x833 SWAP1 PUSH2 0x1214 JUMP JUMPDEST PUSH1 0x40 MLOAD DUP1 SWAP2 SUB SWAP1 REVERT JUMPDEST PUSH2 0x850 PUSH8 0x33DBF47CA405BB4 PUSH1 0xC0 SHL PUSH2 0xF10 JUMP JUMPDEST PUSH2 0x864 PUSH8 0xA62447B512EAF7D1 PUSH1 0xC0 SHL PUSH2 0xF10 JUMP JUMPDEST PUSH2 0x878 PUSH8 0xDE97E3FEB7A5FCF4 PUSH1 0xC0 SHL PUSH2 0xF10 JUMP JUMPDEST PUSH2 0x88C PUSH8 0x9B0B3BA2BE9C0359 PUSH1 0xC0 SHL PUSH2 0xF10 JUMP JUMPDEST PUSH1 0x0 CALLVALUE GT PUSH2 0x8CF JUMPI PUSH1 0x40 MLOAD PUSH32 0x8C379A000000000000000000000000000000000000000000000000000000000 DUP2 MSTORE PUSH1 0x4 ADD PUSH2 0x8C6 SWAP1 PUSH2 0x12A6 JUMP JUMPDEST PUSH1 0x40 MLOAD DUP1 SWAP2 SUB SWAP1 REVERT JUMPDEST PUSH2 0x8E3 PUSH8 0xB9980BC07C0F6522 PUSH1 0xC0 SHL PUSH2 0xF10 JUMP JUMPDEST PUSH2 0x8F7 PUSH8 0x69FC5D51FF6D1292 PUSH1 0xC0 SHL PUSH2 0xF10 JUMP JUMPDEST PUSH2 0x90B PUSH8 0x8B1F216B028C225A PUSH1 0xC0 SHL PUSH2 0xF10 JUMP JUMPDEST PUSH1 0x8 SLOAD CALLVALUE GT ISZERO PUSH2 0xA8C JUMPI PUSH2 0x929 PUSH8 0x88C1810682B11013 PUSH1 0xC0 SHL PUSH2 0xF10 JUMP JUMPDEST PUSH2 0x93D PUSH8 0x90C71DBF3E7019FE PUSH1 0xC0 SHL PUSH2 0xF10 JUMP JUMPDEST PUSH2 0x951 PUSH8 0x6FD4F0AAB99D3C86 PUSH1 0xC0 SHL PUSH2 0xF10 JUMP JUMPDEST PUSH1 0x0 PUSH1 0x8 SLOAD EQ PUSH2 0xA02 JUMPI PUSH2 0x96F PUSH8 0x3F66D653B066EA5A PUSH1 0xC0 SHL PUSH2 0xF10 JUMP JUMPDEST PUSH2 0x983 PUSH8 0x1D308D2C5C13A8D PUSH1 0xC0 SHL PUSH2 0xF10 JUMP JUMPDEST PUSH1 0x8 SLOAD PUSH1 0x9 PUSH1 0x0 PUSH1 0x7 PUSH1 0x2 SWAP1 SLOAD SWAP1 PUSH2 0x100 EXP SWAP1 DIV PUSH20 0xFFFFFFFFFFFFFFFFFFFFFFFFFFFFFFFFFFFFFFFF AND PUSH20 0xFFFFFFFFFFFFFFFFFFFFFFFFFFFFFFFFFFFFFFFF AND PUSH20 0xFFFFFFFFFFFFFFFFFFFFFFFFFFFFFFFFFFFFFFFF AND DUP2 MSTORE PUSH1 0x20 ADD SWAP1 DUP2 MSTORE PUSH1 0x20 ADD PUSH1 0x0 KECCAK256 PUSH1 0x0 DUP3 DUP3 SLOAD PUSH2 0x9F6 SWAP2 SWAP1 PUSH2 0x12F5 JUMP JUMPDEST SWAP3 POP POP DUP2 SWAP1 SSTORE POP PUSH2 0xA17 JUMP JUMPDEST PUSH2 0xA16 PUSH8 0x1B4C3236EE4AE0A8 PUSH1 0xC0 SHL PUSH2 0xF10 JUMP JUMPDEST JUMPDEST PUSH2 0xA2B PUSH8 0x88863EE90D5F71A3 PUSH1 0xC0 SHL PUSH2 0xF10 JUMP JUMPDEST CALLER PUSH1 0x7 PUSH1 0x2 PUSH2 0x100 EXP DUP2 SLOAD DUP2 PUSH20 0xFFFFFFFFFFFFFFFFFFFFFFFFFFFFFFFFFFFFFFFF MUL NOT AND SWAP1 DUP4 PUSH20 0xFFFFFFFFFFFFFFFFFFFFFFFFFFFFFFFFFFFFFFFF AND MUL OR SWAP1 SSTORE POP PUSH2 0xA80 PUSH8 0xCCF2A6606FCB1488 PUSH1 0xC0 SHL PUSH2 0xF10 JUMP JUMPDEST CALLVALUE PUSH1 0x8 DUP2 SWAP1 SSTORE POP PUSH2 0xB0B JUMP JUMPDEST PUSH2 0xAA0 PUSH8 0xAE51941A509AA2BE PUSH1 0xC0 SHL PUSH2 0xF10 JUMP JUMPDEST PUSH2 0xAB4 PUSH8 0x13717A9E18F6C022 PUSH1 0xC0 SHL PUSH2 0xF10 JUMP JUMPDEST CALLVALUE PUSH1 0x9 PUSH1 0x0 CALLER PUSH20 0xFFFFFFFFFFFFFFFFFFFFFFFFFFFFFFFFFFFFFFFF AND PUSH20 0xFFFFFFFFFFFFFFFFFFFFFFFFFFFFFFFFFFFFFFFF AND DUP2 MSTORE PUSH1 0x20 ADD SWAP1 DUP2 MSTORE PUSH1 0x20 ADD PUSH1 0x0 KECCAK256 PUSH1 0x0 DUP3 DUP3 SLOAD PUSH2 0xB03 SWAP2 SWAP1 PUSH2 0x12F5 JUMP JUMPDEST SWAP3 POP POP DUP2 SWAP1 SSTORE POP JUMPDEST PUSH2 0xB1F PUSH8 0x89A10092D7EFA43 PUSH1 0xC0 SHL PUSH2 0xF10 JUMP JUMPDEST PUSH2 0xB33 PUSH8 0x19249D1870BFC1F6 PUSH1 0xC0 SHL PUSH2 0xF10 JUMP JUMPDEST PUSH32 0x3FABFF0A9C3ECD6814702E247FA9733E5D0AA69E3A38590F92CB18F623A2254D CALLER CALLVALUE PUSH1 0x40 MLOAD PUSH2 0xB64 SWAP3 SWAP2 SWAP1 PUSH2 0x1329 JUMP JUMPDEST PUSH1 0x40 MLOAD DUP1 SWAP2 SUB SWAP1 LOG1 PUSH2 0xB80 PUSH8 0xC61961693457A42B PUSH1 0xC0 SHL PUSH2 0xF10 JUMP JUMPDEST PUSH2 0xB94 PUSH8 0x98B469518DA5AAAB PUSH1 0xC0 SHL PUSH2 0xF10 JUMP JUMPDEST PUSH1 0x4 SLOAD CALLVALUE LT PUSH2 0xBE6 JUMPI PUSH2 0xBB1 PUSH8 0x6AD45F567A00C654 PUSH1 0xC0 SHL PUSH2 0xF10 JUMP JUMPDEST PUSH2 0xBC5 PUSH8 0x804C66C18AC935A PUSH1 0xC0 SHL PUSH2 0xF10 JUMP JUMPDEST PUSH2 0xBD9 PUSH8 0x8569587B9DE60A3C PUSH1 0xC0 SHL PUSH2 0xF10 JUMP JUMPDEST PUSH2 0xBE1 PUSH2 0xBFD JUMP JUMPDEST PUSH2 0xBFB JUMP JUMPDEST PUSH2 0xBFA PUSH8 0x159F52D074C7745B PUSH1 0xC0 SHL PUSH2 0xF10 JUMP JUMPDEST JUMPDEST JUMP JUMPDEST PUSH2 0xC11 PUSH8 0x6C9F093620B0A2A0 PUSH1 0xC0 SHL PUSH2 0xF10 JUMP JUMPDEST PUSH2 0xC25 PUSH8 0x56A730929AD42D97 PUSH1 0xC0 SHL PUSH2 0xF10 JUMP JUMPDEST PUSH1 0x1 PUSH1 0x7 PUSH1 0x0 PUSH2 0x100 EXP DUP2 SLOAD DUP2 PUSH1 0xFF MUL NOT AND SWAP1 DUP4 ISZERO ISZERO MUL OR SWAP1 SSTORE POP PUSH2 0xC54 PUSH8 0xEA42CC783B9992DB PUSH1 0xC0 SHL PUSH2 0xF10 JUMP JUMPDEST PUSH1 0x1 PUSH1 0x7 PUSH1 0x1 PUSH2 0x100 EXP DUP2 SLOAD DUP2 PUSH1 0xFF MUL NOT AND SWAP1 DUP4 ISZERO ISZERO MUL OR SWAP1 SSTORE POP PUSH2 0xC83 PUSH8 0x99FD2F0F7F81CDF4 PUSH1 0xC0 SHL PUSH2 0xF10 JUMP JUMPDEST PUSH2 0xC97 PUSH8 0x92DAF7C2F73779F6 PUSH1 0xC0 SHL PUSH2 0xF10 JUMP JUMPDEST PUSH1 0x0 PUSH20 0xFFFFFFFFFFFFFFFFFFFFFFFFFFFFFFFFFFFFFFFF AND PUSH1 0x7 PUSH1 0x2 SWAP1 SLOAD SWAP1 PUSH2 0x100 EXP SWAP1 DIV PUSH20 0xFFFFFFFFFFFFFFFFFFFFFFFFFFFFFFFFFFFFFFFF AND PUSH20 0xFFFFFFFFFFFFFFFFFFFFFFFFFFFFFFFFFFFFFFFF AND EQ PUSH2 0xE97 JUMPI PUSH2 0xD01 PUSH8 0x18489E00ED3EDBCE PUSH1 0xC0 SHL PUSH2 0xF10 JUMP JUMPDEST PUSH2 0xD15 PUSH8 0x15F9E5F494F2B515 PUSH1 0xC0 SHL PUSH2 0xF10 JUMP JUMPDEST PUSH1 0x0 PUSH1 0x9 PUSH1 0x0 PUSH1 0x7 PUSH1 0x2 SWAP1 SLOAD SWAP1 PUSH2 0x100 EXP SWAP1 DIV PUSH20 0xFFFFFFFFFFFFFFFFFFFFFFFFFFFFFFFFFFFFFFFF AND PUSH20 0xFFFFFFFFFFFFFFFFFFFFFFFFFFFFFFFFFFFFFFFF AND PUSH20 0xFFFFFFFFFFFFFFFFFFFFFFFFFFFFFFFFFFFFFFFF AND DUP2 MSTORE PUSH1 0x20 ADD SWAP1 DUP2 MSTORE PUSH1 0x20 ADD PUSH1 0x0 KECCAK256 DUP2 SWAP1 SSTORE POP PUSH2 0xD90 PUSH8 0xBEB1ED5810CACFF8 PUSH1 0xC0 SHL PUSH2 0xF10 JUMP JUMPDEST PUSH2 0xDA4 PUSH8 0x86F2F1BF7CEBA361 PUSH1 0xC0 SHL PUSH2 0xF10 JUMP JUMPDEST PUSH1 0x0 DUP1 SLOAD SWAP1 PUSH2 0x100 EXP SWAP1 DIV PUSH20 0xFFFFFFFFFFFFFFFFFFFFFFFFFFFFFFFFFFFFFFFF AND PUSH20 0xFFFFFFFFFFFFFFFFFFFFFFFFFFFFFFFFFFFFFFFF AND PUSH2 0x8FC PUSH1 0x8 SLOAD SWAP1 DUP2 ISZERO MUL SWAP1 PUSH1 0x40 MLOAD PUSH1 0x0 PUSH1 0x40 MLOAD DUP1 DUP4 SUB DUP2 DUP6 DUP9 DUP9 CALL SWAP4 POP POP POP POP ISZERO DUP1 ISZERO PUSH2 0xE0C JUMPI RETURNDATASIZE PUSH1 0x0 DUP1 RETURNDATACOPY RETURNDATASIZE PUSH1 0x0 REVERT JUMPDEST POP PUSH2 0xE21 PUSH8 0x93BEE7A5F5EE54D PUSH1 0xC0 SHL PUSH2 0xF10 JUMP JUMPDEST PUSH2 0xE35 PUSH8 0xAF959D1C6546C09B PUSH1 0xC0 SHL PUSH2 0xF10 JUMP JUMPDEST PUSH32 0xDAEC4582D5D9595688C8C98545FDD1C696D41C6AEAEB636737E84ED2F5C00EDA PUSH1 0x7 PUSH1 0x2 SWAP1 SLOAD SWAP1 PUSH2 0x100 EXP SWAP1 DIV PUSH20 0xFFFFFFFFFFFFFFFFFFFFFFFFFFFFFFFFFFFFFFFF AND PUSH1 0x8 SLOAD PUSH1 0x40 MLOAD PUSH2 0xE8A SWAP3 SWAP2 SWAP1 PUSH2 0x1329 JUMP JUMPDEST PUSH1 0x40 MLOAD DUP1 SWAP2 SUB SWAP1 LOG1 PUSH2 0xF0E JUMP JUMPDEST PUSH2 0xEAB PUSH8 0x790CA8318E3903D2 PUSH1 0xC0 SHL PUSH2 0xF10 JUMP JUMPDEST PUSH2 0xEBF PUSH8 0x584AA0ABD9633257 PUSH1 0xC0 SHL PUSH2 0xF10 JUMP JUMPDEST PUSH2 0xED3 PUSH8 0x7D0B682E4E54FAA4 PUSH1 0xC0 SHL PUSH2 0xF10 JUMP JUMPDEST PUSH32 0xDAEC4582D5D9595688C8C98545FDD1C696D41C6AEAEB636737E84ED2F5C00EDA PUSH1 0x0 DUP1 PUSH1 0x40 MLOAD PUSH2 0xF05 SWAP3 SWAP2 SWAP1 PUSH2 0x1397 JUMP JUMPDEST PUSH1 0x40 MLOAD DUP1 SWAP2 SUB SWAP1 LOG1 JUMPDEST JUMP JUMPDEST POP JUMP JUMPDEST PUSH1 0x0 DUP2 SWAP1 POP SWAP2 SWAP1 POP JUMP JUMPDEST PUSH2 0xF26 DUP2 PUSH2 0xF13 JUMP JUMPDEST DUP3 MSTORE POP POP JUMP JUMPDEST PUSH1 0x0 PUSH1 0x20 DUP3 ADD SWAP1 POP PUSH2 0xF41 PUSH1 0x0 DUP4 ADD DUP5 PUSH2 0xF1D JUMP JUMPDEST SWAP3 SWAP2 POP POP JUMP JUMPDEST PUSH1 0x0 PUSH20 0xFFFFFFFFFFFFFFFFFFFFFFFFFFFFFFFFFFFFFFFF DUP3 AND SWAP1 POP SWAP2 SWAP1 POP JUMP JUMPDEST PUSH1 0x0 PUSH2 0xF72 DUP3 PUSH2 0xF47 JUMP JUMPDEST SWAP1 POP SWAP2 SWAP1 POP JUMP JUMPDEST PUSH2 0xF82 DUP2 PUSH2 0xF67 JUMP JUMPDEST DUP3 MSTORE POP POP JUMP JUMPDEST PUSH1 0x0 PUSH1 0x20 DUP3 ADD SWAP1 POP PUSH2 0xF9D PUSH1 0x0 DUP4 ADD DUP5 PUSH2 0xF79 JUMP JUMPDEST SWAP3 SWAP2 POP POP JUMP JUMPDEST PUSH1 0x0 DUP1 REVERT JUMPDEST PUSH1 0x0 PUSH2 0xFB3 DUP3 PUSH2 0xF47 JUMP JUMPDEST SWAP1 POP SWAP2 SWAP1 POP JUMP JUMPDEST PUSH2 0xFC3 DUP2 PUSH2 0xFA8 JUMP JUMPDEST DUP2 EQ PUSH2 0xFCE JUMPI PUSH1 0x0 DUP1 REVERT JUMPDEST POP JUMP JUMPDEST PUSH1 0x0 DUP2 CALLDATALOAD SWAP1 POP PUSH2 0xFE0 DUP2 PUSH2 0xFBA JUMP JUMPDEST SWAP3 SWAP2 POP POP JUMP JUMPDEST PUSH1 0x0 PUSH1 0x20 DUP3 DUP5 SUB SLT ISZERO PUSH2 0xFFC JUMPI PUSH2 0xFFB PUSH2 0xFA3 JUMP JUMPDEST JUMPDEST PUSH1 0x0 PUSH2 0x100A DUP5 DUP3 DUP6 ADD PUSH2 0xFD1 JUMP JUMPDEST SWAP2 POP POP SWAP3 SWAP2 POP POP JUMP JUMPDEST PUSH1 0x0 DUP2 ISZERO ISZERO SWAP1 POP SWAP2 SWAP1 POP JUMP JUMPDEST PUSH2 0x1028 DUP2 PUSH2 0x1013 JUMP JUMPDEST DUP3 MSTORE POP POP JUMP JUMPDEST PUSH1 0x0 PUSH1 0x20 DUP3 ADD SWAP1 POP PUSH2 0x1043 PUSH1 0x0 DUP4 ADD DUP5 PUSH2 0x101F JUMP JUMPDEST SWAP3 SWAP2 POP POP JUMP JUMPDEST PUSH2 0x1052 DUP2 PUSH2 0xFA8 JUMP JUMPDEST DUP3 MSTORE POP POP JUMP JUMPDEST PUSH1 0x0 PUSH1 0x20 DUP3 ADD SWAP1 POP PUSH2 0x106D PUSH1 0x0 DUP4 ADD DUP5 PUSH2 0x1049 JUMP JUMPDEST SWAP3 SWAP2 POP POP JUMP JUMPDEST PUSH1 0x0 DUP3 DUP3 MSTORE PUSH1 0x20 DUP3 ADD SWAP1 POP SWAP3 SWAP2 POP POP JUMP JUMPDEST PUSH32 0x41756374696F6E20686173206E6F7420656E6465642079657400000000000000 PUSH1 0x0 DUP3 ADD MSTORE POP JUMP JUMPDEST PUSH1 0x0 PUSH2 0x10BA PUSH1 0x19 DUP4 PUSH2 0x1073 JUMP JUMPDEST SWAP2 POP PUSH2 0x10C5 DUP3 PUSH2 0x1084 JUMP JUMPDEST PUSH1 0x20 DUP3 ADD SWAP1 POP SWAP2 SWAP1 POP JUMP JUMPDEST PUSH1 0x0 PUSH1 0x20 DUP3 ADD SWAP1 POP DUP2 DUP2 SUB PUSH1 0x0 DUP4 ADD MSTORE PUSH2 0x10E9 DUP2 PUSH2 0x10AD JUMP JUMPDEST SWAP1 POP SWAP2 SWAP1 POP JUMP JUMPDEST PUSH32 0x48696768657374206269646465722063616E6E6F7420726566756E6400000000 PUSH1 0x0 DUP3 ADD MSTORE POP JUMP JUMPDEST PUSH1 0x0 PUSH2 0x1126 PUSH1 0x1C DUP4 PUSH2 0x1073 JUMP JUMPDEST SWAP2 POP PUSH2 0x1131 DUP3 PUSH2 0x10F0 JUMP JUMPDEST PUSH1 0x20 DUP3 ADD SWAP1 POP SWAP2 SWAP1 POP JUMP JUMPDEST PUSH1 0x0 PUSH1 0x20 DUP3 ADD SWAP1 POP DUP2 DUP2 SUB PUSH1 0x0 DUP4 ADD MSTORE PUSH2 0x1155 DUP2 PUSH2 0x1119 JUMP JUMPDEST SWAP1 POP SWAP2 SWAP1 POP JUMP JUMPDEST PUSH32 0x4E6F2062696420746F20726566756E6400000000000000000000000000000000 PUSH1 0x0 DUP3 ADD MSTORE POP JUMP JUMPDEST PUSH1 0x0 PUSH2 0x1192 PUSH1 0x10 DUP4 PUSH2 0x1073 JUMP JUMPDEST SWAP2 POP PUSH2 0x119D DUP3 PUSH2 0x115C JUMP JUMPDEST PUSH1 0x20 DUP3 ADD SWAP1 POP SWAP2 SWAP1 POP JUMP JUMPDEST PUSH1 0x0 PUSH1 0x20 DUP3 ADD SWAP1 POP DUP2 DUP2 SUB PUSH1 0x0 DUP4 ADD MSTORE PUSH2 0x11C1 DUP2 PUSH2 0x1185 JUMP JUMPDEST SWAP1 POP SWAP2 SWAP1 POP JUMP JUMPDEST PUSH32 0x41756374696F6E20616C726561647920656E6465640000000000000000000000 PUSH1 0x0 DUP3 ADD MSTORE POP JUMP JUMPDEST PUSH1 0x0 PUSH2 0x11FE PUSH1 0x15 DUP4 PUSH2 0x1073 JUMP JUMPDEST SWAP2 POP PUSH2 0x1209 DUP3 PUSH2 0x11C8 JUMP JUMPDEST PUSH1 0x20 DUP3 ADD SWAP1 POP SWAP2 SWAP1 POP JUMP JUMPDEST PUSH1 0x0 PUSH1 0x20 DUP3 ADD SWAP1 POP DUP2 DUP2 SUB PUSH1 0x0 DUP4 ADD MSTORE PUSH2 0x122D DUP2 PUSH2 0x11F1 JUMP JUMPDEST SWAP1 POP SWAP2 SWAP1 POP JUMP JUMPDEST PUSH32 0x42696420616D6F756E74206D7573742062652067726561746572207468616E20 PUSH1 0x0 DUP3 ADD MSTORE PUSH32 0x3000000000000000000000000000000000000000000000000000000000000000 PUSH1 0x20 DUP3 ADD MSTORE POP JUMP JUMPDEST PUSH1 0x0 PUSH2 0x1290 PUSH1 0x21 DUP4 PUSH2 0x1073 JUMP JUMPDEST SWAP2 POP PUSH2 0x129B DUP3 PUSH2 0x1234 JUMP JUMPDEST PUSH1 0x40 DUP3 ADD SWAP1 POP SWAP2 SWAP1 POP JUMP JUMPDEST PUSH1 0x0 PUSH1 0x20 DUP3 ADD SWAP1 POP DUP2 DUP2 SUB PUSH1 0x0 DUP4 ADD MSTORE PUSH2 0x12BF DUP2 PUSH2 0x1283 JUMP JUMPDEST SWAP1 POP SWAP2 SWAP1 POP JUMP JUMPDEST PUSH32 0x4E487B7100000000000000000000000000000000000000000000000000000000 PUSH1 0x0 MSTORE PUSH1 0x11 PUSH1 0x4 MSTORE PUSH1 0x24 PUSH1 0x0 REVERT JUMPDEST PUSH1 0x0 PUSH2 0x1300 DUP3 PUSH2 0xF13 JUMP JUMPDEST SWAP2 POP PUSH2 0x130B DUP4 PUSH2 0xF13 JUMP JUMPDEST SWAP3 POP DUP3 DUP3 ADD SWAP1 POP DUP1 DUP3 GT ISZERO PUSH2 0x1323 JUMPI PUSH2 0x1322 PUSH2 0x12C6 JUMP JUMPDEST JUMPDEST SWAP3 SWAP2 POP POP JUMP JUMPDEST PUSH1 0x0 PUSH1 0x40 DUP3 ADD SWAP1 POP PUSH2 0x133E PUSH1 0x0 DUP4 ADD DUP6 PUSH2 0x1049 JUMP JUMPDEST PUSH2 0x134B PUSH1 0x20 DUP4 ADD DUP5 PUSH2 0xF1D JUMP JUMPDEST SWAP4 SWAP3 POP POP POP JUMP JUMPDEST PUSH1 0x0 DUP2 SWAP1 POP SWAP2 SWAP1 POP JUMP JUMPDEST PUSH1 0x0 DUP2 SWAP1 POP SWAP2 SWAP1 POP JUMP JUMPDEST PUSH1 0x0 PUSH2 0x1381 PUSH2 0x137C PUSH2 0x1377 DUP5 PUSH2 0x1352 JUMP JUMPDEST PUSH2 0x135C JUMP JUMPDEST PUSH2 0xF13 JUMP JUMPDEST SWAP1 POP SWAP2 SWAP1 POP JUMP JUMPDEST PUSH2 0x1391 DUP2 PUSH2 0x1366 JUMP JUMPDEST DUP3 MSTORE POP POP JUMP JUMPDEST PUSH1 0x0 PUSH1 0x40 DUP3 ADD SWAP1 POP PUSH2 0x13AC PUSH1 0x0 DUP4 ADD DUP6 PUSH2 0x1049 JUMP JUMPDEST PUSH2 0x13B9 PUSH1 0x20 DUP4 ADD DUP5 PUSH2 0x1388 JUMP JUMPDEST SWAP4 SWAP3 POP POP POP JUMP INVALID LOG2 PUSH5 0x6970667358 0x22 SLT KECCAK256 PUSH24 0x4A7F30D8B02F9D78BC1FE38C29A84C19AC10367FE7F76406 0xEC PUSH10 0xB625DDE55A64736F6C63 NUMBER STOP ADDMOD SLT STOP CALLER "},"methodIdentifiers":{"auctionEnded()":"86433374","bids(address)":"62ea82db","endAuction()":"fe67a54b","endBlock()":"083c6323","highestBid()":"d57bde79","highestBidder()":"91f90157","initialPrice()":"1d0806ae","itemSold()":"438e897a","numBlocksAuctionOpen()":"3103ea62","offerPriceDecrement()":"d3642a88","placeBid()":"ecfc7ecc","refundBid(address)":"385e3155","reservePrice()":"db2e1eed","seller()":"08551a53","startBlock()":"48cd4cb1"}}}}}