{"contracts/BasicDutchAuction.sol":{"BasicDutchAuction":{"abi":[{"inputs":[{"internalType":"uint256","name":"_reservePrice","type":"uint256"},{"internalType":"uint256","name":"_numBlocksAuctionOpen","type":"uint256"},{"internalType":"uint256","name":"_offerPriceDecrement","type":"uint256"}],"stateMutability":"nonpayable","type":"constructor"},{"anonymous":false,"inputs":[{"indexed":false,"internalType":"address","name":"winner","type":"address"},{"indexed":false,"internalType":"uint256","name":"amount","type":"uint256"}],"name":"AuctionEnded","type":"event"},{"anonymous":false,"inputs":[{"indexed":false,"internalType":"address","name":"bidder","type":"address"},{"indexed":false,"internalType":"uint256","name":"amount","type":"uint256"}],"name":"BidPlaced","type":"event"},{"inputs":[],"name":"auctionEnded","outputs":[{"internalType":"bool","name":"","type":"bool"}],"stateMutability":"view","type":"function"},{"inputs":[{"internalType":"address","name":"","type":"address"}],"name":"bids","outputs":[{"internalType":"uint256","name":"","type":"uint256"}],"stateMutability":"view","type":"function"},{"inputs":[],"name":"endBlock","outputs":[{"internalType":"uint256","name":"","type":"uint256"}],"stateMutability":"view","type":"function"},{"inputs":[],"name":"getCurrentPrice","outputs":[{"internalType":"uint256","name":"","type":"uint256"}],"stateMutability":"view","type":"function"},{"inputs":[],"name":"highestBid","outputs":[{"internalType":"uint256","name":"","type":"uint256"}],"stateMutability":"view","type":"function"},{"inputs":[],"name":"highestBidder","outputs":[{"internalType":"address","name":"","type":"address"}],"stateMutability":"view","type":"function"},{"inputs":[],"name":"initialPrice","outputs":[{"internalType":"uint256","name":"","type":"uint256"}],"stateMutability":"view","type":"function"},{"inputs":[],"name":"itemSold","outputs":[{"internalType":"bool","name":"","type":"bool"}],"stateMutability":"view","type":"function"},{"inputs":[],"name":"numBlocksAuctionOpen","outputs":[{"internalType":"uint256","name":"","type":"uint256"}],"stateMutability":"view","type":"function"},{"inputs":[],"name":"offerPriceDecrement","outputs":[{"internalType":"uint256","name":"","type":"uint256"}],"stateMutability":"view","type":"function"},{"inputs":[],"name":"placeBid","outputs":[],"stateMutability":"payable","type":"function"},{"inputs":[{"internalType":"address","name":"bidder","type":"address"}],"name":"refundBid","outputs":[],"stateMutability":"nonpayable","type":"function"},{"inputs":[],"name":"reservePrice","outputs":[{"internalType":"uint256","name":"","type":"uint256"}],"stateMutability":"view","type":"function"},{"inputs":[],"name":"seller","outputs":[{"internalType":"address payable","name":"","type":"address"}],"stateMutability":"view","type":"function"},{"inputs":[],"name":"startBlock","outputs":[{"internalType":"uint256","name":"","type":"uint256"}],"stateMutability":"view","type":"function"}],"evm":{"bytecode":{"linkReferences":{},"object":"60806040523480156200001157600080fd5b5060405162001d2838038062001d2883398181016040528101906200003791906200026b565b6200005367ea7bd5424ff204b260c01b6200022860201b60201c565b6200006f67df20ccc2d68f915f60c01b6200022860201b60201c565b336000806101000a81548173ffffffffffffffffffffffffffffffffffffffff021916908373ffffffffffffffffffffffffffffffffffffffff160217905550620000cb67b1dd654ad227413560c01b6200022860201b60201c565b82600181905550620000ee6795831a4c55e3f66960c01b6200022860201b60201c565b816002819055506200011167a1a7812fabaaa7b160c01b6200022860201b60201c565b8060038190555062000134678920d5b89a067a8b60c01b6200022860201b60201c565b600354600254620001469190620002f6565b60015462000155919062000341565b600481905550620001776762b11163ee5f7c0160c01b6200022860201b60201c565b436005819055506200019a6766d613dd06983aac60c01b6200022860201b60201c565b600254600554620001ac919062000341565b600681905550620001ce67209d586b156a62a460c01b6200022860201b60201c565b6000600760006101000a81548160ff021916908315150217905550620002046649ca032e6b205860c01b6200022860201b60201c565b6000600760016101000a81548160ff0219169083151502179055505050506200037c565b50565b600080fd5b6000819050919050565b620002458162000230565b81146200025157600080fd5b50565b60008151905062000265816200023a565b92915050565b6000806000606084860312156200028757620002866200022b565b5b6000620002978682870162000254565b9350506020620002aa8682870162000254565b9250506040620002bd8682870162000254565b9150509250925092565b7f4e487b7100000000000000000000000000000000000000000000000000000000600052601160045260246000fd5b6000620003038262000230565b9150620003108362000230565b9250828202620003208162000230565b915082820484148315176200033a5762000339620002c7565b5b5092915050565b60006200034e8262000230565b91506200035b8362000230565b9250828201905080821115620003765762000375620002c7565b5b92915050565b61199c806200038c6000396000f3fe6080604052600436106100e85760003560e01c806362ea82db1161008a578063d57bde7911610059578063d57bde79146102d6578063db2e1eed14610301578063eb91d37e1461032c578063ecfc7ecc14610357576100e8565b806362ea82db14610218578063864333741461025557806391f9015714610280578063d3642a88146102ab576100e8565b80633103ea62116100c65780633103ea621461016e578063385e315514610199578063438e897a146101c257806348cd4cb1146101ed576100e8565b8063083c6323146100ed57806308551a53146101185780631d0806ae14610143575b600080fd5b3480156100f957600080fd5b50610102610361565b60405161010f91906112f2565b60405180910390f35b34801561012457600080fd5b5061012d610367565b60405161013a919061134e565b60405180910390f35b34801561014f57600080fd5b5061015861038b565b60405161016591906112f2565b60405180910390f35b34801561017a57600080fd5b50610183610391565b60405161019091906112f2565b60405180910390f35b3480156101a557600080fd5b506101c060048036038101906101bb91906113ac565b610397565b005b3480156101ce57600080fd5b506101d7610734565b6040516101e491906113f4565b60405180910390f35b3480156101f957600080fd5b50610202610747565b60405161020f91906112f2565b60405180910390f35b34801561022457600080fd5b5061023f600480360381019061023a91906113ac565b61074d565b60405161024c91906112f2565b60405180910390f35b34801561026157600080fd5b5061026a610765565b60405161027791906113f4565b60405180910390f35b34801561028c57600080fd5b50610295610778565b6040516102a2919061141e565b60405180910390f35b3480156102b757600080fd5b506102c061079e565b6040516102cd91906112f2565b60405180910390f35b3480156102e257600080fd5b506102eb6107a4565b6040516102f891906112f2565b60405180910390f35b34801561030d57600080fd5b506103166107aa565b60405161032391906112f2565b60405180910390f35b34801561033857600080fd5b506103416107b0565b60405161034e91906112f2565b60405180910390f35b61035f610932565b005b60065481565b60008054906101000a900473ffffffffffffffffffffffffffffffffffffffff1681565b60045481565b60025481565b6103ab67a8d02daea55db61f60c01b610f9e565b6103bf67f97877f71948b2af60c01b610f9e565b6103d367591af0c60129109f60c01b610f9e565b6103e76718c9874541a6e1aa60c01b610f9e565b600760009054906101000a900460ff16610436576040517f08c379a000000000000000000000000000000000000000000000000000000000815260040161042d90611496565b60405180910390fd5b61044a677ad21cbb02818bfb60c01b610f9e565b61045e67a54ecf6cc996669d60c01b610f9e565b61047267b3b8dc8fba878ba160c01b610f9e565b610486676f0539e4de5efd9460c01b610f9e565b6000600960008373ffffffffffffffffffffffffffffffffffffffff1673ffffffffffffffffffffffffffffffffffffffff1681526020019081526020016000205411610508576040517f08c379a00000000000000000000000000000000000000000000000000000000081526004016104ff90611502565b60405180910390fd5b61051c67298d80b8adc9603c60c01b610f9e565b61053067e43a272b420eb97160c01b610f9e565b610544671162da78f9ef463c60c01b610f9e565b61055867a4aa36ee8292dd4660c01b610f9e565b600760029054906101000a900473ffffffffffffffffffffffffffffffffffffffff1673ffffffffffffffffffffffffffffffffffffffff168173ffffffffffffffffffffffffffffffffffffffff16036105e8576040517f08c379a00000000000000000000000000000000000000000000000000000000081526004016105df9061156e565b60405180910390fd5b6105fc67d5775678c23738e160c01b610f9e565b610610674b68dc322ddb7d5c60c01b610f9e565b610624674b59133614f31d5a60c01b610f9e565b6000600960008373ffffffffffffffffffffffffffffffffffffffff1673ffffffffffffffffffffffffffffffffffffffff16815260200190815260200160002054905061067c67c4d88e5b71a7ace360c01b610f9e565b6000600960008473ffffffffffffffffffffffffffffffffffffffff1673ffffffffffffffffffffffffffffffffffffffff168152602001908152602001600020819055506106d5671f33d62cfd9bb8f360c01b610f9e565b6106e967b5f7f10a381839ca60c01b610f9e565b8173ffffffffffffffffffffffffffffffffffffffff166108fc829081150290604051600060405180830381858888f1935050505015801561072f573d6000803e3d6000fd5b505050565b600760019054906101000a900460ff1681565b60055481565b60096020528060005260406000206000915090505481565b600760009054906101000a900460ff1681565b600760029054906101000a900473ffffffffffffffffffffffffffffffffffffffff1681565b60035481565b60085481565b60015481565b60006107c667159f52d074c7745b60c01b610f9e565b6107da676c9f093620b0a2a060c01b610f9e565b6107ee6756a730929ad42d9760c01b610f9e565b600043905061080767ea42cc783b9992db60c01b610f9e565b61081b6799fd2f0f7f81cdf460c01b610f9e565b600554811161086b576108386792daf7c2f73779f660c01b610f9e565b61084c6718489e00ed3edbce60c01b610f9e565b6108606715f9e5f494f2b51560c01b610f9e565b60045491505061092f565b61087f67beb1ed5810cacff860c01b610f9e565b6108936786f2f1bf7ceba36160c01b610f9e565b6108a767093bee7a5f5ee54d60c01b610f9e565b6000600554826108b791906115bd565b90506108cd67af959d1c6546c09b60c01b610f9e565b6108e167790ca8318e3903d260c01b610f9e565b6000600354826108f191906115f1565b905061090767584aa0abd963325760c01b610f9e565b61091b677d0b682e4e54faa460c01b610f9e565b8060045461092991906115bd565b93505050505b90565b610946675ce4254746d0e62160c01b610f9e565b61095a67ffee5005e14edffb60c01b610f9e565b61096e67968043f64f098a3460c01b610f9e565b61098267e7d2bcc825945a5260c01b610f9e565b600554431015801561099657506006544311155b6109d5576040517f08c379a00000000000000000000000000000000000000000000000000000000081526004016109cc9061167f565b60405180910390fd5b6109e9676c3eaf03bcbc74a360c01b610f9e565b6109fd67aa9f4162d7d1a00360c01b610f9e565b610a11674ad4abcf7b3044b360c01b610f9e565b610a256728244fd9353c404b60c01b610f9e565b600760009054906101000a900460ff1615610a75576040517f08c379a0000000000000000000000000000000000000000000000000000000008152600401610a6c906116eb565b60405180910390fd5b610a89673631c4716a9d398c60c01b610f9e565b610a9d676d411fac4f8da5c860c01b610f9e565b610ab167187249576e1da13660c01b610f9e565b610ac56781558ef263a64c1460c01b610f9e565b600760019054906101000a900460ff1615610b15576040517f08c379a0000000000000000000000000000000000000000000000000000000008152600401610b0c90611757565b60405180910390fd5b610b29671a829987fbc251b060c01b610f9e565b610b3d6755b21dee63c3783460c01b610f9e565b610b516757a5b71ae94d998a60c01b610f9e565b610b6567504f15962b3df55b60c01b610f9e565b60003411610ba8576040517f08c379a0000000000000000000000000000000000000000000000000000000008152600401610b9f906117e9565b60405180910390fd5b610bbc675cd6b4d5bf0c006c60c01b610f9e565b610bd0672b76ed231ef2088960c01b610f9e565b610be46777eb7920824b8d0060c01b610f9e565b6000610bee6107b0565b9050610c04677918063d59754ebd60c01b610f9e565b610c18674b33d70b020a70c660c01b610f9e565b610c2c67ad5b5f47b9959ffd60c01b610f9e565b80341015610c6f576040517f08c379a0000000000000000000000000000000000000000000000000000000008152600401610c669061187b565b60405180910390fd5b610c83675d4ec003a8af7cde60c01b610f9e565b610c9767d9454cb82742dc7a60c01b610f9e565b610cab6744da0aedaaacc1be60c01b610f9e565b600854341115610e2c57610cc96723dccaad9cb0b4a460c01b610f9e565b610cdd674ed31c252370610b60c01b610f9e565b610cf1670e4e5568d51df0d560c01b610f9e565b600060085414610da257610d0f6745449e5296c7390360c01b610f9e565b610d236796c6effcbbd2c40660c01b610f9e565b60085460096000600760029054906101000a900473ffffffffffffffffffffffffffffffffffffffff1673ffffffffffffffffffffffffffffffffffffffff1673ffffffffffffffffffffffffffffffffffffffff1681526020019081526020016000206000828254610d96919061189b565b92505081905550610db7565b610db6677158583853ab6a1860c01b610f9e565b5b610dcb67d1542e57f4f4924560c01b610f9e565b33600760026101000a81548173ffffffffffffffffffffffffffffffffffffffff021916908373ffffffffffffffffffffffffffffffffffffffff160217905550610e20675a25bb45d2af8ba960c01b610f9e565b34600881905550610eab565b610e406743dd5332de1a40ce60c01b610f9e565b610e54671dfe885be9f7808660c01b610f9e565b34600960003373ffffffffffffffffffffffffffffffffffffffff1673ffffffffffffffffffffffffffffffffffffffff1681526020019081526020016000206000828254610ea3919061189b565b925050819055505b610ebf67b981198dcc94145460c01b610f9e565b610ed367033dbf47ca405bb460c01b610f9e565b7f3fabff0a9c3ecd6814702e247fa9733e5d0aa69e3a38590f92cb18f623a2254d3334604051610f049291906118cf565b60405180910390a1610f2067a62447b512eaf7d160c01b610f9e565b610f3467de97e3feb7a5fcf460c01b610f9e565b6004543410610f8657610f51679b0b3ba2be9c035960c01b610f9e565b610f6567b9980bc07c0f652260c01b610f9e565b610f796769fc5d51ff6d129260c01b610f9e565b610f81610fa1565b610f9b565b610f9a678b1f216b028c225a60c01b610f9e565b5b50565b50565b610fb56788c1810682b1101360c01b610f9e565b610fc96790c71dbf3e7019fe60c01b610f9e565b610fdd676fd4f0aab99d3c8660c01b610f9e565b610ff1673f66d653b066ea5a60c01b610f9e565b600760009054906101000a900460ff1615611041576040517f08c379a0000000000000000000000000000000000000000000000000000000008152600401611038906116eb565b60405180910390fd5b6110556701d308d2c5c13a8d60c01b610f9e565b611069671b4c3236ee4ae0a860c01b610f9e565b6001600760006101000a81548160ff0219169083151502179055506110986788863ee90d5f71a360c01b610f9e565b6001600760016101000a81548160ff0219169083151502179055506110c767ccf2a6606fcb148860c01b610f9e565b6110db67ae51941a509aa2be60c01b610f9e565b600073ffffffffffffffffffffffffffffffffffffffff16600760029054906101000a900473ffffffffffffffffffffffffffffffffffffffff1673ffffffffffffffffffffffffffffffffffffffff1614611260576111456713717a9e18f6c02260c01b610f9e565b61115967089a10092d7efa4360c01b610f9e565b61116d6719249d1870bfc1f660c01b610f9e565b60008054906101000a900473ffffffffffffffffffffffffffffffffffffffff1673ffffffffffffffffffffffffffffffffffffffff166108fc6008549081150290604051600060405180830381858888f193505050501580156111d5573d6000803e3d6000fd5b506111ea67c61961693457a42b60c01b610f9e565b6111fe6798b469518da5aaab60c01b610f9e565b7fdaec4582d5d9595688c8c98545fdd1c696d41c6aeaeb636737e84ed2f5c00eda600760029054906101000a900473ffffffffffffffffffffffffffffffffffffffff166008546040516112539291906118cf565b60405180910390a16112d7565b611274676ad45f567a00c65460c01b610f9e565b611288670804c66c18ac935a60c01b610f9e565b61129c678569587b9de60a3c60c01b610f9e565b7fdaec4582d5d9595688c8c98545fdd1c696d41c6aeaeb636737e84ed2f5c00eda6000806040516112ce92919061193d565b60405180910390a15b565b6000819050919050565b6112ec816112d9565b82525050565b600060208201905061130760008301846112e3565b92915050565b600073ffffffffffffffffffffffffffffffffffffffff82169050919050565b60006113388261130d565b9050919050565b6113488161132d565b82525050565b6000602082019050611363600083018461133f565b92915050565b600080fd5b60006113798261130d565b9050919050565b6113898161136e565b811461139457600080fd5b50565b6000813590506113a681611380565b92915050565b6000602082840312156113c2576113c1611369565b5b60006113d084828501611397565b91505092915050565b60008115159050919050565b6113ee816113d9565b82525050565b600060208201905061140960008301846113e5565b92915050565b6114188161136e565b82525050565b6000602082019050611433600083018461140f565b92915050565b600082825260208201905092915050565b7f41756374696f6e20686173206e6f7420656e6465642079657400000000000000600082015250565b6000611480601983611439565b915061148b8261144a565b602082019050919050565b600060208201905081810360008301526114af81611473565b9050919050565b7f4e6f2062696420746f20726566756e6400000000000000000000000000000000600082015250565b60006114ec601083611439565b91506114f7826114b6565b602082019050919050565b6000602082019050818103600083015261151b816114df565b9050919050565b7f48696768657374206269646465722063616e6e6f7420726566756e6400000000600082015250565b6000611558601c83611439565b915061156382611522565b602082019050919050565b600060208201905081810360008301526115878161154b565b9050919050565b7f4e487b7100000000000000000000000000000000000000000000000000000000600052601160045260246000fd5b60006115c8826112d9565b91506115d3836112d9565b92508282039050818111156115eb576115ea61158e565b5b92915050565b60006115fc826112d9565b9150611607836112d9565b9250828202611615816112d9565b9150828204841483151761162c5761162b61158e565b5b5092915050565b7f41756374696f6e206e6f74206f70656e00000000000000000000000000000000600082015250565b6000611669601083611439565b915061167482611633565b602082019050919050565b600060208201905081810360008301526116988161165c565b9050919050565b7f41756374696f6e20616c726561647920656e6465640000000000000000000000600082015250565b60006116d5601583611439565b91506116e08261169f565b602082019050919050565b60006020820190508181036000830152611704816116c8565b9050919050565b7f4974656d20616c726561647920736f6c64000000000000000000000000000000600082015250565b6000611741601183611439565b915061174c8261170b565b602082019050919050565b6000602082019050818103600083015261177081611734565b9050919050565b7f42696420616d6f756e74206d7573742062652067726561746572207468616e2060008201527f3000000000000000000000000000000000000000000000000000000000000000602082015250565b60006117d3602183611439565b91506117de82611777565b604082019050919050565b60006020820190508181036000830152611802816117c6565b9050919050565b7f42696420616d6f756e742069732062656c6f772063757272656e74207072696360008201527f6500000000000000000000000000000000000000000000000000000000000000602082015250565b6000611865602183611439565b915061187082611809565b604082019050919050565b6000602082019050818103600083015261189481611858565b9050919050565b60006118a6826112d9565b91506118b1836112d9565b92508282019050808211156118c9576118c861158e565b5b92915050565b60006040820190506118e4600083018561140f565b6118f160208301846112e3565b9392505050565b6000819050919050565b6000819050919050565b600061192761192261191d846118f8565b611902565b6112d9565b9050919050565b6119378161190c565b82525050565b6000604082019050611952600083018561140f565b61195f602083018461192e565b939250505056fea264697066735822122052d9fc9c3c03bde54073aa3716e2f8dc2977af4f46cea425074b67bfbe55a4c664736f6c63430008120033","opcodes":"PUSH1 0x80 PUSH1 0x40 MSTORE CALLVALUE DUP1 ISZERO PUSH3 0x11 JUMPI PUSH1 0x0 DUP1 REVERT JUMPDEST POP PUSH1 0x40 MLOAD PUSH3 0x1D28 CODESIZE SUB DUP1 PUSH3 0x1D28 DUP4 CODECOPY DUP2 DUP2 ADD PUSH1 0x40 MSTORE DUP2 ADD SWAP1 PUSH3 0x37 SWAP2 SWAP1 PUSH3 0x26B JUMP JUMPDEST PUSH3 0x53 PUSH8 0xEA7BD5424FF204B2 PUSH1 0xC0 SHL PUSH3 0x228 PUSH1 0x20 SHL PUSH1 0x20 SHR JUMP JUMPDEST PUSH3 0x6F PUSH8 0xDF20CCC2D68F915F PUSH1 0xC0 SHL PUSH3 0x228 PUSH1 0x20 SHL PUSH1 0x20 SHR JUMP JUMPDEST CALLER PUSH1 0x0 DUP1 PUSH2 0x100 EXP DUP2 SLOAD DUP2 PUSH20 0xFFFFFFFFFFFFFFFFFFFFFFFFFFFFFFFFFFFFFFFF MUL NOT AND SWAP1 DUP4 PUSH20 0xFFFFFFFFFFFFFFFFFFFFFFFFFFFFFFFFFFFFFFFF AND MUL OR SWAP1 SSTORE POP PUSH3 0xCB PUSH8 0xB1DD654AD2274135 PUSH1 0xC0 SHL PUSH3 0x228 PUSH1 0x20 SHL PUSH1 0x20 SHR JUMP JUMPDEST DUP3 PUSH1 0x1 DUP2 SWAP1 SSTORE POP PUSH3 0xEE PUSH8 0x95831A4C55E3F669 PUSH1 0xC0 SHL PUSH3 0x228 PUSH1 0x20 SHL PUSH1 0x20 SHR JUMP JUMPDEST DUP2 PUSH1 0x2 DUP2 SWAP1 SSTORE POP PUSH3 0x111 PUSH8 0xA1A7812FABAAA7B1 PUSH1 0xC0 SHL PUSH3 0x228 PUSH1 0x20 SHL PUSH1 0x20 SHR JUMP JUMPDEST DUP1 PUSH1 0x3 DUP2 SWAP1 SSTORE POP PUSH3 0x134 PUSH8 0x8920D5B89A067A8B PUSH1 0xC0 SHL PUSH3 0x228 PUSH1 0x20 SHL PUSH1 0x20 SHR JUMP JUMPDEST PUSH1 0x3 SLOAD PUSH1 0x2 SLOAD PUSH3 0x146 SWAP2 SWAP1 PUSH3 0x2F6 JUMP JUMPDEST PUSH1 0x1 SLOAD PUSH3 0x155 SWAP2 SWAP1 PUSH3 0x341 JUMP JUMPDEST PUSH1 0x4 DUP2 SWAP1 SSTORE POP PUSH3 0x177 PUSH8 0x62B11163EE5F7C01 PUSH1 0xC0 SHL PUSH3 0x228 PUSH1 0x20 SHL PUSH1 0x20 SHR JUMP JUMPDEST NUMBER PUSH1 0x5 DUP2 SWAP1 SSTORE POP PUSH3 0x19A PUSH8 0x66D613DD06983AAC PUSH1 0xC0 SHL PUSH3 0x228 PUSH1 0x20 SHL PUSH1 0x20 SHR JUMP JUMPDEST PUSH1 0x2 SLOAD PUSH1 0x5 SLOAD PUSH3 0x1AC SWAP2 SWAP1 PUSH3 0x341 JUMP JUMPDEST PUSH1 0x6 DUP2 SWAP1 SSTORE POP PUSH3 0x1CE PUSH8 0x209D586B156A62A4 PUSH1 0xC0 SHL PUSH3 0x228 PUSH1 0x20 SHL PUSH1 0x20 SHR JUMP JUMPDEST PUSH1 0x0 PUSH1 0x7 PUSH1 0x0 PUSH2 0x100 EXP DUP2 SLOAD DUP2 PUSH1 0xFF MUL NOT AND SWAP1 DUP4 ISZERO ISZERO MUL OR SWAP1 SSTORE POP PUSH3 0x204 PUSH7 0x49CA032E6B2058 PUSH1 0xC0 SHL PUSH3 0x228 PUSH1 0x20 SHL PUSH1 0x20 SHR JUMP JUMPDEST PUSH1 0x0 PUSH1 0x7 PUSH1 0x1 PUSH2 0x100 EXP DUP2 SLOAD DUP2 PUSH1 0xFF MUL NOT AND SWAP1 DUP4 ISZERO ISZERO MUL OR SWAP1 SSTORE POP POP POP POP PUSH3 0x37C JUMP JUMPDEST POP JUMP JUMPDEST PUSH1 0x0 DUP1 REVERT JUMPDEST PUSH1 0x0 DUP2 SWAP1 POP SWAP2 SWAP1 POP JUMP JUMPDEST PUSH3 0x245 DUP2 PUSH3 0x230 JUMP JUMPDEST DUP2 EQ PUSH3 0x251 JUMPI PUSH1 0x0 DUP1 REVERT JUMPDEST POP JUMP JUMPDEST PUSH1 0x0 DUP2 MLOAD SWAP1 POP PUSH3 0x265 DUP2 PUSH3 0x23A JUMP JUMPDEST SWAP3 SWAP2 POP POP JUMP JUMPDEST PUSH1 0x0 DUP1 PUSH1 0x0 PUSH1 0x60 DUP5 DUP7 SUB SLT ISZERO PUSH3 0x287 JUMPI PUSH3 0x286 PUSH3 0x22B JUMP JUMPDEST JUMPDEST PUSH1 0x0 PUSH3 0x297 DUP7 DUP3 DUP8 ADD PUSH3 0x254 JUMP JUMPDEST SWAP4 POP POP PUSH1 0x20 PUSH3 0x2AA DUP7 DUP3 DUP8 ADD PUSH3 0x254 JUMP JUMPDEST SWAP3 POP POP PUSH1 0x40 PUSH3 0x2BD DUP7 DUP3 DUP8 ADD PUSH3 0x254 JUMP JUMPDEST SWAP2 POP POP SWAP3 POP SWAP3 POP SWAP3 JUMP JUMPDEST PUSH32 0x4E487B7100000000000000000000000000000000000000000000000000000000 PUSH1 0x0 MSTORE PUSH1 0x11 PUSH1 0x4 MSTORE PUSH1 0x24 PUSH1 0x0 REVERT JUMPDEST PUSH1 0x0 PUSH3 0x303 DUP3 PUSH3 0x230 JUMP JUMPDEST SWAP2 POP PUSH3 0x310 DUP4 PUSH3 0x230 JUMP JUMPDEST SWAP3 POP DUP3 DUP3 MUL PUSH3 0x320 DUP2 PUSH3 0x230 JUMP JUMPDEST SWAP2 POP DUP3 DUP3 DIV DUP5 EQ DUP4 ISZERO OR PUSH3 0x33A JUMPI PUSH3 0x339 PUSH3 0x2C7 JUMP JUMPDEST JUMPDEST POP SWAP3 SWAP2 POP POP JUMP JUMPDEST PUSH1 0x0 PUSH3 0x34E DUP3 PUSH3 0x230 JUMP JUMPDEST SWAP2 POP PUSH3 0x35B DUP4 PUSH3 0x230 JUMP JUMPDEST SWAP3 POP DUP3 DUP3 ADD SWAP1 POP DUP1 DUP3 GT ISZERO PUSH3 0x376 JUMPI PUSH3 0x375 PUSH3 0x2C7 JUMP JUMPDEST JUMPDEST SWAP3 SWAP2 POP POP JUMP JUMPDEST PUSH2 0x199C DUP1 PUSH3 0x38C PUSH1 0x0 CODECOPY PUSH1 0x0 RETURN INVALID PUSH1 0x80 PUSH1 0x40 MSTORE PUSH1 0x4 CALLDATASIZE LT PUSH2 0xE8 JUMPI PUSH1 0x0 CALLDATALOAD PUSH1 0xE0 SHR DUP1 PUSH4 0x62EA82DB GT PUSH2 0x8A JUMPI DUP1 PUSH4 0xD57BDE79 GT PUSH2 0x59 JUMPI DUP1 PUSH4 0xD57BDE79 EQ PUSH2 0x2D6 JUMPI DUP1 PUSH4 0xDB2E1EED EQ PUSH2 0x301 JUMPI DUP1 PUSH4 0xEB91D37E EQ PUSH2 0x32C JUMPI DUP1 PUSH4 0xECFC7ECC EQ PUSH2 0x357 JUMPI PUSH2 0xE8 JUMP JUMPDEST DUP1 PUSH4 0x62EA82DB EQ PUSH2 0x218 JUMPI DUP1 PUSH4 0x86433374 EQ PUSH2 0x255 JUMPI DUP1 PUSH4 0x91F90157 EQ PUSH2 0x280 JUMPI DUP1 PUSH4 0xD3642A88 EQ PUSH2 0x2AB JUMPI PUSH2 0xE8 JUMP JUMPDEST DUP1 PUSH4 0x3103EA62 GT PUSH2 0xC6 JUMPI DUP1 PUSH4 0x3103EA62 EQ PUSH2 0x16E JUMPI DUP1 PUSH4 0x385E3155 EQ PUSH2 0x199 JUMPI DUP1 PUSH4 0x438E897A EQ PUSH2 0x1C2 JUMPI DUP1 PUSH4 0x48CD4CB1 EQ PUSH2 0x1ED JUMPI PUSH2 0xE8 JUMP JUMPDEST DUP1 PUSH4 0x83C6323 EQ PUSH2 0xED JUMPI DUP1 PUSH4 0x8551A53 EQ PUSH2 0x118 JUMPI DUP1 PUSH4 0x1D0806AE EQ PUSH2 0x143 JUMPI JUMPDEST PUSH1 0x0 DUP1 REVERT JUMPDEST CALLVALUE DUP1 ISZERO PUSH2 0xF9 JUMPI PUSH1 0x0 DUP1 REVERT JUMPDEST POP PUSH2 0x102 PUSH2 0x361 JUMP JUMPDEST PUSH1 0x40 MLOAD PUSH2 0x10F SWAP2 SWAP1 PUSH2 0x12F2 JUMP JUMPDEST PUSH1 0x40 MLOAD DUP1 SWAP2 SUB SWAP1 RETURN JUMPDEST CALLVALUE DUP1 ISZERO PUSH2 0x124 JUMPI PUSH1 0x0 DUP1 REVERT JUMPDEST POP PUSH2 0x12D PUSH2 0x367 JUMP JUMPDEST PUSH1 0x40 MLOAD PUSH2 0x13A SWAP2 SWAP1 PUSH2 0x134E JUMP JUMPDEST PUSH1 0x40 MLOAD DUP1 SWAP2 SUB SWAP1 RETURN JUMPDEST CALLVALUE DUP1 ISZERO PUSH2 0x14F JUMPI PUSH1 0x0 DUP1 REVERT JUMPDEST POP PUSH2 0x158 PUSH2 0x38B JUMP JUMPDEST PUSH1 0x40 MLOAD PUSH2 0x165 SWAP2 SWAP1 PUSH2 0x12F2 JUMP JUMPDEST PUSH1 0x40 MLOAD DUP1 SWAP2 SUB SWAP1 RETURN JUMPDEST CALLVALUE DUP1 ISZERO PUSH2 0x17A JUMPI PUSH1 0x0 DUP1 REVERT JUMPDEST POP PUSH2 0x183 PUSH2 0x391 JUMP JUMPDEST PUSH1 0x40 MLOAD PUSH2 0x190 SWAP2 SWAP1 PUSH2 0x12F2 JUMP JUMPDEST PUSH1 0x40 MLOAD DUP1 SWAP2 SUB SWAP1 RETURN JUMPDEST CALLVALUE DUP1 ISZERO PUSH2 0x1A5 JUMPI PUSH1 0x0 DUP1 REVERT JUMPDEST POP PUSH2 0x1C0 PUSH1 0x4 DUP1 CALLDATASIZE SUB DUP2 ADD SWAP1 PUSH2 0x1BB SWAP2 SWAP1 PUSH2 0x13AC JUMP JUMPDEST PUSH2 0x397 JUMP JUMPDEST STOP JUMPDEST CALLVALUE DUP1 ISZERO PUSH2 0x1CE JUMPI PUSH1 0x0 DUP1 REVERT JUMPDEST POP PUSH2 0x1D7 PUSH2 0x734 JUMP JUMPDEST PUSH1 0x40 MLOAD PUSH2 0x1E4 SWAP2 SWAP1 PUSH2 0x13F4 JUMP JUMPDEST PUSH1 0x40 MLOAD DUP1 SWAP2 SUB SWAP1 RETURN JUMPDEST CALLVALUE DUP1 ISZERO PUSH2 0x1F9 JUMPI PUSH1 0x0 DUP1 REVERT JUMPDEST POP PUSH2 0x202 PUSH2 0x747 JUMP JUMPDEST PUSH1 0x40 MLOAD PUSH2 0x20F SWAP2 SWAP1 PUSH2 0x12F2 JUMP JUMPDEST PUSH1 0x40 MLOAD DUP1 SWAP2 SUB SWAP1 RETURN JUMPDEST CALLVALUE DUP1 ISZERO PUSH2 0x224 JUMPI PUSH1 0x0 DUP1 REVERT JUMPDEST POP PUSH2 0x23F PUSH1 0x4 DUP1 CALLDATASIZE SUB DUP2 ADD SWAP1 PUSH2 0x23A SWAP2 SWAP1 PUSH2 0x13AC JUMP JUMPDEST PUSH2 0x74D JUMP JUMPDEST PUSH1 0x40 MLOAD PUSH2 0x24C SWAP2 SWAP1 PUSH2 0x12F2 JUMP JUMPDEST PUSH1 0x40 MLOAD DUP1 SWAP2 SUB SWAP1 RETURN JUMPDEST CALLVALUE DUP1 ISZERO PUSH2 0x261 JUMPI PUSH1 0x0 DUP1 REVERT JUMPDEST POP PUSH2 0x26A PUSH2 0x765 JUMP JUMPDEST PUSH1 0x40 MLOAD PUSH2 0x277 SWAP2 SWAP1 PUSH2 0x13F4 JUMP JUMPDEST PUSH1 0x40 MLOAD DUP1 SWAP2 SUB SWAP1 RETURN JUMPDEST CALLVALUE DUP1 ISZERO PUSH2 0x28C JUMPI PUSH1 0x0 DUP1 REVERT JUMPDEST POP PUSH2 0x295 PUSH2 0x778 JUMP JUMPDEST PUSH1 0x40 MLOAD PUSH2 0x2A2 SWAP2 SWAP1 PUSH2 0x141E JUMP JUMPDEST PUSH1 0x40 MLOAD DUP1 SWAP2 SUB SWAP1 RETURN JUMPDEST CALLVALUE DUP1 ISZERO PUSH2 0x2B7 JUMPI PUSH1 0x0 DUP1 REVERT JUMPDEST POP PUSH2 0x2C0 PUSH2 0x79E JUMP JUMPDEST PUSH1 0x40 MLOAD PUSH2 0x2CD SWAP2 SWAP1 PUSH2 0x12F2 JUMP JUMPDEST PUSH1 0x40 MLOAD DUP1 SWAP2 SUB SWAP1 RETURN JUMPDEST CALLVALUE DUP1 ISZERO PUSH2 0x2E2 JUMPI PUSH1 0x0 DUP1 REVERT JUMPDEST POP PUSH2 0x2EB PUSH2 0x7A4 JUMP JUMPDEST PUSH1 0x40 MLOAD PUSH2 0x2F8 SWAP2 SWAP1 PUSH2 0x12F2 JUMP JUMPDEST PUSH1 0x40 MLOAD DUP1 SWAP2 SUB SWAP1 RETURN JUMPDEST CALLVALUE DUP1 ISZERO PUSH2 0x30D JUMPI PUSH1 0x0 DUP1 REVERT JUMPDEST POP PUSH2 0x316 PUSH2 0x7AA JUMP JUMPDEST PUSH1 0x40 MLOAD PUSH2 0x323 SWAP2 SWAP1 PUSH2 0x12F2 JUMP JUMPDEST PUSH1 0x40 MLOAD DUP1 SWAP2 SUB SWAP1 RETURN JUMPDEST CALLVALUE DUP1 ISZERO PUSH2 0x338 JUMPI PUSH1 0x0 DUP1 REVERT JUMPDEST POP PUSH2 0x341 PUSH2 0x7B0 JUMP JUMPDEST PUSH1 0x40 MLOAD PUSH2 0x34E SWAP2 SWAP1 PUSH2 0x12F2 JUMP JUMPDEST PUSH1 0x40 MLOAD DUP1 SWAP2 SUB SWAP1 RETURN JUMPDEST PUSH2 0x35F PUSH2 0x932 JUMP JUMPDEST STOP JUMPDEST PUSH1 0x6 SLOAD DUP2 JUMP JUMPDEST PUSH1 0x0 DUP1 SLOAD SWAP1 PUSH2 0x100 EXP SWAP1 DIV PUSH20 0xFFFFFFFFFFFFFFFFFFFFFFFFFFFFFFFFFFFFFFFF AND DUP2 JUMP JUMPDEST PUSH1 0x4 SLOAD DUP2 JUMP JUMPDEST PUSH1 0x2 SLOAD DUP2 JUMP JUMPDEST PUSH2 0x3AB PUSH8 0xA8D02DAEA55DB61F PUSH1 0xC0 SHL PUSH2 0xF9E JUMP JUMPDEST PUSH2 0x3BF PUSH8 0xF97877F71948B2AF PUSH1 0xC0 SHL PUSH2 0xF9E JUMP JUMPDEST PUSH2 0x3D3 PUSH8 0x591AF0C60129109F PUSH1 0xC0 SHL PUSH2 0xF9E JUMP JUMPDEST PUSH2 0x3E7 PUSH8 0x18C9874541A6E1AA PUSH1 0xC0 SHL PUSH2 0xF9E JUMP JUMPDEST PUSH1 0x7 PUSH1 0x0 SWAP1 SLOAD SWAP1 PUSH2 0x100 EXP SWAP1 DIV PUSH1 0xFF AND PUSH2 0x436 JUMPI PUSH1 0x40 MLOAD PUSH32 0x8C379A000000000000000000000000000000000000000000000000000000000 DUP2 MSTORE PUSH1 0x4 ADD PUSH2 0x42D SWAP1 PUSH2 0x1496 JUMP JUMPDEST PUSH1 0x40 MLOAD DUP1 SWAP2 SUB SWAP1 REVERT JUMPDEST PUSH2 0x44A PUSH8 0x7AD21CBB02818BFB PUSH1 0xC0 SHL PUSH2 0xF9E JUMP JUMPDEST PUSH2 0x45E PUSH8 0xA54ECF6CC996669D PUSH1 0xC0 SHL PUSH2 0xF9E JUMP JUMPDEST PUSH2 0x472 PUSH8 0xB3B8DC8FBA878BA1 PUSH1 0xC0 SHL PUSH2 0xF9E JUMP JUMPDEST PUSH2 0x486 PUSH8 0x6F0539E4DE5EFD94 PUSH1 0xC0 SHL PUSH2 0xF9E JUMP JUMPDEST PUSH1 0x0 PUSH1 0x9 PUSH1 0x0 DUP4 PUSH20 0xFFFFFFFFFFFFFFFFFFFFFFFFFFFFFFFFFFFFFFFF AND PUSH20 0xFFFFFFFFFFFFFFFFFFFFFFFFFFFFFFFFFFFFFFFF AND DUP2 MSTORE PUSH1 0x20 ADD SWAP1 DUP2 MSTORE PUSH1 0x20 ADD PUSH1 0x0 KECCAK256 SLOAD GT PUSH2 0x508 JUMPI PUSH1 0x40 MLOAD PUSH32 0x8C379A000000000000000000000000000000000000000000000000000000000 DUP2 MSTORE PUSH1 0x4 ADD PUSH2 0x4FF SWAP1 PUSH2 0x1502 JUMP JUMPDEST PUSH1 0x40 MLOAD DUP1 SWAP2 SUB SWAP1 REVERT JUMPDEST PUSH2 0x51C PUSH8 0x298D80B8ADC9603C PUSH1 0xC0 SHL PUSH2 0xF9E JUMP JUMPDEST PUSH2 0x530 PUSH8 0xE43A272B420EB971 PUSH1 0xC0 SHL PUSH2 0xF9E JUMP JUMPDEST PUSH2 0x544 PUSH8 0x1162DA78F9EF463C PUSH1 0xC0 SHL PUSH2 0xF9E JUMP JUMPDEST PUSH2 0x558 PUSH8 0xA4AA36EE8292DD46 PUSH1 0xC0 SHL PUSH2 0xF9E JUMP JUMPDEST PUSH1 0x7 PUSH1 0x2 SWAP1 SLOAD SWAP1 PUSH2 0x100 EXP SWAP1 DIV PUSH20 0xFFFFFFFFFFFFFFFFFFFFFFFFFFFFFFFFFFFFFFFF AND PUSH20 0xFFFFFFFFFFFFFFFFFFFFFFFFFFFFFFFFFFFFFFFF AND DUP2 PUSH20 0xFFFFFFFFFFFFFFFFFFFFFFFFFFFFFFFFFFFFFFFF AND SUB PUSH2 0x5E8 JUMPI PUSH1 0x40 MLOAD PUSH32 0x8C379A000000000000000000000000000000000000000000000000000000000 DUP2 MSTORE PUSH1 0x4 ADD PUSH2 0x5DF SWAP1 PUSH2 0x156E JUMP JUMPDEST PUSH1 0x40 MLOAD DUP1 SWAP2 SUB SWAP1 REVERT JUMPDEST PUSH2 0x5FC PUSH8 0xD5775678C23738E1 PUSH1 0xC0 SHL PUSH2 0xF9E JUMP JUMPDEST PUSH2 0x610 PUSH8 0x4B68DC322DDB7D5C PUSH1 0xC0 SHL PUSH2 0xF9E JUMP JUMPDEST PUSH2 0x624 PUSH8 0x4B59133614F31D5A PUSH1 0xC0 SHL PUSH2 0xF9E JUMP JUMPDEST PUSH1 0x0 PUSH1 0x9 PUSH1 0x0 DUP4 PUSH20 0xFFFFFFFFFFFFFFFFFFFFFFFFFFFFFFFFFFFFFFFF AND PUSH20 0xFFFFFFFFFFFFFFFFFFFFFFFFFFFFFFFFFFFFFFFF AND DUP2 MSTORE PUSH1 0x20 ADD SWAP1 DUP2 MSTORE PUSH1 0x20 ADD PUSH1 0x0 KECCAK256 SLOAD SWAP1 POP PUSH2 0x67C PUSH8 0xC4D88E5B71A7ACE3 PUSH1 0xC0 SHL PUSH2 0xF9E JUMP JUMPDEST PUSH1 0x0 PUSH1 0x9 PUSH1 0x0 DUP5 PUSH20 0xFFFFFFFFFFFFFFFFFFFFFFFFFFFFFFFFFFFFFFFF AND PUSH20 0xFFFFFFFFFFFFFFFFFFFFFFFFFFFFFFFFFFFFFFFF AND DUP2 MSTORE PUSH1 0x20 ADD SWAP1 DUP2 MSTORE PUSH1 0x20 ADD PUSH1 0x0 KECCAK256 DUP2 SWAP1 SSTORE POP PUSH2 0x6D5 PUSH8 0x1F33D62CFD9BB8F3 PUSH1 0xC0 SHL PUSH2 0xF9E JUMP JUMPDEST PUSH2 0x6E9 PUSH8 0xB5F7F10A381839CA PUSH1 0xC0 SHL PUSH2 0xF9E JUMP JUMPDEST DUP2 PUSH20 0xFFFFFFFFFFFFFFFFFFFFFFFFFFFFFFFFFFFFFFFF AND PUSH2 0x8FC DUP3 SWAP1 DUP2 ISZERO MUL SWAP1 PUSH1 0x40 MLOAD PUSH1 0x0 PUSH1 0x40 MLOAD DUP1 DUP4 SUB DUP2 DUP6 DUP9 DUP9 CALL SWAP4 POP POP POP POP ISZERO DUP1 ISZERO PUSH2 0x72F JUMPI RETURNDATASIZE PUSH1 0x0 DUP1 RETURNDATACOPY RETURNDATASIZE PUSH1 0x0 REVERT JUMPDEST POP POP POP JUMP JUMPDEST PUSH1 0x7 PUSH1 0x1 SWAP1 SLOAD SWAP1 PUSH2 0x100 EXP SWAP1 DIV PUSH1 0xFF AND DUP2 JUMP JUMPDEST PUSH1 0x5 SLOAD DUP2 JUMP JUMPDEST PUSH1 0x9 PUSH1 0x20 MSTORE DUP1 PUSH1 0x0 MSTORE PUSH1 0x40 PUSH1 0x0 KECCAK256 PUSH1 0x0 SWAP2 POP SWAP1 POP SLOAD DUP2 JUMP JUMPDEST PUSH1 0x7 PUSH1 0x0 SWAP1 SLOAD SWAP1 PUSH2 0x100 EXP SWAP1 DIV PUSH1 0xFF AND DUP2 JUMP JUMPDEST PUSH1 0x7 PUSH1 0x2 SWAP1 SLOAD SWAP1 PUSH2 0x100 EXP SWAP1 DIV PUSH20 0xFFFFFFFFFFFFFFFFFFFFFFFFFFFFFFFFFFFFFFFF AND DUP2 JUMP JUMPDEST PUSH1 0x3 SLOAD DUP2 JUMP JUMPDEST PUSH1 0x8 SLOAD DUP2 JUMP JUMPDEST PUSH1 0x1 SLOAD DUP2 JUMP JUMPDEST PUSH1 0x0 PUSH2 0x7C6 PUSH8 0x159F52D074C7745B PUSH1 0xC0 SHL PUSH2 0xF9E JUMP JUMPDEST PUSH2 0x7DA PUSH8 0x6C9F093620B0A2A0 PUSH1 0xC0 SHL PUSH2 0xF9E JUMP JUMPDEST PUSH2 0x7EE PUSH8 0x56A730929AD42D97 PUSH1 0xC0 SHL PUSH2 0xF9E JUMP JUMPDEST PUSH1 0x0 NUMBER SWAP1 POP PUSH2 0x807 PUSH8 0xEA42CC783B9992DB PUSH1 0xC0 SHL PUSH2 0xF9E JUMP JUMPDEST PUSH2 0x81B PUSH8 0x99FD2F0F7F81CDF4 PUSH1 0xC0 SHL PUSH2 0xF9E JUMP JUMPDEST PUSH1 0x5 SLOAD DUP2 GT PUSH2 0x86B JUMPI PUSH2 0x838 PUSH8 0x92DAF7C2F73779F6 PUSH1 0xC0 SHL PUSH2 0xF9E JUMP JUMPDEST PUSH2 0x84C PUSH8 0x18489E00ED3EDBCE PUSH1 0xC0 SHL PUSH2 0xF9E JUMP JUMPDEST PUSH2 0x860 PUSH8 0x15F9E5F494F2B515 PUSH1 0xC0 SHL PUSH2 0xF9E JUMP JUMPDEST PUSH1 0x4 SLOAD SWAP2 POP POP PUSH2 0x92F JUMP JUMPDEST PUSH2 0x87F PUSH8 0xBEB1ED5810CACFF8 PUSH1 0xC0 SHL PUSH2 0xF9E JUMP JUMPDEST PUSH2 0x893 PUSH8 0x86F2F1BF7CEBA361 PUSH1 0xC0 SHL PUSH2 0xF9E JUMP JUMPDEST PUSH2 0x8A7 PUSH8 0x93BEE7A5F5EE54D PUSH1 0xC0 SHL PUSH2 0xF9E JUMP JUMPDEST PUSH1 0x0 PUSH1 0x5 SLOAD DUP3 PUSH2 0x8B7 SWAP2 SWAP1 PUSH2 0x15BD JUMP JUMPDEST SWAP1 POP PUSH2 0x8CD PUSH8 0xAF959D1C6546C09B PUSH1 0xC0 SHL PUSH2 0xF9E JUMP JUMPDEST PUSH2 0x8E1 PUSH8 0x790CA8318E3903D2 PUSH1 0xC0 SHL PUSH2 0xF9E JUMP JUMPDEST PUSH1 0x0 PUSH1 0x3 SLOAD DUP3 PUSH2 0x8F1 SWAP2 SWAP1 PUSH2 0x15F1 JUMP JUMPDEST SWAP1 POP PUSH2 0x907 PUSH8 0x584AA0ABD9633257 PUSH1 0xC0 SHL PUSH2 0xF9E JUMP JUMPDEST PUSH2 0x91B PUSH8 0x7D0B682E4E54FAA4 PUSH1 0xC0 SHL PUSH2 0xF9E JUMP JUMPDEST DUP1 PUSH1 0x4 SLOAD PUSH2 0x929 SWAP2 SWAP1 PUSH2 0x15BD JUMP JUMPDEST SWAP4 POP POP POP POP JUMPDEST SWAP1 JUMP JUMPDEST PUSH2 0x946 PUSH8 0x5CE4254746D0E621 PUSH1 0xC0 SHL PUSH2 0xF9E JUMP JUMPDEST PUSH2 0x95A PUSH8 0xFFEE5005E14EDFFB PUSH1 0xC0 SHL PUSH2 0xF9E JUMP JUMPDEST PUSH2 0x96E PUSH8 0x968043F64F098A34 PUSH1 0xC0 SHL PUSH2 0xF9E JUMP JUMPDEST PUSH2 0x982 PUSH8 0xE7D2BCC825945A52 PUSH1 0xC0 SHL PUSH2 0xF9E JUMP JUMPDEST PUSH1 0x5 SLOAD NUMBER LT ISZERO DUP1 ISZERO PUSH2 0x996 JUMPI POP PUSH1 0x6 SLOAD NUMBER GT ISZERO JUMPDEST PUSH2 0x9D5 JUMPI PUSH1 0x40 MLOAD PUSH32 0x8C379A000000000000000000000000000000000000000000000000000000000 DUP2 MSTORE PUSH1 0x4 ADD PUSH2 0x9CC SWAP1 PUSH2 0x167F JUMP JUMPDEST PUSH1 0x40 MLOAD DUP1 SWAP2 SUB SWAP1 REVERT JUMPDEST PUSH2 0x9E9 PUSH8 0x6C3EAF03BCBC74A3 PUSH1 0xC0 SHL PUSH2 0xF9E JUMP JUMPDEST PUSH2 0x9FD PUSH8 0xAA9F4162D7D1A003 PUSH1 0xC0 SHL PUSH2 0xF9E JUMP JUMPDEST PUSH2 0xA11 PUSH8 0x4AD4ABCF7B3044B3 PUSH1 0xC0 SHL PUSH2 0xF9E JUMP JUMPDEST PUSH2 0xA25 PUSH8 0x28244FD9353C404B PUSH1 0xC0 SHL PUSH2 0xF9E JUMP JUMPDEST PUSH1 0x7 PUSH1 0x0 SWAP1 SLOAD SWAP1 PUSH2 0x100 EXP SWAP1 DIV PUSH1 0xFF AND ISZERO PUSH2 0xA75 JUMPI PUSH1 0x40 MLOAD PUSH32 0x8C379A000000000000000000000000000000000000000000000000000000000 DUP2 MSTORE PUSH1 0x4 ADD PUSH2 0xA6C SWAP1 PUSH2 0x16EB JUMP JUMPDEST PUSH1 0x40 MLOAD DUP1 SWAP2 SUB SWAP1 REVERT JUMPDEST PUSH2 0xA89 PUSH8 0x3631C4716A9D398C PUSH1 0xC0 SHL PUSH2 0xF9E JUMP JUMPDEST PUSH2 0xA9D PUSH8 0x6D411FAC4F8DA5C8 PUSH1 0xC0 SHL PUSH2 0xF9E JUMP JUMPDEST PUSH2 0xAB1 PUSH8 0x187249576E1DA136 PUSH1 0xC0 SHL PUSH2 0xF9E JUMP JUMPDEST PUSH2 0xAC5 PUSH8 0x81558EF263A64C14 PUSH1 0xC0 SHL PUSH2 0xF9E JUMP JUMPDEST PUSH1 0x7 PUSH1 0x1 SWAP1 SLOAD SWAP1 PUSH2 0x100 EXP SWAP1 DIV PUSH1 0xFF AND ISZERO PUSH2 0xB15 JUMPI PUSH1 0x40 MLOAD PUSH32 0x8C379A000000000000000000000000000000000000000000000000000000000 DUP2 MSTORE PUSH1 0x4 ADD PUSH2 0xB0C SWAP1 PUSH2 0x1757 JUMP JUMPDEST PUSH1 0x40 MLOAD DUP1 SWAP2 SUB SWAP1 REVERT JUMPDEST PUSH2 0xB29 PUSH8 0x1A829987FBC251B0 PUSH1 0xC0 SHL PUSH2 0xF9E JUMP JUMPDEST PUSH2 0xB3D PUSH8 0x55B21DEE63C37834 PUSH1 0xC0 SHL PUSH2 0xF9E JUMP JUMPDEST PUSH2 0xB51 PUSH8 0x57A5B71AE94D998A PUSH1 0xC0 SHL PUSH2 0xF9E JUMP JUMPDEST PUSH2 0xB65 PUSH8 0x504F15962B3DF55B PUSH1 0xC0 SHL PUSH2 0xF9E JUMP JUMPDEST PUSH1 0x0 CALLVALUE GT PUSH2 0xBA8 JUMPI PUSH1 0x40 MLOAD PUSH32 0x8C379A000000000000000000000000000000000000000000000000000000000 DUP2 MSTORE PUSH1 0x4 ADD PUSH2 0xB9F SWAP1 PUSH2 0x17E9 JUMP JUMPDEST PUSH1 0x40 MLOAD DUP1 SWAP2 SUB SWAP1 REVERT JUMPDEST PUSH2 0xBBC PUSH8 0x5CD6B4D5BF0C006C PUSH1 0xC0 SHL PUSH2 0xF9E JUMP JUMPDEST PUSH2 0xBD0 PUSH8 0x2B76ED231EF20889 PUSH1 0xC0 SHL PUSH2 0xF9E JUMP JUMPDEST PUSH2 0xBE4 PUSH8 0x77EB7920824B8D00 PUSH1 0xC0 SHL PUSH2 0xF9E JUMP JUMPDEST PUSH1 0x0 PUSH2 0xBEE PUSH2 0x7B0 JUMP JUMPDEST SWAP1 POP PUSH2 0xC04 PUSH8 0x7918063D59754EBD PUSH1 0xC0 SHL PUSH2 0xF9E JUMP JUMPDEST PUSH2 0xC18 PUSH8 0x4B33D70B020A70C6 PUSH1 0xC0 SHL PUSH2 0xF9E JUMP JUMPDEST PUSH2 0xC2C PUSH8 0xAD5B5F47B9959FFD PUSH1 0xC0 SHL PUSH2 0xF9E JUMP JUMPDEST DUP1 CALLVALUE LT ISZERO PUSH2 0xC6F JUMPI PUSH1 0x40 MLOAD PUSH32 0x8C379A000000000000000000000000000000000000000000000000000000000 DUP2 MSTORE PUSH1 0x4 ADD PUSH2 0xC66 SWAP1 PUSH2 0x187B JUMP JUMPDEST PUSH1 0x40 MLOAD DUP1 SWAP2 SUB SWAP1 REVERT JUMPDEST PUSH2 0xC83 PUSH8 0x5D4EC003A8AF7CDE PUSH1 0xC0 SHL PUSH2 0xF9E JUMP JUMPDEST PUSH2 0xC97 PUSH8 0xD9454CB82742DC7A PUSH1 0xC0 SHL PUSH2 0xF9E JUMP JUMPDEST PUSH2 0xCAB PUSH8 0x44DA0AEDAAACC1BE PUSH1 0xC0 SHL PUSH2 0xF9E JUMP JUMPDEST PUSH1 0x8 SLOAD CALLVALUE GT ISZERO PUSH2 0xE2C JUMPI PUSH2 0xCC9 PUSH8 0x23DCCAAD9CB0B4A4 PUSH1 0xC0 SHL PUSH2 0xF9E JUMP JUMPDEST PUSH2 0xCDD PUSH8 0x4ED31C252370610B PUSH1 0xC0 SHL PUSH2 0xF9E JUMP JUMPDEST PUSH2 0xCF1 PUSH8 0xE4E5568D51DF0D5 PUSH1 0xC0 SHL PUSH2 0xF9E JUMP JUMPDEST PUSH1 0x0 PUSH1 0x8 SLOAD EQ PUSH2 0xDA2 JUMPI PUSH2 0xD0F PUSH8 0x45449E5296C73903 PUSH1 0xC0 SHL PUSH2 0xF9E JUMP JUMPDEST PUSH2 0xD23 PUSH8 0x96C6EFFCBBD2C406 PUSH1 0xC0 SHL PUSH2 0xF9E JUMP JUMPDEST PUSH1 0x8 SLOAD PUSH1 0x9 PUSH1 0x0 PUSH1 0x7 PUSH1 0x2 SWAP1 SLOAD SWAP1 PUSH2 0x100 EXP SWAP1 DIV PUSH20 0xFFFFFFFFFFFFFFFFFFFFFFFFFFFFFFFFFFFFFFFF AND PUSH20 0xFFFFFFFFFFFFFFFFFFFFFFFFFFFFFFFFFFFFFFFF AND PUSH20 0xFFFFFFFFFFFFFFFFFFFFFFFFFFFFFFFFFFFFFFFF AND DUP2 MSTORE PUSH1 0x20 ADD SWAP1 DUP2 MSTORE PUSH1 0x20 ADD PUSH1 0x0 KECCAK256 PUSH1 0x0 DUP3 DUP3 SLOAD PUSH2 0xD96 SWAP2 SWAP1 PUSH2 0x189B JUMP JUMPDEST SWAP3 POP POP DUP2 SWAP1 SSTORE POP PUSH2 0xDB7 JUMP JUMPDEST PUSH2 0xDB6 PUSH8 0x7158583853AB6A18 PUSH1 0xC0 SHL PUSH2 0xF9E JUMP JUMPDEST JUMPDEST PUSH2 0xDCB PUSH8 0xD1542E57F4F49245 PUSH1 0xC0 SHL PUSH2 0xF9E JUMP JUMPDEST CALLER PUSH1 0x7 PUSH1 0x2 PUSH2 0x100 EXP DUP2 SLOAD DUP2 PUSH20 0xFFFFFFFFFFFFFFFFFFFFFFFFFFFFFFFFFFFFFFFF MUL NOT AND SWAP1 DUP4 PUSH20 0xFFFFFFFFFFFFFFFFFFFFFFFFFFFFFFFFFFFFFFFF AND MUL OR SWAP1 SSTORE POP PUSH2 0xE20 PUSH8 0x5A25BB45D2AF8BA9 PUSH1 0xC0 SHL PUSH2 0xF9E JUMP JUMPDEST CALLVALUE PUSH1 0x8 DUP2 SWAP1 SSTORE POP PUSH2 0xEAB JUMP JUMPDEST PUSH2 0xE40 PUSH8 0x43DD5332DE1A40CE PUSH1 0xC0 SHL PUSH2 0xF9E JUMP JUMPDEST PUSH2 0xE54 PUSH8 0x1DFE885BE9F78086 PUSH1 0xC0 SHL PUSH2 0xF9E JUMP JUMPDEST CALLVALUE PUSH1 0x9 PUSH1 0x0 CALLER PUSH20 0xFFFFFFFFFFFFFFFFFFFFFFFFFFFFFFFFFFFFFFFF AND PUSH20 0xFFFFFFFFFFFFFFFFFFFFFFFFFFFFFFFFFFFFFFFF AND DUP2 MSTORE PUSH1 0x20 ADD SWAP1 DUP2 MSTORE PUSH1 0x20 ADD PUSH1 0x0 KECCAK256 PUSH1 0x0 DUP3 DUP3 SLOAD PUSH2 0xEA3 SWAP2 SWAP1 PUSH2 0x189B JUMP JUMPDEST SWAP3 POP POP DUP2 SWAP1 SSTORE POP JUMPDEST PUSH2 0xEBF PUSH8 0xB981198DCC941454 PUSH1 0xC0 SHL PUSH2 0xF9E JUMP JUMPDEST PUSH2 0xED3 PUSH8 0x33DBF47CA405BB4 PUSH1 0xC0 SHL PUSH2 0xF9E JUMP JUMPDEST PUSH32 0x3FABFF0A9C3ECD6814702E247FA9733E5D0AA69E3A38590F92CB18F623A2254D CALLER CALLVALUE PUSH1 0x40 MLOAD PUSH2 0xF04 SWAP3 SWAP2 SWAP1 PUSH2 0x18CF JUMP JUMPDEST PUSH1 0x40 MLOAD DUP1 SWAP2 SUB SWAP1 LOG1 PUSH2 0xF20 PUSH8 0xA62447B512EAF7D1 PUSH1 0xC0 SHL PUSH2 0xF9E JUMP JUMPDEST PUSH2 0xF34 PUSH8 0xDE97E3FEB7A5FCF4 PUSH1 0xC0 SHL PUSH2 0xF9E JUMP JUMPDEST PUSH1 0x4 SLOAD CALLVALUE LT PUSH2 0xF86 JUMPI PUSH2 0xF51 PUSH8 0x9B0B3BA2BE9C0359 PUSH1 0xC0 SHL PUSH2 0xF9E JUMP JUMPDEST PUSH2 0xF65 PUSH8 0xB9980BC07C0F6522 PUSH1 0xC0 SHL PUSH2 0xF9E JUMP JUMPDEST PUSH2 0xF79 PUSH8 0x69FC5D51FF6D1292 PUSH1 0xC0 SHL PUSH2 0xF9E JUMP JUMPDEST PUSH2 0xF81 PUSH2 0xFA1 JUMP JUMPDEST PUSH2 0xF9B JUMP JUMPDEST PUSH2 0xF9A PUSH8 0x8B1F216B028C225A PUSH1 0xC0 SHL PUSH2 0xF9E JUMP JUMPDEST JUMPDEST POP JUMP JUMPDEST POP JUMP JUMPDEST PUSH2 0xFB5 PUSH8 0x88C1810682B11013 PUSH1 0xC0 SHL PUSH2 0xF9E JUMP JUMPDEST PUSH2 0xFC9 PUSH8 0x90C71DBF3E7019FE PUSH1 0xC0 SHL PUSH2 0xF9E JUMP JUMPDEST PUSH2 0xFDD PUSH8 0x6FD4F0AAB99D3C86 PUSH1 0xC0 SHL PUSH2 0xF9E JUMP JUMPDEST PUSH2 0xFF1 PUSH8 0x3F66D653B066EA5A PUSH1 0xC0 SHL PUSH2 0xF9E JUMP JUMPDEST PUSH1 0x7 PUSH1 0x0 SWAP1 SLOAD SWAP1 PUSH2 0x100 EXP SWAP1 DIV PUSH1 0xFF AND ISZERO PUSH2 0x1041 JUMPI PUSH1 0x40 MLOAD PUSH32 0x8C379A000000000000000000000000000000000000000000000000000000000 DUP2 MSTORE PUSH1 0x4 ADD PUSH2 0x1038 SWAP1 PUSH2 0x16EB JUMP JUMPDEST PUSH1 0x40 MLOAD DUP1 SWAP2 SUB SWAP1 REVERT JUMPDEST PUSH2 0x1055 PUSH8 0x1D308D2C5C13A8D PUSH1 0xC0 SHL PUSH2 0xF9E JUMP JUMPDEST PUSH2 0x1069 PUSH8 0x1B4C3236EE4AE0A8 PUSH1 0xC0 SHL PUSH2 0xF9E JUMP JUMPDEST PUSH1 0x1 PUSH1 0x7 PUSH1 0x0 PUSH2 0x100 EXP DUP2 SLOAD DUP2 PUSH1 0xFF MUL NOT AND SWAP1 DUP4 ISZERO ISZERO MUL OR SWAP1 SSTORE POP PUSH2 0x1098 PUSH8 0x88863EE90D5F71A3 PUSH1 0xC0 SHL PUSH2 0xF9E JUMP JUMPDEST PUSH1 0x1 PUSH1 0x7 PUSH1 0x1 PUSH2 0x100 EXP DUP2 SLOAD DUP2 PUSH1 0xFF MUL NOT AND SWAP1 DUP4 ISZERO ISZERO MUL OR SWAP1 SSTORE POP PUSH2 0x10C7 PUSH8 0xCCF2A6606FCB1488 PUSH1 0xC0 SHL PUSH2 0xF9E JUMP JUMPDEST PUSH2 0x10DB PUSH8 0xAE51941A509AA2BE PUSH1 0xC0 SHL PUSH2 0xF9E JUMP JUMPDEST PUSH1 0x0 PUSH20 0xFFFFFFFFFFFFFFFFFFFFFFFFFFFFFFFFFFFFFFFF AND PUSH1 0x7 PUSH1 0x2 SWAP1 SLOAD SWAP1 PUSH2 0x100 EXP SWAP1 DIV PUSH20 0xFFFFFFFFFFFFFFFFFFFFFFFFFFFFFFFFFFFFFFFF AND PUSH20 0xFFFFFFFFFFFFFFFFFFFFFFFFFFFFFFFFFFFFFFFF AND EQ PUSH2 0x1260 JUMPI PUSH2 0x1145 PUSH8 0x13717A9E18F6C022 PUSH1 0xC0 SHL PUSH2 0xF9E JUMP JUMPDEST PUSH2 0x1159 PUSH8 0x89A10092D7EFA43 PUSH1 0xC0 SHL PUSH2 0xF9E JUMP JUMPDEST PUSH2 0x116D PUSH8 0x19249D1870BFC1F6 PUSH1 0xC0 SHL PUSH2 0xF9E JUMP JUMPDEST PUSH1 0x0 DUP1 SLOAD SWAP1 PUSH2 0x100 EXP SWAP1 DIV PUSH20 0xFFFFFFFFFFFFFFFFFFFFFFFFFFFFFFFFFFFFFFFF AND PUSH20 0xFFFFFFFFFFFFFFFFFFFFFFFFFFFFFFFFFFFFFFFF AND PUSH2 0x8FC PUSH1 0x8 SLOAD SWAP1 DUP2 ISZERO MUL SWAP1 PUSH1 0x40 MLOAD PUSH1 0x0 PUSH1 0x40 MLOAD DUP1 DUP4 SUB DUP2 DUP6 DUP9 DUP9 CALL SWAP4 POP POP POP POP ISZERO DUP1 ISZERO PUSH2 0x11D5 JUMPI RETURNDATASIZE PUSH1 0x0 DUP1 RETURNDATACOPY RETURNDATASIZE PUSH1 0x0 REVERT JUMPDEST POP PUSH2 0x11EA PUSH8 0xC61961693457A42B PUSH1 0xC0 SHL PUSH2 0xF9E JUMP JUMPDEST PUSH2 0x11FE PUSH8 0x98B469518DA5AAAB PUSH1 0xC0 SHL PUSH2 0xF9E JUMP JUMPDEST PUSH32 0xDAEC4582D5D9595688C8C98545FDD1C696D41C6AEAEB636737E84ED2F5C00EDA PUSH1 0x7 PUSH1 0x2 SWAP1 SLOAD SWAP1 PUSH2 0x100 EXP SWAP1 DIV PUSH20 0xFFFFFFFFFFFFFFFFFFFFFFFFFFFFFFFFFFFFFFFF AND PUSH1 0x8 SLOAD PUSH1 0x40 MLOAD PUSH2 0x1253 SWAP3 SWAP2 SWAP1 PUSH2 0x18CF JUMP JUMPDEST PUSH1 0x40 MLOAD DUP1 SWAP2 SUB SWAP1 LOG1 PUSH2 0x12D7 JUMP JUMPDEST PUSH2 0x1274 PUSH8 0x6AD45F567A00C654 PUSH1 0xC0 SHL PUSH2 0xF9E JUMP JUMPDEST PUSH2 0x1288 PUSH8 0x804C66C18AC935A PUSH1 0xC0 SHL PUSH2 0xF9E JUMP JUMPDEST PUSH2 0x129C PUSH8 0x8569587B9DE60A3C PUSH1 0xC0 SHL PUSH2 0xF9E JUMP JUMPDEST PUSH32 0xDAEC4582D5D9595688C8C98545FDD1C696D41C6AEAEB636737E84ED2F5C00EDA PUSH1 0x0 DUP1 PUSH1 0x40 MLOAD PUSH2 0x12CE SWAP3 SWAP2 SWAP1 PUSH2 0x193D JUMP JUMPDEST PUSH1 0x40 MLOAD DUP1 SWAP2 SUB SWAP1 LOG1 JUMPDEST JUMP JUMPDEST PUSH1 0x0 DUP2 SWAP1 POP SWAP2 SWAP1 POP JUMP JUMPDEST PUSH2 0x12EC DUP2 PUSH2 0x12D9 JUMP JUMPDEST DUP3 MSTORE POP POP JUMP JUMPDEST PUSH1 0x0 PUSH1 0x20 DUP3 ADD SWAP1 POP PUSH2 0x1307 PUSH1 0x0 DUP4 ADD DUP5 PUSH2 0x12E3 JUMP JUMPDEST SWAP3 SWAP2 POP POP JUMP JUMPDEST PUSH1 0x0 PUSH20 0xFFFFFFFFFFFFFFFFFFFFFFFFFFFFFFFFFFFFFFFF DUP3 AND SWAP1 POP SWAP2 SWAP1 POP JUMP JUMPDEST PUSH1 0x0 PUSH2 0x1338 DUP3 PUSH2 0x130D JUMP JUMPDEST SWAP1 POP SWAP2 SWAP1 POP JUMP JUMPDEST PUSH2 0x1348 DUP2 PUSH2 0x132D JUMP JUMPDEST DUP3 MSTORE POP POP JUMP JUMPDEST PUSH1 0x0 PUSH1 0x20 DUP3 ADD SWAP1 POP PUSH2 0x1363 PUSH1 0x0 DUP4 ADD DUP5 PUSH2 0x133F JUMP JUMPDEST SWAP3 SWAP2 POP POP JUMP JUMPDEST PUSH1 0x0 DUP1 REVERT JUMPDEST PUSH1 0x0 PUSH2 0x1379 DUP3 PUSH2 0x130D JUMP JUMPDEST SWAP1 POP SWAP2 SWAP1 POP JUMP JUMPDEST PUSH2 0x1389 DUP2 PUSH2 0x136E JUMP JUMPDEST DUP2 EQ PUSH2 0x1394 JUMPI PUSH1 0x0 DUP1 REVERT JUMPDEST POP JUMP JUMPDEST PUSH1 0x0 DUP2 CALLDATALOAD SWAP1 POP PUSH2 0x13A6 DUP2 PUSH2 0x1380 JUMP JUMPDEST SWAP3 SWAP2 POP POP JUMP JUMPDEST PUSH1 0x0 PUSH1 0x20 DUP3 DUP5 SUB SLT ISZERO PUSH2 0x13C2 JUMPI PUSH2 0x13C1 PUSH2 0x1369 JUMP JUMPDEST JUMPDEST PUSH1 0x0 PUSH2 0x13D0 DUP5 DUP3 DUP6 ADD PUSH2 0x1397 JUMP JUMPDEST SWAP2 POP POP SWAP3 SWAP2 POP POP JUMP JUMPDEST PUSH1 0x0 DUP2 ISZERO ISZERO SWAP1 POP SWAP2 SWAP1 POP JUMP JUMPDEST PUSH2 0x13EE DUP2 PUSH2 0x13D9 JUMP JUMPDEST DUP3 MSTORE POP POP JUMP JUMPDEST PUSH1 0x0 PUSH1 0x20 DUP3 ADD SWAP1 POP PUSH2 0x1409 PUSH1 0x0 DUP4 ADD DUP5 PUSH2 0x13E5 JUMP JUMPDEST SWAP3 SWAP2 POP POP JUMP JUMPDEST PUSH2 0x1418 DUP2 PUSH2 0x136E JUMP JUMPDEST DUP3 MSTORE POP POP JUMP JUMPDEST PUSH1 0x0 PUSH1 0x20 DUP3 ADD SWAP1 POP PUSH2 0x1433 PUSH1 0x0 DUP4 ADD DUP5 PUSH2 0x140F JUMP JUMPDEST SWAP3 SWAP2 POP POP JUMP JUMPDEST PUSH1 0x0 DUP3 DUP3 MSTORE PUSH1 0x20 DUP3 ADD SWAP1 POP SWAP3 SWAP2 POP POP JUMP JUMPDEST PUSH32 0x41756374696F6E20686173206E6F7420656E6465642079657400000000000000 PUSH1 0x0 DUP3 ADD MSTORE POP JUMP JUMPDEST PUSH1 0x0 PUSH2 0x1480 PUSH1 0x19 DUP4 PUSH2 0x1439 JUMP JUMPDEST SWAP2 POP PUSH2 0x148B DUP3 PUSH2 0x144A JUMP JUMPDEST PUSH1 0x20 DUP3 ADD SWAP1 POP SWAP2 SWAP1 POP JUMP JUMPDEST PUSH1 0x0 PUSH1 0x20 DUP3 ADD SWAP1 POP DUP2 DUP2 SUB PUSH1 0x0 DUP4 ADD MSTORE PUSH2 0x14AF DUP2 PUSH2 0x1473 JUMP JUMPDEST SWAP1 POP SWAP2 SWAP1 POP JUMP JUMPDEST PUSH32 0x4E6F2062696420746F20726566756E6400000000000000000000000000000000 PUSH1 0x0 DUP3 ADD MSTORE POP JUMP JUMPDEST PUSH1 0x0 PUSH2 0x14EC PUSH1 0x10 DUP4 PUSH2 0x1439 JUMP JUMPDEST SWAP2 POP PUSH2 0x14F7 DUP3 PUSH2 0x14B6 JUMP JUMPDEST PUSH1 0x20 DUP3 ADD SWAP1 POP SWAP2 SWAP1 POP JUMP JUMPDEST PUSH1 0x0 PUSH1 0x20 DUP3 ADD SWAP1 POP DUP2 DUP2 SUB PUSH1 0x0 DUP4 ADD MSTORE PUSH2 0x151B DUP2 PUSH2 0x14DF JUMP JUMPDEST SWAP1 POP SWAP2 SWAP1 POP JUMP JUMPDEST PUSH32 0x48696768657374206269646465722063616E6E6F7420726566756E6400000000 PUSH1 0x0 DUP3 ADD MSTORE POP JUMP JUMPDEST PUSH1 0x0 PUSH2 0x1558 PUSH1 0x1C DUP4 PUSH2 0x1439 JUMP JUMPDEST SWAP2 POP PUSH2 0x1563 DUP3 PUSH2 0x1522 JUMP JUMPDEST PUSH1 0x20 DUP3 ADD SWAP1 POP SWAP2 SWAP1 POP JUMP JUMPDEST PUSH1 0x0 PUSH1 0x20 DUP3 ADD SWAP1 POP DUP2 DUP2 SUB PUSH1 0x0 DUP4 ADD MSTORE PUSH2 0x1587 DUP2 PUSH2 0x154B JUMP JUMPDEST SWAP1 POP SWAP2 SWAP1 POP JUMP JUMPDEST PUSH32 0x4E487B7100000000000000000000000000000000000000000000000000000000 PUSH1 0x0 MSTORE PUSH1 0x11 PUSH1 0x4 MSTORE PUSH1 0x24 PUSH1 0x0 REVERT JUMPDEST PUSH1 0x0 PUSH2 0x15C8 DUP3 PUSH2 0x12D9 JUMP JUMPDEST SWAP2 POP PUSH2 0x15D3 DUP4 PUSH2 0x12D9 JUMP JUMPDEST SWAP3 POP DUP3 DUP3 SUB SWAP1 POP DUP2 DUP2 GT ISZERO PUSH2 0x15EB JUMPI PUSH2 0x15EA PUSH2 0x158E JUMP JUMPDEST JUMPDEST SWAP3 SWAP2 POP POP JUMP JUMPDEST PUSH1 0x0 PUSH2 0x15FC DUP3 PUSH2 0x12D9 JUMP JUMPDEST SWAP2 POP PUSH2 0x1607 DUP4 PUSH2 0x12D9 JUMP JUMPDEST SWAP3 POP DUP3 DUP3 MUL PUSH2 0x1615 DUP2 PUSH2 0x12D9 JUMP JUMPDEST SWAP2 POP DUP3 DUP3 DIV DUP5 EQ DUP4 ISZERO OR PUSH2 0x162C JUMPI PUSH2 0x162B PUSH2 0x158E JUMP JUMPDEST JUMPDEST POP SWAP3 SWAP2 POP POP JUMP JUMPDEST PUSH32 0x41756374696F6E206E6F74206F70656E00000000000000000000000000000000 PUSH1 0x0 DUP3 ADD MSTORE POP JUMP JUMPDEST PUSH1 0x0 PUSH2 0x1669 PUSH1 0x10 DUP4 PUSH2 0x1439 JUMP JUMPDEST SWAP2 POP PUSH2 0x1674 DUP3 PUSH2 0x1633 JUMP JUMPDEST PUSH1 0x20 DUP3 ADD SWAP1 POP SWAP2 SWAP1 POP JUMP JUMPDEST PUSH1 0x0 PUSH1 0x20 DUP3 ADD SWAP1 POP DUP2 DUP2 SUB PUSH1 0x0 DUP4 ADD MSTORE PUSH2 0x1698 DUP2 PUSH2 0x165C JUMP JUMPDEST SWAP1 POP SWAP2 SWAP1 POP JUMP JUMPDEST PUSH32 0x41756374696F6E20616C726561647920656E6465640000000000000000000000 PUSH1 0x0 DUP3 ADD MSTORE POP JUMP JUMPDEST PUSH1 0x0 PUSH2 0x16D5 PUSH1 0x15 DUP4 PUSH2 0x1439 JUMP JUMPDEST SWAP2 POP PUSH2 0x16E0 DUP3 PUSH2 0x169F JUMP JUMPDEST PUSH1 0x20 DUP3 ADD SWAP1 POP SWAP2 SWAP1 POP JUMP JUMPDEST PUSH1 0x0 PUSH1 0x20 DUP3 ADD SWAP1 POP DUP2 DUP2 SUB PUSH1 0x0 DUP4 ADD MSTORE PUSH2 0x1704 DUP2 PUSH2 0x16C8 JUMP JUMPDEST SWAP1 POP SWAP2 SWAP1 POP JUMP JUMPDEST PUSH32 0x4974656D20616C726561647920736F6C64000000000000000000000000000000 PUSH1 0x0 DUP3 ADD MSTORE POP JUMP JUMPDEST PUSH1 0x0 PUSH2 0x1741 PUSH1 0x11 DUP4 PUSH2 0x1439 JUMP JUMPDEST SWAP2 POP PUSH2 0x174C DUP3 PUSH2 0x170B JUMP JUMPDEST PUSH1 0x20 DUP3 ADD SWAP1 POP SWAP2 SWAP1 POP JUMP JUMPDEST PUSH1 0x0 PUSH1 0x20 DUP3 ADD SWAP1 POP DUP2 DUP2 SUB PUSH1 0x0 DUP4 ADD MSTORE PUSH2 0x1770 DUP2 PUSH2 0x1734 JUMP JUMPDEST SWAP1 POP SWAP2 SWAP1 POP JUMP JUMPDEST PUSH32 0x42696420616D6F756E74206D7573742062652067726561746572207468616E20 PUSH1 0x0 DUP3 ADD MSTORE PUSH32 0x3000000000000000000000000000000000000000000000000000000000000000 PUSH1 0x20 DUP3 ADD MSTORE POP JUMP JUMPDEST PUSH1 0x0 PUSH2 0x17D3 PUSH1 0x21 DUP4 PUSH2 0x1439 JUMP JUMPDEST SWAP2 POP PUSH2 0x17DE DUP3 PUSH2 0x1777 JUMP JUMPDEST PUSH1 0x40 DUP3 ADD SWAP1 POP SWAP2 SWAP1 POP JUMP JUMPDEST PUSH1 0x0 PUSH1 0x20 DUP3 ADD SWAP1 POP DUP2 DUP2 SUB PUSH1 0x0 DUP4 ADD MSTORE PUSH2 0x1802 DUP2 PUSH2 0x17C6 JUMP JUMPDEST SWAP1 POP SWAP2 SWAP1 POP JUMP JUMPDEST PUSH32 0x42696420616D6F756E742069732062656C6F772063757272656E742070726963 PUSH1 0x0 DUP3 ADD MSTORE PUSH32 0x6500000000000000000000000000000000000000000000000000000000000000 PUSH1 0x20 DUP3 ADD MSTORE POP JUMP JUMPDEST PUSH1 0x0 PUSH2 0x1865 PUSH1 0x21 DUP4 PUSH2 0x1439 JUMP JUMPDEST SWAP2 POP PUSH2 0x1870 DUP3 PUSH2 0x1809 JUMP JUMPDEST PUSH1 0x40 DUP3 ADD SWAP1 POP SWAP2 SWAP1 POP JUMP JUMPDEST PUSH1 0x0 PUSH1 0x20 DUP3 ADD SWAP1 POP DUP2 DUP2 SUB PUSH1 0x0 DUP4 ADD MSTORE PUSH2 0x1894 DUP2 PUSH2 0x1858 JUMP JUMPDEST SWAP1 POP SWAP2 SWAP1 POP JUMP JUMPDEST PUSH1 0x0 PUSH2 0x18A6 DUP3 PUSH2 0x12D9 JUMP JUMPDEST SWAP2 POP PUSH2 0x18B1 DUP4 PUSH2 0x12D9 JUMP JUMPDEST SWAP3 POP DUP3 DUP3 ADD SWAP1 POP DUP1 DUP3 GT ISZERO PUSH2 0x18C9 JUMPI PUSH2 0x18C8 PUSH2 0x158E JUMP JUMPDEST JUMPDEST SWAP3 SWAP2 POP POP JUMP JUMPDEST PUSH1 0x0 PUSH1 0x40 DUP3 ADD SWAP1 POP PUSH2 0x18E4 PUSH1 0x0 DUP4 ADD DUP6 PUSH2 0x140F JUMP JUMPDEST PUSH2 0x18F1 PUSH1 0x20 DUP4 ADD DUP5 PUSH2 0x12E3 JUMP JUMPDEST SWAP4 SWAP3 POP POP POP JUMP JUMPDEST PUSH1 0x0 DUP2 SWAP1 POP SWAP2 SWAP1 POP JUMP JUMPDEST PUSH1 0x0 DUP2 SWAP1 POP SWAP2 SWAP1 POP JUMP JUMPDEST PUSH1 0x0 PUSH2 0x1927 PUSH2 0x1922 PUSH2 0x191D DUP5 PUSH2 0x18F8 JUMP JUMPDEST PUSH2 0x1902 JUMP JUMPDEST PUSH2 0x12D9 JUMP JUMPDEST SWAP1 POP SWAP2 SWAP1 POP JUMP JUMPDEST PUSH2 0x1937 DUP2 PUSH2 0x190C JUMP JUMPDEST DUP3 MSTORE POP POP JUMP JUMPDEST PUSH1 0x0 PUSH1 0x40 DUP3 ADD SWAP1 POP PUSH2 0x1952 PUSH1 0x0 DUP4 ADD DUP6 PUSH2 0x140F JUMP JUMPDEST PUSH2 0x195F PUSH1 0x20 DUP4 ADD DUP5 PUSH2 0x192E JUMP JUMPDEST SWAP4 SWAP3 POP POP POP JUMP INVALID LOG2 PUSH5 0x6970667358 0x22 SLT KECCAK256 MSTORE 0xD9 0xFC SWAP13 EXTCODECOPY SUB 0xBD 0xE5 BLOCKHASH PUSH20 0xAA3716E2F8DC2977AF4F46CEA425074B67BFBE55 LOG4 0xC6 PUSH5 0x736F6C6343 STOP ADDMOD SLT STOP CALLER "},"methodIdentifiers":{"auctionEnded()":"86433374","bids(address)":"62ea82db","endBlock()":"083c6323","getCurrentPrice()":"eb91d37e","highestBid()":"d57bde79","highestBidder()":"91f90157","initialPrice()":"1d0806ae","itemSold()":"438e897a","numBlocksAuctionOpen()":"3103ea62","offerPriceDecrement()":"d3642a88","placeBid()":"ecfc7ecc","refundBid(address)":"385e3155","reservePrice()":"db2e1eed","seller()":"08551a53","startBlock()":"48cd4cb1"}}}}}