{"contracts/NFTDutchAuction_ERC20Bids.sol":{"NFTDutchAuction_ERC20Bids":{"abi":[{"anonymous":false,"inputs":[{"indexed":false,"internalType":"address","name":"previousAdmin","type":"address"},{"indexed":false,"internalType":"address","name":"newAdmin","type":"address"}],"name":"AdminChanged","type":"event"},{"anonymous":false,"inputs":[{"indexed":true,"internalType":"address","name":"winner","type":"address"},{"indexed":false,"internalType":"uint256","name":"winningBidAmount","type":"uint256"}],"name":"AuctionEnded","type":"event"},{"anonymous":false,"inputs":[{"indexed":true,"internalType":"address","name":"beacon","type":"address"}],"name":"BeaconUpgraded","type":"event"},{"anonymous":false,"inputs":[{"indexed":true,"internalType":"address","name":"bidder","type":"address"},{"indexed":false,"internalType":"uint256","name":"bidAmount","type":"uint256"}],"name":"BidPlaced","type":"event"},{"anonymous":false,"inputs":[{"indexed":false,"internalType":"uint8","name":"version","type":"uint8"}],"name":"Initialized","type":"event"},{"anonymous":false,"inputs":[{"indexed":true,"internalType":"address","name":"previousOwner","type":"address"},{"indexed":true,"internalType":"address","name":"newOwner","type":"address"}],"name":"OwnershipTransferred","type":"event"},{"anonymous":false,"inputs":[{"indexed":true,"internalType":"address","name":"implementation","type":"address"}],"name":"Upgraded","type":"event"},{"inputs":[],"name":"auctionEnded","outputs":[{"internalType":"bool","name":"","type":"bool"}],"stateMutability":"view","type":"function"},{"inputs":[],"name":"auctionStartTime","outputs":[{"internalType":"uint256","name":"","type":"uint256"}],"stateMutability":"view","type":"function"},{"inputs":[{"internalType":"address","name":"","type":"address"}],"name":"bids","outputs":[{"internalType":"uint256","name":"","type":"uint256"}],"stateMutability":"view","type":"function"},{"inputs":[],"name":"endAuction","outputs":[],"stateMutability":"nonpayable","type":"function"},{"inputs":[],"name":"erc20Token","outputs":[{"internalType":"contract IERC20","name":"","type":"address"}],"stateMutability":"view","type":"function"},{"inputs":[],"name":"erc721TokenAddress","outputs":[{"internalType":"address","name":"","type":"address"}],"stateMutability":"view","type":"function"},{"inputs":[],"name":"getMessage","outputs":[{"internalType":"string","name":"","type":"string"}],"stateMutability":"view","type":"function"},{"inputs":[],"name":"highestBid","outputs":[{"internalType":"uint256","name":"","type":"uint256"}],"stateMutability":"view","type":"function"},{"inputs":[],"name":"highestBidder","outputs":[{"internalType":"address","name":"","type":"address"}],"stateMutability":"view","type":"function"},{"inputs":[],"name":"initialPrice","outputs":[{"internalType":"uint256","name":"","type":"uint256"}],"stateMutability":"view","type":"function"},{"inputs":[{"internalType":"string","name":"_upgradeNumber","type":"string"},{"internalType":"address","name":"_erc20TokenAddress","type":"address"},{"internalType":"address","name":"_erc721TokenAddress","type":"address"},{"internalType":"uint256","name":"_nftTokenId","type":"uint256"},{"internalType":"uint256","name":"_reservePrice","type":"uint256"},{"internalType":"uint256","name":"_numBlocksAuctionOpen","type":"uint256"},{"internalType":"uint256","name":"_offerPriceDecrement","type":"uint256"}],"name":"initialize","outputs":[],"stateMutability":"nonpayable","type":"function"},{"inputs":[],"name":"itemSold","outputs":[{"internalType":"bool","name":"","type":"bool"}],"stateMutability":"view","type":"function"},{"inputs":[],"name":"nft","outputs":[{"internalType":"contract IERC721","name":"","type":"address"}],"stateMutability":"view","type":"function"},{"inputs":[],"name":"nftTokenId","outputs":[{"internalType":"uint256","name":"","type":"uint256"}],"stateMutability":"view","type":"function"},{"inputs":[],"name":"numBlocksAuctionOpen","outputs":[{"internalType":"uint256","name":"","type":"uint256"}],"stateMutability":"view","type":"function"},{"inputs":[],"name":"offerPriceDecrement","outputs":[{"internalType":"uint256","name":"","type":"uint256"}],"stateMutability":"view","type":"function"},{"inputs":[],"name":"owner","outputs":[{"internalType":"address","name":"","type":"address"}],"stateMutability":"view","type":"function"},{"inputs":[{"internalType":"uint256","name":"bidAmount","type":"uint256"}],"name":"placeBid","outputs":[],"stateMutability":"nonpayable","type":"function"},{"inputs":[],"name":"proxiableUUID","outputs":[{"internalType":"bytes32","name":"","type":"bytes32"}],"stateMutability":"view","type":"function"},{"inputs":[{"internalType":"address","name":"bidder","type":"address"}],"name":"refundBidders","outputs":[],"stateMutability":"nonpayable","type":"function"},{"inputs":[],"name":"renounceOwnership","outputs":[],"stateMutability":"nonpayable","type":"function"},{"inputs":[],"name":"reservePrice","outputs":[{"internalType":"uint256","name":"","type":"uint256"}],"stateMutability":"view","type":"function"},{"inputs":[{"internalType":"address","name":"newOwner","type":"address"}],"name":"transferOwnership","outputs":[],"stateMutability":"nonpayable","type":"function"},{"inputs":[],"name":"upgradeNumber","outputs":[{"internalType":"string","name":"","type":"string"}],"stateMutability":"view","type":"function"},{"inputs":[{"internalType":"address","name":"newImplementation","type":"address"}],"name":"upgradeTo","outputs":[],"stateMutability":"nonpayable","type":"function"},{"inputs":[{"internalType":"address","name":"newImplementation","type":"address"},{"internalType":"bytes","name":"data","type":"bytes"}],"name":"upgradeToAndCall","outputs":[],"stateMutability":"payable","type":"function"}],"evm":{"bytecode":{"linkReferences":{},"object":"60a06040523073ffffffffffffffffffffffffffffffffffffffff1660809073ffffffffffffffffffffffffffffffffffffffff1681525034801561004357600080fd5b50608051613dd061007b600039600081816109ba01528181610a4801528181610b7b01528181610c090152610cb90152613dd06000f3fe6080604052600436106101815760003560e01c80638a13eea7116100d1578063d57bde791161008a578063eb54f9ec11610064578063eb54f9ec1461051f578063eb8bf84d1461054a578063f2fde38b14610575578063fe67a54b1461059e57610181565b8063d57bde791461049e578063db2e1eed146104c9578063df241cb9146104f457610181565b80638a13eea71461039e5780638da5cb5b146103c957806391f90157146103f45780639979ef451461041f578063ce6d41de14610448578063d3642a881461047357610181565b80634f1ef2861161013e578063715018a611610118578063715018a61461030857806374fe29161461031f5780637e83057414610348578063864333741461037357610181565b80634f1ef2861461028457806352d1902d146102a057806362ea82db146102cb57610181565b80631d0806ae146101865780632bf0d538146101b15780633103ea62146101da5780633659cfe614610205578063438e897a1461022e57806347ccca0214610259575b600080fd5b34801561019257600080fd5b5061019b6105b5565b6040516101a891906128c2565b60405180910390f35b3480156101bd57600080fd5b506101d860048036038101906101d3919061294f565b6105bb565b005b3480156101e657600080fd5b506101ef6109b2565b6040516101fc91906128c2565b60405180910390f35b34801561021157600080fd5b5061022c6004803603810190610227919061294f565b6109b8565b005b34801561023a57600080fd5b50610243610b40565b6040516102509190612997565b60405180910390f35b34801561026557600080fd5b5061026e610b53565b60405161027b9190612a11565b60405180910390f35b61029e60048036038101906102999190612b72565b610b79565b005b3480156102ac57600080fd5b506102b5610cb5565b6040516102c29190612be7565b60405180910390f35b3480156102d757600080fd5b506102f260048036038101906102ed919061294f565b610d6e565b6040516102ff91906128c2565b60405180910390f35b34801561031457600080fd5b5061031d610d86565b005b34801561032b57600080fd5b5061034660048036038101906103419190612ccf565b610d9a565b005b34801561035457600080fd5b5061035d611320565b60405161036a91906128c2565b60405180910390f35b34801561037f57600080fd5b50610388611326565b6040516103959190612997565b60405180910390f35b3480156103aa57600080fd5b506103b3611339565b6040516103c09190612dae565b60405180910390f35b3480156103d557600080fd5b506103de61135f565b6040516103eb9190612dd8565b60405180910390f35b34801561040057600080fd5b50610409611389565b6040516104169190612dd8565b60405180910390f35b34801561042b57600080fd5b5061044660048036038101906104419190612df3565b6113af565b005b34801561045457600080fd5b5061045d6118f1565b60405161046a9190612e9f565b60405180910390f35b34801561047f57600080fd5b506104886119bf565b60405161049591906128c2565b60405180910390f35b3480156104aa57600080fd5b506104b36119c5565b6040516104c091906128c2565b60405180910390f35b3480156104d557600080fd5b506104de6119cb565b6040516104eb91906128c2565b60405180910390f35b34801561050057600080fd5b506105096119d1565b6040516105169190612dd8565b60405180910390f35b34801561052b57600080fd5b506105346119f7565b60405161054191906128c2565b60405180910390f35b34801561055657600080fd5b5061055f6119fd565b60405161056c9190612e9f565b60405180910390f35b34801561058157600080fd5b5061059c6004803603810190610597919061294f565b611a8b565b005b3480156105aa57600080fd5b506105b3611b0e565b005b60d05481565b6105cf67c6d4f07928f557f960c01b612134565b6105e36729050cbdad1e44b760c01b612134565b6105f767f17b8357ce55775a60c01b612134565b61060b6738f11a852b63769260c01b612134565b60d160009054906101000a900460ff1661065a576040517f08c379a000000000000000000000000000000000000000000000000000000000815260040161065190612f0d565b60405180910390fd5b61066e67d2951fff2b50c6be60c01b612134565b61068267ce55734be3c85cd760c01b612134565b610696671e7d8ef81cf92b6d60c01b612134565b6106aa671048ecf50600ad6e60c01b612134565b60d360009054906101000a900473ffffffffffffffffffffffffffffffffffffffff1673ffffffffffffffffffffffffffffffffffffffff168173ffffffffffffffffffffffffffffffffffffffff160361073a576040517f08c379a000000000000000000000000000000000000000000000000000000000815260040161073190612f79565b60405180910390fd5b61074e67ae17d82b917db96b60c01b612134565b610762674ba1d8d827facbab60c01b612134565b6107766723b30f4ccca727af60c01b612134565b61078a671071491451cc6e6360c01b612134565b600060d260008373ffffffffffffffffffffffffffffffffffffffff1673ffffffffffffffffffffffffffffffffffffffff168152602001908152602001600020541161080c576040517f08c379a000000000000000000000000000000000000000000000000000000000815260040161080390612fe5565b60405180910390fd5b6108206778c5769d702cd72e60c01b612134565b61083467954abfa21b98d8fa60c01b612134565b6108486759efd97f3f48662a60c01b612134565b600060d260008373ffffffffffffffffffffffffffffffffffffffff1673ffffffffffffffffffffffffffffffffffffffff1681526020019081526020016000205490506108a06751d4d5129ed28f4960c01b612134565b600060d260008473ffffffffffffffffffffffffffffffffffffffff1673ffffffffffffffffffffffffffffffffffffffff168152602001908152602001600020819055506108f9676608cd09a9f961f360c01b612134565b61090d67d4eed39922419c1860c01b612134565b60c960009054906101000a900473ffffffffffffffffffffffffffffffffffffffff1673ffffffffffffffffffffffffffffffffffffffff1663a9059cbb83836040518363ffffffff1660e01b815260040161096a929190613005565b6020604051808303816000875af1158015610989573d6000803e3d6000fd5b505050506040513d601f19601f820116820180604052508101906109ad919061305a565b505050565b60ce5481565b7f000000000000000000000000000000000000000000000000000000000000000073ffffffffffffffffffffffffffffffffffffffff163073ffffffffffffffffffffffffffffffffffffffff1603610a46576040517f08c379a0000000000000000000000000000000000000000000000000000000008152600401610a3d906130f9565b60405180910390fd5b7f000000000000000000000000000000000000000000000000000000000000000073ffffffffffffffffffffffffffffffffffffffff16610a85612137565b73ffffffffffffffffffffffffffffffffffffffff1614610adb576040517f08c379a0000000000000000000000000000000000000000000000000000000008152600401610ad29061318b565b60405180910390fd5b610ae48161218e565b610b3d81600067ffffffffffffffff811115610b0357610b02612a47565b5b6040519080825280601f01601f191660200182016040528015610b355781602001600182028036833780820191505090505b5060006121d5565b50565b60d160019054906101000a900460ff1681565b60ca60009054906101000a900473ffffffffffffffffffffffffffffffffffffffff1681565b7f000000000000000000000000000000000000000000000000000000000000000073ffffffffffffffffffffffffffffffffffffffff163073ffffffffffffffffffffffffffffffffffffffff1603610c07576040517f08c379a0000000000000000000000000000000000000000000000000000000008152600401610bfe906130f9565b60405180910390fd5b7f000000000000000000000000000000000000000000000000000000000000000073ffffffffffffffffffffffffffffffffffffffff16610c46612137565b73ffffffffffffffffffffffffffffffffffffffff1614610c9c576040517f08c379a0000000000000000000000000000000000000000000000000000000008152600401610c939061318b565b60405180910390fd5b610ca58261218e565b610cb1828260016121d5565b5050565b60007f000000000000000000000000000000000000000000000000000000000000000073ffffffffffffffffffffffffffffffffffffffff163073ffffffffffffffffffffffffffffffffffffffff1614610d45576040517f08c379a0000000000000000000000000000000000000000000000000000000008152600401610d3c9061321d565b60405180910390fd5b7f360894a13ba1a3210667c828492db98dca3e2076cc3735a920a3ca505d382bbc60001b905090565b60d26020528060005260406000206000915090505481565b610d8e612343565b610d9860006123c1565b565b610dae679deb8235136a9a5b60c01b612134565b60008060019054906101000a900460ff16159050808015610ddf5750600160008054906101000a900460ff1660ff16105b80610e0c5750610dee30612487565b158015610e0b5750600160008054906101000a900460ff1660ff16145b5b610e4b576040517f08c379a0000000000000000000000000000000000000000000000000000000008152600401610e42906132af565b60405180910390fd5b60016000806101000a81548160ff021916908360ff1602179055508015610e88576001600060016101000a81548160ff0219169083151502179055505b610e9c67313d33df74aa649060c01b612134565b610eb067a82b896fb9fbcd7260c01b612134565b610ec46745c1d144a21314c160c01b612134565b610ed867f0f516de2040064160c01b612134565b610ee06124aa565b610ef46787525d0d10854d7860c01b612134565b610f08671c745ef08f665cd860c01b612134565b610f10612503565b610f24673e5231f002cf83fd60c01b612134565b8760d69081610f3391906134d1565b50610f4867e4ba07038e069f2960c01b612134565b8560cb60006101000a81548173ffffffffffffffffffffffffffffffffffffffff021916908373ffffffffffffffffffffffffffffffffffffffff160217905550610f9d6711147327ad3277f560c01b612134565b8460cc81905550610fb86773dc62016267f1c360c01b612134565b8360cd81905550610fd367018c28f58442e00860c01b612134565b8260ce81905550610fee675d3761f10166928f60c01b612134565b8160cf8190555061100967e0aacac5fd9b88ed60c01b612134565b61103461102360cf5460ce5461255490919063ffffffff16565b60cd5461256a90919063ffffffff16565b60d08190555061104e679c38d26bdad9902660c01b612134565b4360d58190555061106967f188eab8694adf3f60c01b612134565b600060d160006101000a81548160ff02191690831515021790555061109867b0882d04b81d573f60c01b612134565b600060d160016101000a81548160ff0219169083151502179055506110c767626799799d63a5f360c01b612134565b8660c960006101000a81548173ffffffffffffffffffffffffffffffffffffffff021916908373ffffffffffffffffffffffffffffffffffffffff16021790555061111c67f94ecd8357f784d460c01b612134565b8560ca60006101000a81548173ffffffffffffffffffffffffffffffffffffffff021916908373ffffffffffffffffffffffffffffffffffffffff1602179055506111716710b5bbd61b9d3b1d60c01b612134565b61118567e924a2fae6c0615e60c01b612134565b61119967de3619c0d6ecc4a560c01b612134565b6111a161135f565b73ffffffffffffffffffffffffffffffffffffffff1660ca60009054906101000a900473ffffffffffffffffffffffffffffffffffffffff1673ffffffffffffffffffffffffffffffffffffffff16636352211e876040518263ffffffff1660e01b815260040161121291906128c2565b602060405180830381865afa15801561122f573d6000803e3d6000fd5b505050506040513d601f19601f8201168201806040525081019061125391906135b8565b73ffffffffffffffffffffffffffffffffffffffff16146112a9576040517f08c379a00000000000000000000000000000000000000000000000000000000081526004016112a090613657565b60405180910390fd5b6112bd670506fbd1b9c9670960c01b612134565b80156113165760008060016101000a81548160ff0219169083151502179055507f7f26b83ff96e1f2b6a682f133852f6798a09c465da95921460cefb3847402498600160405161130d91906136bf565b60405180910390a15b5050505050505050565b60cc5481565b60d160009054906101000a900460ff1681565b60c960009054906101000a900473ffffffffffffffffffffffffffffffffffffffff1681565b6000603360009054906101000a900473ffffffffffffffffffffffffffffffffffffffff16905090565b60d360009054906101000a900473ffffffffffffffffffffffffffffffffffffffff1681565b6113c367d2548c98fd33cb5e60c01b612134565b6113d7677e552a2ddce6257860c01b612134565b6113eb67e1e91a4d85127c9260c01b612134565b6113ff6768212cc10057bb9e60c01b612134565b60008111611442576040517f08c379a00000000000000000000000000000000000000000000000000000000081526004016114399061374c565b60405180910390fd5b6114566777206cc8eba502be60c01b612134565b61146a677f40f83315a2cd9f60c01b612134565b61147e678f0a8dbbb3378d2760c01b612134565b611492672526b130317e55e560c01b612134565b60d160009054906101000a900460ff16156114e2576040517f08c379a00000000000000000000000000000000000000000000000000000000081526004016114d9906137b8565b60405180910390fd5b6114f66769f0fcaad4b5df5a60c01b612134565b61150a674e788535c70b6b7c60c01b612134565b61151e67f8fae08f2442aafd60c01b612134565b60c960009054906101000a900473ffffffffffffffffffffffffffffffffffffffff1673ffffffffffffffffffffffffffffffffffffffff166323b872dd3330846040518463ffffffff1660e01b815260040161157d939291906137d8565b6020604051808303816000875af115801561159c573d6000803e3d6000fd5b505050506040513d601f19601f820116820180604052508101906115c0919061305a565b506115d567362582b030b511ce60c01b612134565b6115e967c5c5719ac6ab327a60c01b612134565b60d45481111561176a576116076719135e7223f2c39d60c01b612134565b61161b67741730dee68d312e60c01b612134565b61162f67b0592e40ce88aa9b60c01b612134565b600060d454146116e05761164d67d2d7399dd2cf9c1360c01b612134565b61166167f63d16e7eddc1c6b60c01b612134565b60d45460d2600060d360009054906101000a900473ffffffffffffffffffffffffffffffffffffffff1673ffffffffffffffffffffffffffffffffffffffff1673ffffffffffffffffffffffffffffffffffffffff16815260200190815260200160002060008282546116d4919061383e565b925050819055506116f5565b6116f467959fa68ecf16f0ad60c01b612134565b5b61170967ccb20cb4318731c060c01b612134565b3360d360006101000a81548173ffffffffffffffffffffffffffffffffffffffff021916908373ffffffffffffffffffffffffffffffffffffffff16021790555061175e67878701e2a6e01e8c60c01b612134565b8060d4819055506117e9565b61177e67ed4f45cc5b26d4a760c01b612134565b61179267fd8af99d46e406d760c01b612134565b8060d260003373ffffffffffffffffffffffffffffffffffffffff1673ffffffffffffffffffffffffffffffffffffffff16815260200190815260200160002060008282546117e1919061383e565b925050819055505b6117fd67b8ffc309f8e6c2d860c01b612134565b61181167a5ae1f09f19565d760c01b612134565b3373ffffffffffffffffffffffffffffffffffffffff167f3fabff0a9c3ecd6814702e247fa9733e5d0aa69e3a38590f92cb18f623a2254d8260405161185791906128c2565b60405180910390a261187367f3f8ebd5e25dcce960c01b612134565b61188767701101ad141cdefb60c01b612134565b60d05481106118d9576118a467e3a735317ae1cd8260c01b612134565b6118b86747554a97ca9a39d560c01b612134565b6118cc675db9dd434ffc6e7c60c01b612134565b6118d4611b0e565b6118ee565b6118ed67afa9a6fb91b5c1de60c01b612134565b5b50565b6060611907674e1636c34752959960c01b612134565b61191b67704db32b1fa93caa60c01b612134565b61192f67b2a626d173b6c42760c01b612134565b60d6805461193c906132fe565b80601f0160208091040260200160405190810160405280929190818152602001828054611968906132fe565b80156119b55780601f1061198a576101008083540402835291602001916119b5565b820191906000526020600020905b81548152906001019060200180831161199857829003601f168201915b5050505050905090565b60cf5481565b60d45481565b60cd5481565b60cb60009054906101000a900473ffffffffffffffffffffffffffffffffffffffff1681565b60d55481565b60d68054611a0a906132fe565b80601f0160208091040260200160405190810160405280929190818152602001828054611a36906132fe565b8015611a835780601f10611a5857610100808354040283529160200191611a83565b820191906000526020600020905b815481529060010190602001808311611a6657829003601f168201915b505050505081565b611a93612343565b600073ffffffffffffffffffffffffffffffffffffffff168173ffffffffffffffffffffffffffffffffffffffff1603611b02576040517f08c379a0000000000000000000000000000000000000000000000000000000008152600401611af9906138e4565b60405180910390fd5b611b0b816123c1565b50565b611b2267969140fe9588c53160c01b612134565b611b366786925c7737d6c93960c01b612134565b611b4a67f007a81a8229c13a60c01b612134565b611b5e6720a79d587a3fa0dc60c01b612134565b60d160009054906101000a900460ff1615611bae576040517f08c379a0000000000000000000000000000000000000000000000000000000008152600401611ba5906137b8565b60405180910390fd5b611bc2677d1464c36565f8ed60c01b612134565b611bd667399d2f419cabf93360c01b612134565b600160d160006101000a81548160ff021916908315150217905550611c05673175d845e3d0c84960c01b612134565b600160d160016101000a81548160ff021916908315150217905550611c3467b8cacb7bb8ef875b60c01b612134565b611c4867492a636bbd8c2eb260c01b612134565b600073ffffffffffffffffffffffffffffffffffffffff1660d360009054906101000a900473ffffffffffffffffffffffffffffffffffffffff1673ffffffffffffffffffffffffffffffffffffffff1614611f4657611cb267df9cdcaae86ac02760c01b612134565b611cc667345ddf17b2dd1aea60c01b612134565b600060d2600060d360009054906101000a900473ffffffffffffffffffffffffffffffffffffffff1673ffffffffffffffffffffffffffffffffffffffff1673ffffffffffffffffffffffffffffffffffffffff16815260200190815260200160002081905550611d4167af14f2ebb38d6c3460c01b612134565b611d5567bcc0e25eef3f819360c01b612134565b60ca60009054906101000a900473ffffffffffffffffffffffffffffffffffffffff1673ffffffffffffffffffffffffffffffffffffffff166342842e0e60ca60009054906101000a900473ffffffffffffffffffffffffffffffffffffffff1673ffffffffffffffffffffffffffffffffffffffff16636352211e60cc546040518263ffffffff1660e01b8152600401611df091906128c2565b602060405180830381865afa158015611e0d573d6000803e3d6000fd5b505050506040513d601f19601f82011682018060405250810190611e3191906135b8565b60d360009054906101000a900473ffffffffffffffffffffffffffffffffffffffff1660cc546040518463ffffffff1660e01b8152600401611e75939291906137d8565b600060405180830381600087803b158015611e8f57600080fd5b505af1158015611ea3573d6000803e3d6000fd5b50505050611ebb67600af87a7656e1ca60c01b612134565b611ecf676d5f0b086387b49c60c01b612134565b60d360009054906101000a900473ffffffffffffffffffffffffffffffffffffffff1673ffffffffffffffffffffffffffffffffffffffff167fdaec4582d5d9595688c8c98545fdd1c696d41c6aeaeb636737e84ed2f5c00eda60d454604051611f3991906128c2565b60405180910390a2612132565b611f5a67ddc5fe701654a26560c01b612134565b611f6e67c48acc0a08e73cb360c01b612134565b611f82679a17a882d23ebb2960c01b612134565b60ca60009054906101000a900473ffffffffffffffffffffffffffffffffffffffff1673ffffffffffffffffffffffffffffffffffffffff166342842e0e60ca60009054906101000a900473ffffffffffffffffffffffffffffffffffffffff1673ffffffffffffffffffffffffffffffffffffffff16636352211e60cc546040518263ffffffff1660e01b815260040161201d91906128c2565b602060405180830381865afa15801561203a573d6000803e3d6000fd5b505050506040513d601f19601f8201168201806040525081019061205e91906135b8565b61206661135f565b60cc546040518463ffffffff1660e01b8152600401612087939291906137d8565b600060405180830381600087803b1580156120a157600080fd5b505af11580156120b5573d6000803e3d6000fd5b505050506120cd672d42877de5ce64df60c01b612134565b6120e167e359f7fb02ce85e860c01b612134565b600073ffffffffffffffffffffffffffffffffffffffff167fdaec4582d5d9595688c8c98545fdd1c696d41c6aeaeb636737e84ed2f5c00eda6000604051612129919061393f565b60405180910390a25b565b50565b60006121657f360894a13ba1a3210667c828492db98dca3e2076cc3735a920a3ca505d382bbc60001b612580565b60000160009054906101000a900473ffffffffffffffffffffffffffffffffffffffff16905090565b6121a267051642abae11d80d60c01b612134565b6121aa612343565b6121be671b17ac6ada6d300060c01b612134565b6121d267fa68a0f7aec9ed1560c01b612134565b50565b6122017f4910fdfa16fed3260ed0e7147f7cc6da11a60208b5b9406d12a635614ffd914360001b61258a565b60000160009054906101000a900460ff16156122255761222083612594565b61233e565b8273ffffffffffffffffffffffffffffffffffffffff166352d1902d6040518163ffffffff1660e01b8152600401602060405180830381865afa92505050801561228d57506040513d601f19601f8201168201806040525081019061228a9190613986565b60015b6122cc576040517f08c379a00000000000000000000000000000000000000000000000000000000081526004016122c390613a25565b60405180910390fd5b7f360894a13ba1a3210667c828492db98dca3e2076cc3735a920a3ca505d382bbc60001b8114612331576040517f08c379a000000000000000000000000000000000000000000000000000000000815260040161232890613ab7565b60405180910390fd5b5061233d83838361264d565b5b505050565b61234b612679565b73ffffffffffffffffffffffffffffffffffffffff1661236961135f565b73ffffffffffffffffffffffffffffffffffffffff16146123bf576040517f08c379a00000000000000000000000000000000000000000000000000000000081526004016123b690613b23565b60405180910390fd5b565b6000603360009054906101000a900473ffffffffffffffffffffffffffffffffffffffff16905081603360006101000a81548173ffffffffffffffffffffffffffffffffffffffff021916908373ffffffffffffffffffffffffffffffffffffffff1602179055508173ffffffffffffffffffffffffffffffffffffffff168173ffffffffffffffffffffffffffffffffffffffff167f8be0079c531659141344cd1fd0a4f28419497f9722a3daafe3b4186f6b6457e060405160405180910390a35050565b6000808273ffffffffffffffffffffffffffffffffffffffff163b119050919050565b600060019054906101000a900460ff166124f9576040517f08c379a00000000000000000000000000000000000000000000000000000000081526004016124f090613bb5565b60405180910390fd5b612501612681565b565b600060019054906101000a900460ff16612552576040517f08c379a000000000000000000000000000000000000000000000000000000000815260040161254990613bb5565b60405180910390fd5b565b600081836125629190613bd5565b905092915050565b60008183612578919061383e565b905092915050565b6000819050919050565b6000819050919050565b61259d81612487565b6125dc576040517f08c379a00000000000000000000000000000000000000000000000000000000081526004016125d390613c89565b60405180910390fd5b806126097f360894a13ba1a3210667c828492db98dca3e2076cc3735a920a3ca505d382bbc60001b612580565b60000160006101000a81548173ffffffffffffffffffffffffffffffffffffffff021916908373ffffffffffffffffffffffffffffffffffffffff16021790555050565b612656836126e2565b6000825111806126635750805b15612674576126728383612731565b505b505050565b600033905090565b600060019054906101000a900460ff166126d0576040517f08c379a00000000000000000000000000000000000000000000000000000000081526004016126c790613bb5565b60405180910390fd5b6126e06126db612679565b6123c1565b565b6126eb81612594565b8073ffffffffffffffffffffffffffffffffffffffff167fbc7cd75a20ee27fd9adebab32041f755214dbc6bffa90cc0225b39da2e5c2d3b60405160405180910390a250565b60606127568383604051806060016040528060278152602001613d746027913961275e565b905092915050565b60606000808573ffffffffffffffffffffffffffffffffffffffff16856040516127889190613cf0565b600060405180830381855af49150503d80600081146127c3576040519150601f19603f3d011682016040523d82523d6000602084013e6127c8565b606091505b50915091506127d9868383876127e4565b925050509392505050565b6060831561284657600083510361283e576127fe85612487565b61283d576040517f08c379a000000000000000000000000000000000000000000000000000000000815260040161283490613d53565b60405180910390fd5b5b829050612851565b6128508383612859565b5b949350505050565b60008251111561286c5781518083602001fd5b806040517f08c379a00000000000000000000000000000000000000000000000000000000081526004016128a09190612e9f565b60405180910390fd5b6000819050919050565b6128bc816128a9565b82525050565b60006020820190506128d760008301846128b3565b92915050565b6000604051905090565b600080fd5b600080fd5b600073ffffffffffffffffffffffffffffffffffffffff82169050919050565b600061291c826128f1565b9050919050565b61292c81612911565b811461293757600080fd5b50565b60008135905061294981612923565b92915050565b600060208284031215612965576129646128e7565b5b60006129738482850161293a565b91505092915050565b60008115159050919050565b6129918161297c565b82525050565b60006020820190506129ac6000830184612988565b92915050565b6000819050919050565b60006129d76129d26129cd846128f1565b6129b2565b6128f1565b9050919050565b60006129e9826129bc565b9050919050565b60006129fb826129de565b9050919050565b612a0b816129f0565b82525050565b6000602082019050612a266000830184612a02565b92915050565b600080fd5b600080fd5b6000601f19601f8301169050919050565b7f4e487b7100000000000000000000000000000000000000000000000000000000600052604160045260246000fd5b612a7f82612a36565b810181811067ffffffffffffffff82111715612a9e57612a9d612a47565b5b80604052505050565b6000612ab16128dd565b9050612abd8282612a76565b919050565b600067ffffffffffffffff821115612add57612adc612a47565b5b612ae682612a36565b9050602081019050919050565b82818337600083830152505050565b6000612b15612b1084612ac2565b612aa7565b905082815260208101848484011115612b3157612b30612a31565b5b612b3c848285612af3565b509392505050565b600082601f830112612b5957612b58612a2c565b5b8135612b69848260208601612b02565b91505092915050565b60008060408385031215612b8957612b886128e7565b5b6000612b978582860161293a565b925050602083013567ffffffffffffffff811115612bb857612bb76128ec565b5b612bc485828601612b44565b9150509250929050565b6000819050919050565b612be181612bce565b82525050565b6000602082019050612bfc6000830184612bd8565b92915050565b600067ffffffffffffffff821115612c1d57612c1c612a47565b5b612c2682612a36565b9050602081019050919050565b6000612c46612c4184612c02565b612aa7565b905082815260208101848484011115612c6257612c61612a31565b5b612c6d848285612af3565b509392505050565b600082601f830112612c8a57612c89612a2c565b5b8135612c9a848260208601612c33565b91505092915050565b612cac816128a9565b8114612cb757600080fd5b50565b600081359050612cc981612ca3565b92915050565b600080600080600080600060e0888a031215612cee57612ced6128e7565b5b600088013567ffffffffffffffff811115612d0c57612d0b6128ec565b5b612d188a828b01612c75565b9750506020612d298a828b0161293a565b9650506040612d3a8a828b0161293a565b9550506060612d4b8a828b01612cba565b9450506080612d5c8a828b01612cba565b93505060a0612d6d8a828b01612cba565b92505060c0612d7e8a828b01612cba565b91505092959891949750929550565b6000612d98826129de565b9050919050565b612da881612d8d565b82525050565b6000602082019050612dc36000830184612d9f565b92915050565b612dd281612911565b82525050565b6000602082019050612ded6000830184612dc9565b92915050565b600060208284031215612e0957612e086128e7565b5b6000612e1784828501612cba565b91505092915050565b600081519050919050565b600082825260208201905092915050565b60005b83811015612e5a578082015181840152602081019050612e3f565b60008484015250505050565b6000612e7182612e20565b612e7b8185612e2b565b9350612e8b818560208601612e3c565b612e9481612a36565b840191505092915050565b60006020820190508181036000830152612eb98184612e66565b905092915050565b7f41756374696f6e20686173206e6f7420656e6465642079657400000000000000600082015250565b6000612ef7601983612e2b565b9150612f0282612ec1565b602082019050919050565b60006020820190508181036000830152612f2681612eea565b9050919050565b7f48696768657374206269646465722063616e6e6f7420726566756e6400000000600082015250565b6000612f63601c83612e2b565b9150612f6e82612f2d565b602082019050919050565b60006020820190508181036000830152612f9281612f56565b9050919050565b7f4e6f2062696420746f20726566756e6400000000000000000000000000000000600082015250565b6000612fcf601083612e2b565b9150612fda82612f99565b602082019050919050565b60006020820190508181036000830152612ffe81612fc2565b9050919050565b600060408201905061301a6000830185612dc9565b61302760208301846128b3565b9392505050565b6130378161297c565b811461304257600080fd5b50565b6000815190506130548161302e565b92915050565b6000602082840312156130705761306f6128e7565b5b600061307e84828501613045565b91505092915050565b7f46756e6374696f6e206d7573742062652063616c6c6564207468726f7567682060008201527f64656c656761746563616c6c0000000000000000000000000000000000000000602082015250565b60006130e3602c83612e2b565b91506130ee82613087565b604082019050919050565b60006020820190508181036000830152613112816130d6565b9050919050565b7f46756e6374696f6e206d7573742062652063616c6c6564207468726f7567682060008201527f6163746976652070726f78790000000000000000000000000000000000000000602082015250565b6000613175602c83612e2b565b915061318082613119565b604082019050919050565b600060208201905081810360008301526131a481613168565b9050919050565b7f555550535570677261646561626c653a206d757374206e6f742062652063616c60008201527f6c6564207468726f7567682064656c656761746563616c6c0000000000000000602082015250565b6000613207603883612e2b565b9150613212826131ab565b604082019050919050565b60006020820190508181036000830152613236816131fa565b9050919050565b7f496e697469616c697a61626c653a20636f6e747261637420697320616c72656160008201527f647920696e697469616c697a6564000000000000000000000000000000000000602082015250565b6000613299602e83612e2b565b91506132a48261323d565b604082019050919050565b600060208201905081810360008301526132c88161328c565b9050919050565b7f4e487b7100000000000000000000000000000000000000000000000000000000600052602260045260246000fd5b6000600282049050600182168061331657607f821691505b602082108103613329576133286132cf565b5b50919050565b60008190508160005260206000209050919050565b60006020601f8301049050919050565b600082821b905092915050565b6000600883026133917fffffffffffffffffffffffffffffffffffffffffffffffffffffffffffffffff82613354565b61339b8683613354565b95508019841693508086168417925050509392505050565b60006133ce6133c96133c4846128a9565b6129b2565b6128a9565b9050919050565b6000819050919050565b6133e8836133b3565b6133fc6133f4826133d5565b848454613361565b825550505050565b600090565b613411613404565b61341c8184846133df565b505050565b5b8181101561344057613435600082613409565b600181019050613422565b5050565b601f821115613485576134568161332f565b61345f84613344565b8101602085101561346e578190505b61348261347a85613344565b830182613421565b50505b505050565b600082821c905092915050565b60006134a86000198460080261348a565b1980831691505092915050565b60006134c18383613497565b9150826002028217905092915050565b6134da82612e20565b67ffffffffffffffff8111156134f3576134f2612a47565b5b6134fd82546132fe565b613508828285613444565b600060209050601f83116001811461353b5760008415613529578287015190505b61353385826134b5565b86555061359b565b601f1984166135498661332f565b60005b828110156135715784890151825560018201915060208501945060208101905061354c565b8683101561358e578489015161358a601f891682613497565b8355505b6001600288020188555050505b505050505050565b6000815190506135b281612923565b92915050565b6000602082840312156135ce576135cd6128e7565b5b60006135dc848285016135a3565b91505092915050565b7f4e465420746f6b656e20496420646f6573206e6f742062656c6f6e6720746f2060008201527f7468652041756374696f6e2773204f776e657200000000000000000000000000602082015250565b6000613641603383612e2b565b915061364c826135e5565b604082019050919050565b6000602082019050818103600083015261367081613634565b9050919050565b6000819050919050565b600060ff82169050919050565b60006136a96136a461369f84613677565b6129b2565b613681565b9050919050565b6136b98161368e565b82525050565b60006020820190506136d460008301846136b0565b92915050565b7f42696420616d6f756e74206d7573742062652067726561746572207468616e2060008201527f7a65726f00000000000000000000000000000000000000000000000000000000602082015250565b6000613736602483612e2b565b9150613741826136da565b604082019050919050565b6000602082019050818103600083015261376581613729565b9050919050565b7f41756374696f6e2068617320616c726561647920656e64656400000000000000600082015250565b60006137a2601983612e2b565b91506137ad8261376c565b602082019050919050565b600060208201905081810360008301526137d181613795565b9050919050565b60006060820190506137ed6000830186612dc9565b6137fa6020830185612dc9565b61380760408301846128b3565b949350505050565b7f4e487b7100000000000000000000000000000000000000000000000000000000600052601160045260246000fd5b6000613849826128a9565b9150613854836128a9565b925082820190508082111561386c5761386b61380f565b5b92915050565b7f4f776e61626c653a206e6577206f776e657220697320746865207a65726f206160008201527f6464726573730000000000000000000000000000000000000000000000000000602082015250565b60006138ce602683612e2b565b91506138d982613872565b604082019050919050565b600060208201905081810360008301526138fd816138c1565b9050919050565b6000819050919050565b600061392961392461391f84613904565b6129b2565b6128a9565b9050919050565b6139398161390e565b82525050565b60006020820190506139546000830184613930565b92915050565b61396381612bce565b811461396e57600080fd5b50565b6000815190506139808161395a565b92915050565b60006020828403121561399c5761399b6128e7565b5b60006139aa84828501613971565b91505092915050565b7f45524331393637557067726164653a206e657720696d706c656d656e7461746960008201527f6f6e206973206e6f742055555053000000000000000000000000000000000000602082015250565b6000613a0f602e83612e2b565b9150613a1a826139b3565b604082019050919050565b60006020820190508181036000830152613a3e81613a02565b9050919050565b7f45524331393637557067726164653a20756e737570706f727465642070726f7860008201527f6961626c65555549440000000000000000000000000000000000000000000000602082015250565b6000613aa1602983612e2b565b9150613aac82613a45565b604082019050919050565b60006020820190508181036000830152613ad081613a94565b9050919050565b7f4f776e61626c653a2063616c6c6572206973206e6f7420746865206f776e6572600082015250565b6000613b0d602083612e2b565b9150613b1882613ad7565b602082019050919050565b60006020820190508181036000830152613b3c81613b00565b9050919050565b7f496e697469616c697a61626c653a20636f6e7472616374206973206e6f74206960008201527f6e697469616c697a696e67000000000000000000000000000000000000000000602082015250565b6000613b9f602b83612e2b565b9150613baa82613b43565b604082019050919050565b60006020820190508181036000830152613bce81613b92565b9050919050565b6000613be0826128a9565b9150613beb836128a9565b9250828202613bf9816128a9565b91508282048414831517613c1057613c0f61380f565b5b5092915050565b7f455243313936373a206e657720696d706c656d656e746174696f6e206973206e60008201527f6f74206120636f6e747261637400000000000000000000000000000000000000602082015250565b6000613c73602d83612e2b565b9150613c7e82613c17565b604082019050919050565b60006020820190508181036000830152613ca281613c66565b9050919050565b600081519050919050565b600081905092915050565b6000613cca82613ca9565b613cd48185613cb4565b9350613ce4818560208601612e3c565b80840191505092915050565b6000613cfc8284613cbf565b915081905092915050565b7f416464726573733a2063616c6c20746f206e6f6e2d636f6e7472616374000000600082015250565b6000613d3d601d83612e2b565b9150613d4882613d07565b602082019050919050565b60006020820190508181036000830152613d6c81613d30565b905091905056fe416464726573733a206c6f772d6c6576656c2064656c65676174652063616c6c206661696c6564a26469706673582212204536e52d74ff3c7b55bcf519cf2604f26b977ce7914671212751780b6a1fac0d64736f6c63430008120033","opcodes":"PUSH1 0xA0 PUSH1 0x40 MSTORE ADDRESS PUSH20 0xFFFFFFFFFFFFFFFFFFFFFFFFFFFFFFFFFFFFFFFF AND PUSH1 0x80 SWAP1 PUSH20 0xFFFFFFFFFFFFFFFFFFFFFFFFFFFFFFFFFFFFFFFF AND DUP2 MSTORE POP CALLVALUE DUP1 ISZERO PUSH2 0x43 JUMPI PUSH1 0x0 DUP1 REVERT JUMPDEST POP PUSH1 0x80 MLOAD PUSH2 0x3DD0 PUSH2 0x7B PUSH1 0x0 CODECOPY PUSH1 0x0 DUP2 DUP2 PUSH2 0x9BA ADD MSTORE DUP2 DUP2 PUSH2 0xA48 ADD MSTORE DUP2 DUP2 PUSH2 0xB7B ADD MSTORE DUP2 DUP2 PUSH2 0xC09 ADD MSTORE PUSH2 0xCB9 ADD MSTORE PUSH2 0x3DD0 PUSH1 0x0 RETURN INVALID PUSH1 0x80 PUSH1 0x40 MSTORE PUSH1 0x4 CALLDATASIZE LT PUSH2 0x181 JUMPI PUSH1 0x0 CALLDATALOAD PUSH1 0xE0 SHR DUP1 PUSH4 0x8A13EEA7 GT PUSH2 0xD1 JUMPI DUP1 PUSH4 0xD57BDE79 GT PUSH2 0x8A JUMPI DUP1 PUSH4 0xEB54F9EC GT PUSH2 0x64 JUMPI DUP1 PUSH4 0xEB54F9EC EQ PUSH2 0x51F JUMPI DUP1 PUSH4 0xEB8BF84D EQ PUSH2 0x54A JUMPI DUP1 PUSH4 0xF2FDE38B EQ PUSH2 0x575 JUMPI DUP1 PUSH4 0xFE67A54B EQ PUSH2 0x59E JUMPI PUSH2 0x181 JUMP JUMPDEST DUP1 PUSH4 0xD57BDE79 EQ PUSH2 0x49E JUMPI DUP1 PUSH4 0xDB2E1EED EQ PUSH2 0x4C9 JUMPI DUP1 PUSH4 0xDF241CB9 EQ PUSH2 0x4F4 JUMPI PUSH2 0x181 JUMP JUMPDEST DUP1 PUSH4 0x8A13EEA7 EQ PUSH2 0x39E JUMPI DUP1 PUSH4 0x8DA5CB5B EQ PUSH2 0x3C9 JUMPI DUP1 PUSH4 0x91F90157 EQ PUSH2 0x3F4 JUMPI DUP1 PUSH4 0x9979EF45 EQ PUSH2 0x41F JUMPI DUP1 PUSH4 0xCE6D41DE EQ PUSH2 0x448 JUMPI DUP1 PUSH4 0xD3642A88 EQ PUSH2 0x473 JUMPI PUSH2 0x181 JUMP JUMPDEST DUP1 PUSH4 0x4F1EF286 GT PUSH2 0x13E JUMPI DUP1 PUSH4 0x715018A6 GT PUSH2 0x118 JUMPI DUP1 PUSH4 0x715018A6 EQ PUSH2 0x308 JUMPI DUP1 PUSH4 0x74FE2916 EQ PUSH2 0x31F JUMPI DUP1 PUSH4 0x7E830574 EQ PUSH2 0x348 JUMPI DUP1 PUSH4 0x86433374 EQ PUSH2 0x373 JUMPI PUSH2 0x181 JUMP JUMPDEST DUP1 PUSH4 0x4F1EF286 EQ PUSH2 0x284 JUMPI DUP1 PUSH4 0x52D1902D EQ PUSH2 0x2A0 JUMPI DUP1 PUSH4 0x62EA82DB EQ PUSH2 0x2CB JUMPI PUSH2 0x181 JUMP JUMPDEST DUP1 PUSH4 0x1D0806AE EQ PUSH2 0x186 JUMPI DUP1 PUSH4 0x2BF0D538 EQ PUSH2 0x1B1 JUMPI DUP1 PUSH4 0x3103EA62 EQ PUSH2 0x1DA JUMPI DUP1 PUSH4 0x3659CFE6 EQ PUSH2 0x205 JUMPI DUP1 PUSH4 0x438E897A EQ PUSH2 0x22E JUMPI DUP1 PUSH4 0x47CCCA02 EQ PUSH2 0x259 JUMPI JUMPDEST PUSH1 0x0 DUP1 REVERT JUMPDEST CALLVALUE DUP1 ISZERO PUSH2 0x192 JUMPI PUSH1 0x0 DUP1 REVERT JUMPDEST POP PUSH2 0x19B PUSH2 0x5B5 JUMP JUMPDEST PUSH1 0x40 MLOAD PUSH2 0x1A8 SWAP2 SWAP1 PUSH2 0x28C2 JUMP JUMPDEST PUSH1 0x40 MLOAD DUP1 SWAP2 SUB SWAP1 RETURN JUMPDEST CALLVALUE DUP1 ISZERO PUSH2 0x1BD JUMPI PUSH1 0x0 DUP1 REVERT JUMPDEST POP PUSH2 0x1D8 PUSH1 0x4 DUP1 CALLDATASIZE SUB DUP2 ADD SWAP1 PUSH2 0x1D3 SWAP2 SWAP1 PUSH2 0x294F JUMP JUMPDEST PUSH2 0x5BB JUMP JUMPDEST STOP JUMPDEST CALLVALUE DUP1 ISZERO PUSH2 0x1E6 JUMPI PUSH1 0x0 DUP1 REVERT JUMPDEST POP PUSH2 0x1EF PUSH2 0x9B2 JUMP JUMPDEST PUSH1 0x40 MLOAD PUSH2 0x1FC SWAP2 SWAP1 PUSH2 0x28C2 JUMP JUMPDEST PUSH1 0x40 MLOAD DUP1 SWAP2 SUB SWAP1 RETURN JUMPDEST CALLVALUE DUP1 ISZERO PUSH2 0x211 JUMPI PUSH1 0x0 DUP1 REVERT JUMPDEST POP PUSH2 0x22C PUSH1 0x4 DUP1 CALLDATASIZE SUB DUP2 ADD SWAP1 PUSH2 0x227 SWAP2 SWAP1 PUSH2 0x294F JUMP JUMPDEST PUSH2 0x9B8 JUMP JUMPDEST STOP JUMPDEST CALLVALUE DUP1 ISZERO PUSH2 0x23A JUMPI PUSH1 0x0 DUP1 REVERT JUMPDEST POP PUSH2 0x243 PUSH2 0xB40 JUMP JUMPDEST PUSH1 0x40 MLOAD PUSH2 0x250 SWAP2 SWAP1 PUSH2 0x2997 JUMP JUMPDEST PUSH1 0x40 MLOAD DUP1 SWAP2 SUB SWAP1 RETURN JUMPDEST CALLVALUE DUP1 ISZERO PUSH2 0x265 JUMPI PUSH1 0x0 DUP1 REVERT JUMPDEST POP PUSH2 0x26E PUSH2 0xB53 JUMP JUMPDEST PUSH1 0x40 MLOAD PUSH2 0x27B SWAP2 SWAP1 PUSH2 0x2A11 JUMP JUMPDEST PUSH1 0x40 MLOAD DUP1 SWAP2 SUB SWAP1 RETURN JUMPDEST PUSH2 0x29E PUSH1 0x4 DUP1 CALLDATASIZE SUB DUP2 ADD SWAP1 PUSH2 0x299 SWAP2 SWAP1 PUSH2 0x2B72 JUMP JUMPDEST PUSH2 0xB79 JUMP JUMPDEST STOP JUMPDEST CALLVALUE DUP1 ISZERO PUSH2 0x2AC JUMPI PUSH1 0x0 DUP1 REVERT JUMPDEST POP PUSH2 0x2B5 PUSH2 0xCB5 JUMP JUMPDEST PUSH1 0x40 MLOAD PUSH2 0x2C2 SWAP2 SWAP1 PUSH2 0x2BE7 JUMP JUMPDEST PUSH1 0x40 MLOAD DUP1 SWAP2 SUB SWAP1 RETURN JUMPDEST CALLVALUE DUP1 ISZERO PUSH2 0x2D7 JUMPI PUSH1 0x0 DUP1 REVERT JUMPDEST POP PUSH2 0x2F2 PUSH1 0x4 DUP1 CALLDATASIZE SUB DUP2 ADD SWAP1 PUSH2 0x2ED SWAP2 SWAP1 PUSH2 0x294F JUMP JUMPDEST PUSH2 0xD6E JUMP JUMPDEST PUSH1 0x40 MLOAD PUSH2 0x2FF SWAP2 SWAP1 PUSH2 0x28C2 JUMP JUMPDEST PUSH1 0x40 MLOAD DUP1 SWAP2 SUB SWAP1 RETURN JUMPDEST CALLVALUE DUP1 ISZERO PUSH2 0x314 JUMPI PUSH1 0x0 DUP1 REVERT JUMPDEST POP PUSH2 0x31D PUSH2 0xD86 JUMP JUMPDEST STOP JUMPDEST CALLVALUE DUP1 ISZERO PUSH2 0x32B JUMPI PUSH1 0x0 DUP1 REVERT JUMPDEST POP PUSH2 0x346 PUSH1 0x4 DUP1 CALLDATASIZE SUB DUP2 ADD SWAP1 PUSH2 0x341 SWAP2 SWAP1 PUSH2 0x2CCF JUMP JUMPDEST PUSH2 0xD9A JUMP JUMPDEST STOP JUMPDEST CALLVALUE DUP1 ISZERO PUSH2 0x354 JUMPI PUSH1 0x0 DUP1 REVERT JUMPDEST POP PUSH2 0x35D PUSH2 0x1320 JUMP JUMPDEST PUSH1 0x40 MLOAD PUSH2 0x36A SWAP2 SWAP1 PUSH2 0x28C2 JUMP JUMPDEST PUSH1 0x40 MLOAD DUP1 SWAP2 SUB SWAP1 RETURN JUMPDEST CALLVALUE DUP1 ISZERO PUSH2 0x37F JUMPI PUSH1 0x0 DUP1 REVERT JUMPDEST POP PUSH2 0x388 PUSH2 0x1326 JUMP JUMPDEST PUSH1 0x40 MLOAD PUSH2 0x395 SWAP2 SWAP1 PUSH2 0x2997 JUMP JUMPDEST PUSH1 0x40 MLOAD DUP1 SWAP2 SUB SWAP1 RETURN JUMPDEST CALLVALUE DUP1 ISZERO PUSH2 0x3AA JUMPI PUSH1 0x0 DUP1 REVERT JUMPDEST POP PUSH2 0x3B3 PUSH2 0x1339 JUMP JUMPDEST PUSH1 0x40 MLOAD PUSH2 0x3C0 SWAP2 SWAP1 PUSH2 0x2DAE JUMP JUMPDEST PUSH1 0x40 MLOAD DUP1 SWAP2 SUB SWAP1 RETURN JUMPDEST CALLVALUE DUP1 ISZERO PUSH2 0x3D5 JUMPI PUSH1 0x0 DUP1 REVERT JUMPDEST POP PUSH2 0x3DE PUSH2 0x135F JUMP JUMPDEST PUSH1 0x40 MLOAD PUSH2 0x3EB SWAP2 SWAP1 PUSH2 0x2DD8 JUMP JUMPDEST PUSH1 0x40 MLOAD DUP1 SWAP2 SUB SWAP1 RETURN JUMPDEST CALLVALUE DUP1 ISZERO PUSH2 0x400 JUMPI PUSH1 0x0 DUP1 REVERT JUMPDEST POP PUSH2 0x409 PUSH2 0x1389 JUMP JUMPDEST PUSH1 0x40 MLOAD PUSH2 0x416 SWAP2 SWAP1 PUSH2 0x2DD8 JUMP JUMPDEST PUSH1 0x40 MLOAD DUP1 SWAP2 SUB SWAP1 RETURN JUMPDEST CALLVALUE DUP1 ISZERO PUSH2 0x42B JUMPI PUSH1 0x0 DUP1 REVERT JUMPDEST POP PUSH2 0x446 PUSH1 0x4 DUP1 CALLDATASIZE SUB DUP2 ADD SWAP1 PUSH2 0x441 SWAP2 SWAP1 PUSH2 0x2DF3 JUMP JUMPDEST PUSH2 0x13AF JUMP JUMPDEST STOP JUMPDEST CALLVALUE DUP1 ISZERO PUSH2 0x454 JUMPI PUSH1 0x0 DUP1 REVERT JUMPDEST POP PUSH2 0x45D PUSH2 0x18F1 JUMP JUMPDEST PUSH1 0x40 MLOAD PUSH2 0x46A SWAP2 SWAP1 PUSH2 0x2E9F JUMP JUMPDEST PUSH1 0x40 MLOAD DUP1 SWAP2 SUB SWAP1 RETURN JUMPDEST CALLVALUE DUP1 ISZERO PUSH2 0x47F JUMPI PUSH1 0x0 DUP1 REVERT JUMPDEST POP PUSH2 0x488 PUSH2 0x19BF JUMP JUMPDEST PUSH1 0x40 MLOAD PUSH2 0x495 SWAP2 SWAP1 PUSH2 0x28C2 JUMP JUMPDEST PUSH1 0x40 MLOAD DUP1 SWAP2 SUB SWAP1 RETURN JUMPDEST CALLVALUE DUP1 ISZERO PUSH2 0x4AA JUMPI PUSH1 0x0 DUP1 REVERT JUMPDEST POP PUSH2 0x4B3 PUSH2 0x19C5 JUMP JUMPDEST PUSH1 0x40 MLOAD PUSH2 0x4C0 SWAP2 SWAP1 PUSH2 0x28C2 JUMP JUMPDEST PUSH1 0x40 MLOAD DUP1 SWAP2 SUB SWAP1 RETURN JUMPDEST CALLVALUE DUP1 ISZERO PUSH2 0x4D5 JUMPI PUSH1 0x0 DUP1 REVERT JUMPDEST POP PUSH2 0x4DE PUSH2 0x19CB JUMP JUMPDEST PUSH1 0x40 MLOAD PUSH2 0x4EB SWAP2 SWAP1 PUSH2 0x28C2 JUMP JUMPDEST PUSH1 0x40 MLOAD DUP1 SWAP2 SUB SWAP1 RETURN JUMPDEST CALLVALUE DUP1 ISZERO PUSH2 0x500 JUMPI PUSH1 0x0 DUP1 REVERT JUMPDEST POP PUSH2 0x509 PUSH2 0x19D1 JUMP JUMPDEST PUSH1 0x40 MLOAD PUSH2 0x516 SWAP2 SWAP1 PUSH2 0x2DD8 JUMP JUMPDEST PUSH1 0x40 MLOAD DUP1 SWAP2 SUB SWAP1 RETURN JUMPDEST CALLVALUE DUP1 ISZERO PUSH2 0x52B JUMPI PUSH1 0x0 DUP1 REVERT JUMPDEST POP PUSH2 0x534 PUSH2 0x19F7 JUMP JUMPDEST PUSH1 0x40 MLOAD PUSH2 0x541 SWAP2 SWAP1 PUSH2 0x28C2 JUMP JUMPDEST PUSH1 0x40 MLOAD DUP1 SWAP2 SUB SWAP1 RETURN JUMPDEST CALLVALUE DUP1 ISZERO PUSH2 0x556 JUMPI PUSH1 0x0 DUP1 REVERT JUMPDEST POP PUSH2 0x55F PUSH2 0x19FD JUMP JUMPDEST PUSH1 0x40 MLOAD PUSH2 0x56C SWAP2 SWAP1 PUSH2 0x2E9F JUMP JUMPDEST PUSH1 0x40 MLOAD DUP1 SWAP2 SUB SWAP1 RETURN JUMPDEST CALLVALUE DUP1 ISZERO PUSH2 0x581 JUMPI PUSH1 0x0 DUP1 REVERT JUMPDEST POP PUSH2 0x59C PUSH1 0x4 DUP1 CALLDATASIZE SUB DUP2 ADD SWAP1 PUSH2 0x597 SWAP2 SWAP1 PUSH2 0x294F JUMP JUMPDEST PUSH2 0x1A8B JUMP JUMPDEST STOP JUMPDEST CALLVALUE DUP1 ISZERO PUSH2 0x5AA JUMPI PUSH1 0x0 DUP1 REVERT JUMPDEST POP PUSH2 0x5B3 PUSH2 0x1B0E JUMP JUMPDEST STOP JUMPDEST PUSH1 0xD0 SLOAD DUP2 JUMP JUMPDEST PUSH2 0x5CF PUSH8 0xC6D4F07928F557F9 PUSH1 0xC0 SHL PUSH2 0x2134 JUMP JUMPDEST PUSH2 0x5E3 PUSH8 0x29050CBDAD1E44B7 PUSH1 0xC0 SHL PUSH2 0x2134 JUMP JUMPDEST PUSH2 0x5F7 PUSH8 0xF17B8357CE55775A PUSH1 0xC0 SHL PUSH2 0x2134 JUMP JUMPDEST PUSH2 0x60B PUSH8 0x38F11A852B637692 PUSH1 0xC0 SHL PUSH2 0x2134 JUMP JUMPDEST PUSH1 0xD1 PUSH1 0x0 SWAP1 SLOAD SWAP1 PUSH2 0x100 EXP SWAP1 DIV PUSH1 0xFF AND PUSH2 0x65A JUMPI PUSH1 0x40 MLOAD PUSH32 0x8C379A000000000000000000000000000000000000000000000000000000000 DUP2 MSTORE PUSH1 0x4 ADD PUSH2 0x651 SWAP1 PUSH2 0x2F0D JUMP JUMPDEST PUSH1 0x40 MLOAD DUP1 SWAP2 SUB SWAP1 REVERT JUMPDEST PUSH2 0x66E PUSH8 0xD2951FFF2B50C6BE PUSH1 0xC0 SHL PUSH2 0x2134 JUMP JUMPDEST PUSH2 0x682 PUSH8 0xCE55734BE3C85CD7 PUSH1 0xC0 SHL PUSH2 0x2134 JUMP JUMPDEST PUSH2 0x696 PUSH8 0x1E7D8EF81CF92B6D PUSH1 0xC0 SHL PUSH2 0x2134 JUMP JUMPDEST PUSH2 0x6AA PUSH8 0x1048ECF50600AD6E PUSH1 0xC0 SHL PUSH2 0x2134 JUMP JUMPDEST PUSH1 0xD3 PUSH1 0x0 SWAP1 SLOAD SWAP1 PUSH2 0x100 EXP SWAP1 DIV PUSH20 0xFFFFFFFFFFFFFFFFFFFFFFFFFFFFFFFFFFFFFFFF AND PUSH20 0xFFFFFFFFFFFFFFFFFFFFFFFFFFFFFFFFFFFFFFFF AND DUP2 PUSH20 0xFFFFFFFFFFFFFFFFFFFFFFFFFFFFFFFFFFFFFFFF AND SUB PUSH2 0x73A JUMPI PUSH1 0x40 MLOAD PUSH32 0x8C379A000000000000000000000000000000000000000000000000000000000 DUP2 MSTORE PUSH1 0x4 ADD PUSH2 0x731 SWAP1 PUSH2 0x2F79 JUMP JUMPDEST PUSH1 0x40 MLOAD DUP1 SWAP2 SUB SWAP1 REVERT JUMPDEST PUSH2 0x74E PUSH8 0xAE17D82B917DB96B PUSH1 0xC0 SHL PUSH2 0x2134 JUMP JUMPDEST PUSH2 0x762 PUSH8 0x4BA1D8D827FACBAB PUSH1 0xC0 SHL PUSH2 0x2134 JUMP JUMPDEST PUSH2 0x776 PUSH8 0x23B30F4CCCA727AF PUSH1 0xC0 SHL PUSH2 0x2134 JUMP JUMPDEST PUSH2 0x78A PUSH8 0x1071491451CC6E63 PUSH1 0xC0 SHL PUSH2 0x2134 JUMP JUMPDEST PUSH1 0x0 PUSH1 0xD2 PUSH1 0x0 DUP4 PUSH20 0xFFFFFFFFFFFFFFFFFFFFFFFFFFFFFFFFFFFFFFFF AND PUSH20 0xFFFFFFFFFFFFFFFFFFFFFFFFFFFFFFFFFFFFFFFF AND DUP2 MSTORE PUSH1 0x20 ADD SWAP1 DUP2 MSTORE PUSH1 0x20 ADD PUSH1 0x0 KECCAK256 SLOAD GT PUSH2 0x80C JUMPI PUSH1 0x40 MLOAD PUSH32 0x8C379A000000000000000000000000000000000000000000000000000000000 DUP2 MSTORE PUSH1 0x4 ADD PUSH2 0x803 SWAP1 PUSH2 0x2FE5 JUMP JUMPDEST PUSH1 0x40 MLOAD DUP1 SWAP2 SUB SWAP1 REVERT JUMPDEST PUSH2 0x820 PUSH8 0x78C5769D702CD72E PUSH1 0xC0 SHL PUSH2 0x2134 JUMP JUMPDEST PUSH2 0x834 PUSH8 0x954ABFA21B98D8FA PUSH1 0xC0 SHL PUSH2 0x2134 JUMP JUMPDEST PUSH2 0x848 PUSH8 0x59EFD97F3F48662A PUSH1 0xC0 SHL PUSH2 0x2134 JUMP JUMPDEST PUSH1 0x0 PUSH1 0xD2 PUSH1 0x0 DUP4 PUSH20 0xFFFFFFFFFFFFFFFFFFFFFFFFFFFFFFFFFFFFFFFF AND PUSH20 0xFFFFFFFFFFFFFFFFFFFFFFFFFFFFFFFFFFFFFFFF AND DUP2 MSTORE PUSH1 0x20 ADD SWAP1 DUP2 MSTORE PUSH1 0x20 ADD PUSH1 0x0 KECCAK256 SLOAD SWAP1 POP PUSH2 0x8A0 PUSH8 0x51D4D5129ED28F49 PUSH1 0xC0 SHL PUSH2 0x2134 JUMP JUMPDEST PUSH1 0x0 PUSH1 0xD2 PUSH1 0x0 DUP5 PUSH20 0xFFFFFFFFFFFFFFFFFFFFFFFFFFFFFFFFFFFFFFFF AND PUSH20 0xFFFFFFFFFFFFFFFFFFFFFFFFFFFFFFFFFFFFFFFF AND DUP2 MSTORE PUSH1 0x20 ADD SWAP1 DUP2 MSTORE PUSH1 0x20 ADD PUSH1 0x0 KECCAK256 DUP2 SWAP1 SSTORE POP PUSH2 0x8F9 PUSH8 0x6608CD09A9F961F3 PUSH1 0xC0 SHL PUSH2 0x2134 JUMP JUMPDEST PUSH2 0x90D PUSH8 0xD4EED39922419C18 PUSH1 0xC0 SHL PUSH2 0x2134 JUMP JUMPDEST PUSH1 0xC9 PUSH1 0x0 SWAP1 SLOAD SWAP1 PUSH2 0x100 EXP SWAP1 DIV PUSH20 0xFFFFFFFFFFFFFFFFFFFFFFFFFFFFFFFFFFFFFFFF AND PUSH20 0xFFFFFFFFFFFFFFFFFFFFFFFFFFFFFFFFFFFFFFFF AND PUSH4 0xA9059CBB DUP4 DUP4 PUSH1 0x40 MLOAD DUP4 PUSH4 0xFFFFFFFF AND PUSH1 0xE0 SHL DUP2 MSTORE PUSH1 0x4 ADD PUSH2 0x96A SWAP3 SWAP2 SWAP1 PUSH2 0x3005 JUMP JUMPDEST PUSH1 0x20 PUSH1 0x40 MLOAD DUP1 DUP4 SUB DUP2 PUSH1 0x0 DUP8 GAS CALL ISZERO DUP1 ISZERO PUSH2 0x989 JUMPI RETURNDATASIZE PUSH1 0x0 DUP1 RETURNDATACOPY RETURNDATASIZE PUSH1 0x0 REVERT JUMPDEST POP POP POP POP PUSH1 0x40 MLOAD RETURNDATASIZE PUSH1 0x1F NOT PUSH1 0x1F DUP3 ADD AND DUP3 ADD DUP1 PUSH1 0x40 MSTORE POP DUP2 ADD SWAP1 PUSH2 0x9AD SWAP2 SWAP1 PUSH2 0x305A JUMP JUMPDEST POP POP POP JUMP JUMPDEST PUSH1 0xCE SLOAD DUP2 JUMP JUMPDEST PUSH32 0x0 PUSH20 0xFFFFFFFFFFFFFFFFFFFFFFFFFFFFFFFFFFFFFFFF AND ADDRESS PUSH20 0xFFFFFFFFFFFFFFFFFFFFFFFFFFFFFFFFFFFFFFFF AND SUB PUSH2 0xA46 JUMPI PUSH1 0x40 MLOAD PUSH32 0x8C379A000000000000000000000000000000000000000000000000000000000 DUP2 MSTORE PUSH1 0x4 ADD PUSH2 0xA3D SWAP1 PUSH2 0x30F9 JUMP JUMPDEST PUSH1 0x40 MLOAD DUP1 SWAP2 SUB SWAP1 REVERT JUMPDEST PUSH32 0x0 PUSH20 0xFFFFFFFFFFFFFFFFFFFFFFFFFFFFFFFFFFFFFFFF AND PUSH2 0xA85 PUSH2 0x2137 JUMP JUMPDEST PUSH20 0xFFFFFFFFFFFFFFFFFFFFFFFFFFFFFFFFFFFFFFFF AND EQ PUSH2 0xADB JUMPI PUSH1 0x40 MLOAD PUSH32 0x8C379A000000000000000000000000000000000000000000000000000000000 DUP2 MSTORE PUSH1 0x4 ADD PUSH2 0xAD2 SWAP1 PUSH2 0x318B JUMP JUMPDEST PUSH1 0x40 MLOAD DUP1 SWAP2 SUB SWAP1 REVERT JUMPDEST PUSH2 0xAE4 DUP2 PUSH2 0x218E JUMP JUMPDEST PUSH2 0xB3D DUP2 PUSH1 0x0 PUSH8 0xFFFFFFFFFFFFFFFF DUP2 GT ISZERO PUSH2 0xB03 JUMPI PUSH2 0xB02 PUSH2 0x2A47 JUMP JUMPDEST JUMPDEST PUSH1 0x40 MLOAD SWAP1 DUP1 DUP3 MSTORE DUP1 PUSH1 0x1F ADD PUSH1 0x1F NOT AND PUSH1 0x20 ADD DUP3 ADD PUSH1 0x40 MSTORE DUP1 ISZERO PUSH2 0xB35 JUMPI DUP2 PUSH1 0x20 ADD PUSH1 0x1 DUP3 MUL DUP1 CALLDATASIZE DUP4 CALLDATACOPY DUP1 DUP3 ADD SWAP2 POP POP SWAP1 POP JUMPDEST POP PUSH1 0x0 PUSH2 0x21D5 JUMP JUMPDEST POP JUMP JUMPDEST PUSH1 0xD1 PUSH1 0x1 SWAP1 SLOAD SWAP1 PUSH2 0x100 EXP SWAP1 DIV PUSH1 0xFF AND DUP2 JUMP JUMPDEST PUSH1 0xCA PUSH1 0x0 SWAP1 SLOAD SWAP1 PUSH2 0x100 EXP SWAP1 DIV PUSH20 0xFFFFFFFFFFFFFFFFFFFFFFFFFFFFFFFFFFFFFFFF AND DUP2 JUMP JUMPDEST PUSH32 0x0 PUSH20 0xFFFFFFFFFFFFFFFFFFFFFFFFFFFFFFFFFFFFFFFF AND ADDRESS PUSH20 0xFFFFFFFFFFFFFFFFFFFFFFFFFFFFFFFFFFFFFFFF AND SUB PUSH2 0xC07 JUMPI PUSH1 0x40 MLOAD PUSH32 0x8C379A000000000000000000000000000000000000000000000000000000000 DUP2 MSTORE PUSH1 0x4 ADD PUSH2 0xBFE SWAP1 PUSH2 0x30F9 JUMP JUMPDEST PUSH1 0x40 MLOAD DUP1 SWAP2 SUB SWAP1 REVERT JUMPDEST PUSH32 0x0 PUSH20 0xFFFFFFFFFFFFFFFFFFFFFFFFFFFFFFFFFFFFFFFF AND PUSH2 0xC46 PUSH2 0x2137 JUMP JUMPDEST PUSH20 0xFFFFFFFFFFFFFFFFFFFFFFFFFFFFFFFFFFFFFFFF AND EQ PUSH2 0xC9C JUMPI PUSH1 0x40 MLOAD PUSH32 0x8C379A000000000000000000000000000000000000000000000000000000000 DUP2 MSTORE PUSH1 0x4 ADD PUSH2 0xC93 SWAP1 PUSH2 0x318B JUMP JUMPDEST PUSH1 0x40 MLOAD DUP1 SWAP2 SUB SWAP1 REVERT JUMPDEST PUSH2 0xCA5 DUP3 PUSH2 0x218E JUMP JUMPDEST PUSH2 0xCB1 DUP3 DUP3 PUSH1 0x1 PUSH2 0x21D5 JUMP JUMPDEST POP POP JUMP JUMPDEST PUSH1 0x0 PUSH32 0x0 PUSH20 0xFFFFFFFFFFFFFFFFFFFFFFFFFFFFFFFFFFFFFFFF AND ADDRESS PUSH20 0xFFFFFFFFFFFFFFFFFFFFFFFFFFFFFFFFFFFFFFFF AND EQ PUSH2 0xD45 JUMPI PUSH1 0x40 MLOAD PUSH32 0x8C379A000000000000000000000000000000000000000000000000000000000 DUP2 MSTORE PUSH1 0x4 ADD PUSH2 0xD3C SWAP1 PUSH2 0x321D JUMP JUMPDEST PUSH1 0x40 MLOAD DUP1 SWAP2 SUB SWAP1 REVERT JUMPDEST PUSH32 0x360894A13BA1A3210667C828492DB98DCA3E2076CC3735A920A3CA505D382BBC PUSH1 0x0 SHL SWAP1 POP SWAP1 JUMP JUMPDEST PUSH1 0xD2 PUSH1 0x20 MSTORE DUP1 PUSH1 0x0 MSTORE PUSH1 0x40 PUSH1 0x0 KECCAK256 PUSH1 0x0 SWAP2 POP SWAP1 POP SLOAD DUP2 JUMP JUMPDEST PUSH2 0xD8E PUSH2 0x2343 JUMP JUMPDEST PUSH2 0xD98 PUSH1 0x0 PUSH2 0x23C1 JUMP JUMPDEST JUMP JUMPDEST PUSH2 0xDAE PUSH8 0x9DEB8235136A9A5B PUSH1 0xC0 SHL PUSH2 0x2134 JUMP JUMPDEST PUSH1 0x0 DUP1 PUSH1 0x1 SWAP1 SLOAD SWAP1 PUSH2 0x100 EXP SWAP1 DIV PUSH1 0xFF AND ISZERO SWAP1 POP DUP1 DUP1 ISZERO PUSH2 0xDDF JUMPI POP PUSH1 0x1 PUSH1 0x0 DUP1 SLOAD SWAP1 PUSH2 0x100 EXP SWAP1 DIV PUSH1 0xFF AND PUSH1 0xFF AND LT JUMPDEST DUP1 PUSH2 0xE0C JUMPI POP PUSH2 0xDEE ADDRESS PUSH2 0x2487 JUMP JUMPDEST ISZERO DUP1 ISZERO PUSH2 0xE0B JUMPI POP PUSH1 0x1 PUSH1 0x0 DUP1 SLOAD SWAP1 PUSH2 0x100 EXP SWAP1 DIV PUSH1 0xFF AND PUSH1 0xFF AND EQ JUMPDEST JUMPDEST PUSH2 0xE4B JUMPI PUSH1 0x40 MLOAD PUSH32 0x8C379A000000000000000000000000000000000000000000000000000000000 DUP2 MSTORE PUSH1 0x4 ADD PUSH2 0xE42 SWAP1 PUSH2 0x32AF JUMP JUMPDEST PUSH1 0x40 MLOAD DUP1 SWAP2 SUB SWAP1 REVERT JUMPDEST PUSH1 0x1 PUSH1 0x0 DUP1 PUSH2 0x100 EXP DUP2 SLOAD DUP2 PUSH1 0xFF MUL NOT AND SWAP1 DUP4 PUSH1 0xFF AND MUL OR SWAP1 SSTORE POP DUP1 ISZERO PUSH2 0xE88 JUMPI PUSH1 0x1 PUSH1 0x0 PUSH1 0x1 PUSH2 0x100 EXP DUP2 SLOAD DUP2 PUSH1 0xFF MUL NOT AND SWAP1 DUP4 ISZERO ISZERO MUL OR SWAP1 SSTORE POP JUMPDEST PUSH2 0xE9C PUSH8 0x313D33DF74AA6490 PUSH1 0xC0 SHL PUSH2 0x2134 JUMP JUMPDEST PUSH2 0xEB0 PUSH8 0xA82B896FB9FBCD72 PUSH1 0xC0 SHL PUSH2 0x2134 JUMP JUMPDEST PUSH2 0xEC4 PUSH8 0x45C1D144A21314C1 PUSH1 0xC0 SHL PUSH2 0x2134 JUMP JUMPDEST PUSH2 0xED8 PUSH8 0xF0F516DE20400641 PUSH1 0xC0 SHL PUSH2 0x2134 JUMP JUMPDEST PUSH2 0xEE0 PUSH2 0x24AA JUMP JUMPDEST PUSH2 0xEF4 PUSH8 0x87525D0D10854D78 PUSH1 0xC0 SHL PUSH2 0x2134 JUMP JUMPDEST PUSH2 0xF08 PUSH8 0x1C745EF08F665CD8 PUSH1 0xC0 SHL PUSH2 0x2134 JUMP JUMPDEST PUSH2 0xF10 PUSH2 0x2503 JUMP JUMPDEST PUSH2 0xF24 PUSH8 0x3E5231F002CF83FD PUSH1 0xC0 SHL PUSH2 0x2134 JUMP JUMPDEST DUP8 PUSH1 0xD6 SWAP1 DUP2 PUSH2 0xF33 SWAP2 SWAP1 PUSH2 0x34D1 JUMP JUMPDEST POP PUSH2 0xF48 PUSH8 0xE4BA07038E069F29 PUSH1 0xC0 SHL PUSH2 0x2134 JUMP JUMPDEST DUP6 PUSH1 0xCB PUSH1 0x0 PUSH2 0x100 EXP DUP2 SLOAD DUP2 PUSH20 0xFFFFFFFFFFFFFFFFFFFFFFFFFFFFFFFFFFFFFFFF MUL NOT AND SWAP1 DUP4 PUSH20 0xFFFFFFFFFFFFFFFFFFFFFFFFFFFFFFFFFFFFFFFF AND MUL OR SWAP1 SSTORE POP PUSH2 0xF9D PUSH8 0x11147327AD3277F5 PUSH1 0xC0 SHL PUSH2 0x2134 JUMP JUMPDEST DUP5 PUSH1 0xCC DUP2 SWAP1 SSTORE POP PUSH2 0xFB8 PUSH8 0x73DC62016267F1C3 PUSH1 0xC0 SHL PUSH2 0x2134 JUMP JUMPDEST DUP4 PUSH1 0xCD DUP2 SWAP1 SSTORE POP PUSH2 0xFD3 PUSH8 0x18C28F58442E008 PUSH1 0xC0 SHL PUSH2 0x2134 JUMP JUMPDEST DUP3 PUSH1 0xCE DUP2 SWAP1 SSTORE POP PUSH2 0xFEE PUSH8 0x5D3761F10166928F PUSH1 0xC0 SHL PUSH2 0x2134 JUMP JUMPDEST DUP2 PUSH1 0xCF DUP2 SWAP1 SSTORE POP PUSH2 0x1009 PUSH8 0xE0AACAC5FD9B88ED PUSH1 0xC0 SHL PUSH2 0x2134 JUMP JUMPDEST PUSH2 0x1034 PUSH2 0x1023 PUSH1 0xCF SLOAD PUSH1 0xCE SLOAD PUSH2 0x2554 SWAP1 SWAP2 SWAP1 PUSH4 0xFFFFFFFF AND JUMP JUMPDEST PUSH1 0xCD SLOAD PUSH2 0x256A SWAP1 SWAP2 SWAP1 PUSH4 0xFFFFFFFF AND JUMP JUMPDEST PUSH1 0xD0 DUP2 SWAP1 SSTORE POP PUSH2 0x104E PUSH8 0x9C38D26BDAD99026 PUSH1 0xC0 SHL PUSH2 0x2134 JUMP JUMPDEST NUMBER PUSH1 0xD5 DUP2 SWAP1 SSTORE POP PUSH2 0x1069 PUSH8 0xF188EAB8694ADF3F PUSH1 0xC0 SHL PUSH2 0x2134 JUMP JUMPDEST PUSH1 0x0 PUSH1 0xD1 PUSH1 0x0 PUSH2 0x100 EXP DUP2 SLOAD DUP2 PUSH1 0xFF MUL NOT AND SWAP1 DUP4 ISZERO ISZERO MUL OR SWAP1 SSTORE POP PUSH2 0x1098 PUSH8 0xB0882D04B81D573F PUSH1 0xC0 SHL PUSH2 0x2134 JUMP JUMPDEST PUSH1 0x0 PUSH1 0xD1 PUSH1 0x1 PUSH2 0x100 EXP DUP2 SLOAD DUP2 PUSH1 0xFF MUL NOT AND SWAP1 DUP4 ISZERO ISZERO MUL OR SWAP1 SSTORE POP PUSH2 0x10C7 PUSH8 0x626799799D63A5F3 PUSH1 0xC0 SHL PUSH2 0x2134 JUMP JUMPDEST DUP7 PUSH1 0xC9 PUSH1 0x0 PUSH2 0x100 EXP DUP2 SLOAD DUP2 PUSH20 0xFFFFFFFFFFFFFFFFFFFFFFFFFFFFFFFFFFFFFFFF MUL NOT AND SWAP1 DUP4 PUSH20 0xFFFFFFFFFFFFFFFFFFFFFFFFFFFFFFFFFFFFFFFF AND MUL OR SWAP1 SSTORE POP PUSH2 0x111C PUSH8 0xF94ECD8357F784D4 PUSH1 0xC0 SHL PUSH2 0x2134 JUMP JUMPDEST DUP6 PUSH1 0xCA PUSH1 0x0 PUSH2 0x100 EXP DUP2 SLOAD DUP2 PUSH20 0xFFFFFFFFFFFFFFFFFFFFFFFFFFFFFFFFFFFFFFFF MUL NOT AND SWAP1 DUP4 PUSH20 0xFFFFFFFFFFFFFFFFFFFFFFFFFFFFFFFFFFFFFFFF AND MUL OR SWAP1 SSTORE POP PUSH2 0x1171 PUSH8 0x10B5BBD61B9D3B1D PUSH1 0xC0 SHL PUSH2 0x2134 JUMP JUMPDEST PUSH2 0x1185 PUSH8 0xE924A2FAE6C0615E PUSH1 0xC0 SHL PUSH2 0x2134 JUMP JUMPDEST PUSH2 0x1199 PUSH8 0xDE3619C0D6ECC4A5 PUSH1 0xC0 SHL PUSH2 0x2134 JUMP JUMPDEST PUSH2 0x11A1 PUSH2 0x135F JUMP JUMPDEST PUSH20 0xFFFFFFFFFFFFFFFFFFFFFFFFFFFFFFFFFFFFFFFF AND PUSH1 0xCA PUSH1 0x0 SWAP1 SLOAD SWAP1 PUSH2 0x100 EXP SWAP1 DIV PUSH20 0xFFFFFFFFFFFFFFFFFFFFFFFFFFFFFFFFFFFFFFFF AND PUSH20 0xFFFFFFFFFFFFFFFFFFFFFFFFFFFFFFFFFFFFFFFF AND PUSH4 0x6352211E DUP8 PUSH1 0x40 MLOAD DUP3 PUSH4 0xFFFFFFFF AND PUSH1 0xE0 SHL DUP2 MSTORE PUSH1 0x4 ADD PUSH2 0x1212 SWAP2 SWAP1 PUSH2 0x28C2 JUMP JUMPDEST PUSH1 0x20 PUSH1 0x40 MLOAD DUP1 DUP4 SUB DUP2 DUP7 GAS STATICCALL ISZERO DUP1 ISZERO PUSH2 0x122F JUMPI RETURNDATASIZE PUSH1 0x0 DUP1 RETURNDATACOPY RETURNDATASIZE PUSH1 0x0 REVERT JUMPDEST POP POP POP POP PUSH1 0x40 MLOAD RETURNDATASIZE PUSH1 0x1F NOT PUSH1 0x1F DUP3 ADD AND DUP3 ADD DUP1 PUSH1 0x40 MSTORE POP DUP2 ADD SWAP1 PUSH2 0x1253 SWAP2 SWAP1 PUSH2 0x35B8 JUMP JUMPDEST PUSH20 0xFFFFFFFFFFFFFFFFFFFFFFFFFFFFFFFFFFFFFFFF AND EQ PUSH2 0x12A9 JUMPI PUSH1 0x40 MLOAD PUSH32 0x8C379A000000000000000000000000000000000000000000000000000000000 DUP2 MSTORE PUSH1 0x4 ADD PUSH2 0x12A0 SWAP1 PUSH2 0x3657 JUMP JUMPDEST PUSH1 0x40 MLOAD DUP1 SWAP2 SUB SWAP1 REVERT JUMPDEST PUSH2 0x12BD PUSH8 0x506FBD1B9C96709 PUSH1 0xC0 SHL PUSH2 0x2134 JUMP JUMPDEST DUP1 ISZERO PUSH2 0x1316 JUMPI PUSH1 0x0 DUP1 PUSH1 0x1 PUSH2 0x100 EXP DUP2 SLOAD DUP2 PUSH1 0xFF MUL NOT AND SWAP1 DUP4 ISZERO ISZERO MUL OR SWAP1 SSTORE POP PUSH32 0x7F26B83FF96E1F2B6A682F133852F6798A09C465DA95921460CEFB3847402498 PUSH1 0x1 PUSH1 0x40 MLOAD PUSH2 0x130D SWAP2 SWAP1 PUSH2 0x36BF JUMP JUMPDEST PUSH1 0x40 MLOAD DUP1 SWAP2 SUB SWAP1 LOG1 JUMPDEST POP POP POP POP POP POP POP POP JUMP JUMPDEST PUSH1 0xCC SLOAD DUP2 JUMP JUMPDEST PUSH1 0xD1 PUSH1 0x0 SWAP1 SLOAD SWAP1 PUSH2 0x100 EXP SWAP1 DIV PUSH1 0xFF AND DUP2 JUMP JUMPDEST PUSH1 0xC9 PUSH1 0x0 SWAP1 SLOAD SWAP1 PUSH2 0x100 EXP SWAP1 DIV PUSH20 0xFFFFFFFFFFFFFFFFFFFFFFFFFFFFFFFFFFFFFFFF AND DUP2 JUMP JUMPDEST PUSH1 0x0 PUSH1 0x33 PUSH1 0x0 SWAP1 SLOAD SWAP1 PUSH2 0x100 EXP SWAP1 DIV PUSH20 0xFFFFFFFFFFFFFFFFFFFFFFFFFFFFFFFFFFFFFFFF AND SWAP1 POP SWAP1 JUMP JUMPDEST PUSH1 0xD3 PUSH1 0x0 SWAP1 SLOAD SWAP1 PUSH2 0x100 EXP SWAP1 DIV PUSH20 0xFFFFFFFFFFFFFFFFFFFFFFFFFFFFFFFFFFFFFFFF AND DUP2 JUMP JUMPDEST PUSH2 0x13C3 PUSH8 0xD2548C98FD33CB5E PUSH1 0xC0 SHL PUSH2 0x2134 JUMP JUMPDEST PUSH2 0x13D7 PUSH8 0x7E552A2DDCE62578 PUSH1 0xC0 SHL PUSH2 0x2134 JUMP JUMPDEST PUSH2 0x13EB PUSH8 0xE1E91A4D85127C92 PUSH1 0xC0 SHL PUSH2 0x2134 JUMP JUMPDEST PUSH2 0x13FF PUSH8 0x68212CC10057BB9E PUSH1 0xC0 SHL PUSH2 0x2134 JUMP JUMPDEST PUSH1 0x0 DUP2 GT PUSH2 0x1442 JUMPI PUSH1 0x40 MLOAD PUSH32 0x8C379A000000000000000000000000000000000000000000000000000000000 DUP2 MSTORE PUSH1 0x4 ADD PUSH2 0x1439 SWAP1 PUSH2 0x374C JUMP JUMPDEST PUSH1 0x40 MLOAD DUP1 SWAP2 SUB SWAP1 REVERT JUMPDEST PUSH2 0x1456 PUSH8 0x77206CC8EBA502BE PUSH1 0xC0 SHL PUSH2 0x2134 JUMP JUMPDEST PUSH2 0x146A PUSH8 0x7F40F83315A2CD9F PUSH1 0xC0 SHL PUSH2 0x2134 JUMP JUMPDEST PUSH2 0x147E PUSH8 0x8F0A8DBBB3378D27 PUSH1 0xC0 SHL PUSH2 0x2134 JUMP JUMPDEST PUSH2 0x1492 PUSH8 0x2526B130317E55E5 PUSH1 0xC0 SHL PUSH2 0x2134 JUMP JUMPDEST PUSH1 0xD1 PUSH1 0x0 SWAP1 SLOAD SWAP1 PUSH2 0x100 EXP SWAP1 DIV PUSH1 0xFF AND ISZERO PUSH2 0x14E2 JUMPI PUSH1 0x40 MLOAD PUSH32 0x8C379A000000000000000000000000000000000000000000000000000000000 DUP2 MSTORE PUSH1 0x4 ADD PUSH2 0x14D9 SWAP1 PUSH2 0x37B8 JUMP JUMPDEST PUSH1 0x40 MLOAD DUP1 SWAP2 SUB SWAP1 REVERT JUMPDEST PUSH2 0x14F6 PUSH8 0x69F0FCAAD4B5DF5A PUSH1 0xC0 SHL PUSH2 0x2134 JUMP JUMPDEST PUSH2 0x150A PUSH8 0x4E788535C70B6B7C PUSH1 0xC0 SHL PUSH2 0x2134 JUMP JUMPDEST PUSH2 0x151E PUSH8 0xF8FAE08F2442AAFD PUSH1 0xC0 SHL PUSH2 0x2134 JUMP JUMPDEST PUSH1 0xC9 PUSH1 0x0 SWAP1 SLOAD SWAP1 PUSH2 0x100 EXP SWAP1 DIV PUSH20 0xFFFFFFFFFFFFFFFFFFFFFFFFFFFFFFFFFFFFFFFF AND PUSH20 0xFFFFFFFFFFFFFFFFFFFFFFFFFFFFFFFFFFFFFFFF AND PUSH4 0x23B872DD CALLER ADDRESS DUP5 PUSH1 0x40 MLOAD DUP5 PUSH4 0xFFFFFFFF AND PUSH1 0xE0 SHL DUP2 MSTORE PUSH1 0x4 ADD PUSH2 0x157D SWAP4 SWAP3 SWAP2 SWAP1 PUSH2 0x37D8 JUMP JUMPDEST PUSH1 0x20 PUSH1 0x40 MLOAD DUP1 DUP4 SUB DUP2 PUSH1 0x0 DUP8 GAS CALL ISZERO DUP1 ISZERO PUSH2 0x159C JUMPI RETURNDATASIZE PUSH1 0x0 DUP1 RETURNDATACOPY RETURNDATASIZE PUSH1 0x0 REVERT JUMPDEST POP POP POP POP PUSH1 0x40 MLOAD RETURNDATASIZE PUSH1 0x1F NOT PUSH1 0x1F DUP3 ADD AND DUP3 ADD DUP1 PUSH1 0x40 MSTORE POP DUP2 ADD SWAP1 PUSH2 0x15C0 SWAP2 SWAP1 PUSH2 0x305A JUMP JUMPDEST POP PUSH2 0x15D5 PUSH8 0x362582B030B511CE PUSH1 0xC0 SHL PUSH2 0x2134 JUMP JUMPDEST PUSH2 0x15E9 PUSH8 0xC5C5719AC6AB327A PUSH1 0xC0 SHL PUSH2 0x2134 JUMP JUMPDEST PUSH1 0xD4 SLOAD DUP2 GT ISZERO PUSH2 0x176A JUMPI PUSH2 0x1607 PUSH8 0x19135E7223F2C39D PUSH1 0xC0 SHL PUSH2 0x2134 JUMP JUMPDEST PUSH2 0x161B PUSH8 0x741730DEE68D312E PUSH1 0xC0 SHL PUSH2 0x2134 JUMP JUMPDEST PUSH2 0x162F PUSH8 0xB0592E40CE88AA9B PUSH1 0xC0 SHL PUSH2 0x2134 JUMP JUMPDEST PUSH1 0x0 PUSH1 0xD4 SLOAD EQ PUSH2 0x16E0 JUMPI PUSH2 0x164D PUSH8 0xD2D7399DD2CF9C13 PUSH1 0xC0 SHL PUSH2 0x2134 JUMP JUMPDEST PUSH2 0x1661 PUSH8 0xF63D16E7EDDC1C6B PUSH1 0xC0 SHL PUSH2 0x2134 JUMP JUMPDEST PUSH1 0xD4 SLOAD PUSH1 0xD2 PUSH1 0x0 PUSH1 0xD3 PUSH1 0x0 SWAP1 SLOAD SWAP1 PUSH2 0x100 EXP SWAP1 DIV PUSH20 0xFFFFFFFFFFFFFFFFFFFFFFFFFFFFFFFFFFFFFFFF AND PUSH20 0xFFFFFFFFFFFFFFFFFFFFFFFFFFFFFFFFFFFFFFFF AND PUSH20 0xFFFFFFFFFFFFFFFFFFFFFFFFFFFFFFFFFFFFFFFF AND DUP2 MSTORE PUSH1 0x20 ADD SWAP1 DUP2 MSTORE PUSH1 0x20 ADD PUSH1 0x0 KECCAK256 PUSH1 0x0 DUP3 DUP3 SLOAD PUSH2 0x16D4 SWAP2 SWAP1 PUSH2 0x383E JUMP JUMPDEST SWAP3 POP POP DUP2 SWAP1 SSTORE POP PUSH2 0x16F5 JUMP JUMPDEST PUSH2 0x16F4 PUSH8 0x959FA68ECF16F0AD PUSH1 0xC0 SHL PUSH2 0x2134 JUMP JUMPDEST JUMPDEST PUSH2 0x1709 PUSH8 0xCCB20CB4318731C0 PUSH1 0xC0 SHL PUSH2 0x2134 JUMP JUMPDEST CALLER PUSH1 0xD3 PUSH1 0x0 PUSH2 0x100 EXP DUP2 SLOAD DUP2 PUSH20 0xFFFFFFFFFFFFFFFFFFFFFFFFFFFFFFFFFFFFFFFF MUL NOT AND SWAP1 DUP4 PUSH20 0xFFFFFFFFFFFFFFFFFFFFFFFFFFFFFFFFFFFFFFFF AND MUL OR SWAP1 SSTORE POP PUSH2 0x175E PUSH8 0x878701E2A6E01E8C PUSH1 0xC0 SHL PUSH2 0x2134 JUMP JUMPDEST DUP1 PUSH1 0xD4 DUP2 SWAP1 SSTORE POP PUSH2 0x17E9 JUMP JUMPDEST PUSH2 0x177E PUSH8 0xED4F45CC5B26D4A7 PUSH1 0xC0 SHL PUSH2 0x2134 JUMP JUMPDEST PUSH2 0x1792 PUSH8 0xFD8AF99D46E406D7 PUSH1 0xC0 SHL PUSH2 0x2134 JUMP JUMPDEST DUP1 PUSH1 0xD2 PUSH1 0x0 CALLER PUSH20 0xFFFFFFFFFFFFFFFFFFFFFFFFFFFFFFFFFFFFFFFF AND PUSH20 0xFFFFFFFFFFFFFFFFFFFFFFFFFFFFFFFFFFFFFFFF AND DUP2 MSTORE PUSH1 0x20 ADD SWAP1 DUP2 MSTORE PUSH1 0x20 ADD PUSH1 0x0 KECCAK256 PUSH1 0x0 DUP3 DUP3 SLOAD PUSH2 0x17E1 SWAP2 SWAP1 PUSH2 0x383E JUMP JUMPDEST SWAP3 POP POP DUP2 SWAP1 SSTORE POP JUMPDEST PUSH2 0x17FD PUSH8 0xB8FFC309F8E6C2D8 PUSH1 0xC0 SHL PUSH2 0x2134 JUMP JUMPDEST PUSH2 0x1811 PUSH8 0xA5AE1F09F19565D7 PUSH1 0xC0 SHL PUSH2 0x2134 JUMP JUMPDEST CALLER PUSH20 0xFFFFFFFFFFFFFFFFFFFFFFFFFFFFFFFFFFFFFFFF AND PUSH32 0x3FABFF0A9C3ECD6814702E247FA9733E5D0AA69E3A38590F92CB18F623A2254D DUP3 PUSH1 0x40 MLOAD PUSH2 0x1857 SWAP2 SWAP1 PUSH2 0x28C2 JUMP JUMPDEST PUSH1 0x40 MLOAD DUP1 SWAP2 SUB SWAP1 LOG2 PUSH2 0x1873 PUSH8 0xF3F8EBD5E25DCCE9 PUSH1 0xC0 SHL PUSH2 0x2134 JUMP JUMPDEST PUSH2 0x1887 PUSH8 0x701101AD141CDEFB PUSH1 0xC0 SHL PUSH2 0x2134 JUMP JUMPDEST PUSH1 0xD0 SLOAD DUP2 LT PUSH2 0x18D9 JUMPI PUSH2 0x18A4 PUSH8 0xE3A735317AE1CD82 PUSH1 0xC0 SHL PUSH2 0x2134 JUMP JUMPDEST PUSH2 0x18B8 PUSH8 0x47554A97CA9A39D5 PUSH1 0xC0 SHL PUSH2 0x2134 JUMP JUMPDEST PUSH2 0x18CC PUSH8 0x5DB9DD434FFC6E7C PUSH1 0xC0 SHL PUSH2 0x2134 JUMP JUMPDEST PUSH2 0x18D4 PUSH2 0x1B0E JUMP JUMPDEST PUSH2 0x18EE JUMP JUMPDEST PUSH2 0x18ED PUSH8 0xAFA9A6FB91B5C1DE PUSH1 0xC0 SHL PUSH2 0x2134 JUMP JUMPDEST JUMPDEST POP JUMP JUMPDEST PUSH1 0x60 PUSH2 0x1907 PUSH8 0x4E1636C347529599 PUSH1 0xC0 SHL PUSH2 0x2134 JUMP JUMPDEST PUSH2 0x191B PUSH8 0x704DB32B1FA93CAA PUSH1 0xC0 SHL PUSH2 0x2134 JUMP JUMPDEST PUSH2 0x192F PUSH8 0xB2A626D173B6C427 PUSH1 0xC0 SHL PUSH2 0x2134 JUMP JUMPDEST PUSH1 0xD6 DUP1 SLOAD PUSH2 0x193C SWAP1 PUSH2 0x32FE JUMP JUMPDEST DUP1 PUSH1 0x1F ADD PUSH1 0x20 DUP1 SWAP2 DIV MUL PUSH1 0x20 ADD PUSH1 0x40 MLOAD SWAP1 DUP2 ADD PUSH1 0x40 MSTORE DUP1 SWAP3 SWAP2 SWAP1 DUP2 DUP2 MSTORE PUSH1 0x20 ADD DUP3 DUP1 SLOAD PUSH2 0x1968 SWAP1 PUSH2 0x32FE JUMP JUMPDEST DUP1 ISZERO PUSH2 0x19B5 JUMPI DUP1 PUSH1 0x1F LT PUSH2 0x198A JUMPI PUSH2 0x100 DUP1 DUP4 SLOAD DIV MUL DUP4 MSTORE SWAP2 PUSH1 0x20 ADD SWAP2 PUSH2 0x19B5 JUMP JUMPDEST DUP3 ADD SWAP2 SWAP1 PUSH1 0x0 MSTORE PUSH1 0x20 PUSH1 0x0 KECCAK256 SWAP1 JUMPDEST DUP2 SLOAD DUP2 MSTORE SWAP1 PUSH1 0x1 ADD SWAP1 PUSH1 0x20 ADD DUP1 DUP4 GT PUSH2 0x1998 JUMPI DUP3 SWAP1 SUB PUSH1 0x1F AND DUP3 ADD SWAP2 JUMPDEST POP POP POP POP POP SWAP1 POP SWAP1 JUMP JUMPDEST PUSH1 0xCF SLOAD DUP2 JUMP JUMPDEST PUSH1 0xD4 SLOAD DUP2 JUMP JUMPDEST PUSH1 0xCD SLOAD DUP2 JUMP JUMPDEST PUSH1 0xCB PUSH1 0x0 SWAP1 SLOAD SWAP1 PUSH2 0x100 EXP SWAP1 DIV PUSH20 0xFFFFFFFFFFFFFFFFFFFFFFFFFFFFFFFFFFFFFFFF AND DUP2 JUMP JUMPDEST PUSH1 0xD5 SLOAD DUP2 JUMP JUMPDEST PUSH1 0xD6 DUP1 SLOAD PUSH2 0x1A0A SWAP1 PUSH2 0x32FE JUMP JUMPDEST DUP1 PUSH1 0x1F ADD PUSH1 0x20 DUP1 SWAP2 DIV MUL PUSH1 0x20 ADD PUSH1 0x40 MLOAD SWAP1 DUP2 ADD PUSH1 0x40 MSTORE DUP1 SWAP3 SWAP2 SWAP1 DUP2 DUP2 MSTORE PUSH1 0x20 ADD DUP3 DUP1 SLOAD PUSH2 0x1A36 SWAP1 PUSH2 0x32FE JUMP JUMPDEST DUP1 ISZERO PUSH2 0x1A83 JUMPI DUP1 PUSH1 0x1F LT PUSH2 0x1A58 JUMPI PUSH2 0x100 DUP1 DUP4 SLOAD DIV MUL DUP4 MSTORE SWAP2 PUSH1 0x20 ADD SWAP2 PUSH2 0x1A83 JUMP JUMPDEST DUP3 ADD SWAP2 SWAP1 PUSH1 0x0 MSTORE PUSH1 0x20 PUSH1 0x0 KECCAK256 SWAP1 JUMPDEST DUP2 SLOAD DUP2 MSTORE SWAP1 PUSH1 0x1 ADD SWAP1 PUSH1 0x20 ADD DUP1 DUP4 GT PUSH2 0x1A66 JUMPI DUP3 SWAP1 SUB PUSH1 0x1F AND DUP3 ADD SWAP2 JUMPDEST POP POP POP POP POP DUP2 JUMP JUMPDEST PUSH2 0x1A93 PUSH2 0x2343 JUMP JUMPDEST PUSH1 0x0 PUSH20 0xFFFFFFFFFFFFFFFFFFFFFFFFFFFFFFFFFFFFFFFF AND DUP2 PUSH20 0xFFFFFFFFFFFFFFFFFFFFFFFFFFFFFFFFFFFFFFFF AND SUB PUSH2 0x1B02 JUMPI PUSH1 0x40 MLOAD PUSH32 0x8C379A000000000000000000000000000000000000000000000000000000000 DUP2 MSTORE PUSH1 0x4 ADD PUSH2 0x1AF9 SWAP1 PUSH2 0x38E4 JUMP JUMPDEST PUSH1 0x40 MLOAD DUP1 SWAP2 SUB SWAP1 REVERT JUMPDEST PUSH2 0x1B0B DUP2 PUSH2 0x23C1 JUMP JUMPDEST POP JUMP JUMPDEST PUSH2 0x1B22 PUSH8 0x969140FE9588C531 PUSH1 0xC0 SHL PUSH2 0x2134 JUMP JUMPDEST PUSH2 0x1B36 PUSH8 0x86925C7737D6C939 PUSH1 0xC0 SHL PUSH2 0x2134 JUMP JUMPDEST PUSH2 0x1B4A PUSH8 0xF007A81A8229C13A PUSH1 0xC0 SHL PUSH2 0x2134 JUMP JUMPDEST PUSH2 0x1B5E PUSH8 0x20A79D587A3FA0DC PUSH1 0xC0 SHL PUSH2 0x2134 JUMP JUMPDEST PUSH1 0xD1 PUSH1 0x0 SWAP1 SLOAD SWAP1 PUSH2 0x100 EXP SWAP1 DIV PUSH1 0xFF AND ISZERO PUSH2 0x1BAE JUMPI PUSH1 0x40 MLOAD PUSH32 0x8C379A000000000000000000000000000000000000000000000000000000000 DUP2 MSTORE PUSH1 0x4 ADD PUSH2 0x1BA5 SWAP1 PUSH2 0x37B8 JUMP JUMPDEST PUSH1 0x40 MLOAD DUP1 SWAP2 SUB SWAP1 REVERT JUMPDEST PUSH2 0x1BC2 PUSH8 0x7D1464C36565F8ED PUSH1 0xC0 SHL PUSH2 0x2134 JUMP JUMPDEST PUSH2 0x1BD6 PUSH8 0x399D2F419CABF933 PUSH1 0xC0 SHL PUSH2 0x2134 JUMP JUMPDEST PUSH1 0x1 PUSH1 0xD1 PUSH1 0x0 PUSH2 0x100 EXP DUP2 SLOAD DUP2 PUSH1 0xFF MUL NOT AND SWAP1 DUP4 ISZERO ISZERO MUL OR SWAP1 SSTORE POP PUSH2 0x1C05 PUSH8 0x3175D845E3D0C849 PUSH1 0xC0 SHL PUSH2 0x2134 JUMP JUMPDEST PUSH1 0x1 PUSH1 0xD1 PUSH1 0x1 PUSH2 0x100 EXP DUP2 SLOAD DUP2 PUSH1 0xFF MUL NOT AND SWAP1 DUP4 ISZERO ISZERO MUL OR SWAP1 SSTORE POP PUSH2 0x1C34 PUSH8 0xB8CACB7BB8EF875B PUSH1 0xC0 SHL PUSH2 0x2134 JUMP JUMPDEST PUSH2 0x1C48 PUSH8 0x492A636BBD8C2EB2 PUSH1 0xC0 SHL PUSH2 0x2134 JUMP JUMPDEST PUSH1 0x0 PUSH20 0xFFFFFFFFFFFFFFFFFFFFFFFFFFFFFFFFFFFFFFFF AND PUSH1 0xD3 PUSH1 0x0 SWAP1 SLOAD SWAP1 PUSH2 0x100 EXP SWAP1 DIV PUSH20 0xFFFFFFFFFFFFFFFFFFFFFFFFFFFFFFFFFFFFFFFF AND PUSH20 0xFFFFFFFFFFFFFFFFFFFFFFFFFFFFFFFFFFFFFFFF AND EQ PUSH2 0x1F46 JUMPI PUSH2 0x1CB2 PUSH8 0xDF9CDCAAE86AC027 PUSH1 0xC0 SHL PUSH2 0x2134 JUMP JUMPDEST PUSH2 0x1CC6 PUSH8 0x345DDF17B2DD1AEA PUSH1 0xC0 SHL PUSH2 0x2134 JUMP JUMPDEST PUSH1 0x0 PUSH1 0xD2 PUSH1 0x0 PUSH1 0xD3 PUSH1 0x0 SWAP1 SLOAD SWAP1 PUSH2 0x100 EXP SWAP1 DIV PUSH20 0xFFFFFFFFFFFFFFFFFFFFFFFFFFFFFFFFFFFFFFFF AND PUSH20 0xFFFFFFFFFFFFFFFFFFFFFFFFFFFFFFFFFFFFFFFF AND PUSH20 0xFFFFFFFFFFFFFFFFFFFFFFFFFFFFFFFFFFFFFFFF AND DUP2 MSTORE PUSH1 0x20 ADD SWAP1 DUP2 MSTORE PUSH1 0x20 ADD PUSH1 0x0 KECCAK256 DUP2 SWAP1 SSTORE POP PUSH2 0x1D41 PUSH8 0xAF14F2EBB38D6C34 PUSH1 0xC0 SHL PUSH2 0x2134 JUMP JUMPDEST PUSH2 0x1D55 PUSH8 0xBCC0E25EEF3F8193 PUSH1 0xC0 SHL PUSH2 0x2134 JUMP JUMPDEST PUSH1 0xCA PUSH1 0x0 SWAP1 SLOAD SWAP1 PUSH2 0x100 EXP SWAP1 DIV PUSH20 0xFFFFFFFFFFFFFFFFFFFFFFFFFFFFFFFFFFFFFFFF AND PUSH20 0xFFFFFFFFFFFFFFFFFFFFFFFFFFFFFFFFFFFFFFFF AND PUSH4 0x42842E0E PUSH1 0xCA PUSH1 0x0 SWAP1 SLOAD SWAP1 PUSH2 0x100 EXP SWAP1 DIV PUSH20 0xFFFFFFFFFFFFFFFFFFFFFFFFFFFFFFFFFFFFFFFF AND PUSH20 0xFFFFFFFFFFFFFFFFFFFFFFFFFFFFFFFFFFFFFFFF AND PUSH4 0x6352211E PUSH1 0xCC SLOAD PUSH1 0x40 MLOAD DUP3 PUSH4 0xFFFFFFFF AND PUSH1 0xE0 SHL DUP2 MSTORE PUSH1 0x4 ADD PUSH2 0x1DF0 SWAP2 SWAP1 PUSH2 0x28C2 JUMP JUMPDEST PUSH1 0x20 PUSH1 0x40 MLOAD DUP1 DUP4 SUB DUP2 DUP7 GAS STATICCALL ISZERO DUP1 ISZERO PUSH2 0x1E0D JUMPI RETURNDATASIZE PUSH1 0x0 DUP1 RETURNDATACOPY RETURNDATASIZE PUSH1 0x0 REVERT JUMPDEST POP POP POP POP PUSH1 0x40 MLOAD RETURNDATASIZE PUSH1 0x1F NOT PUSH1 0x1F DUP3 ADD AND DUP3 ADD DUP1 PUSH1 0x40 MSTORE POP DUP2 ADD SWAP1 PUSH2 0x1E31 SWAP2 SWAP1 PUSH2 0x35B8 JUMP JUMPDEST PUSH1 0xD3 PUSH1 0x0 SWAP1 SLOAD SWAP1 PUSH2 0x100 EXP SWAP1 DIV PUSH20 0xFFFFFFFFFFFFFFFFFFFFFFFFFFFFFFFFFFFFFFFF AND PUSH1 0xCC SLOAD PUSH1 0x40 MLOAD DUP5 PUSH4 0xFFFFFFFF AND PUSH1 0xE0 SHL DUP2 MSTORE PUSH1 0x4 ADD PUSH2 0x1E75 SWAP4 SWAP3 SWAP2 SWAP1 PUSH2 0x37D8 JUMP JUMPDEST PUSH1 0x0 PUSH1 0x40 MLOAD DUP1 DUP4 SUB DUP2 PUSH1 0x0 DUP8 DUP1 EXTCODESIZE ISZERO DUP1 ISZERO PUSH2 0x1E8F JUMPI PUSH1 0x0 DUP1 REVERT JUMPDEST POP GAS CALL ISZERO DUP1 ISZERO PUSH2 0x1EA3 JUMPI RETURNDATASIZE PUSH1 0x0 DUP1 RETURNDATACOPY RETURNDATASIZE PUSH1 0x0 REVERT JUMPDEST POP POP POP POP PUSH2 0x1EBB PUSH8 0x600AF87A7656E1CA PUSH1 0xC0 SHL PUSH2 0x2134 JUMP JUMPDEST PUSH2 0x1ECF PUSH8 0x6D5F0B086387B49C PUSH1 0xC0 SHL PUSH2 0x2134 JUMP JUMPDEST PUSH1 0xD3 PUSH1 0x0 SWAP1 SLOAD SWAP1 PUSH2 0x100 EXP SWAP1 DIV PUSH20 0xFFFFFFFFFFFFFFFFFFFFFFFFFFFFFFFFFFFFFFFF AND PUSH20 0xFFFFFFFFFFFFFFFFFFFFFFFFFFFFFFFFFFFFFFFF AND PUSH32 0xDAEC4582D5D9595688C8C98545FDD1C696D41C6AEAEB636737E84ED2F5C00EDA PUSH1 0xD4 SLOAD PUSH1 0x40 MLOAD PUSH2 0x1F39 SWAP2 SWAP1 PUSH2 0x28C2 JUMP JUMPDEST PUSH1 0x40 MLOAD DUP1 SWAP2 SUB SWAP1 LOG2 PUSH2 0x2132 JUMP JUMPDEST PUSH2 0x1F5A PUSH8 0xDDC5FE701654A265 PUSH1 0xC0 SHL PUSH2 0x2134 JUMP JUMPDEST PUSH2 0x1F6E PUSH8 0xC48ACC0A08E73CB3 PUSH1 0xC0 SHL PUSH2 0x2134 JUMP JUMPDEST PUSH2 0x1F82 PUSH8 0x9A17A882D23EBB29 PUSH1 0xC0 SHL PUSH2 0x2134 JUMP JUMPDEST PUSH1 0xCA PUSH1 0x0 SWAP1 SLOAD SWAP1 PUSH2 0x100 EXP SWAP1 DIV PUSH20 0xFFFFFFFFFFFFFFFFFFFFFFFFFFFFFFFFFFFFFFFF AND PUSH20 0xFFFFFFFFFFFFFFFFFFFFFFFFFFFFFFFFFFFFFFFF AND PUSH4 0x42842E0E PUSH1 0xCA PUSH1 0x0 SWAP1 SLOAD SWAP1 PUSH2 0x100 EXP SWAP1 DIV PUSH20 0xFFFFFFFFFFFFFFFFFFFFFFFFFFFFFFFFFFFFFFFF AND PUSH20 0xFFFFFFFFFFFFFFFFFFFFFFFFFFFFFFFFFFFFFFFF AND PUSH4 0x6352211E PUSH1 0xCC SLOAD PUSH1 0x40 MLOAD DUP3 PUSH4 0xFFFFFFFF AND PUSH1 0xE0 SHL DUP2 MSTORE PUSH1 0x4 ADD PUSH2 0x201D SWAP2 SWAP1 PUSH2 0x28C2 JUMP JUMPDEST PUSH1 0x20 PUSH1 0x40 MLOAD DUP1 DUP4 SUB DUP2 DUP7 GAS STATICCALL ISZERO DUP1 ISZERO PUSH2 0x203A JUMPI RETURNDATASIZE PUSH1 0x0 DUP1 RETURNDATACOPY RETURNDATASIZE PUSH1 0x0 REVERT JUMPDEST POP POP POP POP PUSH1 0x40 MLOAD RETURNDATASIZE PUSH1 0x1F NOT PUSH1 0x1F DUP3 ADD AND DUP3 ADD DUP1 PUSH1 0x40 MSTORE POP DUP2 ADD SWAP1 PUSH2 0x205E SWAP2 SWAP1 PUSH2 0x35B8 JUMP JUMPDEST PUSH2 0x2066 PUSH2 0x135F JUMP JUMPDEST PUSH1 0xCC SLOAD PUSH1 0x40 MLOAD DUP5 PUSH4 0xFFFFFFFF AND PUSH1 0xE0 SHL DUP2 MSTORE PUSH1 0x4 ADD PUSH2 0x2087 SWAP4 SWAP3 SWAP2 SWAP1 PUSH2 0x37D8 JUMP JUMPDEST PUSH1 0x0 PUSH1 0x40 MLOAD DUP1 DUP4 SUB DUP2 PUSH1 0x0 DUP8 DUP1 EXTCODESIZE ISZERO DUP1 ISZERO PUSH2 0x20A1 JUMPI PUSH1 0x0 DUP1 REVERT JUMPDEST POP GAS CALL ISZERO DUP1 ISZERO PUSH2 0x20B5 JUMPI RETURNDATASIZE PUSH1 0x0 DUP1 RETURNDATACOPY RETURNDATASIZE PUSH1 0x0 REVERT JUMPDEST POP POP POP POP PUSH2 0x20CD PUSH8 0x2D42877DE5CE64DF PUSH1 0xC0 SHL PUSH2 0x2134 JUMP JUMPDEST PUSH2 0x20E1 PUSH8 0xE359F7FB02CE85E8 PUSH1 0xC0 SHL PUSH2 0x2134 JUMP JUMPDEST PUSH1 0x0 PUSH20 0xFFFFFFFFFFFFFFFFFFFFFFFFFFFFFFFFFFFFFFFF AND PUSH32 0xDAEC4582D5D9595688C8C98545FDD1C696D41C6AEAEB636737E84ED2F5C00EDA PUSH1 0x0 PUSH1 0x40 MLOAD PUSH2 0x2129 SWAP2 SWAP1 PUSH2 0x393F JUMP JUMPDEST PUSH1 0x40 MLOAD DUP1 SWAP2 SUB SWAP1 LOG2 JUMPDEST JUMP JUMPDEST POP JUMP JUMPDEST PUSH1 0x0 PUSH2 0x2165 PUSH32 0x360894A13BA1A3210667C828492DB98DCA3E2076CC3735A920A3CA505D382BBC PUSH1 0x0 SHL PUSH2 0x2580 JUMP JUMPDEST PUSH1 0x0 ADD PUSH1 0x0 SWAP1 SLOAD SWAP1 PUSH2 0x100 EXP SWAP1 DIV PUSH20 0xFFFFFFFFFFFFFFFFFFFFFFFFFFFFFFFFFFFFFFFF AND SWAP1 POP SWAP1 JUMP JUMPDEST PUSH2 0x21A2 PUSH8 0x51642ABAE11D80D PUSH1 0xC0 SHL PUSH2 0x2134 JUMP JUMPDEST PUSH2 0x21AA PUSH2 0x2343 JUMP JUMPDEST PUSH2 0x21BE PUSH8 0x1B17AC6ADA6D3000 PUSH1 0xC0 SHL PUSH2 0x2134 JUMP JUMPDEST PUSH2 0x21D2 PUSH8 0xFA68A0F7AEC9ED15 PUSH1 0xC0 SHL PUSH2 0x2134 JUMP JUMPDEST POP JUMP JUMPDEST PUSH2 0x2201 PUSH32 0x4910FDFA16FED3260ED0E7147F7CC6DA11A60208B5B9406D12A635614FFD9143 PUSH1 0x0 SHL PUSH2 0x258A JUMP JUMPDEST PUSH1 0x0 ADD PUSH1 0x0 SWAP1 SLOAD SWAP1 PUSH2 0x100 EXP SWAP1 DIV PUSH1 0xFF AND ISZERO PUSH2 0x2225 JUMPI PUSH2 0x2220 DUP4 PUSH2 0x2594 JUMP JUMPDEST PUSH2 0x233E JUMP JUMPDEST DUP3 PUSH20 0xFFFFFFFFFFFFFFFFFFFFFFFFFFFFFFFFFFFFFFFF AND PUSH4 0x52D1902D PUSH1 0x40 MLOAD DUP2 PUSH4 0xFFFFFFFF AND PUSH1 0xE0 SHL DUP2 MSTORE PUSH1 0x4 ADD PUSH1 0x20 PUSH1 0x40 MLOAD DUP1 DUP4 SUB DUP2 DUP7 GAS STATICCALL SWAP3 POP POP POP DUP1 ISZERO PUSH2 0x228D JUMPI POP PUSH1 0x40 MLOAD RETURNDATASIZE PUSH1 0x1F NOT PUSH1 0x1F DUP3 ADD AND DUP3 ADD DUP1 PUSH1 0x40 MSTORE POP DUP2 ADD SWAP1 PUSH2 0x228A SWAP2 SWAP1 PUSH2 0x3986 JUMP JUMPDEST PUSH1 0x1 JUMPDEST PUSH2 0x22CC JUMPI PUSH1 0x40 MLOAD PUSH32 0x8C379A000000000000000000000000000000000000000000000000000000000 DUP2 MSTORE PUSH1 0x4 ADD PUSH2 0x22C3 SWAP1 PUSH2 0x3A25 JUMP JUMPDEST PUSH1 0x40 MLOAD DUP1 SWAP2 SUB SWAP1 REVERT JUMPDEST PUSH32 0x360894A13BA1A3210667C828492DB98DCA3E2076CC3735A920A3CA505D382BBC PUSH1 0x0 SHL DUP2 EQ PUSH2 0x2331 JUMPI PUSH1 0x40 MLOAD PUSH32 0x8C379A000000000000000000000000000000000000000000000000000000000 DUP2 MSTORE PUSH1 0x4 ADD PUSH2 0x2328 SWAP1 PUSH2 0x3AB7 JUMP JUMPDEST PUSH1 0x40 MLOAD DUP1 SWAP2 SUB SWAP1 REVERT JUMPDEST POP PUSH2 0x233D DUP4 DUP4 DUP4 PUSH2 0x264D JUMP JUMPDEST JUMPDEST POP POP POP JUMP JUMPDEST PUSH2 0x234B PUSH2 0x2679 JUMP JUMPDEST PUSH20 0xFFFFFFFFFFFFFFFFFFFFFFFFFFFFFFFFFFFFFFFF AND PUSH2 0x2369 PUSH2 0x135F JUMP JUMPDEST PUSH20 0xFFFFFFFFFFFFFFFFFFFFFFFFFFFFFFFFFFFFFFFF AND EQ PUSH2 0x23BF JUMPI PUSH1 0x40 MLOAD PUSH32 0x8C379A000000000000000000000000000000000000000000000000000000000 DUP2 MSTORE PUSH1 0x4 ADD PUSH2 0x23B6 SWAP1 PUSH2 0x3B23 JUMP JUMPDEST PUSH1 0x40 MLOAD DUP1 SWAP2 SUB SWAP1 REVERT JUMPDEST JUMP JUMPDEST PUSH1 0x0 PUSH1 0x33 PUSH1 0x0 SWAP1 SLOAD SWAP1 PUSH2 0x100 EXP SWAP1 DIV PUSH20 0xFFFFFFFFFFFFFFFFFFFFFFFFFFFFFFFFFFFFFFFF AND SWAP1 POP DUP2 PUSH1 0x33 PUSH1 0x0 PUSH2 0x100 EXP DUP2 SLOAD DUP2 PUSH20 0xFFFFFFFFFFFFFFFFFFFFFFFFFFFFFFFFFFFFFFFF MUL NOT AND SWAP1 DUP4 PUSH20 0xFFFFFFFFFFFFFFFFFFFFFFFFFFFFFFFFFFFFFFFF AND MUL OR SWAP1 SSTORE POP DUP2 PUSH20 0xFFFFFFFFFFFFFFFFFFFFFFFFFFFFFFFFFFFFFFFF AND DUP2 PUSH20 0xFFFFFFFFFFFFFFFFFFFFFFFFFFFFFFFFFFFFFFFF AND PUSH32 0x8BE0079C531659141344CD1FD0A4F28419497F9722A3DAAFE3B4186F6B6457E0 PUSH1 0x40 MLOAD PUSH1 0x40 MLOAD DUP1 SWAP2 SUB SWAP1 LOG3 POP POP JUMP JUMPDEST PUSH1 0x0 DUP1 DUP3 PUSH20 0xFFFFFFFFFFFFFFFFFFFFFFFFFFFFFFFFFFFFFFFF AND EXTCODESIZE GT SWAP1 POP SWAP2 SWAP1 POP JUMP JUMPDEST PUSH1 0x0 PUSH1 0x1 SWAP1 SLOAD SWAP1 PUSH2 0x100 EXP SWAP1 DIV PUSH1 0xFF AND PUSH2 0x24F9 JUMPI PUSH1 0x40 MLOAD PUSH32 0x8C379A000000000000000000000000000000000000000000000000000000000 DUP2 MSTORE PUSH1 0x4 ADD PUSH2 0x24F0 SWAP1 PUSH2 0x3BB5 JUMP JUMPDEST PUSH1 0x40 MLOAD DUP1 SWAP2 SUB SWAP1 REVERT JUMPDEST PUSH2 0x2501 PUSH2 0x2681 JUMP JUMPDEST JUMP JUMPDEST PUSH1 0x0 PUSH1 0x1 SWAP1 SLOAD SWAP1 PUSH2 0x100 EXP SWAP1 DIV PUSH1 0xFF AND PUSH2 0x2552 JUMPI PUSH1 0x40 MLOAD PUSH32 0x8C379A000000000000000000000000000000000000000000000000000000000 DUP2 MSTORE PUSH1 0x4 ADD PUSH2 0x2549 SWAP1 PUSH2 0x3BB5 JUMP JUMPDEST PUSH1 0x40 MLOAD DUP1 SWAP2 SUB SWAP1 REVERT JUMPDEST JUMP JUMPDEST PUSH1 0x0 DUP2 DUP4 PUSH2 0x2562 SWAP2 SWAP1 PUSH2 0x3BD5 JUMP JUMPDEST SWAP1 POP SWAP3 SWAP2 POP POP JUMP JUMPDEST PUSH1 0x0 DUP2 DUP4 PUSH2 0x2578 SWAP2 SWAP1 PUSH2 0x383E JUMP JUMPDEST SWAP1 POP SWAP3 SWAP2 POP POP JUMP JUMPDEST PUSH1 0x0 DUP2 SWAP1 POP SWAP2 SWAP1 POP JUMP JUMPDEST PUSH1 0x0 DUP2 SWAP1 POP SWAP2 SWAP1 POP JUMP JUMPDEST PUSH2 0x259D DUP2 PUSH2 0x2487 JUMP JUMPDEST PUSH2 0x25DC JUMPI PUSH1 0x40 MLOAD PUSH32 0x8C379A000000000000000000000000000000000000000000000000000000000 DUP2 MSTORE PUSH1 0x4 ADD PUSH2 0x25D3 SWAP1 PUSH2 0x3C89 JUMP JUMPDEST PUSH1 0x40 MLOAD DUP1 SWAP2 SUB SWAP1 REVERT JUMPDEST DUP1 PUSH2 0x2609 PUSH32 0x360894A13BA1A3210667C828492DB98DCA3E2076CC3735A920A3CA505D382BBC PUSH1 0x0 SHL PUSH2 0x2580 JUMP JUMPDEST PUSH1 0x0 ADD PUSH1 0x0 PUSH2 0x100 EXP DUP2 SLOAD DUP2 PUSH20 0xFFFFFFFFFFFFFFFFFFFFFFFFFFFFFFFFFFFFFFFF MUL NOT AND SWAP1 DUP4 PUSH20 0xFFFFFFFFFFFFFFFFFFFFFFFFFFFFFFFFFFFFFFFF AND MUL OR SWAP1 SSTORE POP POP JUMP JUMPDEST PUSH2 0x2656 DUP4 PUSH2 0x26E2 JUMP JUMPDEST PUSH1 0x0 DUP3 MLOAD GT DUP1 PUSH2 0x2663 JUMPI POP DUP1 JUMPDEST ISZERO PUSH2 0x2674 JUMPI PUSH2 0x2672 DUP4 DUP4 PUSH2 0x2731 JUMP JUMPDEST POP JUMPDEST POP POP POP JUMP JUMPDEST PUSH1 0x0 CALLER SWAP1 POP SWAP1 JUMP JUMPDEST PUSH1 0x0 PUSH1 0x1 SWAP1 SLOAD SWAP1 PUSH2 0x100 EXP SWAP1 DIV PUSH1 0xFF AND PUSH2 0x26D0 JUMPI PUSH1 0x40 MLOAD PUSH32 0x8C379A000000000000000000000000000000000000000000000000000000000 DUP2 MSTORE PUSH1 0x4 ADD PUSH2 0x26C7 SWAP1 PUSH2 0x3BB5 JUMP JUMPDEST PUSH1 0x40 MLOAD DUP1 SWAP2 SUB SWAP1 REVERT JUMPDEST PUSH2 0x26E0 PUSH2 0x26DB PUSH2 0x2679 JUMP JUMPDEST PUSH2 0x23C1 JUMP JUMPDEST JUMP JUMPDEST PUSH2 0x26EB DUP2 PUSH2 0x2594 JUMP JUMPDEST DUP1 PUSH20 0xFFFFFFFFFFFFFFFFFFFFFFFFFFFFFFFFFFFFFFFF AND PUSH32 0xBC7CD75A20EE27FD9ADEBAB32041F755214DBC6BFFA90CC0225B39DA2E5C2D3B PUSH1 0x40 MLOAD PUSH1 0x40 MLOAD DUP1 SWAP2 SUB SWAP1 LOG2 POP JUMP JUMPDEST PUSH1 0x60 PUSH2 0x2756 DUP4 DUP4 PUSH1 0x40 MLOAD DUP1 PUSH1 0x60 ADD PUSH1 0x40 MSTORE DUP1 PUSH1 0x27 DUP2 MSTORE PUSH1 0x20 ADD PUSH2 0x3D74 PUSH1 0x27 SWAP2 CODECOPY PUSH2 0x275E JUMP JUMPDEST SWAP1 POP SWAP3 SWAP2 POP POP JUMP JUMPDEST PUSH1 0x60 PUSH1 0x0 DUP1 DUP6 PUSH20 0xFFFFFFFFFFFFFFFFFFFFFFFFFFFFFFFFFFFFFFFF AND DUP6 PUSH1 0x40 MLOAD PUSH2 0x2788 SWAP2 SWAP1 PUSH2 0x3CF0 JUMP JUMPDEST PUSH1 0x0 PUSH1 0x40 MLOAD DUP1 DUP4 SUB DUP2 DUP6 GAS DELEGATECALL SWAP2 POP POP RETURNDATASIZE DUP1 PUSH1 0x0 DUP2 EQ PUSH2 0x27C3 JUMPI PUSH1 0x40 MLOAD SWAP2 POP PUSH1 0x1F NOT PUSH1 0x3F RETURNDATASIZE ADD AND DUP3 ADD PUSH1 0x40 MSTORE RETURNDATASIZE DUP3 MSTORE RETURNDATASIZE PUSH1 0x0 PUSH1 0x20 DUP5 ADD RETURNDATACOPY PUSH2 0x27C8 JUMP JUMPDEST PUSH1 0x60 SWAP2 POP JUMPDEST POP SWAP2 POP SWAP2 POP PUSH2 0x27D9 DUP7 DUP4 DUP4 DUP8 PUSH2 0x27E4 JUMP JUMPDEST SWAP3 POP POP POP SWAP4 SWAP3 POP POP POP JUMP JUMPDEST PUSH1 0x60 DUP4 ISZERO PUSH2 0x2846 JUMPI PUSH1 0x0 DUP4 MLOAD SUB PUSH2 0x283E JUMPI PUSH2 0x27FE DUP6 PUSH2 0x2487 JUMP JUMPDEST PUSH2 0x283D JUMPI PUSH1 0x40 MLOAD PUSH32 0x8C379A000000000000000000000000000000000000000000000000000000000 DUP2 MSTORE PUSH1 0x4 ADD PUSH2 0x2834 SWAP1 PUSH2 0x3D53 JUMP JUMPDEST PUSH1 0x40 MLOAD DUP1 SWAP2 SUB SWAP1 REVERT JUMPDEST JUMPDEST DUP3 SWAP1 POP PUSH2 0x2851 JUMP JUMPDEST PUSH2 0x2850 DUP4 DUP4 PUSH2 0x2859 JUMP JUMPDEST JUMPDEST SWAP5 SWAP4 POP POP POP POP JUMP JUMPDEST PUSH1 0x0 DUP3 MLOAD GT ISZERO PUSH2 0x286C JUMPI DUP2 MLOAD DUP1 DUP4 PUSH1 0x20 ADD REVERT JUMPDEST DUP1 PUSH1 0x40 MLOAD PUSH32 0x8C379A000000000000000000000000000000000000000000000000000000000 DUP2 MSTORE PUSH1 0x4 ADD PUSH2 0x28A0 SWAP2 SWAP1 PUSH2 0x2E9F JUMP JUMPDEST PUSH1 0x40 MLOAD DUP1 SWAP2 SUB SWAP1 REVERT JUMPDEST PUSH1 0x0 DUP2 SWAP1 POP SWAP2 SWAP1 POP JUMP JUMPDEST PUSH2 0x28BC DUP2 PUSH2 0x28A9 JUMP JUMPDEST DUP3 MSTORE POP POP JUMP JUMPDEST PUSH1 0x0 PUSH1 0x20 DUP3 ADD SWAP1 POP PUSH2 0x28D7 PUSH1 0x0 DUP4 ADD DUP5 PUSH2 0x28B3 JUMP JUMPDEST SWAP3 SWAP2 POP POP JUMP JUMPDEST PUSH1 0x0 PUSH1 0x40 MLOAD SWAP1 POP SWAP1 JUMP JUMPDEST PUSH1 0x0 DUP1 REVERT JUMPDEST PUSH1 0x0 DUP1 REVERT JUMPDEST PUSH1 0x0 PUSH20 0xFFFFFFFFFFFFFFFFFFFFFFFFFFFFFFFFFFFFFFFF DUP3 AND SWAP1 POP SWAP2 SWAP1 POP JUMP JUMPDEST PUSH1 0x0 PUSH2 0x291C DUP3 PUSH2 0x28F1 JUMP JUMPDEST SWAP1 POP SWAP2 SWAP1 POP JUMP JUMPDEST PUSH2 0x292C DUP2 PUSH2 0x2911 JUMP JUMPDEST DUP2 EQ PUSH2 0x2937 JUMPI PUSH1 0x0 DUP1 REVERT JUMPDEST POP JUMP JUMPDEST PUSH1 0x0 DUP2 CALLDATALOAD SWAP1 POP PUSH2 0x2949 DUP2 PUSH2 0x2923 JUMP JUMPDEST SWAP3 SWAP2 POP POP JUMP JUMPDEST PUSH1 0x0 PUSH1 0x20 DUP3 DUP5 SUB SLT ISZERO PUSH2 0x2965 JUMPI PUSH2 0x2964 PUSH2 0x28E7 JUMP JUMPDEST JUMPDEST PUSH1 0x0 PUSH2 0x2973 DUP5 DUP3 DUP6 ADD PUSH2 0x293A JUMP JUMPDEST SWAP2 POP POP SWAP3 SWAP2 POP POP JUMP JUMPDEST PUSH1 0x0 DUP2 ISZERO ISZERO SWAP1 POP SWAP2 SWAP1 POP JUMP JUMPDEST PUSH2 0x2991 DUP2 PUSH2 0x297C JUMP JUMPDEST DUP3 MSTORE POP POP JUMP JUMPDEST PUSH1 0x0 PUSH1 0x20 DUP3 ADD SWAP1 POP PUSH2 0x29AC PUSH1 0x0 DUP4 ADD DUP5 PUSH2 0x2988 JUMP JUMPDEST SWAP3 SWAP2 POP POP JUMP JUMPDEST PUSH1 0x0 DUP2 SWAP1 POP SWAP2 SWAP1 POP JUMP JUMPDEST PUSH1 0x0 PUSH2 0x29D7 PUSH2 0x29D2 PUSH2 0x29CD DUP5 PUSH2 0x28F1 JUMP JUMPDEST PUSH2 0x29B2 JUMP JUMPDEST PUSH2 0x28F1 JUMP JUMPDEST SWAP1 POP SWAP2 SWAP1 POP JUMP JUMPDEST PUSH1 0x0 PUSH2 0x29E9 DUP3 PUSH2 0x29BC JUMP JUMPDEST SWAP1 POP SWAP2 SWAP1 POP JUMP JUMPDEST PUSH1 0x0 PUSH2 0x29FB DUP3 PUSH2 0x29DE JUMP JUMPDEST SWAP1 POP SWAP2 SWAP1 POP JUMP JUMPDEST PUSH2 0x2A0B DUP2 PUSH2 0x29F0 JUMP JUMPDEST DUP3 MSTORE POP POP JUMP JUMPDEST PUSH1 0x0 PUSH1 0x20 DUP3 ADD SWAP1 POP PUSH2 0x2A26 PUSH1 0x0 DUP4 ADD DUP5 PUSH2 0x2A02 JUMP JUMPDEST SWAP3 SWAP2 POP POP JUMP JUMPDEST PUSH1 0x0 DUP1 REVERT JUMPDEST PUSH1 0x0 DUP1 REVERT JUMPDEST PUSH1 0x0 PUSH1 0x1F NOT PUSH1 0x1F DUP4 ADD AND SWAP1 POP SWAP2 SWAP1 POP JUMP JUMPDEST PUSH32 0x4E487B7100000000000000000000000000000000000000000000000000000000 PUSH1 0x0 MSTORE PUSH1 0x41 PUSH1 0x4 MSTORE PUSH1 0x24 PUSH1 0x0 REVERT JUMPDEST PUSH2 0x2A7F DUP3 PUSH2 0x2A36 JUMP JUMPDEST DUP2 ADD DUP2 DUP2 LT PUSH8 0xFFFFFFFFFFFFFFFF DUP3 GT OR ISZERO PUSH2 0x2A9E JUMPI PUSH2 0x2A9D PUSH2 0x2A47 JUMP JUMPDEST JUMPDEST DUP1 PUSH1 0x40 MSTORE POP POP POP JUMP JUMPDEST PUSH1 0x0 PUSH2 0x2AB1 PUSH2 0x28DD JUMP JUMPDEST SWAP1 POP PUSH2 0x2ABD DUP3 DUP3 PUSH2 0x2A76 JUMP JUMPDEST SWAP2 SWAP1 POP JUMP JUMPDEST PUSH1 0x0 PUSH8 0xFFFFFFFFFFFFFFFF DUP3 GT ISZERO PUSH2 0x2ADD JUMPI PUSH2 0x2ADC PUSH2 0x2A47 JUMP JUMPDEST JUMPDEST PUSH2 0x2AE6 DUP3 PUSH2 0x2A36 JUMP JUMPDEST SWAP1 POP PUSH1 0x20 DUP2 ADD SWAP1 POP SWAP2 SWAP1 POP JUMP JUMPDEST DUP3 DUP2 DUP4 CALLDATACOPY PUSH1 0x0 DUP4 DUP4 ADD MSTORE POP POP POP JUMP JUMPDEST PUSH1 0x0 PUSH2 0x2B15 PUSH2 0x2B10 DUP5 PUSH2 0x2AC2 JUMP JUMPDEST PUSH2 0x2AA7 JUMP JUMPDEST SWAP1 POP DUP3 DUP2 MSTORE PUSH1 0x20 DUP2 ADD DUP5 DUP5 DUP5 ADD GT ISZERO PUSH2 0x2B31 JUMPI PUSH2 0x2B30 PUSH2 0x2A31 JUMP JUMPDEST JUMPDEST PUSH2 0x2B3C DUP5 DUP3 DUP6 PUSH2 0x2AF3 JUMP JUMPDEST POP SWAP4 SWAP3 POP POP POP JUMP JUMPDEST PUSH1 0x0 DUP3 PUSH1 0x1F DUP4 ADD SLT PUSH2 0x2B59 JUMPI PUSH2 0x2B58 PUSH2 0x2A2C JUMP JUMPDEST JUMPDEST DUP2 CALLDATALOAD PUSH2 0x2B69 DUP5 DUP3 PUSH1 0x20 DUP7 ADD PUSH2 0x2B02 JUMP JUMPDEST SWAP2 POP POP SWAP3 SWAP2 POP POP JUMP JUMPDEST PUSH1 0x0 DUP1 PUSH1 0x40 DUP4 DUP6 SUB SLT ISZERO PUSH2 0x2B89 JUMPI PUSH2 0x2B88 PUSH2 0x28E7 JUMP JUMPDEST JUMPDEST PUSH1 0x0 PUSH2 0x2B97 DUP6 DUP3 DUP7 ADD PUSH2 0x293A JUMP JUMPDEST SWAP3 POP POP PUSH1 0x20 DUP4 ADD CALLDATALOAD PUSH8 0xFFFFFFFFFFFFFFFF DUP2 GT ISZERO PUSH2 0x2BB8 JUMPI PUSH2 0x2BB7 PUSH2 0x28EC JUMP JUMPDEST JUMPDEST PUSH2 0x2BC4 DUP6 DUP3 DUP7 ADD PUSH2 0x2B44 JUMP JUMPDEST SWAP2 POP POP SWAP3 POP SWAP3 SWAP1 POP JUMP JUMPDEST PUSH1 0x0 DUP2 SWAP1 POP SWAP2 SWAP1 POP JUMP JUMPDEST PUSH2 0x2BE1 DUP2 PUSH2 0x2BCE JUMP JUMPDEST DUP3 MSTORE POP POP JUMP JUMPDEST PUSH1 0x0 PUSH1 0x20 DUP3 ADD SWAP1 POP PUSH2 0x2BFC PUSH1 0x0 DUP4 ADD DUP5 PUSH2 0x2BD8 JUMP JUMPDEST SWAP3 SWAP2 POP POP JUMP JUMPDEST PUSH1 0x0 PUSH8 0xFFFFFFFFFFFFFFFF DUP3 GT ISZERO PUSH2 0x2C1D JUMPI PUSH2 0x2C1C PUSH2 0x2A47 JUMP JUMPDEST JUMPDEST PUSH2 0x2C26 DUP3 PUSH2 0x2A36 JUMP JUMPDEST SWAP1 POP PUSH1 0x20 DUP2 ADD SWAP1 POP SWAP2 SWAP1 POP JUMP JUMPDEST PUSH1 0x0 PUSH2 0x2C46 PUSH2 0x2C41 DUP5 PUSH2 0x2C02 JUMP JUMPDEST PUSH2 0x2AA7 JUMP JUMPDEST SWAP1 POP DUP3 DUP2 MSTORE PUSH1 0x20 DUP2 ADD DUP5 DUP5 DUP5 ADD GT ISZERO PUSH2 0x2C62 JUMPI PUSH2 0x2C61 PUSH2 0x2A31 JUMP JUMPDEST JUMPDEST PUSH2 0x2C6D DUP5 DUP3 DUP6 PUSH2 0x2AF3 JUMP JUMPDEST POP SWAP4 SWAP3 POP POP POP JUMP JUMPDEST PUSH1 0x0 DUP3 PUSH1 0x1F DUP4 ADD SLT PUSH2 0x2C8A JUMPI PUSH2 0x2C89 PUSH2 0x2A2C JUMP JUMPDEST JUMPDEST DUP2 CALLDATALOAD PUSH2 0x2C9A DUP5 DUP3 PUSH1 0x20 DUP7 ADD PUSH2 0x2C33 JUMP JUMPDEST SWAP2 POP POP SWAP3 SWAP2 POP POP JUMP JUMPDEST PUSH2 0x2CAC DUP2 PUSH2 0x28A9 JUMP JUMPDEST DUP2 EQ PUSH2 0x2CB7 JUMPI PUSH1 0x0 DUP1 REVERT JUMPDEST POP JUMP JUMPDEST PUSH1 0x0 DUP2 CALLDATALOAD SWAP1 POP PUSH2 0x2CC9 DUP2 PUSH2 0x2CA3 JUMP JUMPDEST SWAP3 SWAP2 POP POP JUMP JUMPDEST PUSH1 0x0 DUP1 PUSH1 0x0 DUP1 PUSH1 0x0 DUP1 PUSH1 0x0 PUSH1 0xE0 DUP9 DUP11 SUB SLT ISZERO PUSH2 0x2CEE JUMPI PUSH2 0x2CED PUSH2 0x28E7 JUMP JUMPDEST JUMPDEST PUSH1 0x0 DUP9 ADD CALLDATALOAD PUSH8 0xFFFFFFFFFFFFFFFF DUP2 GT ISZERO PUSH2 0x2D0C JUMPI PUSH2 0x2D0B PUSH2 0x28EC JUMP JUMPDEST JUMPDEST PUSH2 0x2D18 DUP11 DUP3 DUP12 ADD PUSH2 0x2C75 JUMP JUMPDEST SWAP8 POP POP PUSH1 0x20 PUSH2 0x2D29 DUP11 DUP3 DUP12 ADD PUSH2 0x293A JUMP JUMPDEST SWAP7 POP POP PUSH1 0x40 PUSH2 0x2D3A DUP11 DUP3 DUP12 ADD PUSH2 0x293A JUMP JUMPDEST SWAP6 POP POP PUSH1 0x60 PUSH2 0x2D4B DUP11 DUP3 DUP12 ADD PUSH2 0x2CBA JUMP JUMPDEST SWAP5 POP POP PUSH1 0x80 PUSH2 0x2D5C DUP11 DUP3 DUP12 ADD PUSH2 0x2CBA JUMP JUMPDEST SWAP4 POP POP PUSH1 0xA0 PUSH2 0x2D6D DUP11 DUP3 DUP12 ADD PUSH2 0x2CBA JUMP JUMPDEST SWAP3 POP POP PUSH1 0xC0 PUSH2 0x2D7E DUP11 DUP3 DUP12 ADD PUSH2 0x2CBA JUMP JUMPDEST SWAP2 POP POP SWAP3 SWAP6 SWAP9 SWAP2 SWAP5 SWAP8 POP SWAP3 SWAP6 POP JUMP JUMPDEST PUSH1 0x0 PUSH2 0x2D98 DUP3 PUSH2 0x29DE JUMP JUMPDEST SWAP1 POP SWAP2 SWAP1 POP JUMP JUMPDEST PUSH2 0x2DA8 DUP2 PUSH2 0x2D8D JUMP JUMPDEST DUP3 MSTORE POP POP JUMP JUMPDEST PUSH1 0x0 PUSH1 0x20 DUP3 ADD SWAP1 POP PUSH2 0x2DC3 PUSH1 0x0 DUP4 ADD DUP5 PUSH2 0x2D9F JUMP JUMPDEST SWAP3 SWAP2 POP POP JUMP JUMPDEST PUSH2 0x2DD2 DUP2 PUSH2 0x2911 JUMP JUMPDEST DUP3 MSTORE POP POP JUMP JUMPDEST PUSH1 0x0 PUSH1 0x20 DUP3 ADD SWAP1 POP PUSH2 0x2DED PUSH1 0x0 DUP4 ADD DUP5 PUSH2 0x2DC9 JUMP JUMPDEST SWAP3 SWAP2 POP POP JUMP JUMPDEST PUSH1 0x0 PUSH1 0x20 DUP3 DUP5 SUB SLT ISZERO PUSH2 0x2E09 JUMPI PUSH2 0x2E08 PUSH2 0x28E7 JUMP JUMPDEST JUMPDEST PUSH1 0x0 PUSH2 0x2E17 DUP5 DUP3 DUP6 ADD PUSH2 0x2CBA JUMP JUMPDEST SWAP2 POP POP SWAP3 SWAP2 POP POP JUMP JUMPDEST PUSH1 0x0 DUP2 MLOAD SWAP1 POP SWAP2 SWAP1 POP JUMP JUMPDEST PUSH1 0x0 DUP3 DUP3 MSTORE PUSH1 0x20 DUP3 ADD SWAP1 POP SWAP3 SWAP2 POP POP JUMP JUMPDEST PUSH1 0x0 JUMPDEST DUP4 DUP2 LT ISZERO PUSH2 0x2E5A JUMPI DUP1 DUP3 ADD MLOAD DUP2 DUP5 ADD MSTORE PUSH1 0x20 DUP2 ADD SWAP1 POP PUSH2 0x2E3F JUMP JUMPDEST PUSH1 0x0 DUP5 DUP5 ADD MSTORE POP POP POP POP JUMP JUMPDEST PUSH1 0x0 PUSH2 0x2E71 DUP3 PUSH2 0x2E20 JUMP JUMPDEST PUSH2 0x2E7B DUP2 DUP6 PUSH2 0x2E2B JUMP JUMPDEST SWAP4 POP PUSH2 0x2E8B DUP2 DUP6 PUSH1 0x20 DUP7 ADD PUSH2 0x2E3C JUMP JUMPDEST PUSH2 0x2E94 DUP2 PUSH2 0x2A36 JUMP JUMPDEST DUP5 ADD SWAP2 POP POP SWAP3 SWAP2 POP POP JUMP JUMPDEST PUSH1 0x0 PUSH1 0x20 DUP3 ADD SWAP1 POP DUP2 DUP2 SUB PUSH1 0x0 DUP4 ADD MSTORE PUSH2 0x2EB9 DUP2 DUP5 PUSH2 0x2E66 JUMP JUMPDEST SWAP1 POP SWAP3 SWAP2 POP POP JUMP JUMPDEST PUSH32 0x41756374696F6E20686173206E6F7420656E6465642079657400000000000000 PUSH1 0x0 DUP3 ADD MSTORE POP JUMP JUMPDEST PUSH1 0x0 PUSH2 0x2EF7 PUSH1 0x19 DUP4 PUSH2 0x2E2B JUMP JUMPDEST SWAP2 POP PUSH2 0x2F02 DUP3 PUSH2 0x2EC1 JUMP JUMPDEST PUSH1 0x20 DUP3 ADD SWAP1 POP SWAP2 SWAP1 POP JUMP JUMPDEST PUSH1 0x0 PUSH1 0x20 DUP3 ADD SWAP1 POP DUP2 DUP2 SUB PUSH1 0x0 DUP4 ADD MSTORE PUSH2 0x2F26 DUP2 PUSH2 0x2EEA JUMP JUMPDEST SWAP1 POP SWAP2 SWAP1 POP JUMP JUMPDEST PUSH32 0x48696768657374206269646465722063616E6E6F7420726566756E6400000000 PUSH1 0x0 DUP3 ADD MSTORE POP JUMP JUMPDEST PUSH1 0x0 PUSH2 0x2F63 PUSH1 0x1C DUP4 PUSH2 0x2E2B JUMP JUMPDEST SWAP2 POP PUSH2 0x2F6E DUP3 PUSH2 0x2F2D JUMP JUMPDEST PUSH1 0x20 DUP3 ADD SWAP1 POP SWAP2 SWAP1 POP JUMP JUMPDEST PUSH1 0x0 PUSH1 0x20 DUP3 ADD SWAP1 POP DUP2 DUP2 SUB PUSH1 0x0 DUP4 ADD MSTORE PUSH2 0x2F92 DUP2 PUSH2 0x2F56 JUMP JUMPDEST SWAP1 POP SWAP2 SWAP1 POP JUMP JUMPDEST PUSH32 0x4E6F2062696420746F20726566756E6400000000000000000000000000000000 PUSH1 0x0 DUP3 ADD MSTORE POP JUMP JUMPDEST PUSH1 0x0 PUSH2 0x2FCF PUSH1 0x10 DUP4 PUSH2 0x2E2B JUMP JUMPDEST SWAP2 POP PUSH2 0x2FDA DUP3 PUSH2 0x2F99 JUMP JUMPDEST PUSH1 0x20 DUP3 ADD SWAP1 POP SWAP2 SWAP1 POP JUMP JUMPDEST PUSH1 0x0 PUSH1 0x20 DUP3 ADD SWAP1 POP DUP2 DUP2 SUB PUSH1 0x0 DUP4 ADD MSTORE PUSH2 0x2FFE DUP2 PUSH2 0x2FC2 JUMP JUMPDEST SWAP1 POP SWAP2 SWAP1 POP JUMP JUMPDEST PUSH1 0x0 PUSH1 0x40 DUP3 ADD SWAP1 POP PUSH2 0x301A PUSH1 0x0 DUP4 ADD DUP6 PUSH2 0x2DC9 JUMP JUMPDEST PUSH2 0x3027 PUSH1 0x20 DUP4 ADD DUP5 PUSH2 0x28B3 JUMP JUMPDEST SWAP4 SWAP3 POP POP POP JUMP JUMPDEST PUSH2 0x3037 DUP2 PUSH2 0x297C JUMP JUMPDEST DUP2 EQ PUSH2 0x3042 JUMPI PUSH1 0x0 DUP1 REVERT JUMPDEST POP JUMP JUMPDEST PUSH1 0x0 DUP2 MLOAD SWAP1 POP PUSH2 0x3054 DUP2 PUSH2 0x302E JUMP JUMPDEST SWAP3 SWAP2 POP POP JUMP JUMPDEST PUSH1 0x0 PUSH1 0x20 DUP3 DUP5 SUB SLT ISZERO PUSH2 0x3070 JUMPI PUSH2 0x306F PUSH2 0x28E7 JUMP JUMPDEST JUMPDEST PUSH1 0x0 PUSH2 0x307E DUP5 DUP3 DUP6 ADD PUSH2 0x3045 JUMP JUMPDEST SWAP2 POP POP SWAP3 SWAP2 POP POP JUMP JUMPDEST PUSH32 0x46756E6374696F6E206D7573742062652063616C6C6564207468726F75676820 PUSH1 0x0 DUP3 ADD MSTORE PUSH32 0x64656C656761746563616C6C0000000000000000000000000000000000000000 PUSH1 0x20 DUP3 ADD MSTORE POP JUMP JUMPDEST PUSH1 0x0 PUSH2 0x30E3 PUSH1 0x2C DUP4 PUSH2 0x2E2B JUMP JUMPDEST SWAP2 POP PUSH2 0x30EE DUP3 PUSH2 0x3087 JUMP JUMPDEST PUSH1 0x40 DUP3 ADD SWAP1 POP SWAP2 SWAP1 POP JUMP JUMPDEST PUSH1 0x0 PUSH1 0x20 DUP3 ADD SWAP1 POP DUP2 DUP2 SUB PUSH1 0x0 DUP4 ADD MSTORE PUSH2 0x3112 DUP2 PUSH2 0x30D6 JUMP JUMPDEST SWAP1 POP SWAP2 SWAP1 POP JUMP JUMPDEST PUSH32 0x46756E6374696F6E206D7573742062652063616C6C6564207468726F75676820 PUSH1 0x0 DUP3 ADD MSTORE PUSH32 0x6163746976652070726F78790000000000000000000000000000000000000000 PUSH1 0x20 DUP3 ADD MSTORE POP JUMP JUMPDEST PUSH1 0x0 PUSH2 0x3175 PUSH1 0x2C DUP4 PUSH2 0x2E2B JUMP JUMPDEST SWAP2 POP PUSH2 0x3180 DUP3 PUSH2 0x3119 JUMP JUMPDEST PUSH1 0x40 DUP3 ADD SWAP1 POP SWAP2 SWAP1 POP JUMP JUMPDEST PUSH1 0x0 PUSH1 0x20 DUP3 ADD SWAP1 POP DUP2 DUP2 SUB PUSH1 0x0 DUP4 ADD MSTORE PUSH2 0x31A4 DUP2 PUSH2 0x3168 JUMP JUMPDEST SWAP1 POP SWAP2 SWAP1 POP JUMP JUMPDEST PUSH32 0x555550535570677261646561626C653A206D757374206E6F742062652063616C PUSH1 0x0 DUP3 ADD MSTORE PUSH32 0x6C6564207468726F7567682064656C656761746563616C6C0000000000000000 PUSH1 0x20 DUP3 ADD MSTORE POP JUMP JUMPDEST PUSH1 0x0 PUSH2 0x3207 PUSH1 0x38 DUP4 PUSH2 0x2E2B JUMP JUMPDEST SWAP2 POP PUSH2 0x3212 DUP3 PUSH2 0x31AB JUMP JUMPDEST PUSH1 0x40 DUP3 ADD SWAP1 POP SWAP2 SWAP1 POP JUMP JUMPDEST PUSH1 0x0 PUSH1 0x20 DUP3 ADD SWAP1 POP DUP2 DUP2 SUB PUSH1 0x0 DUP4 ADD MSTORE PUSH2 0x3236 DUP2 PUSH2 0x31FA JUMP JUMPDEST SWAP1 POP SWAP2 SWAP1 POP JUMP JUMPDEST PUSH32 0x496E697469616C697A61626C653A20636F6E747261637420697320616C726561 PUSH1 0x0 DUP3 ADD MSTORE PUSH32 0x647920696E697469616C697A6564000000000000000000000000000000000000 PUSH1 0x20 DUP3 ADD MSTORE POP JUMP JUMPDEST PUSH1 0x0 PUSH2 0x3299 PUSH1 0x2E DUP4 PUSH2 0x2E2B JUMP JUMPDEST SWAP2 POP PUSH2 0x32A4 DUP3 PUSH2 0x323D JUMP JUMPDEST PUSH1 0x40 DUP3 ADD SWAP1 POP SWAP2 SWAP1 POP JUMP JUMPDEST PUSH1 0x0 PUSH1 0x20 DUP3 ADD SWAP1 POP DUP2 DUP2 SUB PUSH1 0x0 DUP4 ADD MSTORE PUSH2 0x32C8 DUP2 PUSH2 0x328C JUMP JUMPDEST SWAP1 POP SWAP2 SWAP1 POP JUMP JUMPDEST PUSH32 0x4E487B7100000000000000000000000000000000000000000000000000000000 PUSH1 0x0 MSTORE PUSH1 0x22 PUSH1 0x4 MSTORE PUSH1 0x24 PUSH1 0x0 REVERT JUMPDEST PUSH1 0x0 PUSH1 0x2 DUP3 DIV SWAP1 POP PUSH1 0x1 DUP3 AND DUP1 PUSH2 0x3316 JUMPI PUSH1 0x7F DUP3 AND SWAP2 POP JUMPDEST PUSH1 0x20 DUP3 LT DUP2 SUB PUSH2 0x3329 JUMPI PUSH2 0x3328 PUSH2 0x32CF JUMP JUMPDEST JUMPDEST POP SWAP2 SWAP1 POP JUMP JUMPDEST PUSH1 0x0 DUP2 SWAP1 POP DUP2 PUSH1 0x0 MSTORE PUSH1 0x20 PUSH1 0x0 KECCAK256 SWAP1 POP SWAP2 SWAP1 POP JUMP JUMPDEST PUSH1 0x0 PUSH1 0x20 PUSH1 0x1F DUP4 ADD DIV SWAP1 POP SWAP2 SWAP1 POP JUMP JUMPDEST PUSH1 0x0 DUP3 DUP3 SHL SWAP1 POP SWAP3 SWAP2 POP POP JUMP JUMPDEST PUSH1 0x0 PUSH1 0x8 DUP4 MUL PUSH2 0x3391 PUSH32 0xFFFFFFFFFFFFFFFFFFFFFFFFFFFFFFFFFFFFFFFFFFFFFFFFFFFFFFFFFFFFFFFF DUP3 PUSH2 0x3354 JUMP JUMPDEST PUSH2 0x339B DUP7 DUP4 PUSH2 0x3354 JUMP JUMPDEST SWAP6 POP DUP1 NOT DUP5 AND SWAP4 POP DUP1 DUP7 AND DUP5 OR SWAP3 POP POP POP SWAP4 SWAP3 POP POP POP JUMP JUMPDEST PUSH1 0x0 PUSH2 0x33CE PUSH2 0x33C9 PUSH2 0x33C4 DUP5 PUSH2 0x28A9 JUMP JUMPDEST PUSH2 0x29B2 JUMP JUMPDEST PUSH2 0x28A9 JUMP JUMPDEST SWAP1 POP SWAP2 SWAP1 POP JUMP JUMPDEST PUSH1 0x0 DUP2 SWAP1 POP SWAP2 SWAP1 POP JUMP JUMPDEST PUSH2 0x33E8 DUP4 PUSH2 0x33B3 JUMP JUMPDEST PUSH2 0x33FC PUSH2 0x33F4 DUP3 PUSH2 0x33D5 JUMP JUMPDEST DUP5 DUP5 SLOAD PUSH2 0x3361 JUMP JUMPDEST DUP3 SSTORE POP POP POP POP JUMP JUMPDEST PUSH1 0x0 SWAP1 JUMP JUMPDEST PUSH2 0x3411 PUSH2 0x3404 JUMP JUMPDEST PUSH2 0x341C DUP2 DUP5 DUP5 PUSH2 0x33DF JUMP JUMPDEST POP POP POP JUMP JUMPDEST JUMPDEST DUP2 DUP2 LT ISZERO PUSH2 0x3440 JUMPI PUSH2 0x3435 PUSH1 0x0 DUP3 PUSH2 0x3409 JUMP JUMPDEST PUSH1 0x1 DUP2 ADD SWAP1 POP PUSH2 0x3422 JUMP JUMPDEST POP POP JUMP JUMPDEST PUSH1 0x1F DUP3 GT ISZERO PUSH2 0x3485 JUMPI PUSH2 0x3456 DUP2 PUSH2 0x332F JUMP JUMPDEST PUSH2 0x345F DUP5 PUSH2 0x3344 JUMP JUMPDEST DUP2 ADD PUSH1 0x20 DUP6 LT ISZERO PUSH2 0x346E JUMPI DUP2 SWAP1 POP JUMPDEST PUSH2 0x3482 PUSH2 0x347A DUP6 PUSH2 0x3344 JUMP JUMPDEST DUP4 ADD DUP3 PUSH2 0x3421 JUMP JUMPDEST POP POP JUMPDEST POP POP POP JUMP JUMPDEST PUSH1 0x0 DUP3 DUP3 SHR SWAP1 POP SWAP3 SWAP2 POP POP JUMP JUMPDEST PUSH1 0x0 PUSH2 0x34A8 PUSH1 0x0 NOT DUP5 PUSH1 0x8 MUL PUSH2 0x348A JUMP JUMPDEST NOT DUP1 DUP4 AND SWAP2 POP POP SWAP3 SWAP2 POP POP JUMP JUMPDEST PUSH1 0x0 PUSH2 0x34C1 DUP4 DUP4 PUSH2 0x3497 JUMP JUMPDEST SWAP2 POP DUP3 PUSH1 0x2 MUL DUP3 OR SWAP1 POP SWAP3 SWAP2 POP POP JUMP JUMPDEST PUSH2 0x34DA DUP3 PUSH2 0x2E20 JUMP JUMPDEST PUSH8 0xFFFFFFFFFFFFFFFF DUP2 GT ISZERO PUSH2 0x34F3 JUMPI PUSH2 0x34F2 PUSH2 0x2A47 JUMP JUMPDEST JUMPDEST PUSH2 0x34FD DUP3 SLOAD PUSH2 0x32FE JUMP JUMPDEST PUSH2 0x3508 DUP3 DUP3 DUP6 PUSH2 0x3444 JUMP JUMPDEST PUSH1 0x0 PUSH1 0x20 SWAP1 POP PUSH1 0x1F DUP4 GT PUSH1 0x1 DUP2 EQ PUSH2 0x353B JUMPI PUSH1 0x0 DUP5 ISZERO PUSH2 0x3529 JUMPI DUP3 DUP8 ADD MLOAD SWAP1 POP JUMPDEST PUSH2 0x3533 DUP6 DUP3 PUSH2 0x34B5 JUMP JUMPDEST DUP7 SSTORE POP PUSH2 0x359B JUMP JUMPDEST PUSH1 0x1F NOT DUP5 AND PUSH2 0x3549 DUP7 PUSH2 0x332F JUMP JUMPDEST PUSH1 0x0 JUMPDEST DUP3 DUP2 LT ISZERO PUSH2 0x3571 JUMPI DUP5 DUP10 ADD MLOAD DUP3 SSTORE PUSH1 0x1 DUP3 ADD SWAP2 POP PUSH1 0x20 DUP6 ADD SWAP5 POP PUSH1 0x20 DUP2 ADD SWAP1 POP PUSH2 0x354C JUMP JUMPDEST DUP7 DUP4 LT ISZERO PUSH2 0x358E JUMPI DUP5 DUP10 ADD MLOAD PUSH2 0x358A PUSH1 0x1F DUP10 AND DUP3 PUSH2 0x3497 JUMP JUMPDEST DUP4 SSTORE POP JUMPDEST PUSH1 0x1 PUSH1 0x2 DUP9 MUL ADD DUP9 SSTORE POP POP POP JUMPDEST POP POP POP POP POP POP JUMP JUMPDEST PUSH1 0x0 DUP2 MLOAD SWAP1 POP PUSH2 0x35B2 DUP2 PUSH2 0x2923 JUMP JUMPDEST SWAP3 SWAP2 POP POP JUMP JUMPDEST PUSH1 0x0 PUSH1 0x20 DUP3 DUP5 SUB SLT ISZERO PUSH2 0x35CE JUMPI PUSH2 0x35CD PUSH2 0x28E7 JUMP JUMPDEST JUMPDEST PUSH1 0x0 PUSH2 0x35DC DUP5 DUP3 DUP6 ADD PUSH2 0x35A3 JUMP JUMPDEST SWAP2 POP POP SWAP3 SWAP2 POP POP JUMP JUMPDEST PUSH32 0x4E465420746F6B656E20496420646F6573206E6F742062656C6F6E6720746F20 PUSH1 0x0 DUP3 ADD MSTORE PUSH32 0x7468652041756374696F6E2773204F776E657200000000000000000000000000 PUSH1 0x20 DUP3 ADD MSTORE POP JUMP JUMPDEST PUSH1 0x0 PUSH2 0x3641 PUSH1 0x33 DUP4 PUSH2 0x2E2B JUMP JUMPDEST SWAP2 POP PUSH2 0x364C DUP3 PUSH2 0x35E5 JUMP JUMPDEST PUSH1 0x40 DUP3 ADD SWAP1 POP SWAP2 SWAP1 POP JUMP JUMPDEST PUSH1 0x0 PUSH1 0x20 DUP3 ADD SWAP1 POP DUP2 DUP2 SUB PUSH1 0x0 DUP4 ADD MSTORE PUSH2 0x3670 DUP2 PUSH2 0x3634 JUMP JUMPDEST SWAP1 POP SWAP2 SWAP1 POP JUMP JUMPDEST PUSH1 0x0 DUP2 SWAP1 POP SWAP2 SWAP1 POP JUMP JUMPDEST PUSH1 0x0 PUSH1 0xFF DUP3 AND SWAP1 POP SWAP2 SWAP1 POP JUMP JUMPDEST PUSH1 0x0 PUSH2 0x36A9 PUSH2 0x36A4 PUSH2 0x369F DUP5 PUSH2 0x3677 JUMP JUMPDEST PUSH2 0x29B2 JUMP JUMPDEST PUSH2 0x3681 JUMP JUMPDEST SWAP1 POP SWAP2 SWAP1 POP JUMP JUMPDEST PUSH2 0x36B9 DUP2 PUSH2 0x368E JUMP JUMPDEST DUP3 MSTORE POP POP JUMP JUMPDEST PUSH1 0x0 PUSH1 0x20 DUP3 ADD SWAP1 POP PUSH2 0x36D4 PUSH1 0x0 DUP4 ADD DUP5 PUSH2 0x36B0 JUMP JUMPDEST SWAP3 SWAP2 POP POP JUMP JUMPDEST PUSH32 0x42696420616D6F756E74206D7573742062652067726561746572207468616E20 PUSH1 0x0 DUP3 ADD MSTORE PUSH32 0x7A65726F00000000000000000000000000000000000000000000000000000000 PUSH1 0x20 DUP3 ADD MSTORE POP JUMP JUMPDEST PUSH1 0x0 PUSH2 0x3736 PUSH1 0x24 DUP4 PUSH2 0x2E2B JUMP JUMPDEST SWAP2 POP PUSH2 0x3741 DUP3 PUSH2 0x36DA JUMP JUMPDEST PUSH1 0x40 DUP3 ADD SWAP1 POP SWAP2 SWAP1 POP JUMP JUMPDEST PUSH1 0x0 PUSH1 0x20 DUP3 ADD SWAP1 POP DUP2 DUP2 SUB PUSH1 0x0 DUP4 ADD MSTORE PUSH2 0x3765 DUP2 PUSH2 0x3729 JUMP JUMPDEST SWAP1 POP SWAP2 SWAP1 POP JUMP JUMPDEST PUSH32 0x41756374696F6E2068617320616C726561647920656E64656400000000000000 PUSH1 0x0 DUP3 ADD MSTORE POP JUMP JUMPDEST PUSH1 0x0 PUSH2 0x37A2 PUSH1 0x19 DUP4 PUSH2 0x2E2B JUMP JUMPDEST SWAP2 POP PUSH2 0x37AD DUP3 PUSH2 0x376C JUMP JUMPDEST PUSH1 0x20 DUP3 ADD SWAP1 POP SWAP2 SWAP1 POP JUMP JUMPDEST PUSH1 0x0 PUSH1 0x20 DUP3 ADD SWAP1 POP DUP2 DUP2 SUB PUSH1 0x0 DUP4 ADD MSTORE PUSH2 0x37D1 DUP2 PUSH2 0x3795 JUMP JUMPDEST SWAP1 POP SWAP2 SWAP1 POP JUMP JUMPDEST PUSH1 0x0 PUSH1 0x60 DUP3 ADD SWAP1 POP PUSH2 0x37ED PUSH1 0x0 DUP4 ADD DUP7 PUSH2 0x2DC9 JUMP JUMPDEST PUSH2 0x37FA PUSH1 0x20 DUP4 ADD DUP6 PUSH2 0x2DC9 JUMP JUMPDEST PUSH2 0x3807 PUSH1 0x40 DUP4 ADD DUP5 PUSH2 0x28B3 JUMP JUMPDEST SWAP5 SWAP4 POP POP POP POP JUMP JUMPDEST PUSH32 0x4E487B7100000000000000000000000000000000000000000000000000000000 PUSH1 0x0 MSTORE PUSH1 0x11 PUSH1 0x4 MSTORE PUSH1 0x24 PUSH1 0x0 REVERT JUMPDEST PUSH1 0x0 PUSH2 0x3849 DUP3 PUSH2 0x28A9 JUMP JUMPDEST SWAP2 POP PUSH2 0x3854 DUP4 PUSH2 0x28A9 JUMP JUMPDEST SWAP3 POP DUP3 DUP3 ADD SWAP1 POP DUP1 DUP3 GT ISZERO PUSH2 0x386C JUMPI PUSH2 0x386B PUSH2 0x380F JUMP JUMPDEST JUMPDEST SWAP3 SWAP2 POP POP JUMP JUMPDEST PUSH32 0x4F776E61626C653A206E6577206F776E657220697320746865207A65726F2061 PUSH1 0x0 DUP3 ADD MSTORE PUSH32 0x6464726573730000000000000000000000000000000000000000000000000000 PUSH1 0x20 DUP3 ADD MSTORE POP JUMP JUMPDEST PUSH1 0x0 PUSH2 0x38CE PUSH1 0x26 DUP4 PUSH2 0x2E2B JUMP JUMPDEST SWAP2 POP PUSH2 0x38D9 DUP3 PUSH2 0x3872 JUMP JUMPDEST PUSH1 0x40 DUP3 ADD SWAP1 POP SWAP2 SWAP1 POP JUMP JUMPDEST PUSH1 0x0 PUSH1 0x20 DUP3 ADD SWAP1 POP DUP2 DUP2 SUB PUSH1 0x0 DUP4 ADD MSTORE PUSH2 0x38FD DUP2 PUSH2 0x38C1 JUMP JUMPDEST SWAP1 POP SWAP2 SWAP1 POP JUMP JUMPDEST PUSH1 0x0 DUP2 SWAP1 POP SWAP2 SWAP1 POP JUMP JUMPDEST PUSH1 0x0 PUSH2 0x3929 PUSH2 0x3924 PUSH2 0x391F DUP5 PUSH2 0x3904 JUMP JUMPDEST PUSH2 0x29B2 JUMP JUMPDEST PUSH2 0x28A9 JUMP JUMPDEST SWAP1 POP SWAP2 SWAP1 POP JUMP JUMPDEST PUSH2 0x3939 DUP2 PUSH2 0x390E JUMP JUMPDEST DUP3 MSTORE POP POP JUMP JUMPDEST PUSH1 0x0 PUSH1 0x20 DUP3 ADD SWAP1 POP PUSH2 0x3954 PUSH1 0x0 DUP4 ADD DUP5 PUSH2 0x3930 JUMP JUMPDEST SWAP3 SWAP2 POP POP JUMP JUMPDEST PUSH2 0x3963 DUP2 PUSH2 0x2BCE JUMP JUMPDEST DUP2 EQ PUSH2 0x396E JUMPI PUSH1 0x0 DUP1 REVERT JUMPDEST POP JUMP JUMPDEST PUSH1 0x0 DUP2 MLOAD SWAP1 POP PUSH2 0x3980 DUP2 PUSH2 0x395A JUMP JUMPDEST SWAP3 SWAP2 POP POP JUMP JUMPDEST PUSH1 0x0 PUSH1 0x20 DUP3 DUP5 SUB SLT ISZERO PUSH2 0x399C JUMPI PUSH2 0x399B PUSH2 0x28E7 JUMP JUMPDEST JUMPDEST PUSH1 0x0 PUSH2 0x39AA DUP5 DUP3 DUP6 ADD PUSH2 0x3971 JUMP JUMPDEST SWAP2 POP POP SWAP3 SWAP2 POP POP JUMP JUMPDEST PUSH32 0x45524331393637557067726164653A206E657720696D706C656D656E74617469 PUSH1 0x0 DUP3 ADD MSTORE PUSH32 0x6F6E206973206E6F742055555053000000000000000000000000000000000000 PUSH1 0x20 DUP3 ADD MSTORE POP JUMP JUMPDEST PUSH1 0x0 PUSH2 0x3A0F PUSH1 0x2E DUP4 PUSH2 0x2E2B JUMP JUMPDEST SWAP2 POP PUSH2 0x3A1A DUP3 PUSH2 0x39B3 JUMP JUMPDEST PUSH1 0x40 DUP3 ADD SWAP1 POP SWAP2 SWAP1 POP JUMP JUMPDEST PUSH1 0x0 PUSH1 0x20 DUP3 ADD SWAP1 POP DUP2 DUP2 SUB PUSH1 0x0 DUP4 ADD MSTORE PUSH2 0x3A3E DUP2 PUSH2 0x3A02 JUMP JUMPDEST SWAP1 POP SWAP2 SWAP1 POP JUMP JUMPDEST PUSH32 0x45524331393637557067726164653A20756E737570706F727465642070726F78 PUSH1 0x0 DUP3 ADD MSTORE PUSH32 0x6961626C65555549440000000000000000000000000000000000000000000000 PUSH1 0x20 DUP3 ADD MSTORE POP JUMP JUMPDEST PUSH1 0x0 PUSH2 0x3AA1 PUSH1 0x29 DUP4 PUSH2 0x2E2B JUMP JUMPDEST SWAP2 POP PUSH2 0x3AAC DUP3 PUSH2 0x3A45 JUMP JUMPDEST PUSH1 0x40 DUP3 ADD SWAP1 POP SWAP2 SWAP1 POP JUMP JUMPDEST PUSH1 0x0 PUSH1 0x20 DUP3 ADD SWAP1 POP DUP2 DUP2 SUB PUSH1 0x0 DUP4 ADD MSTORE PUSH2 0x3AD0 DUP2 PUSH2 0x3A94 JUMP JUMPDEST SWAP1 POP SWAP2 SWAP1 POP JUMP JUMPDEST PUSH32 0x4F776E61626C653A2063616C6C6572206973206E6F7420746865206F776E6572 PUSH1 0x0 DUP3 ADD MSTORE POP JUMP JUMPDEST PUSH1 0x0 PUSH2 0x3B0D PUSH1 0x20 DUP4 PUSH2 0x2E2B JUMP JUMPDEST SWAP2 POP PUSH2 0x3B18 DUP3 PUSH2 0x3AD7 JUMP JUMPDEST PUSH1 0x20 DUP3 ADD SWAP1 POP SWAP2 SWAP1 POP JUMP JUMPDEST PUSH1 0x0 PUSH1 0x20 DUP3 ADD SWAP1 POP DUP2 DUP2 SUB PUSH1 0x0 DUP4 ADD MSTORE PUSH2 0x3B3C DUP2 PUSH2 0x3B00 JUMP JUMPDEST SWAP1 POP SWAP2 SWAP1 POP JUMP JUMPDEST PUSH32 0x496E697469616C697A61626C653A20636F6E7472616374206973206E6F742069 PUSH1 0x0 DUP3 ADD MSTORE PUSH32 0x6E697469616C697A696E67000000000000000000000000000000000000000000 PUSH1 0x20 DUP3 ADD MSTORE POP JUMP JUMPDEST PUSH1 0x0 PUSH2 0x3B9F PUSH1 0x2B DUP4 PUSH2 0x2E2B JUMP JUMPDEST SWAP2 POP PUSH2 0x3BAA DUP3 PUSH2 0x3B43 JUMP JUMPDEST PUSH1 0x40 DUP3 ADD SWAP1 POP SWAP2 SWAP1 POP JUMP JUMPDEST PUSH1 0x0 PUSH1 0x20 DUP3 ADD SWAP1 POP DUP2 DUP2 SUB PUSH1 0x0 DUP4 ADD MSTORE PUSH2 0x3BCE DUP2 PUSH2 0x3B92 JUMP JUMPDEST SWAP1 POP SWAP2 SWAP1 POP JUMP JUMPDEST PUSH1 0x0 PUSH2 0x3BE0 DUP3 PUSH2 0x28A9 JUMP JUMPDEST SWAP2 POP PUSH2 0x3BEB DUP4 PUSH2 0x28A9 JUMP JUMPDEST SWAP3 POP DUP3 DUP3 MUL PUSH2 0x3BF9 DUP2 PUSH2 0x28A9 JUMP JUMPDEST SWAP2 POP DUP3 DUP3 DIV DUP5 EQ DUP4 ISZERO OR PUSH2 0x3C10 JUMPI PUSH2 0x3C0F PUSH2 0x380F JUMP JUMPDEST JUMPDEST POP SWAP3 SWAP2 POP POP JUMP JUMPDEST PUSH32 0x455243313936373A206E657720696D706C656D656E746174696F6E206973206E PUSH1 0x0 DUP3 ADD MSTORE PUSH32 0x6F74206120636F6E747261637400000000000000000000000000000000000000 PUSH1 0x20 DUP3 ADD MSTORE POP JUMP JUMPDEST PUSH1 0x0 PUSH2 0x3C73 PUSH1 0x2D DUP4 PUSH2 0x2E2B JUMP JUMPDEST SWAP2 POP PUSH2 0x3C7E DUP3 PUSH2 0x3C17 JUMP JUMPDEST PUSH1 0x40 DUP3 ADD SWAP1 POP SWAP2 SWAP1 POP JUMP JUMPDEST PUSH1 0x0 PUSH1 0x20 DUP3 ADD SWAP1 POP DUP2 DUP2 SUB PUSH1 0x0 DUP4 ADD MSTORE PUSH2 0x3CA2 DUP2 PUSH2 0x3C66 JUMP JUMPDEST SWAP1 POP SWAP2 SWAP1 POP JUMP JUMPDEST PUSH1 0x0 DUP2 MLOAD SWAP1 POP SWAP2 SWAP1 POP JUMP JUMPDEST PUSH1 0x0 DUP2 SWAP1 POP SWAP3 SWAP2 POP POP JUMP JUMPDEST PUSH1 0x0 PUSH2 0x3CCA DUP3 PUSH2 0x3CA9 JUMP JUMPDEST PUSH2 0x3CD4 DUP2 DUP6 PUSH2 0x3CB4 JUMP JUMPDEST SWAP4 POP PUSH2 0x3CE4 DUP2 DUP6 PUSH1 0x20 DUP7 ADD PUSH2 0x2E3C JUMP JUMPDEST DUP1 DUP5 ADD SWAP2 POP POP SWAP3 SWAP2 POP POP JUMP JUMPDEST PUSH1 0x0 PUSH2 0x3CFC DUP3 DUP5 PUSH2 0x3CBF JUMP JUMPDEST SWAP2 POP DUP2 SWAP1 POP SWAP3 SWAP2 POP POP JUMP JUMPDEST PUSH32 0x416464726573733A2063616C6C20746F206E6F6E2D636F6E7472616374000000 PUSH1 0x0 DUP3 ADD MSTORE POP JUMP JUMPDEST PUSH1 0x0 PUSH2 0x3D3D PUSH1 0x1D DUP4 PUSH2 0x2E2B JUMP JUMPDEST SWAP2 POP PUSH2 0x3D48 DUP3 PUSH2 0x3D07 JUMP JUMPDEST PUSH1 0x20 DUP3 ADD SWAP1 POP SWAP2 SWAP1 POP JUMP JUMPDEST PUSH1 0x0 PUSH1 0x20 DUP3 ADD SWAP1 POP DUP2 DUP2 SUB PUSH1 0x0 DUP4 ADD MSTORE PUSH2 0x3D6C DUP2 PUSH2 0x3D30 JUMP JUMPDEST SWAP1 POP SWAP2 SWAP1 POP JUMP INVALID COINBASE PUSH5 0x6472657373 GASPRICE KECCAK256 PUSH13 0x6F772D6C6576656C2064656C65 PUSH8 0x6174652063616C6C KECCAK256 PUSH7 0x61696C6564A264 PUSH10 0x706673582212204536E5 0x2D PUSH21 0xFF3C7B55BCF519CF2604F26B977CE7914671212751 PUSH25 0xB6A1FAC0D64736F6C63430008120033000000000000000000 "},"methodIdentifiers":{"auctionEnded()":"86433374","auctionStartTime()":"eb54f9ec","bids(address)":"62ea82db","endAuction()":"fe67a54b","erc20Token()":"8a13eea7","erc721TokenAddress()":"df241cb9","getMessage()":"ce6d41de","highestBid()":"d57bde79","highestBidder()":"91f90157","initialPrice()":"1d0806ae","initialize(string,address,address,uint256,uint256,uint256,uint256)":"74fe2916","itemSold()":"438e897a","nft()":"47ccca02","nftTokenId()":"7e830574","numBlocksAuctionOpen()":"3103ea62","offerPriceDecrement()":"d3642a88","owner()":"8da5cb5b","placeBid(uint256)":"9979ef45","proxiableUUID()":"52d1902d","refundBidders(address)":"2bf0d538","renounceOwnership()":"715018a6","reservePrice()":"db2e1eed","transferOwnership(address)":"f2fde38b","upgradeNumber()":"eb8bf84d","upgradeTo(address)":"3659cfe6","upgradeToAndCall(address,bytes)":"4f1ef286"}},"storageLayout":{"storage":[{"astId":503,"contract":"contracts/NFTDutchAuction_ERC20Bids.sol:NFTDutchAuction_ERC20Bids","label":"_initialized","offset":0,"slot":"0","type":"t_uint8"},{"astId":506,"contract":"contracts/NFTDutchAuction_ERC20Bids.sol:NFTDutchAuction_ERC20Bids","label":"_initializing","offset":1,"slot":"0","type":"t_bool"},{"astId":1172,"contract":"contracts/NFTDutchAuction_ERC20Bids.sol:NFTDutchAuction_ERC20Bids","label":"__gap","offset":0,"slot":"1","type":"t_array(t_uint256)50_storage"},{"astId":10,"contract":"contracts/NFTDutchAuction_ERC20Bids.sol:NFTDutchAuction_ERC20Bids","label":"_owner","offset":0,"slot":"51","type":"t_address"},{"astId":130,"contract":"contracts/NFTDutchAuction_ERC20Bids.sol:NFTDutchAuction_ERC20Bids","label":"__gap","offset":0,"slot":"52","type":"t_array(t_uint256)49_storage"},{"astId":485,"contract":"contracts/NFTDutchAuction_ERC20Bids.sol:NFTDutchAuction_ERC20Bids","label":"__gap","offset":0,"slot":"101","type":"t_array(t_uint256)50_storage"},{"astId":800,"contract":"contracts/NFTDutchAuction_ERC20Bids.sol:NFTDutchAuction_ERC20Bids","label":"__gap","offset":0,"slot":"151","type":"t_array(t_uint256)50_storage"},{"astId":5759,"contract":"contracts/NFTDutchAuction_ERC20Bids.sol:NFTDutchAuction_ERC20Bids","label":"erc20Token","offset":0,"slot":"201","type":"t_contract(IERC20)2089"},{"astId":5762,"contract":"contracts/NFTDutchAuction_ERC20Bids.sol:NFTDutchAuction_ERC20Bids","label":"nft","offset":0,"slot":"202","type":"t_contract(IERC721)3157"},{"astId":5764,"contract":"contracts/NFTDutchAuction_ERC20Bids.sol:NFTDutchAuction_ERC20Bids","label":"erc721TokenAddress","offset":0,"slot":"203","type":"t_address"},{"astId":5766,"contract":"contracts/NFTDutchAuction_ERC20Bids.sol:NFTDutchAuction_ERC20Bids","label":"nftTokenId","offset":0,"slot":"204","type":"t_uint256"},{"astId":5768,"contract":"contracts/NFTDutchAuction_ERC20Bids.sol:NFTDutchAuction_ERC20Bids","label":"reservePrice","offset":0,"slot":"205","type":"t_uint256"},{"astId":5770,"contract":"contracts/NFTDutchAuction_ERC20Bids.sol:NFTDutchAuction_ERC20Bids","label":"numBlocksAuctionOpen","offset":0,"slot":"206","type":"t_uint256"},{"astId":5772,"contract":"contracts/NFTDutchAuction_ERC20Bids.sol:NFTDutchAuction_ERC20Bids","label":"offerPriceDecrement","offset":0,"slot":"207","type":"t_uint256"},{"astId":5774,"contract":"contracts/NFTDutchAuction_ERC20Bids.sol:NFTDutchAuction_ERC20Bids","label":"initialPrice","offset":0,"slot":"208","type":"t_uint256"},{"astId":5776,"contract":"contracts/NFTDutchAuction_ERC20Bids.sol:NFTDutchAuction_ERC20Bids","label":"auctionEnded","offset":0,"slot":"209","type":"t_bool"},{"astId":5778,"contract":"contracts/NFTDutchAuction_ERC20Bids.sol:NFTDutchAuction_ERC20Bids","label":"itemSold","offset":1,"slot":"209","type":"t_bool"},{"astId":5782,"contract":"contracts/NFTDutchAuction_ERC20Bids.sol:NFTDutchAuction_ERC20Bids","label":"bids","offset":0,"slot":"210","type":"t_mapping(t_address,t_uint256)"},{"astId":5784,"contract":"contracts/NFTDutchAuction_ERC20Bids.sol:NFTDutchAuction_ERC20Bids","label":"highestBidder","offset":0,"slot":"211","type":"t_address"},{"astId":5786,"contract":"contracts/NFTDutchAuction_ERC20Bids.sol:NFTDutchAuction_ERC20Bids","label":"highestBid","offset":0,"slot":"212","type":"t_uint256"},{"astId":5788,"contract":"contracts/NFTDutchAuction_ERC20Bids.sol:NFTDutchAuction_ERC20Bids","label":"auctionStartTime","offset":0,"slot":"213","type":"t_uint256"},{"astId":5790,"contract":"contracts/NFTDutchAuction_ERC20Bids.sol:NFTDutchAuction_ERC20Bids","label":"upgradeNumber","offset":0,"slot":"214","type":"t_string_storage"}],"types":{"t_address":{"encoding":"inplace","label":"address","numberOfBytes":"20"},"t_array(t_uint256)49_storage":{"base":"t_uint256","encoding":"inplace","label":"uint256[49]","numberOfBytes":"1568"},"t_array(t_uint256)50_storage":{"base":"t_uint256","encoding":"inplace","label":"uint256[50]","numberOfBytes":"1600"},"t_bool":{"encoding":"inplace","label":"bool","numberOfBytes":"1"},"t_contract(IERC20)2089":{"encoding":"inplace","label":"contract IERC20","numberOfBytes":"20"},"t_contract(IERC721)3157":{"encoding":"inplace","label":"contract IERC721","numberOfBytes":"20"},"t_mapping(t_address,t_uint256)":{"encoding":"mapping","key":"t_address","label":"mapping(address => uint256)","numberOfBytes":"32","value":"t_uint256"},"t_string_storage":{"encoding":"bytes","label":"string","numberOfBytes":"32"},"t_uint256":{"encoding":"inplace","label":"uint256","numberOfBytes":"32"},"t_uint8":{"encoding":"inplace","label":"uint8","numberOfBytes":"1"}}}}}}