{
  "_format": "hh-sol-artifact-1",
  "contractName": "NFTDutchAuction_ERC20Bids",
  "sourceName": "contracts/NFTDutchAuction_ERC20Bids.sol",
  "abi": [
    {
      "inputs": [
        {
          "internalType": "address",
          "name": "_erc20TokenAddress",
          "type": "address"
        },
        {
          "internalType": "address",
          "name": "_erc721TokenAddress",
          "type": "address"
        },
        {
          "internalType": "uint256",
          "name": "_nftTokenId",
          "type": "uint256"
        },
        {
          "internalType": "uint256",
          "name": "_reservePrice",
          "type": "uint256"
        },
        {
          "internalType": "uint256",
          "name": "_numBlocksAuctionOpen",
          "type": "uint256"
        },
        {
          "internalType": "uint256",
          "name": "_offerPriceDecrement",
          "type": "uint256"
        }
      ],
      "stateMutability": "nonpayable",
      "type": "constructor"
    },
    {
      "anonymous": false,
      "inputs": [
        {
          "indexed": true,
          "internalType": "address",
          "name": "winner",
          "type": "address"
        },
        {
          "indexed": false,
          "internalType": "uint256",
          "name": "winningBidAmount",
          "type": "uint256"
        }
      ],
      "name": "AuctionEnded",
      "type": "event"
    },
    {
      "anonymous": false,
      "inputs": [
        {
          "indexed": true,
          "internalType": "address",
          "name": "bidder",
          "type": "address"
        },
        {
          "indexed": false,
          "internalType": "uint256",
          "name": "bidAmount",
          "type": "uint256"
        }
      ],
      "name": "BidPlaced",
      "type": "event"
    },
    {
      "inputs": [],
      "name": "auctionEnded",
      "outputs": [
        {
          "internalType": "bool",
          "name": "",
          "type": "bool"
        }
      ],
      "stateMutability": "view",
      "type": "function"
    },
    {
      "inputs": [],
      "name": "auctionStartTime",
      "outputs": [
        {
          "internalType": "uint256",
          "name": "",
          "type": "uint256"
        }
      ],
      "stateMutability": "view",
      "type": "function"
    },
    {
      "inputs": [
        {
          "internalType": "address",
          "name": "",
          "type": "address"
        }
      ],
      "name": "bids",
      "outputs": [
        {
          "internalType": "uint256",
          "name": "",
          "type": "uint256"
        }
      ],
      "stateMutability": "view",
      "type": "function"
    },
    {
      "inputs": [],
      "name": "endAuction",
      "outputs": [],
      "stateMutability": "nonpayable",
      "type": "function"
    },
    {
      "inputs": [],
      "name": "erc721TokenAddress",
      "outputs": [
        {
          "internalType": "address",
          "name": "",
          "type": "address"
        }
      ],
      "stateMutability": "view",
      "type": "function"
    },
    {
      "inputs": [],
      "name": "highestBid",
      "outputs": [
        {
          "internalType": "uint256",
          "name": "",
          "type": "uint256"
        }
      ],
      "stateMutability": "view",
      "type": "function"
    },
    {
      "inputs": [],
      "name": "highestBidder",
      "outputs": [
        {
          "internalType": "address",
          "name": "",
          "type": "address"
        }
      ],
      "stateMutability": "view",
      "type": "function"
    },
    {
      "inputs": [],
      "name": "initialPrice",
      "outputs": [
        {
          "internalType": "uint256",
          "name": "",
          "type": "uint256"
        }
      ],
      "stateMutability": "view",
      "type": "function"
    },
    {
      "inputs": [],
      "name": "itemSold",
      "outputs": [
        {
          "internalType": "bool",
          "name": "",
          "type": "bool"
        }
      ],
      "stateMutability": "view",
      "type": "function"
    },
    {
      "inputs": [],
      "name": "nftTokenId",
      "outputs": [
        {
          "internalType": "uint256",
          "name": "",
          "type": "uint256"
        }
      ],
      "stateMutability": "view",
      "type": "function"
    },
    {
      "inputs": [],
      "name": "numBlocksAuctionOpen",
      "outputs": [
        {
          "internalType": "uint256",
          "name": "",
          "type": "uint256"
        }
      ],
      "stateMutability": "view",
      "type": "function"
    },
    {
      "inputs": [],
      "name": "offerPriceDecrement",
      "outputs": [
        {
          "internalType": "uint256",
          "name": "",
          "type": "uint256"
        }
      ],
      "stateMutability": "view",
      "type": "function"
    },
    {
      "inputs": [],
      "name": "owner",
      "outputs": [
        {
          "internalType": "address payable",
          "name": "",
          "type": "address"
        }
      ],
      "stateMutability": "view",
      "type": "function"
    },
    {
      "inputs": [
        {
          "internalType": "uint256",
          "name": "bidAmount",
          "type": "uint256"
        }
      ],
      "name": "placeBid",
      "outputs": [],
      "stateMutability": "nonpayable",
      "type": "function"
    },
    {
      "inputs": [
        {
          "internalType": "address",
          "name": "bidder",
          "type": "address"
        }
      ],
      "name": "refundBidders",
      "outputs": [],
      "stateMutability": "nonpayable",
      "type": "function"
    },
    {
      "inputs": [],
      "name": "reservePrice",
      "outputs": [
        {
          "internalType": "uint256",
          "name": "",
          "type": "uint256"
        }
      ],
      "stateMutability": "view",
      "type": "function"
    }
  ],
  "bytecode": "0x60e06040523480156200001157600080fd5b50604051620022293803806200222983398181016040528101906200003791906200055e565b62000053677304d6878e9926db60c01b6200048660201b60201c565b6200006f674dcedc81f22e43a160c01b6200048660201b60201c565b3373ffffffffffffffffffffffffffffffffffffffff1660c08173ffffffffffffffffffffffffffffffffffffffff1681525050620000bf67a4e85a4162a92d7460c01b6200048660201b60201c565b846000806101000a81548173ffffffffffffffffffffffffffffffffffffffff021916908373ffffffffffffffffffffffffffffffffffffffff1602179055506200011b67d1f79bdef649c78360c01b6200048660201b60201c565b836001819055506200013e676def927375e1aa0b60c01b6200048660201b60201c565b826002819055506200016167b4f4f01b6440085560c01b6200048660201b60201c565b816003819055506200018467f8b693251269624a60c01b6200048660201b60201c565b80600481905550620001a7679aca68e2f55ce56560c01b6200048660201b60201c565b620001e0620001c96004546003546200048960201b620013211790919060201c565b600254620004a160201b620013371790919060201c565b6005819055506200020267b58b61d3ef89fcb260c01b6200048660201b60201c565b43600a8190555062000225671f0ff5b779c5afc760c01b6200048660201b60201c565b6000600660006101000a81548160ff0219169083151502179055506200025c6785b5b4040ea83eba60c01b6200048660201b60201c565b6000600660016101000a81548160ff0219169083151502179055506200029367b9223af08f84648060c01b6200048660201b60201c565b8573ffffffffffffffffffffffffffffffffffffffff1660808173ffffffffffffffffffffffffffffffffffffffff1681525050620002e367dbcfd9ff3bf46dfe60c01b6200048660201b60201c565b8473ffffffffffffffffffffffffffffffffffffffff1660a08173ffffffffffffffffffffffffffffffffffffffff16815250506200033367647df52e6a3c979060c01b6200048660201b60201c565b6200034f673d8b8d3376e1c6b860c01b6200048660201b60201c565b6200036b67548ea894c11e127060c01b6200048660201b60201c565b60c05173ffffffffffffffffffffffffffffffffffffffff1660a05173ffffffffffffffffffffffffffffffffffffffff16636352211e866040518263ffffffff1660e01b8152600401620003c191906200060b565b602060405180830381865afa158015620003df573d6000803e3d6000fd5b505050506040513d601f19601f8201168201806040525081019062000405919062000628565b73ffffffffffffffffffffffffffffffffffffffff16146200045e576040517f08c379a00000000000000000000000000000000000000000000000000000000081526004016200045590620006e1565b60405180910390fd5b6200047a67ab08dc4a85aa722d60c01b6200048660201b60201c565b505050505050620007b8565b50565b6000818362000499919062000732565b905092915050565b60008183620004b191906200077d565b905092915050565b600080fd5b600073ffffffffffffffffffffffffffffffffffffffff82169050919050565b6000620004eb82620004be565b9050919050565b620004fd81620004de565b81146200050957600080fd5b50565b6000815190506200051d81620004f2565b92915050565b6000819050919050565b620005388162000523565b81146200054457600080fd5b50565b60008151905062000558816200052d565b92915050565b60008060008060008060c087890312156200057e576200057d620004b9565b5b60006200058e89828a016200050c565b9650506020620005a189828a016200050c565b9550506040620005b489828a0162000547565b9450506060620005c789828a0162000547565b9350506080620005da89828a0162000547565b92505060a0620005ed89828a0162000547565b9150509295509295509295565b620006058162000523565b82525050565b6000602082019050620006226000830184620005fa565b92915050565b600060208284031215620006415762000640620004b9565b5b600062000651848285016200050c565b91505092915050565b600082825260208201905092915050565b7f4e465420746f6b656e20496420646f6573206e6f742062656c6f6e6720746f2060008201527f7468652041756374696f6e2773204f776e657200000000000000000000000000602082015250565b6000620006c96033836200065a565b9150620006d6826200066b565b604082019050919050565b60006020820190508181036000830152620006fc81620006ba565b9050919050565b7f4e487b7100000000000000000000000000000000000000000000000000000000600052601160045260246000fd5b60006200073f8262000523565b91506200074c8362000523565b92508282026200075c8162000523565b9150828204841483151762000776576200077562000703565b5b5092915050565b60006200078a8262000523565b9150620007978362000523565b9250828201905080821115620007b257620007b162000703565b5b92915050565b60805160a05160c051611a1e6200080b600039600081816107260152611234015260008181610f3301528181610f6f0152818161115c015261119801526000818161063901526108df0152611a1e6000f3fe608060405234801561001057600080fd5b50600436106101005760003560e01c806391f9015711610097578063db2e1eed11610066578063db2e1eed1461027b578063df241cb914610299578063eb54f9ec146102b7578063fe67a54b146102d557610100565b806391f90157146102055780639979ef4514610223578063d3642a881461023f578063d57bde791461025d57610100565b806362ea82db116100d357806362ea82db1461017b5780637e830574146101ab57806386433374146101c95780638da5cb5b146101e757610100565b80631d0806ae146101055780632bf0d538146101235780633103ea621461013f578063438e897a1461015d575b600080fd5b61010d6102df565b60405161011a9190611369565b60405180910390f35b61013d600480360381019061013891906113e7565b6102e5565b005b6101476106da565b6040516101549190611369565b60405180910390f35b6101656106e0565b604051610172919061142f565b60405180910390f35b610195600480360381019061019091906113e7565b6106f3565b6040516101a29190611369565b60405180910390f35b6101b361070b565b6040516101c09190611369565b60405180910390f35b6101d1610711565b6040516101de919061142f565b60405180910390f35b6101ef610724565b6040516101fc919061146b565b60405180910390f35b61020d610748565b60405161021a9190611495565b60405180910390f35b61023d600480360381019061023891906114dc565b61076e565b005b610247610cae565b6040516102549190611369565b60405180910390f35b610265610cb4565b6040516102729190611369565b60405180910390f35b610283610cba565b6040516102909190611369565b60405180910390f35b6102a1610cc0565b6040516102ae9190611495565b60405180910390f35b6102bf610ce4565b6040516102cc9190611369565b60405180910390f35b6102dd610cea565b005b60055481565b6102f9676a0a235238e6e0f860c01b61134d565b61030d678c3f1a78f9f33a3060c01b61134d565b61032167191d6d3de40606ca60c01b61134d565b61033567143e874d5d95b07c60c01b61134d565b600660009054906101000a900460ff16610384576040517f08c379a000000000000000000000000000000000000000000000000000000000815260040161037b90611566565b60405180910390fd5b610398678c829613bd08a85660c01b61134d565b6103ac6784fc3bf1597d402160c01b61134d565b6103c067e7dad3dc22d4581160c01b61134d565b6103d46716b69567aad2e3ab60c01b61134d565b600860009054906101000a900473ffffffffffffffffffffffffffffffffffffffff1673ffffffffffffffffffffffffffffffffffffffff168173ffffffffffffffffffffffffffffffffffffffff1603610464576040517f08c379a000000000000000000000000000000000000000000000000000000000815260040161045b906115d2565b60405180910390fd5b610478676d401b2445206bbe60c01b61134d565b61048c6710bf6d1e33418bcd60c01b61134d565b6104a06775b0f6ccd4015bb860c01b61134d565b6104b467a70e20d207addf2560c01b61134d565b6000600760008373ffffffffffffffffffffffffffffffffffffffff1673ffffffffffffffffffffffffffffffffffffffff1681526020019081526020016000205411610536576040517f08c379a000000000000000000000000000000000000000000000000000000000815260040161052d9061163e565b60405180910390fd5b61054a67486757155f113dcf60c01b61134d565b61055e67ecb36d35cc7e175160c01b61134d565b61057267e1e9769cc0c814cd60c01b61134d565b6000600760008373ffffffffffffffffffffffffffffffffffffffff1673ffffffffffffffffffffffffffffffffffffffff1681526020019081526020016000205490506105ca6710ca00e8dc4df72760c01b61134d565b6000600760008473ffffffffffffffffffffffffffffffffffffffff1673ffffffffffffffffffffffffffffffffffffffff168152602001908152602001600020819055506106236741ea5553df38f96060c01b61134d565b6106376742e5bcaf6fffa15360c01b61134d565b7f000000000000000000000000000000000000000000000000000000000000000073ffffffffffffffffffffffffffffffffffffffff1663a9059cbb83836040518363ffffffff1660e01b815260040161069292919061165e565b6020604051808303816000875af11580156106b1573d6000803e3d6000fd5b505050506040513d601f19601f820116820180604052508101906106d591906116b3565b505050565b60035481565b600660019054906101000a900460ff1681565b60076020528060005260406000206000915090505481565b60015481565b600660009054906101000a900460ff1681565b7f000000000000000000000000000000000000000000000000000000000000000081565b600860009054906101000a900473ffffffffffffffffffffffffffffffffffffffff1681565b61078267bc1e5a98062a524860c01b61134d565b61079667f0ae50f3bb39463e60c01b61134d565b6107aa677fded5cb03024e4e60c01b61134d565b6107be674edcc497915044f260c01b61134d565b60008111610801576040517f08c379a00000000000000000000000000000000000000000000000000000000081526004016107f890611752565b60405180910390fd5b610815679b57b298b664c17060c01b61134d565b6108296752d98685c6a1e4c160c01b61134d565b61083d670871e4aaaab3f45a60c01b61134d565b61085167a003cfc073a22ab160c01b61134d565b600660009054906101000a900460ff16156108a1576040517f08c379a0000000000000000000000000000000000000000000000000000000008152600401610898906117be565b60405180910390fd5b6108b567b14382d0dd23a68960c01b61134d565b6108c96795dc045e40363ea660c01b61134d565b6108dd67ac96576274dccb7160c01b61134d565b7f000000000000000000000000000000000000000000000000000000000000000073ffffffffffffffffffffffffffffffffffffffff166323b872dd3330846040518463ffffffff1660e01b815260040161093a939291906117de565b6020604051808303816000875af1158015610959573d6000803e3d6000fd5b505050506040513d601f19601f8201168201806040525081019061097d91906116b3565b506109926714b8a24b7b414dfb60c01b61134d565b6109a66790b80f211b79afe660c01b61134d565b600954811115610b27576109c467f82abd172cc418a360c01b61134d565b6109d8674a3c2faba9dc783060c01b61134d565b6109ec67ea0c79f66c514af660c01b61134d565b600060095414610a9d57610a0a67aff5450c8dab510a60c01b61134d565b610a1e67694c402ba54600f460c01b61134d565b60095460076000600860009054906101000a900473ffffffffffffffffffffffffffffffffffffffff1673ffffffffffffffffffffffffffffffffffffffff1673ffffffffffffffffffffffffffffffffffffffff1681526020019081526020016000206000828254610a919190611844565b92505081905550610ab2565b610ab16785d194f9c7dbe0e460c01b61134d565b5b610ac66729352e81b287016860c01b61134d565b33600860006101000a81548173ffffffffffffffffffffffffffffffffffffffff021916908373ffffffffffffffffffffffffffffffffffffffff160217905550610b1b67c105fec228ee276060c01b61134d565b80600981905550610ba6565b610b3b67f4d8fe20e893e9d560c01b61134d565b610b4f67e9979512607fd58060c01b61134d565b80600760003373ffffffffffffffffffffffffffffffffffffffff1673ffffffffffffffffffffffffffffffffffffffff1681526020019081526020016000206000828254610b9e9190611844565b925050819055505b610bba6721df63938ced7f4e60c01b61134d565b610bce678f86c5d2f1bf86ab60c01b61134d565b3373ffffffffffffffffffffffffffffffffffffffff167f3fabff0a9c3ecd6814702e247fa9733e5d0aa69e3a38590f92cb18f623a2254d82604051610c149190611369565b60405180910390a2610c306733aa7366e6a9003960c01b61134d565b610c44671afbad79ea9bfe7d60c01b61134d565b6005548110610c9657610c6167595b70fcd464fc1860c01b61134d565b610c7567c4e40a3a37f0ba8960c01b61134d565b610c89670958b2d5be3cbfa960c01b61134d565b610c91610cea565b610cab565b610caa673f1dc52dc66047bc60c01b61134d565b5b50565b60045481565b60095481565b60025481565b60008054906101000a900473ffffffffffffffffffffffffffffffffffffffff1681565b600a5481565b610cfe670ea28c56058ecac960c01b61134d565b610d1267875081dbd322b1b760c01b61134d565b610d2667f371402d020162d860c01b61134d565b610d3a6711f74c29a4c5b06160c01b61134d565b600660009054906101000a900460ff1615610d8a576040517f08c379a0000000000000000000000000000000000000000000000000000000008152600401610d81906117be565b60405180910390fd5b610d9e67ef286540ef47b3c960c01b61134d565b610db26755432eeeb98f19fa60c01b61134d565b6001600660006101000a81548160ff021916908315150217905550610de16759bbc8ba27fc589260c01b61134d565b6001600660016101000a81548160ff021916908315150217905550610e106777aebe7608c5051960c01b61134d565b610e2467cfa276735751acf760c01b61134d565b600073ffffffffffffffffffffffffffffffffffffffff16600860009054906101000a900473ffffffffffffffffffffffffffffffffffffffff1673ffffffffffffffffffffffffffffffffffffffff161461111e57610e8e67f035c0e8fea08a7960c01b61134d565b610ea2679b267c62e6bff9a460c01b61134d565b600060076000600860009054906101000a900473ffffffffffffffffffffffffffffffffffffffff1673ffffffffffffffffffffffffffffffffffffffff1673ffffffffffffffffffffffffffffffffffffffff16815260200190815260200160002081905550610f1d67e57f3141d5960aea60c01b61134d565b610f3167fb07b969e868bb8d60c01b61134d565b7f000000000000000000000000000000000000000000000000000000000000000073ffffffffffffffffffffffffffffffffffffffff166342842e0e7f000000000000000000000000000000000000000000000000000000000000000073ffffffffffffffffffffffffffffffffffffffff16636352211e6001546040518263ffffffff1660e01b8152600401610fc89190611369565b602060405180830381865afa158015610fe5573d6000803e3d6000fd5b505050506040513d601f19601f82011682018060405250810190611009919061188d565b600860009054906101000a900473ffffffffffffffffffffffffffffffffffffffff166001546040518463ffffffff1660e01b815260040161104d939291906117de565b600060405180830381600087803b15801561106757600080fd5b505af115801561107b573d6000803e3d6000fd5b505050506110936791a2eb5777e53ead60c01b61134d565b6110a767a84d3939591c65e360c01b61134d565b600860009054906101000a900473ffffffffffffffffffffffffffffffffffffffff1673ffffffffffffffffffffffffffffffffffffffff167fdaec4582d5d9595688c8c98545fdd1c696d41c6aeaeb636737e84ed2f5c00eda6009546040516111119190611369565b60405180910390a261131f565b61113267b20b447c2403384260c01b61134d565b6111466737f910023c540dac60c01b61134d565b61115a6750b099cb8aaefa4e60c01b61134d565b7f000000000000000000000000000000000000000000000000000000000000000073ffffffffffffffffffffffffffffffffffffffff166342842e0e7f000000000000000000000000000000000000000000000000000000000000000073ffffffffffffffffffffffffffffffffffffffff16636352211e6001546040518263ffffffff1660e01b81526004016111f19190611369565b602060405180830381865afa15801561120e573d6000803e3d6000fd5b505050506040513d601f19601f82011682018060405250810190611232919061188d565b7f00000000000000000000000000000000000000000000000000000000000000006001546040518463ffffffff1660e01b815260040161127493929190611919565b600060405180830381600087803b15801561128e57600080fd5b505af11580156112a2573d6000803e3d6000fd5b505050506112ba67351140827f2a6e9c60c01b61134d565b6112ce67fb1d6049f862894960c01b61134d565b600073ffffffffffffffffffffffffffffffffffffffff167fdaec4582d5d9595688c8c98545fdd1c696d41c6aeaeb636737e84ed2f5c00eda6000604051611316919061198b565b60405180910390a25b565b6000818361132f91906119a6565b905092915050565b600081836113459190611844565b905092915050565b50565b6000819050919050565b61136381611350565b82525050565b600060208201905061137e600083018461135a565b92915050565b600080fd5b600073ffffffffffffffffffffffffffffffffffffffff82169050919050565b60006113b482611389565b9050919050565b6113c4816113a9565b81146113cf57600080fd5b50565b6000813590506113e1816113bb565b92915050565b6000602082840312156113fd576113fc611384565b5b600061140b848285016113d2565b91505092915050565b60008115159050919050565b61142981611414565b82525050565b60006020820190506114446000830184611420565b92915050565b600061145582611389565b9050919050565b6114658161144a565b82525050565b6000602082019050611480600083018461145c565b92915050565b61148f816113a9565b82525050565b60006020820190506114aa6000830184611486565b92915050565b6114b981611350565b81146114c457600080fd5b50565b6000813590506114d6816114b0565b92915050565b6000602082840312156114f2576114f1611384565b5b6000611500848285016114c7565b91505092915050565b600082825260208201905092915050565b7f41756374696f6e20686173206e6f7420656e6465642079657400000000000000600082015250565b6000611550601983611509565b915061155b8261151a565b602082019050919050565b6000602082019050818103600083015261157f81611543565b9050919050565b7f48696768657374206269646465722063616e6e6f7420726566756e6400000000600082015250565b60006115bc601c83611509565b91506115c782611586565b602082019050919050565b600060208201905081810360008301526115eb816115af565b9050919050565b7f4e6f2062696420746f20726566756e6400000000000000000000000000000000600082015250565b6000611628601083611509565b9150611633826115f2565b602082019050919050565b600060208201905081810360008301526116578161161b565b9050919050565b60006040820190506116736000830185611486565b611680602083018461135a565b9392505050565b61169081611414565b811461169b57600080fd5b50565b6000815190506116ad81611687565b92915050565b6000602082840312156116c9576116c8611384565b5b60006116d78482850161169e565b91505092915050565b7f42696420616d6f756e74206d7573742062652067726561746572207468616e2060008201527f7a65726f00000000000000000000000000000000000000000000000000000000602082015250565b600061173c602483611509565b9150611747826116e0565b604082019050919050565b6000602082019050818103600083015261176b8161172f565b9050919050565b7f41756374696f6e2068617320616c726561647920656e64656400000000000000600082015250565b60006117a8601983611509565b91506117b382611772565b602082019050919050565b600060208201905081810360008301526117d78161179b565b9050919050565b60006060820190506117f36000830186611486565b6118006020830185611486565b61180d604083018461135a565b949350505050565b7f4e487b7100000000000000000000000000000000000000000000000000000000600052601160045260246000fd5b600061184f82611350565b915061185a83611350565b925082820190508082111561187257611871611815565b5b92915050565b600081519050611887816113bb565b92915050565b6000602082840312156118a3576118a2611384565b5b60006118b184828501611878565b91505092915050565b6000819050919050565b60006118df6118da6118d584611389565b6118ba565b611389565b9050919050565b60006118f1826118c4565b9050919050565b6000611903826118e6565b9050919050565b611913816118f8565b82525050565b600060608201905061192e6000830186611486565b61193b602083018561190a565b611948604083018461135a565b949350505050565b6000819050919050565b600061197561197061196b84611950565b6118ba565b611350565b9050919050565b6119858161195a565b82525050565b60006020820190506119a0600083018461197c565b92915050565b60006119b182611350565b91506119bc83611350565b92508282026119ca81611350565b915082820484148315176119e1576119e0611815565b5b509291505056fea2646970667358221220d9f4f3ec17fd282af148a9f19a486c207b50d8eaf11e7b0db22705a55ed6472464736f6c63430008120033",
  "linkReferences": {},
  "deployedLinkReferences": {}
}