{"contracts/NFTDutchAuction_ERC20Bids.sol":{"NFTDutchAuction_ERC20Bids":{"abi":[{"inputs":[{"internalType":"address","name":"_erc20TokenAddress","type":"address"},{"internalType":"address","name":"_erc721TokenAddress","type":"address"},{"internalType":"uint256","name":"_nftTokenId","type":"uint256"},{"internalType":"uint256","name":"_reservePrice","type":"uint256"},{"internalType":"uint256","name":"_numBlocksAuctionOpen","type":"uint256"},{"internalType":"uint256","name":"_offerPriceDecrement","type":"uint256"}],"stateMutability":"nonpayable","type":"constructor"},{"anonymous":false,"inputs":[{"indexed":true,"internalType":"address","name":"winner","type":"address"},{"indexed":false,"internalType":"uint256","name":"winningBidAmount","type":"uint256"}],"name":"AuctionEnded","type":"event"},{"anonymous":false,"inputs":[{"indexed":true,"internalType":"address","name":"bidder","type":"address"},{"indexed":false,"internalType":"uint256","name":"bidAmount","type":"uint256"}],"name":"BidPlaced","type":"event"},{"inputs":[],"name":"auctionEnded","outputs":[{"internalType":"bool","name":"","type":"bool"}],"stateMutability":"view","type":"function"},{"inputs":[],"name":"auctionStartTime","outputs":[{"internalType":"uint256","name":"","type":"uint256"}],"stateMutability":"view","type":"function"},{"inputs":[{"internalType":"address","name":"","type":"address"}],"name":"bids","outputs":[{"internalType":"uint256","name":"","type":"uint256"}],"stateMutability":"view","type":"function"},{"inputs":[],"name":"endAuction","outputs":[],"stateMutability":"nonpayable","type":"function"},{"inputs":[],"name":"erc721TokenAddress","outputs":[{"internalType":"address","name":"","type":"address"}],"stateMutability":"view","type":"function"},{"inputs":[],"name":"highestBid","outputs":[{"internalType":"uint256","name":"","type":"uint256"}],"stateMutability":"view","type":"function"},{"inputs":[],"name":"highestBidder","outputs":[{"internalType":"address","name":"","type":"address"}],"stateMutability":"view","type":"function"},{"inputs":[],"name":"initialPrice","outputs":[{"internalType":"uint256","name":"","type":"uint256"}],"stateMutability":"view","type":"function"},{"inputs":[],"name":"itemSold","outputs":[{"internalType":"bool","name":"","type":"bool"}],"stateMutability":"view","type":"function"},{"inputs":[],"name":"nftTokenId","outputs":[{"internalType":"uint256","name":"","type":"uint256"}],"stateMutability":"view","type":"function"},{"inputs":[],"name":"numBlocksAuctionOpen","outputs":[{"internalType":"uint256","name":"","type":"uint256"}],"stateMutability":"view","type":"function"},{"inputs":[],"name":"offerPriceDecrement","outputs":[{"internalType":"uint256","name":"","type":"uint256"}],"stateMutability":"view","type":"function"},{"inputs":[],"name":"owner","outputs":[{"internalType":"address payable","name":"","type":"address"}],"stateMutability":"view","type":"function"},{"inputs":[{"internalType":"uint256","name":"bidAmount","type":"uint256"}],"name":"placeBid","outputs":[],"stateMutability":"nonpayable","type":"function"},{"inputs":[{"internalType":"address","name":"bidder","type":"address"}],"name":"refundBidders","outputs":[],"stateMutability":"nonpayable","type":"function"},{"inputs":[],"name":"reservePrice","outputs":[{"internalType":"uint256","name":"","type":"uint256"}],"stateMutability":"view","type":"function"}],"evm":{"bytecode":{"linkReferences":{},"object":"60e06040523480156200001157600080fd5b506040516200239a3803806200239a83398181016040528101906200003791906200055e565b62000053670bf9a7bdf08b49ec60c01b6200048660201b60201c565b6200006f67edc286eabdf0622f60c01b6200048660201b60201c565b3373ffffffffffffffffffffffffffffffffffffffff1660c08173ffffffffffffffffffffffffffffffffffffffff1681525050620000bf673978162ecc2892a060c01b6200048660201b60201c565b846000806101000a81548173ffffffffffffffffffffffffffffffffffffffff021916908373ffffffffffffffffffffffffffffffffffffffff1602179055506200011b677304d6878e9926db60c01b6200048660201b60201c565b836001819055506200013e674dcedc81f22e43a160c01b6200048660201b60201c565b826002819055506200016167a4e85a4162a92d7460c01b6200048660201b60201c565b816003819055506200018467d1f79bdef649c78360c01b6200048660201b60201c565b80600481905550620001a7676def927375e1aa0b60c01b6200048660201b60201c565b620001e0620001c96004546003546200048960201b620014841790919060201c565b600254620004a160201b6200149a1790919060201c565b6005819055506200020267b4f4f01b6440085560c01b6200048660201b60201c565b43600a819055506200022567f8b693251269624a60c01b6200048660201b60201c565b6000600660006101000a81548160ff0219169083151502179055506200025c679aca68e2f55ce56560c01b6200048660201b60201c565b6000600660016101000a81548160ff0219169083151502179055506200029367b58b61d3ef89fcb260c01b6200048660201b60201c565b8573ffffffffffffffffffffffffffffffffffffffff1660808173ffffffffffffffffffffffffffffffffffffffff1681525050620002e3671f0ff5b779c5afc760c01b6200048660201b60201c565b8473ffffffffffffffffffffffffffffffffffffffff1660a08173ffffffffffffffffffffffffffffffffffffffff1681525050620003336785b5b4040ea83eba60c01b6200048660201b60201c565b6200034f67b9223af08f84648060c01b6200048660201b60201c565b6200036b67dbcfd9ff3bf46dfe60c01b6200048660201b60201c565b60c05173ffffffffffffffffffffffffffffffffffffffff1660a05173ffffffffffffffffffffffffffffffffffffffff16636352211e866040518263ffffffff1660e01b8152600401620003c191906200060b565b602060405180830381865afa158015620003df573d6000803e3d6000fd5b505050506040513d601f19601f8201168201806040525081019062000405919062000628565b73ffffffffffffffffffffffffffffffffffffffff16146200045e576040517f08c379a00000000000000000000000000000000000000000000000000000000081526004016200045590620006e1565b60405180910390fd5b6200047a67647df52e6a3c979060c01b6200048660201b60201c565b505050505050620007b8565b50565b6000818362000499919062000732565b905092915050565b60008183620004b191906200077d565b905092915050565b600080fd5b600073ffffffffffffffffffffffffffffffffffffffff82169050919050565b6000620004eb82620004be565b9050919050565b620004fd81620004de565b81146200050957600080fd5b50565b6000815190506200051d81620004f2565b92915050565b6000819050919050565b620005388162000523565b81146200054457600080fd5b50565b60008151905062000558816200052d565b92915050565b60008060008060008060c087890312156200057e576200057d620004b9565b5b60006200058e89828a016200050c565b9650506020620005a189828a016200050c565b9550506040620005b489828a0162000547565b9450506060620005c789828a0162000547565b9350506080620005da89828a0162000547565b92505060a0620005ed89828a0162000547565b9150509295509295509295565b620006058162000523565b82525050565b6000602082019050620006226000830184620005fa565b92915050565b600060208284031215620006415762000640620004b9565b5b600062000651848285016200050c565b91505092915050565b600082825260208201905092915050565b7f4e465420746f6b656e20496420646f6573206e6f742062656c6f6e6720746f2060008201527f7468652041756374696f6e2773204f776e657200000000000000000000000000602082015250565b6000620006c96033836200065a565b9150620006d6826200066b565b604082019050919050565b60006020820190508181036000830152620006fc81620006ba565b9050919050565b7f4e487b7100000000000000000000000000000000000000000000000000000000600052601160045260246000fd5b60006200073f8262000523565b91506200074c8362000523565b92508282026200075c8162000523565b9150828204841483151762000776576200077562000703565b5b5092915050565b60006200078a8262000523565b9150620007978362000523565b9250828201905080821115620007b257620007b162000703565b5b92915050565b60805160a05160c051611b8162000819600039600081816107260152611397015260008181611096015281816110d2015281816112bf01526112fb015260008181610639015281816108df01528181610a340152610bc20152611b816000f3fe608060405234801561001057600080fd5b50600436106101005760003560e01c806391f9015711610097578063db2e1eed11610066578063db2e1eed1461027b578063df241cb914610299578063eb54f9ec146102b7578063fe67a54b146102d557610100565b806391f90157146102055780639979ef4514610223578063d3642a881461023f578063d57bde791461025d57610100565b806362ea82db116100d357806362ea82db1461017b5780637e830574146101ab57806386433374146101c95780638da5cb5b146101e757610100565b80631d0806ae146101055780632bf0d538146101235780633103ea621461013f578063438e897a1461015d575b600080fd5b61010d6102df565b60405161011a91906114cc565b60405180910390f35b61013d6004803603810190610138919061154a565b6102e5565b005b6101476106da565b60405161015491906114cc565b60405180910390f35b6101656106e0565b6040516101729190611592565b60405180910390f35b6101956004803603810190610190919061154a565b6106f3565b6040516101a291906114cc565b60405180910390f35b6101b361070b565b6040516101c091906114cc565b60405180910390f35b6101d1610711565b6040516101de9190611592565b60405180910390f35b6101ef610724565b6040516101fc91906115ce565b60405180910390f35b61020d610748565b60405161021a91906115f8565b60405180910390f35b61023d6004803603810190610238919061163f565b61076e565b005b610247610e11565b60405161025491906114cc565b60405180910390f35b610265610e17565b60405161027291906114cc565b60405180910390f35b610283610e1d565b60405161029091906114cc565b60405180910390f35b6102a1610e23565b6040516102ae91906115f8565b60405180910390f35b6102bf610e47565b6040516102cc91906114cc565b60405180910390f35b6102dd610e4d565b005b60055481565b6102f9676a0a235238e6e0f860c01b6114b0565b61030d678c3f1a78f9f33a3060c01b6114b0565b61032167191d6d3de40606ca60c01b6114b0565b61033567143e874d5d95b07c60c01b6114b0565b600660009054906101000a900460ff16610384576040517f08c379a000000000000000000000000000000000000000000000000000000000815260040161037b906116c9565b60405180910390fd5b610398678c829613bd08a85660c01b6114b0565b6103ac6784fc3bf1597d402160c01b6114b0565b6103c067e7dad3dc22d4581160c01b6114b0565b6103d46716b69567aad2e3ab60c01b6114b0565b600860009054906101000a900473ffffffffffffffffffffffffffffffffffffffff1673ffffffffffffffffffffffffffffffffffffffff168173ffffffffffffffffffffffffffffffffffffffff1603610464576040517f08c379a000000000000000000000000000000000000000000000000000000000815260040161045b90611735565b60405180910390fd5b610478676d401b2445206bbe60c01b6114b0565b61048c6710bf6d1e33418bcd60c01b6114b0565b6104a06775b0f6ccd4015bb860c01b6114b0565b6104b467a70e20d207addf2560c01b6114b0565b6000600760008373ffffffffffffffffffffffffffffffffffffffff1673ffffffffffffffffffffffffffffffffffffffff1681526020019081526020016000205411610536576040517f08c379a000000000000000000000000000000000000000000000000000000000815260040161052d906117a1565b60405180910390fd5b61054a67486757155f113dcf60c01b6114b0565b61055e67ecb36d35cc7e175160c01b6114b0565b61057267e1e9769cc0c814cd60c01b6114b0565b6000600760008373ffffffffffffffffffffffffffffffffffffffff1673ffffffffffffffffffffffffffffffffffffffff1681526020019081526020016000205490506105ca6710ca00e8dc4df72760c01b6114b0565b6000600760008473ffffffffffffffffffffffffffffffffffffffff1673ffffffffffffffffffffffffffffffffffffffff168152602001908152602001600020819055506106236741ea5553df38f96060c01b6114b0565b6106376742e5bcaf6fffa15360c01b6114b0565b7f000000000000000000000000000000000000000000000000000000000000000073ffffffffffffffffffffffffffffffffffffffff1663a9059cbb83836040518363ffffffff1660e01b81526004016106929291906117c1565b6020604051808303816000875af11580156106b1573d6000803e3d6000fd5b505050506040513d601f19601f820116820180604052508101906106d59190611816565b505050565b60035481565b600660019054906101000a900460ff1681565b60076020528060005260406000206000915090505481565b60015481565b600660009054906101000a900460ff1681565b7f000000000000000000000000000000000000000000000000000000000000000081565b600860009054906101000a900473ffffffffffffffffffffffffffffffffffffffff1681565b610782673d8b8d3376e1c6b860c01b6114b0565b61079667548ea894c11e127060c01b6114b0565b6107aa67ab08dc4a85aa722d60c01b6114b0565b6107be67bc1e5a98062a524860c01b6114b0565b60008111610801576040517f08c379a00000000000000000000000000000000000000000000000000000000081526004016107f8906118b5565b60405180910390fd5b61081567f0ae50f3bb39463e60c01b6114b0565b610829677fded5cb03024e4e60c01b6114b0565b61083d674edcc497915044f260c01b6114b0565b610851679b57b298b664c17060c01b6114b0565b600660009054906101000a900460ff16156108a1576040517f08c379a000000000000000000000000000000000000000000000000000000000815260040161089890611921565b60405180910390fd5b6108b56752d98685c6a1e4c160c01b6114b0565b6108c9670871e4aaaab3f45a60c01b6114b0565b6108dd67a003cfc073a22ab160c01b6114b0565b7f000000000000000000000000000000000000000000000000000000000000000073ffffffffffffffffffffffffffffffffffffffff166323b872dd3330846040518463ffffffff1660e01b815260040161093a93929190611941565b6020604051808303816000875af1158015610959573d6000803e3d6000fd5b505050506040513d601f19601f8201168201806040525081019061097d9190611816565b5061099267b14382d0dd23a68960c01b6114b0565b6109a66795dc045e40363ea660c01b6114b0565b600954811115610b84576109c467ac96576274dccb7160c01b6114b0565b6109d86714b8a24b7b414dfb60c01b6114b0565b6109ec6790b80f211b79afe660c01b6114b0565b600060095414610afa57610a0a67f82abd172cc418a360c01b6114b0565b610a1e674a3c2faba9dc783060c01b6114b0565b610a3267ea0c79f66c514af660c01b6114b0565b7f000000000000000000000000000000000000000000000000000000000000000073ffffffffffffffffffffffffffffffffffffffff1663a9059cbb600860009054906101000a900473ffffffffffffffffffffffffffffffffffffffff166009546040518363ffffffff1660e01b8152600401610ab19291906117c1565b6020604051808303816000875af1158015610ad0573d6000803e3d6000fd5b505050506040513d601f19601f82011682018060405250810190610af49190611816565b50610b0f565b610b0e67aff5450c8dab510a60c01b6114b0565b5b610b2367694c402ba54600f460c01b6114b0565b33600860006101000a81548173ffffffffffffffffffffffffffffffffffffffff021916908373ffffffffffffffffffffffffffffffffffffffff160217905550610b786785d194f9c7dbe0e460c01b6114b0565b80600981905550610c60565b610b986729352e81b287016860c01b6114b0565b610bac67c105fec228ee276060c01b6114b0565b610bc067f4d8fe20e893e9d560c01b6114b0565b7f000000000000000000000000000000000000000000000000000000000000000073ffffffffffffffffffffffffffffffffffffffff1663a9059cbb33836040518363ffffffff1660e01b8152600401610c1b9291906117c1565b6020604051808303816000875af1158015610c3a573d6000803e3d6000fd5b505050506040513d601f19601f82011682018060405250810190610c5e9190611816565b505b610c7467e9979512607fd58060c01b6114b0565b610cc681600760003373ffffffffffffffffffffffffffffffffffffffff1673ffffffffffffffffffffffffffffffffffffffff1681526020019081526020016000205461149a90919063ffffffff16565b600760003373ffffffffffffffffffffffffffffffffffffffff1673ffffffffffffffffffffffffffffffffffffffff16815260200190815260200160002081905550610d1d6721df63938ced7f4e60c01b6114b0565b610d31678f86c5d2f1bf86ab60c01b6114b0565b3373ffffffffffffffffffffffffffffffffffffffff167f3fabff0a9c3ecd6814702e247fa9733e5d0aa69e3a38590f92cb18f623a2254d82604051610d7791906114cc565b60405180910390a2610d936733aa7366e6a9003960c01b6114b0565b610da7671afbad79ea9bfe7d60c01b6114b0565b6005548110610df957610dc467595b70fcd464fc1860c01b6114b0565b610dd867c4e40a3a37f0ba8960c01b6114b0565b610dec670958b2d5be3cbfa960c01b6114b0565b610df4610e4d565b610e0e565b610e0d673f1dc52dc66047bc60c01b6114b0565b5b50565b60045481565b60095481565b60025481565b60008054906101000a900473ffffffffffffffffffffffffffffffffffffffff1681565b600a5481565b610e61670ea28c56058ecac960c01b6114b0565b610e7567875081dbd322b1b760c01b6114b0565b610e8967f371402d020162d860c01b6114b0565b610e9d6711f74c29a4c5b06160c01b6114b0565b600660009054906101000a900460ff1615610eed576040517f08c379a0000000000000000000000000000000000000000000000000000000008152600401610ee490611921565b60405180910390fd5b610f0167ef286540ef47b3c960c01b6114b0565b610f156755432eeeb98f19fa60c01b6114b0565b6001600660006101000a81548160ff021916908315150217905550610f446759bbc8ba27fc589260c01b6114b0565b6001600660016101000a81548160ff021916908315150217905550610f736777aebe7608c5051960c01b6114b0565b610f8767cfa276735751acf760c01b6114b0565b600073ffffffffffffffffffffffffffffffffffffffff16600860009054906101000a900473ffffffffffffffffffffffffffffffffffffffff1673ffffffffffffffffffffffffffffffffffffffff161461128157610ff167f035c0e8fea08a7960c01b6114b0565b611005679b267c62e6bff9a460c01b6114b0565b600060076000600860009054906101000a900473ffffffffffffffffffffffffffffffffffffffff1673ffffffffffffffffffffffffffffffffffffffff1673ffffffffffffffffffffffffffffffffffffffff1681526020019081526020016000208190555061108067e57f3141d5960aea60c01b6114b0565b61109467fb07b969e868bb8d60c01b6114b0565b7f000000000000000000000000000000000000000000000000000000000000000073ffffffffffffffffffffffffffffffffffffffff166342842e0e7f000000000000000000000000000000000000000000000000000000000000000073ffffffffffffffffffffffffffffffffffffffff16636352211e6001546040518263ffffffff1660e01b815260040161112b91906114cc565b602060405180830381865afa158015611148573d6000803e3d6000fd5b505050506040513d601f19601f8201168201806040525081019061116c919061198d565b600860009054906101000a900473ffffffffffffffffffffffffffffffffffffffff166001546040518463ffffffff1660e01b81526004016111b093929190611941565b600060405180830381600087803b1580156111ca57600080fd5b505af11580156111de573d6000803e3d6000fd5b505050506111f66791a2eb5777e53ead60c01b6114b0565b61120a67a84d3939591c65e360c01b6114b0565b600860009054906101000a900473ffffffffffffffffffffffffffffffffffffffff1673ffffffffffffffffffffffffffffffffffffffff167fdaec4582d5d9595688c8c98545fdd1c696d41c6aeaeb636737e84ed2f5c00eda60095460405161127491906114cc565b60405180910390a2611482565b61129567b20b447c2403384260c01b6114b0565b6112a96737f910023c540dac60c01b6114b0565b6112bd6750b099cb8aaefa4e60c01b6114b0565b7f000000000000000000000000000000000000000000000000000000000000000073ffffffffffffffffffffffffffffffffffffffff166342842e0e7f000000000000000000000000000000000000000000000000000000000000000073ffffffffffffffffffffffffffffffffffffffff16636352211e6001546040518263ffffffff1660e01b815260040161135491906114cc565b602060405180830381865afa158015611371573d6000803e3d6000fd5b505050506040513d601f19601f82011682018060405250810190611395919061198d565b7f00000000000000000000000000000000000000000000000000000000000000006001546040518463ffffffff1660e01b81526004016113d793929190611a19565b600060405180830381600087803b1580156113f157600080fd5b505af1158015611405573d6000803e3d6000fd5b5050505061141d67351140827f2a6e9c60c01b6114b0565b61143167fb1d6049f862894960c01b6114b0565b600073ffffffffffffffffffffffffffffffffffffffff167fdaec4582d5d9595688c8c98545fdd1c696d41c6aeaeb636737e84ed2f5c00eda60006040516114799190611a8b565b60405180910390a25b565b600081836114929190611ad5565b905092915050565b600081836114a89190611b17565b905092915050565b50565b6000819050919050565b6114c6816114b3565b82525050565b60006020820190506114e160008301846114bd565b92915050565b600080fd5b600073ffffffffffffffffffffffffffffffffffffffff82169050919050565b6000611517826114ec565b9050919050565b6115278161150c565b811461153257600080fd5b50565b6000813590506115448161151e565b92915050565b6000602082840312156115605761155f6114e7565b5b600061156e84828501611535565b91505092915050565b60008115159050919050565b61158c81611577565b82525050565b60006020820190506115a76000830184611583565b92915050565b60006115b8826114ec565b9050919050565b6115c8816115ad565b82525050565b60006020820190506115e360008301846115bf565b92915050565b6115f28161150c565b82525050565b600060208201905061160d60008301846115e9565b92915050565b61161c816114b3565b811461162757600080fd5b50565b60008135905061163981611613565b92915050565b600060208284031215611655576116546114e7565b5b60006116638482850161162a565b91505092915050565b600082825260208201905092915050565b7f41756374696f6e20686173206e6f7420656e6465642079657400000000000000600082015250565b60006116b360198361166c565b91506116be8261167d565b602082019050919050565b600060208201905081810360008301526116e2816116a6565b9050919050565b7f48696768657374206269646465722063616e6e6f7420726566756e6400000000600082015250565b600061171f601c8361166c565b915061172a826116e9565b602082019050919050565b6000602082019050818103600083015261174e81611712565b9050919050565b7f4e6f2062696420746f20726566756e6400000000000000000000000000000000600082015250565b600061178b60108361166c565b915061179682611755565b602082019050919050565b600060208201905081810360008301526117ba8161177e565b9050919050565b60006040820190506117d660008301856115e9565b6117e360208301846114bd565b9392505050565b6117f381611577565b81146117fe57600080fd5b50565b600081519050611810816117ea565b92915050565b60006020828403121561182c5761182b6114e7565b5b600061183a84828501611801565b91505092915050565b7f42696420616d6f756e74206d7573742062652067726561746572207468616e2060008201527f7a65726f00000000000000000000000000000000000000000000000000000000602082015250565b600061189f60248361166c565b91506118aa82611843565b604082019050919050565b600060208201905081810360008301526118ce81611892565b9050919050565b7f41756374696f6e2068617320616c726561647920656e64656400000000000000600082015250565b600061190b60198361166c565b9150611916826118d5565b602082019050919050565b6000602082019050818103600083015261193a816118fe565b9050919050565b600060608201905061195660008301866115e9565b61196360208301856115e9565b61197060408301846114bd565b949350505050565b6000815190506119878161151e565b92915050565b6000602082840312156119a3576119a26114e7565b5b60006119b184828501611978565b91505092915050565b6000819050919050565b60006119df6119da6119d5846114ec565b6119ba565b6114ec565b9050919050565b60006119f1826119c4565b9050919050565b6000611a03826119e6565b9050919050565b611a13816119f8565b82525050565b6000606082019050611a2e60008301866115e9565b611a3b6020830185611a0a565b611a4860408301846114bd565b949350505050565b6000819050919050565b6000611a75611a70611a6b84611a50565b6119ba565b6114b3565b9050919050565b611a8581611a5a565b82525050565b6000602082019050611aa06000830184611a7c565b92915050565b7f4e487b7100000000000000000000000000000000000000000000000000000000600052601160045260246000fd5b6000611ae0826114b3565b9150611aeb836114b3565b9250828202611af9816114b3565b91508282048414831517611b1057611b0f611aa6565b5b5092915050565b6000611b22826114b3565b9150611b2d836114b3565b9250828201905080821115611b4557611b44611aa6565b5b9291505056fea264697066735822122094b549fabbf284cfd29c17f28292a53a9c059cbc7a234cd5515cfc68ef989b0664736f6c63430008120033","opcodes":"PUSH1 0xE0 PUSH1 0x40 MSTORE CALLVALUE DUP1 ISZERO PUSH3 0x11 JUMPI PUSH1 0x0 DUP1 REVERT JUMPDEST POP PUSH1 0x40 MLOAD PUSH3 0x239A CODESIZE SUB DUP1 PUSH3 0x239A DUP4 CODECOPY DUP2 DUP2 ADD PUSH1 0x40 MSTORE DUP2 ADD SWAP1 PUSH3 0x37 SWAP2 SWAP1 PUSH3 0x55E JUMP JUMPDEST PUSH3 0x53 PUSH8 0xBF9A7BDF08B49EC PUSH1 0xC0 SHL PUSH3 0x486 PUSH1 0x20 SHL PUSH1 0x20 SHR JUMP JUMPDEST PUSH3 0x6F PUSH8 0xEDC286EABDF0622F PUSH1 0xC0 SHL PUSH3 0x486 PUSH1 0x20 SHL PUSH1 0x20 SHR JUMP JUMPDEST CALLER PUSH20 0xFFFFFFFFFFFFFFFFFFFFFFFFFFFFFFFFFFFFFFFF AND PUSH1 0xC0 DUP2 PUSH20 0xFFFFFFFFFFFFFFFFFFFFFFFFFFFFFFFFFFFFFFFF AND DUP2 MSTORE POP POP PUSH3 0xBF PUSH8 0x3978162ECC2892A0 PUSH1 0xC0 SHL PUSH3 0x486 PUSH1 0x20 SHL PUSH1 0x20 SHR JUMP JUMPDEST DUP5 PUSH1 0x0 DUP1 PUSH2 0x100 EXP DUP2 SLOAD DUP2 PUSH20 0xFFFFFFFFFFFFFFFFFFFFFFFFFFFFFFFFFFFFFFFF MUL NOT AND SWAP1 DUP4 PUSH20 0xFFFFFFFFFFFFFFFFFFFFFFFFFFFFFFFFFFFFFFFF AND MUL OR SWAP1 SSTORE POP PUSH3 0x11B PUSH8 0x7304D6878E9926DB PUSH1 0xC0 SHL PUSH3 0x486 PUSH1 0x20 SHL PUSH1 0x20 SHR JUMP JUMPDEST DUP4 PUSH1 0x1 DUP2 SWAP1 SSTORE POP PUSH3 0x13E PUSH8 0x4DCEDC81F22E43A1 PUSH1 0xC0 SHL PUSH3 0x486 PUSH1 0x20 SHL PUSH1 0x20 SHR JUMP JUMPDEST DUP3 PUSH1 0x2 DUP2 SWAP1 SSTORE POP PUSH3 0x161 PUSH8 0xA4E85A4162A92D74 PUSH1 0xC0 SHL PUSH3 0x486 PUSH1 0x20 SHL PUSH1 0x20 SHR JUMP JUMPDEST DUP2 PUSH1 0x3 DUP2 SWAP1 SSTORE POP PUSH3 0x184 PUSH8 0xD1F79BDEF649C783 PUSH1 0xC0 SHL PUSH3 0x486 PUSH1 0x20 SHL PUSH1 0x20 SHR JUMP JUMPDEST DUP1 PUSH1 0x4 DUP2 SWAP1 SSTORE POP PUSH3 0x1A7 PUSH8 0x6DEF927375E1AA0B PUSH1 0xC0 SHL PUSH3 0x486 PUSH1 0x20 SHL PUSH1 0x20 SHR JUMP JUMPDEST PUSH3 0x1E0 PUSH3 0x1C9 PUSH1 0x4 SLOAD PUSH1 0x3 SLOAD PUSH3 0x489 PUSH1 0x20 SHL PUSH3 0x1484 OR SWAP1 SWAP2 SWAP1 PUSH1 0x20 SHR JUMP JUMPDEST PUSH1 0x2 SLOAD PUSH3 0x4A1 PUSH1 0x20 SHL PUSH3 0x149A OR SWAP1 SWAP2 SWAP1 PUSH1 0x20 SHR JUMP JUMPDEST PUSH1 0x5 DUP2 SWAP1 SSTORE POP PUSH3 0x202 PUSH8 0xB4F4F01B64400855 PUSH1 0xC0 SHL PUSH3 0x486 PUSH1 0x20 SHL PUSH1 0x20 SHR JUMP JUMPDEST NUMBER PUSH1 0xA DUP2 SWAP1 SSTORE POP PUSH3 0x225 PUSH8 0xF8B693251269624A PUSH1 0xC0 SHL PUSH3 0x486 PUSH1 0x20 SHL PUSH1 0x20 SHR JUMP JUMPDEST PUSH1 0x0 PUSH1 0x6 PUSH1 0x0 PUSH2 0x100 EXP DUP2 SLOAD DUP2 PUSH1 0xFF MUL NOT AND SWAP1 DUP4 ISZERO ISZERO MUL OR SWAP1 SSTORE POP PUSH3 0x25C PUSH8 0x9ACA68E2F55CE565 PUSH1 0xC0 SHL PUSH3 0x486 PUSH1 0x20 SHL PUSH1 0x20 SHR JUMP JUMPDEST PUSH1 0x0 PUSH1 0x6 PUSH1 0x1 PUSH2 0x100 EXP DUP2 SLOAD DUP2 PUSH1 0xFF MUL NOT AND SWAP1 DUP4 ISZERO ISZERO MUL OR SWAP1 SSTORE POP PUSH3 0x293 PUSH8 0xB58B61D3EF89FCB2 PUSH1 0xC0 SHL PUSH3 0x486 PUSH1 0x20 SHL PUSH1 0x20 SHR JUMP JUMPDEST DUP6 PUSH20 0xFFFFFFFFFFFFFFFFFFFFFFFFFFFFFFFFFFFFFFFF AND PUSH1 0x80 DUP2 PUSH20 0xFFFFFFFFFFFFFFFFFFFFFFFFFFFFFFFFFFFFFFFF AND DUP2 MSTORE POP POP PUSH3 0x2E3 PUSH8 0x1F0FF5B779C5AFC7 PUSH1 0xC0 SHL PUSH3 0x486 PUSH1 0x20 SHL PUSH1 0x20 SHR JUMP JUMPDEST DUP5 PUSH20 0xFFFFFFFFFFFFFFFFFFFFFFFFFFFFFFFFFFFFFFFF AND PUSH1 0xA0 DUP2 PUSH20 0xFFFFFFFFFFFFFFFFFFFFFFFFFFFFFFFFFFFFFFFF AND DUP2 MSTORE POP POP PUSH3 0x333 PUSH8 0x85B5B4040EA83EBA PUSH1 0xC0 SHL PUSH3 0x486 PUSH1 0x20 SHL PUSH1 0x20 SHR JUMP JUMPDEST PUSH3 0x34F PUSH8 0xB9223AF08F846480 PUSH1 0xC0 SHL PUSH3 0x486 PUSH1 0x20 SHL PUSH1 0x20 SHR JUMP JUMPDEST PUSH3 0x36B PUSH8 0xDBCFD9FF3BF46DFE PUSH1 0xC0 SHL PUSH3 0x486 PUSH1 0x20 SHL PUSH1 0x20 SHR JUMP JUMPDEST PUSH1 0xC0 MLOAD PUSH20 0xFFFFFFFFFFFFFFFFFFFFFFFFFFFFFFFFFFFFFFFF AND PUSH1 0xA0 MLOAD PUSH20 0xFFFFFFFFFFFFFFFFFFFFFFFFFFFFFFFFFFFFFFFF AND PUSH4 0x6352211E DUP7 PUSH1 0x40 MLOAD DUP3 PUSH4 0xFFFFFFFF AND PUSH1 0xE0 SHL DUP2 MSTORE PUSH1 0x4 ADD PUSH3 0x3C1 SWAP2 SWAP1 PUSH3 0x60B JUMP JUMPDEST PUSH1 0x20 PUSH1 0x40 MLOAD DUP1 DUP4 SUB DUP2 DUP7 GAS STATICCALL ISZERO DUP1 ISZERO PUSH3 0x3DF JUMPI RETURNDATASIZE PUSH1 0x0 DUP1 RETURNDATACOPY RETURNDATASIZE PUSH1 0x0 REVERT JUMPDEST POP POP POP POP PUSH1 0x40 MLOAD RETURNDATASIZE PUSH1 0x1F NOT PUSH1 0x1F DUP3 ADD AND DUP3 ADD DUP1 PUSH1 0x40 MSTORE POP DUP2 ADD SWAP1 PUSH3 0x405 SWAP2 SWAP1 PUSH3 0x628 JUMP JUMPDEST PUSH20 0xFFFFFFFFFFFFFFFFFFFFFFFFFFFFFFFFFFFFFFFF AND EQ PUSH3 0x45E JUMPI PUSH1 0x40 MLOAD PUSH32 0x8C379A000000000000000000000000000000000000000000000000000000000 DUP2 MSTORE PUSH1 0x4 ADD PUSH3 0x455 SWAP1 PUSH3 0x6E1 JUMP JUMPDEST PUSH1 0x40 MLOAD DUP1 SWAP2 SUB SWAP1 REVERT JUMPDEST PUSH3 0x47A PUSH8 0x647DF52E6A3C9790 PUSH1 0xC0 SHL PUSH3 0x486 PUSH1 0x20 SHL PUSH1 0x20 SHR JUMP JUMPDEST POP POP POP POP POP POP PUSH3 0x7B8 JUMP JUMPDEST POP JUMP JUMPDEST PUSH1 0x0 DUP2 DUP4 PUSH3 0x499 SWAP2 SWAP1 PUSH3 0x732 JUMP JUMPDEST SWAP1 POP SWAP3 SWAP2 POP POP JUMP JUMPDEST PUSH1 0x0 DUP2 DUP4 PUSH3 0x4B1 SWAP2 SWAP1 PUSH3 0x77D JUMP JUMPDEST SWAP1 POP SWAP3 SWAP2 POP POP JUMP JUMPDEST PUSH1 0x0 DUP1 REVERT JUMPDEST PUSH1 0x0 PUSH20 0xFFFFFFFFFFFFFFFFFFFFFFFFFFFFFFFFFFFFFFFF DUP3 AND SWAP1 POP SWAP2 SWAP1 POP JUMP JUMPDEST PUSH1 0x0 PUSH3 0x4EB DUP3 PUSH3 0x4BE JUMP JUMPDEST SWAP1 POP SWAP2 SWAP1 POP JUMP JUMPDEST PUSH3 0x4FD DUP2 PUSH3 0x4DE JUMP JUMPDEST DUP2 EQ PUSH3 0x509 JUMPI PUSH1 0x0 DUP1 REVERT JUMPDEST POP JUMP JUMPDEST PUSH1 0x0 DUP2 MLOAD SWAP1 POP PUSH3 0x51D DUP2 PUSH3 0x4F2 JUMP JUMPDEST SWAP3 SWAP2 POP POP JUMP JUMPDEST PUSH1 0x0 DUP2 SWAP1 POP SWAP2 SWAP1 POP JUMP JUMPDEST PUSH3 0x538 DUP2 PUSH3 0x523 JUMP JUMPDEST DUP2 EQ PUSH3 0x544 JUMPI PUSH1 0x0 DUP1 REVERT JUMPDEST POP JUMP JUMPDEST PUSH1 0x0 DUP2 MLOAD SWAP1 POP PUSH3 0x558 DUP2 PUSH3 0x52D JUMP JUMPDEST SWAP3 SWAP2 POP POP JUMP JUMPDEST PUSH1 0x0 DUP1 PUSH1 0x0 DUP1 PUSH1 0x0 DUP1 PUSH1 0xC0 DUP8 DUP10 SUB SLT ISZERO PUSH3 0x57E JUMPI PUSH3 0x57D PUSH3 0x4B9 JUMP JUMPDEST JUMPDEST PUSH1 0x0 PUSH3 0x58E DUP10 DUP3 DUP11 ADD PUSH3 0x50C JUMP JUMPDEST SWAP7 POP POP PUSH1 0x20 PUSH3 0x5A1 DUP10 DUP3 DUP11 ADD PUSH3 0x50C JUMP JUMPDEST SWAP6 POP POP PUSH1 0x40 PUSH3 0x5B4 DUP10 DUP3 DUP11 ADD PUSH3 0x547 JUMP JUMPDEST SWAP5 POP POP PUSH1 0x60 PUSH3 0x5C7 DUP10 DUP3 DUP11 ADD PUSH3 0x547 JUMP JUMPDEST SWAP4 POP POP PUSH1 0x80 PUSH3 0x5DA DUP10 DUP3 DUP11 ADD PUSH3 0x547 JUMP JUMPDEST SWAP3 POP POP PUSH1 0xA0 PUSH3 0x5ED DUP10 DUP3 DUP11 ADD PUSH3 0x547 JUMP JUMPDEST SWAP2 POP POP SWAP3 SWAP6 POP SWAP3 SWAP6 POP SWAP3 SWAP6 JUMP JUMPDEST PUSH3 0x605 DUP2 PUSH3 0x523 JUMP JUMPDEST DUP3 MSTORE POP POP JUMP JUMPDEST PUSH1 0x0 PUSH1 0x20 DUP3 ADD SWAP1 POP PUSH3 0x622 PUSH1 0x0 DUP4 ADD DUP5 PUSH3 0x5FA JUMP JUMPDEST SWAP3 SWAP2 POP POP JUMP JUMPDEST PUSH1 0x0 PUSH1 0x20 DUP3 DUP5 SUB SLT ISZERO PUSH3 0x641 JUMPI PUSH3 0x640 PUSH3 0x4B9 JUMP JUMPDEST JUMPDEST PUSH1 0x0 PUSH3 0x651 DUP5 DUP3 DUP6 ADD PUSH3 0x50C JUMP JUMPDEST SWAP2 POP POP SWAP3 SWAP2 POP POP JUMP JUMPDEST PUSH1 0x0 DUP3 DUP3 MSTORE PUSH1 0x20 DUP3 ADD SWAP1 POP SWAP3 SWAP2 POP POP JUMP JUMPDEST PUSH32 0x4E465420746F6B656E20496420646F6573206E6F742062656C6F6E6720746F20 PUSH1 0x0 DUP3 ADD MSTORE PUSH32 0x7468652041756374696F6E2773204F776E657200000000000000000000000000 PUSH1 0x20 DUP3 ADD MSTORE POP JUMP JUMPDEST PUSH1 0x0 PUSH3 0x6C9 PUSH1 0x33 DUP4 PUSH3 0x65A JUMP JUMPDEST SWAP2 POP PUSH3 0x6D6 DUP3 PUSH3 0x66B JUMP JUMPDEST PUSH1 0x40 DUP3 ADD SWAP1 POP SWAP2 SWAP1 POP JUMP JUMPDEST PUSH1 0x0 PUSH1 0x20 DUP3 ADD SWAP1 POP DUP2 DUP2 SUB PUSH1 0x0 DUP4 ADD MSTORE PUSH3 0x6FC DUP2 PUSH3 0x6BA JUMP JUMPDEST SWAP1 POP SWAP2 SWAP1 POP JUMP JUMPDEST PUSH32 0x4E487B7100000000000000000000000000000000000000000000000000000000 PUSH1 0x0 MSTORE PUSH1 0x11 PUSH1 0x4 MSTORE PUSH1 0x24 PUSH1 0x0 REVERT JUMPDEST PUSH1 0x0 PUSH3 0x73F DUP3 PUSH3 0x523 JUMP JUMPDEST SWAP2 POP PUSH3 0x74C DUP4 PUSH3 0x523 JUMP JUMPDEST SWAP3 POP DUP3 DUP3 MUL PUSH3 0x75C DUP2 PUSH3 0x523 JUMP JUMPDEST SWAP2 POP DUP3 DUP3 DIV DUP5 EQ DUP4 ISZERO OR PUSH3 0x776 JUMPI PUSH3 0x775 PUSH3 0x703 JUMP JUMPDEST JUMPDEST POP SWAP3 SWAP2 POP POP JUMP JUMPDEST PUSH1 0x0 PUSH3 0x78A DUP3 PUSH3 0x523 JUMP JUMPDEST SWAP2 POP PUSH3 0x797 DUP4 PUSH3 0x523 JUMP JUMPDEST SWAP3 POP DUP3 DUP3 ADD SWAP1 POP DUP1 DUP3 GT ISZERO PUSH3 0x7B2 JUMPI PUSH3 0x7B1 PUSH3 0x703 JUMP JUMPDEST JUMPDEST SWAP3 SWAP2 POP POP JUMP JUMPDEST PUSH1 0x80 MLOAD PUSH1 0xA0 MLOAD PUSH1 0xC0 MLOAD PUSH2 0x1B81 PUSH3 0x819 PUSH1 0x0 CODECOPY PUSH1 0x0 DUP2 DUP2 PUSH2 0x726 ADD MSTORE PUSH2 0x1397 ADD MSTORE PUSH1 0x0 DUP2 DUP2 PUSH2 0x1096 ADD MSTORE DUP2 DUP2 PUSH2 0x10D2 ADD MSTORE DUP2 DUP2 PUSH2 0x12BF ADD MSTORE PUSH2 0x12FB ADD MSTORE PUSH1 0x0 DUP2 DUP2 PUSH2 0x639 ADD MSTORE DUP2 DUP2 PUSH2 0x8DF ADD MSTORE DUP2 DUP2 PUSH2 0xA34 ADD MSTORE PUSH2 0xBC2 ADD MSTORE PUSH2 0x1B81 PUSH1 0x0 RETURN INVALID PUSH1 0x80 PUSH1 0x40 MSTORE CALLVALUE DUP1 ISZERO PUSH2 0x10 JUMPI PUSH1 0x0 DUP1 REVERT JUMPDEST POP PUSH1 0x4 CALLDATASIZE LT PUSH2 0x100 JUMPI PUSH1 0x0 CALLDATALOAD PUSH1 0xE0 SHR DUP1 PUSH4 0x91F90157 GT PUSH2 0x97 JUMPI DUP1 PUSH4 0xDB2E1EED GT PUSH2 0x66 JUMPI DUP1 PUSH4 0xDB2E1EED EQ PUSH2 0x27B JUMPI DUP1 PUSH4 0xDF241CB9 EQ PUSH2 0x299 JUMPI DUP1 PUSH4 0xEB54F9EC EQ PUSH2 0x2B7 JUMPI DUP1 PUSH4 0xFE67A54B EQ PUSH2 0x2D5 JUMPI PUSH2 0x100 JUMP JUMPDEST DUP1 PUSH4 0x91F90157 EQ PUSH2 0x205 JUMPI DUP1 PUSH4 0x9979EF45 EQ PUSH2 0x223 JUMPI DUP1 PUSH4 0xD3642A88 EQ PUSH2 0x23F JUMPI DUP1 PUSH4 0xD57BDE79 EQ PUSH2 0x25D JUMPI PUSH2 0x100 JUMP JUMPDEST DUP1 PUSH4 0x62EA82DB GT PUSH2 0xD3 JUMPI DUP1 PUSH4 0x62EA82DB EQ PUSH2 0x17B JUMPI DUP1 PUSH4 0x7E830574 EQ PUSH2 0x1AB JUMPI DUP1 PUSH4 0x86433374 EQ PUSH2 0x1C9 JUMPI DUP1 PUSH4 0x8DA5CB5B EQ PUSH2 0x1E7 JUMPI PUSH2 0x100 JUMP JUMPDEST DUP1 PUSH4 0x1D0806AE EQ PUSH2 0x105 JUMPI DUP1 PUSH4 0x2BF0D538 EQ PUSH2 0x123 JUMPI DUP1 PUSH4 0x3103EA62 EQ PUSH2 0x13F JUMPI DUP1 PUSH4 0x438E897A EQ PUSH2 0x15D JUMPI JUMPDEST PUSH1 0x0 DUP1 REVERT JUMPDEST PUSH2 0x10D PUSH2 0x2DF JUMP JUMPDEST PUSH1 0x40 MLOAD PUSH2 0x11A SWAP2 SWAP1 PUSH2 0x14CC JUMP JUMPDEST PUSH1 0x40 MLOAD DUP1 SWAP2 SUB SWAP1 RETURN JUMPDEST PUSH2 0x13D PUSH1 0x4 DUP1 CALLDATASIZE SUB DUP2 ADD SWAP1 PUSH2 0x138 SWAP2 SWAP1 PUSH2 0x154A JUMP JUMPDEST PUSH2 0x2E5 JUMP JUMPDEST STOP JUMPDEST PUSH2 0x147 PUSH2 0x6DA JUMP JUMPDEST PUSH1 0x40 MLOAD PUSH2 0x154 SWAP2 SWAP1 PUSH2 0x14CC JUMP JUMPDEST PUSH1 0x40 MLOAD DUP1 SWAP2 SUB SWAP1 RETURN JUMPDEST PUSH2 0x165 PUSH2 0x6E0 JUMP JUMPDEST PUSH1 0x40 MLOAD PUSH2 0x172 SWAP2 SWAP1 PUSH2 0x1592 JUMP JUMPDEST PUSH1 0x40 MLOAD DUP1 SWAP2 SUB SWAP1 RETURN JUMPDEST PUSH2 0x195 PUSH1 0x4 DUP1 CALLDATASIZE SUB DUP2 ADD SWAP1 PUSH2 0x190 SWAP2 SWAP1 PUSH2 0x154A JUMP JUMPDEST PUSH2 0x6F3 JUMP JUMPDEST PUSH1 0x40 MLOAD PUSH2 0x1A2 SWAP2 SWAP1 PUSH2 0x14CC JUMP JUMPDEST PUSH1 0x40 MLOAD DUP1 SWAP2 SUB SWAP1 RETURN JUMPDEST PUSH2 0x1B3 PUSH2 0x70B JUMP JUMPDEST PUSH1 0x40 MLOAD PUSH2 0x1C0 SWAP2 SWAP1 PUSH2 0x14CC JUMP JUMPDEST PUSH1 0x40 MLOAD DUP1 SWAP2 SUB SWAP1 RETURN JUMPDEST PUSH2 0x1D1 PUSH2 0x711 JUMP JUMPDEST PUSH1 0x40 MLOAD PUSH2 0x1DE SWAP2 SWAP1 PUSH2 0x1592 JUMP JUMPDEST PUSH1 0x40 MLOAD DUP1 SWAP2 SUB SWAP1 RETURN JUMPDEST PUSH2 0x1EF PUSH2 0x724 JUMP JUMPDEST PUSH1 0x40 MLOAD PUSH2 0x1FC SWAP2 SWAP1 PUSH2 0x15CE JUMP JUMPDEST PUSH1 0x40 MLOAD DUP1 SWAP2 SUB SWAP1 RETURN JUMPDEST PUSH2 0x20D PUSH2 0x748 JUMP JUMPDEST PUSH1 0x40 MLOAD PUSH2 0x21A SWAP2 SWAP1 PUSH2 0x15F8 JUMP JUMPDEST PUSH1 0x40 MLOAD DUP1 SWAP2 SUB SWAP1 RETURN JUMPDEST PUSH2 0x23D PUSH1 0x4 DUP1 CALLDATASIZE SUB DUP2 ADD SWAP1 PUSH2 0x238 SWAP2 SWAP1 PUSH2 0x163F JUMP JUMPDEST PUSH2 0x76E JUMP JUMPDEST STOP JUMPDEST PUSH2 0x247 PUSH2 0xE11 JUMP JUMPDEST PUSH1 0x40 MLOAD PUSH2 0x254 SWAP2 SWAP1 PUSH2 0x14CC JUMP JUMPDEST PUSH1 0x40 MLOAD DUP1 SWAP2 SUB SWAP1 RETURN JUMPDEST PUSH2 0x265 PUSH2 0xE17 JUMP JUMPDEST PUSH1 0x40 MLOAD PUSH2 0x272 SWAP2 SWAP1 PUSH2 0x14CC JUMP JUMPDEST PUSH1 0x40 MLOAD DUP1 SWAP2 SUB SWAP1 RETURN JUMPDEST PUSH2 0x283 PUSH2 0xE1D JUMP JUMPDEST PUSH1 0x40 MLOAD PUSH2 0x290 SWAP2 SWAP1 PUSH2 0x14CC JUMP JUMPDEST PUSH1 0x40 MLOAD DUP1 SWAP2 SUB SWAP1 RETURN JUMPDEST PUSH2 0x2A1 PUSH2 0xE23 JUMP JUMPDEST PUSH1 0x40 MLOAD PUSH2 0x2AE SWAP2 SWAP1 PUSH2 0x15F8 JUMP JUMPDEST PUSH1 0x40 MLOAD DUP1 SWAP2 SUB SWAP1 RETURN JUMPDEST PUSH2 0x2BF PUSH2 0xE47 JUMP JUMPDEST PUSH1 0x40 MLOAD PUSH2 0x2CC SWAP2 SWAP1 PUSH2 0x14CC JUMP JUMPDEST PUSH1 0x40 MLOAD DUP1 SWAP2 SUB SWAP1 RETURN JUMPDEST PUSH2 0x2DD PUSH2 0xE4D JUMP JUMPDEST STOP JUMPDEST PUSH1 0x5 SLOAD DUP2 JUMP JUMPDEST PUSH2 0x2F9 PUSH8 0x6A0A235238E6E0F8 PUSH1 0xC0 SHL PUSH2 0x14B0 JUMP JUMPDEST PUSH2 0x30D PUSH8 0x8C3F1A78F9F33A30 PUSH1 0xC0 SHL PUSH2 0x14B0 JUMP JUMPDEST PUSH2 0x321 PUSH8 0x191D6D3DE40606CA PUSH1 0xC0 SHL PUSH2 0x14B0 JUMP JUMPDEST PUSH2 0x335 PUSH8 0x143E874D5D95B07C PUSH1 0xC0 SHL PUSH2 0x14B0 JUMP JUMPDEST PUSH1 0x6 PUSH1 0x0 SWAP1 SLOAD SWAP1 PUSH2 0x100 EXP SWAP1 DIV PUSH1 0xFF AND PUSH2 0x384 JUMPI PUSH1 0x40 MLOAD PUSH32 0x8C379A000000000000000000000000000000000000000000000000000000000 DUP2 MSTORE PUSH1 0x4 ADD PUSH2 0x37B SWAP1 PUSH2 0x16C9 JUMP JUMPDEST PUSH1 0x40 MLOAD DUP1 SWAP2 SUB SWAP1 REVERT JUMPDEST PUSH2 0x398 PUSH8 0x8C829613BD08A856 PUSH1 0xC0 SHL PUSH2 0x14B0 JUMP JUMPDEST PUSH2 0x3AC PUSH8 0x84FC3BF1597D4021 PUSH1 0xC0 SHL PUSH2 0x14B0 JUMP JUMPDEST PUSH2 0x3C0 PUSH8 0xE7DAD3DC22D45811 PUSH1 0xC0 SHL PUSH2 0x14B0 JUMP JUMPDEST PUSH2 0x3D4 PUSH8 0x16B69567AAD2E3AB PUSH1 0xC0 SHL PUSH2 0x14B0 JUMP JUMPDEST PUSH1 0x8 PUSH1 0x0 SWAP1 SLOAD SWAP1 PUSH2 0x100 EXP SWAP1 DIV PUSH20 0xFFFFFFFFFFFFFFFFFFFFFFFFFFFFFFFFFFFFFFFF AND PUSH20 0xFFFFFFFFFFFFFFFFFFFFFFFFFFFFFFFFFFFFFFFF AND DUP2 PUSH20 0xFFFFFFFFFFFFFFFFFFFFFFFFFFFFFFFFFFFFFFFF AND SUB PUSH2 0x464 JUMPI PUSH1 0x40 MLOAD PUSH32 0x8C379A000000000000000000000000000000000000000000000000000000000 DUP2 MSTORE PUSH1 0x4 ADD PUSH2 0x45B SWAP1 PUSH2 0x1735 JUMP JUMPDEST PUSH1 0x40 MLOAD DUP1 SWAP2 SUB SWAP1 REVERT JUMPDEST PUSH2 0x478 PUSH8 0x6D401B2445206BBE PUSH1 0xC0 SHL PUSH2 0x14B0 JUMP JUMPDEST PUSH2 0x48C PUSH8 0x10BF6D1E33418BCD PUSH1 0xC0 SHL PUSH2 0x14B0 JUMP JUMPDEST PUSH2 0x4A0 PUSH8 0x75B0F6CCD4015BB8 PUSH1 0xC0 SHL PUSH2 0x14B0 JUMP JUMPDEST PUSH2 0x4B4 PUSH8 0xA70E20D207ADDF25 PUSH1 0xC0 SHL PUSH2 0x14B0 JUMP JUMPDEST PUSH1 0x0 PUSH1 0x7 PUSH1 0x0 DUP4 PUSH20 0xFFFFFFFFFFFFFFFFFFFFFFFFFFFFFFFFFFFFFFFF AND PUSH20 0xFFFFFFFFFFFFFFFFFFFFFFFFFFFFFFFFFFFFFFFF AND DUP2 MSTORE PUSH1 0x20 ADD SWAP1 DUP2 MSTORE PUSH1 0x20 ADD PUSH1 0x0 KECCAK256 SLOAD GT PUSH2 0x536 JUMPI PUSH1 0x40 MLOAD PUSH32 0x8C379A000000000000000000000000000000000000000000000000000000000 DUP2 MSTORE PUSH1 0x4 ADD PUSH2 0x52D SWAP1 PUSH2 0x17A1 JUMP JUMPDEST PUSH1 0x40 MLOAD DUP1 SWAP2 SUB SWAP1 REVERT JUMPDEST PUSH2 0x54A PUSH8 0x486757155F113DCF PUSH1 0xC0 SHL PUSH2 0x14B0 JUMP JUMPDEST PUSH2 0x55E PUSH8 0xECB36D35CC7E1751 PUSH1 0xC0 SHL PUSH2 0x14B0 JUMP JUMPDEST PUSH2 0x572 PUSH8 0xE1E9769CC0C814CD PUSH1 0xC0 SHL PUSH2 0x14B0 JUMP JUMPDEST PUSH1 0x0 PUSH1 0x7 PUSH1 0x0 DUP4 PUSH20 0xFFFFFFFFFFFFFFFFFFFFFFFFFFFFFFFFFFFFFFFF AND PUSH20 0xFFFFFFFFFFFFFFFFFFFFFFFFFFFFFFFFFFFFFFFF AND DUP2 MSTORE PUSH1 0x20 ADD SWAP1 DUP2 MSTORE PUSH1 0x20 ADD PUSH1 0x0 KECCAK256 SLOAD SWAP1 POP PUSH2 0x5CA PUSH8 0x10CA00E8DC4DF727 PUSH1 0xC0 SHL PUSH2 0x14B0 JUMP JUMPDEST PUSH1 0x0 PUSH1 0x7 PUSH1 0x0 DUP5 PUSH20 0xFFFFFFFFFFFFFFFFFFFFFFFFFFFFFFFFFFFFFFFF AND PUSH20 0xFFFFFFFFFFFFFFFFFFFFFFFFFFFFFFFFFFFFFFFF AND DUP2 MSTORE PUSH1 0x20 ADD SWAP1 DUP2 MSTORE PUSH1 0x20 ADD PUSH1 0x0 KECCAK256 DUP2 SWAP1 SSTORE POP PUSH2 0x623 PUSH8 0x41EA5553DF38F960 PUSH1 0xC0 SHL PUSH2 0x14B0 JUMP JUMPDEST PUSH2 0x637 PUSH8 0x42E5BCAF6FFFA153 PUSH1 0xC0 SHL PUSH2 0x14B0 JUMP JUMPDEST PUSH32 0x0 PUSH20 0xFFFFFFFFFFFFFFFFFFFFFFFFFFFFFFFFFFFFFFFF AND PUSH4 0xA9059CBB DUP4 DUP4 PUSH1 0x40 MLOAD DUP4 PUSH4 0xFFFFFFFF AND PUSH1 0xE0 SHL DUP2 MSTORE PUSH1 0x4 ADD PUSH2 0x692 SWAP3 SWAP2 SWAP1 PUSH2 0x17C1 JUMP JUMPDEST PUSH1 0x20 PUSH1 0x40 MLOAD DUP1 DUP4 SUB DUP2 PUSH1 0x0 DUP8 GAS CALL ISZERO DUP1 ISZERO PUSH2 0x6B1 JUMPI RETURNDATASIZE PUSH1 0x0 DUP1 RETURNDATACOPY RETURNDATASIZE PUSH1 0x0 REVERT JUMPDEST POP POP POP POP PUSH1 0x40 MLOAD RETURNDATASIZE PUSH1 0x1F NOT PUSH1 0x1F DUP3 ADD AND DUP3 ADD DUP1 PUSH1 0x40 MSTORE POP DUP2 ADD SWAP1 PUSH2 0x6D5 SWAP2 SWAP1 PUSH2 0x1816 JUMP JUMPDEST POP POP POP JUMP JUMPDEST PUSH1 0x3 SLOAD DUP2 JUMP JUMPDEST PUSH1 0x6 PUSH1 0x1 SWAP1 SLOAD SWAP1 PUSH2 0x100 EXP SWAP1 DIV PUSH1 0xFF AND DUP2 JUMP JUMPDEST PUSH1 0x7 PUSH1 0x20 MSTORE DUP1 PUSH1 0x0 MSTORE PUSH1 0x40 PUSH1 0x0 KECCAK256 PUSH1 0x0 SWAP2 POP SWAP1 POP SLOAD DUP2 JUMP JUMPDEST PUSH1 0x1 SLOAD DUP2 JUMP JUMPDEST PUSH1 0x6 PUSH1 0x0 SWAP1 SLOAD SWAP1 PUSH2 0x100 EXP SWAP1 DIV PUSH1 0xFF AND DUP2 JUMP JUMPDEST PUSH32 0x0 DUP2 JUMP JUMPDEST PUSH1 0x8 PUSH1 0x0 SWAP1 SLOAD SWAP1 PUSH2 0x100 EXP SWAP1 DIV PUSH20 0xFFFFFFFFFFFFFFFFFFFFFFFFFFFFFFFFFFFFFFFF AND DUP2 JUMP JUMPDEST PUSH2 0x782 PUSH8 0x3D8B8D3376E1C6B8 PUSH1 0xC0 SHL PUSH2 0x14B0 JUMP JUMPDEST PUSH2 0x796 PUSH8 0x548EA894C11E1270 PUSH1 0xC0 SHL PUSH2 0x14B0 JUMP JUMPDEST PUSH2 0x7AA PUSH8 0xAB08DC4A85AA722D PUSH1 0xC0 SHL PUSH2 0x14B0 JUMP JUMPDEST PUSH2 0x7BE PUSH8 0xBC1E5A98062A5248 PUSH1 0xC0 SHL PUSH2 0x14B0 JUMP JUMPDEST PUSH1 0x0 DUP2 GT PUSH2 0x801 JUMPI PUSH1 0x40 MLOAD PUSH32 0x8C379A000000000000000000000000000000000000000000000000000000000 DUP2 MSTORE PUSH1 0x4 ADD PUSH2 0x7F8 SWAP1 PUSH2 0x18B5 JUMP JUMPDEST PUSH1 0x40 MLOAD DUP1 SWAP2 SUB SWAP1 REVERT JUMPDEST PUSH2 0x815 PUSH8 0xF0AE50F3BB39463E PUSH1 0xC0 SHL PUSH2 0x14B0 JUMP JUMPDEST PUSH2 0x829 PUSH8 0x7FDED5CB03024E4E PUSH1 0xC0 SHL PUSH2 0x14B0 JUMP JUMPDEST PUSH2 0x83D PUSH8 0x4EDCC497915044F2 PUSH1 0xC0 SHL PUSH2 0x14B0 JUMP JUMPDEST PUSH2 0x851 PUSH8 0x9B57B298B664C170 PUSH1 0xC0 SHL PUSH2 0x14B0 JUMP JUMPDEST PUSH1 0x6 PUSH1 0x0 SWAP1 SLOAD SWAP1 PUSH2 0x100 EXP SWAP1 DIV PUSH1 0xFF AND ISZERO PUSH2 0x8A1 JUMPI PUSH1 0x40 MLOAD PUSH32 0x8C379A000000000000000000000000000000000000000000000000000000000 DUP2 MSTORE PUSH1 0x4 ADD PUSH2 0x898 SWAP1 PUSH2 0x1921 JUMP JUMPDEST PUSH1 0x40 MLOAD DUP1 SWAP2 SUB SWAP1 REVERT JUMPDEST PUSH2 0x8B5 PUSH8 0x52D98685C6A1E4C1 PUSH1 0xC0 SHL PUSH2 0x14B0 JUMP JUMPDEST PUSH2 0x8C9 PUSH8 0x871E4AAAAB3F45A PUSH1 0xC0 SHL PUSH2 0x14B0 JUMP JUMPDEST PUSH2 0x8DD PUSH8 0xA003CFC073A22AB1 PUSH1 0xC0 SHL PUSH2 0x14B0 JUMP JUMPDEST PUSH32 0x0 PUSH20 0xFFFFFFFFFFFFFFFFFFFFFFFFFFFFFFFFFFFFFFFF AND PUSH4 0x23B872DD CALLER ADDRESS DUP5 PUSH1 0x40 MLOAD DUP5 PUSH4 0xFFFFFFFF AND PUSH1 0xE0 SHL DUP2 MSTORE PUSH1 0x4 ADD PUSH2 0x93A SWAP4 SWAP3 SWAP2 SWAP1 PUSH2 0x1941 JUMP JUMPDEST PUSH1 0x20 PUSH1 0x40 MLOAD DUP1 DUP4 SUB DUP2 PUSH1 0x0 DUP8 GAS CALL ISZERO DUP1 ISZERO PUSH2 0x959 JUMPI RETURNDATASIZE PUSH1 0x0 DUP1 RETURNDATACOPY RETURNDATASIZE PUSH1 0x0 REVERT JUMPDEST POP POP POP POP PUSH1 0x40 MLOAD RETURNDATASIZE PUSH1 0x1F NOT PUSH1 0x1F DUP3 ADD AND DUP3 ADD DUP1 PUSH1 0x40 MSTORE POP DUP2 ADD SWAP1 PUSH2 0x97D SWAP2 SWAP1 PUSH2 0x1816 JUMP JUMPDEST POP PUSH2 0x992 PUSH8 0xB14382D0DD23A689 PUSH1 0xC0 SHL PUSH2 0x14B0 JUMP JUMPDEST PUSH2 0x9A6 PUSH8 0x95DC045E40363EA6 PUSH1 0xC0 SHL PUSH2 0x14B0 JUMP JUMPDEST PUSH1 0x9 SLOAD DUP2 GT ISZERO PUSH2 0xB84 JUMPI PUSH2 0x9C4 PUSH8 0xAC96576274DCCB71 PUSH1 0xC0 SHL PUSH2 0x14B0 JUMP JUMPDEST PUSH2 0x9D8 PUSH8 0x14B8A24B7B414DFB PUSH1 0xC0 SHL PUSH2 0x14B0 JUMP JUMPDEST PUSH2 0x9EC PUSH8 0x90B80F211B79AFE6 PUSH1 0xC0 SHL PUSH2 0x14B0 JUMP JUMPDEST PUSH1 0x0 PUSH1 0x9 SLOAD EQ PUSH2 0xAFA JUMPI PUSH2 0xA0A PUSH8 0xF82ABD172CC418A3 PUSH1 0xC0 SHL PUSH2 0x14B0 JUMP JUMPDEST PUSH2 0xA1E PUSH8 0x4A3C2FABA9DC7830 PUSH1 0xC0 SHL PUSH2 0x14B0 JUMP JUMPDEST PUSH2 0xA32 PUSH8 0xEA0C79F66C514AF6 PUSH1 0xC0 SHL PUSH2 0x14B0 JUMP JUMPDEST PUSH32 0x0 PUSH20 0xFFFFFFFFFFFFFFFFFFFFFFFFFFFFFFFFFFFFFFFF AND PUSH4 0xA9059CBB PUSH1 0x8 PUSH1 0x0 SWAP1 SLOAD SWAP1 PUSH2 0x100 EXP SWAP1 DIV PUSH20 0xFFFFFFFFFFFFFFFFFFFFFFFFFFFFFFFFFFFFFFFF AND PUSH1 0x9 SLOAD PUSH1 0x40 MLOAD DUP4 PUSH4 0xFFFFFFFF AND PUSH1 0xE0 SHL DUP2 MSTORE PUSH1 0x4 ADD PUSH2 0xAB1 SWAP3 SWAP2 SWAP1 PUSH2 0x17C1 JUMP JUMPDEST PUSH1 0x20 PUSH1 0x40 MLOAD DUP1 DUP4 SUB DUP2 PUSH1 0x0 DUP8 GAS CALL ISZERO DUP1 ISZERO PUSH2 0xAD0 JUMPI RETURNDATASIZE PUSH1 0x0 DUP1 RETURNDATACOPY RETURNDATASIZE PUSH1 0x0 REVERT JUMPDEST POP POP POP POP PUSH1 0x40 MLOAD RETURNDATASIZE PUSH1 0x1F NOT PUSH1 0x1F DUP3 ADD AND DUP3 ADD DUP1 PUSH1 0x40 MSTORE POP DUP2 ADD SWAP1 PUSH2 0xAF4 SWAP2 SWAP1 PUSH2 0x1816 JUMP JUMPDEST POP PUSH2 0xB0F JUMP JUMPDEST PUSH2 0xB0E PUSH8 0xAFF5450C8DAB510A PUSH1 0xC0 SHL PUSH2 0x14B0 JUMP JUMPDEST JUMPDEST PUSH2 0xB23 PUSH8 0x694C402BA54600F4 PUSH1 0xC0 SHL PUSH2 0x14B0 JUMP JUMPDEST CALLER PUSH1 0x8 PUSH1 0x0 PUSH2 0x100 EXP DUP2 SLOAD DUP2 PUSH20 0xFFFFFFFFFFFFFFFFFFFFFFFFFFFFFFFFFFFFFFFF MUL NOT AND SWAP1 DUP4 PUSH20 0xFFFFFFFFFFFFFFFFFFFFFFFFFFFFFFFFFFFFFFFF AND MUL OR SWAP1 SSTORE POP PUSH2 0xB78 PUSH8 0x85D194F9C7DBE0E4 PUSH1 0xC0 SHL PUSH2 0x14B0 JUMP JUMPDEST DUP1 PUSH1 0x9 DUP2 SWAP1 SSTORE POP PUSH2 0xC60 JUMP JUMPDEST PUSH2 0xB98 PUSH8 0x29352E81B2870168 PUSH1 0xC0 SHL PUSH2 0x14B0 JUMP JUMPDEST PUSH2 0xBAC PUSH8 0xC105FEC228EE2760 PUSH1 0xC0 SHL PUSH2 0x14B0 JUMP JUMPDEST PUSH2 0xBC0 PUSH8 0xF4D8FE20E893E9D5 PUSH1 0xC0 SHL PUSH2 0x14B0 JUMP JUMPDEST PUSH32 0x0 PUSH20 0xFFFFFFFFFFFFFFFFFFFFFFFFFFFFFFFFFFFFFFFF AND PUSH4 0xA9059CBB CALLER DUP4 PUSH1 0x40 MLOAD DUP4 PUSH4 0xFFFFFFFF AND PUSH1 0xE0 SHL DUP2 MSTORE PUSH1 0x4 ADD PUSH2 0xC1B SWAP3 SWAP2 SWAP1 PUSH2 0x17C1 JUMP JUMPDEST PUSH1 0x20 PUSH1 0x40 MLOAD DUP1 DUP4 SUB DUP2 PUSH1 0x0 DUP8 GAS CALL ISZERO DUP1 ISZERO PUSH2 0xC3A JUMPI RETURNDATASIZE PUSH1 0x0 DUP1 RETURNDATACOPY RETURNDATASIZE PUSH1 0x0 REVERT JUMPDEST POP POP POP POP PUSH1 0x40 MLOAD RETURNDATASIZE PUSH1 0x1F NOT PUSH1 0x1F DUP3 ADD AND DUP3 ADD DUP1 PUSH1 0x40 MSTORE POP DUP2 ADD SWAP1 PUSH2 0xC5E SWAP2 SWAP1 PUSH2 0x1816 JUMP JUMPDEST POP JUMPDEST PUSH2 0xC74 PUSH8 0xE9979512607FD580 PUSH1 0xC0 SHL PUSH2 0x14B0 JUMP JUMPDEST PUSH2 0xCC6 DUP2 PUSH1 0x7 PUSH1 0x0 CALLER PUSH20 0xFFFFFFFFFFFFFFFFFFFFFFFFFFFFFFFFFFFFFFFF AND PUSH20 0xFFFFFFFFFFFFFFFFFFFFFFFFFFFFFFFFFFFFFFFF AND DUP2 MSTORE PUSH1 0x20 ADD SWAP1 DUP2 MSTORE PUSH1 0x20 ADD PUSH1 0x0 KECCAK256 SLOAD PUSH2 0x149A SWAP1 SWAP2 SWAP1 PUSH4 0xFFFFFFFF AND JUMP JUMPDEST PUSH1 0x7 PUSH1 0x0 CALLER PUSH20 0xFFFFFFFFFFFFFFFFFFFFFFFFFFFFFFFFFFFFFFFF AND PUSH20 0xFFFFFFFFFFFFFFFFFFFFFFFFFFFFFFFFFFFFFFFF AND DUP2 MSTORE PUSH1 0x20 ADD SWAP1 DUP2 MSTORE PUSH1 0x20 ADD PUSH1 0x0 KECCAK256 DUP2 SWAP1 SSTORE POP PUSH2 0xD1D PUSH8 0x21DF63938CED7F4E PUSH1 0xC0 SHL PUSH2 0x14B0 JUMP JUMPDEST PUSH2 0xD31 PUSH8 0x8F86C5D2F1BF86AB PUSH1 0xC0 SHL PUSH2 0x14B0 JUMP JUMPDEST CALLER PUSH20 0xFFFFFFFFFFFFFFFFFFFFFFFFFFFFFFFFFFFFFFFF AND PUSH32 0x3FABFF0A9C3ECD6814702E247FA9733E5D0AA69E3A38590F92CB18F623A2254D DUP3 PUSH1 0x40 MLOAD PUSH2 0xD77 SWAP2 SWAP1 PUSH2 0x14CC JUMP JUMPDEST PUSH1 0x40 MLOAD DUP1 SWAP2 SUB SWAP1 LOG2 PUSH2 0xD93 PUSH8 0x33AA7366E6A90039 PUSH1 0xC0 SHL PUSH2 0x14B0 JUMP JUMPDEST PUSH2 0xDA7 PUSH8 0x1AFBAD79EA9BFE7D PUSH1 0xC0 SHL PUSH2 0x14B0 JUMP JUMPDEST PUSH1 0x5 SLOAD DUP2 LT PUSH2 0xDF9 JUMPI PUSH2 0xDC4 PUSH8 0x595B70FCD464FC18 PUSH1 0xC0 SHL PUSH2 0x14B0 JUMP JUMPDEST PUSH2 0xDD8 PUSH8 0xC4E40A3A37F0BA89 PUSH1 0xC0 SHL PUSH2 0x14B0 JUMP JUMPDEST PUSH2 0xDEC PUSH8 0x958B2D5BE3CBFA9 PUSH1 0xC0 SHL PUSH2 0x14B0 JUMP JUMPDEST PUSH2 0xDF4 PUSH2 0xE4D JUMP JUMPDEST PUSH2 0xE0E JUMP JUMPDEST PUSH2 0xE0D PUSH8 0x3F1DC52DC66047BC PUSH1 0xC0 SHL PUSH2 0x14B0 JUMP JUMPDEST JUMPDEST POP JUMP JUMPDEST PUSH1 0x4 SLOAD DUP2 JUMP JUMPDEST PUSH1 0x9 SLOAD DUP2 JUMP JUMPDEST PUSH1 0x2 SLOAD DUP2 JUMP JUMPDEST PUSH1 0x0 DUP1 SLOAD SWAP1 PUSH2 0x100 EXP SWAP1 DIV PUSH20 0xFFFFFFFFFFFFFFFFFFFFFFFFFFFFFFFFFFFFFFFF AND DUP2 JUMP JUMPDEST PUSH1 0xA SLOAD DUP2 JUMP JUMPDEST PUSH2 0xE61 PUSH8 0xEA28C56058ECAC9 PUSH1 0xC0 SHL PUSH2 0x14B0 JUMP JUMPDEST PUSH2 0xE75 PUSH8 0x875081DBD322B1B7 PUSH1 0xC0 SHL PUSH2 0x14B0 JUMP JUMPDEST PUSH2 0xE89 PUSH8 0xF371402D020162D8 PUSH1 0xC0 SHL PUSH2 0x14B0 JUMP JUMPDEST PUSH2 0xE9D PUSH8 0x11F74C29A4C5B061 PUSH1 0xC0 SHL PUSH2 0x14B0 JUMP JUMPDEST PUSH1 0x6 PUSH1 0x0 SWAP1 SLOAD SWAP1 PUSH2 0x100 EXP SWAP1 DIV PUSH1 0xFF AND ISZERO PUSH2 0xEED JUMPI PUSH1 0x40 MLOAD PUSH32 0x8C379A000000000000000000000000000000000000000000000000000000000 DUP2 MSTORE PUSH1 0x4 ADD PUSH2 0xEE4 SWAP1 PUSH2 0x1921 JUMP JUMPDEST PUSH1 0x40 MLOAD DUP1 SWAP2 SUB SWAP1 REVERT JUMPDEST PUSH2 0xF01 PUSH8 0xEF286540EF47B3C9 PUSH1 0xC0 SHL PUSH2 0x14B0 JUMP JUMPDEST PUSH2 0xF15 PUSH8 0x55432EEEB98F19FA PUSH1 0xC0 SHL PUSH2 0x14B0 JUMP JUMPDEST PUSH1 0x1 PUSH1 0x6 PUSH1 0x0 PUSH2 0x100 EXP DUP2 SLOAD DUP2 PUSH1 0xFF MUL NOT AND SWAP1 DUP4 ISZERO ISZERO MUL OR SWAP1 SSTORE POP PUSH2 0xF44 PUSH8 0x59BBC8BA27FC5892 PUSH1 0xC0 SHL PUSH2 0x14B0 JUMP JUMPDEST PUSH1 0x1 PUSH1 0x6 PUSH1 0x1 PUSH2 0x100 EXP DUP2 SLOAD DUP2 PUSH1 0xFF MUL NOT AND SWAP1 DUP4 ISZERO ISZERO MUL OR SWAP1 SSTORE POP PUSH2 0xF73 PUSH8 0x77AEBE7608C50519 PUSH1 0xC0 SHL PUSH2 0x14B0 JUMP JUMPDEST PUSH2 0xF87 PUSH8 0xCFA276735751ACF7 PUSH1 0xC0 SHL PUSH2 0x14B0 JUMP JUMPDEST PUSH1 0x0 PUSH20 0xFFFFFFFFFFFFFFFFFFFFFFFFFFFFFFFFFFFFFFFF AND PUSH1 0x8 PUSH1 0x0 SWAP1 SLOAD SWAP1 PUSH2 0x100 EXP SWAP1 DIV PUSH20 0xFFFFFFFFFFFFFFFFFFFFFFFFFFFFFFFFFFFFFFFF AND PUSH20 0xFFFFFFFFFFFFFFFFFFFFFFFFFFFFFFFFFFFFFFFF AND EQ PUSH2 0x1281 JUMPI PUSH2 0xFF1 PUSH8 0xF035C0E8FEA08A79 PUSH1 0xC0 SHL PUSH2 0x14B0 JUMP JUMPDEST PUSH2 0x1005 PUSH8 0x9B267C62E6BFF9A4 PUSH1 0xC0 SHL PUSH2 0x14B0 JUMP JUMPDEST PUSH1 0x0 PUSH1 0x7 PUSH1 0x0 PUSH1 0x8 PUSH1 0x0 SWAP1 SLOAD SWAP1 PUSH2 0x100 EXP SWAP1 DIV PUSH20 0xFFFFFFFFFFFFFFFFFFFFFFFFFFFFFFFFFFFFFFFF AND PUSH20 0xFFFFFFFFFFFFFFFFFFFFFFFFFFFFFFFFFFFFFFFF AND PUSH20 0xFFFFFFFFFFFFFFFFFFFFFFFFFFFFFFFFFFFFFFFF AND DUP2 MSTORE PUSH1 0x20 ADD SWAP1 DUP2 MSTORE PUSH1 0x20 ADD PUSH1 0x0 KECCAK256 DUP2 SWAP1 SSTORE POP PUSH2 0x1080 PUSH8 0xE57F3141D5960AEA PUSH1 0xC0 SHL PUSH2 0x14B0 JUMP JUMPDEST PUSH2 0x1094 PUSH8 0xFB07B969E868BB8D PUSH1 0xC0 SHL PUSH2 0x14B0 JUMP JUMPDEST PUSH32 0x0 PUSH20 0xFFFFFFFFFFFFFFFFFFFFFFFFFFFFFFFFFFFFFFFF AND PUSH4 0x42842E0E PUSH32 0x0 PUSH20 0xFFFFFFFFFFFFFFFFFFFFFFFFFFFFFFFFFFFFFFFF AND PUSH4 0x6352211E PUSH1 0x1 SLOAD PUSH1 0x40 MLOAD DUP3 PUSH4 0xFFFFFFFF AND PUSH1 0xE0 SHL DUP2 MSTORE PUSH1 0x4 ADD PUSH2 0x112B SWAP2 SWAP1 PUSH2 0x14CC JUMP JUMPDEST PUSH1 0x20 PUSH1 0x40 MLOAD DUP1 DUP4 SUB DUP2 DUP7 GAS STATICCALL ISZERO DUP1 ISZERO PUSH2 0x1148 JUMPI RETURNDATASIZE PUSH1 0x0 DUP1 RETURNDATACOPY RETURNDATASIZE PUSH1 0x0 REVERT JUMPDEST POP POP POP POP PUSH1 0x40 MLOAD RETURNDATASIZE PUSH1 0x1F NOT PUSH1 0x1F DUP3 ADD AND DUP3 ADD DUP1 PUSH1 0x40 MSTORE POP DUP2 ADD SWAP1 PUSH2 0x116C SWAP2 SWAP1 PUSH2 0x198D JUMP JUMPDEST PUSH1 0x8 PUSH1 0x0 SWAP1 SLOAD SWAP1 PUSH2 0x100 EXP SWAP1 DIV PUSH20 0xFFFFFFFFFFFFFFFFFFFFFFFFFFFFFFFFFFFFFFFF AND PUSH1 0x1 SLOAD PUSH1 0x40 MLOAD DUP5 PUSH4 0xFFFFFFFF AND PUSH1 0xE0 SHL DUP2 MSTORE PUSH1 0x4 ADD PUSH2 0x11B0 SWAP4 SWAP3 SWAP2 SWAP1 PUSH2 0x1941 JUMP JUMPDEST PUSH1 0x0 PUSH1 0x40 MLOAD DUP1 DUP4 SUB DUP2 PUSH1 0x0 DUP8 DUP1 EXTCODESIZE ISZERO DUP1 ISZERO PUSH2 0x11CA JUMPI PUSH1 0x0 DUP1 REVERT JUMPDEST POP GAS CALL ISZERO DUP1 ISZERO PUSH2 0x11DE JUMPI RETURNDATASIZE PUSH1 0x0 DUP1 RETURNDATACOPY RETURNDATASIZE PUSH1 0x0 REVERT JUMPDEST POP POP POP POP PUSH2 0x11F6 PUSH8 0x91A2EB5777E53EAD PUSH1 0xC0 SHL PUSH2 0x14B0 JUMP JUMPDEST PUSH2 0x120A PUSH8 0xA84D3939591C65E3 PUSH1 0xC0 SHL PUSH2 0x14B0 JUMP JUMPDEST PUSH1 0x8 PUSH1 0x0 SWAP1 SLOAD SWAP1 PUSH2 0x100 EXP SWAP1 DIV PUSH20 0xFFFFFFFFFFFFFFFFFFFFFFFFFFFFFFFFFFFFFFFF AND PUSH20 0xFFFFFFFFFFFFFFFFFFFFFFFFFFFFFFFFFFFFFFFF AND PUSH32 0xDAEC4582D5D9595688C8C98545FDD1C696D41C6AEAEB636737E84ED2F5C00EDA PUSH1 0x9 SLOAD PUSH1 0x40 MLOAD PUSH2 0x1274 SWAP2 SWAP1 PUSH2 0x14CC JUMP JUMPDEST PUSH1 0x40 MLOAD DUP1 SWAP2 SUB SWAP1 LOG2 PUSH2 0x1482 JUMP JUMPDEST PUSH2 0x1295 PUSH8 0xB20B447C24033842 PUSH1 0xC0 SHL PUSH2 0x14B0 JUMP JUMPDEST PUSH2 0x12A9 PUSH8 0x37F910023C540DAC PUSH1 0xC0 SHL PUSH2 0x14B0 JUMP JUMPDEST PUSH2 0x12BD PUSH8 0x50B099CB8AAEFA4E PUSH1 0xC0 SHL PUSH2 0x14B0 JUMP JUMPDEST PUSH32 0x0 PUSH20 0xFFFFFFFFFFFFFFFFFFFFFFFFFFFFFFFFFFFFFFFF AND PUSH4 0x42842E0E PUSH32 0x0 PUSH20 0xFFFFFFFFFFFFFFFFFFFFFFFFFFFFFFFFFFFFFFFF AND PUSH4 0x6352211E PUSH1 0x1 SLOAD PUSH1 0x40 MLOAD DUP3 PUSH4 0xFFFFFFFF AND PUSH1 0xE0 SHL DUP2 MSTORE PUSH1 0x4 ADD PUSH2 0x1354 SWAP2 SWAP1 PUSH2 0x14CC JUMP JUMPDEST PUSH1 0x20 PUSH1 0x40 MLOAD DUP1 DUP4 SUB DUP2 DUP7 GAS STATICCALL ISZERO DUP1 ISZERO PUSH2 0x1371 JUMPI RETURNDATASIZE PUSH1 0x0 DUP1 RETURNDATACOPY RETURNDATASIZE PUSH1 0x0 REVERT JUMPDEST POP POP POP POP PUSH1 0x40 MLOAD RETURNDATASIZE PUSH1 0x1F NOT PUSH1 0x1F DUP3 ADD AND DUP3 ADD DUP1 PUSH1 0x40 MSTORE POP DUP2 ADD SWAP1 PUSH2 0x1395 SWAP2 SWAP1 PUSH2 0x198D JUMP JUMPDEST PUSH32 0x0 PUSH1 0x1 SLOAD PUSH1 0x40 MLOAD DUP5 PUSH4 0xFFFFFFFF AND PUSH1 0xE0 SHL DUP2 MSTORE PUSH1 0x4 ADD PUSH2 0x13D7 SWAP4 SWAP3 SWAP2 SWAP1 PUSH2 0x1A19 JUMP JUMPDEST PUSH1 0x0 PUSH1 0x40 MLOAD DUP1 DUP4 SUB DUP2 PUSH1 0x0 DUP8 DUP1 EXTCODESIZE ISZERO DUP1 ISZERO PUSH2 0x13F1 JUMPI PUSH1 0x0 DUP1 REVERT JUMPDEST POP GAS CALL ISZERO DUP1 ISZERO PUSH2 0x1405 JUMPI RETURNDATASIZE PUSH1 0x0 DUP1 RETURNDATACOPY RETURNDATASIZE PUSH1 0x0 REVERT JUMPDEST POP POP POP POP PUSH2 0x141D PUSH8 0x351140827F2A6E9C PUSH1 0xC0 SHL PUSH2 0x14B0 JUMP JUMPDEST PUSH2 0x1431 PUSH8 0xFB1D6049F8628949 PUSH1 0xC0 SHL PUSH2 0x14B0 JUMP JUMPDEST PUSH1 0x0 PUSH20 0xFFFFFFFFFFFFFFFFFFFFFFFFFFFFFFFFFFFFFFFF AND PUSH32 0xDAEC4582D5D9595688C8C98545FDD1C696D41C6AEAEB636737E84ED2F5C00EDA PUSH1 0x0 PUSH1 0x40 MLOAD PUSH2 0x1479 SWAP2 SWAP1 PUSH2 0x1A8B JUMP JUMPDEST PUSH1 0x40 MLOAD DUP1 SWAP2 SUB SWAP1 LOG2 JUMPDEST JUMP JUMPDEST PUSH1 0x0 DUP2 DUP4 PUSH2 0x1492 SWAP2 SWAP1 PUSH2 0x1AD5 JUMP JUMPDEST SWAP1 POP SWAP3 SWAP2 POP POP JUMP JUMPDEST PUSH1 0x0 DUP2 DUP4 PUSH2 0x14A8 SWAP2 SWAP1 PUSH2 0x1B17 JUMP JUMPDEST SWAP1 POP SWAP3 SWAP2 POP POP JUMP JUMPDEST POP JUMP JUMPDEST PUSH1 0x0 DUP2 SWAP1 POP SWAP2 SWAP1 POP JUMP JUMPDEST PUSH2 0x14C6 DUP2 PUSH2 0x14B3 JUMP JUMPDEST DUP3 MSTORE POP POP JUMP JUMPDEST PUSH1 0x0 PUSH1 0x20 DUP3 ADD SWAP1 POP PUSH2 0x14E1 PUSH1 0x0 DUP4 ADD DUP5 PUSH2 0x14BD JUMP JUMPDEST SWAP3 SWAP2 POP POP JUMP JUMPDEST PUSH1 0x0 DUP1 REVERT JUMPDEST PUSH1 0x0 PUSH20 0xFFFFFFFFFFFFFFFFFFFFFFFFFFFFFFFFFFFFFFFF DUP3 AND SWAP1 POP SWAP2 SWAP1 POP JUMP JUMPDEST PUSH1 0x0 PUSH2 0x1517 DUP3 PUSH2 0x14EC JUMP JUMPDEST SWAP1 POP SWAP2 SWAP1 POP JUMP JUMPDEST PUSH2 0x1527 DUP2 PUSH2 0x150C JUMP JUMPDEST DUP2 EQ PUSH2 0x1532 JUMPI PUSH1 0x0 DUP1 REVERT JUMPDEST POP JUMP JUMPDEST PUSH1 0x0 DUP2 CALLDATALOAD SWAP1 POP PUSH2 0x1544 DUP2 PUSH2 0x151E JUMP JUMPDEST SWAP3 SWAP2 POP POP JUMP JUMPDEST PUSH1 0x0 PUSH1 0x20 DUP3 DUP5 SUB SLT ISZERO PUSH2 0x1560 JUMPI PUSH2 0x155F PUSH2 0x14E7 JUMP JUMPDEST JUMPDEST PUSH1 0x0 PUSH2 0x156E DUP5 DUP3 DUP6 ADD PUSH2 0x1535 JUMP JUMPDEST SWAP2 POP POP SWAP3 SWAP2 POP POP JUMP JUMPDEST PUSH1 0x0 DUP2 ISZERO ISZERO SWAP1 POP SWAP2 SWAP1 POP JUMP JUMPDEST PUSH2 0x158C DUP2 PUSH2 0x1577 JUMP JUMPDEST DUP3 MSTORE POP POP JUMP JUMPDEST PUSH1 0x0 PUSH1 0x20 DUP3 ADD SWAP1 POP PUSH2 0x15A7 PUSH1 0x0 DUP4 ADD DUP5 PUSH2 0x1583 JUMP JUMPDEST SWAP3 SWAP2 POP POP JUMP JUMPDEST PUSH1 0x0 PUSH2 0x15B8 DUP3 PUSH2 0x14EC JUMP JUMPDEST SWAP1 POP SWAP2 SWAP1 POP JUMP JUMPDEST PUSH2 0x15C8 DUP2 PUSH2 0x15AD JUMP JUMPDEST DUP3 MSTORE POP POP JUMP JUMPDEST PUSH1 0x0 PUSH1 0x20 DUP3 ADD SWAP1 POP PUSH2 0x15E3 PUSH1 0x0 DUP4 ADD DUP5 PUSH2 0x15BF JUMP JUMPDEST SWAP3 SWAP2 POP POP JUMP JUMPDEST PUSH2 0x15F2 DUP2 PUSH2 0x150C JUMP JUMPDEST DUP3 MSTORE POP POP JUMP JUMPDEST PUSH1 0x0 PUSH1 0x20 DUP3 ADD SWAP1 POP PUSH2 0x160D PUSH1 0x0 DUP4 ADD DUP5 PUSH2 0x15E9 JUMP JUMPDEST SWAP3 SWAP2 POP POP JUMP JUMPDEST PUSH2 0x161C DUP2 PUSH2 0x14B3 JUMP JUMPDEST DUP2 EQ PUSH2 0x1627 JUMPI PUSH1 0x0 DUP1 REVERT JUMPDEST POP JUMP JUMPDEST PUSH1 0x0 DUP2 CALLDATALOAD SWAP1 POP PUSH2 0x1639 DUP2 PUSH2 0x1613 JUMP JUMPDEST SWAP3 SWAP2 POP POP JUMP JUMPDEST PUSH1 0x0 PUSH1 0x20 DUP3 DUP5 SUB SLT ISZERO PUSH2 0x1655 JUMPI PUSH2 0x1654 PUSH2 0x14E7 JUMP JUMPDEST JUMPDEST PUSH1 0x0 PUSH2 0x1663 DUP5 DUP3 DUP6 ADD PUSH2 0x162A JUMP JUMPDEST SWAP2 POP POP SWAP3 SWAP2 POP POP JUMP JUMPDEST PUSH1 0x0 DUP3 DUP3 MSTORE PUSH1 0x20 DUP3 ADD SWAP1 POP SWAP3 SWAP2 POP POP JUMP JUMPDEST PUSH32 0x41756374696F6E20686173206E6F7420656E6465642079657400000000000000 PUSH1 0x0 DUP3 ADD MSTORE POP JUMP JUMPDEST PUSH1 0x0 PUSH2 0x16B3 PUSH1 0x19 DUP4 PUSH2 0x166C JUMP JUMPDEST SWAP2 POP PUSH2 0x16BE DUP3 PUSH2 0x167D JUMP JUMPDEST PUSH1 0x20 DUP3 ADD SWAP1 POP SWAP2 SWAP1 POP JUMP JUMPDEST PUSH1 0x0 PUSH1 0x20 DUP3 ADD SWAP1 POP DUP2 DUP2 SUB PUSH1 0x0 DUP4 ADD MSTORE PUSH2 0x16E2 DUP2 PUSH2 0x16A6 JUMP JUMPDEST SWAP1 POP SWAP2 SWAP1 POP JUMP JUMPDEST PUSH32 0x48696768657374206269646465722063616E6E6F7420726566756E6400000000 PUSH1 0x0 DUP3 ADD MSTORE POP JUMP JUMPDEST PUSH1 0x0 PUSH2 0x171F PUSH1 0x1C DUP4 PUSH2 0x166C JUMP JUMPDEST SWAP2 POP PUSH2 0x172A DUP3 PUSH2 0x16E9 JUMP JUMPDEST PUSH1 0x20 DUP3 ADD SWAP1 POP SWAP2 SWAP1 POP JUMP JUMPDEST PUSH1 0x0 PUSH1 0x20 DUP3 ADD SWAP1 POP DUP2 DUP2 SUB PUSH1 0x0 DUP4 ADD MSTORE PUSH2 0x174E DUP2 PUSH2 0x1712 JUMP JUMPDEST SWAP1 POP SWAP2 SWAP1 POP JUMP JUMPDEST PUSH32 0x4E6F2062696420746F20726566756E6400000000000000000000000000000000 PUSH1 0x0 DUP3 ADD MSTORE POP JUMP JUMPDEST PUSH1 0x0 PUSH2 0x178B PUSH1 0x10 DUP4 PUSH2 0x166C JUMP JUMPDEST SWAP2 POP PUSH2 0x1796 DUP3 PUSH2 0x1755 JUMP JUMPDEST PUSH1 0x20 DUP3 ADD SWAP1 POP SWAP2 SWAP1 POP JUMP JUMPDEST PUSH1 0x0 PUSH1 0x20 DUP3 ADD SWAP1 POP DUP2 DUP2 SUB PUSH1 0x0 DUP4 ADD MSTORE PUSH2 0x17BA DUP2 PUSH2 0x177E JUMP JUMPDEST SWAP1 POP SWAP2 SWAP1 POP JUMP JUMPDEST PUSH1 0x0 PUSH1 0x40 DUP3 ADD SWAP1 POP PUSH2 0x17D6 PUSH1 0x0 DUP4 ADD DUP6 PUSH2 0x15E9 JUMP JUMPDEST PUSH2 0x17E3 PUSH1 0x20 DUP4 ADD DUP5 PUSH2 0x14BD JUMP JUMPDEST SWAP4 SWAP3 POP POP POP JUMP JUMPDEST PUSH2 0x17F3 DUP2 PUSH2 0x1577 JUMP JUMPDEST DUP2 EQ PUSH2 0x17FE JUMPI PUSH1 0x0 DUP1 REVERT JUMPDEST POP JUMP JUMPDEST PUSH1 0x0 DUP2 MLOAD SWAP1 POP PUSH2 0x1810 DUP2 PUSH2 0x17EA JUMP JUMPDEST SWAP3 SWAP2 POP POP JUMP JUMPDEST PUSH1 0x0 PUSH1 0x20 DUP3 DUP5 SUB SLT ISZERO PUSH2 0x182C JUMPI PUSH2 0x182B PUSH2 0x14E7 JUMP JUMPDEST JUMPDEST PUSH1 0x0 PUSH2 0x183A DUP5 DUP3 DUP6 ADD PUSH2 0x1801 JUMP JUMPDEST SWAP2 POP POP SWAP3 SWAP2 POP POP JUMP JUMPDEST PUSH32 0x42696420616D6F756E74206D7573742062652067726561746572207468616E20 PUSH1 0x0 DUP3 ADD MSTORE PUSH32 0x7A65726F00000000000000000000000000000000000000000000000000000000 PUSH1 0x20 DUP3 ADD MSTORE POP JUMP JUMPDEST PUSH1 0x0 PUSH2 0x189F PUSH1 0x24 DUP4 PUSH2 0x166C JUMP JUMPDEST SWAP2 POP PUSH2 0x18AA DUP3 PUSH2 0x1843 JUMP JUMPDEST PUSH1 0x40 DUP3 ADD SWAP1 POP SWAP2 SWAP1 POP JUMP JUMPDEST PUSH1 0x0 PUSH1 0x20 DUP3 ADD SWAP1 POP DUP2 DUP2 SUB PUSH1 0x0 DUP4 ADD MSTORE PUSH2 0x18CE DUP2 PUSH2 0x1892 JUMP JUMPDEST SWAP1 POP SWAP2 SWAP1 POP JUMP JUMPDEST PUSH32 0x41756374696F6E2068617320616C726561647920656E64656400000000000000 PUSH1 0x0 DUP3 ADD MSTORE POP JUMP JUMPDEST PUSH1 0x0 PUSH2 0x190B PUSH1 0x19 DUP4 PUSH2 0x166C JUMP JUMPDEST SWAP2 POP PUSH2 0x1916 DUP3 PUSH2 0x18D5 JUMP JUMPDEST PUSH1 0x20 DUP3 ADD SWAP1 POP SWAP2 SWAP1 POP JUMP JUMPDEST PUSH1 0x0 PUSH1 0x20 DUP3 ADD SWAP1 POP DUP2 DUP2 SUB PUSH1 0x0 DUP4 ADD MSTORE PUSH2 0x193A DUP2 PUSH2 0x18FE JUMP JUMPDEST SWAP1 POP SWAP2 SWAP1 POP JUMP JUMPDEST PUSH1 0x0 PUSH1 0x60 DUP3 ADD SWAP1 POP PUSH2 0x1956 PUSH1 0x0 DUP4 ADD DUP7 PUSH2 0x15E9 JUMP JUMPDEST PUSH2 0x1963 PUSH1 0x20 DUP4 ADD DUP6 PUSH2 0x15E9 JUMP JUMPDEST PUSH2 0x1970 PUSH1 0x40 DUP4 ADD DUP5 PUSH2 0x14BD JUMP JUMPDEST SWAP5 SWAP4 POP POP POP POP JUMP JUMPDEST PUSH1 0x0 DUP2 MLOAD SWAP1 POP PUSH2 0x1987 DUP2 PUSH2 0x151E JUMP JUMPDEST SWAP3 SWAP2 POP POP JUMP JUMPDEST PUSH1 0x0 PUSH1 0x20 DUP3 DUP5 SUB SLT ISZERO PUSH2 0x19A3 JUMPI PUSH2 0x19A2 PUSH2 0x14E7 JUMP JUMPDEST JUMPDEST PUSH1 0x0 PUSH2 0x19B1 DUP5 DUP3 DUP6 ADD PUSH2 0x1978 JUMP JUMPDEST SWAP2 POP POP SWAP3 SWAP2 POP POP JUMP JUMPDEST PUSH1 0x0 DUP2 SWAP1 POP SWAP2 SWAP1 POP JUMP JUMPDEST PUSH1 0x0 PUSH2 0x19DF PUSH2 0x19DA PUSH2 0x19D5 DUP5 PUSH2 0x14EC JUMP JUMPDEST PUSH2 0x19BA JUMP JUMPDEST PUSH2 0x14EC JUMP JUMPDEST SWAP1 POP SWAP2 SWAP1 POP JUMP JUMPDEST PUSH1 0x0 PUSH2 0x19F1 DUP3 PUSH2 0x19C4 JUMP JUMPDEST SWAP1 POP SWAP2 SWAP1 POP JUMP JUMPDEST PUSH1 0x0 PUSH2 0x1A03 DUP3 PUSH2 0x19E6 JUMP JUMPDEST SWAP1 POP SWAP2 SWAP1 POP JUMP JUMPDEST PUSH2 0x1A13 DUP2 PUSH2 0x19F8 JUMP JUMPDEST DUP3 MSTORE POP POP JUMP JUMPDEST PUSH1 0x0 PUSH1 0x60 DUP3 ADD SWAP1 POP PUSH2 0x1A2E PUSH1 0x0 DUP4 ADD DUP7 PUSH2 0x15E9 JUMP JUMPDEST PUSH2 0x1A3B PUSH1 0x20 DUP4 ADD DUP6 PUSH2 0x1A0A JUMP JUMPDEST PUSH2 0x1A48 PUSH1 0x40 DUP4 ADD DUP5 PUSH2 0x14BD JUMP JUMPDEST SWAP5 SWAP4 POP POP POP POP JUMP JUMPDEST PUSH1 0x0 DUP2 SWAP1 POP SWAP2 SWAP1 POP JUMP JUMPDEST PUSH1 0x0 PUSH2 0x1A75 PUSH2 0x1A70 PUSH2 0x1A6B DUP5 PUSH2 0x1A50 JUMP JUMPDEST PUSH2 0x19BA JUMP JUMPDEST PUSH2 0x14B3 JUMP JUMPDEST SWAP1 POP SWAP2 SWAP1 POP JUMP JUMPDEST PUSH2 0x1A85 DUP2 PUSH2 0x1A5A JUMP JUMPDEST DUP3 MSTORE POP POP JUMP JUMPDEST PUSH1 0x0 PUSH1 0x20 DUP3 ADD SWAP1 POP PUSH2 0x1AA0 PUSH1 0x0 DUP4 ADD DUP5 PUSH2 0x1A7C JUMP JUMPDEST SWAP3 SWAP2 POP POP JUMP JUMPDEST PUSH32 0x4E487B7100000000000000000000000000000000000000000000000000000000 PUSH1 0x0 MSTORE PUSH1 0x11 PUSH1 0x4 MSTORE PUSH1 0x24 PUSH1 0x0 REVERT JUMPDEST PUSH1 0x0 PUSH2 0x1AE0 DUP3 PUSH2 0x14B3 JUMP JUMPDEST SWAP2 POP PUSH2 0x1AEB DUP4 PUSH2 0x14B3 JUMP JUMPDEST SWAP3 POP DUP3 DUP3 MUL PUSH2 0x1AF9 DUP2 PUSH2 0x14B3 JUMP JUMPDEST SWAP2 POP DUP3 DUP3 DIV DUP5 EQ DUP4 ISZERO OR PUSH2 0x1B10 JUMPI PUSH2 0x1B0F PUSH2 0x1AA6 JUMP JUMPDEST JUMPDEST POP SWAP3 SWAP2 POP POP JUMP JUMPDEST PUSH1 0x0 PUSH2 0x1B22 DUP3 PUSH2 0x14B3 JUMP JUMPDEST SWAP2 POP PUSH2 0x1B2D DUP4 PUSH2 0x14B3 JUMP JUMPDEST SWAP3 POP DUP3 DUP3 ADD SWAP1 POP DUP1 DUP3 GT ISZERO PUSH2 0x1B45 JUMPI PUSH2 0x1B44 PUSH2 0x1AA6 JUMP JUMPDEST JUMPDEST SWAP3 SWAP2 POP POP JUMP INVALID LOG2 PUSH5 0x6970667358 0x22 SLT KECCAK256 SWAP5 0xB5 0x49 STATICCALL 0xBB CALLCODE DUP5 0xCF 0xD2 SWAP13 OR CALLCODE DUP3 SWAP3 0xA5 GASPRICE SWAP13 SDIV SWAP13 0xBC PUSH27 0x234CD5515CFC68EF989B0664736F6C634300081200330000000000 "},"methodIdentifiers":{"auctionEnded()":"86433374","auctionStartTime()":"eb54f9ec","bids(address)":"62ea82db","endAuction()":"fe67a54b","erc721TokenAddress()":"df241cb9","highestBid()":"d57bde79","highestBidder()":"91f90157","initialPrice()":"1d0806ae","itemSold()":"438e897a","nftTokenId()":"7e830574","numBlocksAuctionOpen()":"3103ea62","offerPriceDecrement()":"d3642a88","owner()":"8da5cb5b","placeBid(uint256)":"9979ef45","refundBidders(address)":"2bf0d538","reservePrice()":"db2e1eed"}}}}}