{
  "_format": "hh-sol-artifact-1",
  "contractName": "BasicDutchAuction",
  "sourceName": "contracts/BasicDutchAuction.sol",
  "abi": [
    {
      "inputs": [
        {
          "internalType": "uint256",
          "name": "_reservePrice",
          "type": "uint256"
        },
        {
          "internalType": "uint256",
          "name": "_numBlocksAuctionOpen",
          "type": "uint256"
        },
        {
          "internalType": "uint256",
          "name": "_offerPriceDecrement",
          "type": "uint256"
        }
      ],
      "stateMutability": "nonpayable",
      "type": "constructor"
    },
    {
      "anonymous": false,
      "inputs": [
        {
          "indexed": false,
          "internalType": "address",
          "name": "winner",
          "type": "address"
        },
        {
          "indexed": false,
          "internalType": "uint256",
          "name": "amount",
          "type": "uint256"
        }
      ],
      "name": "AuctionEnded",
      "type": "event"
    },
    {
      "anonymous": false,
      "inputs": [
        {
          "indexed": false,
          "internalType": "address",
          "name": "bidder",
          "type": "address"
        },
        {
          "indexed": false,
          "internalType": "uint256",
          "name": "amount",
          "type": "uint256"
        }
      ],
      "name": "BidPlaced",
      "type": "event"
    },
    {
      "inputs": [],
      "name": "auctionEnded",
      "outputs": [
        {
          "internalType": "bool",
          "name": "",
          "type": "bool"
        }
      ],
      "stateMutability": "view",
      "type": "function"
    },
    {
      "inputs": [
        {
          "internalType": "address",
          "name": "",
          "type": "address"
        }
      ],
      "name": "bids",
      "outputs": [
        {
          "internalType": "uint256",
          "name": "",
          "type": "uint256"
        }
      ],
      "stateMutability": "view",
      "type": "function"
    },
    {
      "inputs": [],
      "name": "endAuction",
      "outputs": [],
      "stateMutability": "nonpayable",
      "type": "function"
    },
    {
      "inputs": [],
      "name": "endBlock",
      "outputs": [
        {
          "internalType": "uint256",
          "name": "",
          "type": "uint256"
        }
      ],
      "stateMutability": "view",
      "type": "function"
    },
    {
      "inputs": [],
      "name": "highestBid",
      "outputs": [
        {
          "internalType": "uint256",
          "name": "",
          "type": "uint256"
        }
      ],
      "stateMutability": "view",
      "type": "function"
    },
    {
      "inputs": [],
      "name": "highestBidder",
      "outputs": [
        {
          "internalType": "address",
          "name": "",
          "type": "address"
        }
      ],
      "stateMutability": "view",
      "type": "function"
    },
    {
      "inputs": [],
      "name": "initialPrice",
      "outputs": [
        {
          "internalType": "uint256",
          "name": "",
          "type": "uint256"
        }
      ],
      "stateMutability": "view",
      "type": "function"
    },
    {
      "inputs": [],
      "name": "itemSold",
      "outputs": [
        {
          "internalType": "bool",
          "name": "",
          "type": "bool"
        }
      ],
      "stateMutability": "view",
      "type": "function"
    },
    {
      "inputs": [],
      "name": "numBlocksAuctionOpen",
      "outputs": [
        {
          "internalType": "uint256",
          "name": "",
          "type": "uint256"
        }
      ],
      "stateMutability": "view",
      "type": "function"
    },
    {
      "inputs": [],
      "name": "offerPriceDecrement",
      "outputs": [
        {
          "internalType": "uint256",
          "name": "",
          "type": "uint256"
        }
      ],
      "stateMutability": "view",
      "type": "function"
    },
    {
      "inputs": [],
      "name": "placeBid",
      "outputs": [],
      "stateMutability": "payable",
      "type": "function"
    },
    {
      "inputs": [
        {
          "internalType": "address",
          "name": "bidder",
          "type": "address"
        }
      ],
      "name": "refundBid",
      "outputs": [],
      "stateMutability": "nonpayable",
      "type": "function"
    },
    {
      "inputs": [],
      "name": "reservePrice",
      "outputs": [
        {
          "internalType": "uint256",
          "name": "",
          "type": "uint256"
        }
      ],
      "stateMutability": "view",
      "type": "function"
    },
    {
      "inputs": [],
      "name": "seller",
      "outputs": [
        {
          "internalType": "address payable",
          "name": "",
          "type": "address"
        }
      ],
      "stateMutability": "view",
      "type": "function"
    },
    {
      "inputs": [],
      "name": "startBlock",
      "outputs": [
        {
          "internalType": "uint256",
          "name": "",
          "type": "uint256"
        }
      ],
      "stateMutability": "view",
      "type": "function"
    }
  ],
  "bytecode": "0x60806040523480156200001157600080fd5b50604051620017833803806200178383398181016040528101906200003791906200026c565b62000053675d4ec003a8af7cde60c01b6200022960201b60201c565b6200006f67d9454cb82742dc7a60c01b6200022960201b60201c565b336000806101000a81548173ffffffffffffffffffffffffffffffffffffffff021916908373ffffffffffffffffffffffffffffffffffffffff160217905550620000cb6744da0aedaaacc1be60c01b6200022960201b60201c565b82600181905550620000ee6723dccaad9cb0b4a460c01b6200022960201b60201c565b8160028190555062000111674ed31c252370610b60c01b6200022960201b60201c565b8060038190555062000134670e4e5568d51df0d560c01b6200022960201b60201c565b600354600254620001469190620002f7565b60015462000155919062000342565b600481905550620001776745449e5296c7390360c01b6200022960201b60201c565b436005819055506200019a6796c6effcbbd2c40660c01b6200022960201b60201c565b600254600554620001ac919062000342565b600681905550620001ce677158583853ab6a1860c01b6200022960201b60201c565b6000600760006101000a81548160ff0219169083151502179055506200020567d1542e57f4f4924560c01b6200022960201b60201c565b6000600760016101000a81548160ff0219169083151502179055505050506200037d565b50565b600080fd5b6000819050919050565b620002468162000231565b81146200025257600080fd5b50565b60008151905062000266816200023b565b92915050565b6000806000606084860312156200028857620002876200022c565b5b6000620002988682870162000255565b9350506020620002ab8682870162000255565b9250506040620002be8682870162000255565b9150509250925092565b7f4e487b7100000000000000000000000000000000000000000000000000000000600052601160045260246000fd5b6000620003048262000231565b9150620003118362000231565b9250828202620003218162000231565b915082820484148315176200033b576200033a620002c8565b5b5092915050565b60006200034f8262000231565b91506200035c8362000231565b9250828201905080821115620003775762000376620002c8565b5b92915050565b6113f6806200038d6000396000f3fe6080604052600436106100e85760003560e01c806362ea82db1161008a578063d57bde7911610059578063d57bde79146102d6578063db2e1eed14610301578063ecfc7ecc1461032c578063fe67a54b14610336576100e8565b806362ea82db14610218578063864333741461025557806391f9015714610280578063d3642a88146102ab576100e8565b80633103ea62116100c65780633103ea621461016e578063385e315514610199578063438e897a146101c257806348cd4cb1146101ed576100e8565b8063083c6323146100ed57806308551a53146101185780631d0806ae14610143575b600080fd5b3480156100f957600080fd5b5061010261034d565b60405161010f9190610f2c565b60405180910390f35b34801561012457600080fd5b5061012d610353565b60405161013a9190610f88565b60405180910390f35b34801561014f57600080fd5b50610158610377565b6040516101659190610f2c565b60405180910390f35b34801561017a57600080fd5b5061018361037d565b6040516101909190610f2c565b60405180910390f35b3480156101a557600080fd5b506101c060048036038101906101bb9190610fe6565b610383565b005b3480156101ce57600080fd5b506101d7610720565b6040516101e4919061102e565b60405180910390f35b3480156101f957600080fd5b50610202610733565b60405161020f9190610f2c565b60405180910390f35b34801561022457600080fd5b5061023f600480360381019061023a9190610fe6565b610739565b60405161024c9190610f2c565b60405180910390f35b34801561026157600080fd5b5061026a610751565b604051610277919061102e565b60405180910390f35b34801561028c57600080fd5b50610295610764565b6040516102a29190611058565b60405180910390f35b3480156102b757600080fd5b506102c061078a565b6040516102cd9190610f2c565b60405180910390f35b3480156102e257600080fd5b506102eb610790565b6040516102f89190610f2c565b60405180910390f35b34801561030d57600080fd5b50610316610796565b6040516103239190610f2c565b60405180910390f35b61033461079c565b005b34801561034257600080fd5b5061034b610bfd565b005b60065481565b60008054906101000a900473ffffffffffffffffffffffffffffffffffffffff1681565b60045481565b60025481565b61039767a8d02daea55db61f60c01b610f10565b6103ab67f97877f71948b2af60c01b610f10565b6103bf67591af0c60129109f60c01b610f10565b6103d36718c9874541a6e1aa60c01b610f10565b600760009054906101000a900460ff16610422576040517f08c379a0000000000000000000000000000000000000000000000000000000008152600401610419906110d0565b60405180910390fd5b610436677ad21cbb02818bfb60c01b610f10565b61044a67a54ecf6cc996669d60c01b610f10565b61045e67b3b8dc8fba878ba160c01b610f10565b610472676f0539e4de5efd9460c01b610f10565b600760029054906101000a900473ffffffffffffffffffffffffffffffffffffffff1673ffffffffffffffffffffffffffffffffffffffff168173ffffffffffffffffffffffffffffffffffffffff1603610502576040517f08c379a00000000000000000000000000000000000000000000000000000000081526004016104f99061113c565b60405180910390fd5b61051667298d80b8adc9603c60c01b610f10565b61052a67e43a272b420eb97160c01b610f10565b61053e671162da78f9ef463c60c01b610f10565b61055267a4aa36ee8292dd4660c01b610f10565b6000600960008373ffffffffffffffffffffffffffffffffffffffff1673ffffffffffffffffffffffffffffffffffffffff16815260200190815260200160002054116105d4576040517f08c379a00000000000000000000000000000000000000000000000000000000081526004016105cb906111a8565b60405180910390fd5b6105e867d5775678c23738e160c01b610f10565b6105fc674b68dc322ddb7d5c60c01b610f10565b610610674b59133614f31d5a60c01b610f10565b6000600960008373ffffffffffffffffffffffffffffffffffffffff1673ffffffffffffffffffffffffffffffffffffffff16815260200190815260200160002054905061066867c4d88e5b71a7ace360c01b610f10565b6000600960008473ffffffffffffffffffffffffffffffffffffffff1673ffffffffffffffffffffffffffffffffffffffff168152602001908152602001600020819055506106c1671f33d62cfd9bb8f360c01b610f10565b6106d567b5f7f10a381839ca60c01b610f10565b8173ffffffffffffffffffffffffffffffffffffffff166108fc829081150290604051600060405180830381858888f1935050505015801561071b573d6000803e3d6000fd5b505050565b600760019054906101000a900460ff1681565b60055481565b60096020528060005260406000206000915090505481565b600760009054906101000a900460ff1681565b600760029054906101000a900473ffffffffffffffffffffffffffffffffffffffff1681565b60035481565b60085481565b60015481565b6107b0675a25bb45d2af8ba960c01b610f10565b6107c46743dd5332de1a40ce60c01b610f10565b6107d8671dfe885be9f7808660c01b610f10565b6107ec67b981198dcc94145460c01b610f10565b600760009054906101000a900460ff161561083c576040517f08c379a000000000000000000000000000000000000000000000000000000000815260040161083390611214565b60405180910390fd5b61085067033dbf47ca405bb460c01b610f10565b61086467a62447b512eaf7d160c01b610f10565b61087867de97e3feb7a5fcf460c01b610f10565b61088c679b0b3ba2be9c035960c01b610f10565b600034116108cf576040517f08c379a00000000000000000000000000000000000000000000000000000000081526004016108c6906112a6565b60405180910390fd5b6108e367b9980bc07c0f652260c01b610f10565b6108f76769fc5d51ff6d129260c01b610f10565b61090b678b1f216b028c225a60c01b610f10565b600854341115610a8c576109296788c1810682b1101360c01b610f10565b61093d6790c71dbf3e7019fe60c01b610f10565b610951676fd4f0aab99d3c8660c01b610f10565b600060085414610a025761096f673f66d653b066ea5a60c01b610f10565b6109836701d308d2c5c13a8d60c01b610f10565b60085460096000600760029054906101000a900473ffffffffffffffffffffffffffffffffffffffff1673ffffffffffffffffffffffffffffffffffffffff1673ffffffffffffffffffffffffffffffffffffffff16815260200190815260200160002060008282546109f691906112f5565b92505081905550610a17565b610a16671b4c3236ee4ae0a860c01b610f10565b5b610a2b6788863ee90d5f71a360c01b610f10565b33600760026101000a81548173ffffffffffffffffffffffffffffffffffffffff021916908373ffffffffffffffffffffffffffffffffffffffff160217905550610a8067ccf2a6606fcb148860c01b610f10565b34600881905550610b0b565b610aa067ae51941a509aa2be60c01b610f10565b610ab46713717a9e18f6c02260c01b610f10565b34600960003373ffffffffffffffffffffffffffffffffffffffff1673ffffffffffffffffffffffffffffffffffffffff1681526020019081526020016000206000828254610b0391906112f5565b925050819055505b610b1f67089a10092d7efa4360c01b610f10565b610b336719249d1870bfc1f660c01b610f10565b7f3fabff0a9c3ecd6814702e247fa9733e5d0aa69e3a38590f92cb18f623a2254d3334604051610b64929190611329565b60405180910390a1610b8067c61961693457a42b60c01b610f10565b610b946798b469518da5aaab60c01b610f10565b6004543410610be657610bb1676ad45f567a00c65460c01b610f10565b610bc5670804c66c18ac935a60c01b610f10565b610bd9678569587b9de60a3c60c01b610f10565b610be1610bfd565b610bfb565b610bfa67159f52d074c7745b60c01b610f10565b5b565b610c11676c9f093620b0a2a060c01b610f10565b610c256756a730929ad42d9760c01b610f10565b6001600760006101000a81548160ff021916908315150217905550610c5467ea42cc783b9992db60c01b610f10565b6001600760016101000a81548160ff021916908315150217905550610c836799fd2f0f7f81cdf460c01b610f10565b610c976792daf7c2f73779f660c01b610f10565b600073ffffffffffffffffffffffffffffffffffffffff16600760029054906101000a900473ffffffffffffffffffffffffffffffffffffffff1673ffffffffffffffffffffffffffffffffffffffff1614610e9757610d016718489e00ed3edbce60c01b610f10565b610d156715f9e5f494f2b51560c01b610f10565b600060096000600760029054906101000a900473ffffffffffffffffffffffffffffffffffffffff1673ffffffffffffffffffffffffffffffffffffffff1673ffffffffffffffffffffffffffffffffffffffff16815260200190815260200160002081905550610d9067beb1ed5810cacff860c01b610f10565b610da46786f2f1bf7ceba36160c01b610f10565b60008054906101000a900473ffffffffffffffffffffffffffffffffffffffff1673ffffffffffffffffffffffffffffffffffffffff166108fc6008549081150290604051600060405180830381858888f19350505050158015610e0c573d6000803e3d6000fd5b50610e2167093bee7a5f5ee54d60c01b610f10565b610e3567af959d1c6546c09b60c01b610f10565b7fdaec4582d5d9595688c8c98545fdd1c696d41c6aeaeb636737e84ed2f5c00eda600760029054906101000a900473ffffffffffffffffffffffffffffffffffffffff16600854604051610e8a929190611329565b60405180910390a1610f0e565b610eab67790ca8318e3903d260c01b610f10565b610ebf67584aa0abd963325760c01b610f10565b610ed3677d0b682e4e54faa460c01b610f10565b7fdaec4582d5d9595688c8c98545fdd1c696d41c6aeaeb636737e84ed2f5c00eda600080604051610f05929190611397565b60405180910390a15b565b50565b6000819050919050565b610f2681610f13565b82525050565b6000602082019050610f416000830184610f1d565b92915050565b600073ffffffffffffffffffffffffffffffffffffffff82169050919050565b6000610f7282610f47565b9050919050565b610f8281610f67565b82525050565b6000602082019050610f9d6000830184610f79565b92915050565b600080fd5b6000610fb382610f47565b9050919050565b610fc381610fa8565b8114610fce57600080fd5b50565b600081359050610fe081610fba565b92915050565b600060208284031215610ffc57610ffb610fa3565b5b600061100a84828501610fd1565b91505092915050565b60008115159050919050565b61102881611013565b82525050565b6000602082019050611043600083018461101f565b92915050565b61105281610fa8565b82525050565b600060208201905061106d6000830184611049565b92915050565b600082825260208201905092915050565b7f41756374696f6e20686173206e6f7420656e6465642079657400000000000000600082015250565b60006110ba601983611073565b91506110c582611084565b602082019050919050565b600060208201905081810360008301526110e9816110ad565b9050919050565b7f48696768657374206269646465722063616e6e6f7420726566756e6400000000600082015250565b6000611126601c83611073565b9150611131826110f0565b602082019050919050565b6000602082019050818103600083015261115581611119565b9050919050565b7f4e6f2062696420746f20726566756e6400000000000000000000000000000000600082015250565b6000611192601083611073565b915061119d8261115c565b602082019050919050565b600060208201905081810360008301526111c181611185565b9050919050565b7f41756374696f6e20616c726561647920656e6465640000000000000000000000600082015250565b60006111fe601583611073565b9150611209826111c8565b602082019050919050565b6000602082019050818103600083015261122d816111f1565b9050919050565b7f42696420616d6f756e74206d7573742062652067726561746572207468616e2060008201527f3000000000000000000000000000000000000000000000000000000000000000602082015250565b6000611290602183611073565b915061129b82611234565b604082019050919050565b600060208201905081810360008301526112bf81611283565b9050919050565b7f4e487b7100000000000000000000000000000000000000000000000000000000600052601160045260246000fd5b600061130082610f13565b915061130b83610f13565b9250828201905080821115611323576113226112c6565b5b92915050565b600060408201905061133e6000830185611049565b61134b6020830184610f1d565b9392505050565b6000819050919050565b6000819050919050565b600061138161137c61137784611352565b61135c565b610f13565b9050919050565b61139181611366565b82525050565b60006040820190506113ac6000830185611049565b6113b96020830184611388565b939250505056fea2646970667358221220774a7f30d8b02f9d78bc1fe38c29a84c19ac10367fe7f76406ec69b625dde55a64736f6c63430008120033",
  "linkReferences": {},
  "deployedLinkReferences": {}
}