{
  "_format": "hh-sol-artifact-1",
  "contractName": "BasicDutchAuction",
  "sourceName": "contracts/BasicDutchAuction.sol",
  "abi": [
    {
      "inputs": [
        {
          "internalType": "uint256",
          "name": "_reservePrice",
          "type": "uint256"
        },
        {
          "internalType": "uint256",
          "name": "_numBlocksAuctionOpen",
          "type": "uint256"
        },
        {
          "internalType": "uint256",
          "name": "_offerPriceDecrement",
          "type": "uint256"
        }
      ],
      "stateMutability": "nonpayable",
      "type": "constructor"
    },
    {
      "anonymous": false,
      "inputs": [
        {
          "indexed": false,
          "internalType": "address",
          "name": "winner",
          "type": "address"
        },
        {
          "indexed": false,
          "internalType": "uint256",
          "name": "amount",
          "type": "uint256"
        }
      ],
      "name": "AuctionEnded",
      "type": "event"
    },
    {
      "anonymous": false,
      "inputs": [
        {
          "indexed": false,
          "internalType": "address",
          "name": "bidder",
          "type": "address"
        },
        {
          "indexed": false,
          "internalType": "uint256",
          "name": "amount",
          "type": "uint256"
        }
      ],
      "name": "BidPlaced",
      "type": "event"
    },
    {
      "inputs": [],
      "name": "auctionEnded",
      "outputs": [
        {
          "internalType": "bool",
          "name": "",
          "type": "bool"
        }
      ],
      "stateMutability": "view",
      "type": "function"
    },
    {
      "inputs": [
        {
          "internalType": "address",
          "name": "",
          "type": "address"
        }
      ],
      "name": "bids",
      "outputs": [
        {
          "internalType": "uint256",
          "name": "",
          "type": "uint256"
        }
      ],
      "stateMutability": "view",
      "type": "function"
    },
    {
      "inputs": [],
      "name": "endBlock",
      "outputs": [
        {
          "internalType": "uint256",
          "name": "",
          "type": "uint256"
        }
      ],
      "stateMutability": "view",
      "type": "function"
    },
    {
      "inputs": [],
      "name": "getCurrentPrice",
      "outputs": [
        {
          "internalType": "uint256",
          "name": "",
          "type": "uint256"
        }
      ],
      "stateMutability": "view",
      "type": "function"
    },
    {
      "inputs": [],
      "name": "highestBid",
      "outputs": [
        {
          "internalType": "uint256",
          "name": "",
          "type": "uint256"
        }
      ],
      "stateMutability": "view",
      "type": "function"
    },
    {
      "inputs": [],
      "name": "highestBidder",
      "outputs": [
        {
          "internalType": "address",
          "name": "",
          "type": "address"
        }
      ],
      "stateMutability": "view",
      "type": "function"
    },
    {
      "inputs": [],
      "name": "initialPrice",
      "outputs": [
        {
          "internalType": "uint256",
          "name": "",
          "type": "uint256"
        }
      ],
      "stateMutability": "view",
      "type": "function"
    },
    {
      "inputs": [],
      "name": "itemSold",
      "outputs": [
        {
          "internalType": "bool",
          "name": "",
          "type": "bool"
        }
      ],
      "stateMutability": "view",
      "type": "function"
    },
    {
      "inputs": [],
      "name": "numBlocksAuctionOpen",
      "outputs": [
        {
          "internalType": "uint256",
          "name": "",
          "type": "uint256"
        }
      ],
      "stateMutability": "view",
      "type": "function"
    },
    {
      "inputs": [],
      "name": "offerPriceDecrement",
      "outputs": [
        {
          "internalType": "uint256",
          "name": "",
          "type": "uint256"
        }
      ],
      "stateMutability": "view",
      "type": "function"
    },
    {
      "inputs": [],
      "name": "placeBid",
      "outputs": [],
      "stateMutability": "payable",
      "type": "function"
    },
    {
      "inputs": [
        {
          "internalType": "address",
          "name": "bidder",
          "type": "address"
        }
      ],
      "name": "refundBid",
      "outputs": [],
      "stateMutability": "nonpayable",
      "type": "function"
    },
    {
      "inputs": [],
      "name": "reservePrice",
      "outputs": [
        {
          "internalType": "uint256",
          "name": "",
          "type": "uint256"
        }
      ],
      "stateMutability": "view",
      "type": "function"
    },
    {
      "inputs": [],
      "name": "seller",
      "outputs": [
        {
          "internalType": "address payable",
          "name": "",
          "type": "address"
        }
      ],
      "stateMutability": "view",
      "type": "function"
    },
    {
      "inputs": [],
      "name": "startBlock",
      "outputs": [
        {
          "internalType": "uint256",
          "name": "",
          "type": "uint256"
        }
      ],
      "stateMutability": "view",
      "type": "function"
    }
  ],
  "bytecode": "0x60806040523480156200001157600080fd5b5060405162001d2838038062001d2883398181016040528101906200003791906200026b565b6200005367ea7bd5424ff204b260c01b6200022860201b60201c565b6200006f67df20ccc2d68f915f60c01b6200022860201b60201c565b336000806101000a81548173ffffffffffffffffffffffffffffffffffffffff021916908373ffffffffffffffffffffffffffffffffffffffff160217905550620000cb67b1dd654ad227413560c01b6200022860201b60201c565b82600181905550620000ee6795831a4c55e3f66960c01b6200022860201b60201c565b816002819055506200011167a1a7812fabaaa7b160c01b6200022860201b60201c565b8060038190555062000134678920d5b89a067a8b60c01b6200022860201b60201c565b600354600254620001469190620002f6565b60015462000155919062000341565b600481905550620001776762b11163ee5f7c0160c01b6200022860201b60201c565b436005819055506200019a6766d613dd06983aac60c01b6200022860201b60201c565b600254600554620001ac919062000341565b600681905550620001ce67209d586b156a62a460c01b6200022860201b60201c565b6000600760006101000a81548160ff021916908315150217905550620002046649ca032e6b205860c01b6200022860201b60201c565b6000600760016101000a81548160ff0219169083151502179055505050506200037c565b50565b600080fd5b6000819050919050565b620002458162000230565b81146200025157600080fd5b50565b60008151905062000265816200023a565b92915050565b6000806000606084860312156200028757620002866200022b565b5b6000620002978682870162000254565b9350506020620002aa8682870162000254565b9250506040620002bd8682870162000254565b9150509250925092565b7f4e487b7100000000000000000000000000000000000000000000000000000000600052601160045260246000fd5b6000620003038262000230565b9150620003108362000230565b9250828202620003208162000230565b915082820484148315176200033a5762000339620002c7565b5b5092915050565b60006200034e8262000230565b91506200035b8362000230565b9250828201905080821115620003765762000375620002c7565b5b92915050565b61199c806200038c6000396000f3fe6080604052600436106100e85760003560e01c806362ea82db1161008a578063d57bde7911610059578063d57bde79146102d6578063db2e1eed14610301578063eb91d37e1461032c578063ecfc7ecc14610357576100e8565b806362ea82db14610218578063864333741461025557806391f9015714610280578063d3642a88146102ab576100e8565b80633103ea62116100c65780633103ea621461016e578063385e315514610199578063438e897a146101c257806348cd4cb1146101ed576100e8565b8063083c6323146100ed57806308551a53146101185780631d0806ae14610143575b600080fd5b3480156100f957600080fd5b50610102610361565b60405161010f91906112f2565b60405180910390f35b34801561012457600080fd5b5061012d610367565b60405161013a919061134e565b60405180910390f35b34801561014f57600080fd5b5061015861038b565b60405161016591906112f2565b60405180910390f35b34801561017a57600080fd5b50610183610391565b60405161019091906112f2565b60405180910390f35b3480156101a557600080fd5b506101c060048036038101906101bb91906113ac565b610397565b005b3480156101ce57600080fd5b506101d7610734565b6040516101e491906113f4565b60405180910390f35b3480156101f957600080fd5b50610202610747565b60405161020f91906112f2565b60405180910390f35b34801561022457600080fd5b5061023f600480360381019061023a91906113ac565b61074d565b60405161024c91906112f2565b60405180910390f35b34801561026157600080fd5b5061026a610765565b60405161027791906113f4565b60405180910390f35b34801561028c57600080fd5b50610295610778565b6040516102a2919061141e565b60405180910390f35b3480156102b757600080fd5b506102c061079e565b6040516102cd91906112f2565b60405180910390f35b3480156102e257600080fd5b506102eb6107a4565b6040516102f891906112f2565b60405180910390f35b34801561030d57600080fd5b506103166107aa565b60405161032391906112f2565b60405180910390f35b34801561033857600080fd5b506103416107b0565b60405161034e91906112f2565b60405180910390f35b61035f610932565b005b60065481565b60008054906101000a900473ffffffffffffffffffffffffffffffffffffffff1681565b60045481565b60025481565b6103ab67a8d02daea55db61f60c01b610f9e565b6103bf67f97877f71948b2af60c01b610f9e565b6103d367591af0c60129109f60c01b610f9e565b6103e76718c9874541a6e1aa60c01b610f9e565b600760009054906101000a900460ff16610436576040517f08c379a000000000000000000000000000000000000000000000000000000000815260040161042d90611496565b60405180910390fd5b61044a677ad21cbb02818bfb60c01b610f9e565b61045e67a54ecf6cc996669d60c01b610f9e565b61047267b3b8dc8fba878ba160c01b610f9e565b610486676f0539e4de5efd9460c01b610f9e565b6000600960008373ffffffffffffffffffffffffffffffffffffffff1673ffffffffffffffffffffffffffffffffffffffff1681526020019081526020016000205411610508576040517f08c379a00000000000000000000000000000000000000000000000000000000081526004016104ff90611502565b60405180910390fd5b61051c67298d80b8adc9603c60c01b610f9e565b61053067e43a272b420eb97160c01b610f9e565b610544671162da78f9ef463c60c01b610f9e565b61055867a4aa36ee8292dd4660c01b610f9e565b600760029054906101000a900473ffffffffffffffffffffffffffffffffffffffff1673ffffffffffffffffffffffffffffffffffffffff168173ffffffffffffffffffffffffffffffffffffffff16036105e8576040517f08c379a00000000000000000000000000000000000000000000000000000000081526004016105df9061156e565b60405180910390fd5b6105fc67d5775678c23738e160c01b610f9e565b610610674b68dc322ddb7d5c60c01b610f9e565b610624674b59133614f31d5a60c01b610f9e565b6000600960008373ffffffffffffffffffffffffffffffffffffffff1673ffffffffffffffffffffffffffffffffffffffff16815260200190815260200160002054905061067c67c4d88e5b71a7ace360c01b610f9e565b6000600960008473ffffffffffffffffffffffffffffffffffffffff1673ffffffffffffffffffffffffffffffffffffffff168152602001908152602001600020819055506106d5671f33d62cfd9bb8f360c01b610f9e565b6106e967b5f7f10a381839ca60c01b610f9e565b8173ffffffffffffffffffffffffffffffffffffffff166108fc829081150290604051600060405180830381858888f1935050505015801561072f573d6000803e3d6000fd5b505050565b600760019054906101000a900460ff1681565b60055481565b60096020528060005260406000206000915090505481565b600760009054906101000a900460ff1681565b600760029054906101000a900473ffffffffffffffffffffffffffffffffffffffff1681565b60035481565b60085481565b60015481565b60006107c667159f52d074c7745b60c01b610f9e565b6107da676c9f093620b0a2a060c01b610f9e565b6107ee6756a730929ad42d9760c01b610f9e565b600043905061080767ea42cc783b9992db60c01b610f9e565b61081b6799fd2f0f7f81cdf460c01b610f9e565b600554811161086b576108386792daf7c2f73779f660c01b610f9e565b61084c6718489e00ed3edbce60c01b610f9e565b6108606715f9e5f494f2b51560c01b610f9e565b60045491505061092f565b61087f67beb1ed5810cacff860c01b610f9e565b6108936786f2f1bf7ceba36160c01b610f9e565b6108a767093bee7a5f5ee54d60c01b610f9e565b6000600554826108b791906115bd565b90506108cd67af959d1c6546c09b60c01b610f9e565b6108e167790ca8318e3903d260c01b610f9e565b6000600354826108f191906115f1565b905061090767584aa0abd963325760c01b610f9e565b61091b677d0b682e4e54faa460c01b610f9e565b8060045461092991906115bd565b93505050505b90565b610946675ce4254746d0e62160c01b610f9e565b61095a67ffee5005e14edffb60c01b610f9e565b61096e67968043f64f098a3460c01b610f9e565b61098267e7d2bcc825945a5260c01b610f9e565b600554431015801561099657506006544311155b6109d5576040517f08c379a00000000000000000000000000000000000000000000000000000000081526004016109cc9061167f565b60405180910390fd5b6109e9676c3eaf03bcbc74a360c01b610f9e565b6109fd67aa9f4162d7d1a00360c01b610f9e565b610a11674ad4abcf7b3044b360c01b610f9e565b610a256728244fd9353c404b60c01b610f9e565b600760009054906101000a900460ff1615610a75576040517f08c379a0000000000000000000000000000000000000000000000000000000008152600401610a6c906116eb565b60405180910390fd5b610a89673631c4716a9d398c60c01b610f9e565b610a9d676d411fac4f8da5c860c01b610f9e565b610ab167187249576e1da13660c01b610f9e565b610ac56781558ef263a64c1460c01b610f9e565b600760019054906101000a900460ff1615610b15576040517f08c379a0000000000000000000000000000000000000000000000000000000008152600401610b0c90611757565b60405180910390fd5b610b29671a829987fbc251b060c01b610f9e565b610b3d6755b21dee63c3783460c01b610f9e565b610b516757a5b71ae94d998a60c01b610f9e565b610b6567504f15962b3df55b60c01b610f9e565b60003411610ba8576040517f08c379a0000000000000000000000000000000000000000000000000000000008152600401610b9f906117e9565b60405180910390fd5b610bbc675cd6b4d5bf0c006c60c01b610f9e565b610bd0672b76ed231ef2088960c01b610f9e565b610be46777eb7920824b8d0060c01b610f9e565b6000610bee6107b0565b9050610c04677918063d59754ebd60c01b610f9e565b610c18674b33d70b020a70c660c01b610f9e565b610c2c67ad5b5f47b9959ffd60c01b610f9e565b80341015610c6f576040517f08c379a0000000000000000000000000000000000000000000000000000000008152600401610c669061187b565b60405180910390fd5b610c83675d4ec003a8af7cde60c01b610f9e565b610c9767d9454cb82742dc7a60c01b610f9e565b610cab6744da0aedaaacc1be60c01b610f9e565b600854341115610e2c57610cc96723dccaad9cb0b4a460c01b610f9e565b610cdd674ed31c252370610b60c01b610f9e565b610cf1670e4e5568d51df0d560c01b610f9e565b600060085414610da257610d0f6745449e5296c7390360c01b610f9e565b610d236796c6effcbbd2c40660c01b610f9e565b60085460096000600760029054906101000a900473ffffffffffffffffffffffffffffffffffffffff1673ffffffffffffffffffffffffffffffffffffffff1673ffffffffffffffffffffffffffffffffffffffff1681526020019081526020016000206000828254610d96919061189b565b92505081905550610db7565b610db6677158583853ab6a1860c01b610f9e565b5b610dcb67d1542e57f4f4924560c01b610f9e565b33600760026101000a81548173ffffffffffffffffffffffffffffffffffffffff021916908373ffffffffffffffffffffffffffffffffffffffff160217905550610e20675a25bb45d2af8ba960c01b610f9e565b34600881905550610eab565b610e406743dd5332de1a40ce60c01b610f9e565b610e54671dfe885be9f7808660c01b610f9e565b34600960003373ffffffffffffffffffffffffffffffffffffffff1673ffffffffffffffffffffffffffffffffffffffff1681526020019081526020016000206000828254610ea3919061189b565b925050819055505b610ebf67b981198dcc94145460c01b610f9e565b610ed367033dbf47ca405bb460c01b610f9e565b7f3fabff0a9c3ecd6814702e247fa9733e5d0aa69e3a38590f92cb18f623a2254d3334604051610f049291906118cf565b60405180910390a1610f2067a62447b512eaf7d160c01b610f9e565b610f3467de97e3feb7a5fcf460c01b610f9e565b6004543410610f8657610f51679b0b3ba2be9c035960c01b610f9e565b610f6567b9980bc07c0f652260c01b610f9e565b610f796769fc5d51ff6d129260c01b610f9e565b610f81610fa1565b610f9b565b610f9a678b1f216b028c225a60c01b610f9e565b5b50565b50565b610fb56788c1810682b1101360c01b610f9e565b610fc96790c71dbf3e7019fe60c01b610f9e565b610fdd676fd4f0aab99d3c8660c01b610f9e565b610ff1673f66d653b066ea5a60c01b610f9e565b600760009054906101000a900460ff1615611041576040517f08c379a0000000000000000000000000000000000000000000000000000000008152600401611038906116eb565b60405180910390fd5b6110556701d308d2c5c13a8d60c01b610f9e565b611069671b4c3236ee4ae0a860c01b610f9e565b6001600760006101000a81548160ff0219169083151502179055506110986788863ee90d5f71a360c01b610f9e565b6001600760016101000a81548160ff0219169083151502179055506110c767ccf2a6606fcb148860c01b610f9e565b6110db67ae51941a509aa2be60c01b610f9e565b600073ffffffffffffffffffffffffffffffffffffffff16600760029054906101000a900473ffffffffffffffffffffffffffffffffffffffff1673ffffffffffffffffffffffffffffffffffffffff1614611260576111456713717a9e18f6c02260c01b610f9e565b61115967089a10092d7efa4360c01b610f9e565b61116d6719249d1870bfc1f660c01b610f9e565b60008054906101000a900473ffffffffffffffffffffffffffffffffffffffff1673ffffffffffffffffffffffffffffffffffffffff166108fc6008549081150290604051600060405180830381858888f193505050501580156111d5573d6000803e3d6000fd5b506111ea67c61961693457a42b60c01b610f9e565b6111fe6798b469518da5aaab60c01b610f9e565b7fdaec4582d5d9595688c8c98545fdd1c696d41c6aeaeb636737e84ed2f5c00eda600760029054906101000a900473ffffffffffffffffffffffffffffffffffffffff166008546040516112539291906118cf565b60405180910390a16112d7565b611274676ad45f567a00c65460c01b610f9e565b611288670804c66c18ac935a60c01b610f9e565b61129c678569587b9de60a3c60c01b610f9e565b7fdaec4582d5d9595688c8c98545fdd1c696d41c6aeaeb636737e84ed2f5c00eda6000806040516112ce92919061193d565b60405180910390a15b565b6000819050919050565b6112ec816112d9565b82525050565b600060208201905061130760008301846112e3565b92915050565b600073ffffffffffffffffffffffffffffffffffffffff82169050919050565b60006113388261130d565b9050919050565b6113488161132d565b82525050565b6000602082019050611363600083018461133f565b92915050565b600080fd5b60006113798261130d565b9050919050565b6113898161136e565b811461139457600080fd5b50565b6000813590506113a681611380565b92915050565b6000602082840312156113c2576113c1611369565b5b60006113d084828501611397565b91505092915050565b60008115159050919050565b6113ee816113d9565b82525050565b600060208201905061140960008301846113e5565b92915050565b6114188161136e565b82525050565b6000602082019050611433600083018461140f565b92915050565b600082825260208201905092915050565b7f41756374696f6e20686173206e6f7420656e6465642079657400000000000000600082015250565b6000611480601983611439565b915061148b8261144a565b602082019050919050565b600060208201905081810360008301526114af81611473565b9050919050565b7f4e6f2062696420746f20726566756e6400000000000000000000000000000000600082015250565b60006114ec601083611439565b91506114f7826114b6565b602082019050919050565b6000602082019050818103600083015261151b816114df565b9050919050565b7f48696768657374206269646465722063616e6e6f7420726566756e6400000000600082015250565b6000611558601c83611439565b915061156382611522565b602082019050919050565b600060208201905081810360008301526115878161154b565b9050919050565b7f4e487b7100000000000000000000000000000000000000000000000000000000600052601160045260246000fd5b60006115c8826112d9565b91506115d3836112d9565b92508282039050818111156115eb576115ea61158e565b5b92915050565b60006115fc826112d9565b9150611607836112d9565b9250828202611615816112d9565b9150828204841483151761162c5761162b61158e565b5b5092915050565b7f41756374696f6e206e6f74206f70656e00000000000000000000000000000000600082015250565b6000611669601083611439565b915061167482611633565b602082019050919050565b600060208201905081810360008301526116988161165c565b9050919050565b7f41756374696f6e20616c726561647920656e6465640000000000000000000000600082015250565b60006116d5601583611439565b91506116e08261169f565b602082019050919050565b60006020820190508181036000830152611704816116c8565b9050919050565b7f4974656d20616c726561647920736f6c64000000000000000000000000000000600082015250565b6000611741601183611439565b915061174c8261170b565b602082019050919050565b6000602082019050818103600083015261177081611734565b9050919050565b7f42696420616d6f756e74206d7573742062652067726561746572207468616e2060008201527f3000000000000000000000000000000000000000000000000000000000000000602082015250565b60006117d3602183611439565b91506117de82611777565b604082019050919050565b60006020820190508181036000830152611802816117c6565b9050919050565b7f42696420616d6f756e742069732062656c6f772063757272656e74207072696360008201527f6500000000000000000000000000000000000000000000000000000000000000602082015250565b6000611865602183611439565b915061187082611809565b604082019050919050565b6000602082019050818103600083015261189481611858565b9050919050565b60006118a6826112d9565b91506118b1836112d9565b92508282019050808211156118c9576118c861158e565b5b92915050565b60006040820190506118e4600083018561140f565b6118f160208301846112e3565b9392505050565b6000819050919050565b6000819050919050565b600061192761192261191d846118f8565b611902565b6112d9565b9050919050565b6119378161190c565b82525050565b6000604082019050611952600083018561140f565b61195f602083018461192e565b939250505056fea264697066735822122052d9fc9c3c03bde54073aa3716e2f8dc2977af4f46cea425074b67bfbe55a4c664736f6c63430008120033",
  "linkReferences": {},
  "deployedLinkReferences": {}
}