{
  "_format": "hh-sol-artifact-1",
  "contractName": "NFTDutchAuction_ERC20Bids",
  "sourceName": "contracts/NFTDutchAuction_ERC20Bids.sol",
  "abi": [
    {
      "anonymous": false,
      "inputs": [
        {
          "indexed": false,
          "internalType": "address",
          "name": "previousAdmin",
          "type": "address"
        },
        {
          "indexed": false,
          "internalType": "address",
          "name": "newAdmin",
          "type": "address"
        }
      ],
      "name": "AdminChanged",
      "type": "event"
    },
    {
      "anonymous": false,
      "inputs": [
        {
          "indexed": true,
          "internalType": "address",
          "name": "winner",
          "type": "address"
        },
        {
          "indexed": false,
          "internalType": "uint256",
          "name": "winningBidAmount",
          "type": "uint256"
        }
      ],
      "name": "AuctionEnded",
      "type": "event"
    },
    {
      "anonymous": false,
      "inputs": [
        {
          "indexed": true,
          "internalType": "address",
          "name": "beacon",
          "type": "address"
        }
      ],
      "name": "BeaconUpgraded",
      "type": "event"
    },
    {
      "anonymous": false,
      "inputs": [
        {
          "indexed": true,
          "internalType": "address",
          "name": "bidder",
          "type": "address"
        },
        {
          "indexed": false,
          "internalType": "uint256",
          "name": "bidAmount",
          "type": "uint256"
        }
      ],
      "name": "BidPlaced",
      "type": "event"
    },
    {
      "anonymous": false,
      "inputs": [
        {
          "indexed": false,
          "internalType": "uint8",
          "name": "version",
          "type": "uint8"
        }
      ],
      "name": "Initialized",
      "type": "event"
    },
    {
      "anonymous": false,
      "inputs": [
        {
          "indexed": true,
          "internalType": "address",
          "name": "previousOwner",
          "type": "address"
        },
        {
          "indexed": true,
          "internalType": "address",
          "name": "newOwner",
          "type": "address"
        }
      ],
      "name": "OwnershipTransferred",
      "type": "event"
    },
    {
      "anonymous": false,
      "inputs": [
        {
          "indexed": true,
          "internalType": "address",
          "name": "implementation",
          "type": "address"
        }
      ],
      "name": "Upgraded",
      "type": "event"
    },
    {
      "inputs": [],
      "name": "auctionEnded",
      "outputs": [
        {
          "internalType": "bool",
          "name": "",
          "type": "bool"
        }
      ],
      "stateMutability": "view",
      "type": "function"
    },
    {
      "inputs": [],
      "name": "auctionStartTime",
      "outputs": [
        {
          "internalType": "uint256",
          "name": "",
          "type": "uint256"
        }
      ],
      "stateMutability": "view",
      "type": "function"
    },
    {
      "inputs": [
        {
          "internalType": "address",
          "name": "",
          "type": "address"
        }
      ],
      "name": "bids",
      "outputs": [
        {
          "internalType": "uint256",
          "name": "",
          "type": "uint256"
        }
      ],
      "stateMutability": "view",
      "type": "function"
    },
    {
      "inputs": [],
      "name": "endAuction",
      "outputs": [],
      "stateMutability": "nonpayable",
      "type": "function"
    },
    {
      "inputs": [],
      "name": "erc20Token",
      "outputs": [
        {
          "internalType": "contract IERC20",
          "name": "",
          "type": "address"
        }
      ],
      "stateMutability": "view",
      "type": "function"
    },
    {
      "inputs": [],
      "name": "erc721TokenAddress",
      "outputs": [
        {
          "internalType": "address",
          "name": "",
          "type": "address"
        }
      ],
      "stateMutability": "view",
      "type": "function"
    },
    {
      "inputs": [],
      "name": "getMessage",
      "outputs": [
        {
          "internalType": "string",
          "name": "",
          "type": "string"
        }
      ],
      "stateMutability": "view",
      "type": "function"
    },
    {
      "inputs": [],
      "name": "highestBid",
      "outputs": [
        {
          "internalType": "uint256",
          "name": "",
          "type": "uint256"
        }
      ],
      "stateMutability": "view",
      "type": "function"
    },
    {
      "inputs": [],
      "name": "highestBidder",
      "outputs": [
        {
          "internalType": "address",
          "name": "",
          "type": "address"
        }
      ],
      "stateMutability": "view",
      "type": "function"
    },
    {
      "inputs": [],
      "name": "initialPrice",
      "outputs": [
        {
          "internalType": "uint256",
          "name": "",
          "type": "uint256"
        }
      ],
      "stateMutability": "view",
      "type": "function"
    },
    {
      "inputs": [
        {
          "internalType": "string",
          "name": "_upgradeNumber",
          "type": "string"
        },
        {
          "internalType": "address",
          "name": "_erc20TokenAddress",
          "type": "address"
        },
        {
          "internalType": "address",
          "name": "_erc721TokenAddress",
          "type": "address"
        },
        {
          "internalType": "uint256",
          "name": "_nftTokenId",
          "type": "uint256"
        },
        {
          "internalType": "uint256",
          "name": "_reservePrice",
          "type": "uint256"
        },
        {
          "internalType": "uint256",
          "name": "_numBlocksAuctionOpen",
          "type": "uint256"
        },
        {
          "internalType": "uint256",
          "name": "_offerPriceDecrement",
          "type": "uint256"
        }
      ],
      "name": "initialize",
      "outputs": [],
      "stateMutability": "nonpayable",
      "type": "function"
    },
    {
      "inputs": [],
      "name": "itemSold",
      "outputs": [
        {
          "internalType": "bool",
          "name": "",
          "type": "bool"
        }
      ],
      "stateMutability": "view",
      "type": "function"
    },
    {
      "inputs": [],
      "name": "nft",
      "outputs": [
        {
          "internalType": "contract IERC721",
          "name": "",
          "type": "address"
        }
      ],
      "stateMutability": "view",
      "type": "function"
    },
    {
      "inputs": [],
      "name": "nftTokenId",
      "outputs": [
        {
          "internalType": "uint256",
          "name": "",
          "type": "uint256"
        }
      ],
      "stateMutability": "view",
      "type": "function"
    },
    {
      "inputs": [],
      "name": "numBlocksAuctionOpen",
      "outputs": [
        {
          "internalType": "uint256",
          "name": "",
          "type": "uint256"
        }
      ],
      "stateMutability": "view",
      "type": "function"
    },
    {
      "inputs": [],
      "name": "offerPriceDecrement",
      "outputs": [
        {
          "internalType": "uint256",
          "name": "",
          "type": "uint256"
        }
      ],
      "stateMutability": "view",
      "type": "function"
    },
    {
      "inputs": [],
      "name": "owner",
      "outputs": [
        {
          "internalType": "address",
          "name": "",
          "type": "address"
        }
      ],
      "stateMutability": "view",
      "type": "function"
    },
    {
      "inputs": [
        {
          "internalType": "uint256",
          "name": "bidAmount",
          "type": "uint256"
        }
      ],
      "name": "placeBid",
      "outputs": [],
      "stateMutability": "nonpayable",
      "type": "function"
    },
    {
      "inputs": [],
      "name": "proxiableUUID",
      "outputs": [
        {
          "internalType": "bytes32",
          "name": "",
          "type": "bytes32"
        }
      ],
      "stateMutability": "view",
      "type": "function"
    },
    {
      "inputs": [
        {
          "internalType": "address",
          "name": "bidder",
          "type": "address"
        }
      ],
      "name": "refundBidders",
      "outputs": [],
      "stateMutability": "nonpayable",
      "type": "function"
    },
    {
      "inputs": [],
      "name": "renounceOwnership",
      "outputs": [],
      "stateMutability": "nonpayable",
      "type": "function"
    },
    {
      "inputs": [],
      "name": "reservePrice",
      "outputs": [
        {
          "internalType": "uint256",
          "name": "",
          "type": "uint256"
        }
      ],
      "stateMutability": "view",
      "type": "function"
    },
    {
      "inputs": [
        {
          "internalType": "uint256",
          "name": "bidAmount",
          "type": "uint256"
        },
        {
          "components": [
            {
              "internalType": "address",
              "name": "owner",
              "type": "address"
            },
            {
              "internalType": "address",
              "name": "spender",
              "type": "address"
            },
            {
              "internalType": "uint256",
              "name": "value",
              "type": "uint256"
            },
            {
              "internalType": "uint256",
              "name": "deadline",
              "type": "uint256"
            },
            {
              "internalType": "uint256",
              "name": "nonce",
              "type": "uint256"
            },
            {
              "internalType": "uint8",
              "name": "v",
              "type": "uint8"
            },
            {
              "internalType": "bytes32",
              "name": "r",
              "type": "bytes32"
            },
            {
              "internalType": "bytes32",
              "name": "s",
              "type": "bytes32"
            }
          ],
          "internalType": "struct NFTDutchAuction_ERC20Bids.PermitData",
          "name": "permitData",
          "type": "tuple"
        }
      ],
      "name": "submitBidWithPermit",
      "outputs": [],
      "stateMutability": "nonpayable",
      "type": "function"
    },
    {
      "inputs": [
        {
          "internalType": "address",
          "name": "newOwner",
          "type": "address"
        }
      ],
      "name": "transferOwnership",
      "outputs": [],
      "stateMutability": "nonpayable",
      "type": "function"
    },
    {
      "inputs": [],
      "name": "upgradeNumber",
      "outputs": [
        {
          "internalType": "string",
          "name": "",
          "type": "string"
        }
      ],
      "stateMutability": "view",
      "type": "function"
    },
    {
      "inputs": [
        {
          "internalType": "address",
          "name": "newImplementation",
          "type": "address"
        }
      ],
      "name": "upgradeTo",
      "outputs": [],
      "stateMutability": "nonpayable",
      "type": "function"
    },
    {
      "inputs": [
        {
          "internalType": "address",
          "name": "newImplementation",
          "type": "address"
        },
        {
          "internalType": "bytes",
          "name": "data",
          "type": "bytes"
        }
      ],
      "name": "upgradeToAndCall",
      "outputs": [],
      "stateMutability": "payable",
      "type": "function"
    }
  ],
  "bytecode": "0x60a06040523073ffffffffffffffffffffffffffffffffffffffff1660809073ffffffffffffffffffffffffffffffffffffffff1681525034801561004357600080fd5b5060805161414f61007b600039600081816109fe01528181610a8c01528181610bbf01528181610c4d0152610cfd015261414f6000f3fe60806040526004361061019c5760003560e01c806386433374116100ec578063d57bde791161008a578063eb54f9ec11610064578063eb54f9ec14610563578063eb8bf84d1461058e578063f2fde38b146105b9578063fe67a54b146105e25761019c565b8063d57bde79146104e2578063db2e1eed1461050d578063df241cb9146105385761019c565b806391f90157116100c657806391f90157146104385780639979ef4514610463578063ce6d41de1461048c578063d3642a88146104b75761019c565b806386433374146103b75780638a13eea7146103e25780638da5cb5b1461040d5761019c565b80634f1ef28611610159578063715018a611610133578063715018a61461032357806374fe29161461033a5780637e8305741461036357806384b8b9251461038e5761019c565b80634f1ef2861461029f57806352d1902d146102bb57806362ea82db146102e65761019c565b80631d0806ae146101a15780632bf0d538146101cc5780633103ea62146101f55780633659cfe614610220578063438e897a1461024957806347ccca0214610274575b600080fd5b3480156101ad57600080fd5b506101b66105f9565b6040516101c39190612a17565b60405180910390f35b3480156101d857600080fd5b506101f360048036038101906101ee9190612aa4565b6105ff565b005b34801561020157600080fd5b5061020a6109f6565b6040516102179190612a17565b60405180910390f35b34801561022c57600080fd5b5061024760048036038101906102429190612aa4565b6109fc565b005b34801561025557600080fd5b5061025e610b84565b60405161026b9190612aec565b60405180910390f35b34801561028057600080fd5b50610289610b97565b6040516102969190612b66565b60405180910390f35b6102b960048036038101906102b49190612cc7565b610bbd565b005b3480156102c757600080fd5b506102d0610cf9565b6040516102dd9190612d3c565b60405180910390f35b3480156102f257600080fd5b5061030d60048036038101906103089190612aa4565b610db2565b60405161031a9190612a17565b60405180910390f35b34801561032f57600080fd5b50610338610dca565b005b34801561034657600080fd5b50610361600480360381019061035c9190612e24565b610dde565b005b34801561036f57600080fd5b50610378611364565b6040516103859190612a17565b60405180910390f35b34801561039a57600080fd5b506103b560048036038101906103b09190613016565b61136a565b005b3480156103c357600080fd5b506103cc611401565b6040516103d99190612aec565b60405180910390f35b3480156103ee57600080fd5b506103f7611414565b6040516104049190613078565b60405180910390f35b34801561041957600080fd5b5061042261143a565b60405161042f91906130a2565b60405180910390f35b34801561044457600080fd5b5061044d611464565b60405161045a91906130a2565b60405180910390f35b34801561046f57600080fd5b5061048a600480360381019061048591906130bd565b61148a565b005b34801561049857600080fd5b506104a16119cc565b6040516104ae9190613169565b60405180910390f35b3480156104c357600080fd5b506104cc611a9a565b6040516104d99190612a17565b60405180910390f35b3480156104ee57600080fd5b506104f7611aa0565b6040516105049190612a17565b60405180910390f35b34801561051957600080fd5b50610522611aa6565b60405161052f9190612a17565b60405180910390f35b34801561054457600080fd5b5061054d611aac565b60405161055a91906130a2565b60405180910390f35b34801561056f57600080fd5b50610578611ad2565b6040516105859190612a17565b60405180910390f35b34801561059a57600080fd5b506105a3611ad8565b6040516105b09190613169565b60405180910390f35b3480156105c557600080fd5b506105e060048036038101906105db9190612aa4565b611b66565b005b3480156105ee57600080fd5b506105f7611be9565b005b60d05481565b61061367abd474dacd7fca1560c01b61220f565b61062767daa8ef87e05a14a060c01b61220f565b61063b677f84f243a200851660c01b61220f565b61064f67d050cb02fce6a77f60c01b61220f565b60d160009054906101000a900460ff1661069e576040517f08c379a0000000000000000000000000000000000000000000000000000000008152600401610695906131d7565b60405180910390fd5b6106b26709bd599923328f7860c01b61220f565b6106c66728cf245a593f04c160c01b61220f565b6106da6785f8625a7e946d4760c01b61220f565b6106ee6796b305704cf3edb460c01b61220f565b60d360009054906101000a900473ffffffffffffffffffffffffffffffffffffffff1673ffffffffffffffffffffffffffffffffffffffff168173ffffffffffffffffffffffffffffffffffffffff160361077e576040517f08c379a000000000000000000000000000000000000000000000000000000000815260040161077590613243565b60405180910390fd5b61079267a5223ed45dd9591b60c01b61220f565b6107a6672078a87b9b66137c60c01b61220f565b6107ba678e8bcc18d06a3c5d60c01b61220f565b6107ce67b89dd8956081025b60c01b61220f565b600060d260008373ffffffffffffffffffffffffffffffffffffffff1673ffffffffffffffffffffffffffffffffffffffff1681526020019081526020016000205411610850576040517f08c379a0000000000000000000000000000000000000000000000000000000008152600401610847906132af565b60405180910390fd5b610864672dabf325df43b93960c01b61220f565b61087867e4f43784d73f10ed60c01b61220f565b61088c6724e5d7c56aa9a63760c01b61220f565b600060d260008373ffffffffffffffffffffffffffffffffffffffff1673ffffffffffffffffffffffffffffffffffffffff1681526020019081526020016000205490506108e467ee175519cb6de5cd60c01b61220f565b600060d260008473ffffffffffffffffffffffffffffffffffffffff1673ffffffffffffffffffffffffffffffffffffffff1681526020019081526020016000208190555061093d670ae4d4dbf4228af960c01b61220f565b6109516782f033e2c1cc969160c01b61220f565b60c960009054906101000a900473ffffffffffffffffffffffffffffffffffffffff1673ffffffffffffffffffffffffffffffffffffffff1663a9059cbb83836040518363ffffffff1660e01b81526004016109ae9291906132cf565b6020604051808303816000875af11580156109cd573d6000803e3d6000fd5b505050506040513d601f19601f820116820180604052508101906109f19190613324565b505050565b60ce5481565b7f000000000000000000000000000000000000000000000000000000000000000073ffffffffffffffffffffffffffffffffffffffff163073ffffffffffffffffffffffffffffffffffffffff1603610a8a576040517f08c379a0000000000000000000000000000000000000000000000000000000008152600401610a81906133c3565b60405180910390fd5b7f000000000000000000000000000000000000000000000000000000000000000073ffffffffffffffffffffffffffffffffffffffff16610ac9612212565b73ffffffffffffffffffffffffffffffffffffffff1614610b1f576040517f08c379a0000000000000000000000000000000000000000000000000000000008152600401610b1690613455565b60405180910390fd5b610b2881612269565b610b8181600067ffffffffffffffff811115610b4757610b46612b9c565b5b6040519080825280601f01601f191660200182016040528015610b795781602001600182028036833780820191505090505b5060006122b0565b50565b60d160019054906101000a900460ff1681565b60ca60009054906101000a900473ffffffffffffffffffffffffffffffffffffffff1681565b7f000000000000000000000000000000000000000000000000000000000000000073ffffffffffffffffffffffffffffffffffffffff163073ffffffffffffffffffffffffffffffffffffffff1603610c4b576040517f08c379a0000000000000000000000000000000000000000000000000000000008152600401610c42906133c3565b60405180910390fd5b7f000000000000000000000000000000000000000000000000000000000000000073ffffffffffffffffffffffffffffffffffffffff16610c8a612212565b73ffffffffffffffffffffffffffffffffffffffff1614610ce0576040517f08c379a0000000000000000000000000000000000000000000000000000000008152600401610cd790613455565b60405180910390fd5b610ce982612269565b610cf5828260016122b0565b5050565b60007f000000000000000000000000000000000000000000000000000000000000000073ffffffffffffffffffffffffffffffffffffffff163073ffffffffffffffffffffffffffffffffffffffff1614610d89576040517f08c379a0000000000000000000000000000000000000000000000000000000008152600401610d80906134e7565b60405180910390fd5b7f360894a13ba1a3210667c828492db98dca3e2076cc3735a920a3ca505d382bbc60001b905090565b60d26020528060005260406000206000915090505481565b610dd261241e565b610ddc600061249c565b565b610df2671502e2f34a2c3fd460c01b61220f565b60008060019054906101000a900460ff16159050808015610e235750600160008054906101000a900460ff1660ff16105b80610e505750610e3230612562565b158015610e4f5750600160008054906101000a900460ff1660ff16145b5b610e8f576040517f08c379a0000000000000000000000000000000000000000000000000000000008152600401610e8690613579565b60405180910390fd5b60016000806101000a81548160ff021916908360ff1602179055508015610ecc576001600060016101000a81548160ff0219169083151502179055505b610ee06750d6a7849cc3873660c01b61220f565b610ef4679c2715c7ac95a31c60c01b61220f565b610f0867fe47650d25785ae760c01b61220f565b610f1c67311156d5fa89274b60c01b61220f565b610f24612585565b610f3867a6f021b91d22c1ef60c01b61220f565b610f4c67df86ed037e6f54ce60c01b61220f565b610f546125de565b610f68673f473f2ba6a7617860c01b61220f565b8760d69081610f77919061379b565b50610f8c6794355191982ff60d60c01b61220f565b8560cb60006101000a81548173ffffffffffffffffffffffffffffffffffffffff021916908373ffffffffffffffffffffffffffffffffffffffff160217905550610fe167b01e8f857c3c5a5a60c01b61220f565b8460cc81905550610ffc67b4ad0c6d2844fcc860c01b61220f565b8360cd81905550611017679a82921bad16632260c01b61220f565b8260ce8190555061103267454ce6746f91697960c01b61220f565b8160cf8190555061104d67411135b6b7872aea60c01b61220f565b61107861106760cf5460ce5461262f90919063ffffffff16565b60cd5461264590919063ffffffff16565b60d081905550611092678c113014befff62e60c01b61220f565b4360d5819055506110ad67889084baace53b6360c01b61220f565b600060d160006101000a81548160ff0219169083151502179055506110dc671c2ec839ad52fa2160c01b61220f565b600060d160016101000a81548160ff02191690831515021790555061110b6782f405bdbb0037db60c01b61220f565b8660c960006101000a81548173ffffffffffffffffffffffffffffffffffffffff021916908373ffffffffffffffffffffffffffffffffffffffff160217905550611160676943fa6f26cd942060c01b61220f565b8560ca60006101000a81548173ffffffffffffffffffffffffffffffffffffffff021916908373ffffffffffffffffffffffffffffffffffffffff1602179055506111b567e10a1acb8583c6fc60c01b61220f565b6111c9677fb7be0d33fe8d4360c01b61220f565b6111dd67e6aea1ff5b9affe260c01b61220f565b6111e561143a565b73ffffffffffffffffffffffffffffffffffffffff1660ca60009054906101000a900473ffffffffffffffffffffffffffffffffffffffff1673ffffffffffffffffffffffffffffffffffffffff16636352211e876040518263ffffffff1660e01b81526004016112569190612a17565b602060405180830381865afa158015611273573d6000803e3d6000fd5b505050506040513d601f19601f820116820180604052508101906112979190613882565b73ffffffffffffffffffffffffffffffffffffffff16146112ed576040517f08c379a00000000000000000000000000000000000000000000000000000000081526004016112e490613921565b60405180910390fd5b6113016748f4a1fa5111d08c60c01b61220f565b801561135a5760008060016101000a81548160ff0219169083151502179055507f7f26b83ff96e1f2b6a682f133852f6798a09c465da95921460cefb38474024986001604051611351919061397c565b60405180910390a15b5050505050505050565b60cc5481565b61137e6763e853de8ddaaf9260c01b61220f565b6113926797d4a6afb420712560c01b61220f565b6113a667748dd9e2f6ae1d0d60c01b61220f565b60006113c98260000151836020015184604001518560600151866080015161265b565b90506113df67556b871091de06c860c01b61220f565b6113f3675607e039f2b23ce660c01b61220f565b6113fc8361148a565b505050565b60d160009054906101000a900460ff1681565b60c960009054906101000a900473ffffffffffffffffffffffffffffffffffffffff1681565b6000603360009054906101000a900473ffffffffffffffffffffffffffffffffffffffff16905090565b60d360009054906101000a900473ffffffffffffffffffffffffffffffffffffffff1681565b61149e67f2351fedfe0ad97460c01b61220f565b6114b267d7890ccf987572b260c01b61220f565b6114c667b688198b63f4a47b60c01b61220f565b6114da67fc9c8405ae0deb8760c01b61220f565b6000811161151d576040517f08c379a000000000000000000000000000000000000000000000000000000000815260040161151490613a09565b60405180910390fd5b61153167d644ab37f727285360c01b61220f565b61154567f2e69d3a93365ac760c01b61220f565b611559673730018d4ad272eb60c01b61220f565b61156d670c43540ea7fe1df360c01b61220f565b60d160009054906101000a900460ff16156115bd576040517f08c379a00000000000000000000000000000000000000000000000000000000081526004016115b490613a75565b60405180910390fd5b6115d16791e40bf8e22d955d60c01b61220f565b6115e567e14fe248745d463060c01b61220f565b6115f967791b3af86afd358060c01b61220f565b60c960009054906101000a900473ffffffffffffffffffffffffffffffffffffffff1673ffffffffffffffffffffffffffffffffffffffff166323b872dd3330846040518463ffffffff1660e01b815260040161165893929190613a95565b6020604051808303816000875af1158015611677573d6000803e3d6000fd5b505050506040513d601f19601f8201168201806040525081019061169b9190613324565b506116b0670f1edd13bac814b760c01b61220f565b6116c46727a363e525859a4860c01b61220f565b60d454811115611845576116e267b5dbdfc24e6590f060c01b61220f565b6116f667c4c274fb2534456860c01b61220f565b61170a67798120582ac80ee060c01b61220f565b600060d454146117bb5761172867960d0c687ff577c660c01b61220f565b61173c67101345c45fdc8ecd60c01b61220f565b60d45460d2600060d360009054906101000a900473ffffffffffffffffffffffffffffffffffffffff1673ffffffffffffffffffffffffffffffffffffffff1673ffffffffffffffffffffffffffffffffffffffff16815260200190815260200160002060008282546117af9190613afb565b925050819055506117d0565b6117cf6792e8da93da4e4b6e60c01b61220f565b5b6117e4673592393e2531c08360c01b61220f565b3360d360006101000a81548173ffffffffffffffffffffffffffffffffffffffff021916908373ffffffffffffffffffffffffffffffffffffffff16021790555061183967ca27eeb4ceb2144760c01b61220f565b8060d4819055506118c4565b611859677d8946f33a776fbb60c01b61220f565b61186d673c7cb91ac5da201760c01b61220f565b8060d260003373ffffffffffffffffffffffffffffffffffffffff1673ffffffffffffffffffffffffffffffffffffffff16815260200190815260200160002060008282546118bc9190613afb565b925050819055505b6118d86747d994aaf379602960c01b61220f565b6118ec6712edffb605418be660c01b61220f565b3373ffffffffffffffffffffffffffffffffffffffff167f3fabff0a9c3ecd6814702e247fa9733e5d0aa69e3a38590f92cb18f623a2254d826040516119329190612a17565b60405180910390a261194e674719fe81a92148f260c01b61220f565b6119626731154d2f151a0e5760c01b61220f565b60d05481106119b45761197f67ceb3894b4c7e63da60c01b61220f565b611993679d1ec6dd8abea1d760c01b61220f565b6119a76794b68940e195851b60c01b61220f565b6119af611be9565b6119c9565b6119c8674f05062ecf813caf60c01b61220f565b5b50565b60606119e267abf5b064f8f4521a60c01b61220f565b6119f667f0d20e7510ebe8d360c01b61220f565b611a0a67456dd212b0d765da60c01b61220f565b60d68054611a17906135c8565b80601f0160208091040260200160405190810160405280929190818152602001828054611a43906135c8565b8015611a905780601f10611a6557610100808354040283529160200191611a90565b820191906000526020600020905b815481529060010190602001808311611a7357829003601f168201915b5050505050905090565b60cf5481565b60d45481565b60cd5481565b60cb60009054906101000a900473ffffffffffffffffffffffffffffffffffffffff1681565b60d55481565b60d68054611ae5906135c8565b80601f0160208091040260200160405190810160405280929190818152602001828054611b11906135c8565b8015611b5e5780601f10611b3357610100808354040283529160200191611b5e565b820191906000526020600020905b815481529060010190602001808311611b4157829003601f168201915b505050505081565b611b6e61241e565b600073ffffffffffffffffffffffffffffffffffffffff168173ffffffffffffffffffffffffffffffffffffffff1603611bdd576040517f08c379a0000000000000000000000000000000000000000000000000000000008152600401611bd490613ba1565b60405180910390fd5b611be68161249c565b50565b611bfd67a42b0807a6ed75a260c01b61220f565b611c1167303187a7f05b7fe160c01b61220f565b611c2567249f4c1ac34e5bf960c01b61220f565b611c396718da94c1b883d8d260c01b61220f565b60d160009054906101000a900460ff1615611c89576040517f08c379a0000000000000000000000000000000000000000000000000000000008152600401611c8090613a75565b60405180910390fd5b611c9d67bc3cb50405cee66160c01b61220f565b611cb167ddff74efaa478e4f60c01b61220f565b600160d160006101000a81548160ff021916908315150217905550611ce0671549eb3b3829a07a60c01b61220f565b600160d160016101000a81548160ff021916908315150217905550611d0f67fe9329818033562560c01b61220f565b611d23679dc99ee8fb684f8060c01b61220f565b600073ffffffffffffffffffffffffffffffffffffffff1660d360009054906101000a900473ffffffffffffffffffffffffffffffffffffffff1673ffffffffffffffffffffffffffffffffffffffff161461202157611d8d670a2911cbe3debbad60c01b61220f565b611da1677934d0275c7aa7a960c01b61220f565b600060d2600060d360009054906101000a900473ffffffffffffffffffffffffffffffffffffffff1673ffffffffffffffffffffffffffffffffffffffff1673ffffffffffffffffffffffffffffffffffffffff16815260200190815260200160002081905550611e1c6775a56467a2e6953e60c01b61220f565b611e3067e604b9c3b869d79f60c01b61220f565b60ca60009054906101000a900473ffffffffffffffffffffffffffffffffffffffff1673ffffffffffffffffffffffffffffffffffffffff166342842e0e60ca60009054906101000a900473ffffffffffffffffffffffffffffffffffffffff1673ffffffffffffffffffffffffffffffffffffffff16636352211e60cc546040518263ffffffff1660e01b8152600401611ecb9190612a17565b602060405180830381865afa158015611ee8573d6000803e3d6000fd5b505050506040513d601f19601f82011682018060405250810190611f0c9190613882565b60d360009054906101000a900473ffffffffffffffffffffffffffffffffffffffff1660cc546040518463ffffffff1660e01b8152600401611f5093929190613a95565b600060405180830381600087803b158015611f6a57600080fd5b505af1158015611f7e573d6000803e3d6000fd5b50505050611f9667e721a900fb2fba9c60c01b61220f565b611faa67eb7e9b61bc2420cc60c01b61220f565b60d360009054906101000a900473ffffffffffffffffffffffffffffffffffffffff1673ffffffffffffffffffffffffffffffffffffffff167fdaec4582d5d9595688c8c98545fdd1c696d41c6aeaeb636737e84ed2f5c00eda60d4546040516120149190612a17565b60405180910390a261220d565b6120356724d8657a79d8129d60c01b61220f565b6120496745efbf61e591171c60c01b61220f565b61205d67d8201db17d5c035860c01b61220f565b60ca60009054906101000a900473ffffffffffffffffffffffffffffffffffffffff1673ffffffffffffffffffffffffffffffffffffffff166342842e0e60ca60009054906101000a900473ffffffffffffffffffffffffffffffffffffffff1673ffffffffffffffffffffffffffffffffffffffff16636352211e60cc546040518263ffffffff1660e01b81526004016120f89190612a17565b602060405180830381865afa158015612115573d6000803e3d6000fd5b505050506040513d601f19601f820116820180604052508101906121399190613882565b61214161143a565b60cc546040518463ffffffff1660e01b815260040161216293929190613a95565b600060405180830381600087803b15801561217c57600080fd5b505af1158015612190573d6000803e3d6000fd5b505050506121a8676c98e0a83eea388860c01b61220f565b6121bc67afc69ac48fb52a6560c01b61220f565b600073ffffffffffffffffffffffffffffffffffffffff167fdaec4582d5d9595688c8c98545fdd1c696d41c6aeaeb636737e84ed2f5c00eda60006040516122049190613bfc565b60405180910390a25b565b50565b60006122407f360894a13ba1a3210667c828492db98dca3e2076cc3735a920a3ca505d382bbc60001b6126d5565b60000160009054906101000a900473ffffffffffffffffffffffffffffffffffffffff16905090565b61227d6771e164c11fc9601e60c01b61220f565b61228561241e565b61229967fa00db421c5553e060c01b61220f565b6122ad673b8b4b4fb24323f660c01b61220f565b50565b6122dc7f4910fdfa16fed3260ed0e7147f7cc6da11a60208b5b9406d12a635614ffd914360001b6126df565b60000160009054906101000a900460ff1615612300576122fb836126e9565b612419565b8273ffffffffffffffffffffffffffffffffffffffff166352d1902d6040518163ffffffff1660e01b8152600401602060405180830381865afa92505050801561236857506040513d601f19601f820116820180604052508101906123659190613c2c565b60015b6123a7576040517f08c379a000000000000000000000000000000000000000000000000000000000815260040161239e90613ccb565b60405180910390fd5b7f360894a13ba1a3210667c828492db98dca3e2076cc3735a920a3ca505d382bbc60001b811461240c576040517f08c379a000000000000000000000000000000000000000000000000000000000815260040161240390613d5d565b60405180910390fd5b506124188383836127a2565b5b505050565b6124266127ce565b73ffffffffffffffffffffffffffffffffffffffff1661244461143a565b73ffffffffffffffffffffffffffffffffffffffff161461249a576040517f08c379a000000000000000000000000000000000000000000000000000000000815260040161249190613dc9565b60405180910390fd5b565b6000603360009054906101000a900473ffffffffffffffffffffffffffffffffffffffff16905081603360006101000a81548173ffffffffffffffffffffffffffffffffffffffff021916908373ffffffffffffffffffffffffffffffffffffffff1602179055508173ffffffffffffffffffffffffffffffffffffffff168173ffffffffffffffffffffffffffffffffffffffff167f8be0079c531659141344cd1fd0a4f28419497f9722a3daafe3b4186f6b6457e060405160405180910390a35050565b6000808273ffffffffffffffffffffffffffffffffffffffff163b119050919050565b600060019054906101000a900460ff166125d4576040517f08c379a00000000000000000000000000000000000000000000000000000000081526004016125cb90613e5b565b60405180910390fd5b6125dc6127d6565b565b600060019054906101000a900460ff1661262d576040517f08c379a000000000000000000000000000000000000000000000000000000000815260040161262490613e5b565b60405180910390fd5b565b6000818361263d9190613e7b565b905092915050565b600081836126539190613afb565b905092915050565b600061267167dca2ff6724fe4f9460c01b61220f565b6126856718cd8ba7601ec79860c01b61220f565b612699679bc7c069221409c060c01b61220f565b8585858585306040516020016126b496959493929190613f26565b60405160208183030381529060405280519060200120905095945050505050565b6000819050919050565b6000819050919050565b6126f281612562565b612731576040517f08c379a000000000000000000000000000000000000000000000000000000000815260040161272890614008565b60405180910390fd5b8061275e7f360894a13ba1a3210667c828492db98dca3e2076cc3735a920a3ca505d382bbc60001b6126d5565b60000160006101000a81548173ffffffffffffffffffffffffffffffffffffffff021916908373ffffffffffffffffffffffffffffffffffffffff16021790555050565b6127ab83612837565b6000825111806127b85750805b156127c9576127c78383612886565b505b505050565b600033905090565b600060019054906101000a900460ff16612825576040517f08c379a000000000000000000000000000000000000000000000000000000000815260040161281c90613e5b565b60405180910390fd5b6128356128306127ce565b61249c565b565b612840816126e9565b8073ffffffffffffffffffffffffffffffffffffffff167fbc7cd75a20ee27fd9adebab32041f755214dbc6bffa90cc0225b39da2e5c2d3b60405160405180910390a250565b60606128ab83836040518060600160405280602781526020016140f3602791396128b3565b905092915050565b60606000808573ffffffffffffffffffffffffffffffffffffffff16856040516128dd919061406f565b600060405180830381855af49150503d8060008114612918576040519150601f19603f3d011682016040523d82523d6000602084013e61291d565b606091505b509150915061292e86838387612939565b925050509392505050565b6060831561299b5760008351036129935761295385612562565b612992576040517f08c379a0000000000000000000000000000000000000000000000000000000008152600401612989906140d2565b60405180910390fd5b5b8290506129a6565b6129a583836129ae565b5b949350505050565b6000825111156129c15781518083602001fd5b806040517f08c379a00000000000000000000000000000000000000000000000000000000081526004016129f59190613169565b60405180910390fd5b6000819050919050565b612a11816129fe565b82525050565b6000602082019050612a2c6000830184612a08565b92915050565b6000604051905090565b600080fd5b600080fd5b600073ffffffffffffffffffffffffffffffffffffffff82169050919050565b6000612a7182612a46565b9050919050565b612a8181612a66565b8114612a8c57600080fd5b50565b600081359050612a9e81612a78565b92915050565b600060208284031215612aba57612ab9612a3c565b5b6000612ac884828501612a8f565b91505092915050565b60008115159050919050565b612ae681612ad1565b82525050565b6000602082019050612b016000830184612add565b92915050565b6000819050919050565b6000612b2c612b27612b2284612a46565b612b07565b612a46565b9050919050565b6000612b3e82612b11565b9050919050565b6000612b5082612b33565b9050919050565b612b6081612b45565b82525050565b6000602082019050612b7b6000830184612b57565b92915050565b600080fd5b600080fd5b6000601f19601f8301169050919050565b7f4e487b7100000000000000000000000000000000000000000000000000000000600052604160045260246000fd5b612bd482612b8b565b810181811067ffffffffffffffff82111715612bf357612bf2612b9c565b5b80604052505050565b6000612c06612a32565b9050612c128282612bcb565b919050565b600067ffffffffffffffff821115612c3257612c31612b9c565b5b612c3b82612b8b565b9050602081019050919050565b82818337600083830152505050565b6000612c6a612c6584612c17565b612bfc565b905082815260208101848484011115612c8657612c85612b86565b5b612c91848285612c48565b509392505050565b600082601f830112612cae57612cad612b81565b5b8135612cbe848260208601612c57565b91505092915050565b60008060408385031215612cde57612cdd612a3c565b5b6000612cec85828601612a8f565b925050602083013567ffffffffffffffff811115612d0d57612d0c612a41565b5b612d1985828601612c99565b9150509250929050565b6000819050919050565b612d3681612d23565b82525050565b6000602082019050612d516000830184612d2d565b92915050565b600067ffffffffffffffff821115612d7257612d71612b9c565b5b612d7b82612b8b565b9050602081019050919050565b6000612d9b612d9684612d57565b612bfc565b905082815260208101848484011115612db757612db6612b86565b5b612dc2848285612c48565b509392505050565b600082601f830112612ddf57612dde612b81565b5b8135612def848260208601612d88565b91505092915050565b612e01816129fe565b8114612e0c57600080fd5b50565b600081359050612e1e81612df8565b92915050565b600080600080600080600060e0888a031215612e4357612e42612a3c565b5b600088013567ffffffffffffffff811115612e6157612e60612a41565b5b612e6d8a828b01612dca565b9750506020612e7e8a828b01612a8f565b9650506040612e8f8a828b01612a8f565b9550506060612ea08a828b01612e0f565b9450506080612eb18a828b01612e0f565b93505060a0612ec28a828b01612e0f565b92505060c0612ed38a828b01612e0f565b91505092959891949750929550565b600080fd5b600060ff82169050919050565b612efd81612ee7565b8114612f0857600080fd5b50565b600081359050612f1a81612ef4565b92915050565b612f2981612d23565b8114612f3457600080fd5b50565b600081359050612f4681612f20565b92915050565b60006101008284031215612f6357612f62612ee2565b5b612f6e610100612bfc565b90506000612f7e84828501612a8f565b6000830152506020612f9284828501612a8f565b6020830152506040612fa684828501612e0f565b6040830152506060612fba84828501612e0f565b6060830152506080612fce84828501612e0f565b60808301525060a0612fe284828501612f0b565b60a08301525060c0612ff684828501612f37565b60c08301525060e061300a84828501612f37565b60e08301525092915050565b600080610120838503121561302e5761302d612a3c565b5b600061303c85828601612e0f565b925050602061304d85828601612f4c565b9150509250929050565b600061306282612b33565b9050919050565b61307281613057565b82525050565b600060208201905061308d6000830184613069565b92915050565b61309c81612a66565b82525050565b60006020820190506130b76000830184613093565b92915050565b6000602082840312156130d3576130d2612a3c565b5b60006130e184828501612e0f565b91505092915050565b600081519050919050565b600082825260208201905092915050565b60005b83811015613124578082015181840152602081019050613109565b60008484015250505050565b600061313b826130ea565b61314581856130f5565b9350613155818560208601613106565b61315e81612b8b565b840191505092915050565b600060208201905081810360008301526131838184613130565b905092915050565b7f41756374696f6e20686173206e6f7420656e6465642079657400000000000000600082015250565b60006131c16019836130f5565b91506131cc8261318b565b602082019050919050565b600060208201905081810360008301526131f0816131b4565b9050919050565b7f48696768657374206269646465722063616e6e6f7420726566756e6400000000600082015250565b600061322d601c836130f5565b9150613238826131f7565b602082019050919050565b6000602082019050818103600083015261325c81613220565b9050919050565b7f4e6f2062696420746f20726566756e6400000000000000000000000000000000600082015250565b60006132996010836130f5565b91506132a482613263565b602082019050919050565b600060208201905081810360008301526132c88161328c565b9050919050565b60006040820190506132e46000830185613093565b6132f16020830184612a08565b9392505050565b61330181612ad1565b811461330c57600080fd5b50565b60008151905061331e816132f8565b92915050565b60006020828403121561333a57613339612a3c565b5b60006133488482850161330f565b91505092915050565b7f46756e6374696f6e206d7573742062652063616c6c6564207468726f7567682060008201527f64656c656761746563616c6c0000000000000000000000000000000000000000602082015250565b60006133ad602c836130f5565b91506133b882613351565b604082019050919050565b600060208201905081810360008301526133dc816133a0565b9050919050565b7f46756e6374696f6e206d7573742062652063616c6c6564207468726f7567682060008201527f6163746976652070726f78790000000000000000000000000000000000000000602082015250565b600061343f602c836130f5565b915061344a826133e3565b604082019050919050565b6000602082019050818103600083015261346e81613432565b9050919050565b7f555550535570677261646561626c653a206d757374206e6f742062652063616c60008201527f6c6564207468726f7567682064656c656761746563616c6c0000000000000000602082015250565b60006134d16038836130f5565b91506134dc82613475565b604082019050919050565b60006020820190508181036000830152613500816134c4565b9050919050565b7f496e697469616c697a61626c653a20636f6e747261637420697320616c72656160008201527f647920696e697469616c697a6564000000000000000000000000000000000000602082015250565b6000613563602e836130f5565b915061356e82613507565b604082019050919050565b6000602082019050818103600083015261359281613556565b9050919050565b7f4e487b7100000000000000000000000000000000000000000000000000000000600052602260045260246000fd5b600060028204905060018216806135e057607f821691505b6020821081036135f3576135f2613599565b5b50919050565b60008190508160005260206000209050919050565b60006020601f8301049050919050565b600082821b905092915050565b60006008830261365b7fffffffffffffffffffffffffffffffffffffffffffffffffffffffffffffffff8261361e565b613665868361361e565b95508019841693508086168417925050509392505050565b600061369861369361368e846129fe565b612b07565b6129fe565b9050919050565b6000819050919050565b6136b28361367d565b6136c66136be8261369f565b84845461362b565b825550505050565b600090565b6136db6136ce565b6136e68184846136a9565b505050565b5b8181101561370a576136ff6000826136d3565b6001810190506136ec565b5050565b601f82111561374f57613720816135f9565b6137298461360e565b81016020851015613738578190505b61374c6137448561360e565b8301826136eb565b50505b505050565b600082821c905092915050565b600061377260001984600802613754565b1980831691505092915050565b600061378b8383613761565b9150826002028217905092915050565b6137a4826130ea565b67ffffffffffffffff8111156137bd576137bc612b9c565b5b6137c782546135c8565b6137d282828561370e565b600060209050601f83116001811461380557600084156137f3578287015190505b6137fd858261377f565b865550613865565b601f198416613813866135f9565b60005b8281101561383b57848901518255600182019150602085019450602081019050613816565b868310156138585784890151613854601f891682613761565b8355505b6001600288020188555050505b505050505050565b60008151905061387c81612a78565b92915050565b60006020828403121561389857613897612a3c565b5b60006138a68482850161386d565b91505092915050565b7f4e465420746f6b656e20496420646f6573206e6f742062656c6f6e6720746f2060008201527f7468652041756374696f6e2773204f776e657200000000000000000000000000602082015250565b600061390b6033836130f5565b9150613916826138af565b604082019050919050565b6000602082019050818103600083015261393a816138fe565b9050919050565b6000819050919050565b600061396661396161395c84613941565b612b07565b612ee7565b9050919050565b6139768161394b565b82525050565b6000602082019050613991600083018461396d565b92915050565b7f42696420616d6f756e74206d7573742062652067726561746572207468616e2060008201527f7a65726f00000000000000000000000000000000000000000000000000000000602082015250565b60006139f36024836130f5565b91506139fe82613997565b604082019050919050565b60006020820190508181036000830152613a22816139e6565b9050919050565b7f41756374696f6e2068617320616c726561647920656e64656400000000000000600082015250565b6000613a5f6019836130f5565b9150613a6a82613a29565b602082019050919050565b60006020820190508181036000830152613a8e81613a52565b9050919050565b6000606082019050613aaa6000830186613093565b613ab76020830185613093565b613ac46040830184612a08565b949350505050565b7f4e487b7100000000000000000000000000000000000000000000000000000000600052601160045260246000fd5b6000613b06826129fe565b9150613b11836129fe565b9250828201905080821115613b2957613b28613acc565b5b92915050565b7f4f776e61626c653a206e6577206f776e657220697320746865207a65726f206160008201527f6464726573730000000000000000000000000000000000000000000000000000602082015250565b6000613b8b6026836130f5565b9150613b9682613b2f565b604082019050919050565b60006020820190508181036000830152613bba81613b7e565b9050919050565b6000819050919050565b6000613be6613be1613bdc84613bc1565b612b07565b6129fe565b9050919050565b613bf681613bcb565b82525050565b6000602082019050613c116000830184613bed565b92915050565b600081519050613c2681612f20565b92915050565b600060208284031215613c4257613c41612a3c565b5b6000613c5084828501613c17565b91505092915050565b7f45524331393637557067726164653a206e657720696d706c656d656e7461746960008201527f6f6e206973206e6f742055555053000000000000000000000000000000000000602082015250565b6000613cb5602e836130f5565b9150613cc082613c59565b604082019050919050565b60006020820190508181036000830152613ce481613ca8565b9050919050565b7f45524331393637557067726164653a20756e737570706f727465642070726f7860008201527f6961626c65555549440000000000000000000000000000000000000000000000602082015250565b6000613d476029836130f5565b9150613d5282613ceb565b604082019050919050565b60006020820190508181036000830152613d7681613d3a565b9050919050565b7f4f776e61626c653a2063616c6c6572206973206e6f7420746865206f776e6572600082015250565b6000613db36020836130f5565b9150613dbe82613d7d565b602082019050919050565b60006020820190508181036000830152613de281613da6565b9050919050565b7f496e697469616c697a61626c653a20636f6e7472616374206973206e6f74206960008201527f6e697469616c697a696e67000000000000000000000000000000000000000000602082015250565b6000613e45602b836130f5565b9150613e5082613de9565b604082019050919050565b60006020820190508181036000830152613e7481613e38565b9050919050565b6000613e86826129fe565b9150613e91836129fe565b9250828202613e9f816129fe565b91508282048414831517613eb657613eb5613acc565b5b5092915050565b60008160601b9050919050565b6000613ed582613ebd565b9050919050565b6000613ee782613eca565b9050919050565b613eff613efa82612a66565b613edc565b82525050565b6000819050919050565b613f20613f1b826129fe565b613f05565b82525050565b6000613f328289613eee565b601482019150613f428288613eee565b601482019150613f528287613f0f565b602082019150613f628286613f0f565b602082019150613f728285613f0f565b602082019150613f828284613eee565b601482019150819050979650505050505050565b7f455243313936373a206e657720696d706c656d656e746174696f6e206973206e60008201527f6f74206120636f6e747261637400000000000000000000000000000000000000602082015250565b6000613ff2602d836130f5565b9150613ffd82613f96565b604082019050919050565b6000602082019050818103600083015261402181613fe5565b9050919050565b600081519050919050565b600081905092915050565b600061404982614028565b6140538185614033565b9350614063818560208601613106565b80840191505092915050565b600061407b828461403e565b915081905092915050565b7f416464726573733a2063616c6c20746f206e6f6e2d636f6e7472616374000000600082015250565b60006140bc601d836130f5565b91506140c782614086565b602082019050919050565b600060208201905081810360008301526140eb816140af565b905091905056fe416464726573733a206c6f772d6c6576656c2064656c65676174652063616c6c206661696c6564a2646970667358221220015d4a2fcae542f475fb7b5129ce195993940abae6a7dc0f2da5e41170184e3264736f6c63430008120033",
  "linkReferences": {},
  "deployedLinkReferences": {}
}