{
  "_format": "hh-sol-artifact-1",
  "contractName": "BasicDutchAuction",
  "sourceName": "contracts/BasicDutchAuction.sol",
  "abi": [
    {
      "inputs": [
        {
          "internalType": "uint256",
          "name": "_reservePrice",
          "type": "uint256"
        },
        {
          "internalType": "uint256",
          "name": "_numBlocksAuctionOpen",
          "type": "uint256"
        },
        {
          "internalType": "uint256",
          "name": "_offerPriceDecrement",
          "type": "uint256"
        }
      ],
      "stateMutability": "nonpayable",
      "type": "constructor"
    },
    {
      "anonymous": false,
      "inputs": [
        {
          "indexed": false,
          "internalType": "address",
          "name": "winner",
          "type": "address"
        },
        {
          "indexed": false,
          "internalType": "uint256",
          "name": "amount",
          "type": "uint256"
        }
      ],
      "name": "AuctionEnded",
      "type": "event"
    },
    {
      "anonymous": false,
      "inputs": [
        {
          "indexed": false,
          "internalType": "address",
          "name": "bidder",
          "type": "address"
        },
        {
          "indexed": false,
          "internalType": "uint256",
          "name": "amount",
          "type": "uint256"
        }
      ],
      "name": "BidPlaced",
      "type": "event"
    },
    {
      "anonymous": false,
      "inputs": [
        {
          "indexed": false,
          "internalType": "address",
          "name": "bidder",
          "type": "address"
        },
        {
          "indexed": false,
          "internalType": "uint256",
          "name": "amount",
          "type": "uint256"
        }
      ],
      "name": "BidRefunded",
      "type": "event"
    },
    {
      "inputs": [],
      "name": "auctionEnded",
      "outputs": [
        {
          "internalType": "bool",
          "name": "",
          "type": "bool"
        }
      ],
      "stateMutability": "view",
      "type": "function"
    },
    {
      "inputs": [
        {
          "internalType": "address",
          "name": "",
          "type": "address"
        }
      ],
      "name": "bids",
      "outputs": [
        {
          "internalType": "uint256",
          "name": "",
          "type": "uint256"
        }
      ],
      "stateMutability": "view",
      "type": "function"
    },
    {
      "inputs": [],
      "name": "endAuction",
      "outputs": [],
      "stateMutability": "nonpayable",
      "type": "function"
    },
    {
      "inputs": [],
      "name": "endBlock",
      "outputs": [
        {
          "internalType": "uint256",
          "name": "",
          "type": "uint256"
        }
      ],
      "stateMutability": "view",
      "type": "function"
    },
    {
      "inputs": [],
      "name": "getCurrentPrice",
      "outputs": [
        {
          "internalType": "uint256",
          "name": "",
          "type": "uint256"
        }
      ],
      "stateMutability": "view",
      "type": "function"
    },
    {
      "inputs": [],
      "name": "highestBid",
      "outputs": [
        {
          "internalType": "uint256",
          "name": "",
          "type": "uint256"
        }
      ],
      "stateMutability": "view",
      "type": "function"
    },
    {
      "inputs": [],
      "name": "highestBidder",
      "outputs": [
        {
          "internalType": "address",
          "name": "",
          "type": "address"
        }
      ],
      "stateMutability": "view",
      "type": "function"
    },
    {
      "inputs": [],
      "name": "initialPrice",
      "outputs": [
        {
          "internalType": "uint256",
          "name": "",
          "type": "uint256"
        }
      ],
      "stateMutability": "view",
      "type": "function"
    },
    {
      "inputs": [],
      "name": "itemSold",
      "outputs": [
        {
          "internalType": "bool",
          "name": "",
          "type": "bool"
        }
      ],
      "stateMutability": "view",
      "type": "function"
    },
    {
      "inputs": [],
      "name": "numBlocksAuctionOpen",
      "outputs": [
        {
          "internalType": "uint256",
          "name": "",
          "type": "uint256"
        }
      ],
      "stateMutability": "view",
      "type": "function"
    },
    {
      "inputs": [],
      "name": "offerPriceDecrement",
      "outputs": [
        {
          "internalType": "uint256",
          "name": "",
          "type": "uint256"
        }
      ],
      "stateMutability": "view",
      "type": "function"
    },
    {
      "inputs": [],
      "name": "placeBid",
      "outputs": [],
      "stateMutability": "payable",
      "type": "function"
    },
    {
      "inputs": [
        {
          "internalType": "address",
          "name": "bidder",
          "type": "address"
        }
      ],
      "name": "refundBid",
      "outputs": [],
      "stateMutability": "nonpayable",
      "type": "function"
    },
    {
      "inputs": [],
      "name": "reservePrice",
      "outputs": [
        {
          "internalType": "uint256",
          "name": "",
          "type": "uint256"
        }
      ],
      "stateMutability": "view",
      "type": "function"
    },
    {
      "inputs": [],
      "name": "seller",
      "outputs": [
        {
          "internalType": "address payable",
          "name": "",
          "type": "address"
        }
      ],
      "stateMutability": "view",
      "type": "function"
    },
    {
      "inputs": [],
      "name": "startBlock",
      "outputs": [
        {
          "internalType": "uint256",
          "name": "",
          "type": "uint256"
        }
      ],
      "stateMutability": "view",
      "type": "function"
    }
  ],
  "bytecode": "0x60806040523480156200001157600080fd5b50604051620011fe380380620011fe833981810160405281019062000037919062000151565b336000806101000a81548173ffffffffffffffffffffffffffffffffffffffff021916908373ffffffffffffffffffffffffffffffffffffffff1602179055508260018190555081600281905550806003819055506003546002546200009e9190620001dc565b600154620000ad919062000227565b60048190555043600581905550600254600554620000cc919062000227565b6006819055506000600760006101000a81548160ff0219169083151502179055506000600760016101000a81548160ff02191690831515021790555050505062000262565b600080fd5b6000819050919050565b6200012b8162000116565b81146200013757600080fd5b50565b6000815190506200014b8162000120565b92915050565b6000806000606084860312156200016d576200016c62000111565b5b60006200017d868287016200013a565b935050602062000190868287016200013a565b9250506040620001a3868287016200013a565b9150509250925092565b7f4e487b7100000000000000000000000000000000000000000000000000000000600052601160045260246000fd5b6000620001e98262000116565b9150620001f68362000116565b9250828202620002068162000116565b9150828204841483151762000220576200021f620001ad565b5b5092915050565b6000620002348262000116565b9150620002418362000116565b92508282019050808211156200025c576200025b620001ad565b5b92915050565b610f8c80620002726000396000f3fe6080604052600436106100f35760003560e01c8063864333741161008a578063db2e1eed11610059578063db2e1eed1461030c578063eb91d37e14610337578063ecfc7ecc14610362578063fe67a54b1461036c576100f3565b8063864333741461026057806391f901571461028b578063d3642a88146102b6578063d57bde79146102e1576100f3565b8063385e3155116100c6578063385e3155146101a4578063438e897a146101cd57806348cd4cb1146101f857806362ea82db14610223576100f3565b8063083c6323146100f857806308551a53146101235780631d0806ae1461014e5780633103ea6214610179575b600080fd5b34801561010457600080fd5b5061010d610383565b60405161011a9190610a92565b60405180910390f35b34801561012f57600080fd5b50610138610389565b6040516101459190610aee565b60405180910390f35b34801561015a57600080fd5b506101636103ad565b6040516101709190610a92565b60405180910390f35b34801561018557600080fd5b5061018e6103b3565b60405161019b9190610a92565b60405180910390f35b3480156101b057600080fd5b506101cb60048036038101906101c69190610b4c565b6103b9565b005b3480156101d957600080fd5b506101e2610548565b6040516101ef9190610b94565b60405180910390f35b34801561020457600080fd5b5061020d61055b565b60405161021a9190610a92565b60405180910390f35b34801561022f57600080fd5b5061024a60048036038101906102459190610b4c565b610561565b6040516102579190610a92565b60405180910390f35b34801561026c57600080fd5b50610275610579565b6040516102829190610b94565b60405180910390f35b34801561029757600080fd5b506102a061058c565b6040516102ad9190610bbe565b60405180910390f35b3480156102c257600080fd5b506102cb6105b2565b6040516102d89190610a92565b60405180910390f35b3480156102ed57600080fd5b506102f66105b8565b6040516103039190610a92565b60405180910390f35b34801561031857600080fd5b506103216105be565b60405161032e9190610a92565b60405180910390f35b34801561034357600080fd5b5061034c6105c4565b6040516103599190610a92565b60405180910390f35b61036a610604565b005b34801561037857600080fd5b5061038161082e565b005b60065481565b60008054906101000a900473ffffffffffffffffffffffffffffffffffffffff1681565b60045481565b60025481565b6000600960008373ffffffffffffffffffffffffffffffffffffffff1673ffffffffffffffffffffffffffffffffffffffff168152602001908152602001600020541161043b576040517f08c379a000000000000000000000000000000000000000000000000000000000815260040161043290610c36565b60405180910390fd5b6000600960008373ffffffffffffffffffffffffffffffffffffffff1673ffffffffffffffffffffffffffffffffffffffff1681526020019081526020016000205490506000600960008473ffffffffffffffffffffffffffffffffffffffff1673ffffffffffffffffffffffffffffffffffffffff168152602001908152602001600020819055507f8377883650d2137d6e6d67bcf2dbb9b1dab287d68240a17ff910b9fb7a0ad5ff82826040516104f5929190610c56565b60405180910390a18173ffffffffffffffffffffffffffffffffffffffff166108fc829081150290604051600060405180830381858888f19350505050158015610543573d6000803e3d6000fd5b505050565b600760019054906101000a900460ff1681565b60055481565b60096020528060005260406000206000915090505481565b600760009054906101000a900460ff1681565b600760029054906101000a900473ffffffffffffffffffffffffffffffffffffffff1681565b60035481565b60085481565b60015481565b6000804390506000600554826105da9190610cae565b90506000600354826105ec9190610ce2565b9050806004546105fc9190610cae565b935050505090565b600760009054906101000a900460ff1615610654576040517f08c379a000000000000000000000000000000000000000000000000000000000815260040161064b90610d70565b60405180910390fd5b60003411610697576040517f08c379a000000000000000000000000000000000000000000000000000000000815260040161068e90610e02565b60405180910390fd5b60006106a16105c4565b90506008543410156106e8576040517f08c379a00000000000000000000000000000000000000000000000000000000081526004016106df90610e94565b60405180910390fd5b6000600854146107985760085460096000600760029054906101000a900473ffffffffffffffffffffffffffffffffffffffff1673ffffffffffffffffffffffffffffffffffffffff1673ffffffffffffffffffffffffffffffffffffffff16815260200190815260200160002060008282546107659190610eb4565b92505081905550610797600760029054906101000a900473ffffffffffffffffffffffffffffffffffffffff166103b9565b5b33600760026101000a81548173ffffffffffffffffffffffffffffffffffffffff021916908373ffffffffffffffffffffffffffffffffffffffff160217905550346008819055507f3fabff0a9c3ecd6814702e247fa9733e5d0aa69e3a38590f92cb18f623a2254d3334604051610811929190610c56565b60405180910390a1806008541061082b5761082a61082e565b5b50565b600760009054906101000a900460ff161561087e576040517f08c379a000000000000000000000000000000000000000000000000000000000815260040161087590610d70565b60405180910390fd5b6001600760006101000a81548160ff0219169083151502179055506001600760016101000a81548160ff021916908315150217905550600073ffffffffffffffffffffffffffffffffffffffff16600760029054906101000a900473ffffffffffffffffffffffffffffffffffffffff1673ffffffffffffffffffffffffffffffffffffffff1614610a3c57600060096000600760029054906101000a900473ffffffffffffffffffffffffffffffffffffffff1673ffffffffffffffffffffffffffffffffffffffff1673ffffffffffffffffffffffffffffffffffffffff1681526020019081526020016000208190555060008054906101000a900473ffffffffffffffffffffffffffffffffffffffff1673ffffffffffffffffffffffffffffffffffffffff166108fc6008549081150290604051600060405180830381858888f193505050501580156109d9573d6000803e3d6000fd5b507fdaec4582d5d9595688c8c98545fdd1c696d41c6aeaeb636737e84ed2f5c00eda600760029054906101000a900473ffffffffffffffffffffffffffffffffffffffff16600854604051610a2f929190610c56565b60405180910390a1610a77565b7fdaec4582d5d9595688c8c98545fdd1c696d41c6aeaeb636737e84ed2f5c00eda600080604051610a6e929190610f2d565b60405180910390a15b565b6000819050919050565b610a8c81610a79565b82525050565b6000602082019050610aa76000830184610a83565b92915050565b600073ffffffffffffffffffffffffffffffffffffffff82169050919050565b6000610ad882610aad565b9050919050565b610ae881610acd565b82525050565b6000602082019050610b036000830184610adf565b92915050565b600080fd5b6000610b1982610aad565b9050919050565b610b2981610b0e565b8114610b3457600080fd5b50565b600081359050610b4681610b20565b92915050565b600060208284031215610b6257610b61610b09565b5b6000610b7084828501610b37565b91505092915050565b60008115159050919050565b610b8e81610b79565b82525050565b6000602082019050610ba96000830184610b85565b92915050565b610bb881610b0e565b82525050565b6000602082019050610bd36000830184610baf565b92915050565b600082825260208201905092915050565b7f4e6f2062696420746f20726566756e6400000000000000000000000000000000600082015250565b6000610c20601083610bd9565b9150610c2b82610bea565b602082019050919050565b60006020820190508181036000830152610c4f81610c13565b9050919050565b6000604082019050610c6b6000830185610baf565b610c786020830184610a83565b9392505050565b7f4e487b7100000000000000000000000000000000000000000000000000000000600052601160045260246000fd5b6000610cb982610a79565b9150610cc483610a79565b9250828203905081811115610cdc57610cdb610c7f565b5b92915050565b6000610ced82610a79565b9150610cf883610a79565b9250828202610d0681610a79565b91508282048414831517610d1d57610d1c610c7f565b5b5092915050565b7f41756374696f6e20616c726561647920656e6465640000000000000000000000600082015250565b6000610d5a601583610bd9565b9150610d6582610d24565b602082019050919050565b60006020820190508181036000830152610d8981610d4d565b9050919050565b7f42696420616d6f756e74206d7573742062652067726561746572207468616e2060008201527f3000000000000000000000000000000000000000000000000000000000000000602082015250565b6000610dec602183610bd9565b9150610df782610d90565b604082019050919050565b60006020820190508181036000830152610e1b81610ddf565b9050919050565b7f42696420616d6f756e742069732062656c6f772063757272656e74206869676860008201527f6573742042696400000000000000000000000000000000000000000000000000602082015250565b6000610e7e602783610bd9565b9150610e8982610e22565b604082019050919050565b60006020820190508181036000830152610ead81610e71565b9050919050565b6000610ebf82610a79565b9150610eca83610a79565b9250828201905080821115610ee257610ee1610c7f565b5b92915050565b6000819050919050565b6000819050919050565b6000610f17610f12610f0d84610ee8565b610ef2565b610a79565b9050919050565b610f2781610efc565b82525050565b6000604082019050610f426000830185610baf565b610f4f6020830184610f1e565b939250505056fea2646970667358221220790320652b438deb64b885cee18d91010f22e1fd6af108a12789c09c24c6874464736f6c63430008120033",
  "linkReferences": {},
  "deployedLinkReferences": {}
}