{
  "_format": "hh-sol-artifact-1",
  "contractName": "ERC721Token",
  "sourceName": "contracts/ERC721Token.sol",
  "abi": [
    {
      "inputs": [],
      "stateMutability": "nonpayable",
      "type": "constructor"
    },
    {
      "anonymous": false,
      "inputs": [
        {
          "indexed": true,
          "internalType": "address",
          "name": "owner",
          "type": "address"
        },
        {
          "indexed": true,
          "internalType": "address",
          "name": "approved",
          "type": "address"
        },
        {
          "indexed": true,
          "internalType": "uint256",
          "name": "tokenId",
          "type": "uint256"
        }
      ],
      "name": "Approval",
      "type": "event"
    },
    {
      "anonymous": false,
      "inputs": [
        {
          "indexed": true,
          "internalType": "address",
          "name": "owner",
          "type": "address"
        },
        {
          "indexed": true,
          "internalType": "address",
          "name": "operator",
          "type": "address"
        },
        {
          "indexed": false,
          "internalType": "bool",
          "name": "approved",
          "type": "bool"
        }
      ],
      "name": "ApprovalForAll",
      "type": "event"
    },
    {
      "anonymous": false,
      "inputs": [
        {
          "indexed": false,
          "internalType": "uint256",
          "name": "_fromTokenId",
          "type": "uint256"
        },
        {
          "indexed": false,
          "internalType": "uint256",
          "name": "_toTokenId",
          "type": "uint256"
        }
      ],
      "name": "BatchMetadataUpdate",
      "type": "event"
    },
    {
      "anonymous": false,
      "inputs": [
        {
          "indexed": false,
          "internalType": "uint256",
          "name": "_tokenId",
          "type": "uint256"
        }
      ],
      "name": "MetadataUpdate",
      "type": "event"
    },
    {
      "anonymous": false,
      "inputs": [
        {
          "indexed": true,
          "internalType": "address",
          "name": "previousOwner",
          "type": "address"
        },
        {
          "indexed": true,
          "internalType": "address",
          "name": "newOwner",
          "type": "address"
        }
      ],
      "name": "OwnershipTransferred",
      "type": "event"
    },
    {
      "anonymous": false,
      "inputs": [
        {
          "indexed": true,
          "internalType": "address",
          "name": "from",
          "type": "address"
        },
        {
          "indexed": true,
          "internalType": "address",
          "name": "to",
          "type": "address"
        },
        {
          "indexed": true,
          "internalType": "uint256",
          "name": "tokenId",
          "type": "uint256"
        }
      ],
      "name": "Transfer",
      "type": "event"
    },
    {
      "inputs": [
        {
          "internalType": "address",
          "name": "to",
          "type": "address"
        },
        {
          "internalType": "uint256",
          "name": "tokenId",
          "type": "uint256"
        }
      ],
      "name": "approve",
      "outputs": [],
      "stateMutability": "nonpayable",
      "type": "function"
    },
    {
      "inputs": [
        {
          "internalType": "address",
          "name": "owner",
          "type": "address"
        }
      ],
      "name": "balanceOf",
      "outputs": [
        {
          "internalType": "uint256",
          "name": "",
          "type": "uint256"
        }
      ],
      "stateMutability": "view",
      "type": "function"
    },
    {
      "inputs": [
        {
          "internalType": "uint256",
          "name": "tokenId",
          "type": "uint256"
        }
      ],
      "name": "getApproved",
      "outputs": [
        {
          "internalType": "address",
          "name": "",
          "type": "address"
        }
      ],
      "stateMutability": "view",
      "type": "function"
    },
    {
      "inputs": [
        {
          "internalType": "address",
          "name": "owner",
          "type": "address"
        },
        {
          "internalType": "address",
          "name": "operator",
          "type": "address"
        }
      ],
      "name": "isApprovedForAll",
      "outputs": [
        {
          "internalType": "bool",
          "name": "",
          "type": "bool"
        }
      ],
      "stateMutability": "view",
      "type": "function"
    },
    {
      "inputs": [
        {
          "internalType": "address",
          "name": "to",
          "type": "address"
        },
        {
          "internalType": "uint256",
          "name": "tokenId",
          "type": "uint256"
        },
        {
          "internalType": "string",
          "name": "tokenURI",
          "type": "string"
        }
      ],
      "name": "mint",
      "outputs": [],
      "stateMutability": "nonpayable",
      "type": "function"
    },
    {
      "inputs": [],
      "name": "name",
      "outputs": [
        {
          "internalType": "string",
          "name": "",
          "type": "string"
        }
      ],
      "stateMutability": "view",
      "type": "function"
    },
    {
      "inputs": [],
      "name": "owner",
      "outputs": [
        {
          "internalType": "address",
          "name": "",
          "type": "address"
        }
      ],
      "stateMutability": "view",
      "type": "function"
    },
    {
      "inputs": [
        {
          "internalType": "uint256",
          "name": "tokenId",
          "type": "uint256"
        }
      ],
      "name": "ownerOf",
      "outputs": [
        {
          "internalType": "address",
          "name": "",
          "type": "address"
        }
      ],
      "stateMutability": "view",
      "type": "function"
    },
    {
      "inputs": [],
      "name": "renounceOwnership",
      "outputs": [],
      "stateMutability": "nonpayable",
      "type": "function"
    },
    {
      "inputs": [
        {
          "internalType": "address",
          "name": "from",
          "type": "address"
        },
        {
          "internalType": "address",
          "name": "to",
          "type": "address"
        },
        {
          "internalType": "uint256",
          "name": "tokenId",
          "type": "uint256"
        }
      ],
      "name": "safeTransferFrom",
      "outputs": [],
      "stateMutability": "nonpayable",
      "type": "function"
    },
    {
      "inputs": [
        {
          "internalType": "address",
          "name": "from",
          "type": "address"
        },
        {
          "internalType": "address",
          "name": "to",
          "type": "address"
        },
        {
          "internalType": "uint256",
          "name": "tokenId",
          "type": "uint256"
        },
        {
          "internalType": "bytes",
          "name": "data",
          "type": "bytes"
        }
      ],
      "name": "safeTransferFrom",
      "outputs": [],
      "stateMutability": "nonpayable",
      "type": "function"
    },
    {
      "inputs": [
        {
          "internalType": "address",
          "name": "operator",
          "type": "address"
        },
        {
          "internalType": "bool",
          "name": "approved",
          "type": "bool"
        }
      ],
      "name": "setApprovalForAll",
      "outputs": [],
      "stateMutability": "nonpayable",
      "type": "function"
    },
    {
      "inputs": [
        {
          "internalType": "bytes4",
          "name": "interfaceId",
          "type": "bytes4"
        }
      ],
      "name": "supportsInterface",
      "outputs": [
        {
          "internalType": "bool",
          "name": "",
          "type": "bool"
        }
      ],
      "stateMutability": "view",
      "type": "function"
    },
    {
      "inputs": [],
      "name": "symbol",
      "outputs": [
        {
          "internalType": "string",
          "name": "",
          "type": "string"
        }
      ],
      "stateMutability": "view",
      "type": "function"
    },
    {
      "inputs": [
        {
          "internalType": "uint256",
          "name": "tokenId",
          "type": "uint256"
        }
      ],
      "name": "tokenURI",
      "outputs": [
        {
          "internalType": "string",
          "name": "",
          "type": "string"
        }
      ],
      "stateMutability": "view",
      "type": "function"
    },
    {
      "inputs": [
        {
          "internalType": "address",
          "name": "from",
          "type": "address"
        },
        {
          "internalType": "address",
          "name": "to",
          "type": "address"
        },
        {
          "internalType": "uint256",
          "name": "tokenId",
          "type": "uint256"
        }
      ],
      "name": "transferFrom",
      "outputs": [],
      "stateMutability": "nonpayable",
      "type": "function"
    },
    {
      "inputs": [
        {
          "internalType": "address",
          "name": "newOwner",
          "type": "address"
        }
      ],
      "name": "transferOwnership",
      "outputs": [],
      "stateMutability": "nonpayable",
      "type": "function"
    }
  ],
  "bytecode": "0x60806040523480156200001157600080fd5b506040518060400160405280600781526020017f4d79546f6b656e000000000000000000000000000000000000000000000000008152506040518060400160405280600381526020017f4d544b000000000000000000000000000000000000000000000000000000000081525081600090816200008f919062000412565b508060019081620000a1919062000412565b505050620000c4620000b8620000ca60201b60201c565b620000d260201b60201c565b620004f9565b600033905090565b6000600760009054906101000a900473ffffffffffffffffffffffffffffffffffffffff16905081600760006101000a81548173ffffffffffffffffffffffffffffffffffffffff021916908373ffffffffffffffffffffffffffffffffffffffff1602179055508173ffffffffffffffffffffffffffffffffffffffff168173ffffffffffffffffffffffffffffffffffffffff167f8be0079c531659141344cd1fd0a4f28419497f9722a3daafe3b4186f6b6457e060405160405180910390a35050565b600081519050919050565b7f4e487b7100000000000000000000000000000000000000000000000000000000600052604160045260246000fd5b7f4e487b7100000000000000000000000000000000000000000000000000000000600052602260045260246000fd5b600060028204905060018216806200021a57607f821691505b60208210810362000230576200022f620001d2565b5b50919050565b60008190508160005260206000209050919050565b60006020601f8301049050919050565b600082821b905092915050565b6000600883026200029a7fffffffffffffffffffffffffffffffffffffffffffffffffffffffffffffffff826200025b565b620002a686836200025b565b95508019841693508086168417925050509392505050565b6000819050919050565b6000819050919050565b6000620002f3620002ed620002e784620002be565b620002c8565b620002be565b9050919050565b6000819050919050565b6200030f83620002d2565b620003276200031e82620002fa565b84845462000268565b825550505050565b600090565b6200033e6200032f565b6200034b81848462000304565b505050565b5b8181101562000373576200036760008262000334565b60018101905062000351565b5050565b601f821115620003c2576200038c8162000236565b62000397846200024b565b81016020851015620003a7578190505b620003bf620003b6856200024b565b83018262000350565b50505b505050565b600082821c905092915050565b6000620003e760001984600802620003c7565b1980831691505092915050565b6000620004028383620003d4565b9150826002028217905092915050565b6200041d8262000198565b67ffffffffffffffff811115620004395762000438620001a3565b5b62000445825462000201565b6200045282828562000377565b600060209050601f8311600181146200048a576000841562000475578287015190505b620004818582620003f4565b865550620004f1565b601f1984166200049a8662000236565b60005b82811015620004c4578489015182556001820191506020850194506020810190506200049d565b86831015620004e45784890151620004e0601f891682620003d4565b8355505b6001600288020188555050505b505050505050565b612e0c80620005096000396000f3fe608060405234801561001057600080fd5b506004361061010b5760003560e01c8063715018a6116100a2578063b88d4fde11610071578063b88d4fde146102a4578063c87b56dd146102c0578063d3fc9864146102f0578063e985e9c51461030c578063f2fde38b1461033c5761010b565b8063715018a6146102425780638da5cb5b1461024c57806395d89b411461026a578063a22cb465146102885761010b565b806323b872dd116100de57806323b872dd146101aa57806342842e0e146101c65780636352211e146101e257806370a08231146102125761010b565b806301ffc9a71461011057806306fdde0314610140578063081812fc1461015e578063095ea7b31461018e575b600080fd5b61012a60048036038101906101259190611bea565b610358565b6040516101379190611c32565b60405180910390f35b6101486103b9565b6040516101559190611cdd565b60405180910390f35b61017860048036038101906101739190611d35565b61044b565b6040516101859190611da3565b60405180910390f35b6101a860048036038101906101a39190611dea565b610491565b005b6101c460048036038101906101bf9190611e2a565b6105a8565b005b6101e060048036038101906101db9190611e2a565b610608565b005b6101fc60048036038101906101f79190611d35565b610628565b6040516102099190611da3565b60405180910390f35b61022c60048036038101906102279190611e7d565b6106ae565b6040516102399190611eb9565b60405180910390f35b61024a610765565b005b610254610779565b6040516102619190611da3565b60405180910390f35b6102726107a3565b60405161027f9190611cdd565b60405180910390f35b6102a2600480360381019061029d9190611f00565b610835565b005b6102be60048036038101906102b99190612075565b61084b565b005b6102da60048036038101906102d59190611d35565b6108ad565b6040516102e79190611cdd565b60405180910390f35b61030a60048036038101906103059190612199565b6109bf565b005b61032660048036038101906103219190612208565b6109e0565b6040516103339190611c32565b60405180910390f35b61035660048036038101906103519190611e7d565b610a74565b005b6000634906490660e01b7bffffffffffffffffffffffffffffffffffffffffffffffffffffffff1916827bffffffffffffffffffffffffffffffffffffffffffffffffffffffff191614806103b257506103b182610af7565b5b9050919050565b6060600080546103c890612277565b80601f01602080910402602001604051908101604052809291908181526020018280546103f490612277565b80156104415780601f1061041657610100808354040283529160200191610441565b820191906000526020600020905b81548152906001019060200180831161042457829003601f168201915b5050505050905090565b600061045682610bd9565b6004600083815260200190815260200160002060009054906101000a900473ffffffffffffffffffffffffffffffffffffffff169050919050565b600061049c82610628565b90508073ffffffffffffffffffffffffffffffffffffffff168373ffffffffffffffffffffffffffffffffffffffff160361050c576040517f08c379a00000000000000000000000000000000000000000000000000000000081526004016105039061231a565b60405180910390fd5b8073ffffffffffffffffffffffffffffffffffffffff1661052b610c24565b73ffffffffffffffffffffffffffffffffffffffff16148061055a575061055981610554610c24565b6109e0565b5b610599576040517f08c379a0000000000000000000000000000000000000000000000000000000008152600401610590906123ac565b60405180910390fd5b6105a38383610c2c565b505050565b6105b96105b3610c24565b82610ce5565b6105f8576040517f08c379a00000000000000000000000000000000000000000000000000000000081526004016105ef9061243e565b60405180910390fd5b610603838383610d7a565b505050565b6106238383836040518060200160405280600081525061084b565b505050565b60008061063483611073565b9050600073ffffffffffffffffffffffffffffffffffffffff168173ffffffffffffffffffffffffffffffffffffffff16036106a5576040517f08c379a000000000000000000000000000000000000000000000000000000000815260040161069c906124aa565b60405180910390fd5b80915050919050565b60008073ffffffffffffffffffffffffffffffffffffffff168273ffffffffffffffffffffffffffffffffffffffff160361071e576040517f08c379a00000000000000000000000000000000000000000000000000000000081526004016107159061253c565b60405180910390fd5b600360008373ffffffffffffffffffffffffffffffffffffffff1673ffffffffffffffffffffffffffffffffffffffff168152602001908152602001600020549050919050565b61076d6110b0565b610777600061112e565b565b6000600760009054906101000a900473ffffffffffffffffffffffffffffffffffffffff16905090565b6060600180546107b290612277565b80601f01602080910402602001604051908101604052809291908181526020018280546107de90612277565b801561082b5780601f106108005761010080835404028352916020019161082b565b820191906000526020600020905b81548152906001019060200180831161080e57829003601f168201915b5050505050905090565b610847610840610c24565b83836111f4565b5050565b61085c610856610c24565b83610ce5565b61089b576040517f08c379a00000000000000000000000000000000000000000000000000000000081526004016108929061243e565b60405180910390fd5b6108a784848484611360565b50505050565b60606108b882610bd9565b60006006600084815260200190815260200160002080546108d890612277565b80601f016020809104026020016040519081016040528092919081815260200182805461090490612277565b80156109515780601f1061092657610100808354040283529160200191610951565b820191906000526020600020905b81548152906001019060200180831161093457829003601f168201915b5050505050905060006109626113bc565b905060008151036109775781925050506109ba565b6000825111156109ac578082604051602001610994929190612598565b604051602081830303815290604052925050506109ba565b6109b5846113d3565b925050505b919050565b6109c76110b0565b6109d1838361143b565b6109db8282611658565b505050565b6000600560008473ffffffffffffffffffffffffffffffffffffffff1673ffffffffffffffffffffffffffffffffffffffff16815260200190815260200160002060008373ffffffffffffffffffffffffffffffffffffffff1673ffffffffffffffffffffffffffffffffffffffff16815260200190815260200160002060009054906101000a900460ff16905092915050565b610a7c6110b0565b600073ffffffffffffffffffffffffffffffffffffffff168173ffffffffffffffffffffffffffffffffffffffff1603610aeb576040517f08c379a0000000000000000000000000000000000000000000000000000000008152600401610ae29061262e565b60405180910390fd5b610af48161112e565b50565b60007f80ac58cd000000000000000000000000000000000000000000000000000000007bffffffffffffffffffffffffffffffffffffffffffffffffffffffff1916827bffffffffffffffffffffffffffffffffffffffffffffffffffffffff19161480610bc257507f5b5e139f000000000000000000000000000000000000000000000000000000007bffffffffffffffffffffffffffffffffffffffffffffffffffffffff1916827bffffffffffffffffffffffffffffffffffffffffffffffffffffffff1916145b80610bd25750610bd1826116fc565b5b9050919050565b610be281611766565b610c21576040517f08c379a0000000000000000000000000000000000000000000000000000000008152600401610c18906124aa565b60405180910390fd5b50565b600033905090565b816004600083815260200190815260200160002060006101000a81548173ffffffffffffffffffffffffffffffffffffffff021916908373ffffffffffffffffffffffffffffffffffffffff160217905550808273ffffffffffffffffffffffffffffffffffffffff16610c9f83610628565b73ffffffffffffffffffffffffffffffffffffffff167f8c5be1e5ebec7d5bd14f71427d1e84f3dd0314c0f7b2291e5b200ac8c7c3b92560405160405180910390a45050565b600080610cf183610628565b90508073ffffffffffffffffffffffffffffffffffffffff168473ffffffffffffffffffffffffffffffffffffffff161480610d335750610d3281856109e0565b5b80610d7157508373ffffffffffffffffffffffffffffffffffffffff16610d598461044b565b73ffffffffffffffffffffffffffffffffffffffff16145b91505092915050565b8273ffffffffffffffffffffffffffffffffffffffff16610d9a82610628565b73ffffffffffffffffffffffffffffffffffffffff1614610df0576040517f08c379a0000000000000000000000000000000000000000000000000000000008152600401610de7906126c0565b60405180910390fd5b600073ffffffffffffffffffffffffffffffffffffffff168273ffffffffffffffffffffffffffffffffffffffff1603610e5f576040517f08c379a0000000000000000000000000000000000000000000000000000000008152600401610e5690612752565b60405180910390fd5b610e6c83838360016117a7565b8273ffffffffffffffffffffffffffffffffffffffff16610e8c82610628565b73ffffffffffffffffffffffffffffffffffffffff1614610ee2576040517f08c379a0000000000000000000000000000000000000000000000000000000008152600401610ed9906126c0565b60405180910390fd5b6004600082815260200190815260200160002060006101000a81549073ffffffffffffffffffffffffffffffffffffffff02191690556001600360008573ffffffffffffffffffffffffffffffffffffffff1673ffffffffffffffffffffffffffffffffffffffff168152602001908152602001600020600082825403925050819055506001600360008473ffffffffffffffffffffffffffffffffffffffff1673ffffffffffffffffffffffffffffffffffffffff16815260200190815260200160002060008282540192505081905550816002600083815260200190815260200160002060006101000a81548173ffffffffffffffffffffffffffffffffffffffff021916908373ffffffffffffffffffffffffffffffffffffffff160217905550808273ffffffffffffffffffffffffffffffffffffffff168473ffffffffffffffffffffffffffffffffffffffff167fddf252ad1be2c89b69c2b068fc378daa952ba7f163c4a11628f55a4df523b3ef60405160405180910390a461106e83838360016117ad565b505050565b60006002600083815260200190815260200160002060009054906101000a900473ffffffffffffffffffffffffffffffffffffffff169050919050565b6110b8610c24565b73ffffffffffffffffffffffffffffffffffffffff166110d6610779565b73ffffffffffffffffffffffffffffffffffffffff161461112c576040517f08c379a0000000000000000000000000000000000000000000000000000000008152600401611123906127be565b60405180910390fd5b565b6000600760009054906101000a900473ffffffffffffffffffffffffffffffffffffffff16905081600760006101000a81548173ffffffffffffffffffffffffffffffffffffffff021916908373ffffffffffffffffffffffffffffffffffffffff1602179055508173ffffffffffffffffffffffffffffffffffffffff168173ffffffffffffffffffffffffffffffffffffffff167f8be0079c531659141344cd1fd0a4f28419497f9722a3daafe3b4186f6b6457e060405160405180910390a35050565b8173ffffffffffffffffffffffffffffffffffffffff168373ffffffffffffffffffffffffffffffffffffffff1603611262576040517f08c379a00000000000000000000000000000000000000000000000000000000081526004016112599061282a565b60405180910390fd5b80600560008573ffffffffffffffffffffffffffffffffffffffff1673ffffffffffffffffffffffffffffffffffffffff16815260200190815260200160002060008473ffffffffffffffffffffffffffffffffffffffff1673ffffffffffffffffffffffffffffffffffffffff16815260200190815260200160002060006101000a81548160ff0219169083151502179055508173ffffffffffffffffffffffffffffffffffffffff168373ffffffffffffffffffffffffffffffffffffffff167f17307eab39ab6107e8899845ad3d59bd9653f200f220920489ca2b5937696c31836040516113539190611c32565b60405180910390a3505050565b61136b848484610d7a565b611377848484846117b3565b6113b6576040517f08c379a00000000000000000000000000000000000000000000000000000000081526004016113ad906128bc565b60405180910390fd5b50505050565b606060405180602001604052806000815250905090565b60606113de82610bd9565b60006113e86113bc565b905060008151116114085760405180602001604052806000815250611433565b806114128461193a565b604051602001611423929190612598565b6040516020818303038152906040525b915050919050565b600073ffffffffffffffffffffffffffffffffffffffff168273ffffffffffffffffffffffffffffffffffffffff16036114aa576040517f08c379a00000000000000000000000000000000000000000000000000000000081526004016114a190612928565b60405180910390fd5b6114b381611766565b156114f3576040517f08c379a00000000000000000000000000000000000000000000000000000000081526004016114ea90612994565b60405180910390fd5b6115016000838360016117a7565b61150a81611766565b1561154a576040517f08c379a000000000000000000000000000000000000000000000000000000000815260040161154190612994565b60405180910390fd5b6001600360008473ffffffffffffffffffffffffffffffffffffffff1673ffffffffffffffffffffffffffffffffffffffff16815260200190815260200160002060008282540192505081905550816002600083815260200190815260200160002060006101000a81548173ffffffffffffffffffffffffffffffffffffffff021916908373ffffffffffffffffffffffffffffffffffffffff160217905550808273ffffffffffffffffffffffffffffffffffffffff16600073ffffffffffffffffffffffffffffffffffffffff167fddf252ad1be2c89b69c2b068fc378daa952ba7f163c4a11628f55a4df523b3ef60405160405180910390a46116546000838360016117ad565b5050565b61166182611766565b6116a0576040517f08c379a000000000000000000000000000000000000000000000000000000000815260040161169790612a26565b60405180910390fd5b806006600084815260200190815260200160002090816116c09190612bf2565b507ff8e1a15aba9398e019f0b49df1a4fde98ee17ae345cb5f6b5e2c27f5033e8ce7826040516116f09190611eb9565b60405180910390a15050565b60007f01ffc9a7000000000000000000000000000000000000000000000000000000007bffffffffffffffffffffffffffffffffffffffffffffffffffffffff1916827bffffffffffffffffffffffffffffffffffffffffffffffffffffffff1916149050919050565b60008073ffffffffffffffffffffffffffffffffffffffff1661178883611073565b73ffffffffffffffffffffffffffffffffffffffff1614159050919050565b50505050565b50505050565b60006117d48473ffffffffffffffffffffffffffffffffffffffff16611a08565b1561192d578373ffffffffffffffffffffffffffffffffffffffff1663150b7a026117fd610c24565b8786866040518563ffffffff1660e01b815260040161181f9493929190612d19565b6020604051808303816000875af192505050801561185b57506040513d601f19601f820116820180604052508101906118589190612d7a565b60015b6118dd573d806000811461188b576040519150601f19603f3d011682016040523d82523d6000602084013e611890565b606091505b5060008151036118d5576040517f08c379a00000000000000000000000000000000000000000000000000000000081526004016118cc906128bc565b60405180910390fd5b805181602001fd5b63150b7a0260e01b7bffffffffffffffffffffffffffffffffffffffffffffffffffffffff1916817bffffffffffffffffffffffffffffffffffffffffffffffffffffffff191614915050611932565b600190505b949350505050565b60606000600161194984611a2b565b01905060008167ffffffffffffffff81111561196857611967611f4a565b5b6040519080825280601f01601f19166020018201604052801561199a5781602001600182028036833780820191505090505b509050600082602001820190505b6001156119fd578080600190039150507f3031323334353637383961626364656600000000000000000000000000000000600a86061a8153600a85816119f1576119f0612da7565b5b049450600085036119a8575b819350505050919050565b6000808273ffffffffffffffffffffffffffffffffffffffff163b119050919050565b600080600090507a184f03e93ff9f4daa797ed6e38ed64bf6a1f0100000000000000008310611a89577a184f03e93ff9f4daa797ed6e38ed64bf6a1f0100000000000000008381611a7f57611a7e612da7565b5b0492506040810190505b6d04ee2d6d415b85acef81000000008310611ac6576d04ee2d6d415b85acef81000000008381611abc57611abb612da7565b5b0492506020810190505b662386f26fc100008310611af557662386f26fc100008381611aeb57611aea612da7565b5b0492506010810190505b6305f5e1008310611b1e576305f5e1008381611b1457611b13612da7565b5b0492506008810190505b6127108310611b43576127108381611b3957611b38612da7565b5b0492506004810190505b60648310611b665760648381611b5c57611b5b612da7565b5b0492506002810190505b600a8310611b75576001810190505b80915050919050565b6000604051905090565b600080fd5b600080fd5b60007fffffffff0000000000000000000000000000000000000000000000000000000082169050919050565b611bc781611b92565b8114611bd257600080fd5b50565b600081359050611be481611bbe565b92915050565b600060208284031215611c0057611bff611b88565b5b6000611c0e84828501611bd5565b91505092915050565b60008115159050919050565b611c2c81611c17565b82525050565b6000602082019050611c476000830184611c23565b92915050565b600081519050919050565b600082825260208201905092915050565b60005b83811015611c87578082015181840152602081019050611c6c565b60008484015250505050565b6000601f19601f8301169050919050565b6000611caf82611c4d565b611cb98185611c58565b9350611cc9818560208601611c69565b611cd281611c93565b840191505092915050565b60006020820190508181036000830152611cf78184611ca4565b905092915050565b6000819050919050565b611d1281611cff565b8114611d1d57600080fd5b50565b600081359050611d2f81611d09565b92915050565b600060208284031215611d4b57611d4a611b88565b5b6000611d5984828501611d20565b91505092915050565b600073ffffffffffffffffffffffffffffffffffffffff82169050919050565b6000611d8d82611d62565b9050919050565b611d9d81611d82565b82525050565b6000602082019050611db86000830184611d94565b92915050565b611dc781611d82565b8114611dd257600080fd5b50565b600081359050611de481611dbe565b92915050565b60008060408385031215611e0157611e00611b88565b5b6000611e0f85828601611dd5565b9250506020611e2085828601611d20565b9150509250929050565b600080600060608486031215611e4357611e42611b88565b5b6000611e5186828701611dd5565b9350506020611e6286828701611dd5565b9250506040611e7386828701611d20565b9150509250925092565b600060208284031215611e9357611e92611b88565b5b6000611ea184828501611dd5565b91505092915050565b611eb381611cff565b82525050565b6000602082019050611ece6000830184611eaa565b92915050565b611edd81611c17565b8114611ee857600080fd5b50565b600081359050611efa81611ed4565b92915050565b60008060408385031215611f1757611f16611b88565b5b6000611f2585828601611dd5565b9250506020611f3685828601611eeb565b9150509250929050565b600080fd5b600080fd5b7f4e487b7100000000000000000000000000000000000000000000000000000000600052604160045260246000fd5b611f8282611c93565b810181811067ffffffffffffffff82111715611fa157611fa0611f4a565b5b80604052505050565b6000611fb4611b7e565b9050611fc08282611f79565b919050565b600067ffffffffffffffff821115611fe057611fdf611f4a565b5b611fe982611c93565b9050602081019050919050565b82818337600083830152505050565b600061201861201384611fc5565b611faa565b90508281526020810184848401111561203457612033611f45565b5b61203f848285611ff6565b509392505050565b600082601f83011261205c5761205b611f40565b5b813561206c848260208601612005565b91505092915050565b6000806000806080858703121561208f5761208e611b88565b5b600061209d87828801611dd5565b94505060206120ae87828801611dd5565b93505060406120bf87828801611d20565b925050606085013567ffffffffffffffff8111156120e0576120df611b8d565b5b6120ec87828801612047565b91505092959194509250565b600067ffffffffffffffff82111561211357612112611f4a565b5b61211c82611c93565b9050602081019050919050565b600061213c612137846120f8565b611faa565b90508281526020810184848401111561215857612157611f45565b5b612163848285611ff6565b509392505050565b600082601f8301126121805761217f611f40565b5b8135612190848260208601612129565b91505092915050565b6000806000606084860312156121b2576121b1611b88565b5b60006121c086828701611dd5565b93505060206121d186828701611d20565b925050604084013567ffffffffffffffff8111156121f2576121f1611b8d565b5b6121fe8682870161216b565b9150509250925092565b6000806040838503121561221f5761221e611b88565b5b600061222d85828601611dd5565b925050602061223e85828601611dd5565b9150509250929050565b7f4e487b7100000000000000000000000000000000000000000000000000000000600052602260045260246000fd5b6000600282049050600182168061228f57607f821691505b6020821081036122a2576122a1612248565b5b50919050565b7f4552433732313a20617070726f76616c20746f2063757272656e74206f776e6560008201527f7200000000000000000000000000000000000000000000000000000000000000602082015250565b6000612304602183611c58565b915061230f826122a8565b604082019050919050565b60006020820190508181036000830152612333816122f7565b9050919050565b7f4552433732313a20617070726f76652063616c6c6572206973206e6f7420746f60008201527f6b656e206f776e6572206f7220617070726f76656420666f7220616c6c000000602082015250565b6000612396603d83611c58565b91506123a18261233a565b604082019050919050565b600060208201905081810360008301526123c581612389565b9050919050565b7f4552433732313a2063616c6c6572206973206e6f7420746f6b656e206f776e6560008201527f72206f7220617070726f76656400000000000000000000000000000000000000602082015250565b6000612428602d83611c58565b9150612433826123cc565b604082019050919050565b600060208201905081810360008301526124578161241b565b9050919050565b7f4552433732313a20696e76616c696420746f6b656e2049440000000000000000600082015250565b6000612494601883611c58565b915061249f8261245e565b602082019050919050565b600060208201905081810360008301526124c381612487565b9050919050565b7f4552433732313a2061646472657373207a65726f206973206e6f74206120766160008201527f6c6964206f776e65720000000000000000000000000000000000000000000000602082015250565b6000612526602983611c58565b9150612531826124ca565b604082019050919050565b6000602082019050818103600083015261255581612519565b9050919050565b600081905092915050565b600061257282611c4d565b61257c818561255c565b935061258c818560208601611c69565b80840191505092915050565b60006125a48285612567565b91506125b08284612567565b91508190509392505050565b7f4f776e61626c653a206e6577206f776e657220697320746865207a65726f206160008201527f6464726573730000000000000000000000000000000000000000000000000000602082015250565b6000612618602683611c58565b9150612623826125bc565b604082019050919050565b600060208201905081810360008301526126478161260b565b9050919050565b7f4552433732313a207472616e736665722066726f6d20696e636f72726563742060008201527f6f776e6572000000000000000000000000000000000000000000000000000000602082015250565b60006126aa602583611c58565b91506126b58261264e565b604082019050919050565b600060208201905081810360008301526126d98161269d565b9050919050565b7f4552433732313a207472616e7366657220746f20746865207a65726f2061646460008201527f7265737300000000000000000000000000000000000000000000000000000000602082015250565b600061273c602483611c58565b9150612747826126e0565b604082019050919050565b6000602082019050818103600083015261276b8161272f565b9050919050565b7f4f776e61626c653a2063616c6c6572206973206e6f7420746865206f776e6572600082015250565b60006127a8602083611c58565b91506127b382612772565b602082019050919050565b600060208201905081810360008301526127d78161279b565b9050919050565b7f4552433732313a20617070726f766520746f2063616c6c657200000000000000600082015250565b6000612814601983611c58565b915061281f826127de565b602082019050919050565b6000602082019050818103600083015261284381612807565b9050919050565b7f4552433732313a207472616e7366657220746f206e6f6e20455243373231526560008201527f63656976657220696d706c656d656e7465720000000000000000000000000000602082015250565b60006128a6603283611c58565b91506128b18261284a565b604082019050919050565b600060208201905081810360008301526128d581612899565b9050919050565b7f4552433732313a206d696e7420746f20746865207a65726f2061646472657373600082015250565b6000612912602083611c58565b915061291d826128dc565b602082019050919050565b6000602082019050818103600083015261294181612905565b9050919050565b7f4552433732313a20746f6b656e20616c7265616479206d696e74656400000000600082015250565b600061297e601c83611c58565b915061298982612948565b602082019050919050565b600060208201905081810360008301526129ad81612971565b9050919050565b7f45524337323155524953746f726167653a2055524920736574206f66206e6f6e60008201527f6578697374656e7420746f6b656e000000000000000000000000000000000000602082015250565b6000612a10602e83611c58565b9150612a1b826129b4565b604082019050919050565b60006020820190508181036000830152612a3f81612a03565b9050919050565b60008190508160005260206000209050919050565b60006020601f8301049050919050565b600082821b905092915050565b600060088302612aa87fffffffffffffffffffffffffffffffffffffffffffffffffffffffffffffffff82612a6b565b612ab28683612a6b565b95508019841693508086168417925050509392505050565b6000819050919050565b6000612aef612aea612ae584611cff565b612aca565b611cff565b9050919050565b6000819050919050565b612b0983612ad4565b612b1d612b1582612af6565b848454612a78565b825550505050565b600090565b612b32612b25565b612b3d818484612b00565b505050565b5b81811015612b6157612b56600082612b2a565b600181019050612b43565b5050565b601f821115612ba657612b7781612a46565b612b8084612a5b565b81016020851015612b8f578190505b612ba3612b9b85612a5b565b830182612b42565b50505b505050565b600082821c905092915050565b6000612bc960001984600802612bab565b1980831691505092915050565b6000612be28383612bb8565b9150826002028217905092915050565b612bfb82611c4d565b67ffffffffffffffff811115612c1457612c13611f4a565b5b612c1e8254612277565b612c29828285612b65565b600060209050601f831160018114612c5c5760008415612c4a578287015190505b612c548582612bd6565b865550612cbc565b601f198416612c6a86612a46565b60005b82811015612c9257848901518255600182019150602085019450602081019050612c6d565b86831015612caf5784890151612cab601f891682612bb8565b8355505b6001600288020188555050505b505050505050565b600081519050919050565b600082825260208201905092915050565b6000612ceb82612cc4565b612cf58185612ccf565b9350612d05818560208601611c69565b612d0e81611c93565b840191505092915050565b6000608082019050612d2e6000830187611d94565b612d3b6020830186611d94565b612d486040830185611eaa565b8181036060830152612d5a8184612ce0565b905095945050505050565b600081519050612d7481611bbe565b92915050565b600060208284031215612d9057612d8f611b88565b5b6000612d9e84828501612d65565b91505092915050565b7f4e487b7100000000000000000000000000000000000000000000000000000000600052601260045260246000fdfea264697066735822122049a270e9f421d6d7bac9bd93b6cbb74627f576790013e0d9d497bb92ba70d76364736f6c63430008120033",
  "linkReferences": {},
  "deployedLinkReferences": {}
}