{
  "_format": "hh-sol-artifact-1",
  "contractName": "BasicDutchAuction",
  "sourceName": "contracts/BasicDutchAuction.sol",
  "abi": [
    {
      "inputs": [
        {
          "internalType": "uint256",
          "name": "_reservePrice",
          "type": "uint256"
        },
        {
          "internalType": "uint256",
          "name": "_numBlocksAuctionOpen",
          "type": "uint256"
        },
        {
          "internalType": "uint256",
          "name": "_offerPriceDecrement",
          "type": "uint256"
        }
      ],
      "stateMutability": "nonpayable",
      "type": "constructor"
    },
    {
      "anonymous": false,
      "inputs": [
        {
          "indexed": false,
          "internalType": "address",
          "name": "winner",
          "type": "address"
        },
        {
          "indexed": false,
          "internalType": "uint256",
          "name": "amount",
          "type": "uint256"
        }
      ],
      "name": "AuctionEnded",
      "type": "event"
    },
    {
      "anonymous": false,
      "inputs": [
        {
          "indexed": false,
          "internalType": "address",
          "name": "bidder",
          "type": "address"
        },
        {
          "indexed": false,
          "internalType": "uint256",
          "name": "amount",
          "type": "uint256"
        }
      ],
      "name": "BidPlaced",
      "type": "event"
    },
    {
      "anonymous": false,
      "inputs": [
        {
          "indexed": false,
          "internalType": "address",
          "name": "bidder",
          "type": "address"
        },
        {
          "indexed": false,
          "internalType": "uint256",
          "name": "amount",
          "type": "uint256"
        }
      ],
      "name": "BidRefunded",
      "type": "event"
    },
    {
      "inputs": [],
      "name": "auctionEnded",
      "outputs": [
        {
          "internalType": "bool",
          "name": "",
          "type": "bool"
        }
      ],
      "stateMutability": "view",
      "type": "function"
    },
    {
      "inputs": [
        {
          "internalType": "address",
          "name": "",
          "type": "address"
        }
      ],
      "name": "bids",
      "outputs": [
        {
          "internalType": "uint256",
          "name": "",
          "type": "uint256"
        }
      ],
      "stateMutability": "view",
      "type": "function"
    },
    {
      "inputs": [],
      "name": "endAuction",
      "outputs": [],
      "stateMutability": "nonpayable",
      "type": "function"
    },
    {
      "inputs": [],
      "name": "endBlock",
      "outputs": [
        {
          "internalType": "uint256",
          "name": "",
          "type": "uint256"
        }
      ],
      "stateMutability": "view",
      "type": "function"
    },
    {
      "inputs": [],
      "name": "getCurrentPrice",
      "outputs": [
        {
          "internalType": "uint256",
          "name": "",
          "type": "uint256"
        }
      ],
      "stateMutability": "view",
      "type": "function"
    },
    {
      "inputs": [],
      "name": "highestBid",
      "outputs": [
        {
          "internalType": "uint256",
          "name": "",
          "type": "uint256"
        }
      ],
      "stateMutability": "view",
      "type": "function"
    },
    {
      "inputs": [],
      "name": "highestBidder",
      "outputs": [
        {
          "internalType": "address",
          "name": "",
          "type": "address"
        }
      ],
      "stateMutability": "view",
      "type": "function"
    },
    {
      "inputs": [],
      "name": "initialPrice",
      "outputs": [
        {
          "internalType": "uint256",
          "name": "",
          "type": "uint256"
        }
      ],
      "stateMutability": "view",
      "type": "function"
    },
    {
      "inputs": [],
      "name": "itemSold",
      "outputs": [
        {
          "internalType": "bool",
          "name": "",
          "type": "bool"
        }
      ],
      "stateMutability": "view",
      "type": "function"
    },
    {
      "inputs": [],
      "name": "numBlocksAuctionOpen",
      "outputs": [
        {
          "internalType": "uint256",
          "name": "",
          "type": "uint256"
        }
      ],
      "stateMutability": "view",
      "type": "function"
    },
    {
      "inputs": [],
      "name": "offerPriceDecrement",
      "outputs": [
        {
          "internalType": "uint256",
          "name": "",
          "type": "uint256"
        }
      ],
      "stateMutability": "view",
      "type": "function"
    },
    {
      "inputs": [],
      "name": "placeBid",
      "outputs": [],
      "stateMutability": "payable",
      "type": "function"
    },
    {
      "inputs": [
        {
          "internalType": "address",
          "name": "bidder",
          "type": "address"
        }
      ],
      "name": "refundBid",
      "outputs": [],
      "stateMutability": "nonpayable",
      "type": "function"
    },
    {
      "inputs": [],
      "name": "reservePrice",
      "outputs": [
        {
          "internalType": "uint256",
          "name": "",
          "type": "uint256"
        }
      ],
      "stateMutability": "view",
      "type": "function"
    },
    {
      "inputs": [],
      "name": "seller",
      "outputs": [
        {
          "internalType": "address payable",
          "name": "",
          "type": "address"
        }
      ],
      "stateMutability": "view",
      "type": "function"
    },
    {
      "inputs": [],
      "name": "startBlock",
      "outputs": [
        {
          "internalType": "uint256",
          "name": "",
          "type": "uint256"
        }
      ],
      "stateMutability": "view",
      "type": "function"
    }
  ],
  "bytecode": "0x60806040523480156200001157600080fd5b50604051620018b1380380620018b183398181016040528101906200003791906200026c565b62000053679ecf77ef45e051fa60c01b6200022960201b60201c565b6200006f67541086f66254cf6b60c01b6200022960201b60201c565b336000806101000a81548173ffffffffffffffffffffffffffffffffffffffff021916908373ffffffffffffffffffffffffffffffffffffffff160217905550620000cb677988138203a203d460c01b6200022960201b60201c565b82600181905550620000ee6747c32dbb5f7bcb8760c01b6200022960201b60201c565b8160028190555062000111679b8fc91ad512b71b60c01b6200022960201b60201c565b80600381905550620001346742bad443be56256160c01b6200022960201b60201c565b600354600254620001469190620002f7565b60015462000155919062000342565b60048190555062000177671e3e49b32795a93460c01b6200022960201b60201c565b436005819055506200019a67dd7f3f403518552260c01b6200022960201b60201c565b600254600554620001ac919062000342565b600681905550620001ce673b439dfa08c65bdd60c01b6200022960201b60201c565b6000600760006101000a81548160ff021916908315150217905550620002056789c013c4432b1fc660c01b6200022960201b60201c565b6000600760016101000a81548160ff0219169083151502179055505050506200037d565b50565b600080fd5b6000819050919050565b620002468162000231565b81146200025257600080fd5b50565b60008151905062000266816200023b565b92915050565b6000806000606084860312156200028857620002876200022c565b5b6000620002988682870162000255565b9350506020620002ab8682870162000255565b9250506040620002be8682870162000255565b9150509250925092565b7f4e487b7100000000000000000000000000000000000000000000000000000000600052601160045260246000fd5b6000620003048262000231565b9150620003118362000231565b9250828202620003218162000231565b915082820484148315176200033b576200033a620002c8565b5b5092915050565b60006200034f8262000231565b91506200035c8362000231565b9250828201905080821115620003775762000376620002c8565b5b92915050565b611524806200038d6000396000f3fe6080604052600436106100f35760003560e01c8063864333741161008a578063db2e1eed11610059578063db2e1eed1461030c578063eb91d37e14610337578063ecfc7ecc14610362578063fe67a54b1461036c576100f3565b8063864333741461026057806391f901571461028b578063d3642a88146102b6578063d57bde79146102e1576100f3565b8063385e3155116100c6578063385e3155146101a4578063438e897a146101cd57806348cd4cb1146101f857806362ea82db14610223576100f3565b8063083c6323146100f857806308551a53146101235780631d0806ae1461014e5780633103ea6214610179575b600080fd5b34801561010457600080fd5b5061010d610383565b60405161011a919061102a565b60405180910390f35b34801561012f57600080fd5b50610138610389565b6040516101459190611086565b60405180910390f35b34801561015a57600080fd5b506101636103ad565b604051610170919061102a565b60405180910390f35b34801561018557600080fd5b5061018e6103b3565b60405161019b919061102a565b60405180910390f35b3480156101b057600080fd5b506101cb60048036038101906101c691906110e4565b6103b9565b005b3480156101d957600080fd5b506101e2610638565b6040516101ef919061112c565b60405180910390f35b34801561020457600080fd5b5061020d61064b565b60405161021a919061102a565b60405180910390f35b34801561022f57600080fd5b5061024a600480360381019061024591906110e4565b610651565b604051610257919061102a565b60405180910390f35b34801561026c57600080fd5b50610275610669565b604051610282919061112c565b60405180910390f35b34801561029757600080fd5b506102a061067c565b6040516102ad9190611156565b60405180910390f35b3480156102c257600080fd5b506102cb6106a2565b6040516102d8919061102a565b60405180910390f35b3480156102ed57600080fd5b506102f66106a8565b604051610303919061102a565b60405180910390f35b34801561031857600080fd5b506103216106ae565b60405161032e919061102a565b60405180910390f35b34801561034357600080fd5b5061034c6106b4565b604051610359919061102a565b60405180910390f35b61036a6107a9565b005b34801561037857600080fd5b50610381610c5b565b005b60065481565b60008054906101000a900473ffffffffffffffffffffffffffffffffffffffff1681565b60045481565b60025481565b6103cd672381f3c503f73ef860c01b61100e565b6103e1674f2005a200d7017a60c01b61100e565b6103f567acb04d6a318aa8b060c01b61100e565b610409670c9371959835a90f60c01b61100e565b6000600960008373ffffffffffffffffffffffffffffffffffffffff1673ffffffffffffffffffffffffffffffffffffffff168152602001908152602001600020541161048b576040517f08c379a0000000000000000000000000000000000000000000000000000000008152600401610482906111ce565b60405180910390fd5b61049f671037a584abc8565e60c01b61100e565b6104b367129d4e9775b0f17b60c01b61100e565b6104c7677d4f62876619d30560c01b61100e565b6000600960008373ffffffffffffffffffffffffffffffffffffffff1673ffffffffffffffffffffffffffffffffffffffff16815260200190815260200160002054905061051f67594b021d733c89ed60c01b61100e565b6000600960008473ffffffffffffffffffffffffffffffffffffffff1673ffffffffffffffffffffffffffffffffffffffff16815260200190815260200160002081905550610578670cff95c941c77f1760c01b61100e565b61058c67e9fe44ec8d3ea45060c01b61100e565b7f8377883650d2137d6e6d67bcf2dbb9b1dab287d68240a17ff910b9fb7a0ad5ff82826040516105bd9291906111ee565b60405180910390a16105d96774a2cd02338276a160c01b61100e565b6105ed67e07458b025674e8260c01b61100e565b8173ffffffffffffffffffffffffffffffffffffffff166108fc829081150290604051600060405180830381858888f19350505050158015610633573d6000803e3d6000fd5b505050565b600760019054906101000a900460ff1681565b60055481565b60096020528060005260406000206000915090505481565b600760009054906101000a900460ff1681565b600760029054906101000a900473ffffffffffffffffffffffffffffffffffffffff1681565b60035481565b60085481565b60015481565b60006106ca679f6a055a7600dfbe60c01b61100e565b6106de67aa6405110b2d674d60c01b61100e565b6106f267fe9867265030129d60c01b61100e565b600043905061070b675b0354a16a3d5ba360c01b61100e565b61071f67612c3c0cdcadd24060c01b61100e565b60006005548261072f9190611246565b905061074567a54b0a0ee7a57b7e60c01b61100e565b610759672fbbcf8e6de3210860c01b61100e565b600060035482610769919061127a565b905061077f67525a936899bdd4c460c01b61100e565b61079367e5e195f70f51bc3660c01b61100e565b806004546107a19190611246565b935050505090565b6107bd67589b88c3a307bfb060c01b61100e565b6107d167b94d09f82757170460c01b61100e565b6107e567c012ea453c8a348c60c01b61100e565b6107f9677f9c75b741c9104b60c01b61100e565b600760009054906101000a900460ff1615610849576040517f08c379a000000000000000000000000000000000000000000000000000000000815260040161084090611308565b60405180910390fd5b61085d674f328a7cb02fc04260c01b61100e565b610871678e32270f688a874460c01b61100e565b61088567a2d5795bcf89a31f60c01b61100e565b610899677381e7c1b57545c660c01b61100e565b600034116108dc576040517f08c379a00000000000000000000000000000000000000000000000000000000081526004016108d39061139a565b60405180910390fd5b6108f067cacdd0a7a7ca07a360c01b61100e565b61090467e3ed9652e55bc65660c01b61100e565b61091867f50b2bdec741f3b460c01b61100e565b60006109226106b4565b9050610938679ccd500ce6a560cc60c01b61100e565b61094c679c4b637fd3deee6c60c01b61100e565b61096067740320d28efab25c60c01b61100e565b6008543410156109a5576040517f08c379a000000000000000000000000000000000000000000000000000000000815260040161099c9061142c565b60405180910390fd5b6109b967ced4c8d77884089e60c01b61100e565b6109cd6755b34c0cbd4284d960c01b61100e565b6109e167bf819b56b358d33c60c01b61100e565b600060085414610ae4576109ff67d75ec822d27f496a60c01b61100e565b610a136775a460fbbc5bb71a60c01b61100e565b60085460096000600760029054906101000a900473ffffffffffffffffffffffffffffffffffffffff1673ffffffffffffffffffffffffffffffffffffffff1673ffffffffffffffffffffffffffffffffffffffff1681526020019081526020016000206000828254610a86919061144c565b92505081905550610aa167addff4c0cd4faf6960c01b61100e565b610ab4667bb90f98c52ab560c01b61100e565b610adf600760029054906101000a900473ffffffffffffffffffffffffffffffffffffffff166103b9565b610af8565b610af766b9ebde539d237460c01b61100e565b5b610b0c67e3ff398fd20c18ba60c01b61100e565b33600760026101000a81548173ffffffffffffffffffffffffffffffffffffffff021916908373ffffffffffffffffffffffffffffffffffffffff160217905550610b6167a89cac36d3b5db2460c01b61100e565b34600881905550610b7c6701237f4f7cb67c6360c01b61100e565b610b906709a2bfa74441d4bc60c01b61100e565b7f3fabff0a9c3ecd6814702e247fa9733e5d0aa69e3a38590f92cb18f623a2254d3334604051610bc19291906111ee565b60405180910390a1610bdd6777cbda5c368470bc60c01b61100e565b610bf1673fef2d11cc40d22760c01b61100e565b8060085410610c4357610c0e67c6dffc93fac8da2760c01b61100e565b610c22677ebaa3f59b3661cf60c01b61100e565b610c3667cfa5a6f9cf87cd2860c01b61100e565b610c3e610c5b565b610c58565b610c576734e89a4254527b3f60c01b61100e565b5b50565b610c6f67d72b54e15e984a7960c01b61100e565b610c8367d349da641551c4ea60c01b61100e565b610c976707b9bf824048a13260c01b61100e565b610cab67f2961d28eb49e17b60c01b61100e565b600760009054906101000a900460ff1615610cfb576040517f08c379a0000000000000000000000000000000000000000000000000000000008152600401610cf290611308565b60405180910390fd5b610d0f67f68a7f8eb12a49a860c01b61100e565b610d2367dcdc4bbdb6ba218a60c01b61100e565b6001600760006101000a81548160ff021916908315150217905550610d5267b079d9a52c2d992860c01b61100e565b6001600760016101000a81548160ff021916908315150217905550610d81676e5bf50c0c0c59af60c01b61100e565b610d95674bf8a71c6be3405b60c01b61100e565b600073ffffffffffffffffffffffffffffffffffffffff16600760029054906101000a900473ffffffffffffffffffffffffffffffffffffffff1673ffffffffffffffffffffffffffffffffffffffff1614610f9557610dff67bdb801f9fa5358bb60c01b61100e565b610e136755a0df1823814c8360c01b61100e565b600060096000600760029054906101000a900473ffffffffffffffffffffffffffffffffffffffff1673ffffffffffffffffffffffffffffffffffffffff1673ffffffffffffffffffffffffffffffffffffffff16815260200190815260200160002081905550610e8e672e14ab075529add760c01b61100e565b610ea2675687de1eb30fe93a60c01b61100e565b60008054906101000a900473ffffffffffffffffffffffffffffffffffffffff1673ffffffffffffffffffffffffffffffffffffffff166108fc6008549081150290604051600060405180830381858888f19350505050158015610f0a573d6000803e3d6000fd5b50610f1f67030dbfce50e6bb2360c01b61100e565b610f3367092925387c22a78660c01b61100e565b7fdaec4582d5d9595688c8c98545fdd1c696d41c6aeaeb636737e84ed2f5c00eda600760029054906101000a900473ffffffffffffffffffffffffffffffffffffffff16600854604051610f889291906111ee565b60405180910390a161100c565b610fa967494bb6454ac2e58260c01b61100e565b610fbd6724bc51a073603e7560c01b61100e565b610fd1674942da3dd201bb2260c01b61100e565b7fdaec4582d5d9595688c8c98545fdd1c696d41c6aeaeb636737e84ed2f5c00eda6000806040516110039291906114c5565b60405180910390a15b565b50565b6000819050919050565b61102481611011565b82525050565b600060208201905061103f600083018461101b565b92915050565b600073ffffffffffffffffffffffffffffffffffffffff82169050919050565b600061107082611045565b9050919050565b61108081611065565b82525050565b600060208201905061109b6000830184611077565b92915050565b600080fd5b60006110b182611045565b9050919050565b6110c1816110a6565b81146110cc57600080fd5b50565b6000813590506110de816110b8565b92915050565b6000602082840312156110fa576110f96110a1565b5b6000611108848285016110cf565b91505092915050565b60008115159050919050565b61112681611111565b82525050565b6000602082019050611141600083018461111d565b92915050565b611150816110a6565b82525050565b600060208201905061116b6000830184611147565b92915050565b600082825260208201905092915050565b7f4e6f2062696420746f20726566756e6400000000000000000000000000000000600082015250565b60006111b8601083611171565b91506111c382611182565b602082019050919050565b600060208201905081810360008301526111e7816111ab565b9050919050565b60006040820190506112036000830185611147565b611210602083018461101b565b9392505050565b7f4e487b7100000000000000000000000000000000000000000000000000000000600052601160045260246000fd5b600061125182611011565b915061125c83611011565b925082820390508181111561127457611273611217565b5b92915050565b600061128582611011565b915061129083611011565b925082820261129e81611011565b915082820484148315176112b5576112b4611217565b5b5092915050565b7f41756374696f6e20616c726561647920656e6465640000000000000000000000600082015250565b60006112f2601583611171565b91506112fd826112bc565b602082019050919050565b60006020820190508181036000830152611321816112e5565b9050919050565b7f42696420616d6f756e74206d7573742062652067726561746572207468616e2060008201527f3000000000000000000000000000000000000000000000000000000000000000602082015250565b6000611384602183611171565b915061138f82611328565b604082019050919050565b600060208201905081810360008301526113b381611377565b9050919050565b7f42696420616d6f756e742069732062656c6f772063757272656e74206869676860008201527f6573742042696400000000000000000000000000000000000000000000000000602082015250565b6000611416602783611171565b9150611421826113ba565b604082019050919050565b6000602082019050818103600083015261144581611409565b9050919050565b600061145782611011565b915061146283611011565b925082820190508082111561147a57611479611217565b5b92915050565b6000819050919050565b6000819050919050565b60006114af6114aa6114a584611480565b61148a565b611011565b9050919050565b6114bf81611494565b82525050565b60006040820190506114da6000830185611147565b6114e760208301846114b6565b939250505056fea2646970667358221220f29a067153b7d14a6dec18ed48679160110fc738ead6b5d0706bd5b4c44d57d264736f6c63430008120033",
  "linkReferences": {},
  "deployedLinkReferences": {}
}