{
  "_format": "hh-sol-artifact-1",
  "contractName": "NFTDutchAuction_ERC20Bids",
  "sourceName": "contracts/NFTDutchAuction_ERC20Bids.sol",
  "abi": [
    {
      "anonymous": false,
      "inputs": [
        {
          "indexed": false,
          "internalType": "address",
          "name": "previousAdmin",
          "type": "address"
        },
        {
          "indexed": false,
          "internalType": "address",
          "name": "newAdmin",
          "type": "address"
        }
      ],
      "name": "AdminChanged",
      "type": "event"
    },
    {
      "anonymous": false,
      "inputs": [
        {
          "indexed": true,
          "internalType": "address",
          "name": "winner",
          "type": "address"
        },
        {
          "indexed": false,
          "internalType": "uint256",
          "name": "winningBidAmount",
          "type": "uint256"
        }
      ],
      "name": "AuctionEnded",
      "type": "event"
    },
    {
      "anonymous": false,
      "inputs": [
        {
          "indexed": true,
          "internalType": "address",
          "name": "beacon",
          "type": "address"
        }
      ],
      "name": "BeaconUpgraded",
      "type": "event"
    },
    {
      "anonymous": false,
      "inputs": [
        {
          "indexed": true,
          "internalType": "address",
          "name": "bidder",
          "type": "address"
        },
        {
          "indexed": false,
          "internalType": "uint256",
          "name": "bidAmount",
          "type": "uint256"
        }
      ],
      "name": "BidPlaced",
      "type": "event"
    },
    {
      "anonymous": false,
      "inputs": [
        {
          "indexed": false,
          "internalType": "uint8",
          "name": "version",
          "type": "uint8"
        }
      ],
      "name": "Initialized",
      "type": "event"
    },
    {
      "anonymous": false,
      "inputs": [
        {
          "indexed": true,
          "internalType": "address",
          "name": "previousOwner",
          "type": "address"
        },
        {
          "indexed": true,
          "internalType": "address",
          "name": "newOwner",
          "type": "address"
        }
      ],
      "name": "OwnershipTransferred",
      "type": "event"
    },
    {
      "anonymous": false,
      "inputs": [
        {
          "indexed": true,
          "internalType": "address",
          "name": "implementation",
          "type": "address"
        }
      ],
      "name": "Upgraded",
      "type": "event"
    },
    {
      "inputs": [],
      "name": "auctionEnded",
      "outputs": [
        {
          "internalType": "bool",
          "name": "",
          "type": "bool"
        }
      ],
      "stateMutability": "view",
      "type": "function"
    },
    {
      "inputs": [],
      "name": "auctionStartTime",
      "outputs": [
        {
          "internalType": "uint256",
          "name": "",
          "type": "uint256"
        }
      ],
      "stateMutability": "view",
      "type": "function"
    },
    {
      "inputs": [
        {
          "internalType": "address",
          "name": "",
          "type": "address"
        }
      ],
      "name": "bids",
      "outputs": [
        {
          "internalType": "uint256",
          "name": "",
          "type": "uint256"
        }
      ],
      "stateMutability": "view",
      "type": "function"
    },
    {
      "inputs": [],
      "name": "endAuction",
      "outputs": [],
      "stateMutability": "nonpayable",
      "type": "function"
    },
    {
      "inputs": [],
      "name": "erc20Token",
      "outputs": [
        {
          "internalType": "contract IERC20",
          "name": "",
          "type": "address"
        }
      ],
      "stateMutability": "view",
      "type": "function"
    },
    {
      "inputs": [],
      "name": "erc721TokenAddress",
      "outputs": [
        {
          "internalType": "address",
          "name": "",
          "type": "address"
        }
      ],
      "stateMutability": "view",
      "type": "function"
    },
    {
      "inputs": [],
      "name": "getMessage",
      "outputs": [
        {
          "internalType": "string",
          "name": "",
          "type": "string"
        }
      ],
      "stateMutability": "view",
      "type": "function"
    },
    {
      "inputs": [],
      "name": "highestBid",
      "outputs": [
        {
          "internalType": "uint256",
          "name": "",
          "type": "uint256"
        }
      ],
      "stateMutability": "view",
      "type": "function"
    },
    {
      "inputs": [],
      "name": "highestBidder",
      "outputs": [
        {
          "internalType": "address",
          "name": "",
          "type": "address"
        }
      ],
      "stateMutability": "view",
      "type": "function"
    },
    {
      "inputs": [],
      "name": "initialPrice",
      "outputs": [
        {
          "internalType": "uint256",
          "name": "",
          "type": "uint256"
        }
      ],
      "stateMutability": "view",
      "type": "function"
    },
    {
      "inputs": [
        {
          "internalType": "string",
          "name": "_upgradeNumber",
          "type": "string"
        },
        {
          "internalType": "address",
          "name": "_erc20TokenAddress",
          "type": "address"
        },
        {
          "internalType": "address",
          "name": "_erc721TokenAddress",
          "type": "address"
        },
        {
          "internalType": "uint256",
          "name": "_nftTokenId",
          "type": "uint256"
        },
        {
          "internalType": "uint256",
          "name": "_reservePrice",
          "type": "uint256"
        },
        {
          "internalType": "uint256",
          "name": "_numBlocksAuctionOpen",
          "type": "uint256"
        },
        {
          "internalType": "uint256",
          "name": "_offerPriceDecrement",
          "type": "uint256"
        }
      ],
      "name": "initialize",
      "outputs": [],
      "stateMutability": "nonpayable",
      "type": "function"
    },
    {
      "inputs": [],
      "name": "itemSold",
      "outputs": [
        {
          "internalType": "bool",
          "name": "",
          "type": "bool"
        }
      ],
      "stateMutability": "view",
      "type": "function"
    },
    {
      "inputs": [],
      "name": "nft",
      "outputs": [
        {
          "internalType": "contract IERC721",
          "name": "",
          "type": "address"
        }
      ],
      "stateMutability": "view",
      "type": "function"
    },
    {
      "inputs": [],
      "name": "nftTokenId",
      "outputs": [
        {
          "internalType": "uint256",
          "name": "",
          "type": "uint256"
        }
      ],
      "stateMutability": "view",
      "type": "function"
    },
    {
      "inputs": [],
      "name": "numBlocksAuctionOpen",
      "outputs": [
        {
          "internalType": "uint256",
          "name": "",
          "type": "uint256"
        }
      ],
      "stateMutability": "view",
      "type": "function"
    },
    {
      "inputs": [],
      "name": "offerPriceDecrement",
      "outputs": [
        {
          "internalType": "uint256",
          "name": "",
          "type": "uint256"
        }
      ],
      "stateMutability": "view",
      "type": "function"
    },
    {
      "inputs": [],
      "name": "owner",
      "outputs": [
        {
          "internalType": "address",
          "name": "",
          "type": "address"
        }
      ],
      "stateMutability": "view",
      "type": "function"
    },
    {
      "inputs": [
        {
          "internalType": "uint256",
          "name": "bidAmount",
          "type": "uint256"
        }
      ],
      "name": "placeBid",
      "outputs": [],
      "stateMutability": "nonpayable",
      "type": "function"
    },
    {
      "inputs": [],
      "name": "proxiableUUID",
      "outputs": [
        {
          "internalType": "bytes32",
          "name": "",
          "type": "bytes32"
        }
      ],
      "stateMutability": "view",
      "type": "function"
    },
    {
      "inputs": [
        {
          "internalType": "address",
          "name": "bidder",
          "type": "address"
        }
      ],
      "name": "refundBidders",
      "outputs": [],
      "stateMutability": "nonpayable",
      "type": "function"
    },
    {
      "inputs": [],
      "name": "renounceOwnership",
      "outputs": [],
      "stateMutability": "nonpayable",
      "type": "function"
    },
    {
      "inputs": [],
      "name": "reservePrice",
      "outputs": [
        {
          "internalType": "uint256",
          "name": "",
          "type": "uint256"
        }
      ],
      "stateMutability": "view",
      "type": "function"
    },
    {
      "inputs": [
        {
          "internalType": "address",
          "name": "newOwner",
          "type": "address"
        }
      ],
      "name": "transferOwnership",
      "outputs": [],
      "stateMutability": "nonpayable",
      "type": "function"
    },
    {
      "inputs": [],
      "name": "upgradeNumber",
      "outputs": [
        {
          "internalType": "string",
          "name": "",
          "type": "string"
        }
      ],
      "stateMutability": "view",
      "type": "function"
    },
    {
      "inputs": [
        {
          "internalType": "address",
          "name": "newImplementation",
          "type": "address"
        }
      ],
      "name": "upgradeTo",
      "outputs": [],
      "stateMutability": "nonpayable",
      "type": "function"
    },
    {
      "inputs": [
        {
          "internalType": "address",
          "name": "newImplementation",
          "type": "address"
        },
        {
          "internalType": "bytes",
          "name": "data",
          "type": "bytes"
        }
      ],
      "name": "upgradeToAndCall",
      "outputs": [],
      "stateMutability": "payable",
      "type": "function"
    }
  ],
  "bytecode": "0x60a06040523073ffffffffffffffffffffffffffffffffffffffff1660809073ffffffffffffffffffffffffffffffffffffffff1681525034801561004357600080fd5b50608051613dd061007b600039600081816109ba01528181610a4801528181610b7b01528181610c090152610cb90152613dd06000f3fe6080604052600436106101815760003560e01c80638a13eea7116100d1578063d57bde791161008a578063eb54f9ec11610064578063eb54f9ec1461051f578063eb8bf84d1461054a578063f2fde38b14610575578063fe67a54b1461059e57610181565b8063d57bde791461049e578063db2e1eed146104c9578063df241cb9146104f457610181565b80638a13eea71461039e5780638da5cb5b146103c957806391f90157146103f45780639979ef451461041f578063ce6d41de14610448578063d3642a881461047357610181565b80634f1ef2861161013e578063715018a611610118578063715018a61461030857806374fe29161461031f5780637e83057414610348578063864333741461037357610181565b80634f1ef2861461028457806352d1902d146102a057806362ea82db146102cb57610181565b80631d0806ae146101865780632bf0d538146101b15780633103ea62146101da5780633659cfe614610205578063438e897a1461022e57806347ccca0214610259575b600080fd5b34801561019257600080fd5b5061019b6105b5565b6040516101a891906128c2565b60405180910390f35b3480156101bd57600080fd5b506101d860048036038101906101d3919061294f565b6105bb565b005b3480156101e657600080fd5b506101ef6109b2565b6040516101fc91906128c2565b60405180910390f35b34801561021157600080fd5b5061022c6004803603810190610227919061294f565b6109b8565b005b34801561023a57600080fd5b50610243610b40565b6040516102509190612997565b60405180910390f35b34801561026557600080fd5b5061026e610b53565b60405161027b9190612a11565b60405180910390f35b61029e60048036038101906102999190612b72565b610b79565b005b3480156102ac57600080fd5b506102b5610cb5565b6040516102c29190612be7565b60405180910390f35b3480156102d757600080fd5b506102f260048036038101906102ed919061294f565b610d6e565b6040516102ff91906128c2565b60405180910390f35b34801561031457600080fd5b5061031d610d86565b005b34801561032b57600080fd5b5061034660048036038101906103419190612ccf565b610d9a565b005b34801561035457600080fd5b5061035d611320565b60405161036a91906128c2565b60405180910390f35b34801561037f57600080fd5b50610388611326565b6040516103959190612997565b60405180910390f35b3480156103aa57600080fd5b506103b3611339565b6040516103c09190612dae565b60405180910390f35b3480156103d557600080fd5b506103de61135f565b6040516103eb9190612dd8565b60405180910390f35b34801561040057600080fd5b50610409611389565b6040516104169190612dd8565b60405180910390f35b34801561042b57600080fd5b5061044660048036038101906104419190612df3565b6113af565b005b34801561045457600080fd5b5061045d6118f1565b60405161046a9190612e9f565b60405180910390f35b34801561047f57600080fd5b506104886119bf565b60405161049591906128c2565b60405180910390f35b3480156104aa57600080fd5b506104b36119c5565b6040516104c091906128c2565b60405180910390f35b3480156104d557600080fd5b506104de6119cb565b6040516104eb91906128c2565b60405180910390f35b34801561050057600080fd5b506105096119d1565b6040516105169190612dd8565b60405180910390f35b34801561052b57600080fd5b506105346119f7565b60405161054191906128c2565b60405180910390f35b34801561055657600080fd5b5061055f6119fd565b60405161056c9190612e9f565b60405180910390f35b34801561058157600080fd5b5061059c6004803603810190610597919061294f565b611a8b565b005b3480156105aa57600080fd5b506105b3611b0e565b005b60d05481565b6105cf67c6d4f07928f557f960c01b612134565b6105e36729050cbdad1e44b760c01b612134565b6105f767f17b8357ce55775a60c01b612134565b61060b6738f11a852b63769260c01b612134565b60d160009054906101000a900460ff1661065a576040517f08c379a000000000000000000000000000000000000000000000000000000000815260040161065190612f0d565b60405180910390fd5b61066e67d2951fff2b50c6be60c01b612134565b61068267ce55734be3c85cd760c01b612134565b610696671e7d8ef81cf92b6d60c01b612134565b6106aa671048ecf50600ad6e60c01b612134565b60d360009054906101000a900473ffffffffffffffffffffffffffffffffffffffff1673ffffffffffffffffffffffffffffffffffffffff168173ffffffffffffffffffffffffffffffffffffffff160361073a576040517f08c379a000000000000000000000000000000000000000000000000000000000815260040161073190612f79565b60405180910390fd5b61074e67ae17d82b917db96b60c01b612134565b610762674ba1d8d827facbab60c01b612134565b6107766723b30f4ccca727af60c01b612134565b61078a671071491451cc6e6360c01b612134565b600060d260008373ffffffffffffffffffffffffffffffffffffffff1673ffffffffffffffffffffffffffffffffffffffff168152602001908152602001600020541161080c576040517f08c379a000000000000000000000000000000000000000000000000000000000815260040161080390612fe5565b60405180910390fd5b6108206778c5769d702cd72e60c01b612134565b61083467954abfa21b98d8fa60c01b612134565b6108486759efd97f3f48662a60c01b612134565b600060d260008373ffffffffffffffffffffffffffffffffffffffff1673ffffffffffffffffffffffffffffffffffffffff1681526020019081526020016000205490506108a06751d4d5129ed28f4960c01b612134565b600060d260008473ffffffffffffffffffffffffffffffffffffffff1673ffffffffffffffffffffffffffffffffffffffff168152602001908152602001600020819055506108f9676608cd09a9f961f360c01b612134565b61090d67d4eed39922419c1860c01b612134565b60c960009054906101000a900473ffffffffffffffffffffffffffffffffffffffff1673ffffffffffffffffffffffffffffffffffffffff1663a9059cbb83836040518363ffffffff1660e01b815260040161096a929190613005565b6020604051808303816000875af1158015610989573d6000803e3d6000fd5b505050506040513d601f19601f820116820180604052508101906109ad919061305a565b505050565b60ce5481565b7f000000000000000000000000000000000000000000000000000000000000000073ffffffffffffffffffffffffffffffffffffffff163073ffffffffffffffffffffffffffffffffffffffff1603610a46576040517f08c379a0000000000000000000000000000000000000000000000000000000008152600401610a3d906130f9565b60405180910390fd5b7f000000000000000000000000000000000000000000000000000000000000000073ffffffffffffffffffffffffffffffffffffffff16610a85612137565b73ffffffffffffffffffffffffffffffffffffffff1614610adb576040517f08c379a0000000000000000000000000000000000000000000000000000000008152600401610ad29061318b565b60405180910390fd5b610ae48161218e565b610b3d81600067ffffffffffffffff811115610b0357610b02612a47565b5b6040519080825280601f01601f191660200182016040528015610b355781602001600182028036833780820191505090505b5060006121d5565b50565b60d160019054906101000a900460ff1681565b60ca60009054906101000a900473ffffffffffffffffffffffffffffffffffffffff1681565b7f000000000000000000000000000000000000000000000000000000000000000073ffffffffffffffffffffffffffffffffffffffff163073ffffffffffffffffffffffffffffffffffffffff1603610c07576040517f08c379a0000000000000000000000000000000000000000000000000000000008152600401610bfe906130f9565b60405180910390fd5b7f000000000000000000000000000000000000000000000000000000000000000073ffffffffffffffffffffffffffffffffffffffff16610c46612137565b73ffffffffffffffffffffffffffffffffffffffff1614610c9c576040517f08c379a0000000000000000000000000000000000000000000000000000000008152600401610c939061318b565b60405180910390fd5b610ca58261218e565b610cb1828260016121d5565b5050565b60007f000000000000000000000000000000000000000000000000000000000000000073ffffffffffffffffffffffffffffffffffffffff163073ffffffffffffffffffffffffffffffffffffffff1614610d45576040517f08c379a0000000000000000000000000000000000000000000000000000000008152600401610d3c9061321d565b60405180910390fd5b7f360894a13ba1a3210667c828492db98dca3e2076cc3735a920a3ca505d382bbc60001b905090565b60d26020528060005260406000206000915090505481565b610d8e612343565b610d9860006123c1565b565b610dae679deb8235136a9a5b60c01b612134565b60008060019054906101000a900460ff16159050808015610ddf5750600160008054906101000a900460ff1660ff16105b80610e0c5750610dee30612487565b158015610e0b5750600160008054906101000a900460ff1660ff16145b5b610e4b576040517f08c379a0000000000000000000000000000000000000000000000000000000008152600401610e42906132af565b60405180910390fd5b60016000806101000a81548160ff021916908360ff1602179055508015610e88576001600060016101000a81548160ff0219169083151502179055505b610e9c67313d33df74aa649060c01b612134565b610eb067a82b896fb9fbcd7260c01b612134565b610ec46745c1d144a21314c160c01b612134565b610ed867f0f516de2040064160c01b612134565b610ee06124aa565b610ef46787525d0d10854d7860c01b612134565b610f08671c745ef08f665cd860c01b612134565b610f10612503565b610f24673e5231f002cf83fd60c01b612134565b8760d69081610f3391906134d1565b50610f4867e4ba07038e069f2960c01b612134565b8560cb60006101000a81548173ffffffffffffffffffffffffffffffffffffffff021916908373ffffffffffffffffffffffffffffffffffffffff160217905550610f9d6711147327ad3277f560c01b612134565b8460cc81905550610fb86773dc62016267f1c360c01b612134565b8360cd81905550610fd367018c28f58442e00860c01b612134565b8260ce81905550610fee675d3761f10166928f60c01b612134565b8160cf8190555061100967e0aacac5fd9b88ed60c01b612134565b61103461102360cf5460ce5461255490919063ffffffff16565b60cd5461256a90919063ffffffff16565b60d08190555061104e679c38d26bdad9902660c01b612134565b4360d58190555061106967f188eab8694adf3f60c01b612134565b600060d160006101000a81548160ff02191690831515021790555061109867b0882d04b81d573f60c01b612134565b600060d160016101000a81548160ff0219169083151502179055506110c767626799799d63a5f360c01b612134565b8660c960006101000a81548173ffffffffffffffffffffffffffffffffffffffff021916908373ffffffffffffffffffffffffffffffffffffffff16021790555061111c67f94ecd8357f784d460c01b612134565b8560ca60006101000a81548173ffffffffffffffffffffffffffffffffffffffff021916908373ffffffffffffffffffffffffffffffffffffffff1602179055506111716710b5bbd61b9d3b1d60c01b612134565b61118567e924a2fae6c0615e60c01b612134565b61119967de3619c0d6ecc4a560c01b612134565b6111a161135f565b73ffffffffffffffffffffffffffffffffffffffff1660ca60009054906101000a900473ffffffffffffffffffffffffffffffffffffffff1673ffffffffffffffffffffffffffffffffffffffff16636352211e876040518263ffffffff1660e01b815260040161121291906128c2565b602060405180830381865afa15801561122f573d6000803e3d6000fd5b505050506040513d601f19601f8201168201806040525081019061125391906135b8565b73ffffffffffffffffffffffffffffffffffffffff16146112a9576040517f08c379a00000000000000000000000000000000000000000000000000000000081526004016112a090613657565b60405180910390fd5b6112bd670506fbd1b9c9670960c01b612134565b80156113165760008060016101000a81548160ff0219169083151502179055507f7f26b83ff96e1f2b6a682f133852f6798a09c465da95921460cefb3847402498600160405161130d91906136bf565b60405180910390a15b5050505050505050565b60cc5481565b60d160009054906101000a900460ff1681565b60c960009054906101000a900473ffffffffffffffffffffffffffffffffffffffff1681565b6000603360009054906101000a900473ffffffffffffffffffffffffffffffffffffffff16905090565b60d360009054906101000a900473ffffffffffffffffffffffffffffffffffffffff1681565b6113c367d2548c98fd33cb5e60c01b612134565b6113d7677e552a2ddce6257860c01b612134565b6113eb67e1e91a4d85127c9260c01b612134565b6113ff6768212cc10057bb9e60c01b612134565b60008111611442576040517f08c379a00000000000000000000000000000000000000000000000000000000081526004016114399061374c565b60405180910390fd5b6114566777206cc8eba502be60c01b612134565b61146a677f40f83315a2cd9f60c01b612134565b61147e678f0a8dbbb3378d2760c01b612134565b611492672526b130317e55e560c01b612134565b60d160009054906101000a900460ff16156114e2576040517f08c379a00000000000000000000000000000000000000000000000000000000081526004016114d9906137b8565b60405180910390fd5b6114f66769f0fcaad4b5df5a60c01b612134565b61150a674e788535c70b6b7c60c01b612134565b61151e67f8fae08f2442aafd60c01b612134565b60c960009054906101000a900473ffffffffffffffffffffffffffffffffffffffff1673ffffffffffffffffffffffffffffffffffffffff166323b872dd3330846040518463ffffffff1660e01b815260040161157d939291906137d8565b6020604051808303816000875af115801561159c573d6000803e3d6000fd5b505050506040513d601f19601f820116820180604052508101906115c0919061305a565b506115d567362582b030b511ce60c01b612134565b6115e967c5c5719ac6ab327a60c01b612134565b60d45481111561176a576116076719135e7223f2c39d60c01b612134565b61161b67741730dee68d312e60c01b612134565b61162f67b0592e40ce88aa9b60c01b612134565b600060d454146116e05761164d67d2d7399dd2cf9c1360c01b612134565b61166167f63d16e7eddc1c6b60c01b612134565b60d45460d2600060d360009054906101000a900473ffffffffffffffffffffffffffffffffffffffff1673ffffffffffffffffffffffffffffffffffffffff1673ffffffffffffffffffffffffffffffffffffffff16815260200190815260200160002060008282546116d4919061383e565b925050819055506116f5565b6116f467959fa68ecf16f0ad60c01b612134565b5b61170967ccb20cb4318731c060c01b612134565b3360d360006101000a81548173ffffffffffffffffffffffffffffffffffffffff021916908373ffffffffffffffffffffffffffffffffffffffff16021790555061175e67878701e2a6e01e8c60c01b612134565b8060d4819055506117e9565b61177e67ed4f45cc5b26d4a760c01b612134565b61179267fd8af99d46e406d760c01b612134565b8060d260003373ffffffffffffffffffffffffffffffffffffffff1673ffffffffffffffffffffffffffffffffffffffff16815260200190815260200160002060008282546117e1919061383e565b925050819055505b6117fd67b8ffc309f8e6c2d860c01b612134565b61181167a5ae1f09f19565d760c01b612134565b3373ffffffffffffffffffffffffffffffffffffffff167f3fabff0a9c3ecd6814702e247fa9733e5d0aa69e3a38590f92cb18f623a2254d8260405161185791906128c2565b60405180910390a261187367f3f8ebd5e25dcce960c01b612134565b61188767701101ad141cdefb60c01b612134565b60d05481106118d9576118a467e3a735317ae1cd8260c01b612134565b6118b86747554a97ca9a39d560c01b612134565b6118cc675db9dd434ffc6e7c60c01b612134565b6118d4611b0e565b6118ee565b6118ed67afa9a6fb91b5c1de60c01b612134565b5b50565b6060611907674e1636c34752959960c01b612134565b61191b67704db32b1fa93caa60c01b612134565b61192f67b2a626d173b6c42760c01b612134565b60d6805461193c906132fe565b80601f0160208091040260200160405190810160405280929190818152602001828054611968906132fe565b80156119b55780601f1061198a576101008083540402835291602001916119b5565b820191906000526020600020905b81548152906001019060200180831161199857829003601f168201915b5050505050905090565b60cf5481565b60d45481565b60cd5481565b60cb60009054906101000a900473ffffffffffffffffffffffffffffffffffffffff1681565b60d55481565b60d68054611a0a906132fe565b80601f0160208091040260200160405190810160405280929190818152602001828054611a36906132fe565b8015611a835780601f10611a5857610100808354040283529160200191611a83565b820191906000526020600020905b815481529060010190602001808311611a6657829003601f168201915b505050505081565b611a93612343565b600073ffffffffffffffffffffffffffffffffffffffff168173ffffffffffffffffffffffffffffffffffffffff1603611b02576040517f08c379a0000000000000000000000000000000000000000000000000000000008152600401611af9906138e4565b60405180910390fd5b611b0b816123c1565b50565b611b2267969140fe9588c53160c01b612134565b611b366786925c7737d6c93960c01b612134565b611b4a67f007a81a8229c13a60c01b612134565b611b5e6720a79d587a3fa0dc60c01b612134565b60d160009054906101000a900460ff1615611bae576040517f08c379a0000000000000000000000000000000000000000000000000000000008152600401611ba5906137b8565b60405180910390fd5b611bc2677d1464c36565f8ed60c01b612134565b611bd667399d2f419cabf93360c01b612134565b600160d160006101000a81548160ff021916908315150217905550611c05673175d845e3d0c84960c01b612134565b600160d160016101000a81548160ff021916908315150217905550611c3467b8cacb7bb8ef875b60c01b612134565b611c4867492a636bbd8c2eb260c01b612134565b600073ffffffffffffffffffffffffffffffffffffffff1660d360009054906101000a900473ffffffffffffffffffffffffffffffffffffffff1673ffffffffffffffffffffffffffffffffffffffff1614611f4657611cb267df9cdcaae86ac02760c01b612134565b611cc667345ddf17b2dd1aea60c01b612134565b600060d2600060d360009054906101000a900473ffffffffffffffffffffffffffffffffffffffff1673ffffffffffffffffffffffffffffffffffffffff1673ffffffffffffffffffffffffffffffffffffffff16815260200190815260200160002081905550611d4167af14f2ebb38d6c3460c01b612134565b611d5567bcc0e25eef3f819360c01b612134565b60ca60009054906101000a900473ffffffffffffffffffffffffffffffffffffffff1673ffffffffffffffffffffffffffffffffffffffff166342842e0e60ca60009054906101000a900473ffffffffffffffffffffffffffffffffffffffff1673ffffffffffffffffffffffffffffffffffffffff16636352211e60cc546040518263ffffffff1660e01b8152600401611df091906128c2565b602060405180830381865afa158015611e0d573d6000803e3d6000fd5b505050506040513d601f19601f82011682018060405250810190611e3191906135b8565b60d360009054906101000a900473ffffffffffffffffffffffffffffffffffffffff1660cc546040518463ffffffff1660e01b8152600401611e75939291906137d8565b600060405180830381600087803b158015611e8f57600080fd5b505af1158015611ea3573d6000803e3d6000fd5b50505050611ebb67600af87a7656e1ca60c01b612134565b611ecf676d5f0b086387b49c60c01b612134565b60d360009054906101000a900473ffffffffffffffffffffffffffffffffffffffff1673ffffffffffffffffffffffffffffffffffffffff167fdaec4582d5d9595688c8c98545fdd1c696d41c6aeaeb636737e84ed2f5c00eda60d454604051611f3991906128c2565b60405180910390a2612132565b611f5a67ddc5fe701654a26560c01b612134565b611f6e67c48acc0a08e73cb360c01b612134565b611f82679a17a882d23ebb2960c01b612134565b60ca60009054906101000a900473ffffffffffffffffffffffffffffffffffffffff1673ffffffffffffffffffffffffffffffffffffffff166342842e0e60ca60009054906101000a900473ffffffffffffffffffffffffffffffffffffffff1673ffffffffffffffffffffffffffffffffffffffff16636352211e60cc546040518263ffffffff1660e01b815260040161201d91906128c2565b602060405180830381865afa15801561203a573d6000803e3d6000fd5b505050506040513d601f19601f8201168201806040525081019061205e91906135b8565b61206661135f565b60cc546040518463ffffffff1660e01b8152600401612087939291906137d8565b600060405180830381600087803b1580156120a157600080fd5b505af11580156120b5573d6000803e3d6000fd5b505050506120cd672d42877de5ce64df60c01b612134565b6120e167e359f7fb02ce85e860c01b612134565b600073ffffffffffffffffffffffffffffffffffffffff167fdaec4582d5d9595688c8c98545fdd1c696d41c6aeaeb636737e84ed2f5c00eda6000604051612129919061393f565b60405180910390a25b565b50565b60006121657f360894a13ba1a3210667c828492db98dca3e2076cc3735a920a3ca505d382bbc60001b612580565b60000160009054906101000a900473ffffffffffffffffffffffffffffffffffffffff16905090565b6121a267051642abae11d80d60c01b612134565b6121aa612343565b6121be671b17ac6ada6d300060c01b612134565b6121d267fa68a0f7aec9ed1560c01b612134565b50565b6122017f4910fdfa16fed3260ed0e7147f7cc6da11a60208b5b9406d12a635614ffd914360001b61258a565b60000160009054906101000a900460ff16156122255761222083612594565b61233e565b8273ffffffffffffffffffffffffffffffffffffffff166352d1902d6040518163ffffffff1660e01b8152600401602060405180830381865afa92505050801561228d57506040513d601f19601f8201168201806040525081019061228a9190613986565b60015b6122cc576040517f08c379a00000000000000000000000000000000000000000000000000000000081526004016122c390613a25565b60405180910390fd5b7f360894a13ba1a3210667c828492db98dca3e2076cc3735a920a3ca505d382bbc60001b8114612331576040517f08c379a000000000000000000000000000000000000000000000000000000000815260040161232890613ab7565b60405180910390fd5b5061233d83838361264d565b5b505050565b61234b612679565b73ffffffffffffffffffffffffffffffffffffffff1661236961135f565b73ffffffffffffffffffffffffffffffffffffffff16146123bf576040517f08c379a00000000000000000000000000000000000000000000000000000000081526004016123b690613b23565b60405180910390fd5b565b6000603360009054906101000a900473ffffffffffffffffffffffffffffffffffffffff16905081603360006101000a81548173ffffffffffffffffffffffffffffffffffffffff021916908373ffffffffffffffffffffffffffffffffffffffff1602179055508173ffffffffffffffffffffffffffffffffffffffff168173ffffffffffffffffffffffffffffffffffffffff167f8be0079c531659141344cd1fd0a4f28419497f9722a3daafe3b4186f6b6457e060405160405180910390a35050565b6000808273ffffffffffffffffffffffffffffffffffffffff163b119050919050565b600060019054906101000a900460ff166124f9576040517f08c379a00000000000000000000000000000000000000000000000000000000081526004016124f090613bb5565b60405180910390fd5b612501612681565b565b600060019054906101000a900460ff16612552576040517f08c379a000000000000000000000000000000000000000000000000000000000815260040161254990613bb5565b60405180910390fd5b565b600081836125629190613bd5565b905092915050565b60008183612578919061383e565b905092915050565b6000819050919050565b6000819050919050565b61259d81612487565b6125dc576040517f08c379a00000000000000000000000000000000000000000000000000000000081526004016125d390613c89565b60405180910390fd5b806126097f360894a13ba1a3210667c828492db98dca3e2076cc3735a920a3ca505d382bbc60001b612580565b60000160006101000a81548173ffffffffffffffffffffffffffffffffffffffff021916908373ffffffffffffffffffffffffffffffffffffffff16021790555050565b612656836126e2565b6000825111806126635750805b15612674576126728383612731565b505b505050565b600033905090565b600060019054906101000a900460ff166126d0576040517f08c379a00000000000000000000000000000000000000000000000000000000081526004016126c790613bb5565b60405180910390fd5b6126e06126db612679565b6123c1565b565b6126eb81612594565b8073ffffffffffffffffffffffffffffffffffffffff167fbc7cd75a20ee27fd9adebab32041f755214dbc6bffa90cc0225b39da2e5c2d3b60405160405180910390a250565b60606127568383604051806060016040528060278152602001613d746027913961275e565b905092915050565b60606000808573ffffffffffffffffffffffffffffffffffffffff16856040516127889190613cf0565b600060405180830381855af49150503d80600081146127c3576040519150601f19603f3d011682016040523d82523d6000602084013e6127c8565b606091505b50915091506127d9868383876127e4565b925050509392505050565b6060831561284657600083510361283e576127fe85612487565b61283d576040517f08c379a000000000000000000000000000000000000000000000000000000000815260040161283490613d53565b60405180910390fd5b5b829050612851565b6128508383612859565b5b949350505050565b60008251111561286c5781518083602001fd5b806040517f08c379a00000000000000000000000000000000000000000000000000000000081526004016128a09190612e9f565b60405180910390fd5b6000819050919050565b6128bc816128a9565b82525050565b60006020820190506128d760008301846128b3565b92915050565b6000604051905090565b600080fd5b600080fd5b600073ffffffffffffffffffffffffffffffffffffffff82169050919050565b600061291c826128f1565b9050919050565b61292c81612911565b811461293757600080fd5b50565b60008135905061294981612923565b92915050565b600060208284031215612965576129646128e7565b5b60006129738482850161293a565b91505092915050565b60008115159050919050565b6129918161297c565b82525050565b60006020820190506129ac6000830184612988565b92915050565b6000819050919050565b60006129d76129d26129cd846128f1565b6129b2565b6128f1565b9050919050565b60006129e9826129bc565b9050919050565b60006129fb826129de565b9050919050565b612a0b816129f0565b82525050565b6000602082019050612a266000830184612a02565b92915050565b600080fd5b600080fd5b6000601f19601f8301169050919050565b7f4e487b7100000000000000000000000000000000000000000000000000000000600052604160045260246000fd5b612a7f82612a36565b810181811067ffffffffffffffff82111715612a9e57612a9d612a47565b5b80604052505050565b6000612ab16128dd565b9050612abd8282612a76565b919050565b600067ffffffffffffffff821115612add57612adc612a47565b5b612ae682612a36565b9050602081019050919050565b82818337600083830152505050565b6000612b15612b1084612ac2565b612aa7565b905082815260208101848484011115612b3157612b30612a31565b5b612b3c848285612af3565b509392505050565b600082601f830112612b5957612b58612a2c565b5b8135612b69848260208601612b02565b91505092915050565b60008060408385031215612b8957612b886128e7565b5b6000612b978582860161293a565b925050602083013567ffffffffffffffff811115612bb857612bb76128ec565b5b612bc485828601612b44565b9150509250929050565b6000819050919050565b612be181612bce565b82525050565b6000602082019050612bfc6000830184612bd8565b92915050565b600067ffffffffffffffff821115612c1d57612c1c612a47565b5b612c2682612a36565b9050602081019050919050565b6000612c46612c4184612c02565b612aa7565b905082815260208101848484011115612c6257612c61612a31565b5b612c6d848285612af3565b509392505050565b600082601f830112612c8a57612c89612a2c565b5b8135612c9a848260208601612c33565b91505092915050565b612cac816128a9565b8114612cb757600080fd5b50565b600081359050612cc981612ca3565b92915050565b600080600080600080600060e0888a031215612cee57612ced6128e7565b5b600088013567ffffffffffffffff811115612d0c57612d0b6128ec565b5b612d188a828b01612c75565b9750506020612d298a828b0161293a565b9650506040612d3a8a828b0161293a565b9550506060612d4b8a828b01612cba565b9450506080612d5c8a828b01612cba565b93505060a0612d6d8a828b01612cba565b92505060c0612d7e8a828b01612cba565b91505092959891949750929550565b6000612d98826129de565b9050919050565b612da881612d8d565b82525050565b6000602082019050612dc36000830184612d9f565b92915050565b612dd281612911565b82525050565b6000602082019050612ded6000830184612dc9565b92915050565b600060208284031215612e0957612e086128e7565b5b6000612e1784828501612cba565b91505092915050565b600081519050919050565b600082825260208201905092915050565b60005b83811015612e5a578082015181840152602081019050612e3f565b60008484015250505050565b6000612e7182612e20565b612e7b8185612e2b565b9350612e8b818560208601612e3c565b612e9481612a36565b840191505092915050565b60006020820190508181036000830152612eb98184612e66565b905092915050565b7f41756374696f6e20686173206e6f7420656e6465642079657400000000000000600082015250565b6000612ef7601983612e2b565b9150612f0282612ec1565b602082019050919050565b60006020820190508181036000830152612f2681612eea565b9050919050565b7f48696768657374206269646465722063616e6e6f7420726566756e6400000000600082015250565b6000612f63601c83612e2b565b9150612f6e82612f2d565b602082019050919050565b60006020820190508181036000830152612f9281612f56565b9050919050565b7f4e6f2062696420746f20726566756e6400000000000000000000000000000000600082015250565b6000612fcf601083612e2b565b9150612fda82612f99565b602082019050919050565b60006020820190508181036000830152612ffe81612fc2565b9050919050565b600060408201905061301a6000830185612dc9565b61302760208301846128b3565b9392505050565b6130378161297c565b811461304257600080fd5b50565b6000815190506130548161302e565b92915050565b6000602082840312156130705761306f6128e7565b5b600061307e84828501613045565b91505092915050565b7f46756e6374696f6e206d7573742062652063616c6c6564207468726f7567682060008201527f64656c656761746563616c6c0000000000000000000000000000000000000000602082015250565b60006130e3602c83612e2b565b91506130ee82613087565b604082019050919050565b60006020820190508181036000830152613112816130d6565b9050919050565b7f46756e6374696f6e206d7573742062652063616c6c6564207468726f7567682060008201527f6163746976652070726f78790000000000000000000000000000000000000000602082015250565b6000613175602c83612e2b565b915061318082613119565b604082019050919050565b600060208201905081810360008301526131a481613168565b9050919050565b7f555550535570677261646561626c653a206d757374206e6f742062652063616c60008201527f6c6564207468726f7567682064656c656761746563616c6c0000000000000000602082015250565b6000613207603883612e2b565b9150613212826131ab565b604082019050919050565b60006020820190508181036000830152613236816131fa565b9050919050565b7f496e697469616c697a61626c653a20636f6e747261637420697320616c72656160008201527f647920696e697469616c697a6564000000000000000000000000000000000000602082015250565b6000613299602e83612e2b565b91506132a48261323d565b604082019050919050565b600060208201905081810360008301526132c88161328c565b9050919050565b7f4e487b7100000000000000000000000000000000000000000000000000000000600052602260045260246000fd5b6000600282049050600182168061331657607f821691505b602082108103613329576133286132cf565b5b50919050565b60008190508160005260206000209050919050565b60006020601f8301049050919050565b600082821b905092915050565b6000600883026133917fffffffffffffffffffffffffffffffffffffffffffffffffffffffffffffffff82613354565b61339b8683613354565b95508019841693508086168417925050509392505050565b60006133ce6133c96133c4846128a9565b6129b2565b6128a9565b9050919050565b6000819050919050565b6133e8836133b3565b6133fc6133f4826133d5565b848454613361565b825550505050565b600090565b613411613404565b61341c8184846133df565b505050565b5b8181101561344057613435600082613409565b600181019050613422565b5050565b601f821115613485576134568161332f565b61345f84613344565b8101602085101561346e578190505b61348261347a85613344565b830182613421565b50505b505050565b600082821c905092915050565b60006134a86000198460080261348a565b1980831691505092915050565b60006134c18383613497565b9150826002028217905092915050565b6134da82612e20565b67ffffffffffffffff8111156134f3576134f2612a47565b5b6134fd82546132fe565b613508828285613444565b600060209050601f83116001811461353b5760008415613529578287015190505b61353385826134b5565b86555061359b565b601f1984166135498661332f565b60005b828110156135715784890151825560018201915060208501945060208101905061354c565b8683101561358e578489015161358a601f891682613497565b8355505b6001600288020188555050505b505050505050565b6000815190506135b281612923565b92915050565b6000602082840312156135ce576135cd6128e7565b5b60006135dc848285016135a3565b91505092915050565b7f4e465420746f6b656e20496420646f6573206e6f742062656c6f6e6720746f2060008201527f7468652041756374696f6e2773204f776e657200000000000000000000000000602082015250565b6000613641603383612e2b565b915061364c826135e5565b604082019050919050565b6000602082019050818103600083015261367081613634565b9050919050565b6000819050919050565b600060ff82169050919050565b60006136a96136a461369f84613677565b6129b2565b613681565b9050919050565b6136b98161368e565b82525050565b60006020820190506136d460008301846136b0565b92915050565b7f42696420616d6f756e74206d7573742062652067726561746572207468616e2060008201527f7a65726f00000000000000000000000000000000000000000000000000000000602082015250565b6000613736602483612e2b565b9150613741826136da565b604082019050919050565b6000602082019050818103600083015261376581613729565b9050919050565b7f41756374696f6e2068617320616c726561647920656e64656400000000000000600082015250565b60006137a2601983612e2b565b91506137ad8261376c565b602082019050919050565b600060208201905081810360008301526137d181613795565b9050919050565b60006060820190506137ed6000830186612dc9565b6137fa6020830185612dc9565b61380760408301846128b3565b949350505050565b7f4e487b7100000000000000000000000000000000000000000000000000000000600052601160045260246000fd5b6000613849826128a9565b9150613854836128a9565b925082820190508082111561386c5761386b61380f565b5b92915050565b7f4f776e61626c653a206e6577206f776e657220697320746865207a65726f206160008201527f6464726573730000000000000000000000000000000000000000000000000000602082015250565b60006138ce602683612e2b565b91506138d982613872565b604082019050919050565b600060208201905081810360008301526138fd816138c1565b9050919050565b6000819050919050565b600061392961392461391f84613904565b6129b2565b6128a9565b9050919050565b6139398161390e565b82525050565b60006020820190506139546000830184613930565b92915050565b61396381612bce565b811461396e57600080fd5b50565b6000815190506139808161395a565b92915050565b60006020828403121561399c5761399b6128e7565b5b60006139aa84828501613971565b91505092915050565b7f45524331393637557067726164653a206e657720696d706c656d656e7461746960008201527f6f6e206973206e6f742055555053000000000000000000000000000000000000602082015250565b6000613a0f602e83612e2b565b9150613a1a826139b3565b604082019050919050565b60006020820190508181036000830152613a3e81613a02565b9050919050565b7f45524331393637557067726164653a20756e737570706f727465642070726f7860008201527f6961626c65555549440000000000000000000000000000000000000000000000602082015250565b6000613aa1602983612e2b565b9150613aac82613a45565b604082019050919050565b60006020820190508181036000830152613ad081613a94565b9050919050565b7f4f776e61626c653a2063616c6c6572206973206e6f7420746865206f776e6572600082015250565b6000613b0d602083612e2b565b9150613b1882613ad7565b602082019050919050565b60006020820190508181036000830152613b3c81613b00565b9050919050565b7f496e697469616c697a61626c653a20636f6e7472616374206973206e6f74206960008201527f6e697469616c697a696e67000000000000000000000000000000000000000000602082015250565b6000613b9f602b83612e2b565b9150613baa82613b43565b604082019050919050565b60006020820190508181036000830152613bce81613b92565b9050919050565b6000613be0826128a9565b9150613beb836128a9565b9250828202613bf9816128a9565b91508282048414831517613c1057613c0f61380f565b5b5092915050565b7f455243313936373a206e657720696d706c656d656e746174696f6e206973206e60008201527f6f74206120636f6e747261637400000000000000000000000000000000000000602082015250565b6000613c73602d83612e2b565b9150613c7e82613c17565b604082019050919050565b60006020820190508181036000830152613ca281613c66565b9050919050565b600081519050919050565b600081905092915050565b6000613cca82613ca9565b613cd48185613cb4565b9350613ce4818560208601612e3c565b80840191505092915050565b6000613cfc8284613cbf565b915081905092915050565b7f416464726573733a2063616c6c20746f206e6f6e2d636f6e7472616374000000600082015250565b6000613d3d601d83612e2b565b9150613d4882613d07565b602082019050919050565b60006020820190508181036000830152613d6c81613d30565b905091905056fe416464726573733a206c6f772d6c6576656c2064656c65676174652063616c6c206661696c6564a26469706673582212204536e52d74ff3c7b55bcf519cf2604f26b977ce7914671212751780b6a1fac0d64736f6c63430008120033",
  "linkReferences": {},
  "deployedLinkReferences": {}
}